{
	"Tet.sol": {
		"Tet": {
			"abi": [
				{
					"inputs": [],
					"stateMutability": "nonpayable",
					"type": "constructor"
				},
				{
					"anonymous": false,
					"inputs": [
						{
							"indexed": true,
							"internalType": "address",
							"name": "owner",
							"type": "address"
						},
						{
							"indexed": true,
							"internalType": "address",
							"name": "spender",
							"type": "address"
						},
						{
							"indexed": false,
							"internalType": "uint256",
							"name": "value",
							"type": "uint256"
						}
					],
					"name": "Approval",
					"type": "event"
				},
				{
					"anonymous": false,
					"inputs": [
						{
							"indexed": true,
							"internalType": "address",
							"name": "from",
							"type": "address"
						},
						{
							"indexed": true,
							"internalType": "address",
							"name": "to",
							"type": "address"
						},
						{
							"indexed": false,
							"internalType": "uint256",
							"name": "value",
							"type": "uint256"
						}
					],
					"name": "Transfer",
					"type": "event"
				},
				{
					"inputs": [],
					"name": "Owner1",
					"outputs": [
						{
							"internalType": "address",
							"name": "",
							"type": "address"
						}
					],
					"stateMutability": "view",
					"type": "function"
				},
				{
					"inputs": [],
					"name": "Owner2",
					"outputs": [
						{
							"internalType": "address",
							"name": "",
							"type": "address"
						}
					],
					"stateMutability": "view",
					"type": "function"
				},
				{
					"inputs": [
						{
							"internalType": "address",
							"name": "",
							"type": "address"
						},
						{
							"internalType": "enum Tet.Role",
							"name": "",
							"type": "uint8"
						}
					],
					"name": "_hasRole",
					"outputs": [
						{
							"internalType": "bool",
							"name": "",
							"type": "bool"
						}
					],
					"stateMutability": "view",
					"type": "function"
				},
				{
					"inputs": [
						{
							"internalType": "address",
							"name": "",
							"type": "address"
						},
						{
							"internalType": "address",
							"name": "",
							"type": "address"
						}
					],
					"name": "_role",
					"outputs": [
						{
							"internalType": "uint256",
							"name": "",
							"type": "uint256"
						}
					],
					"stateMutability": "view",
					"type": "function"
				},
				{
					"inputs": [
						{
							"internalType": "address",
							"name": "",
							"type": "address"
						}
					],
					"name": "_roles",
					"outputs": [
						{
							"internalType": "enum Tet.Role",
							"name": "",
							"type": "uint8"
						}
					],
					"stateMutability": "view",
					"type": "function"
				},
				{
					"inputs": [
						{
							"internalType": "address",
							"name": "",
							"type": "address"
						}
					],
					"name": "_userRoleData",
					"outputs": [
						{
							"internalType": "address",
							"name": "user",
							"type": "address"
						},
						{
							"internalType": "bool",
							"name": "isGranted",
							"type": "bool"
						},
						{
							"internalType": "bool",
							"name": "isRevoked",
							"type": "bool"
						},
						{
							"internalType": "enum Tet.Role",
							"name": "roleType",
							"type": "uint8"
						},
						{
							"internalType": "string",
							"name": "roleName",
							"type": "string"
						}
					],
					"stateMutability": "view",
					"type": "function"
				},
				{
					"inputs": [
						{
							"internalType": "address",
							"name": "_user",
							"type": "address"
						}
					],
					"name": "addBlacklist",
					"outputs": [
						{
							"internalType": "address[]",
							"name": "",
							"type": "address[]"
						}
					],
					"stateMutability": "nonpayable",
					"type": "function"
				},
				{
					"inputs": [
						{
							"internalType": "address",
							"name": "_user",
							"type": "address"
						}
					],
					"name": "addToWhitelist",
					"outputs": [
						{
							"internalType": "address[]",
							"name": "",
							"type": "address[]"
						}
					],
					"stateMutability": "nonpayable",
					"type": "function"
				},
				{
					"inputs": [
						{
							"internalType": "address",
							"name": "",
							"type": "address"
						},
						{
							"internalType": "address",
							"name": "",
							"type": "address"
						}
					],
					"name": "allowance",
					"outputs": [
						{
							"internalType": "uint256",
							"name": "",
							"type": "uint256"
						}
					],
					"stateMutability": "view",
					"type": "function"
				},
				{
					"inputs": [
						{
							"internalType": "address",
							"name": "_spender",
							"type": "address"
						},
						{
							"internalType": "uint256",
							"name": "value",
							"type": "uint256"
						}
					],
					"name": "allowance2",
					"outputs": [
						{
							"internalType": "uint256",
							"name": "",
							"type": "uint256"
						}
					],
					"stateMutability": "view",
					"type": "function"
				},
				{
					"inputs": [
						{
							"internalType": "address",
							"name": "_spender",
							"type": "address"
						},
						{
							"internalType": "uint256",
							"name": "value",
							"type": "uint256"
						}
					],
					"name": "approve",
					"outputs": [
						{
							"internalType": "bool",
							"name": "",
							"type": "bool"
						}
					],
					"stateMutability": "nonpayable",
					"type": "function"
				},
				{
					"inputs": [
						{
							"internalType": "address",
							"name": "",
							"type": "address"
						}
					],
					"name": "balanceOf",
					"outputs": [
						{
							"internalType": "uint256",
							"name": "",
							"type": "uint256"
						}
					],
					"stateMutability": "view",
					"type": "function"
				},
				{
					"inputs": [],
					"name": "balanceOfOwner",
					"outputs": [
						{
							"internalType": "uint256",
							"name": "",
							"type": "uint256"
						}
					],
					"stateMutability": "view",
					"type": "function"
				},
				{
					"inputs": [],
					"name": "balanceOfOwner1",
					"outputs": [
						{
							"internalType": "uint256",
							"name": "",
							"type": "uint256"
						}
					],
					"stateMutability": "view",
					"type": "function"
				},
				{
					"inputs": [],
					"name": "balanceOfOwner2",
					"outputs": [
						{
							"internalType": "uint256",
							"name": "",
							"type": "uint256"
						}
					],
					"stateMutability": "view",
					"type": "function"
				},
				{
					"inputs": [
						{
							"internalType": "address",
							"name": "_user",
							"type": "address"
						}
					],
					"name": "balanceOfUser",
					"outputs": [
						{
							"internalType": "uint256",
							"name": "",
							"type": "uint256"
						}
					],
					"stateMutability": "nonpayable",
					"type": "function"
				},
				{
					"inputs": [
						{
							"internalType": "uint256",
							"name": "",
							"type": "uint256"
						}
					],
					"name": "blackListedAddresses",
					"outputs": [
						{
							"internalType": "address",
							"name": "",
							"type": "address"
						}
					],
					"stateMutability": "view",
					"type": "function"
				},
				{
					"inputs": [
						{
							"internalType": "address",
							"name": "",
							"type": "address"
						}
					],
					"name": "blacklist",
					"outputs": [
						{
							"internalType": "bool",
							"name": "",
							"type": "bool"
						}
					],
					"stateMutability": "view",
					"type": "function"
				},
				{
					"inputs": [
						{
							"internalType": "uint256",
							"name": "value",
							"type": "uint256"
						}
					],
					"name": "burn",
					"outputs": [],
					"stateMutability": "nonpayable",
					"type": "function"
				},
				{
					"inputs": [],
					"name": "ecim",
					"outputs": [
						{
							"internalType": "uint256",
							"name": "",
							"type": "uint256"
						}
					],
					"stateMutability": "view",
					"type": "function"
				},
				{
					"inputs": [
						{
							"internalType": "address",
							"name": "_admin",
							"type": "address"
						}
					],
					"name": "getAdmin99",
					"outputs": [
						{
							"internalType": "enum Tet.Role",
							"name": "",
							"type": "uint8"
						},
						{
							"internalType": "address",
							"name": "",
							"type": "address"
						},
						{
							"internalType": "bool",
							"name": "",
							"type": "bool"
						},
						{
							"internalType": "string",
							"name": "",
							"type": "string"
						}
					],
					"stateMutability": "view",
					"type": "function"
				},
				{
					"inputs": [],
					"name": "getBlackListedUsers",
					"outputs": [
						{
							"internalType": "address[]",
							"name": "",
							"type": "address[]"
						}
					],
					"stateMutability": "view",
					"type": "function"
				},
				{
					"inputs": [
						{
							"internalType": "address",
							"name": "_admin",
							"type": "address"
						},
						{
							"internalType": "address",
							"name": "_minter",
							"type": "address"
						},
						{
							"internalType": "address",
							"name": "_pauser",
							"type": "address"
						},
						{
							"internalType": "enum Tet.Role",
							"name": "role",
							"type": "uint8"
						},
						{
							"internalType": "enum Tet.Role",
							"name": "role1",
							"type": "uint8"
						}
					],
					"name": "grantRole",
					"outputs": [
						{
							"internalType": "address",
							"name": "",
							"type": "address"
						},
						{
							"internalType": "enum Tet.Role",
							"name": "",
							"type": "uint8"
						},
						{
							"internalType": "bool",
							"name": "",
							"type": "bool"
						}
					],
					"stateMutability": "nonpayable",
					"type": "function"
				},
				{
					"inputs": [
						{
							"internalType": "address",
							"name": "_user",
							"type": "address"
						}
					],
					"name": "isBlacklisted",
					"outputs": [
						{
							"internalType": "bool",
							"name": "",
							"type": "bool"
						}
					],
					"stateMutability": "view",
					"type": "function"
				},
				{
					"inputs": [
						{
							"internalType": "address",
							"name": "_user",
							"type": "address"
						}
					],
					"name": "isWhitelisted",
					"outputs": [
						{
							"internalType": "bool",
							"name": "",
							"type": "bool"
						}
					],
					"stateMutability": "view",
					"type": "function"
				},
				{
					"inputs": [
						{
							"internalType": "address",
							"name": "to",
							"type": "address"
						},
						{
							"internalType": "uint256",
							"name": "value",
							"type": "uint256"
						}
					],
					"name": "mint",
					"outputs": [],
					"stateMutability": "nonpayable",
					"type": "function"
				},
				{
					"inputs": [],
					"name": "name",
					"outputs": [
						{
							"internalType": "string",
							"name": "",
							"type": "string"
						}
					],
					"stateMutability": "view",
					"type": "function"
				},
				{
					"inputs": [],
					"name": "pause",
					"outputs": [
						{
							"internalType": "bool",
							"name": "",
							"type": "bool"
						}
					],
					"stateMutability": "nonpayable",
					"type": "function"
				},
				{
					"inputs": [
						{
							"internalType": "address",
							"name": "_user",
							"type": "address"
						}
					],
					"name": "removeBlacklist",
					"outputs": [
						{
							"internalType": "address[]",
							"name": "",
							"type": "address[]"
						}
					],
					"stateMutability": "nonpayable",
					"type": "function"
				},
				{
					"inputs": [
						{
							"internalType": "address",
							"name": "_user",
							"type": "address"
						}
					],
					"name": "removeFromWhitelist",
					"outputs": [
						{
							"internalType": "address[]",
							"name": "",
							"type": "address[]"
						}
					],
					"stateMutability": "nonpayable",
					"type": "function"
				},
				{
					"inputs": [
						{
							"internalType": "address",
							"name": "_admin",
							"type": "address"
						}
					],
					"name": "setAdmin99",
					"outputs": [],
					"stateMutability": "nonpayable",
					"type": "function"
				},
				{
					"inputs": [],
					"name": "symbol",
					"outputs": [
						{
							"internalType": "string",
							"name": "",
							"type": "string"
						}
					],
					"stateMutability": "view",
					"type": "function"
				},
				{
					"inputs": [],
					"name": "totalSupply",
					"outputs": [
						{
							"internalType": "uint256",
							"name": "",
							"type": "uint256"
						}
					],
					"stateMutability": "view",
					"type": "function"
				},
				{
					"inputs": [
						{
							"internalType": "address",
							"name": "to",
							"type": "address"
						},
						{
							"internalType": "uint256",
							"name": "value",
							"type": "uint256"
						}
					],
					"name": "transfer",
					"outputs": [
						{
							"internalType": "bool",
							"name": "",
							"type": "bool"
						}
					],
					"stateMutability": "nonpayable",
					"type": "function"
				},
				{
					"inputs": [
						{
							"internalType": "address",
							"name": "from",
							"type": "address"
						},
						{
							"internalType": "address",
							"name": "to",
							"type": "address"
						},
						{
							"internalType": "uint256",
							"name": "value",
							"type": "uint256"
						}
					],
					"name": "transferFrom",
					"outputs": [
						{
							"internalType": "bool",
							"name": "",
							"type": "bool"
						}
					],
					"stateMutability": "nonpayable",
					"type": "function"
				},
				{
					"inputs": [],
					"name": "unpause",
					"outputs": [
						{
							"internalType": "bool",
							"name": "",
							"type": "bool"
						}
					],
					"stateMutability": "nonpayable",
					"type": "function"
				},
				{
					"inputs": [
						{
							"internalType": "uint256",
							"name": "",
							"type": "uint256"
						}
					],
					"name": "userroles",
					"outputs": [
						{
							"internalType": "address",
							"name": "",
							"type": "address"
						}
					],
					"stateMutability": "view",
					"type": "function"
				},
				{
					"inputs": [
						{
							"internalType": "uint256",
							"name": "",
							"type": "uint256"
						}
					],
					"name": "whiteListedAddresses",
					"outputs": [
						{
							"internalType": "address",
							"name": "",
							"type": "address"
						}
					],
					"stateMutability": "view",
					"type": "function"
				},
				{
					"inputs": [
						{
							"internalType": "address",
							"name": "",
							"type": "address"
						}
					],
					"name": "whitelist",
					"outputs": [
						{
							"internalType": "bool",
							"name": "",
							"type": "bool"
						}
					],
					"stateMutability": "view",
					"type": "function"
				}
			],
			"devdoc": {
				"kind": "dev",
				"methods": {},
				"version": 1
			},
			"evm": {
				"assembly": "    /* \"Tet.sol\":58:14927  contract Tet {... */\n  mstore(0x40, 0x80)\n    /* \"Tet.sol\":78:109  string public name = \"Tet Toen\" */\n  mload(0x40)\n  dup1\n  0x40\n  add\n  0x40\n  mstore\n  dup1\n  0x08\n  dup2\n  mstore\n  0x20\n  add\n  0x54657420546f656e000000000000000000000000000000000000000000000000\n  dup2\n  mstore\n  pop\n  0x00\n  swap1\n  dup2\n  tag_1\n  swap2\n  swap1\n  tag_2\n  jump\t// in\ntag_1:\n  pop\n    /* \"Tet.sol\":116:144  string public symbol = \"Tet\" */\n  mload(0x40)\n  dup1\n  0x40\n  add\n  0x40\n  mstore\n  dup1\n  0x03\n  dup2\n  mstore\n  0x20\n  add\n  0x5465740000000000000000000000000000000000000000000000000000000000\n  dup2\n  mstore\n  pop\n  0x01\n  swap1\n  dup2\n  tag_3\n  swap2\n  swap1\n  tag_2\n  jump\t// in\ntag_3:\n  pop\n    /* \"Tet.sol\":173:179  10**18 */\n  0x0de0b6b3a7640000\n    /* \"Tet.sol\":151:179  uint256 public ecim = 10**18 */\n  0x02\n  sstore\n    /* \"Tet.sol\":263:370  constructor() {... */\n  callvalue\n  dup1\n  iszero\n  tag_4\n  jumpi\n  0x00\n  dup1\n  revert\ntag_4:\n  pop\n    /* \"Tet.sol\":295:305  msg.sender */\n  caller\n    /* \"Tet.sol\":287:292  owner */\n  0x04\n  0x00\n    /* \"Tet.sol\":287:305  owner = msg.sender */\n  0x0100\n  exp\n  dup2\n  sload\n  dup2\n  0xffffffffffffffffffffffffffffffffffffffff\n  mul\n  not\n  and\n  swap1\n  dup4\n  0xffffffffffffffffffffffffffffffffffffffff\n  and\n  mul\n  or\n  swap1\n  sstore\n  pop\n    /* \"Tet.sol\":324:329  false */\n  0x00\n    /* \"Tet.sol\":315:321  paused */\n  0x04\n  0x14\n    /* \"Tet.sol\":315:329  paused = false */\n  0x0100\n  exp\n  dup2\n  sload\n  dup2\n  0xff\n  mul\n  not\n  and\n  swap1\n  dup4\n  iszero\n  iszero\n  mul\n  or\n  swap1\n  sstore\n  pop\n    /* \"Tet.sol\":358:362  2000 */\n  0x07d0\n    /* \"Tet.sol\":339:348  balanceOf */\n  0x06\n    /* \"Tet.sol\":339:355  balanceOf[owner] */\n  0x00\n    /* \"Tet.sol\":349:354  owner */\n  0x04\n  0x00\n  swap1\n  sload\n  swap1\n  0x0100\n  exp\n  swap1\n  div\n  0xffffffffffffffffffffffffffffffffffffffff\n  and\n    /* \"Tet.sol\":339:355  balanceOf[owner] */\n  0xffffffffffffffffffffffffffffffffffffffff\n  and\n  0xffffffffffffffffffffffffffffffffffffffff\n  and\n  dup2\n  mstore\n  0x20\n  add\n  swap1\n  dup2\n  mstore\n  0x20\n  add\n  0x00\n  keccak256\n    /* \"Tet.sol\":339:362  balanceOf[owner] = 2000 */\n  dup2\n  swap1\n  sstore\n  pop\n    /* \"Tet.sol\":58:14927  contract Tet {... */\n  jump(tag_7)\n    /* \"#utility.yul\":7:106   */\ntag_8:\n    /* \"#utility.yul\":59:65   */\n  0x00\n    /* \"#utility.yul\":93:98   */\n  dup2\n    /* \"#utility.yul\":87:99   */\n  mload\n    /* \"#utility.yul\":77:99   */\n  swap1\n  pop\n    /* \"#utility.yul\":7:106   */\n  swap2\n  swap1\n  pop\n  jump\t// out\n    /* \"#utility.yul\":112:292   */\ntag_9:\n    /* \"#utility.yul\":160:237   */\n  0x4e487b7100000000000000000000000000000000000000000000000000000000\n    /* \"#utility.yul\":157:158   */\n  0x00\n    /* \"#utility.yul\":150:238   */\n  mstore\n    /* \"#utility.yul\":257:261   */\n  0x41\n    /* \"#utility.yul\":254:255   */\n  0x04\n    /* \"#utility.yul\":247:262   */\n  mstore\n    /* \"#utility.yul\":281:285   */\n  0x24\n    /* \"#utility.yul\":278:279   */\n  0x00\n    /* \"#utility.yul\":271:286   */\n  revert\n    /* \"#utility.yul\":298:478   */\ntag_10:\n    /* \"#utility.yul\":346:423   */\n  0x4e487b7100000000000000000000000000000000000000000000000000000000\n    /* \"#utility.yul\":343:344   */\n  0x00\n    /* \"#utility.yul\":336:424   */\n  mstore\n    /* \"#utility.yul\":443:447   */\n  0x22\n    /* \"#utility.yul\":440:441   */\n  0x04\n    /* \"#utility.yul\":433:448   */\n  mstore\n    /* \"#utility.yul\":467:471   */\n  0x24\n    /* \"#utility.yul\":464:465   */\n  0x00\n    /* \"#utility.yul\":457:472   */\n  revert\n    /* \"#utility.yul\":484:804   */\ntag_11:\n    /* \"#utility.yul\":528:534   */\n  0x00\n    /* \"#utility.yul\":565:566   */\n  0x02\n    /* \"#utility.yul\":559:563   */\n  dup3\n    /* \"#utility.yul\":555:567   */\n  div\n    /* \"#utility.yul\":545:567   */\n  swap1\n  pop\n    /* \"#utility.yul\":612:613   */\n  0x01\n    /* \"#utility.yul\":606:610   */\n  dup3\n    /* \"#utility.yul\":602:614   */\n  and\n    /* \"#utility.yul\":633:651   */\n  dup1\n    /* \"#utility.yul\":623:704   */\n  tag_33\n  jumpi\n    /* \"#utility.yul\":689:693   */\n  0x7f\n    /* \"#utility.yul\":681:687   */\n  dup3\n    /* \"#utility.yul\":677:694   */\n  and\n    /* \"#utility.yul\":667:694   */\n  swap2\n  pop\n    /* \"#utility.yul\":623:704   */\ntag_33:\n    /* \"#utility.yul\":751:753   */\n  0x20\n    /* \"#utility.yul\":743:749   */\n  dup3\n    /* \"#utility.yul\":740:754   */\n  lt\n    /* \"#utility.yul\":720:738   */\n  dup2\n    /* \"#utility.yul\":717:755   */\n  sub\n    /* \"#utility.yul\":714:798   */\n  tag_34\n  jumpi\n    /* \"#utility.yul\":770:788   */\n  tag_35\n  tag_10\n  jump\t// in\ntag_35:\n    /* \"#utility.yul\":714:798   */\ntag_34:\n    /* \"#utility.yul\":535:804   */\n  pop\n    /* \"#utility.yul\":484:804   */\n  swap2\n  swap1\n  pop\n  jump\t// out\n    /* \"#utility.yul\":810:951   */\ntag_12:\n    /* \"#utility.yul\":859:863   */\n  0x00\n    /* \"#utility.yul\":882:885   */\n  dup2\n    /* \"#utility.yul\":874:885   */\n  swap1\n  pop\n    /* \"#utility.yul\":905:908   */\n  dup2\n    /* \"#utility.yul\":902:903   */\n  0x00\n    /* \"#utility.yul\":895:909   */\n  mstore\n    /* \"#utility.yul\":939:943   */\n  0x20\n    /* \"#utility.yul\":936:937   */\n  0x00\n    /* \"#utility.yul\":926:944   */\n  keccak256\n    /* \"#utility.yul\":918:944   */\n  swap1\n  pop\n    /* \"#utility.yul\":810:951   */\n  swap2\n  swap1\n  pop\n  jump\t// out\n    /* \"#utility.yul\":957:1050   */\ntag_13:\n    /* \"#utility.yul\":994:1000   */\n  0x00\n    /* \"#utility.yul\":1041:1043   */\n  0x20\n    /* \"#utility.yul\":1036:1038   */\n  0x1f\n    /* \"#utility.yul\":1029:1034   */\n  dup4\n    /* \"#utility.yul\":1025:1039   */\n  add\n    /* \"#utility.yul\":1021:1044   */\n  div\n    /* \"#utility.yul\":1011:1044   */\n  swap1\n  pop\n    /* \"#utility.yul\":957:1050   */\n  swap2\n  swap1\n  pop\n  jump\t// out\n    /* \"#utility.yul\":1056:1163   */\ntag_14:\n    /* \"#utility.yul\":1100:1108   */\n  0x00\n    /* \"#utility.yul\":1150:1155   */\n  dup3\n    /* \"#utility.yul\":1144:1148   */\n  dup3\n    /* \"#utility.yul\":1140:1156   */\n  shl\n    /* \"#utility.yul\":1119:1156   */\n  swap1\n  pop\n    /* \"#utility.yul\":1056:1163   */\n  swap3\n  swap2\n  pop\n  pop\n  jump\t// out\n    /* \"#utility.yul\":1169:1562   */\ntag_15:\n    /* \"#utility.yul\":1238:1244   */\n  0x00\n    /* \"#utility.yul\":1288:1289   */\n  0x08\n    /* \"#utility.yul\":1276:1286   */\n  dup4\n    /* \"#utility.yul\":1272:1290   */\n  mul\n    /* \"#utility.yul\":1311:1408   */\n  tag_40\n    /* \"#utility.yul\":1341:1407   */\n  0xffffffffffffffffffffffffffffffffffffffffffffffffffffffffffffffff\n    /* \"#utility.yul\":1330:1339   */\n  dup3\n    /* \"#utility.yul\":1311:1408   */\n  tag_14\n  jump\t// in\ntag_40:\n    /* \"#utility.yul\":1429:1468   */\n  tag_41\n    /* \"#utility.yul\":1459:1467   */\n  dup7\n    /* \"#utility.yul\":1448:1457   */\n  dup4\n    /* \"#utility.yul\":1429:1468   */\n  tag_14\n  jump\t// in\ntag_41:\n    /* \"#utility.yul\":1417:1468   */\n  swap6\n  pop\n    /* \"#utility.yul\":1501:1505   */\n  dup1\n    /* \"#utility.yul\":1497:1506   */\n  not\n    /* \"#utility.yul\":1490:1495   */\n  dup5\n    /* \"#utility.yul\":1486:1507   */\n  and\n    /* \"#utility.yul\":1477:1507   */\n  swap4\n  pop\n    /* \"#utility.yul\":1550:1554   */\n  dup1\n    /* \"#utility.yul\":1540:1548   */\n  dup7\n    /* \"#utility.yul\":1536:1555   */\n  and\n    /* \"#utility.yul\":1529:1534   */\n  dup5\n    /* \"#utility.yul\":1526:1556   */\n  or\n    /* \"#utility.yul\":1516:1556   */\n  swap3\n  pop\n    /* \"#utility.yul\":1245:1562   */\n  pop\n  pop\n    /* \"#utility.yul\":1169:1562   */\n  swap4\n  swap3\n  pop\n  pop\n  pop\n  jump\t// out\n    /* \"#utility.yul\":1568:1645   */\ntag_16:\n    /* \"#utility.yul\":1605:1612   */\n  0x00\n    /* \"#utility.yul\":1634:1639   */\n  dup2\n    /* \"#utility.yul\":1623:1639   */\n  swap1\n  pop\n    /* \"#utility.yul\":1568:1645   */\n  swap2\n  swap1\n  pop\n  jump\t// out\n    /* \"#utility.yul\":1651:1711   */\ntag_17:\n    /* \"#utility.yul\":1679:1682   */\n  0x00\n    /* \"#utility.yul\":1700:1705   */\n  dup2\n    /* \"#utility.yul\":1693:1705   */\n  swap1\n  pop\n    /* \"#utility.yul\":1651:1711   */\n  swap2\n  swap1\n  pop\n  jump\t// out\n    /* \"#utility.yul\":1717:1859   */\ntag_18:\n    /* \"#utility.yul\":1767:1776   */\n  0x00\n    /* \"#utility.yul\":1800:1853   */\n  tag_45\n    /* \"#utility.yul\":1818:1852   */\n  tag_46\n    /* \"#utility.yul\":1827:1851   */\n  tag_47\n    /* \"#utility.yul\":1845:1850   */\n  dup5\n    /* \"#utility.yul\":1827:1851   */\n  tag_16\n  jump\t// in\ntag_47:\n    /* \"#utility.yul\":1818:1852   */\n  tag_17\n  jump\t// in\ntag_46:\n    /* \"#utility.yul\":1800:1853   */\n  tag_16\n  jump\t// in\ntag_45:\n    /* \"#utility.yul\":1787:1853   */\n  swap1\n  pop\n    /* \"#utility.yul\":1717:1859   */\n  swap2\n  swap1\n  pop\n  jump\t// out\n    /* \"#utility.yul\":1865:1940   */\ntag_19:\n    /* \"#utility.yul\":1908:1911   */\n  0x00\n    /* \"#utility.yul\":1929:1934   */\n  dup2\n    /* \"#utility.yul\":1922:1934   */\n  swap1\n  pop\n    /* \"#utility.yul\":1865:1940   */\n  swap2\n  swap1\n  pop\n  jump\t// out\n    /* \"#utility.yul\":1946:2215   */\ntag_20:\n    /* \"#utility.yul\":2056:2095   */\n  tag_50\n    /* \"#utility.yul\":2087:2094   */\n  dup4\n    /* \"#utility.yul\":2056:2095   */\n  tag_18\n  jump\t// in\ntag_50:\n    /* \"#utility.yul\":2117:2208   */\n  tag_51\n    /* \"#utility.yul\":2166:2207   */\n  tag_52\n    /* \"#utility.yul\":2190:2206   */\n  dup3\n    /* \"#utility.yul\":2166:2207   */\n  tag_19\n  jump\t// in\ntag_52:\n    /* \"#utility.yul\":2158:2164   */\n  dup5\n    /* \"#utility.yul\":2151:2155   */\n  dup5\n    /* \"#utility.yul\":2145:2156   */\n  sload\n    /* \"#utility.yul\":2117:2208   */\n  tag_15\n  jump\t// in\ntag_51:\n    /* \"#utility.yul\":2111:2115   */\n  dup3\n    /* \"#utility.yul\":2104:2209   */\n  sstore\n    /* \"#utility.yul\":2022:2215   */\n  pop\n    /* \"#utility.yul\":1946:2215   */\n  pop\n  pop\n  pop\n  jump\t// out\n    /* \"#utility.yul\":2221:2294   */\ntag_21:\n    /* \"#utility.yul\":2266:2269   */\n  0x00\n    /* \"#utility.yul\":2221:2294   */\n  swap1\n  jump\t// out\n    /* \"#utility.yul\":2300:2489   */\ntag_22:\n    /* \"#utility.yul\":2377:2409   */\n  tag_55\n  tag_21\n  jump\t// in\ntag_55:\n    /* \"#utility.yul\":2418:2483   */\n  tag_56\n    /* \"#utility.yul\":2476:2482   */\n  dup2\n    /* \"#utility.yul\":2468:2474   */\n  dup5\n    /* \"#utility.yul\":2462:2466   */\n  dup5\n    /* \"#utility.yul\":2418:2483   */\n  tag_20\n  jump\t// in\ntag_56:\n    /* \"#utility.yul\":2353:2489   */\n  pop\n    /* \"#utility.yul\":2300:2489   */\n  pop\n  pop\n  jump\t// out\n    /* \"#utility.yul\":2495:2681   */\ntag_23:\n    /* \"#utility.yul\":2555:2675   */\ntag_58:\n    /* \"#utility.yul\":2572:2575   */\n  dup2\n    /* \"#utility.yul\":2565:2570   */\n  dup2\n    /* \"#utility.yul\":2562:2576   */\n  lt\n    /* \"#utility.yul\":2555:2675   */\n  iszero\n  tag_60\n  jumpi\n    /* \"#utility.yul\":2626:2665   */\n  tag_61\n    /* \"#utility.yul\":2663:2664   */\n  0x00\n    /* \"#utility.yul\":2656:2661   */\n  dup3\n    /* \"#utility.yul\":2626:2665   */\n  tag_22\n  jump\t// in\ntag_61:\n    /* \"#utility.yul\":2599:2600   */\n  0x01\n    /* \"#utility.yul\":2592:2597   */\n  dup2\n    /* \"#utility.yul\":2588:2601   */\n  add\n    /* \"#utility.yul\":2579:2601   */\n  swap1\n  pop\n    /* \"#utility.yul\":2555:2675   */\n  jump(tag_58)\ntag_60:\n    /* \"#utility.yul\":2495:2681   */\n  pop\n  pop\n  jump\t// out\n    /* \"#utility.yul\":2687:3230   */\ntag_24:\n    /* \"#utility.yul\":2788:2790   */\n  0x1f\n    /* \"#utility.yul\":2783:2786   */\n  dup3\n    /* \"#utility.yul\":2780:2791   */\n  gt\n    /* \"#utility.yul\":2777:3223   */\n  iszero\n  tag_63\n  jumpi\n    /* \"#utility.yul\":2822:2860   */\n  tag_64\n    /* \"#utility.yul\":2854:2859   */\n  dup2\n    /* \"#utility.yul\":2822:2860   */\n  tag_12\n  jump\t// in\ntag_64:\n    /* \"#utility.yul\":2906:2935   */\n  tag_65\n    /* \"#utility.yul\":2924:2934   */\n  dup5\n    /* \"#utility.yul\":2906:2935   */\n  tag_13\n  jump\t// in\ntag_65:\n    /* \"#utility.yul\":2896:2904   */\n  dup2\n    /* \"#utility.yul\":2892:2936   */\n  add\n    /* \"#utility.yul\":3089:3091   */\n  0x20\n    /* \"#utility.yul\":3077:3087   */\n  dup6\n    /* \"#utility.yul\":3074:3092   */\n  lt\n    /* \"#utility.yul\":3071:3120   */\n  iszero\n  tag_66\n  jumpi\n    /* \"#utility.yul\":3110:3118   */\n  dup2\n    /* \"#utility.yul\":3095:3118   */\n  swap1\n  pop\n    /* \"#utility.yul\":3071:3120   */\ntag_66:\n    /* \"#utility.yul\":3133:3213   */\n  tag_67\n    /* \"#utility.yul\":3189:3211   */\n  tag_68\n    /* \"#utility.yul\":3207:3210   */\n  dup6\n    /* \"#utility.yul\":3189:3211   */\n  tag_13\n  jump\t// in\ntag_68:\n    /* \"#utility.yul\":3179:3187   */\n  dup4\n    /* \"#utility.yul\":3175:3212   */\n  add\n    /* \"#utility.yul\":3162:3173   */\n  dup3\n    /* \"#utility.yul\":3133:3213   */\n  tag_23\n  jump\t// in\ntag_67:\n    /* \"#utility.yul\":2792:3223   */\n  pop\n  pop\n    /* \"#utility.yul\":2777:3223   */\ntag_63:\n    /* \"#utility.yul\":2687:3230   */\n  pop\n  pop\n  pop\n  jump\t// out\n    /* \"#utility.yul\":3236:3353   */\ntag_25:\n    /* \"#utility.yul\":3290:3298   */\n  0x00\n    /* \"#utility.yul\":3340:3345   */\n  dup3\n    /* \"#utility.yul\":3334:3338   */\n  dup3\n    /* \"#utility.yul\":3330:3346   */\n  shr\n    /* \"#utility.yul\":3309:3346   */\n  swap1\n  pop\n    /* \"#utility.yul\":3236:3353   */\n  swap3\n  swap2\n  pop\n  pop\n  jump\t// out\n    /* \"#utility.yul\":3359:3528   */\ntag_26:\n    /* \"#utility.yul\":3403:3409   */\n  0x00\n    /* \"#utility.yul\":3436:3487   */\n  tag_71\n    /* \"#utility.yul\":3484:3485   */\n  0x00\n    /* \"#utility.yul\":3480:3486   */\n  not\n    /* \"#utility.yul\":3472:3477   */\n  dup5\n    /* \"#utility.yul\":3469:3470   */\n  0x08\n    /* \"#utility.yul\":3465:3478   */\n  mul\n    /* \"#utility.yul\":3436:3487   */\n  tag_25\n  jump\t// in\ntag_71:\n    /* \"#utility.yul\":3432:3488   */\n  not\n    /* \"#utility.yul\":3517:3521   */\n  dup1\n    /* \"#utility.yul\":3511:3515   */\n  dup4\n    /* \"#utility.yul\":3507:3522   */\n  and\n    /* \"#utility.yul\":3497:3522   */\n  swap2\n  pop\n    /* \"#utility.yul\":3410:3528   */\n  pop\n    /* \"#utility.yul\":3359:3528   */\n  swap3\n  swap2\n  pop\n  pop\n  jump\t// out\n    /* \"#utility.yul\":3533:3828   */\ntag_27:\n    /* \"#utility.yul\":3609:3613   */\n  0x00\n    /* \"#utility.yul\":3755:3784   */\n  tag_73\n    /* \"#utility.yul\":3780:3783   */\n  dup4\n    /* \"#utility.yul\":3774:3778   */\n  dup4\n    /* \"#utility.yul\":3755:3784   */\n  tag_26\n  jump\t// in\ntag_73:\n    /* \"#utility.yul\":3747:3784   */\n  swap2\n  pop\n    /* \"#utility.yul\":3817:3820   */\n  dup3\n    /* \"#utility.yul\":3814:3815   */\n  0x02\n    /* \"#utility.yul\":3810:3821   */\n  mul\n    /* \"#utility.yul\":3804:3808   */\n  dup3\n    /* \"#utility.yul\":3801:3822   */\n  or\n    /* \"#utility.yul\":3793:3822   */\n  swap1\n  pop\n    /* \"#utility.yul\":3533:3828   */\n  swap3\n  swap2\n  pop\n  pop\n  jump\t// out\n    /* \"#utility.yul\":3833:5228   */\ntag_2:\n    /* \"#utility.yul\":3950:3987   */\n  tag_75\n    /* \"#utility.yul\":3983:3986   */\n  dup3\n    /* \"#utility.yul\":3950:3987   */\n  tag_8\n  jump\t// in\ntag_75:\n    /* \"#utility.yul\":4052:4070   */\n  0xffffffffffffffff\n    /* \"#utility.yul\":4044:4050   */\n  dup2\n    /* \"#utility.yul\":4041:4071   */\n  gt\n    /* \"#utility.yul\":4038:4094   */\n  iszero\n  tag_76\n  jumpi\n    /* \"#utility.yul\":4074:4092   */\n  tag_77\n  tag_9\n  jump\t// in\ntag_77:\n    /* \"#utility.yul\":4038:4094   */\ntag_76:\n    /* \"#utility.yul\":4118:4156   */\n  tag_78\n    /* \"#utility.yul\":4150:4154   */\n  dup3\n    /* \"#utility.yul\":4144:4155   */\n  sload\n    /* \"#utility.yul\":4118:4156   */\n  tag_11\n  jump\t// in\ntag_78:\n    /* \"#utility.yul\":4203:4270   */\n  tag_79\n    /* \"#utility.yul\":4263:4269   */\n  dup3\n    /* \"#utility.yul\":4255:4261   */\n  dup3\n    /* \"#utility.yul\":4249:4253   */\n  dup6\n    /* \"#utility.yul\":4203:4270   */\n  tag_24\n  jump\t// in\ntag_79:\n    /* \"#utility.yul\":4297:4298   */\n  0x00\n    /* \"#utility.yul\":4321:4325   */\n  0x20\n    /* \"#utility.yul\":4308:4325   */\n  swap1\n  pop\n    /* \"#utility.yul\":4353:4355   */\n  0x1f\n    /* \"#utility.yul\":4345:4351   */\n  dup4\n    /* \"#utility.yul\":4342:4356   */\n  gt\n    /* \"#utility.yul\":4370:4371   */\n  0x01\n    /* \"#utility.yul\":4365:4983   */\n  dup2\n  eq\n  tag_81\n  jumpi\n    /* \"#utility.yul\":5027:5028   */\n  0x00\n    /* \"#utility.yul\":5044:5050   */\n  dup5\n    /* \"#utility.yul\":5041:5118   */\n  iszero\n  tag_82\n  jumpi\n    /* \"#utility.yul\":5093:5102   */\n  dup3\n    /* \"#utility.yul\":5088:5091   */\n  dup8\n    /* \"#utility.yul\":5084:5103   */\n  add\n    /* \"#utility.yul\":5078:5104   */\n  mload\n    /* \"#utility.yul\":5069:5104   */\n  swap1\n  pop\n    /* \"#utility.yul\":5041:5118   */\ntag_82:\n    /* \"#utility.yul\":5144:5211   */\n  tag_83\n    /* \"#utility.yul\":5204:5210   */\n  dup6\n    /* \"#utility.yul\":5197:5202   */\n  dup3\n    /* \"#utility.yul\":5144:5211   */\n  tag_27\n  jump\t// in\ntag_83:\n    /* \"#utility.yul\":5138:5142   */\n  dup7\n    /* \"#utility.yul\":5131:5212   */\n  sstore\n    /* \"#utility.yul\":5000:5222   */\n  pop\n    /* \"#utility.yul\":4335:5222   */\n  jump(tag_80)\n    /* \"#utility.yul\":4365:4983   */\ntag_81:\n    /* \"#utility.yul\":4417:4421   */\n  0x1f\n    /* \"#utility.yul\":4413:4422   */\n  not\n    /* \"#utility.yul\":4405:4411   */\n  dup5\n    /* \"#utility.yul\":4401:4423   */\n  and\n    /* \"#utility.yul\":4451:4488   */\n  tag_84\n    /* \"#utility.yul\":4483:4487   */\n  dup7\n    /* \"#utility.yul\":4451:4488   */\n  tag_12\n  jump\t// in\ntag_84:\n    /* \"#utility.yul\":4510:4511   */\n  0x00\n    /* \"#utility.yul\":4524:4732   */\ntag_85:\n    /* \"#utility.yul\":4538:4545   */\n  dup3\n    /* \"#utility.yul\":4535:4536   */\n  dup2\n    /* \"#utility.yul\":4532:4546   */\n  lt\n    /* \"#utility.yul\":4524:4732   */\n  iszero\n  tag_87\n  jumpi\n    /* \"#utility.yul\":4617:4626   */\n  dup5\n    /* \"#utility.yul\":4612:4615   */\n  dup10\n    /* \"#utility.yul\":4608:4627   */\n  add\n    /* \"#utility.yul\":4602:4628   */\n  mload\n    /* \"#utility.yul\":4594:4600   */\n  dup3\n    /* \"#utility.yul\":4587:4629   */\n  sstore\n    /* \"#utility.yul\":4668:4669   */\n  0x01\n    /* \"#utility.yul\":4660:4666   */\n  dup3\n    /* \"#utility.yul\":4656:4670   */\n  add\n    /* \"#utility.yul\":4646:4670   */\n  swap2\n  pop\n    /* \"#utility.yul\":4715:4717   */\n  0x20\n    /* \"#utility.yul\":4704:4713   */\n  dup6\n    /* \"#utility.yul\":4700:4718   */\n  add\n    /* \"#utility.yul\":4687:4718   */\n  swap5\n  pop\n    /* \"#utility.yul\":4561:4565   */\n  0x20\n    /* \"#utility.yul\":4558:4559   */\n  dup2\n    /* \"#utility.yul\":4554:4566   */\n  add\n    /* \"#utility.yul\":4549:4566   */\n  swap1\n  pop\n    /* \"#utility.yul\":4524:4732   */\n  jump(tag_85)\ntag_87:\n    /* \"#utility.yul\":4760:4766   */\n  dup7\n    /* \"#utility.yul\":4751:4758   */\n  dup4\n    /* \"#utility.yul\":4748:4767   */\n  lt\n    /* \"#utility.yul\":4745:4924   */\n  iszero\n  tag_88\n  jumpi\n    /* \"#utility.yul\":4818:4827   */\n  dup5\n    /* \"#utility.yul\":4813:4816   */\n  dup10\n    /* \"#utility.yul\":4809:4828   */\n  add\n    /* \"#utility.yul\":4803:4829   */\n  mload\n    /* \"#utility.yul\":4861:4909   */\n  tag_89\n    /* \"#utility.yul\":4903:4907   */\n  0x1f\n    /* \"#utility.yul\":4895:4901   */\n  dup10\n    /* \"#utility.yul\":4891:4908   */\n  and\n    /* \"#utility.yul\":4880:4889   */\n  dup3\n    /* \"#utility.yul\":4861:4909   */\n  tag_26\n  jump\t// in\ntag_89:\n    /* \"#utility.yul\":4853:4859   */\n  dup4\n    /* \"#utility.yul\":4846:4910   */\n  sstore\n    /* \"#utility.yul\":4768:4924   */\n  pop\n    /* \"#utility.yul\":4745:4924   */\ntag_88:\n    /* \"#utility.yul\":4970:4971   */\n  0x01\n    /* \"#utility.yul\":4966:4967   */\n  0x02\n    /* \"#utility.yul\":4958:4964   */\n  dup9\n    /* \"#utility.yul\":4954:4968   */\n  mul\n    /* \"#utility.yul\":4950:4972   */\n  add\n    /* \"#utility.yul\":4944:4948   */\n  dup9\n    /* \"#utility.yul\":4937:4973   */\n  sstore\n    /* \"#utility.yul\":4372:4983   */\n  pop\n  pop\n  pop\n    /* \"#utility.yul\":4335:5222   */\ntag_80:\n  pop\n    /* \"#utility.yul\":3925:5228   */\n  pop\n  pop\n  pop\n    /* \"#utility.yul\":3833:5228   */\n  pop\n  pop\n  jump\t// out\n    /* \"Tet.sol\":58:14927  contract Tet {... */\ntag_7:\n  dataSize(sub_0)\n  dup1\n  dataOffset(sub_0)\n  0x00\n  codecopy\n  0x00\n  return\nstop\n\nsub_0: assembly {\n        /* \"Tet.sol\":58:14927  contract Tet {... */\n      mstore(0x40, 0x80)\n      callvalue\n      dup1\n      iszero\n      tag_1\n      jumpi\n      0x00\n      dup1\n      revert\n    tag_1:\n      pop\n      jumpi(tag_2, lt(calldatasize, 0x04))\n      shr(0xe0, calldataload(0x00))\n      dup1\n      0x70a08231\n      gt\n      tag_42\n      jumpi\n      dup1\n      0xc0446a7d\n      gt\n      tag_43\n      jumpi\n      dup1\n      0xeb91e651\n      gt\n      tag_44\n      jumpi\n      dup1\n      0xeb91e651\n      eq\n      tag_37\n      jumpi\n      dup1\n      0xf1d2b3c2\n      eq\n      tag_38\n      jumpi\n      dup1\n      0xf9f92be4\n      eq\n      tag_39\n      jumpi\n      dup1\n      0xfc5f505d\n      eq\n      tag_40\n      jumpi\n      dup1\n      0xfe575a87\n      eq\n      tag_41\n      jumpi\n      jump(tag_2)\n    tag_44:\n      dup1\n      0xc0446a7d\n      eq\n      tag_32\n      jumpi\n      dup1\n      0xceca9ffb\n      eq\n      tag_33\n      jumpi\n      dup1\n      0xdd62ed3e\n      eq\n      tag_34\n      jumpi\n      dup1\n      0xe0639f5c\n      eq\n      tag_35\n      jumpi\n      dup1\n      0xe43252d7\n      eq\n      tag_36\n      jumpi\n      jump(tag_2)\n    tag_43:\n      dup1\n      0x95d89b41\n      gt\n      tag_45\n      jumpi\n      dup1\n      0x95d89b41\n      eq\n      tag_27\n      jumpi\n      dup1\n      0x9b19251a\n      eq\n      tag_28\n      jumpi\n      dup1\n      0x9cfe42da\n      eq\n      tag_29\n      jumpi\n      dup1\n      0xa24ed452\n      eq\n      tag_30\n      jumpi\n      dup1\n      0xa9059cbb\n      eq\n      tag_31\n      jumpi\n      jump(tag_2)\n    tag_45:\n      dup1\n      0x70a08231\n      eq\n      tag_22\n      jumpi\n      dup1\n      0x74db3064\n      eq\n      tag_23\n      jumpi\n      dup1\n      0x7c91b15e\n      eq\n      tag_24\n      jumpi\n      dup1\n      0x8456cb59\n      eq\n      tag_25\n      jumpi\n      dup1\n      0x8ab1d681\n      eq\n      tag_26\n      jumpi\n      jump(tag_2)\n    tag_42:\n      dup1\n      0x40180920\n      gt\n      tag_46\n      jumpi\n      dup1\n      0x4975d202\n      gt\n      tag_47\n      jumpi\n      dup1\n      0x4975d202\n      eq\n      tag_17\n      jumpi\n      dup1\n      0x499d0379\n      eq\n      tag_18\n      jumpi\n      dup1\n      0x4b38b453\n      eq\n      tag_19\n      jumpi\n      dup1\n      0x57d50b9d\n      eq\n      tag_20\n      jumpi\n      dup1\n      0x69507da8\n      eq\n      tag_21\n      jumpi\n      jump(tag_2)\n    tag_47:\n      dup1\n      0x40180920\n      eq\n      tag_12\n      jumpi\n      dup1\n      0x40c10f19\n      eq\n      tag_13\n      jumpi\n      dup1\n      0x4163fd02\n      eq\n      tag_14\n      jumpi\n      dup1\n      0x42966c68\n      eq\n      tag_15\n      jumpi\n      dup1\n      0x476b49bc\n      eq\n      tag_16\n      jumpi\n      jump(tag_2)\n    tag_46:\n      dup1\n      0x20853239\n      gt\n      tag_48\n      jumpi\n      dup1\n      0x20853239\n      eq\n      tag_7\n      jumpi\n      dup1\n      0x23b872dd\n      eq\n      tag_8\n      jumpi\n      dup1\n      0x2c69953b\n      eq\n      tag_9\n      jumpi\n      dup1\n      0x3af32abf\n      eq\n      tag_10\n      jumpi\n      dup1\n      0x3f4ba83a\n      eq\n      tag_11\n      jumpi\n      jump(tag_2)\n    tag_48:\n      dup1\n      0x06fdde03\n      eq\n      tag_3\n      jumpi\n      dup1\n      0x095ea7b3\n      eq\n      tag_4\n      jumpi\n      dup1\n      0x12cae7af\n      eq\n      tag_5\n      jumpi\n      dup1\n      0x18160ddd\n      eq\n      tag_6\n      jumpi\n    tag_2:\n      0x00\n      dup1\n      revert\n        /* \"Tet.sol\":78:109  string public name = \"Tet Toen\" */\n    tag_3:\n      tag_49\n      tag_50\n      jump\t// in\n    tag_49:\n      mload(0x40)\n      tag_51\n      swap2\n      swap1\n      tag_52\n      jump\t// in\n    tag_51:\n      mload(0x40)\n      dup1\n      swap2\n      sub\n      swap1\n      return\n        /* \"Tet.sol\":2319:2663  function approve(address _spender,uint256 value) external returns (bool){... */\n    tag_4:\n      tag_53\n      0x04\n      dup1\n      calldatasize\n      sub\n      dup2\n      add\n      swap1\n      tag_54\n      swap2\n      swap1\n      tag_55\n      jump\t// in\n    tag_54:\n      tag_56\n      jump\t// in\n    tag_53:\n      mload(0x40)\n      tag_57\n      swap2\n      swap1\n      tag_58\n      jump\t// in\n    tag_57:\n      mload(0x40)\n      dup1\n      swap2\n      sub\n      swap1\n      return\n        /* \"Tet.sol\":1253:1356  function balanceOfUser(address _user) public returns (uint256) {... */\n    tag_5:\n      tag_59\n      0x04\n      dup1\n      calldatasize\n      sub\n      dup2\n      add\n      swap1\n      tag_60\n      swap2\n      swap1\n      tag_61\n      jump\t// in\n    tag_60:\n      tag_62\n      jump\t// in\n    tag_59:\n      mload(0x40)\n      tag_63\n      swap2\n      swap1\n      tag_64\n      jump\t// in\n    tag_63:\n      mload(0x40)\n      dup1\n      swap2\n      sub\n      swap1\n      return\n        /* \"Tet.sol\":186:213  uint256 public  totalSupply */\n    tag_6:\n      tag_65\n      tag_66\n      jump\t// in\n    tag_65:\n      mload(0x40)\n      tag_67\n      swap2\n      swap1\n      tag_64\n      jump\t// in\n    tag_67:\n      mload(0x40)\n      dup1\n      swap2\n      sub\n      swap1\n      return\n        /* \"Tet.sol\":7990:8028  mapping(address => Role) public _roles */\n    tag_7:\n      tag_68\n      0x04\n      dup1\n      calldatasize\n      sub\n      dup2\n      add\n      swap1\n      tag_69\n      swap2\n      swap1\n      tag_61\n      jump\t// in\n    tag_69:\n      tag_70\n      jump\t// in\n    tag_68:\n      mload(0x40)\n      tag_71\n      swap2\n      swap1\n      tag_72\n      jump\t// in\n    tag_71:\n      mload(0x40)\n      dup1\n      swap2\n      sub\n      swap1\n      return\n        /* \"Tet.sol\":3020:3625  function transferFrom(address from, address to, uint value) public returns (bool) {... */\n    tag_8:\n      tag_73\n      0x04\n      dup1\n      calldatasize\n      sub\n      dup2\n      add\n      swap1\n      tag_74\n      swap2\n      swap1\n      tag_75\n      jump\t// in\n    tag_74:\n      tag_76\n      jump\t// in\n    tag_73:\n      mload(0x40)\n      tag_77\n      swap2\n      swap1\n      tag_58\n      jump\t// in\n    tag_77:\n      mload(0x40)\n      dup1\n      swap2\n      sub\n      swap1\n      return\n        /* \"Tet.sol\":5918:5955  address[] public whiteListedAddresses */\n    tag_9:\n      tag_78\n      0x04\n      dup1\n      calldatasize\n      sub\n      dup2\n      add\n      swap1\n      tag_79\n      swap2\n      swap1\n      tag_80\n      jump\t// in\n    tag_79:\n      tag_81\n      jump\t// in\n    tag_78:\n      mload(0x40)\n      tag_82\n      swap2\n      swap1\n      tag_83\n      jump\t// in\n    tag_82:\n      mload(0x40)\n      dup1\n      swap2\n      sub\n      swap1\n      return\n        /* \"Tet.sol\":6398:6494  function isWhitelisted(address _user) external view returns(bool) {... */\n    tag_10:\n      tag_84\n      0x04\n      dup1\n      calldatasize\n      sub\n      dup2\n      add\n      swap1\n      tag_85\n      swap2\n      swap1\n      tag_61\n      jump\t// in\n    tag_85:\n      tag_86\n      jump\t// in\n    tag_84:\n      mload(0x40)\n      tag_87\n      swap2\n      swap1\n      tag_58\n      jump\t// in\n    tag_87:\n      mload(0x40)\n      dup1\n      swap2\n      sub\n      swap1\n      return\n        /* \"Tet.sol\":4346:4427  function unpause() public onlyOwner returns(bool){... */\n    tag_11:\n      tag_88\n      tag_89\n      jump\t// in\n    tag_88:\n      mload(0x40)\n      tag_90\n      swap2\n      swap1\n      tag_58\n      jump\t// in\n    tag_90:\n      mload(0x40)\n      dup1\n      swap2\n      sub\n      swap1\n      return\n        /* \"Tet.sol\":1572:1671  function balanceOfOwner2() public view returns (uint256) {... */\n    tag_12:\n      tag_91\n      tag_92\n      jump\t// in\n    tag_91:\n      mload(0x40)\n      tag_93\n      swap2\n      swap1\n      tag_64\n      jump\t// in\n    tag_93:\n      mload(0x40)\n      dup1\n      swap2\n      sub\n      swap1\n      return\n        /* \"Tet.sol\":3633:3953  function mint(address to, uint value) public {... */\n    tag_13:\n      tag_94\n      0x04\n      dup1\n      calldatasize\n      sub\n      dup2\n      add\n      swap1\n      tag_95\n      swap2\n      swap1\n      tag_55\n      jump\t// in\n    tag_95:\n      tag_96\n      jump\t// in\n    tag_94:\n      stop\n        /* \"Tet.sol\":151:179  uint256 public ecim = 10**18 */\n    tag_14:\n      tag_97\n      tag_98\n      jump\t// in\n    tag_97:\n      mload(0x40)\n      tag_99\n      swap2\n      swap1\n      tag_64\n      jump\t// in\n    tag_99:\n      mload(0x40)\n      dup1\n      swap2\n      sub\n      swap1\n      return\n        /* \"Tet.sol\":3960:4248  function burn ( uint value) public {... */\n    tag_15:\n      tag_100\n      0x04\n      dup1\n      calldatasize\n      sub\n      dup2\n      add\n      swap1\n      tag_101\n      swap2\n      swap1\n      tag_80\n      jump\t// in\n    tag_101:\n      tag_102\n      jump\t// in\n    tag_100:\n      stop\n        /* \"Tet.sol\":8970:9151  function getAdmin99(address _admin) public view returns(Role,address,bool,string memory) {... */\n    tag_16:\n      tag_103\n      0x04\n      dup1\n      calldatasize\n      sub\n      dup2\n      add\n      swap1\n      tag_104\n      swap2\n      swap1\n      tag_61\n      jump\t// in\n    tag_104:\n      tag_105\n      jump\t// in\n    tag_103:\n      mload(0x40)\n      tag_106\n      swap5\n      swap4\n      swap3\n      swap2\n      swap1\n      tag_107\n      jump\t// in\n    tag_106:\n      mload(0x40)\n      dup1\n      swap2\n      sub\n      swap1\n      return\n        /* \"Tet.sol\":1363:1459  function balanceOfOwner() public view returns (uint256) {... */\n    tag_17:\n      tag_108\n      tag_109\n      jump\t// in\n    tag_108:\n      mload(0x40)\n      tag_110\n      swap2\n      swap1\n      tag_64\n      jump\t// in\n    tag_110:\n      mload(0x40)\n      dup1\n      swap2\n      sub\n      swap1\n      return\n        /* \"Tet.sol\":5528:5633  function getBlackListedUsers() external view returns(address[] memory) {... */\n    tag_18:\n      tag_111\n      tag_112\n      jump\t// in\n    tag_111:\n      mload(0x40)\n      tag_113\n      swap2\n      swap1\n      tag_114\n      jump\t// in\n    tag_113:\n      mload(0x40)\n      dup1\n      swap2\n      sub\n      swap1\n      return\n        /* \"Tet.sol\":4974:5011  address[] public blackListedAddresses */\n    tag_19:\n      tag_115\n      0x04\n      dup1\n      calldatasize\n      sub\n      dup2\n      add\n      swap1\n      tag_116\n      swap2\n      swap1\n      tag_80\n      jump\t// in\n    tag_116:\n      tag_117\n      jump\t// in\n    tag_115:\n      mload(0x40)\n      tag_118\n      swap2\n      swap1\n      tag_83\n      jump\t// in\n    tag_118:\n      mload(0x40)\n      dup1\n      swap2\n      sub\n      swap1\n      return\n        /* \"Tet.sol\":8776:8968  function setAdmin99(address _admin) public  {... */\n    tag_20:\n      tag_119\n      0x04\n      dup1\n      calldatasize\n      sub\n      dup2\n      add\n      swap1\n      tag_120\n      swap2\n      swap1\n      tag_61\n      jump\t// in\n    tag_120:\n      tag_121\n      jump\t// in\n    tag_119:\n      stop\n        /* \"Tet.sol\":9458:11019  function grantRole(address _admin, address _minter,address _pauser, Role role, Role role1 ) ... */\n    tag_21:\n      tag_122\n      0x04\n      dup1\n      calldatasize\n      sub\n      dup2\n      add\n      swap1\n      tag_123\n      swap2\n      swap1\n      tag_124\n      jump\t// in\n    tag_123:\n      tag_125\n      jump\t// in\n    tag_122:\n      mload(0x40)\n      tag_126\n      swap4\n      swap3\n      swap2\n      swap1\n      tag_127\n      jump\t// in\n    tag_126:\n      mload(0x40)\n      dup1\n      swap2\n      sub\n      swap1\n      return\n        /* \"Tet.sol\":451:496  mapping (address => uint256) public balanceOf */\n    tag_22:\n      tag_128\n      0x04\n      dup1\n      calldatasize\n      sub\n      dup2\n      add\n      swap1\n      tag_129\n      swap2\n      swap1\n      tag_61\n      jump\t// in\n    tag_129:\n      tag_130\n      jump\t// in\n    tag_128:\n      mload(0x40)\n      tag_131\n      swap2\n      swap1\n      tag_64\n      jump\t// in\n    tag_131:\n      mload(0x40)\n      dup1\n      swap2\n      sub\n      swap1\n      return\n        /* \"Tet.sol\":1764:1839  function Owner2() public view returns (address) {... */\n    tag_23:\n      tag_132\n      tag_133\n      jump\t// in\n    tag_132:\n      mload(0x40)\n      tag_134\n      swap2\n      swap1\n      tag_83\n      jump\t// in\n    tag_134:\n      mload(0x40)\n      dup1\n      swap2\n      sub\n      swap1\n      return\n        /* \"Tet.sol\":8030:8087  mapping(address => mapping(address => uint)) public _role */\n    tag_24:\n      tag_135\n      0x04\n      dup1\n      calldatasize\n      sub\n      dup2\n      add\n      swap1\n      tag_136\n      swap2\n      swap1\n      tag_137\n      jump\t// in\n    tag_136:\n      tag_138\n      jump\t// in\n    tag_135:\n      mload(0x40)\n      tag_139\n      swap2\n      swap1\n      tag_64\n      jump\t// in\n    tag_139:\n      mload(0x40)\n      dup1\n      swap2\n      sub\n      swap1\n      return\n        /* \"Tet.sol\":4261:4339  function pause() public onlyOwner returns(bool){... */\n    tag_25:\n      tag_140\n      tag_141\n      jump\t// in\n    tag_140:\n      mload(0x40)\n      tag_142\n      swap2\n      swap1\n      tag_58\n      jump\t// in\n    tag_142:\n      mload(0x40)\n      dup1\n      swap2\n      sub\n      swap1\n      return\n        /* \"Tet.sol\":6143:6396  function removeFromWhitelist(address _user) public onlyOwner returns(address[] memory) {... */\n    tag_26:\n      tag_143\n      0x04\n      dup1\n      calldatasize\n      sub\n      dup2\n      add\n      swap1\n      tag_144\n      swap2\n      swap1\n      tag_61\n      jump\t// in\n    tag_144:\n      tag_145\n      jump\t// in\n    tag_143:\n      mload(0x40)\n      tag_146\n      swap2\n      swap1\n      tag_114\n      jump\t// in\n    tag_146:\n      mload(0x40)\n      dup1\n      swap2\n      sub\n      swap1\n      return\n        /* \"Tet.sol\":116:144  string public symbol = \"Tet\" */\n    tag_27:\n      tag_147\n      tag_148\n      jump\t// in\n    tag_147:\n      mload(0x40)\n      tag_149\n      swap2\n      swap1\n      tag_52\n      jump\t// in\n    tag_149:\n      mload(0x40)\n      dup1\n      swap2\n      sub\n      swap1\n      return\n        /* \"Tet.sol\":551:592  mapping(address => bool) public whitelist */\n    tag_28:\n      tag_150\n      0x04\n      dup1\n      calldatasize\n      sub\n      dup2\n      add\n      swap1\n      tag_151\n      swap2\n      swap1\n      tag_61\n      jump\t// in\n    tag_151:\n      tag_152\n      jump\t// in\n    tag_150:\n      mload(0x40)\n      tag_153\n      swap2\n      swap1\n      tag_58\n      jump\t// in\n    tag_153:\n      mload(0x40)\n      dup1\n      swap2\n      sub\n      swap1\n      return\n        /* \"Tet.sol\":5014:5188  function addBlacklist(address _user) external  returns(address[] memory) {... */\n    tag_29:\n      tag_154\n      0x04\n      dup1\n      calldatasize\n      sub\n      dup2\n      add\n      swap1\n      tag_155\n      swap2\n      swap1\n      tag_61\n      jump\t// in\n    tag_155:\n      tag_156\n      jump\t// in\n    tag_154:\n      mload(0x40)\n      tag_157\n      swap2\n      swap1\n      tag_114\n      jump\t// in\n    tag_157:\n      mload(0x40)\n      dup1\n      swap2\n      sub\n      swap1\n      return\n        /* \"Tet.sol\":2665:2898  function allowance2(address _spender,uint256 value) external view  returns (uint256){... */\n    tag_30:\n      tag_158\n      0x04\n      dup1\n      calldatasize\n      sub\n      dup2\n      add\n      swap1\n      tag_159\n      swap2\n      swap1\n      tag_55\n      jump\t// in\n    tag_159:\n      tag_160\n      jump\t// in\n    tag_158:\n      mload(0x40)\n      tag_161\n      swap2\n      swap1\n      tag_64\n      jump\t// in\n    tag_161:\n      mload(0x40)\n      dup1\n      swap2\n      sub\n      swap1\n      return\n        /* \"Tet.sol\":1847:2312  function transfer(address to, uint value)  public returns (bool)  {... */\n    tag_31:\n      tag_162\n      0x04\n      dup1\n      calldatasize\n      sub\n      dup2\n      add\n      swap1\n      tag_163\n      swap2\n      swap1\n      tag_55\n      jump\t// in\n    tag_163:\n      tag_164\n      jump\t// in\n    tag_162:\n      mload(0x40)\n      tag_165\n      swap2\n      swap1\n      tag_58\n      jump\t// in\n    tag_165:\n      mload(0x40)\n      dup1\n      swap2\n      sub\n      swap1\n      return\n        /* \"Tet.sol\":7931:7988  mapping(address => mapping(Role => bool)) public _hasRole */\n    tag_32:\n      tag_166\n      0x04\n      dup1\n      calldatasize\n      sub\n      dup2\n      add\n      swap1\n      tag_167\n      swap2\n      swap1\n      tag_168\n      jump\t// in\n    tag_167:\n      tag_169\n      jump\t// in\n    tag_166:\n      mload(0x40)\n      tag_170\n      swap2\n      swap1\n      tag_58\n      jump\t// in\n    tag_170:\n      mload(0x40)\n      dup1\n      swap2\n      sub\n      swap1\n      return\n        /* \"Tet.sol\":8089:8138  mapping(address => RoleData) public _userRoleData */\n    tag_33:\n      tag_171\n      0x04\n      dup1\n      calldatasize\n      sub\n      dup2\n      add\n      swap1\n      tag_172\n      swap2\n      swap1\n      tag_61\n      jump\t// in\n    tag_172:\n      tag_173\n      jump\t// in\n    tag_171:\n      mload(0x40)\n      tag_174\n      swap6\n      swap5\n      swap4\n      swap3\n      swap2\n      swap1\n      tag_175\n      jump\t// in\n    tag_174:\n      mload(0x40)\n      dup1\n      swap2\n      sub\n      swap1\n      return\n        /* \"Tet.sol\":377:444  mapping (address => mapping (address => uint256 )) public allowance */\n    tag_34:\n      tag_176\n      0x04\n      dup1\n      calldatasize\n      sub\n      dup2\n      add\n      swap1\n      tag_177\n      swap2\n      swap1\n      tag_137\n      jump\t// in\n    tag_177:\n      tag_178\n      jump\t// in\n    tag_176:\n      mload(0x40)\n      tag_179\n      swap2\n      swap1\n      tag_64\n      jump\t// in\n    tag_179:\n      mload(0x40)\n      dup1\n      swap2\n      sub\n      swap1\n      return\n        /* \"Tet.sol\":8141:8167  address[] public userroles */\n    tag_35:\n      tag_180\n      0x04\n      dup1\n      calldatasize\n      sub\n      dup2\n      add\n      swap1\n      tag_181\n      swap2\n      swap1\n      tag_80\n      jump\t// in\n    tag_181:\n      tag_182\n      jump\t// in\n    tag_180:\n      mload(0x40)\n      tag_183\n      swap2\n      swap1\n      tag_83\n      jump\t// in\n    tag_183:\n      mload(0x40)\n      dup1\n      swap2\n      sub\n      swap1\n      return\n        /* \"Tet.sol\":5958:6141  function addToWhitelist(address _user) public onlyOwner returns(address[] memory) {... */\n    tag_36:\n      tag_184\n      0x04\n      dup1\n      calldatasize\n      sub\n      dup2\n      add\n      swap1\n      tag_185\n      swap2\n      swap1\n      tag_61\n      jump\t// in\n    tag_185:\n      tag_186\n      jump\t// in\n    tag_184:\n      mload(0x40)\n      tag_187\n      swap2\n      swap1\n      tag_114\n      jump\t// in\n    tag_187:\n      mload(0x40)\n      dup1\n      swap2\n      sub\n      swap1\n      return\n        /* \"Tet.sol\":5190:5429  function removeBlacklist(address _user) external returns(address[] memory) {... */\n    tag_37:\n      tag_188\n      0x04\n      dup1\n      calldatasize\n      sub\n      dup2\n      add\n      swap1\n      tag_189\n      swap2\n      swap1\n      tag_61\n      jump\t// in\n    tag_189:\n      tag_190\n      jump\t// in\n    tag_188:\n      mload(0x40)\n      tag_191\n      swap2\n      swap1\n      tag_114\n      jump\t// in\n    tag_191:\n      mload(0x40)\n      dup1\n      swap2\n      sub\n      swap1\n      return\n        /* \"Tet.sol\":1678:1758  function Owner1() public view returns (address) {... */\n    tag_38:\n      tag_192\n      tag_193\n      jump\t// in\n    tag_192:\n      mload(0x40)\n      tag_194\n      swap2\n      swap1\n      tag_83\n      jump\t// in\n    tag_194:\n      mload(0x40)\n      dup1\n      swap2\n      sub\n      swap1\n      return\n        /* \"Tet.sol\":503:544  mapping(address => bool) public blacklist */\n    tag_39:\n      tag_195\n      0x04\n      dup1\n      calldatasize\n      sub\n      dup2\n      add\n      swap1\n      tag_196\n      swap2\n      swap1\n      tag_61\n      jump\t// in\n    tag_196:\n      tag_197\n      jump\t// in\n    tag_195:\n      mload(0x40)\n      tag_198\n      swap2\n      swap1\n      tag_58\n      jump\t// in\n    tag_198:\n      mload(0x40)\n      dup1\n      swap2\n      sub\n      swap1\n      return\n        /* \"Tet.sol\":1465:1566  function balanceOfOwner1() public view returns (uint256) {... */\n    tag_40:\n      tag_199\n      tag_200\n      jump\t// in\n    tag_199:\n      mload(0x40)\n      tag_201\n      swap2\n      swap1\n      tag_64\n      jump\t// in\n    tag_201:\n      mload(0x40)\n      dup1\n      swap2\n      sub\n      swap1\n      return\n        /* \"Tet.sol\":5431:5527  function isBlacklisted(address _user) external view returns(bool) {... */\n    tag_41:\n      tag_202\n      0x04\n      dup1\n      calldatasize\n      sub\n      dup2\n      add\n      swap1\n      tag_203\n      swap2\n      swap1\n      tag_61\n      jump\t// in\n    tag_203:\n      tag_204\n      jump\t// in\n    tag_202:\n      mload(0x40)\n      tag_205\n      swap2\n      swap1\n      tag_58\n      jump\t// in\n    tag_205:\n      mload(0x40)\n      dup1\n      swap2\n      sub\n      swap1\n      return\n        /* \"Tet.sol\":78:109  string public name = \"Tet Toen\" */\n    tag_50:\n      0x00\n      dup1\n      sload\n      tag_206\n      swap1\n      tag_207\n      jump\t// in\n    tag_206:\n      dup1\n      0x1f\n      add\n      0x20\n      dup1\n      swap2\n      div\n      mul\n      0x20\n      add\n      mload(0x40)\n      swap1\n      dup2\n      add\n      0x40\n      mstore\n      dup1\n      swap3\n      swap2\n      swap1\n      dup2\n      dup2\n      mstore\n      0x20\n      add\n      dup3\n      dup1\n      sload\n      tag_208\n      swap1\n      tag_207\n      jump\t// in\n    tag_208:\n      dup1\n      iszero\n      tag_209\n      jumpi\n      dup1\n      0x1f\n      lt\n      tag_210\n      jumpi\n      0x0100\n      dup1\n      dup4\n      sload\n      div\n      mul\n      dup4\n      mstore\n      swap2\n      0x20\n      add\n      swap2\n      jump(tag_209)\n    tag_210:\n      dup3\n      add\n      swap2\n      swap1\n      0x00\n      mstore\n      keccak256(0x00, 0x20)\n      swap1\n    tag_211:\n      dup2\n      sload\n      dup2\n      mstore\n      swap1\n      0x01\n      add\n      swap1\n      0x20\n      add\n      dup1\n      dup4\n      gt\n      tag_211\n      jumpi\n      dup3\n      swap1\n      sub\n      0x1f\n      and\n      dup3\n      add\n      swap2\n    tag_209:\n      pop\n      pop\n      pop\n      pop\n      pop\n      dup2\n      jump\t// out\n        /* \"Tet.sol\":2319:2663  function approve(address _spender,uint256 value) external returns (bool){... */\n    tag_56:\n        /* \"Tet.sol\":2386:2390  bool */\n      0x00\n        /* \"Tet.sol\":2421:2429  _spender */\n      dup3\n        /* \"Tet.sol\":2407:2429  msg.sender != _spender */\n      0xffffffffffffffffffffffffffffffffffffffff\n      and\n        /* \"Tet.sol\":2407:2417  msg.sender */\n      caller\n        /* \"Tet.sol\":2407:2429  msg.sender != _spender */\n      0xffffffffffffffffffffffffffffffffffffffff\n      and\n      sub\n        /* \"Tet.sol\":2399:2445  require(msg.sender != _spender,\"cant be same\") */\n      tag_213\n      jumpi\n      mload(0x40)\n      0x08c379a000000000000000000000000000000000000000000000000000000000\n      dup2\n      mstore\n      0x04\n      add\n      tag_214\n      swap1\n      tag_215\n      jump\t// in\n    tag_214:\n      mload(0x40)\n      dup1\n      swap2\n      sub\n      swap1\n      revert\n    tag_213:\n        /* \"Tet.sol\":2486:2491  value */\n      dup2\n        /* \"Tet.sol\":2462:2471  balanceOf */\n      0x06\n        /* \"Tet.sol\":2462:2483  balanceOf[msg.sender] */\n      0x00\n        /* \"Tet.sol\":2472:2482  msg.sender */\n      caller\n        /* \"Tet.sol\":2462:2483  balanceOf[msg.sender] */\n      0xffffffffffffffffffffffffffffffffffffffff\n      and\n      0xffffffffffffffffffffffffffffffffffffffff\n      and\n      dup2\n      mstore\n      0x20\n      add\n      swap1\n      dup2\n      mstore\n      0x20\n      add\n      0x00\n      keccak256\n      sload\n        /* \"Tet.sol\":2462:2491  balanceOf[msg.sender] > value */\n      gt\n        /* \"Tet.sol\":2453:2502  require( balanceOf[msg.sender] > value,\"No Bnce\") */\n      tag_216\n      jumpi\n      mload(0x40)\n      0x08c379a000000000000000000000000000000000000000000000000000000000\n      dup2\n      mstore\n      0x04\n      add\n      tag_217\n      swap1\n      tag_218\n      jump\t// in\n    tag_217:\n      mload(0x40)\n      dup1\n      swap2\n      sub\n      swap1\n      revert\n    tag_216:\n        /* \"Tet.sol\":2544:2549  value */\n      dup2\n        /* \"Tet.sol\":2510:2519  allowance */\n      0x05\n        /* \"Tet.sol\":2510:2531  allowance[msg.sender] */\n      0x00\n        /* \"Tet.sol\":2520:2530  msg.sender */\n      caller\n        /* \"Tet.sol\":2510:2531  allowance[msg.sender] */\n      0xffffffffffffffffffffffffffffffffffffffff\n      and\n      0xffffffffffffffffffffffffffffffffffffffff\n      and\n      dup2\n      mstore\n      0x20\n      add\n      swap1\n      dup2\n      mstore\n      0x20\n      add\n      0x00\n      keccak256\n        /* \"Tet.sol\":2510:2541  allowance[msg.sender][_spender] */\n      0x00\n        /* \"Tet.sol\":2532:2540  _spender */\n      dup6\n        /* \"Tet.sol\":2510:2541  allowance[msg.sender][_spender] */\n      0xffffffffffffffffffffffffffffffffffffffff\n      and\n      0xffffffffffffffffffffffffffffffffffffffff\n      and\n      dup2\n      mstore\n      0x20\n      add\n      swap1\n      dup2\n      mstore\n      0x20\n      add\n      0x00\n      keccak256\n        /* \"Tet.sol\":2510:2549  allowance[msg.sender][_spender] = value */\n      dup2\n      swap1\n      sstore\n      pop\n        /* \"Tet.sol\":2582:2587  value */\n      dup2\n        /* \"Tet.sol\":2557:2566  balanceOf */\n      0x06\n        /* \"Tet.sol\":2557:2578  balanceOf[msg.sender] */\n      0x00\n        /* \"Tet.sol\":2567:2577  msg.sender */\n      caller\n        /* \"Tet.sol\":2557:2578  balanceOf[msg.sender] */\n      0xffffffffffffffffffffffffffffffffffffffff\n      and\n      0xffffffffffffffffffffffffffffffffffffffff\n      and\n      dup2\n      mstore\n      0x20\n      add\n      swap1\n      dup2\n      mstore\n      0x20\n      add\n      0x00\n      keccak256\n      0x00\n        /* \"Tet.sol\":2557:2587  balanceOf[msg.sender] -= value */\n      dup3\n      dup3\n      sload\n      tag_219\n      swap2\n      swap1\n      tag_220\n      jump\t// in\n    tag_219:\n      swap3\n      pop\n      pop\n      dup2\n      swap1\n      sstore\n      pop\n        /* \"Tet.sol\":2620:2628  _spender */\n      dup3\n        /* \"Tet.sol\":2600:2635  Approval(msg.sender,_spender,value) */\n      0xffffffffffffffffffffffffffffffffffffffff\n      and\n        /* \"Tet.sol\":2609:2619  msg.sender */\n      caller\n        /* \"Tet.sol\":2600:2635  Approval(msg.sender,_spender,value) */\n      0xffffffffffffffffffffffffffffffffffffffff\n      and\n      0x8c5be1e5ebec7d5bd14f71427d1e84f3dd0314c0f7b2291e5b200ac8c7c3b925\n        /* \"Tet.sol\":2629:2634  value */\n      dup5\n        /* \"Tet.sol\":2600:2635  Approval(msg.sender,_spender,value) */\n      mload(0x40)\n      tag_221\n      swap2\n      swap1\n      tag_64\n      jump\t// in\n    tag_221:\n      mload(0x40)\n      dup1\n      swap2\n      sub\n      swap1\n      log3\n        /* \"Tet.sol\":2651:2655  true */\n      0x01\n        /* \"Tet.sol\":2644:2655  return true */\n      swap1\n      pop\n        /* \"Tet.sol\":2319:2663  function approve(address _spender,uint256 value) external returns (bool){... */\n      swap3\n      swap2\n      pop\n      pop\n      jump\t// out\n        /* \"Tet.sol\":1253:1356  function balanceOfUser(address _user) public returns (uint256) {... */\n    tag_62:\n        /* \"Tet.sol\":1307:1314  uint256 */\n      0x00\n        /* \"Tet.sol\":1332:1341  balanceOf */\n      0x06\n        /* \"Tet.sol\":1332:1348  balanceOf[_user] */\n      0x00\n        /* \"Tet.sol\":1342:1347  _user */\n      dup4\n        /* \"Tet.sol\":1332:1348  balanceOf[_user] */\n      0xffffffffffffffffffffffffffffffffffffffff\n      and\n      0xffffffffffffffffffffffffffffffffffffffff\n      and\n      dup2\n      mstore\n      0x20\n      add\n      swap1\n      dup2\n      mstore\n      0x20\n      add\n      0x00\n      keccak256\n      sload\n        /* \"Tet.sol\":1324:1348  return  balanceOf[_user] */\n      swap1\n      pop\n        /* \"Tet.sol\":1253:1356  function balanceOfUser(address _user) public returns (uint256) {... */\n      swap2\n      swap1\n      pop\n      jump\t// out\n        /* \"Tet.sol\":186:213  uint256 public  totalSupply */\n    tag_66:\n      sload(0x03)\n      dup2\n      jump\t// out\n        /* \"Tet.sol\":7990:8028  mapping(address => Role) public _roles */\n    tag_70:\n      mstore(0x20, 0x0e)\n      dup1\n      0x00\n      mstore\n      keccak256(0x00, 0x40)\n      0x00\n      swap2\n      pop\n      sload\n      swap1\n      0x0100\n      exp\n      swap1\n      div\n      0xff\n      and\n      dup2\n      jump\t// out\n        /* \"Tet.sol\":3020:3625  function transferFrom(address from, address to, uint value) public returns (bool) {... */\n    tag_76:\n        /* \"Tet.sol\":3096:3100  bool */\n      0x00\n        /* \"Tet.sol\":3137:3142  value */\n      dup2\n        /* \"Tet.sol\":3119:3128  balanceOf */\n      0x06\n        /* \"Tet.sol\":3119:3134  balanceOf[from] */\n      0x00\n        /* \"Tet.sol\":3129:3133  from */\n      dup7\n        /* \"Tet.sol\":3119:3134  balanceOf[from] */\n      0xffffffffffffffffffffffffffffffffffffffff\n      and\n      0xffffffffffffffffffffffffffffffffffffffff\n      and\n      dup2\n      mstore\n      0x20\n      add\n      swap1\n      dup2\n      mstore\n      0x20\n      add\n      0x00\n      keccak256\n      sload\n        /* \"Tet.sol\":3119:3142  balanceOf[from] > value */\n      gt\n        /* \"Tet.sol\":3111:3153  require(balanceOf[from] > value,\"ow bnce\") */\n      tag_224\n      jumpi\n      mload(0x40)\n      0x08c379a000000000000000000000000000000000000000000000000000000000\n      dup2\n      mstore\n      0x04\n      add\n      tag_225\n      swap1\n      tag_226\n      jump\t// in\n    tag_225:\n      mload(0x40)\n      dup1\n      swap2\n      sub\n      swap1\n      revert\n    tag_224:\n        /* \"Tet.sol\":3187:3191  true */\n      0x01\n        /* \"Tet.sol\":3170:3191  whitelist[to] == true */\n      iszero\n      iszero\n        /* \"Tet.sol\":3170:3179  whitelist */\n      0x08\n        /* \"Tet.sol\":3170:3183  whitelist[to] */\n      0x00\n        /* \"Tet.sol\":3180:3182  to */\n      dup6\n        /* \"Tet.sol\":3170:3183  whitelist[to] */\n      0xffffffffffffffffffffffffffffffffffffffff\n      and\n      0xffffffffffffffffffffffffffffffffffffffff\n      and\n      dup2\n      mstore\n      0x20\n      add\n      swap1\n      dup2\n      mstore\n      0x20\n      add\n      0x00\n      keccak256\n      0x00\n      swap1\n      sload\n      swap1\n      0x0100\n      exp\n      swap1\n      div\n      0xff\n      and\n        /* \"Tet.sol\":3170:3191  whitelist[to] == true */\n      iszero\n      iszero\n      eq\n        /* \"Tet.sol\":3162:3237  require(whitelist[to] == true,\"Not On The White List To Recieve The Token\") */\n      tag_227\n      jumpi\n      mload(0x40)\n      0x08c379a000000000000000000000000000000000000000000000000000000000\n      dup2\n      mstore\n      0x04\n      add\n      tag_228\n      swap1\n      tag_229\n      jump\t// in\n    tag_228:\n      mload(0x40)\n      dup1\n      swap2\n      sub\n      swap1\n      revert\n    tag_227:\n        /* \"Tet.sol\":3255:3264  blacklist */\n      0x07\n        /* \"Tet.sol\":3255:3270  blacklist[from] */\n      0x00\n        /* \"Tet.sol\":3265:3269  from */\n      dup6\n        /* \"Tet.sol\":3255:3270  blacklist[from] */\n      0xffffffffffffffffffffffffffffffffffffffff\n      and\n      0xffffffffffffffffffffffffffffffffffffffff\n      and\n      dup2\n      mstore\n      0x20\n      add\n      swap1\n      dup2\n      mstore\n      0x20\n      add\n      0x00\n      keccak256\n      0x00\n      swap1\n      sload\n      swap1\n      0x0100\n      exp\n      swap1\n      div\n      0xff\n      and\n        /* \"Tet.sol\":3254:3270  !blacklist[from] */\n      iszero\n        /* \"Tet.sol\":3254:3289  !blacklist[from]  && !blacklist[to] */\n      dup1\n      iszero\n      tag_230\n      jumpi\n      pop\n        /* \"Tet.sol\":3276:3285  blacklist */\n      0x07\n        /* \"Tet.sol\":3276:3289  blacklist[to] */\n      0x00\n        /* \"Tet.sol\":3286:3288  to */\n      dup5\n        /* \"Tet.sol\":3276:3289  blacklist[to] */\n      0xffffffffffffffffffffffffffffffffffffffff\n      and\n      0xffffffffffffffffffffffffffffffffffffffff\n      and\n      dup2\n      mstore\n      0x20\n      add\n      swap1\n      dup2\n      mstore\n      0x20\n      add\n      0x00\n      keccak256\n      0x00\n      swap1\n      sload\n      swap1\n      0x0100\n      exp\n      swap1\n      div\n      0xff\n      and\n        /* \"Tet.sol\":3275:3289  !blacklist[to] */\n      iszero\n        /* \"Tet.sol\":3254:3289  !blacklist[from]  && !blacklist[to] */\n    tag_230:\n        /* \"Tet.sol\":3246:3308  require(!blacklist[from]  && !blacklist[to] ,\"no not on blck\") */\n      tag_231\n      jumpi\n      mload(0x40)\n      0x08c379a000000000000000000000000000000000000000000000000000000000\n      dup2\n      mstore\n      0x04\n      add\n      tag_232\n      swap1\n      tag_233\n      jump\t// in\n    tag_232:\n      mload(0x40)\n      dup1\n      swap2\n      sub\n      swap1\n      revert\n    tag_231:\n        /* \"Tet.sol\":3333:3334  0 */\n      0x00\n        /* \"Tet.sol\":3325:3330  value */\n      dup3\n        /* \"Tet.sol\":3325:3334  value > 0 */\n      gt\n        /* \"Tet.sol\":3317:3357  require(value > 0,\"value mut be potive\") */\n      tag_234\n      jumpi\n      mload(0x40)\n      0x08c379a000000000000000000000000000000000000000000000000000000000\n      dup2\n      mstore\n      0x04\n      add\n      tag_235\n      swap1\n      tag_236\n      jump\t// in\n    tag_235:\n      mload(0x40)\n      dup1\n      swap2\n      sub\n      swap1\n      revert\n    tag_234:\n        /* \"Tet.sol\":3383:3388  false */\n      0x00\n        /* \"Tet.sol\":3374:3388  paused ==false */\n      iszero\n      iszero\n        /* \"Tet.sol\":3374:3380  paused */\n      0x04\n      0x14\n      swap1\n      sload\n      swap1\n      0x0100\n      exp\n      swap1\n      div\n      0xff\n      and\n        /* \"Tet.sol\":3374:3388  paused ==false */\n      iszero\n      iszero\n      eq\n        /* \"Tet.sol\":3366:3404  require(paused ==false,\"is not pused\") */\n      tag_237\n      jumpi\n      mload(0x40)\n      0x08c379a000000000000000000000000000000000000000000000000000000000\n      dup2\n      mstore\n      0x04\n      add\n      tag_238\n      swap1\n      tag_239\n      jump\t// in\n    tag_238:\n      mload(0x40)\n      dup1\n      swap2\n      sub\n      swap1\n      revert\n    tag_237:\n        /* \"Tet.sol\":3443:3448  value */\n      dup2\n        /* \"Tet.sol\":3421:3430  allowance */\n      0x05\n        /* \"Tet.sol\":3421:3436  allowance[from] */\n      0x00\n        /* \"Tet.sol\":3431:3435  from */\n      dup7\n        /* \"Tet.sol\":3421:3436  allowance[from] */\n      0xffffffffffffffffffffffffffffffffffffffff\n      and\n      0xffffffffffffffffffffffffffffffffffffffff\n      and\n      dup2\n      mstore\n      0x20\n      add\n      swap1\n      dup2\n      mstore\n      0x20\n      add\n      0x00\n      keccak256\n        /* \"Tet.sol\":3421:3440  allowance[from][to] */\n      0x00\n        /* \"Tet.sol\":3437:3439  to */\n      dup6\n        /* \"Tet.sol\":3421:3440  allowance[from][to] */\n      0xffffffffffffffffffffffffffffffffffffffff\n      and\n      0xffffffffffffffffffffffffffffffffffffffff\n      and\n      dup2\n      mstore\n      0x20\n      add\n      swap1\n      dup2\n      mstore\n      0x20\n      add\n      0x00\n      keccak256\n      sload\n        /* \"Tet.sol\":3421:3448  allowance[from][to] > value */\n      gt\n        /* \"Tet.sol\":3413:3479  require(allowance[from][to] > value,\"mount mut be greter thn vue\") */\n      tag_240\n      jumpi\n      mload(0x40)\n      0x08c379a000000000000000000000000000000000000000000000000000000000\n      dup2\n      mstore\n      0x04\n      add\n      tag_241\n      swap1\n      tag_242\n      jump\t// in\n    tag_241:\n      mload(0x40)\n      dup1\n      swap2\n      sub\n      swap1\n      revert\n    tag_240:\n        /* \"Tet.sol\":3511:3516  value */\n      dup2\n        /* \"Tet.sol\":3488:3497  allowance */\n      0x05\n        /* \"Tet.sol\":3488:3503  allowance[from] */\n      0x00\n        /* \"Tet.sol\":3498:3502  from */\n      dup7\n        /* \"Tet.sol\":3488:3503  allowance[from] */\n      0xffffffffffffffffffffffffffffffffffffffff\n      and\n      0xffffffffffffffffffffffffffffffffffffffff\n      and\n      dup2\n      mstore\n      0x20\n      add\n      swap1\n      dup2\n      mstore\n      0x20\n      add\n      0x00\n      keccak256\n        /* \"Tet.sol\":3488:3507  allowance[from][to] */\n      0x00\n        /* \"Tet.sol\":3504:3506  to */\n      dup6\n        /* \"Tet.sol\":3488:3507  allowance[from][to] */\n      0xffffffffffffffffffffffffffffffffffffffff\n      and\n      0xffffffffffffffffffffffffffffffffffffffff\n      and\n      dup2\n      mstore\n      0x20\n      add\n      swap1\n      dup2\n      mstore\n      0x20\n      add\n      0x00\n      keccak256\n      0x00\n        /* \"Tet.sol\":3488:3516  allowance[from][to] -= value */\n      dup3\n      dup3\n      sload\n      tag_243\n      swap2\n      swap1\n      tag_220\n      jump\t// in\n    tag_243:\n      swap3\n      pop\n      pop\n      dup2\n      swap1\n      sstore\n      pop\n        /* \"Tet.sol\":3544:3549  value */\n      dup2\n        /* \"Tet.sol\":3525:3534  balanceOf */\n      0x06\n        /* \"Tet.sol\":3525:3540  balanceOf[from] */\n      0x00\n        /* \"Tet.sol\":3535:3539  from */\n      dup7\n        /* \"Tet.sol\":3525:3540  balanceOf[from] */\n      0xffffffffffffffffffffffffffffffffffffffff\n      and\n      0xffffffffffffffffffffffffffffffffffffffff\n      and\n      dup2\n      mstore\n      0x20\n      add\n      swap1\n      dup2\n      mstore\n      0x20\n      add\n      0x00\n      keccak256\n      0x00\n        /* \"Tet.sol\":3525:3549  balanceOf[from] -= value */\n      dup3\n      dup3\n      sload\n      tag_244\n      swap2\n      swap1\n      tag_220\n      jump\t// in\n    tag_244:\n      swap3\n      pop\n      pop\n      dup2\n      swap1\n      sstore\n      pop\n        /* \"Tet.sol\":3575:3580  value */\n      dup2\n        /* \"Tet.sol\":3558:3567  balanceOf */\n      0x06\n        /* \"Tet.sol\":3558:3571  balanceOf[to] */\n      0x00\n        /* \"Tet.sol\":3568:3570  to */\n      dup6\n        /* \"Tet.sol\":3558:3571  balanceOf[to] */\n      0xffffffffffffffffffffffffffffffffffffffff\n      and\n      0xffffffffffffffffffffffffffffffffffffffff\n      and\n      dup2\n      mstore\n      0x20\n      add\n      swap1\n      dup2\n      mstore\n      0x20\n      add\n      0x00\n      keccak256\n      0x00\n        /* \"Tet.sol\":3558:3580  balanceOf[to] += value */\n      dup3\n      dup3\n      sload\n      tag_245\n      swap2\n      swap1\n      tag_246\n      jump\t// in\n    tag_245:\n      swap3\n      pop\n      pop\n      dup2\n      swap1\n      sstore\n      pop\n        /* \"Tet.sol\":3608:3610  to */\n      dup3\n        /* \"Tet.sol\":3594:3617  Transfer(from,to,value) */\n      0xffffffffffffffffffffffffffffffffffffffff\n      and\n        /* \"Tet.sol\":3603:3607  from */\n      dup5\n        /* \"Tet.sol\":3594:3617  Transfer(from,to,value) */\n      0xffffffffffffffffffffffffffffffffffffffff\n      and\n      0xddf252ad1be2c89b69c2b068fc378daa952ba7f163c4a11628f55a4df523b3ef\n        /* \"Tet.sol\":3611:3616  value */\n      dup5\n        /* \"Tet.sol\":3594:3617  Transfer(from,to,value) */\n      mload(0x40)\n      tag_247\n      swap2\n      swap1\n      tag_64\n      jump\t// in\n    tag_247:\n      mload(0x40)\n      dup1\n      swap2\n      sub\n      swap1\n      log3\n        /* \"Tet.sol\":3020:3625  function transferFrom(address from, address to, uint value) public returns (bool) {... */\n      swap4\n      swap3\n      pop\n      pop\n      pop\n      jump\t// out\n        /* \"Tet.sol\":5918:5955  address[] public whiteListedAddresses */\n    tag_81:\n      0x0a\n      dup2\n      dup2\n      sload\n      dup2\n      lt\n      tag_248\n      jumpi\n      0x00\n      dup1\n      revert\n    tag_248:\n      swap1\n      0x00\n      mstore\n      keccak256(0x00, 0x20)\n      add\n      0x00\n      swap2\n      pop\n      sload\n      swap1\n      0x0100\n      exp\n      swap1\n      div\n      0xffffffffffffffffffffffffffffffffffffffff\n      and\n      dup2\n      jump\t// out\n        /* \"Tet.sol\":6398:6494  function isWhitelisted(address _user) external view returns(bool) {... */\n    tag_86:\n        /* \"Tet.sol\":6458:6462  bool */\n      0x00\n        /* \"Tet.sol\":6475:6484  whitelist */\n      0x08\n        /* \"Tet.sol\":6475:6491  whitelist[_user] */\n      0x00\n        /* \"Tet.sol\":6485:6490  _user */\n      dup4\n        /* \"Tet.sol\":6475:6491  whitelist[_user] */\n      0xffffffffffffffffffffffffffffffffffffffff\n      and\n      0xffffffffffffffffffffffffffffffffffffffff\n      and\n      dup2\n      mstore\n      0x20\n      add\n      swap1\n      dup2\n      mstore\n      0x20\n      add\n      0x00\n      keccak256\n      0x00\n      swap1\n      sload\n      swap1\n      0x0100\n      exp\n      swap1\n      div\n      0xff\n      and\n        /* \"Tet.sol\":6468:6491  return whitelist[_user] */\n      swap1\n      pop\n        /* \"Tet.sol\":6398:6494  function isWhitelisted(address _user) external view returns(bool) {... */\n      swap2\n      swap1\n      pop\n      jump\t// out\n        /* \"Tet.sol\":4346:4427  function unpause() public onlyOwner returns(bool){... */\n    tag_89:\n        /* \"Tet.sol\":4390:4394  bool */\n      0x00\n        /* \"Tet.sol\":816:821  owner */\n      0x04\n      0x00\n      swap1\n      sload\n      swap1\n      0x0100\n      exp\n      swap1\n      div\n      0xffffffffffffffffffffffffffffffffffffffff\n      and\n        /* \"Tet.sol\":802:821  msg.sender == owner */\n      0xffffffffffffffffffffffffffffffffffffffff\n      and\n        /* \"Tet.sol\":802:812  msg.sender */\n      caller\n        /* \"Tet.sol\":802:821  msg.sender == owner */\n      0xffffffffffffffffffffffffffffffffffffffff\n      and\n      eq\n        /* \"Tet.sol\":794:858  require(msg.sender == owner,\"only owner can call This Function\") */\n      tag_252\n      jumpi\n      mload(0x40)\n      0x08c379a000000000000000000000000000000000000000000000000000000000\n      dup2\n      mstore\n      0x04\n      add\n      tag_253\n      swap1\n      tag_254\n      jump\t// in\n    tag_253:\n      mload(0x40)\n      dup1\n      swap2\n      sub\n      swap1\n      revert\n    tag_252:\n        /* \"Tet.sol\":4414:4419  false */\n      0x00\n        /* \"Tet.sol\":4405:4411  paused */\n      0x04\n      0x14\n        /* \"Tet.sol\":4405:4419  paused = false */\n      0x0100\n      exp\n      dup2\n      sload\n      dup2\n      0xff\n      mul\n      not\n      and\n      swap1\n      dup4\n      iszero\n      iszero\n      mul\n      or\n      swap1\n      sstore\n      pop\n        /* \"Tet.sol\":4346:4427  function unpause() public onlyOwner returns(bool){... */\n      swap1\n      jump\t// out\n        /* \"Tet.sol\":1572:1671  function balanceOfOwner2() public view returns (uint256) {... */\n    tag_92:\n        /* \"Tet.sol\":1620:1627  uint256 */\n      0x00\n        /* \"Tet.sol\":1660:1664  ecim */\n      sload(0x02)\n        /* \"Tet.sol\":1644:1649  owner */\n      0x04\n      0x00\n      swap1\n      sload\n      swap1\n      0x0100\n      exp\n      swap1\n      div\n      0xffffffffffffffffffffffffffffffffffffffff\n      and\n        /* \"Tet.sol\":1644:1657  owner.balance */\n      0xffffffffffffffffffffffffffffffffffffffff\n      and\n      balance\n        /* \"Tet.sol\":1644:1664  owner.balance / ecim */\n      tag_257\n      swap2\n      swap1\n      tag_258\n      jump\t// in\n    tag_257:\n        /* \"Tet.sol\":1637:1664  return owner.balance / ecim */\n      swap1\n      pop\n        /* \"Tet.sol\":1572:1671  function balanceOfOwner2() public view returns (uint256) {... */\n      swap1\n      jump\t// out\n        /* \"Tet.sol\":3633:3953  function mint(address to, uint value) public {... */\n    tag_96:\n        /* \"Tet.sol\":3710:3715  owner */\n      0x04\n      0x00\n      swap1\n      sload\n      swap1\n      0x0100\n      exp\n      swap1\n      div\n      0xffffffffffffffffffffffffffffffffffffffff\n      and\n        /* \"Tet.sol\":3696:3715  msg.sender == owner */\n      0xffffffffffffffffffffffffffffffffffffffff\n      and\n        /* \"Tet.sol\":3696:3706  msg.sender */\n      caller\n        /* \"Tet.sol\":3696:3715  msg.sender == owner */\n      0xffffffffffffffffffffffffffffffffffffffff\n      and\n      eq\n        /* \"Tet.sol\":3688:3736  require(msg.sender == owner,\"ony owner cn mint\") */\n      tag_260\n      jumpi\n      mload(0x40)\n      0x08c379a000000000000000000000000000000000000000000000000000000000\n      dup2\n      mstore\n      0x04\n      add\n      tag_261\n      swap1\n      tag_262\n      jump\t// in\n    tag_261:\n      mload(0x40)\n      dup1\n      swap2\n      sub\n      swap1\n      revert\n    tag_260:\n        /* \"Tet.sol\":3832:3837  value */\n      dup1\n        /* \"Tet.sol\":3807:3816  balanceOf */\n      0x06\n        /* \"Tet.sol\":3807:3828  balanceOf[msg.sender] */\n      0x00\n        /* \"Tet.sol\":3817:3827  msg.sender */\n      caller\n        /* \"Tet.sol\":3807:3828  balanceOf[msg.sender] */\n      0xffffffffffffffffffffffffffffffffffffffff\n      and\n      0xffffffffffffffffffffffffffffffffffffffff\n      and\n      dup2\n      mstore\n      0x20\n      add\n      swap1\n      dup2\n      mstore\n      0x20\n      add\n      0x00\n      keccak256\n      0x00\n        /* \"Tet.sol\":3807:3837  balanceOf[msg.sender] -= value */\n      dup3\n      dup3\n      sload\n      tag_263\n      swap2\n      swap1\n      tag_220\n      jump\t// in\n    tag_263:\n      swap3\n      pop\n      pop\n      dup2\n      swap1\n      sstore\n      pop\n        /* \"Tet.sol\":3862:3867  value */\n      dup1\n        /* \"Tet.sol\":3847:3858  totalSupply */\n      0x03\n      0x00\n        /* \"Tet.sol\":3847:3867  totalSupply += value */\n      dup3\n      dup3\n      sload\n      tag_264\n      swap2\n      swap1\n      tag_246\n      jump\t// in\n    tag_264:\n      swap3\n      pop\n      pop\n      dup2\n      swap1\n      sstore\n      pop\n        /* \"Tet.sol\":3894:3899  value */\n      dup1\n        /* \"Tet.sol\":3877:3886  balanceOf */\n      0x06\n        /* \"Tet.sol\":3877:3890  balanceOf[to] */\n      0x00\n        /* \"Tet.sol\":3887:3889  to */\n      dup5\n        /* \"Tet.sol\":3877:3890  balanceOf[to] */\n      0xffffffffffffffffffffffffffffffffffffffff\n      and\n      0xffffffffffffffffffffffffffffffffffffffff\n      and\n      dup2\n      mstore\n      0x20\n      add\n      swap1\n      dup2\n      mstore\n      0x20\n      add\n      0x00\n      keccak256\n      0x00\n        /* \"Tet.sol\":3877:3899  balanceOf[to] += value */\n      dup3\n      dup3\n      sload\n      tag_265\n      swap2\n      swap1\n      tag_246\n      jump\t// in\n    tag_265:\n      swap3\n      pop\n      pop\n      dup2\n      swap1\n      sstore\n      pop\n        /* \"Tet.sol\":3935:3937  to */\n      dup2\n        /* \"Tet.sol\":3914:3945  Transfer(address(0), to, value) */\n      0xffffffffffffffffffffffffffffffffffffffff\n      and\n        /* \"Tet.sol\":3931:3932  0 */\n      0x00\n        /* \"Tet.sol\":3914:3945  Transfer(address(0), to, value) */\n      0xffffffffffffffffffffffffffffffffffffffff\n      and\n      0xddf252ad1be2c89b69c2b068fc378daa952ba7f163c4a11628f55a4df523b3ef\n        /* \"Tet.sol\":3939:3944  value */\n      dup4\n        /* \"Tet.sol\":3914:3945  Transfer(address(0), to, value) */\n      mload(0x40)\n      tag_266\n      swap2\n      swap1\n      tag_64\n      jump\t// in\n    tag_266:\n      mload(0x40)\n      dup1\n      swap2\n      sub\n      swap1\n      log3\n        /* \"Tet.sol\":3633:3953  function mint(address to, uint value) public {... */\n      pop\n      pop\n      jump\t// out\n        /* \"Tet.sol\":151:179  uint256 public ecim = 10**18 */\n    tag_98:\n      sload(0x02)\n      dup2\n      jump\t// out\n        /* \"Tet.sol\":3960:4248  function burn ( uint value) public {... */\n    tag_102:\n        /* \"Tet.sol\":4036:4041  value */\n      dup1\n        /* \"Tet.sol\":4012:4021  balanceOf */\n      0x06\n        /* \"Tet.sol\":4012:4033  balanceOf[msg.sender] */\n      0x00\n        /* \"Tet.sol\":4022:4032  msg.sender */\n      caller\n        /* \"Tet.sol\":4012:4033  balanceOf[msg.sender] */\n      0xffffffffffffffffffffffffffffffffffffffff\n      and\n      0xffffffffffffffffffffffffffffffffffffffff\n      and\n      dup2\n      mstore\n      0x20\n      add\n      swap1\n      dup2\n      mstore\n      0x20\n      add\n      0x00\n      keccak256\n      sload\n        /* \"Tet.sol\":4012:4041  balanceOf[msg.sender] > value */\n      gt\n        /* \"Tet.sol\":4004:4060  require(balanceOf[msg.sender] > value,\"Not Enough Bnce\") */\n      tag_268\n      jumpi\n      mload(0x40)\n      0x08c379a000000000000000000000000000000000000000000000000000000000\n      dup2\n      mstore\n      0x04\n      add\n      tag_269\n      swap1\n      tag_270\n      jump\t// in\n    tag_269:\n      mload(0x40)\n      dup1\n      swap2\n      sub\n      swap1\n      revert\n    tag_268:\n        /* \"Tet.sol\":4091:4096  value */\n      dup1\n        /* \"Tet.sol\":4077:4088  totalSupply */\n      sload(0x03)\n        /* \"Tet.sol\":4077:4096  totalSupply > value */\n      gt\n        /* \"Tet.sol\":4069:4117  require(totalSupply > value ,\"can not  be zero\") */\n      tag_271\n      jumpi\n      mload(0x40)\n      0x08c379a000000000000000000000000000000000000000000000000000000000\n      dup2\n      mstore\n      0x04\n      add\n      tag_272\n      swap1\n      tag_273\n      jump\t// in\n    tag_272:\n      mload(0x40)\n      dup1\n      swap2\n      sub\n      swap1\n      revert\n    tag_271:\n        /* \"Tet.sol\":4141:4146  value */\n      dup1\n        /* \"Tet.sol\":4126:4137  totalSupply */\n      0x03\n      0x00\n        /* \"Tet.sol\":4126:4146  totalSupply -= value */\n      dup3\n      dup3\n      sload\n      tag_274\n      swap2\n      swap1\n      tag_220\n      jump\t// in\n    tag_274:\n      swap3\n      pop\n      pop\n      dup2\n      swap1\n      sstore\n      pop\n        /* \"Tet.sol\":4180:4185  value */\n      dup1\n        /* \"Tet.sol\":4155:4164  balanceOf */\n      0x06\n        /* \"Tet.sol\":4155:4176  balanceOf[msg.sender] */\n      0x00\n        /* \"Tet.sol\":4165:4175  msg.sender */\n      caller\n        /* \"Tet.sol\":4155:4176  balanceOf[msg.sender] */\n      0xffffffffffffffffffffffffffffffffffffffff\n      and\n      0xffffffffffffffffffffffffffffffffffffffff\n      and\n      dup2\n      mstore\n      0x20\n      add\n      swap1\n      dup2\n      mstore\n      0x20\n      add\n      0x00\n      keccak256\n      0x00\n        /* \"Tet.sol\":4155:4185  balanceOf[msg.sender] -= value */\n      dup3\n      dup3\n      sload\n      tag_275\n      swap2\n      swap1\n      tag_220\n      jump\t// in\n    tag_275:\n      swap3\n      pop\n      pop\n      dup2\n      swap1\n      sstore\n      pop\n        /* \"Tet.sol\":4228:4229  0 */\n      0x00\n        /* \"Tet.sol\":4199:4238  Transfer(msg.sender, address(0), value) */\n      0xffffffffffffffffffffffffffffffffffffffff\n      and\n        /* \"Tet.sol\":4208:4218  msg.sender */\n      caller\n        /* \"Tet.sol\":4199:4238  Transfer(msg.sender, address(0), value) */\n      0xffffffffffffffffffffffffffffffffffffffff\n      and\n      0xddf252ad1be2c89b69c2b068fc378daa952ba7f163c4a11628f55a4df523b3ef\n        /* \"Tet.sol\":4232:4237  value */\n      dup4\n        /* \"Tet.sol\":4199:4238  Transfer(msg.sender, address(0), value) */\n      mload(0x40)\n      tag_276\n      swap2\n      swap1\n      tag_64\n      jump\t// in\n    tag_276:\n      mload(0x40)\n      dup1\n      swap2\n      sub\n      swap1\n      log3\n        /* \"Tet.sol\":3960:4248  function burn ( uint value) public {... */\n      pop\n      jump\t// out\n        /* \"Tet.sol\":8970:9151  function getAdmin99(address _admin) public view returns(Role,address,bool,string memory) {... */\n    tag_105:\n        /* \"Tet.sol\":9026:9030  Role */\n      0x00\n        /* \"Tet.sol\":9031:9038  address */\n      dup1\n        /* \"Tet.sol\":9039:9043  bool */\n      0x00\n        /* \"Tet.sol\":9044:9057  string memory */\n      0x60\n        /* \"Tet.sol\":9072:9078  _roles */\n      0x0e\n        /* \"Tet.sol\":9072:9086  _roles[_admin] */\n      0x00\n        /* \"Tet.sol\":9079:9085  _admin */\n      dup7\n        /* \"Tet.sol\":9072:9086  _roles[_admin] */\n      0xffffffffffffffffffffffffffffffffffffffff\n      and\n      0xffffffffffffffffffffffffffffffffffffffff\n      and\n      dup2\n      mstore\n      0x20\n      add\n      swap1\n      dup2\n      mstore\n      0x20\n      add\n      0x00\n      keccak256\n      0x00\n      swap1\n      sload\n      swap1\n      0x0100\n      exp\n      swap1\n      div\n      0xff\n      and\n        /* \"Tet.sol\":9089:9095  _admin */\n      dup6\n        /* \"Tet.sol\":9097:9105  _hasRole */\n      0x0d\n        /* \"Tet.sol\":9097:9113  _hasRole[_admin] */\n      0x00\n        /* \"Tet.sol\":9106:9112  _admin */\n      dup9\n        /* \"Tet.sol\":9097:9113  _hasRole[_admin] */\n      0xffffffffffffffffffffffffffffffffffffffff\n      and\n      0xffffffffffffffffffffffffffffffffffffffff\n      and\n      dup2\n      mstore\n      0x20\n      add\n      swap1\n      dup2\n      mstore\n      0x20\n      add\n      0x00\n      keccak256\n        /* \"Tet.sol\":9097:9129  _hasRole[_admin][_roles[_admin]] */\n      0x00\n        /* \"Tet.sol\":9114:9120  _roles */\n      0x0e\n        /* \"Tet.sol\":9114:9128  _roles[_admin] */\n      0x00\n        /* \"Tet.sol\":9121:9127  _admin */\n      dup11\n        /* \"Tet.sol\":9114:9128  _roles[_admin] */\n      0xffffffffffffffffffffffffffffffffffffffff\n      and\n      0xffffffffffffffffffffffffffffffffffffffff\n      and\n      dup2\n      mstore\n      0x20\n      add\n      swap1\n      dup2\n      mstore\n      0x20\n      add\n      0x00\n      keccak256\n      0x00\n      swap1\n      sload\n      swap1\n      0x0100\n      exp\n      swap1\n      div\n      0xff\n      and\n        /* \"Tet.sol\":9097:9129  _hasRole[_admin][_roles[_admin]] */\n      0x02\n      dup2\n      gt\n      iszero\n      tag_278\n      jumpi\n      tag_279\n      tag_280\n      jump\t// in\n    tag_279:\n    tag_278:\n      0x02\n      dup2\n      gt\n      iszero\n      tag_281\n      jumpi\n      tag_282\n      tag_280\n      jump\t// in\n    tag_282:\n    tag_281:\n      dup2\n      mstore\n      0x20\n      add\n      swap1\n      dup2\n      mstore\n      0x20\n      add\n      0x00\n      keccak256\n      0x00\n      swap1\n      sload\n      swap1\n      0x0100\n      exp\n      swap1\n      div\n      0xff\n      and\n        /* \"Tet.sol\":9130:9138  roledata */\n      0x0b\n        /* \"Tet.sol\":9130:9147  roledata.roleName */\n      0x01\n      add\n        /* \"Tet.sol\":9063:9148  return  (_roles[_admin] , _admin, _hasRole[_admin][_roles[_admin]],roledata.roleName) */\n      dup1\n      dup1\n      sload\n      tag_283\n      swap1\n      tag_207\n      jump\t// in\n    tag_283:\n      dup1\n      0x1f\n      add\n      0x20\n      dup1\n      swap2\n      div\n      mul\n      0x20\n      add\n      mload(0x40)\n      swap1\n      dup2\n      add\n      0x40\n      mstore\n      dup1\n      swap3\n      swap2\n      swap1\n      dup2\n      dup2\n      mstore\n      0x20\n      add\n      dup3\n      dup1\n      sload\n      tag_284\n      swap1\n      tag_207\n      jump\t// in\n    tag_284:\n      dup1\n      iszero\n      tag_285\n      jumpi\n      dup1\n      0x1f\n      lt\n      tag_286\n      jumpi\n      0x0100\n      dup1\n      dup4\n      sload\n      div\n      mul\n      dup4\n      mstore\n      swap2\n      0x20\n      add\n      swap2\n      jump(tag_285)\n    tag_286:\n      dup3\n      add\n      swap2\n      swap1\n      0x00\n      mstore\n      keccak256(0x00, 0x20)\n      swap1\n    tag_287:\n      dup2\n      sload\n      dup2\n      mstore\n      swap1\n      0x01\n      add\n      swap1\n      0x20\n      add\n      dup1\n      dup4\n      gt\n      tag_287\n      jumpi\n      dup3\n      swap1\n      sub\n      0x1f\n      and\n      dup3\n      add\n      swap2\n    tag_285:\n      pop\n      pop\n      pop\n      pop\n      pop\n      swap1\n      pop\n      swap4\n      pop\n      swap4\n      pop\n      swap4\n      pop\n      swap4\n      pop\n        /* \"Tet.sol\":8970:9151  function getAdmin99(address _admin) public view returns(Role,address,bool,string memory) {... */\n      swap2\n      swap4\n      pop\n      swap2\n      swap4\n      jump\t// out\n        /* \"Tet.sol\":1363:1459  function balanceOfOwner() public view returns (uint256) {... */\n    tag_109:\n        /* \"Tet.sol\":1410:1417  uint256 */\n      0x00\n        /* \"Tet.sol\":1435:1444  balanceOf */\n      0x06\n        /* \"Tet.sol\":1435:1451  balanceOf[owner] */\n      0x00\n        /* \"Tet.sol\":1445:1450  owner */\n      0x04\n      0x00\n      swap1\n      sload\n      swap1\n      0x0100\n      exp\n      swap1\n      div\n      0xffffffffffffffffffffffffffffffffffffffff\n      and\n        /* \"Tet.sol\":1435:1451  balanceOf[owner] */\n      0xffffffffffffffffffffffffffffffffffffffff\n      and\n      0xffffffffffffffffffffffffffffffffffffffff\n      and\n      dup2\n      mstore\n      0x20\n      add\n      swap1\n      dup2\n      mstore\n      0x20\n      add\n      0x00\n      keccak256\n      sload\n        /* \"Tet.sol\":1427:1451  return  balanceOf[owner] */\n      swap1\n      pop\n        /* \"Tet.sol\":1363:1459  function balanceOfOwner() public view returns (uint256) {... */\n      swap1\n      jump\t// out\n        /* \"Tet.sol\":5528:5633  function getBlackListedUsers() external view returns(address[] memory) {... */\n    tag_112:\n        /* \"Tet.sol\":5581:5597  address[] memory */\n      0x60\n        /* \"Tet.sol\":5610:5630  blackListedAddresses */\n      0x09\n        /* \"Tet.sol\":5603:5630  return blackListedAddresses */\n      dup1\n      sload\n      dup1\n      0x20\n      mul\n      0x20\n      add\n      mload(0x40)\n      swap1\n      dup2\n      add\n      0x40\n      mstore\n      dup1\n      swap3\n      swap2\n      swap1\n      dup2\n      dup2\n      mstore\n      0x20\n      add\n      dup3\n      dup1\n      sload\n      dup1\n      iszero\n      tag_290\n      jumpi\n      0x20\n      mul\n      dup3\n      add\n      swap2\n      swap1\n      0x00\n      mstore\n      keccak256(0x00, 0x20)\n      swap1\n    tag_291:\n      dup2\n      0x00\n      swap1\n      sload\n      swap1\n      0x0100\n      exp\n      swap1\n      div\n      0xffffffffffffffffffffffffffffffffffffffff\n      and\n      0xffffffffffffffffffffffffffffffffffffffff\n      and\n      dup2\n      mstore\n      0x20\n      add\n      swap1\n      0x01\n      add\n      swap1\n      dup1\n      dup4\n      gt\n      tag_291\n      jumpi\n    tag_290:\n      pop\n      pop\n      pop\n      pop\n      pop\n      swap1\n      pop\n        /* \"Tet.sol\":5528:5633  function getBlackListedUsers() external view returns(address[] memory) {... */\n      swap1\n      jump\t// out\n        /* \"Tet.sol\":4974:5011  address[] public blackListedAddresses */\n    tag_117:\n      0x09\n      dup2\n      dup2\n      sload\n      dup2\n      lt\n      tag_292\n      jumpi\n      0x00\n      dup1\n      revert\n    tag_292:\n      swap1\n      0x00\n      mstore\n      keccak256(0x00, 0x20)\n      add\n      0x00\n      swap2\n      pop\n      sload\n      swap1\n      0x0100\n      exp\n      swap1\n      div\n      0xffffffffffffffffffffffffffffffffffffffff\n      and\n      dup2\n      jump\t// out\n        /* \"Tet.sol\":8776:8968  function setAdmin99(address _admin) public  {... */\n    tag_121:\n        /* \"Tet.sol\":8841:8851  Role.Admin */\n      0x00\n        /* \"Tet.sol\":8824:8830  _roles */\n      0x0e\n        /* \"Tet.sol\":8824:8838  _roles[_admin] */\n      0x00\n        /* \"Tet.sol\":8831:8837  _admin */\n      dup4\n        /* \"Tet.sol\":8824:8838  _roles[_admin] */\n      0xffffffffffffffffffffffffffffffffffffffff\n      and\n      0xffffffffffffffffffffffffffffffffffffffff\n      and\n      dup2\n      mstore\n      0x20\n      add\n      swap1\n      dup2\n      mstore\n      0x20\n      add\n      0x00\n      keccak256\n      0x00\n        /* \"Tet.sol\":8824:8851  _roles[_admin] = Role.Admin */\n      0x0100\n      exp\n      dup2\n      sload\n      dup2\n      0xff\n      mul\n      not\n      and\n      swap1\n      dup4\n      0x02\n      dup2\n      gt\n      iszero\n      tag_295\n      jumpi\n      tag_296\n      tag_280\n      jump\t// in\n    tag_296:\n    tag_295:\n      mul\n      or\n      swap1\n      sstore\n      pop\n        /* \"Tet.sol\":8890:8894  true */\n      0x01\n        /* \"Tet.sol\":8855:8863  _hasRole */\n      0x0d\n        /* \"Tet.sol\":8855:8871  _hasRole[_admin] */\n      0x00\n        /* \"Tet.sol\":8864:8870  _admin */\n      dup4\n        /* \"Tet.sol\":8855:8871  _hasRole[_admin] */\n      0xffffffffffffffffffffffffffffffffffffffff\n      and\n      0xffffffffffffffffffffffffffffffffffffffff\n      and\n      dup2\n      mstore\n      0x20\n      add\n      swap1\n      dup2\n      mstore\n      0x20\n      add\n      0x00\n      keccak256\n        /* \"Tet.sol\":8855:8887  _hasRole[_admin][_roles[_admin]] */\n      0x00\n        /* \"Tet.sol\":8872:8878  _roles */\n      0x0e\n        /* \"Tet.sol\":8872:8886  _roles[_admin] */\n      0x00\n        /* \"Tet.sol\":8879:8885  _admin */\n      dup6\n        /* \"Tet.sol\":8872:8886  _roles[_admin] */\n      0xffffffffffffffffffffffffffffffffffffffff\n      and\n      0xffffffffffffffffffffffffffffffffffffffff\n      and\n      dup2\n      mstore\n      0x20\n      add\n      swap1\n      dup2\n      mstore\n      0x20\n      add\n      0x00\n      keccak256\n      0x00\n      swap1\n      sload\n      swap1\n      0x0100\n      exp\n      swap1\n      div\n      0xff\n      and\n        /* \"Tet.sol\":8855:8887  _hasRole[_admin][_roles[_admin]] */\n      0x02\n      dup2\n      gt\n      iszero\n      tag_297\n      jumpi\n      tag_298\n      tag_280\n      jump\t// in\n    tag_298:\n    tag_297:\n      0x02\n      dup2\n      gt\n      iszero\n      tag_299\n      jumpi\n      tag_300\n      tag_280\n      jump\t// in\n    tag_300:\n    tag_299:\n      dup2\n      mstore\n      0x20\n      add\n      swap1\n      dup2\n      mstore\n      0x20\n      add\n      0x00\n      keccak256\n      0x00\n        /* \"Tet.sol\":8855:8894  _hasRole[_admin][_roles[_admin]] = true */\n      0x0100\n      exp\n      dup2\n      sload\n      dup2\n      0xff\n      mul\n      not\n      and\n      swap1\n      dup4\n      iszero\n      iszero\n      mul\n      or\n      swap1\n      sstore\n      pop\n        /* \"Tet.sol\":8899:8926  roledata.roleName = \"Admin\" */\n      mload(0x40)\n      dup1\n      0x40\n      add\n      0x40\n      mstore\n      dup1\n      0x05\n      dup2\n      mstore\n      0x20\n      add\n      0x41646d696e000000000000000000000000000000000000000000000000000000\n      dup2\n      mstore\n      pop\n        /* \"Tet.sol\":8899:8907  roledata */\n      0x0b\n        /* \"Tet.sol\":8899:8916  roledata.roleName */\n      0x01\n      add\n        /* \"Tet.sol\":8899:8926  roledata.roleName = \"Admin\" */\n      swap1\n      dup2\n      tag_301\n      swap2\n      swap1\n      tag_302\n      jump\t// in\n    tag_301:\n      pop\n        /* \"Tet.sol\":8776:8968  function setAdmin99(address _admin) public  {... */\n      pop\n      jump\t// out\n        /* \"Tet.sol\":9458:11019  function grantRole(address _admin, address _minter,address _pauser, Role role, Role role1 ) ... */\n    tag_125:\n        /* \"Tet.sol\":9591:9598  address */\n      0x00\n        /* \"Tet.sol\":9599:9603  Role */\n      dup1\n        /* \"Tet.sol\":9604:9608  bool */\n      0x00\n        /* \"Tet.sol\":9569:9575  _admin */\n      dup8\n        /* \"Tet.sol\":9577:9581  role */\n      dup6\n        /* \"Tet.sol\":8249:8259  Role.Admin */\n      0x00\n        /* \"Tet.sol\":8231:8259  _roles[_admin] == Role.Admin */\n      0x02\n      dup2\n      gt\n      iszero\n      tag_304\n      jumpi\n      tag_305\n      tag_280\n      jump\t// in\n    tag_305:\n    tag_304:\n        /* \"Tet.sol\":8231:8237  _roles */\n      0x0e\n        /* \"Tet.sol\":8231:8245  _roles[_admin] */\n      0x00\n        /* \"Tet.sol\":8238:8244  _admin */\n      dup5\n        /* \"Tet.sol\":8231:8245  _roles[_admin] */\n      0xffffffffffffffffffffffffffffffffffffffff\n      and\n      0xffffffffffffffffffffffffffffffffffffffff\n      and\n      dup2\n      mstore\n      0x20\n      add\n      swap1\n      dup2\n      mstore\n      0x20\n      add\n      0x00\n      keccak256\n      0x00\n      swap1\n      sload\n      swap1\n      0x0100\n      exp\n      swap1\n      div\n      0xff\n      and\n        /* \"Tet.sol\":8231:8259  _roles[_admin] == Role.Admin */\n      0x02\n      dup2\n      gt\n      iszero\n      tag_306\n      jumpi\n      tag_307\n      tag_280\n      jump\t// in\n    tag_307:\n    tag_306:\n      eq\n        /* \"Tet.sol\":8223:8289  require(_roles[_admin] == Role.Admin,\"Ony administrator can call\") */\n      tag_308\n      jumpi\n      mload(0x40)\n      0x08c379a000000000000000000000000000000000000000000000000000000000\n      dup2\n      mstore\n      0x04\n      add\n      tag_309\n      swap1\n      tag_310\n      jump\t// in\n    tag_309:\n      mload(0x40)\n      dup1\n      swap2\n      sub\n      swap1\n      revert\n    tag_308:\n        /* \"Tet.sol\":8301:8309  _hasRole */\n      0x0d\n        /* \"Tet.sol\":8301:8317  _hasRole[_admin] */\n      0x00\n        /* \"Tet.sol\":8310:8316  _admin */\n      dup4\n        /* \"Tet.sol\":8301:8317  _hasRole[_admin] */\n      0xffffffffffffffffffffffffffffffffffffffff\n      and\n      0xffffffffffffffffffffffffffffffffffffffff\n      and\n      dup2\n      mstore\n      0x20\n      add\n      swap1\n      dup2\n      mstore\n      0x20\n      add\n      0x00\n      keccak256\n        /* \"Tet.sol\":8301:8329  _hasRole[_admin][Role.Admin] */\n      0x00\n        /* \"Tet.sol\":8318:8328  Role.Admin */\n      dup1\n        /* \"Tet.sol\":8301:8329  _hasRole[_admin][Role.Admin] */\n      0x02\n      dup2\n      gt\n      iszero\n      tag_311\n      jumpi\n      tag_312\n      tag_280\n      jump\t// in\n    tag_312:\n    tag_311:\n      0x02\n      dup2\n      gt\n      iszero\n      tag_313\n      jumpi\n      tag_314\n      tag_280\n      jump\t// in\n    tag_314:\n    tag_313:\n      dup2\n      mstore\n      0x20\n      add\n      swap1\n      dup2\n      mstore\n      0x20\n      add\n      0x00\n      keccak256\n      0x00\n      swap1\n      sload\n      swap1\n      0x0100\n      exp\n      swap1\n      div\n      0xff\n      and\n        /* \"Tet.sol\":8293:8367  require(_hasRole[_admin][Role.Admin],\"Only Admins Can Call This Function\") */\n      tag_315\n      jumpi\n      mload(0x40)\n      0x08c379a000000000000000000000000000000000000000000000000000000000\n      dup2\n      mstore\n      0x04\n      add\n      tag_316\n      swap1\n      tag_317\n      jump\t// in\n    tag_316:\n      mload(0x40)\n      dup1\n      swap2\n      sub\n      swap1\n      revert\n    tag_315:\n        /* \"Tet.sol\":9641:9651  Role.Admin */\n      0x00\n        /* \"Tet.sol\":9623:9651  _roles[_admin] == Role.Admin */\n      0x02\n      dup2\n      gt\n      iszero\n      tag_319\n      jumpi\n      tag_320\n      tag_280\n      jump\t// in\n    tag_320:\n    tag_319:\n        /* \"Tet.sol\":9623:9629  _roles */\n      0x0e\n        /* \"Tet.sol\":9623:9637  _roles[_admin] */\n      0x00\n        /* \"Tet.sol\":9630:9636  _admin */\n      dup13\n        /* \"Tet.sol\":9623:9637  _roles[_admin] */\n      0xffffffffffffffffffffffffffffffffffffffff\n      and\n      0xffffffffffffffffffffffffffffffffffffffff\n      and\n      dup2\n      mstore\n      0x20\n      add\n      swap1\n      dup2\n      mstore\n      0x20\n      add\n      0x00\n      keccak256\n      0x00\n      swap1\n      sload\n      swap1\n      0x0100\n      exp\n      swap1\n      div\n      0xff\n      and\n        /* \"Tet.sol\":9623:9651  _roles[_admin] == Role.Admin */\n      0x02\n      dup2\n      gt\n      iszero\n      tag_321\n      jumpi\n      tag_322\n      tag_280\n      jump\t// in\n    tag_322:\n    tag_321:\n      eq\n        /* \"Tet.sol\":9615:9682  require(_roles[_admin] == Role.Admin,\"Only administrator can call\") */\n      tag_323\n      jumpi\n      mload(0x40)\n      0x08c379a000000000000000000000000000000000000000000000000000000000\n      dup2\n      mstore\n      0x04\n      add\n      tag_324\n      swap1\n      tag_325\n      jump\t// in\n    tag_324:\n      mload(0x40)\n      dup1\n      swap2\n      sub\n      swap1\n      revert\n    tag_323:\n        /* \"Tet.sol\":9713:9724  Role.Minter */\n      0x01\n        /* \"Tet.sol\":9694:9724  _roles[_minter] != Role.Minter */\n      0x02\n      dup2\n      gt\n      iszero\n      tag_326\n      jumpi\n      tag_327\n      tag_280\n      jump\t// in\n    tag_327:\n    tag_326:\n        /* \"Tet.sol\":9694:9700  _roles */\n      0x0e\n        /* \"Tet.sol\":9694:9709  _roles[_minter] */\n      0x00\n        /* \"Tet.sol\":9701:9708  _minter */\n      dup12\n        /* \"Tet.sol\":9694:9709  _roles[_minter] */\n      0xffffffffffffffffffffffffffffffffffffffff\n      and\n      0xffffffffffffffffffffffffffffffffffffffff\n      and\n      dup2\n      mstore\n      0x20\n      add\n      swap1\n      dup2\n      mstore\n      0x20\n      add\n      0x00\n      keccak256\n      0x00\n      swap1\n      sload\n      swap1\n      0x0100\n      exp\n      swap1\n      div\n      0xff\n      and\n        /* \"Tet.sol\":9694:9724  _roles[_minter] != Role.Minter */\n      0x02\n      dup2\n      gt\n      iszero\n      tag_328\n      jumpi\n      tag_329\n      tag_280\n      jump\t// in\n    tag_329:\n    tag_328:\n      sub\n        /* \"Tet.sol\":9686:9761  require(_roles[_minter] != Role.Minter,\"Minter Can Not Grant Himself role\") */\n      tag_330\n      jumpi\n      mload(0x40)\n      0x08c379a000000000000000000000000000000000000000000000000000000000\n      dup2\n      mstore\n      0x04\n      add\n      tag_331\n      swap1\n      tag_332\n      jump\t// in\n    tag_331:\n      mload(0x40)\n      dup1\n      swap2\n      sub\n      swap1\n      revert\n    tag_330:\n        /* \"Tet.sol\":9876:9881  false */\n      0x00\n        /* \"Tet.sol\":9854:9881  roledata.isGranted == false */\n      iszero\n      iszero\n        /* \"Tet.sol\":9854:9862  roledata */\n      0x0b\n        /* \"Tet.sol\":9854:9872  roledata.isGranted */\n      0x00\n      add\n      0x14\n      swap1\n      sload\n      swap1\n      0x0100\n      exp\n      swap1\n      div\n      0xff\n      and\n        /* \"Tet.sol\":9854:9881  roledata.isGranted == false */\n      iszero\n      iszero\n      eq\n        /* \"Tet.sol\":9846:9910  require(roledata.isGranted == false,\"Already Granted This Role\") */\n      tag_333\n      jumpi\n      mload(0x40)\n      0x08c379a000000000000000000000000000000000000000000000000000000000\n      dup2\n      mstore\n      0x04\n      add\n      tag_334\n      swap1\n      tag_335\n      jump\t// in\n    tag_334:\n      mload(0x40)\n      dup1\n      swap2\n      sub\n      swap1\n      revert\n    tag_333:\n        /* \"Tet.sol\":9944:9951  _minter */\n      dup9\n        /* \"Tet.sol\":9914:9927  _userRoleData */\n      0x10\n        /* \"Tet.sol\":9914:9936  _userRoleData[_minter] */\n      0x00\n        /* \"Tet.sol\":9928:9935  _minter */\n      dup12\n        /* \"Tet.sol\":9914:9936  _userRoleData[_minter] */\n      0xffffffffffffffffffffffffffffffffffffffff\n      and\n      0xffffffffffffffffffffffffffffffffffffffff\n      and\n      dup2\n      mstore\n      0x20\n      add\n      swap1\n      dup2\n      mstore\n      0x20\n      add\n      0x00\n      keccak256\n        /* \"Tet.sol\":9914:9941  _userRoleData[_minter].user */\n      0x00\n      add\n      0x00\n        /* \"Tet.sol\":9914:9951  _userRoleData[_minter].user = _minter */\n      0x0100\n      exp\n      dup2\n      sload\n      dup2\n      0xffffffffffffffffffffffffffffffffffffffff\n      mul\n      not\n      and\n      swap1\n      dup4\n      0xffffffffffffffffffffffffffffffffffffffff\n      and\n      mul\n      or\n      swap1\n      sstore\n      pop\n        /* \"Tet.sol\":9985:9992  _pauser */\n      dup8\n        /* \"Tet.sol\":9955:9968  _userRoleData */\n      0x10\n        /* \"Tet.sol\":9955:9977  _userRoleData[_pauser] */\n      0x00\n        /* \"Tet.sol\":9969:9976  _pauser */\n      dup11\n        /* \"Tet.sol\":9955:9977  _userRoleData[_pauser] */\n      0xffffffffffffffffffffffffffffffffffffffff\n      and\n      0xffffffffffffffffffffffffffffffffffffffff\n      and\n      dup2\n      mstore\n      0x20\n      add\n      swap1\n      dup2\n      mstore\n      0x20\n      add\n      0x00\n      keccak256\n        /* \"Tet.sol\":9955:9982  _userRoleData[_pauser].user */\n      0x00\n      add\n      0x00\n        /* \"Tet.sol\":9955:9992  _userRoleData[_pauser].user = _pauser */\n      0x0100\n      exp\n      dup2\n      sload\n      dup2\n      0xffffffffffffffffffffffffffffffffffffffff\n      mul\n      not\n      and\n      swap1\n      dup4\n      0xffffffffffffffffffffffffffffffffffffffff\n      and\n      mul\n      or\n      swap1\n      sstore\n      pop\n        /* \"Tet.sol\":10119:10123  true */\n      0x01\n        /* \"Tet.sol\":10083:10091  _hasRole */\n      0x0d\n        /* \"Tet.sol\":10083:10099  _hasRole[_admin] */\n      0x00\n        /* \"Tet.sol\":10092:10098  _admin */\n      dup13\n        /* \"Tet.sol\":10083:10099  _hasRole[_admin] */\n      0xffffffffffffffffffffffffffffffffffffffff\n      and\n      0xffffffffffffffffffffffffffffffffffffffff\n      and\n      dup2\n      mstore\n      0x20\n      add\n      swap1\n      dup2\n      mstore\n      0x20\n      add\n      0x00\n      keccak256\n        /* \"Tet.sol\":10083:10116  _hasRole[_admin][_roles[_minter]] */\n      0x00\n        /* \"Tet.sol\":10100:10106  _roles */\n      0x0e\n        /* \"Tet.sol\":10100:10115  _roles[_minter] */\n      0x00\n        /* \"Tet.sol\":10107:10114  _minter */\n      dup14\n        /* \"Tet.sol\":10100:10115  _roles[_minter] */\n      0xffffffffffffffffffffffffffffffffffffffff\n      and\n      0xffffffffffffffffffffffffffffffffffffffff\n      and\n      dup2\n      mstore\n      0x20\n      add\n      swap1\n      dup2\n      mstore\n      0x20\n      add\n      0x00\n      keccak256\n      0x00\n      swap1\n      sload\n      swap1\n      0x0100\n      exp\n      swap1\n      div\n      0xff\n      and\n        /* \"Tet.sol\":10083:10116  _hasRole[_admin][_roles[_minter]] */\n      0x02\n      dup2\n      gt\n      iszero\n      tag_336\n      jumpi\n      tag_337\n      tag_280\n      jump\t// in\n    tag_337:\n    tag_336:\n      0x02\n      dup2\n      gt\n      iszero\n      tag_338\n      jumpi\n      tag_339\n      tag_280\n      jump\t// in\n    tag_339:\n    tag_338:\n      dup2\n      mstore\n      0x20\n      add\n      swap1\n      dup2\n      mstore\n      0x20\n      add\n      0x00\n      keccak256\n      0x00\n        /* \"Tet.sol\":10083:10123  _hasRole[_admin][_roles[_minter]] = true */\n      0x0100\n      exp\n      dup2\n      sload\n      dup2\n      0xff\n      mul\n      not\n      and\n      swap1\n      dup4\n      iszero\n      iszero\n      mul\n      or\n      swap1\n      sstore\n      pop\n        /* \"Tet.sol\":10163:10167  true */\n      0x01\n        /* \"Tet.sol\":10128:10141  _userRoleData */\n      0x10\n        /* \"Tet.sol\":10128:10150  _userRoleData[_minter] */\n      0x00\n        /* \"Tet.sol\":10142:10149  _minter */\n      dup12\n        /* \"Tet.sol\":10128:10150  _userRoleData[_minter] */\n      0xffffffffffffffffffffffffffffffffffffffff\n      and\n      0xffffffffffffffffffffffffffffffffffffffff\n      and\n      dup2\n      mstore\n      0x20\n      add\n      swap1\n      dup2\n      mstore\n      0x20\n      add\n      0x00\n      keccak256\n        /* \"Tet.sol\":10128:10160  _userRoleData[_minter].isGranted */\n      0x00\n      add\n      0x14\n        /* \"Tet.sol\":10128:10167  _userRoleData[_minter].isGranted = true */\n      0x0100\n      exp\n      dup2\n      sload\n      dup2\n      0xff\n      mul\n      not\n      and\n      swap1\n      dup4\n      iszero\n      iszero\n      mul\n      or\n      swap1\n      sstore\n      pop\n        /* \"Tet.sol\":10172:10214  _userRoleData[_minter].roleName = \"Minter\" */\n      mload(0x40)\n      dup1\n      0x40\n      add\n      0x40\n      mstore\n      dup1\n      0x06\n      dup2\n      mstore\n      0x20\n      add\n      0x4d696e7465720000000000000000000000000000000000000000000000000000\n      dup2\n      mstore\n      pop\n        /* \"Tet.sol\":10172:10185  _userRoleData */\n      0x10\n        /* \"Tet.sol\":10172:10194  _userRoleData[_minter] */\n      0x00\n        /* \"Tet.sol\":10186:10193  _minter */\n      dup12\n        /* \"Tet.sol\":10172:10194  _userRoleData[_minter] */\n      0xffffffffffffffffffffffffffffffffffffffff\n      and\n      0xffffffffffffffffffffffffffffffffffffffff\n      and\n      dup2\n      mstore\n      0x20\n      add\n      swap1\n      dup2\n      mstore\n      0x20\n      add\n      0x00\n      keccak256\n        /* \"Tet.sol\":10172:10203  _userRoleData[_minter].roleName */\n      0x01\n      add\n        /* \"Tet.sol\":10172:10214  _userRoleData[_minter].roleName = \"Minter\" */\n      swap1\n      dup2\n      tag_340\n      swap2\n      swap1\n      tag_302\n      jump\t// in\n    tag_340:\n      pop\n        /* \"Tet.sol\":10254:10258  role */\n      dup7\n        /* \"Tet.sol\":10219:10232  _userRoleData */\n      0x10\n        /* \"Tet.sol\":10219:10241  _userRoleData[_minter] */\n      0x00\n        /* \"Tet.sol\":10233:10240  _minter */\n      dup12\n        /* \"Tet.sol\":10219:10241  _userRoleData[_minter] */\n      0xffffffffffffffffffffffffffffffffffffffff\n      and\n      0xffffffffffffffffffffffffffffffffffffffff\n      and\n      dup2\n      mstore\n      0x20\n      add\n      swap1\n      dup2\n      mstore\n      0x20\n      add\n      0x00\n      keccak256\n        /* \"Tet.sol\":10219:10250  _userRoleData[_minter].roleType */\n      0x00\n      add\n      0x16\n        /* \"Tet.sol\":10219:10258  _userRoleData[_minter].roleType =  role */\n      0x0100\n      exp\n      dup2\n      sload\n      dup2\n      0xff\n      mul\n      not\n      and\n      swap1\n      dup4\n      0x02\n      dup2\n      gt\n      iszero\n      tag_341\n      jumpi\n      tag_342\n      tag_280\n      jump\t// in\n    tag_342:\n    tag_341:\n      mul\n      or\n      swap1\n      sstore\n      pop\n        /* \"Tet.sol\":10390:10394  true */\n      0x01\n        /* \"Tet.sol\":10354:10362  _hasRole */\n      0x0d\n        /* \"Tet.sol\":10354:10370  _hasRole[_admin] */\n      0x00\n        /* \"Tet.sol\":10363:10369  _admin */\n      dup13\n        /* \"Tet.sol\":10354:10370  _hasRole[_admin] */\n      0xffffffffffffffffffffffffffffffffffffffff\n      and\n      0xffffffffffffffffffffffffffffffffffffffff\n      and\n      dup2\n      mstore\n      0x20\n      add\n      swap1\n      dup2\n      mstore\n      0x20\n      add\n      0x00\n      keccak256\n        /* \"Tet.sol\":10354:10387  _hasRole[_admin][_roles[_pauser]] */\n      0x00\n        /* \"Tet.sol\":10371:10377  _roles */\n      0x0e\n        /* \"Tet.sol\":10371:10386  _roles[_pauser] */\n      0x00\n        /* \"Tet.sol\":10378:10385  _pauser */\n      dup13\n        /* \"Tet.sol\":10371:10386  _roles[_pauser] */\n      0xffffffffffffffffffffffffffffffffffffffff\n      and\n      0xffffffffffffffffffffffffffffffffffffffff\n      and\n      dup2\n      mstore\n      0x20\n      add\n      swap1\n      dup2\n      mstore\n      0x20\n      add\n      0x00\n      keccak256\n      0x00\n      swap1\n      sload\n      swap1\n      0x0100\n      exp\n      swap1\n      div\n      0xff\n      and\n        /* \"Tet.sol\":10354:10387  _hasRole[_admin][_roles[_pauser]] */\n      0x02\n      dup2\n      gt\n      iszero\n      tag_343\n      jumpi\n      tag_344\n      tag_280\n      jump\t// in\n    tag_344:\n    tag_343:\n      0x02\n      dup2\n      gt\n      iszero\n      tag_345\n      jumpi\n      tag_346\n      tag_280\n      jump\t// in\n    tag_346:\n    tag_345:\n      dup2\n      mstore\n      0x20\n      add\n      swap1\n      dup2\n      mstore\n      0x20\n      add\n      0x00\n      keccak256\n      0x00\n        /* \"Tet.sol\":10354:10394  _hasRole[_admin][_roles[_pauser]] = true */\n      0x0100\n      exp\n      dup2\n      sload\n      dup2\n      0xff\n      mul\n      not\n      and\n      swap1\n      dup4\n      iszero\n      iszero\n      mul\n      or\n      swap1\n      sstore\n      pop\n        /* \"Tet.sol\":10434:10438  true */\n      0x01\n        /* \"Tet.sol\":10399:10412  _userRoleData */\n      0x10\n        /* \"Tet.sol\":10399:10421  _userRoleData[_pauser] */\n      0x00\n        /* \"Tet.sol\":10413:10420  _pauser */\n      dup11\n        /* \"Tet.sol\":10399:10421  _userRoleData[_pauser] */\n      0xffffffffffffffffffffffffffffffffffffffff\n      and\n      0xffffffffffffffffffffffffffffffffffffffff\n      and\n      dup2\n      mstore\n      0x20\n      add\n      swap1\n      dup2\n      mstore\n      0x20\n      add\n      0x00\n      keccak256\n        /* \"Tet.sol\":10399:10431  _userRoleData[_pauser].isGranted */\n      0x00\n      add\n      0x14\n        /* \"Tet.sol\":10399:10438  _userRoleData[_pauser].isGranted = true */\n      0x0100\n      exp\n      dup2\n      sload\n      dup2\n      0xff\n      mul\n      not\n      and\n      swap1\n      dup4\n      iszero\n      iszero\n      mul\n      or\n      swap1\n      sstore\n      pop\n        /* \"Tet.sol\":10443:10485  _userRoleData[_pauser].roleName = \"Pauser\" */\n      mload(0x40)\n      dup1\n      0x40\n      add\n      0x40\n      mstore\n      dup1\n      0x06\n      dup2\n      mstore\n      0x20\n      add\n      0x5061757365720000000000000000000000000000000000000000000000000000\n      dup2\n      mstore\n      pop\n        /* \"Tet.sol\":10443:10456  _userRoleData */\n      0x10\n        /* \"Tet.sol\":10443:10465  _userRoleData[_pauser] */\n      0x00\n        /* \"Tet.sol\":10457:10464  _pauser */\n      dup11\n        /* \"Tet.sol\":10443:10465  _userRoleData[_pauser] */\n      0xffffffffffffffffffffffffffffffffffffffff\n      and\n      0xffffffffffffffffffffffffffffffffffffffff\n      and\n      dup2\n      mstore\n      0x20\n      add\n      swap1\n      dup2\n      mstore\n      0x20\n      add\n      0x00\n      keccak256\n        /* \"Tet.sol\":10443:10474  _userRoleData[_pauser].roleName */\n      0x01\n      add\n        /* \"Tet.sol\":10443:10485  _userRoleData[_pauser].roleName = \"Pauser\" */\n      swap1\n      dup2\n      tag_347\n      swap2\n      swap1\n      tag_302\n      jump\t// in\n    tag_347:\n      pop\n        /* \"Tet.sol\":10525:10530  role1 */\n      dup6\n        /* \"Tet.sol\":10491:10504  _userRoleData */\n      0x10\n        /* \"Tet.sol\":10491:10513  _userRoleData[_pauser] */\n      0x00\n        /* \"Tet.sol\":10505:10512  _pauser */\n      dup11\n        /* \"Tet.sol\":10491:10513  _userRoleData[_pauser] */\n      0xffffffffffffffffffffffffffffffffffffffff\n      and\n      0xffffffffffffffffffffffffffffffffffffffff\n      and\n      dup2\n      mstore\n      0x20\n      add\n      swap1\n      dup2\n      mstore\n      0x20\n      add\n      0x00\n      keccak256\n        /* \"Tet.sol\":10491:10522  _userRoleData[_pauser].roleType */\n      0x00\n      add\n      0x16\n        /* \"Tet.sol\":10491:10530  _userRoleData[_pauser].roleType = role1 */\n      0x0100\n      exp\n      dup2\n      sload\n      dup2\n      0xff\n      mul\n      not\n      and\n      swap1\n      dup4\n      0x02\n      dup2\n      gt\n      iszero\n      tag_348\n      jumpi\n      tag_349\n      tag_280\n      jump\t// in\n    tag_349:\n    tag_348:\n      mul\n      or\n      swap1\n      sstore\n      pop\n        /* \"Tet.sol\":10544:10557  _userRoleData */\n      0x10\n        /* \"Tet.sol\":10544:10566  _userRoleData[_pauser] */\n      0x00\n        /* \"Tet.sol\":10558:10565  _pauser */\n      dup10\n        /* \"Tet.sol\":10544:10566  _userRoleData[_pauser] */\n      0xffffffffffffffffffffffffffffffffffffffff\n      and\n      0xffffffffffffffffffffffffffffffffffffffff\n      and\n      dup2\n      mstore\n      0x20\n      add\n      swap1\n      dup2\n      mstore\n      0x20\n      add\n      0x00\n      keccak256\n        /* \"Tet.sol\":10544:10571  _userRoleData[_pauser].user */\n      0x00\n      add\n      0x00\n      swap1\n      sload\n      swap1\n      0x0100\n      exp\n      swap1\n      div\n      0xffffffffffffffffffffffffffffffffffffffff\n      and\n        /* \"Tet.sol\":10572:10585  _userRoleData */\n      0x10\n        /* \"Tet.sol\":10572:10594  _userRoleData[_pauser] */\n      0x00\n        /* \"Tet.sol\":10586:10593  _pauser */\n      dup11\n        /* \"Tet.sol\":10572:10594  _userRoleData[_pauser] */\n      0xffffffffffffffffffffffffffffffffffffffff\n      and\n      0xffffffffffffffffffffffffffffffffffffffff\n      and\n      dup2\n      mstore\n      0x20\n      add\n      swap1\n      dup2\n      mstore\n      0x20\n      add\n      0x00\n      keccak256\n        /* \"Tet.sol\":10572:10603  _userRoleData[_pauser].roleType */\n      0x00\n      add\n      0x16\n      swap1\n      sload\n      swap1\n      0x0100\n      exp\n      swap1\n      div\n      0xff\n      and\n        /* \"Tet.sol\":10605:10613  _hasRole */\n      0x0d\n        /* \"Tet.sol\":10605:10621  _hasRole[_admin] */\n      0x00\n        /* \"Tet.sol\":10614:10620  _admin */\n      dup14\n        /* \"Tet.sol\":10605:10621  _hasRole[_admin] */\n      0xffffffffffffffffffffffffffffffffffffffff\n      and\n      0xffffffffffffffffffffffffffffffffffffffff\n      and\n      dup2\n      mstore\n      0x20\n      add\n      swap1\n      dup2\n      mstore\n      0x20\n      add\n      0x00\n      keccak256\n        /* \"Tet.sol\":10605:10638  _hasRole[_admin][_roles[_pauser]] */\n      0x00\n        /* \"Tet.sol\":10622:10628  _roles */\n      0x0e\n        /* \"Tet.sol\":10622:10637  _roles[_pauser] */\n      0x00\n        /* \"Tet.sol\":10629:10636  _pauser */\n      dup14\n        /* \"Tet.sol\":10622:10637  _roles[_pauser] */\n      0xffffffffffffffffffffffffffffffffffffffff\n      and\n      0xffffffffffffffffffffffffffffffffffffffff\n      and\n      dup2\n      mstore\n      0x20\n      add\n      swap1\n      dup2\n      mstore\n      0x20\n      add\n      0x00\n      keccak256\n      0x00\n      swap1\n      sload\n      swap1\n      0x0100\n      exp\n      swap1\n      div\n      0xff\n      and\n        /* \"Tet.sol\":10605:10638  _hasRole[_admin][_roles[_pauser]] */\n      0x02\n      dup2\n      gt\n      iszero\n      tag_350\n      jumpi\n      tag_351\n      tag_280\n      jump\t// in\n    tag_351:\n    tag_350:\n      0x02\n      dup2\n      gt\n      iszero\n      tag_352\n      jumpi\n      tag_353\n      tag_280\n      jump\t// in\n    tag_353:\n    tag_352:\n      dup2\n      mstore\n      0x20\n      add\n      swap1\n      dup2\n      mstore\n      0x20\n      add\n      0x00\n      keccak256\n      0x00\n      swap1\n      sload\n      swap1\n      0x0100\n      exp\n      swap1\n      div\n      0xff\n      and\n        /* \"Tet.sol\":10536:10639  return (_userRoleData[_pauser].user,_userRoleData[_pauser].roleType ,_hasRole[_admin][_roles[_pauser]]) */\n      swap5\n      pop\n      swap5\n      pop\n      swap5\n      pop\n        /* \"Tet.sol\":9458:11019  function grantRole(address _admin, address _minter,address _pauser, Role role, Role role1 ) ... */\n      pop\n      pop\n      swap6\n      pop\n      swap6\n      pop\n      swap6\n      swap3\n      pop\n      pop\n      pop\n      jump\t// out\n        /* \"Tet.sol\":451:496  mapping (address => uint256) public balanceOf */\n    tag_130:\n      mstore(0x20, 0x06)\n      dup1\n      0x00\n      mstore\n      keccak256(0x00, 0x40)\n      0x00\n      swap2\n      pop\n      swap1\n      pop\n      sload\n      dup2\n      jump\t// out\n        /* \"Tet.sol\":1764:1839  function Owner2() public view returns (address) {... */\n    tag_133:\n        /* \"Tet.sol\":1803:1810  address */\n      0x00\n        /* \"Tet.sol\":1827:1832  owner */\n      0x04\n      0x00\n      swap1\n      sload\n      swap1\n      0x0100\n      exp\n      swap1\n      div\n      0xffffffffffffffffffffffffffffffffffffffff\n      and\n        /* \"Tet.sol\":1820:1832  return owner */\n      swap1\n      pop\n        /* \"Tet.sol\":1764:1839  function Owner2() public view returns (address) {... */\n      swap1\n      jump\t// out\n        /* \"Tet.sol\":8030:8087  mapping(address => mapping(address => uint)) public _role */\n    tag_138:\n      mstore(0x20, 0x0f)\n      dup2\n      0x00\n      mstore\n      mstore(0x20, keccak256(0x00, 0x40))\n      dup1\n      0x00\n      mstore\n      keccak256(0x00, 0x40)\n      0x00\n      swap2\n      pop\n      swap2\n      pop\n      pop\n      sload\n      dup2\n      jump\t// out\n        /* \"Tet.sol\":4261:4339  function pause() public onlyOwner returns(bool){... */\n    tag_141:\n        /* \"Tet.sol\":4303:4307  bool */\n      0x00\n        /* \"Tet.sol\":816:821  owner */\n      0x04\n      0x00\n      swap1\n      sload\n      swap1\n      0x0100\n      exp\n      swap1\n      div\n      0xffffffffffffffffffffffffffffffffffffffff\n      and\n        /* \"Tet.sol\":802:821  msg.sender == owner */\n      0xffffffffffffffffffffffffffffffffffffffff\n      and\n        /* \"Tet.sol\":802:812  msg.sender */\n      caller\n        /* \"Tet.sol\":802:821  msg.sender == owner */\n      0xffffffffffffffffffffffffffffffffffffffff\n      and\n      eq\n        /* \"Tet.sol\":794:858  require(msg.sender == owner,\"only owner can call This Function\") */\n      tag_356\n      jumpi\n      mload(0x40)\n      0x08c379a000000000000000000000000000000000000000000000000000000000\n      dup2\n      mstore\n      0x04\n      add\n      tag_357\n      swap1\n      tag_254\n      jump\t// in\n    tag_357:\n      mload(0x40)\n      dup1\n      swap2\n      sub\n      swap1\n      revert\n    tag_356:\n        /* \"Tet.sol\":4327:4331  true */\n      0x01\n        /* \"Tet.sol\":4318:4324  paused */\n      0x04\n      0x14\n        /* \"Tet.sol\":4318:4331  paused = true */\n      0x0100\n      exp\n      dup2\n      sload\n      dup2\n      0xff\n      mul\n      not\n      and\n      swap1\n      dup4\n      iszero\n      iszero\n      mul\n      or\n      swap1\n      sstore\n      pop\n        /* \"Tet.sol\":4261:4339  function pause() public onlyOwner returns(bool){... */\n      swap1\n      jump\t// out\n        /* \"Tet.sol\":6143:6396  function removeFromWhitelist(address _user) public onlyOwner returns(address[] memory) {... */\n    tag_145:\n        /* \"Tet.sol\":6212:6228  address[] memory */\n      0x60\n        /* \"Tet.sol\":816:821  owner */\n      0x04\n      0x00\n      swap1\n      sload\n      swap1\n      0x0100\n      exp\n      swap1\n      div\n      0xffffffffffffffffffffffffffffffffffffffff\n      and\n        /* \"Tet.sol\":802:821  msg.sender == owner */\n      0xffffffffffffffffffffffffffffffffffffffff\n      and\n        /* \"Tet.sol\":802:812  msg.sender */\n      caller\n        /* \"Tet.sol\":802:821  msg.sender == owner */\n      0xffffffffffffffffffffffffffffffffffffffff\n      and\n      eq\n        /* \"Tet.sol\":794:858  require(msg.sender == owner,\"only owner can call This Function\") */\n      tag_360\n      jumpi\n      mload(0x40)\n      0x08c379a000000000000000000000000000000000000000000000000000000000\n      dup2\n      mstore\n      0x04\n      add\n      tag_361\n      swap1\n      tag_254\n      jump\t// in\n    tag_361:\n      mload(0x40)\n      dup1\n      swap2\n      sub\n      swap1\n      revert\n    tag_360:\n        /* \"Tet.sol\":6254:6259  false */\n      0x00\n        /* \"Tet.sol\":6235:6244  whitelist */\n      0x08\n        /* \"Tet.sol\":6235:6251  whitelist[_user] */\n      0x00\n        /* \"Tet.sol\":6245:6250  _user */\n      dup5\n        /* \"Tet.sol\":6235:6251  whitelist[_user] */\n      0xffffffffffffffffffffffffffffffffffffffff\n      and\n      0xffffffffffffffffffffffffffffffffffffffff\n      and\n      dup2\n      mstore\n      0x20\n      add\n      swap1\n      dup2\n      mstore\n      0x20\n      add\n      0x00\n      keccak256\n      0x00\n        /* \"Tet.sol\":6235:6259  whitelist[_user] = false */\n      0x0100\n      exp\n      dup2\n      sload\n      dup2\n      0xff\n      mul\n      not\n      and\n      swap1\n      dup4\n      iszero\n      iszero\n      mul\n      or\n      swap1\n      sstore\n      pop\n        /* \"Tet.sol\":6271:6291  whiteListedAddresses */\n      0x0a\n        /* \"Tet.sol\":6320:6321  1 */\n      0x01\n        /* \"Tet.sol\":6292:6312  whiteListedAddresses */\n      0x0a\n        /* \"Tet.sol\":6292:6319  whiteListedAddresses.length */\n      dup1\n      sload\n      swap1\n      pop\n        /* \"Tet.sol\":6292:6321  whiteListedAddresses.length-1 */\n      tag_363\n      swap2\n      swap1\n      tag_220\n      jump\t// in\n    tag_363:\n        /* \"Tet.sol\":6271:6322  whiteListedAddresses[whiteListedAddresses.length-1] */\n      dup2\n      sload\n      dup2\n      lt\n      tag_364\n      jumpi\n      tag_365\n      tag_366\n      jump\t// in\n    tag_365:\n    tag_364:\n      swap1\n      0x00\n      mstore\n      keccak256(0x00, 0x20)\n      add\n      0x00\n        /* \"Tet.sol\":6264:6322  delete whiteListedAddresses[whiteListedAddresses.length-1] */\n      0x0100\n      exp\n      dup2\n      sload\n      swap1\n      0xffffffffffffffffffffffffffffffffffffffff\n      mul\n      not\n      and\n      swap1\n      sstore\n        /* \"Tet.sol\":6373:6393  whiteListedAddresses */\n      0x0a\n        /* \"Tet.sol\":6366:6393  return whiteListedAddresses */\n      dup1\n      sload\n      dup1\n      0x20\n      mul\n      0x20\n      add\n      mload(0x40)\n      swap1\n      dup2\n      add\n      0x40\n      mstore\n      dup1\n      swap3\n      swap2\n      swap1\n      dup2\n      dup2\n      mstore\n      0x20\n      add\n      dup3\n      dup1\n      sload\n      dup1\n      iszero\n      tag_368\n      jumpi\n      0x20\n      mul\n      dup3\n      add\n      swap2\n      swap1\n      0x00\n      mstore\n      keccak256(0x00, 0x20)\n      swap1\n    tag_369:\n      dup2\n      0x00\n      swap1\n      sload\n      swap1\n      0x0100\n      exp\n      swap1\n      div\n      0xffffffffffffffffffffffffffffffffffffffff\n      and\n      0xffffffffffffffffffffffffffffffffffffffff\n      and\n      dup2\n      mstore\n      0x20\n      add\n      swap1\n      0x01\n      add\n      swap1\n      dup1\n      dup4\n      gt\n      tag_369\n      jumpi\n    tag_368:\n      pop\n      pop\n      pop\n      pop\n      pop\n      swap1\n      pop\n        /* \"Tet.sol\":6143:6396  function removeFromWhitelist(address _user) public onlyOwner returns(address[] memory) {... */\n      swap2\n      swap1\n      pop\n      jump\t// out\n        /* \"Tet.sol\":116:144  string public symbol = \"Tet\" */\n    tag_148:\n      0x01\n      dup1\n      sload\n      tag_370\n      swap1\n      tag_207\n      jump\t// in\n    tag_370:\n      dup1\n      0x1f\n      add\n      0x20\n      dup1\n      swap2\n      div\n      mul\n      0x20\n      add\n      mload(0x40)\n      swap1\n      dup2\n      add\n      0x40\n      mstore\n      dup1\n      swap3\n      swap2\n      swap1\n      dup2\n      dup2\n      mstore\n      0x20\n      add\n      dup3\n      dup1\n      sload\n      tag_371\n      swap1\n      tag_207\n      jump\t// in\n    tag_371:\n      dup1\n      iszero\n      tag_372\n      jumpi\n      dup1\n      0x1f\n      lt\n      tag_373\n      jumpi\n      0x0100\n      dup1\n      dup4\n      sload\n      div\n      mul\n      dup4\n      mstore\n      swap2\n      0x20\n      add\n      swap2\n      jump(tag_372)\n    tag_373:\n      dup3\n      add\n      swap2\n      swap1\n      0x00\n      mstore\n      keccak256(0x00, 0x20)\n      swap1\n    tag_374:\n      dup2\n      sload\n      dup2\n      mstore\n      swap1\n      0x01\n      add\n      swap1\n      0x20\n      add\n      dup1\n      dup4\n      gt\n      tag_374\n      jumpi\n      dup3\n      swap1\n      sub\n      0x1f\n      and\n      dup3\n      add\n      swap2\n    tag_372:\n      pop\n      pop\n      pop\n      pop\n      pop\n      dup2\n      jump\t// out\n        /* \"Tet.sol\":551:592  mapping(address => bool) public whitelist */\n    tag_152:\n      mstore(0x20, 0x08)\n      dup1\n      0x00\n      mstore\n      keccak256(0x00, 0x40)\n      0x00\n      swap2\n      pop\n      sload\n      swap1\n      0x0100\n      exp\n      swap1\n      div\n      0xff\n      and\n      dup2\n      jump\t// out\n        /* \"Tet.sol\":5014:5188  function addBlacklist(address _user) external  returns(address[] memory) {... */\n    tag_156:\n        /* \"Tet.sol\":5069:5085  address[] memory */\n      0x60\n        /* \"Tet.sol\":5111:5115  true */\n      0x01\n        /* \"Tet.sol\":5092:5101  blacklist */\n      0x07\n        /* \"Tet.sol\":5092:5108  blacklist[_user] */\n      0x00\n        /* \"Tet.sol\":5102:5107  _user */\n      dup5\n        /* \"Tet.sol\":5092:5108  blacklist[_user] */\n      0xffffffffffffffffffffffffffffffffffffffff\n      and\n      0xffffffffffffffffffffffffffffffffffffffff\n      and\n      dup2\n      mstore\n      0x20\n      add\n      swap1\n      dup2\n      mstore\n      0x20\n      add\n      0x00\n      keccak256\n      0x00\n        /* \"Tet.sol\":5092:5115  blacklist[_user] = true */\n      0x0100\n      exp\n      dup2\n      sload\n      dup2\n      0xff\n      mul\n      not\n      and\n      swap1\n      dup4\n      iszero\n      iszero\n      mul\n      or\n      swap1\n      sstore\n      pop\n        /* \"Tet.sol\":5120:5140  blackListedAddresses */\n      0x09\n        /* \"Tet.sol\":5146:5151  _user */\n      dup3\n        /* \"Tet.sol\":5120:5152  blackListedAddresses.push(_user) */\n      swap1\n      dup1\n      0x01\n      dup2\n      sload\n      add\n      dup1\n      dup3\n      sstore\n      dup1\n      swap2\n      pop\n      pop\n      0x01\n      swap1\n      sub\n      swap1\n      0x00\n      mstore\n      keccak256(0x00, 0x20)\n      add\n      0x00\n      swap1\n      swap2\n      swap1\n      swap2\n      swap1\n      swap2\n      0x0100\n      exp\n      dup2\n      sload\n      dup2\n      0xffffffffffffffffffffffffffffffffffffffff\n      mul\n      not\n      and\n      swap1\n      dup4\n      0xffffffffffffffffffffffffffffffffffffffff\n      and\n      mul\n      or\n      swap1\n      sstore\n      pop\n        /* \"Tet.sol\":5165:5185  blackListedAddresses */\n      0x09\n        /* \"Tet.sol\":5158:5185  return blackListedAddresses */\n      dup1\n      sload\n      dup1\n      0x20\n      mul\n      0x20\n      add\n      mload(0x40)\n      swap1\n      dup2\n      add\n      0x40\n      mstore\n      dup1\n      swap3\n      swap2\n      swap1\n      dup2\n      dup2\n      mstore\n      0x20\n      add\n      dup3\n      dup1\n      sload\n      dup1\n      iszero\n      tag_377\n      jumpi\n      0x20\n      mul\n      dup3\n      add\n      swap2\n      swap1\n      0x00\n      mstore\n      keccak256(0x00, 0x20)\n      swap1\n    tag_378:\n      dup2\n      0x00\n      swap1\n      sload\n      swap1\n      0x0100\n      exp\n      swap1\n      div\n      0xffffffffffffffffffffffffffffffffffffffff\n      and\n      0xffffffffffffffffffffffffffffffffffffffff\n      and\n      dup2\n      mstore\n      0x20\n      add\n      swap1\n      0x01\n      add\n      swap1\n      dup1\n      dup4\n      gt\n      tag_378\n      jumpi\n    tag_377:\n      pop\n      pop\n      pop\n      pop\n      pop\n      swap1\n      pop\n        /* \"Tet.sol\":5014:5188  function addBlacklist(address _user) external  returns(address[] memory) {... */\n      swap2\n      swap1\n      pop\n      jump\t// out\n        /* \"Tet.sol\":2665:2898  function allowance2(address _spender,uint256 value) external view  returns (uint256){... */\n    tag_160:\n        /* \"Tet.sol\":2741:2748  uint256 */\n      0x00\n        /* \"Tet.sol\":2806:2824  uint256 _allowance */\n      dup1\n        /* \"Tet.sol\":2827:2836  allowance */\n      0x05\n        /* \"Tet.sol\":2827:2848  allowance[msg.sender] */\n      0x00\n        /* \"Tet.sol\":2837:2847  msg.sender */\n      caller\n        /* \"Tet.sol\":2827:2848  allowance[msg.sender] */\n      0xffffffffffffffffffffffffffffffffffffffff\n      and\n      0xffffffffffffffffffffffffffffffffffffffff\n      and\n      dup2\n      mstore\n      0x20\n      add\n      swap1\n      dup2\n      mstore\n      0x20\n      add\n      0x00\n      keccak256\n        /* \"Tet.sol\":2827:2858  allowance[msg.sender][_spender] */\n      0x00\n        /* \"Tet.sol\":2849:2857  _spender */\n      dup6\n        /* \"Tet.sol\":2827:2858  allowance[msg.sender][_spender] */\n      0xffffffffffffffffffffffffffffffffffffffff\n      and\n      0xffffffffffffffffffffffffffffffffffffffff\n      and\n      dup2\n      mstore\n      0x20\n      add\n      swap1\n      dup2\n      mstore\n      0x20\n      add\n      0x00\n      keccak256\n      sload\n        /* \"Tet.sol\":2806:2858  uint256 _allowance = allowance[msg.sender][_spender] */\n      swap1\n      pop\n        /* \"Tet.sol\":2880:2890  _allowance */\n      dup1\n        /* \"Tet.sol\":2873:2890  return _allowance */\n      swap2\n      pop\n      pop\n        /* \"Tet.sol\":2665:2898  function allowance2(address _spender,uint256 value) external view  returns (uint256){... */\n      swap3\n      swap2\n      pop\n      pop\n      jump\t// out\n        /* \"Tet.sol\":1847:2312  function transfer(address to, uint value)  public returns (bool)  {... */\n    tag_164:\n        /* \"Tet.sol\":1906:1910  bool */\n      0x00\n        /* \"Tet.sol\":1955:1960  value */\n      dup2\n        /* \"Tet.sol\":1931:1940  balanceOf */\n      0x06\n        /* \"Tet.sol\":1931:1952  balanceOf[msg.sender] */\n      0x00\n        /* \"Tet.sol\":1941:1951  msg.sender */\n      caller\n        /* \"Tet.sol\":1931:1952  balanceOf[msg.sender] */\n      0xffffffffffffffffffffffffffffffffffffffff\n      and\n      0xffffffffffffffffffffffffffffffffffffffff\n      and\n      dup2\n      mstore\n      0x20\n      add\n      swap1\n      dup2\n      mstore\n      0x20\n      add\n      0x00\n      keccak256\n      sload\n        /* \"Tet.sol\":1931:1960  balanceOf[msg.sender] > value */\n      gt\n        /* \"Tet.sol\":1923:1971  require(balanceOf[msg.sender] > value,\"ow bnce\") */\n      tag_381\n      jumpi\n      mload(0x40)\n      0x08c379a000000000000000000000000000000000000000000000000000000000\n      dup2\n      mstore\n      0x04\n      add\n      tag_382\n      swap1\n      tag_226\n      jump\t// in\n    tag_382:\n      mload(0x40)\n      dup1\n      swap2\n      sub\n      swap1\n      revert\n    tag_381:\n        /* \"Tet.sol\":2006:2011  false */\n      0x00\n        /* \"Tet.sol\":1989:2011  blacklist[to] == false */\n      iszero\n      iszero\n        /* \"Tet.sol\":1989:1998  blacklist */\n      0x07\n        /* \"Tet.sol\":1989:2002  blacklist[to] */\n      0x00\n        /* \"Tet.sol\":1999:2001  to */\n      dup6\n        /* \"Tet.sol\":1989:2002  blacklist[to] */\n      0xffffffffffffffffffffffffffffffffffffffff\n      and\n      0xffffffffffffffffffffffffffffffffffffffff\n      and\n      dup2\n      mstore\n      0x20\n      add\n      swap1\n      dup2\n      mstore\n      0x20\n      add\n      0x00\n      keccak256\n      0x00\n      swap1\n      sload\n      swap1\n      0x0100\n      exp\n      swap1\n      div\n      0xff\n      and\n        /* \"Tet.sol\":1989:2011  blacklist[to] == false */\n      iszero\n      iszero\n      eq\n        /* \"Tet.sol\":1981:2034  require(blacklist[to] == false,\"no not on blacklist\") */\n      tag_383\n      jumpi\n      mload(0x40)\n      0x08c379a000000000000000000000000000000000000000000000000000000000\n      dup2\n      mstore\n      0x04\n      add\n      tag_384\n      swap1\n      tag_385\n      jump\t// in\n    tag_384:\n      mload(0x40)\n      dup1\n      swap2\n      sub\n      swap1\n      revert\n    tag_383:\n        /* \"Tet.sol\":2061:2066  false */\n      0x00\n        /* \"Tet.sol\":2052:2066  paused ==false */\n      iszero\n      iszero\n        /* \"Tet.sol\":2052:2058  paused */\n      0x04\n      0x14\n      swap1\n      sload\n      swap1\n      0x0100\n      exp\n      swap1\n      div\n      0xff\n      and\n        /* \"Tet.sol\":2052:2066  paused ==false */\n      iszero\n      iszero\n      eq\n        /* \"Tet.sol\":2044:2082  require(paused ==false,\"is not pused\") */\n      tag_386\n      jumpi\n      mload(0x40)\n      0x08c379a000000000000000000000000000000000000000000000000000000000\n      dup2\n      mstore\n      0x04\n      add\n      tag_387\n      swap1\n      tag_239\n      jump\t// in\n    tag_387:\n      mload(0x40)\n      dup1\n      swap2\n      sub\n      swap1\n      revert\n    tag_386:\n        /* \"Tet.sol\":2117:2121  true */\n      0x01\n        /* \"Tet.sol\":2100:2121  whitelist[to] == true */\n      iszero\n      iszero\n        /* \"Tet.sol\":2100:2109  whitelist */\n      0x08\n        /* \"Tet.sol\":2100:2113  whitelist[to] */\n      0x00\n        /* \"Tet.sol\":2110:2112  to */\n      dup6\n        /* \"Tet.sol\":2100:2113  whitelist[to] */\n      0xffffffffffffffffffffffffffffffffffffffff\n      and\n      0xffffffffffffffffffffffffffffffffffffffff\n      and\n      dup2\n      mstore\n      0x20\n      add\n      swap1\n      dup2\n      mstore\n      0x20\n      add\n      0x00\n      keccak256\n      0x00\n      swap1\n      sload\n      swap1\n      0x0100\n      exp\n      swap1\n      div\n      0xff\n      and\n        /* \"Tet.sol\":2100:2121  whitelist[to] == true */\n      iszero\n      iszero\n      eq\n        /* \"Tet.sol\":2092:2167  require(whitelist[to] == true,\"Not On The White List To Recieve The Token\") */\n      tag_388\n      jumpi\n      mload(0x40)\n      0x08c379a000000000000000000000000000000000000000000000000000000000\n      dup2\n      mstore\n      0x04\n      add\n      tag_389\n      swap1\n      tag_229\n      jump\t// in\n    tag_389:\n      mload(0x40)\n      dup1\n      swap2\n      sub\n      swap1\n      revert\n    tag_388:\n        /* \"Tet.sol\":2194:2199  value */\n      dup2\n        /* \"Tet.sol\":2177:2186  balanceOf */\n      0x06\n        /* \"Tet.sol\":2177:2190  balanceOf[to] */\n      0x00\n        /* \"Tet.sol\":2187:2189  to */\n      dup6\n        /* \"Tet.sol\":2177:2190  balanceOf[to] */\n      0xffffffffffffffffffffffffffffffffffffffff\n      and\n      0xffffffffffffffffffffffffffffffffffffffff\n      and\n      dup2\n      mstore\n      0x20\n      add\n      swap1\n      dup2\n      mstore\n      0x20\n      add\n      0x00\n      keccak256\n      0x00\n        /* \"Tet.sol\":2177:2199  balanceOf[to] += value */\n      dup3\n      dup3\n      sload\n      tag_390\n      swap2\n      swap1\n      tag_246\n      jump\t// in\n    tag_390:\n      swap3\n      pop\n      pop\n      dup2\n      swap1\n      sstore\n      pop\n        /* \"Tet.sol\":2234:2239  value */\n      dup2\n        /* \"Tet.sol\":2209:2218  balanceOf */\n      0x06\n        /* \"Tet.sol\":2209:2230  balanceOf[msg.sender] */\n      0x00\n        /* \"Tet.sol\":2219:2229  msg.sender */\n      caller\n        /* \"Tet.sol\":2209:2230  balanceOf[msg.sender] */\n      0xffffffffffffffffffffffffffffffffffffffff\n      and\n      0xffffffffffffffffffffffffffffffffffffffff\n      and\n      dup2\n      mstore\n      0x20\n      add\n      swap1\n      dup2\n      mstore\n      0x20\n      add\n      0x00\n      keccak256\n      0x00\n        /* \"Tet.sol\":2209:2239  balanceOf[msg.sender] -= value */\n      dup3\n      dup3\n      sload\n      tag_391\n      swap2\n      swap1\n      tag_220\n      jump\t// in\n    tag_391:\n      swap3\n      pop\n      pop\n      dup2\n      swap1\n      sstore\n      pop\n        /* \"Tet.sol\":2274:2276  to */\n      dup3\n        /* \"Tet.sol\":2254:2283  Transfer(msg.sender,to,value) */\n      0xffffffffffffffffffffffffffffffffffffffff\n      and\n        /* \"Tet.sol\":2263:2273  msg.sender */\n      caller\n        /* \"Tet.sol\":2254:2283  Transfer(msg.sender,to,value) */\n      0xffffffffffffffffffffffffffffffffffffffff\n      and\n      0xddf252ad1be2c89b69c2b068fc378daa952ba7f163c4a11628f55a4df523b3ef\n        /* \"Tet.sol\":2277:2282  value */\n      dup5\n        /* \"Tet.sol\":2254:2283  Transfer(msg.sender,to,value) */\n      mload(0x40)\n      tag_392\n      swap2\n      swap1\n      tag_64\n      jump\t// in\n    tag_392:\n      mload(0x40)\n      dup1\n      swap2\n      sub\n      swap1\n      log3\n        /* \"Tet.sol\":2300:2304  true */\n      0x01\n        /* \"Tet.sol\":2293:2304  return true */\n      swap1\n      pop\n        /* \"Tet.sol\":1847:2312  function transfer(address to, uint value)  public returns (bool)  {... */\n      swap3\n      swap2\n      pop\n      pop\n      jump\t// out\n        /* \"Tet.sol\":7931:7988  mapping(address => mapping(Role => bool)) public _hasRole */\n    tag_169:\n      mstore(0x20, 0x0d)\n      dup2\n      0x00\n      mstore\n      mstore(0x20, keccak256(0x00, 0x40))\n      dup1\n      0x00\n      mstore\n      keccak256(0x00, 0x40)\n      0x00\n      swap2\n      pop\n      swap2\n      pop\n      swap1\n      sload\n      swap1\n      0x0100\n      exp\n      swap1\n      div\n      0xff\n      and\n      dup2\n      jump\t// out\n        /* \"Tet.sol\":8089:8138  mapping(address => RoleData) public _userRoleData */\n    tag_173:\n      mstore(0x20, 0x10)\n      dup1\n      0x00\n      mstore\n      keccak256(0x00, 0x40)\n      0x00\n      swap2\n      pop\n      swap1\n      pop\n      dup1\n      0x00\n      add\n      0x00\n      swap1\n      sload\n      swap1\n      0x0100\n      exp\n      swap1\n      div\n      0xffffffffffffffffffffffffffffffffffffffff\n      and\n      swap1\n      dup1\n      0x00\n      add\n      0x14\n      swap1\n      sload\n      swap1\n      0x0100\n      exp\n      swap1\n      div\n      0xff\n      and\n      swap1\n      dup1\n      0x00\n      add\n      0x15\n      swap1\n      sload\n      swap1\n      0x0100\n      exp\n      swap1\n      div\n      0xff\n      and\n      swap1\n      dup1\n      0x00\n      add\n      0x16\n      swap1\n      sload\n      swap1\n      0x0100\n      exp\n      swap1\n      div\n      0xff\n      and\n      swap1\n      dup1\n      0x01\n      add\n      dup1\n      sload\n      tag_393\n      swap1\n      tag_207\n      jump\t// in\n    tag_393:\n      dup1\n      0x1f\n      add\n      0x20\n      dup1\n      swap2\n      div\n      mul\n      0x20\n      add\n      mload(0x40)\n      swap1\n      dup2\n      add\n      0x40\n      mstore\n      dup1\n      swap3\n      swap2\n      swap1\n      dup2\n      dup2\n      mstore\n      0x20\n      add\n      dup3\n      dup1\n      sload\n      tag_394\n      swap1\n      tag_207\n      jump\t// in\n    tag_394:\n      dup1\n      iszero\n      tag_395\n      jumpi\n      dup1\n      0x1f\n      lt\n      tag_396\n      jumpi\n      0x0100\n      dup1\n      dup4\n      sload\n      div\n      mul\n      dup4\n      mstore\n      swap2\n      0x20\n      add\n      swap2\n      jump(tag_395)\n    tag_396:\n      dup3\n      add\n      swap2\n      swap1\n      0x00\n      mstore\n      keccak256(0x00, 0x20)\n      swap1\n    tag_397:\n      dup2\n      sload\n      dup2\n      mstore\n      swap1\n      0x01\n      add\n      swap1\n      0x20\n      add\n      dup1\n      dup4\n      gt\n      tag_397\n      jumpi\n      dup3\n      swap1\n      sub\n      0x1f\n      and\n      dup3\n      add\n      swap2\n    tag_395:\n      pop\n      pop\n      pop\n      pop\n      pop\n      swap1\n      pop\n      dup6\n      jump\t// out\n        /* \"Tet.sol\":377:444  mapping (address => mapping (address => uint256 )) public allowance */\n    tag_178:\n      mstore(0x20, 0x05)\n      dup2\n      0x00\n      mstore\n      mstore(0x20, keccak256(0x00, 0x40))\n      dup1\n      0x00\n      mstore\n      keccak256(0x00, 0x40)\n      0x00\n      swap2\n      pop\n      swap2\n      pop\n      pop\n      sload\n      dup2\n      jump\t// out\n        /* \"Tet.sol\":8141:8167  address[] public userroles */\n    tag_182:\n      0x11\n      dup2\n      dup2\n      sload\n      dup2\n      lt\n      tag_398\n      jumpi\n      0x00\n      dup1\n      revert\n    tag_398:\n      swap1\n      0x00\n      mstore\n      keccak256(0x00, 0x20)\n      add\n      0x00\n      swap2\n      pop\n      sload\n      swap1\n      0x0100\n      exp\n      swap1\n      div\n      0xffffffffffffffffffffffffffffffffffffffff\n      and\n      dup2\n      jump\t// out\n        /* \"Tet.sol\":5958:6141  function addToWhitelist(address _user) public onlyOwner returns(address[] memory) {... */\n    tag_186:\n        /* \"Tet.sol\":6022:6038  address[] memory */\n      0x60\n        /* \"Tet.sol\":816:821  owner */\n      0x04\n      0x00\n      swap1\n      sload\n      swap1\n      0x0100\n      exp\n      swap1\n      div\n      0xffffffffffffffffffffffffffffffffffffffff\n      and\n        /* \"Tet.sol\":802:821  msg.sender == owner */\n      0xffffffffffffffffffffffffffffffffffffffff\n      and\n        /* \"Tet.sol\":802:812  msg.sender */\n      caller\n        /* \"Tet.sol\":802:821  msg.sender == owner */\n      0xffffffffffffffffffffffffffffffffffffffff\n      and\n      eq\n        /* \"Tet.sol\":794:858  require(msg.sender == owner,\"only owner can call This Function\") */\n      tag_401\n      jumpi\n      mload(0x40)\n      0x08c379a000000000000000000000000000000000000000000000000000000000\n      dup2\n      mstore\n      0x04\n      add\n      tag_402\n      swap1\n      tag_254\n      jump\t// in\n    tag_402:\n      mload(0x40)\n      dup1\n      swap2\n      sub\n      swap1\n      revert\n    tag_401:\n        /* \"Tet.sol\":6064:6068  true */\n      0x01\n        /* \"Tet.sol\":6045:6054  whitelist */\n      0x08\n        /* \"Tet.sol\":6045:6061  whitelist[_user] */\n      0x00\n        /* \"Tet.sol\":6055:6060  _user */\n      dup5\n        /* \"Tet.sol\":6045:6061  whitelist[_user] */\n      0xffffffffffffffffffffffffffffffffffffffff\n      and\n      0xffffffffffffffffffffffffffffffffffffffff\n      and\n      dup2\n      mstore\n      0x20\n      add\n      swap1\n      dup2\n      mstore\n      0x20\n      add\n      0x00\n      keccak256\n      0x00\n        /* \"Tet.sol\":6045:6068  whitelist[_user] = true */\n      0x0100\n      exp\n      dup2\n      sload\n      dup2\n      0xff\n      mul\n      not\n      and\n      swap1\n      dup4\n      iszero\n      iszero\n      mul\n      or\n      swap1\n      sstore\n      pop\n        /* \"Tet.sol\":6073:6093  whiteListedAddresses */\n      0x0a\n        /* \"Tet.sol\":6099:6104  _user */\n      dup3\n        /* \"Tet.sol\":6073:6105  whiteListedAddresses.push(_user) */\n      swap1\n      dup1\n      0x01\n      dup2\n      sload\n      add\n      dup1\n      dup3\n      sstore\n      dup1\n      swap2\n      pop\n      pop\n      0x01\n      swap1\n      sub\n      swap1\n      0x00\n      mstore\n      keccak256(0x00, 0x20)\n      add\n      0x00\n      swap1\n      swap2\n      swap1\n      swap2\n      swap1\n      swap2\n      0x0100\n      exp\n      dup2\n      sload\n      dup2\n      0xffffffffffffffffffffffffffffffffffffffff\n      mul\n      not\n      and\n      swap1\n      dup4\n      0xffffffffffffffffffffffffffffffffffffffff\n      and\n      mul\n      or\n      swap1\n      sstore\n      pop\n        /* \"Tet.sol\":6118:6138  whiteListedAddresses */\n      0x0a\n        /* \"Tet.sol\":6111:6138  return whiteListedAddresses */\n      dup1\n      sload\n      dup1\n      0x20\n      mul\n      0x20\n      add\n      mload(0x40)\n      swap1\n      dup2\n      add\n      0x40\n      mstore\n      dup1\n      swap3\n      swap2\n      swap1\n      dup2\n      dup2\n      mstore\n      0x20\n      add\n      dup3\n      dup1\n      sload\n      dup1\n      iszero\n      tag_405\n      jumpi\n      0x20\n      mul\n      dup3\n      add\n      swap2\n      swap1\n      0x00\n      mstore\n      keccak256(0x00, 0x20)\n      swap1\n    tag_406:\n      dup2\n      0x00\n      swap1\n      sload\n      swap1\n      0x0100\n      exp\n      swap1\n      div\n      0xffffffffffffffffffffffffffffffffffffffff\n      and\n      0xffffffffffffffffffffffffffffffffffffffff\n      and\n      dup2\n      mstore\n      0x20\n      add\n      swap1\n      0x01\n      add\n      swap1\n      dup1\n      dup4\n      gt\n      tag_406\n      jumpi\n    tag_405:\n      pop\n      pop\n      pop\n      pop\n      pop\n      swap1\n      pop\n        /* \"Tet.sol\":5958:6141  function addToWhitelist(address _user) public onlyOwner returns(address[] memory) {... */\n      swap2\n      swap1\n      pop\n      jump\t// out\n        /* \"Tet.sol\":5190:5429  function removeBlacklist(address _user) external returns(address[] memory) {... */\n    tag_190:\n        /* \"Tet.sol\":5247:5263  address[] memory */\n      0x60\n        /* \"Tet.sol\":5290:5295  false */\n      0x00\n        /* \"Tet.sol\":5271:5280  blacklist */\n      0x07\n        /* \"Tet.sol\":5271:5287  blacklist[_user] */\n      0x00\n        /* \"Tet.sol\":5281:5286  _user */\n      dup5\n        /* \"Tet.sol\":5271:5287  blacklist[_user] */\n      0xffffffffffffffffffffffffffffffffffffffff\n      and\n      0xffffffffffffffffffffffffffffffffffffffff\n      and\n      dup2\n      mstore\n      0x20\n      add\n      swap1\n      dup2\n      mstore\n      0x20\n      add\n      0x00\n      keccak256\n      0x00\n        /* \"Tet.sol\":5271:5295  blacklist[_user] = false */\n      0x0100\n      exp\n      dup2\n      sload\n      dup2\n      0xff\n      mul\n      not\n      and\n      swap1\n      dup4\n      iszero\n      iszero\n      mul\n      or\n      swap1\n      sstore\n      pop\n        /* \"Tet.sol\":5308:5328  blackListedAddresses */\n      0x09\n        /* \"Tet.sol\":5357:5358  1 */\n      0x01\n        /* \"Tet.sol\":5329:5349  blackListedAddresses */\n      0x09\n        /* \"Tet.sol\":5329:5356  blackListedAddresses.length */\n      dup1\n      sload\n      swap1\n      pop\n        /* \"Tet.sol\":5329:5358  blackListedAddresses.length-1 */\n      tag_408\n      swap2\n      swap1\n      tag_220\n      jump\t// in\n    tag_408:\n        /* \"Tet.sol\":5308:5359  blackListedAddresses[blackListedAddresses.length-1] */\n      dup2\n      sload\n      dup2\n      lt\n      tag_409\n      jumpi\n      tag_410\n      tag_366\n      jump\t// in\n    tag_410:\n    tag_409:\n      swap1\n      0x00\n      mstore\n      keccak256(0x00, 0x20)\n      add\n      0x00\n        /* \"Tet.sol\":5301:5359  delete blackListedAddresses[blackListedAddresses.length-1] */\n      0x0100\n      exp\n      dup2\n      sload\n      swap1\n      0xffffffffffffffffffffffffffffffffffffffff\n      mul\n      not\n      and\n      swap1\n      sstore\n        /* \"Tet.sol\":5406:5426  blackListedAddresses */\n      0x09\n        /* \"Tet.sol\":5399:5426  return blackListedAddresses */\n      dup1\n      sload\n      dup1\n      0x20\n      mul\n      0x20\n      add\n      mload(0x40)\n      swap1\n      dup2\n      add\n      0x40\n      mstore\n      dup1\n      swap3\n      swap2\n      swap1\n      dup2\n      dup2\n      mstore\n      0x20\n      add\n      dup3\n      dup1\n      sload\n      dup1\n      iszero\n      tag_412\n      jumpi\n      0x20\n      mul\n      dup3\n      add\n      swap2\n      swap1\n      0x00\n      mstore\n      keccak256(0x00, 0x20)\n      swap1\n    tag_413:\n      dup2\n      0x00\n      swap1\n      sload\n      swap1\n      0x0100\n      exp\n      swap1\n      div\n      0xffffffffffffffffffffffffffffffffffffffff\n      and\n      0xffffffffffffffffffffffffffffffffffffffff\n      and\n      dup2\n      mstore\n      0x20\n      add\n      swap1\n      0x01\n      add\n      swap1\n      dup1\n      dup4\n      gt\n      tag_413\n      jumpi\n    tag_412:\n      pop\n      pop\n      pop\n      pop\n      pop\n      swap1\n      pop\n        /* \"Tet.sol\":5190:5429  function removeBlacklist(address _user) external returns(address[] memory) {... */\n      swap2\n      swap1\n      pop\n      jump\t// out\n        /* \"Tet.sol\":1678:1758  function Owner1() public view returns (address) {... */\n    tag_193:\n        /* \"Tet.sol\":1717:1724  address */\n      0x00\n        /* \"Tet.sol\":1741:1751  msg.sender */\n      caller\n        /* \"Tet.sol\":1734:1751  return msg.sender */\n      swap1\n      pop\n        /* \"Tet.sol\":1678:1758  function Owner1() public view returns (address) {... */\n      swap1\n      jump\t// out\n        /* \"Tet.sol\":503:544  mapping(address => bool) public blacklist */\n    tag_197:\n      mstore(0x20, 0x07)\n      dup1\n      0x00\n      mstore\n      keccak256(0x00, 0x40)\n      0x00\n      swap2\n      pop\n      sload\n      swap1\n      0x0100\n      exp\n      swap1\n      div\n      0xff\n      and\n      dup2\n      jump\t// out\n        /* \"Tet.sol\":1465:1566  function balanceOfOwner1() public view returns (uint256) {... */\n    tag_200:\n        /* \"Tet.sol\":1513:1520  uint256 */\n      0x00\n        /* \"Tet.sol\":1537:1546  balanceOf */\n      0x06\n        /* \"Tet.sol\":1537:1558  balanceOf[msg.sender] */\n      0x00\n        /* \"Tet.sol\":1547:1557  msg.sender */\n      caller\n        /* \"Tet.sol\":1537:1558  balanceOf[msg.sender] */\n      0xffffffffffffffffffffffffffffffffffffffff\n      and\n      0xffffffffffffffffffffffffffffffffffffffff\n      and\n      dup2\n      mstore\n      0x20\n      add\n      swap1\n      dup2\n      mstore\n      0x20\n      add\n      0x00\n      keccak256\n      sload\n        /* \"Tet.sol\":1530:1558  return balanceOf[msg.sender] */\n      swap1\n      pop\n        /* \"Tet.sol\":1465:1566  function balanceOfOwner1() public view returns (uint256) {... */\n      swap1\n      jump\t// out\n        /* \"Tet.sol\":5431:5527  function isBlacklisted(address _user) external view returns(bool) {... */\n    tag_204:\n        /* \"Tet.sol\":5491:5495  bool */\n      0x00\n        /* \"Tet.sol\":5508:5517  blacklist */\n      0x07\n        /* \"Tet.sol\":5508:5524  blacklist[_user] */\n      0x00\n        /* \"Tet.sol\":5518:5523  _user */\n      dup4\n        /* \"Tet.sol\":5508:5524  blacklist[_user] */\n      0xffffffffffffffffffffffffffffffffffffffff\n      and\n      0xffffffffffffffffffffffffffffffffffffffff\n      and\n      dup2\n      mstore\n      0x20\n      add\n      swap1\n      dup2\n      mstore\n      0x20\n      add\n      0x00\n      keccak256\n      0x00\n      swap1\n      sload\n      swap1\n      0x0100\n      exp\n      swap1\n      div\n      0xff\n      and\n        /* \"Tet.sol\":5501:5524  return blacklist[_user] */\n      swap1\n      pop\n        /* \"Tet.sol\":5431:5527  function isBlacklisted(address _user) external view returns(bool) {... */\n      swap2\n      swap1\n      pop\n      jump\t// out\n        /* \"#utility.yul\":7:106   */\n    tag_417:\n        /* \"#utility.yul\":59:65   */\n      0x00\n        /* \"#utility.yul\":93:98   */\n      dup2\n        /* \"#utility.yul\":87:99   */\n      mload\n        /* \"#utility.yul\":77:99   */\n      swap1\n      pop\n        /* \"#utility.yul\":7:106   */\n      swap2\n      swap1\n      pop\n      jump\t// out\n        /* \"#utility.yul\":112:281   */\n    tag_418:\n        /* \"#utility.yul\":196:207   */\n      0x00\n        /* \"#utility.yul\":230:236   */\n      dup3\n        /* \"#utility.yul\":225:228   */\n      dup3\n        /* \"#utility.yul\":218:237   */\n      mstore\n        /* \"#utility.yul\":270:274   */\n      0x20\n        /* \"#utility.yul\":265:268   */\n      dup3\n        /* \"#utility.yul\":261:275   */\n      add\n        /* \"#utility.yul\":246:275   */\n      swap1\n      pop\n        /* \"#utility.yul\":112:281   */\n      swap3\n      swap2\n      pop\n      pop\n      jump\t// out\n        /* \"#utility.yul\":287:533   */\n    tag_419:\n        /* \"#utility.yul\":368:369   */\n      0x00\n        /* \"#utility.yul\":378:491   */\n    tag_508:\n        /* \"#utility.yul\":392:398   */\n      dup4\n        /* \"#utility.yul\":389:390   */\n      dup2\n        /* \"#utility.yul\":386:399   */\n      lt\n        /* \"#utility.yul\":378:491   */\n      iszero\n      tag_510\n      jumpi\n        /* \"#utility.yul\":477:478   */\n      dup1\n        /* \"#utility.yul\":472:475   */\n      dup3\n        /* \"#utility.yul\":468:479   */\n      add\n        /* \"#utility.yul\":462:480   */\n      mload\n        /* \"#utility.yul\":458:459   */\n      dup2\n        /* \"#utility.yul\":453:456   */\n      dup5\n        /* \"#utility.yul\":449:460   */\n      add\n        /* \"#utility.yul\":442:481   */\n      mstore\n        /* \"#utility.yul\":414:416   */\n      0x20\n        /* \"#utility.yul\":411:412   */\n      dup2\n        /* \"#utility.yul\":407:417   */\n      add\n        /* \"#utility.yul\":402:417   */\n      swap1\n      pop\n        /* \"#utility.yul\":378:491   */\n      jump(tag_508)\n    tag_510:\n        /* \"#utility.yul\":525:526   */\n      0x00\n        /* \"#utility.yul\":516:522   */\n      dup5\n        /* \"#utility.yul\":511:514   */\n      dup5\n        /* \"#utility.yul\":507:523   */\n      add\n        /* \"#utility.yul\":500:527   */\n      mstore\n        /* \"#utility.yul\":349:533   */\n      pop\n        /* \"#utility.yul\":287:533   */\n      pop\n      pop\n      pop\n      jump\t// out\n        /* \"#utility.yul\":539:641   */\n    tag_420:\n        /* \"#utility.yul\":580:586   */\n      0x00\n        /* \"#utility.yul\":631:633   */\n      0x1f\n        /* \"#utility.yul\":627:634   */\n      not\n        /* \"#utility.yul\":622:624   */\n      0x1f\n        /* \"#utility.yul\":615:620   */\n      dup4\n        /* \"#utility.yul\":611:625   */\n      add\n        /* \"#utility.yul\":607:635   */\n      and\n        /* \"#utility.yul\":597:635   */\n      swap1\n      pop\n        /* \"#utility.yul\":539:641   */\n      swap2\n      swap1\n      pop\n      jump\t// out\n        /* \"#utility.yul\":647:1024   */\n    tag_421:\n        /* \"#utility.yul\":735:738   */\n      0x00\n        /* \"#utility.yul\":763:802   */\n      tag_513\n        /* \"#utility.yul\":796:801   */\n      dup3\n        /* \"#utility.yul\":763:802   */\n      tag_417\n      jump\t// in\n    tag_513:\n        /* \"#utility.yul\":818:889   */\n      tag_514\n        /* \"#utility.yul\":882:888   */\n      dup2\n        /* \"#utility.yul\":877:880   */\n      dup6\n        /* \"#utility.yul\":818:889   */\n      tag_418\n      jump\t// in\n    tag_514:\n        /* \"#utility.yul\":811:889   */\n      swap4\n      pop\n        /* \"#utility.yul\":898:963   */\n      tag_515\n        /* \"#utility.yul\":956:962   */\n      dup2\n        /* \"#utility.yul\":951:954   */\n      dup6\n        /* \"#utility.yul\":944:948   */\n      0x20\n        /* \"#utility.yul\":937:942   */\n      dup7\n        /* \"#utility.yul\":933:949   */\n      add\n        /* \"#utility.yul\":898:963   */\n      tag_419\n      jump\t// in\n    tag_515:\n        /* \"#utility.yul\":988:1017   */\n      tag_516\n        /* \"#utility.yul\":1010:1016   */\n      dup2\n        /* \"#utility.yul\":988:1017   */\n      tag_420\n      jump\t// in\n    tag_516:\n        /* \"#utility.yul\":983:986   */\n      dup5\n        /* \"#utility.yul\":979:1018   */\n      add\n        /* \"#utility.yul\":972:1018   */\n      swap2\n      pop\n        /* \"#utility.yul\":739:1024   */\n      pop\n        /* \"#utility.yul\":647:1024   */\n      swap3\n      swap2\n      pop\n      pop\n      jump\t// out\n        /* \"#utility.yul\":1030:1343   */\n    tag_52:\n        /* \"#utility.yul\":1143:1147   */\n      0x00\n        /* \"#utility.yul\":1181:1183   */\n      0x20\n        /* \"#utility.yul\":1170:1179   */\n      dup3\n        /* \"#utility.yul\":1166:1184   */\n      add\n        /* \"#utility.yul\":1158:1184   */\n      swap1\n      pop\n        /* \"#utility.yul\":1230:1239   */\n      dup2\n        /* \"#utility.yul\":1224:1228   */\n      dup2\n        /* \"#utility.yul\":1220:1240   */\n      sub\n        /* \"#utility.yul\":1216:1217   */\n      0x00\n        /* \"#utility.yul\":1205:1214   */\n      dup4\n        /* \"#utility.yul\":1201:1218   */\n      add\n        /* \"#utility.yul\":1194:1241   */\n      mstore\n        /* \"#utility.yul\":1258:1336   */\n      tag_518\n        /* \"#utility.yul\":1331:1335   */\n      dup2\n        /* \"#utility.yul\":1322:1328   */\n      dup5\n        /* \"#utility.yul\":1258:1336   */\n      tag_421\n      jump\t// in\n    tag_518:\n        /* \"#utility.yul\":1250:1336   */\n      swap1\n      pop\n        /* \"#utility.yul\":1030:1343   */\n      swap3\n      swap2\n      pop\n      pop\n      jump\t// out\n        /* \"#utility.yul\":1430:1547   */\n    tag_423:\n        /* \"#utility.yul\":1539:1540   */\n      0x00\n        /* \"#utility.yul\":1536:1537   */\n      dup1\n        /* \"#utility.yul\":1529:1541   */\n      revert\n        /* \"#utility.yul\":1676:1802   */\n    tag_425:\n        /* \"#utility.yul\":1713:1720   */\n      0x00\n        /* \"#utility.yul\":1753:1795   */\n      0xffffffffffffffffffffffffffffffffffffffff\n        /* \"#utility.yul\":1746:1751   */\n      dup3\n        /* \"#utility.yul\":1742:1796   */\n      and\n        /* \"#utility.yul\":1731:1796   */\n      swap1\n      pop\n        /* \"#utility.yul\":1676:1802   */\n      swap2\n      swap1\n      pop\n      jump\t// out\n        /* \"#utility.yul\":1808:1904   */\n    tag_426:\n        /* \"#utility.yul\":1845:1852   */\n      0x00\n        /* \"#utility.yul\":1874:1898   */\n      tag_524\n        /* \"#utility.yul\":1892:1897   */\n      dup3\n        /* \"#utility.yul\":1874:1898   */\n      tag_425\n      jump\t// in\n    tag_524:\n        /* \"#utility.yul\":1863:1898   */\n      swap1\n      pop\n        /* \"#utility.yul\":1808:1904   */\n      swap2\n      swap1\n      pop\n      jump\t// out\n        /* \"#utility.yul\":1910:2032   */\n    tag_427:\n        /* \"#utility.yul\":1983:2007   */\n      tag_526\n        /* \"#utility.yul\":2001:2006   */\n      dup2\n        /* \"#utility.yul\":1983:2007   */\n      tag_426\n      jump\t// in\n    tag_526:\n        /* \"#utility.yul\":1976:1981   */\n      dup2\n        /* \"#utility.yul\":1973:2008   */\n      eq\n        /* \"#utility.yul\":1963:2026   */\n      tag_527\n      jumpi\n        /* \"#utility.yul\":2022:2023   */\n      0x00\n        /* \"#utility.yul\":2019:2020   */\n      dup1\n        /* \"#utility.yul\":2012:2024   */\n      revert\n        /* \"#utility.yul\":1963:2026   */\n    tag_527:\n        /* \"#utility.yul\":1910:2032   */\n      pop\n      jump\t// out\n        /* \"#utility.yul\":2038:2177   */\n    tag_428:\n        /* \"#utility.yul\":2084:2089   */\n      0x00\n        /* \"#utility.yul\":2122:2128   */\n      dup2\n        /* \"#utility.yul\":2109:2129   */\n      calldataload\n        /* \"#utility.yul\":2100:2129   */\n      swap1\n      pop\n        /* \"#utility.yul\":2138:2171   */\n      tag_529\n        /* \"#utility.yul\":2165:2170   */\n      dup2\n        /* \"#utility.yul\":2138:2171   */\n      tag_427\n      jump\t// in\n    tag_529:\n        /* \"#utility.yul\":2038:2177   */\n      swap3\n      swap2\n      pop\n      pop\n      jump\t// out\n        /* \"#utility.yul\":2183:2260   */\n    tag_429:\n        /* \"#utility.yul\":2220:2227   */\n      0x00\n        /* \"#utility.yul\":2249:2254   */\n      dup2\n        /* \"#utility.yul\":2238:2254   */\n      swap1\n      pop\n        /* \"#utility.yul\":2183:2260   */\n      swap2\n      swap1\n      pop\n      jump\t// out\n        /* \"#utility.yul\":2266:2388   */\n    tag_430:\n        /* \"#utility.yul\":2339:2363   */\n      tag_532\n        /* \"#utility.yul\":2357:2362   */\n      dup2\n        /* \"#utility.yul\":2339:2363   */\n      tag_429\n      jump\t// in\n    tag_532:\n        /* \"#utility.yul\":2332:2337   */\n      dup2\n        /* \"#utility.yul\":2329:2364   */\n      eq\n        /* \"#utility.yul\":2319:2382   */\n      tag_533\n      jumpi\n        /* \"#utility.yul\":2378:2379   */\n      0x00\n        /* \"#utility.yul\":2375:2376   */\n      dup1\n        /* \"#utility.yul\":2368:2380   */\n      revert\n        /* \"#utility.yul\":2319:2382   */\n    tag_533:\n        /* \"#utility.yul\":2266:2388   */\n      pop\n      jump\t// out\n        /* \"#utility.yul\":2394:2533   */\n    tag_431:\n        /* \"#utility.yul\":2440:2445   */\n      0x00\n        /* \"#utility.yul\":2478:2484   */\n      dup2\n        /* \"#utility.yul\":2465:2485   */\n      calldataload\n        /* \"#utility.yul\":2456:2485   */\n      swap1\n      pop\n        /* \"#utility.yul\":2494:2527   */\n      tag_535\n        /* \"#utility.yul\":2521:2526   */\n      dup2\n        /* \"#utility.yul\":2494:2527   */\n      tag_430\n      jump\t// in\n    tag_535:\n        /* \"#utility.yul\":2394:2533   */\n      swap3\n      swap2\n      pop\n      pop\n      jump\t// out\n        /* \"#utility.yul\":2539:3013   */\n    tag_55:\n        /* \"#utility.yul\":2607:2613   */\n      0x00\n        /* \"#utility.yul\":2615:2621   */\n      dup1\n        /* \"#utility.yul\":2664:2666   */\n      0x40\n        /* \"#utility.yul\":2652:2661   */\n      dup4\n        /* \"#utility.yul\":2643:2650   */\n      dup6\n        /* \"#utility.yul\":2639:2662   */\n      sub\n        /* \"#utility.yul\":2635:2667   */\n      slt\n        /* \"#utility.yul\":2632:2751   */\n      iszero\n      tag_537\n      jumpi\n        /* \"#utility.yul\":2670:2749   */\n      tag_538\n      tag_423\n      jump\t// in\n    tag_538:\n        /* \"#utility.yul\":2632:2751   */\n    tag_537:\n        /* \"#utility.yul\":2790:2791   */\n      0x00\n        /* \"#utility.yul\":2815:2868   */\n      tag_539\n        /* \"#utility.yul\":2860:2867   */\n      dup6\n        /* \"#utility.yul\":2851:2857   */\n      dup3\n        /* \"#utility.yul\":2840:2849   */\n      dup7\n        /* \"#utility.yul\":2836:2858   */\n      add\n        /* \"#utility.yul\":2815:2868   */\n      tag_428\n      jump\t// in\n    tag_539:\n        /* \"#utility.yul\":2805:2868   */\n      swap3\n      pop\n        /* \"#utility.yul\":2761:2878   */\n      pop\n        /* \"#utility.yul\":2917:2919   */\n      0x20\n        /* \"#utility.yul\":2943:2996   */\n      tag_540\n        /* \"#utility.yul\":2988:2995   */\n      dup6\n        /* \"#utility.yul\":2979:2985   */\n      dup3\n        /* \"#utility.yul\":2968:2977   */\n      dup7\n        /* \"#utility.yul\":2964:2986   */\n      add\n        /* \"#utility.yul\":2943:2996   */\n      tag_431\n      jump\t// in\n    tag_540:\n        /* \"#utility.yul\":2933:2996   */\n      swap2\n      pop\n        /* \"#utility.yul\":2888:3006   */\n      pop\n        /* \"#utility.yul\":2539:3013   */\n      swap3\n      pop\n      swap3\n      swap1\n      pop\n      jump\t// out\n        /* \"#utility.yul\":3019:3109   */\n    tag_432:\n        /* \"#utility.yul\":3053:3060   */\n      0x00\n        /* \"#utility.yul\":3096:3101   */\n      dup2\n        /* \"#utility.yul\":3089:3102   */\n      iszero\n        /* \"#utility.yul\":3082:3103   */\n      iszero\n        /* \"#utility.yul\":3071:3103   */\n      swap1\n      pop\n        /* \"#utility.yul\":3019:3109   */\n      swap2\n      swap1\n      pop\n      jump\t// out\n        /* \"#utility.yul\":3115:3224   */\n    tag_433:\n        /* \"#utility.yul\":3196:3217   */\n      tag_543\n        /* \"#utility.yul\":3211:3216   */\n      dup2\n        /* \"#utility.yul\":3196:3217   */\n      tag_432\n      jump\t// in\n    tag_543:\n        /* \"#utility.yul\":3191:3194   */\n      dup3\n        /* \"#utility.yul\":3184:3218   */\n      mstore\n        /* \"#utility.yul\":3115:3224   */\n      pop\n      pop\n      jump\t// out\n        /* \"#utility.yul\":3230:3440   */\n    tag_58:\n        /* \"#utility.yul\":3317:3321   */\n      0x00\n        /* \"#utility.yul\":3355:3357   */\n      0x20\n        /* \"#utility.yul\":3344:3353   */\n      dup3\n        /* \"#utility.yul\":3340:3358   */\n      add\n        /* \"#utility.yul\":3332:3358   */\n      swap1\n      pop\n        /* \"#utility.yul\":3368:3433   */\n      tag_545\n        /* \"#utility.yul\":3430:3431   */\n      0x00\n        /* \"#utility.yul\":3419:3428   */\n      dup4\n        /* \"#utility.yul\":3415:3432   */\n      add\n        /* \"#utility.yul\":3406:3412   */\n      dup5\n        /* \"#utility.yul\":3368:3433   */\n      tag_433\n      jump\t// in\n    tag_545:\n        /* \"#utility.yul\":3230:3440   */\n      swap3\n      swap2\n      pop\n      pop\n      jump\t// out\n        /* \"#utility.yul\":3446:3775   */\n    tag_61:\n        /* \"#utility.yul\":3505:3511   */\n      0x00\n        /* \"#utility.yul\":3554:3556   */\n      0x20\n        /* \"#utility.yul\":3542:3551   */\n      dup3\n        /* \"#utility.yul\":3533:3540   */\n      dup5\n        /* \"#utility.yul\":3529:3552   */\n      sub\n        /* \"#utility.yul\":3525:3557   */\n      slt\n        /* \"#utility.yul\":3522:3641   */\n      iszero\n      tag_547\n      jumpi\n        /* \"#utility.yul\":3560:3639   */\n      tag_548\n      tag_423\n      jump\t// in\n    tag_548:\n        /* \"#utility.yul\":3522:3641   */\n    tag_547:\n        /* \"#utility.yul\":3680:3681   */\n      0x00\n        /* \"#utility.yul\":3705:3758   */\n      tag_549\n        /* \"#utility.yul\":3750:3757   */\n      dup5\n        /* \"#utility.yul\":3741:3747   */\n      dup3\n        /* \"#utility.yul\":3730:3739   */\n      dup6\n        /* \"#utility.yul\":3726:3748   */\n      add\n        /* \"#utility.yul\":3705:3758   */\n      tag_428\n      jump\t// in\n    tag_549:\n        /* \"#utility.yul\":3695:3758   */\n      swap2\n      pop\n        /* \"#utility.yul\":3651:3768   */\n      pop\n        /* \"#utility.yul\":3446:3775   */\n      swap3\n      swap2\n      pop\n      pop\n      jump\t// out\n        /* \"#utility.yul\":3781:3899   */\n    tag_434:\n        /* \"#utility.yul\":3868:3892   */\n      tag_551\n        /* \"#utility.yul\":3886:3891   */\n      dup2\n        /* \"#utility.yul\":3868:3892   */\n      tag_429\n      jump\t// in\n    tag_551:\n        /* \"#utility.yul\":3863:3866   */\n      dup3\n        /* \"#utility.yul\":3856:3893   */\n      mstore\n        /* \"#utility.yul\":3781:3899   */\n      pop\n      pop\n      jump\t// out\n        /* \"#utility.yul\":3905:4127   */\n    tag_64:\n        /* \"#utility.yul\":3998:4002   */\n      0x00\n        /* \"#utility.yul\":4036:4038   */\n      0x20\n        /* \"#utility.yul\":4025:4034   */\n      dup3\n        /* \"#utility.yul\":4021:4039   */\n      add\n        /* \"#utility.yul\":4013:4039   */\n      swap1\n      pop\n        /* \"#utility.yul\":4049:4120   */\n      tag_553\n        /* \"#utility.yul\":4117:4118   */\n      0x00\n        /* \"#utility.yul\":4106:4115   */\n      dup4\n        /* \"#utility.yul\":4102:4119   */\n      add\n        /* \"#utility.yul\":4093:4099   */\n      dup5\n        /* \"#utility.yul\":4049:4120   */\n      tag_434\n      jump\t// in\n    tag_553:\n        /* \"#utility.yul\":3905:4127   */\n      swap3\n      swap2\n      pop\n      pop\n      jump\t// out\n        /* \"#utility.yul\":4133:4313   */\n    tag_280:\n        /* \"#utility.yul\":4181:4258   */\n      0x4e487b7100000000000000000000000000000000000000000000000000000000\n        /* \"#utility.yul\":4178:4179   */\n      0x00\n        /* \"#utility.yul\":4171:4259   */\n      mstore\n        /* \"#utility.yul\":4278:4282   */\n      0x21\n        /* \"#utility.yul\":4275:4276   */\n      0x04\n        /* \"#utility.yul\":4268:4283   */\n      mstore\n        /* \"#utility.yul\":4302:4306   */\n      0x24\n        /* \"#utility.yul\":4299:4300   */\n      0x00\n        /* \"#utility.yul\":4292:4307   */\n      revert\n        /* \"#utility.yul\":4319:4432   */\n    tag_435:\n        /* \"#utility.yul\":4400:4401   */\n      0x03\n        /* \"#utility.yul\":4393:4398   */\n      dup2\n        /* \"#utility.yul\":4390:4402   */\n      lt\n        /* \"#utility.yul\":4380:4426   */\n      tag_556\n      jumpi\n        /* \"#utility.yul\":4406:4424   */\n      tag_557\n      tag_280\n      jump\t// in\n    tag_557:\n        /* \"#utility.yul\":4380:4426   */\n    tag_556:\n        /* \"#utility.yul\":4319:4432   */\n      pop\n      jump\t// out\n        /* \"#utility.yul\":4438:4565   */\n    tag_436:\n        /* \"#utility.yul\":4483:4490   */\n      0x00\n        /* \"#utility.yul\":4512:4517   */\n      dup2\n        /* \"#utility.yul\":4501:4517   */\n      swap1\n      pop\n        /* \"#utility.yul\":4518:4559   */\n      tag_559\n        /* \"#utility.yul\":4553:4558   */\n      dup3\n        /* \"#utility.yul\":4518:4559   */\n      tag_435\n      jump\t// in\n    tag_559:\n        /* \"#utility.yul\":4438:4565   */\n      swap2\n      swap1\n      pop\n      jump\t// out\n        /* \"#utility.yul\":4571:4698   */\n    tag_437:\n        /* \"#utility.yul\":4627:4636   */\n      0x00\n        /* \"#utility.yul\":4660:4692   */\n      tag_561\n        /* \"#utility.yul\":4686:4691   */\n      dup3\n        /* \"#utility.yul\":4660:4692   */\n      tag_436\n      jump\t// in\n    tag_561:\n        /* \"#utility.yul\":4647:4692   */\n      swap1\n      pop\n        /* \"#utility.yul\":4571:4698   */\n      swap2\n      swap1\n      pop\n      jump\t// out\n        /* \"#utility.yul\":4704:4847   */\n    tag_438:\n        /* \"#utility.yul\":4797:4840   */\n      tag_563\n        /* \"#utility.yul\":4834:4839   */\n      dup2\n        /* \"#utility.yul\":4797:4840   */\n      tag_437\n      jump\t// in\n    tag_563:\n        /* \"#utility.yul\":4792:4795   */\n      dup3\n        /* \"#utility.yul\":4785:4841   */\n      mstore\n        /* \"#utility.yul\":4704:4847   */\n      pop\n      pop\n      jump\t// out\n        /* \"#utility.yul\":4853:5087   */\n    tag_72:\n        /* \"#utility.yul\":4952:4956   */\n      0x00\n        /* \"#utility.yul\":4990:4992   */\n      0x20\n        /* \"#utility.yul\":4979:4988   */\n      dup3\n        /* \"#utility.yul\":4975:4993   */\n      add\n        /* \"#utility.yul\":4967:4993   */\n      swap1\n      pop\n        /* \"#utility.yul\":5003:5080   */\n      tag_565\n        /* \"#utility.yul\":5077:5078   */\n      0x00\n        /* \"#utility.yul\":5066:5075   */\n      dup4\n        /* \"#utility.yul\":5062:5079   */\n      add\n        /* \"#utility.yul\":5053:5059   */\n      dup5\n        /* \"#utility.yul\":5003:5080   */\n      tag_438\n      jump\t// in\n    tag_565:\n        /* \"#utility.yul\":4853:5087   */\n      swap3\n      swap2\n      pop\n      pop\n      jump\t// out\n        /* \"#utility.yul\":5093:5712   */\n    tag_75:\n        /* \"#utility.yul\":5170:5176   */\n      0x00\n        /* \"#utility.yul\":5178:5184   */\n      dup1\n        /* \"#utility.yul\":5186:5192   */\n      0x00\n        /* \"#utility.yul\":5235:5237   */\n      0x60\n        /* \"#utility.yul\":5223:5232   */\n      dup5\n        /* \"#utility.yul\":5214:5221   */\n      dup7\n        /* \"#utility.yul\":5210:5233   */\n      sub\n        /* \"#utility.yul\":5206:5238   */\n      slt\n        /* \"#utility.yul\":5203:5322   */\n      iszero\n      tag_567\n      jumpi\n        /* \"#utility.yul\":5241:5320   */\n      tag_568\n      tag_423\n      jump\t// in\n    tag_568:\n        /* \"#utility.yul\":5203:5322   */\n    tag_567:\n        /* \"#utility.yul\":5361:5362   */\n      0x00\n        /* \"#utility.yul\":5386:5439   */\n      tag_569\n        /* \"#utility.yul\":5431:5438   */\n      dup7\n        /* \"#utility.yul\":5422:5428   */\n      dup3\n        /* \"#utility.yul\":5411:5420   */\n      dup8\n        /* \"#utility.yul\":5407:5429   */\n      add\n        /* \"#utility.yul\":5386:5439   */\n      tag_428\n      jump\t// in\n    tag_569:\n        /* \"#utility.yul\":5376:5439   */\n      swap4\n      pop\n        /* \"#utility.yul\":5332:5449   */\n      pop\n        /* \"#utility.yul\":5488:5490   */\n      0x20\n        /* \"#utility.yul\":5514:5567   */\n      tag_570\n        /* \"#utility.yul\":5559:5566   */\n      dup7\n        /* \"#utility.yul\":5550:5556   */\n      dup3\n        /* \"#utility.yul\":5539:5548   */\n      dup8\n        /* \"#utility.yul\":5535:5557   */\n      add\n        /* \"#utility.yul\":5514:5567   */\n      tag_428\n      jump\t// in\n    tag_570:\n        /* \"#utility.yul\":5504:5567   */\n      swap3\n      pop\n        /* \"#utility.yul\":5459:5577   */\n      pop\n        /* \"#utility.yul\":5616:5618   */\n      0x40\n        /* \"#utility.yul\":5642:5695   */\n      tag_571\n        /* \"#utility.yul\":5687:5694   */\n      dup7\n        /* \"#utility.yul\":5678:5684   */\n      dup3\n        /* \"#utility.yul\":5667:5676   */\n      dup8\n        /* \"#utility.yul\":5663:5685   */\n      add\n        /* \"#utility.yul\":5642:5695   */\n      tag_431\n      jump\t// in\n    tag_571:\n        /* \"#utility.yul\":5632:5695   */\n      swap2\n      pop\n        /* \"#utility.yul\":5587:5705   */\n      pop\n        /* \"#utility.yul\":5093:5712   */\n      swap3\n      pop\n      swap3\n      pop\n      swap3\n      jump\t// out\n        /* \"#utility.yul\":5718:6047   */\n    tag_80:\n        /* \"#utility.yul\":5777:5783   */\n      0x00\n        /* \"#utility.yul\":5826:5828   */\n      0x20\n        /* \"#utility.yul\":5814:5823   */\n      dup3\n        /* \"#utility.yul\":5805:5812   */\n      dup5\n        /* \"#utility.yul\":5801:5824   */\n      sub\n        /* \"#utility.yul\":5797:5829   */\n      slt\n        /* \"#utility.yul\":5794:5913   */\n      iszero\n      tag_573\n      jumpi\n        /* \"#utility.yul\":5832:5911   */\n      tag_574\n      tag_423\n      jump\t// in\n    tag_574:\n        /* \"#utility.yul\":5794:5913   */\n    tag_573:\n        /* \"#utility.yul\":5952:5953   */\n      0x00\n        /* \"#utility.yul\":5977:6030   */\n      tag_575\n        /* \"#utility.yul\":6022:6029   */\n      dup5\n        /* \"#utility.yul\":6013:6019   */\n      dup3\n        /* \"#utility.yul\":6002:6011   */\n      dup6\n        /* \"#utility.yul\":5998:6020   */\n      add\n        /* \"#utility.yul\":5977:6030   */\n      tag_431\n      jump\t// in\n    tag_575:\n        /* \"#utility.yul\":5967:6030   */\n      swap2\n      pop\n        /* \"#utility.yul\":5923:6040   */\n      pop\n        /* \"#utility.yul\":5718:6047   */\n      swap3\n      swap2\n      pop\n      pop\n      jump\t// out\n        /* \"#utility.yul\":6053:6171   */\n    tag_439:\n        /* \"#utility.yul\":6140:6164   */\n      tag_577\n        /* \"#utility.yul\":6158:6163   */\n      dup2\n        /* \"#utility.yul\":6140:6164   */\n      tag_426\n      jump\t// in\n    tag_577:\n        /* \"#utility.yul\":6135:6138   */\n      dup3\n        /* \"#utility.yul\":6128:6165   */\n      mstore\n        /* \"#utility.yul\":6053:6171   */\n      pop\n      pop\n      jump\t// out\n        /* \"#utility.yul\":6177:6399   */\n    tag_83:\n        /* \"#utility.yul\":6270:6274   */\n      0x00\n        /* \"#utility.yul\":6308:6310   */\n      0x20\n        /* \"#utility.yul\":6297:6306   */\n      dup3\n        /* \"#utility.yul\":6293:6311   */\n      add\n        /* \"#utility.yul\":6285:6311   */\n      swap1\n      pop\n        /* \"#utility.yul\":6321:6392   */\n      tag_579\n        /* \"#utility.yul\":6389:6390   */\n      0x00\n        /* \"#utility.yul\":6378:6387   */\n      dup4\n        /* \"#utility.yul\":6374:6391   */\n      add\n        /* \"#utility.yul\":6365:6371   */\n      dup5\n        /* \"#utility.yul\":6321:6392   */\n      tag_439\n      jump\t// in\n    tag_579:\n        /* \"#utility.yul\":6177:6399   */\n      swap3\n      swap2\n      pop\n      pop\n      jump\t// out\n        /* \"#utility.yul\":6405:7049   */\n    tag_107:\n        /* \"#utility.yul\":6602:6606   */\n      0x00\n        /* \"#utility.yul\":6640:6643   */\n      0x80\n        /* \"#utility.yul\":6629:6638   */\n      dup3\n        /* \"#utility.yul\":6625:6644   */\n      add\n        /* \"#utility.yul\":6617:6644   */\n      swap1\n      pop\n        /* \"#utility.yul\":6654:6731   */\n      tag_581\n        /* \"#utility.yul\":6728:6729   */\n      0x00\n        /* \"#utility.yul\":6717:6726   */\n      dup4\n        /* \"#utility.yul\":6713:6730   */\n      add\n        /* \"#utility.yul\":6704:6710   */\n      dup8\n        /* \"#utility.yul\":6654:6731   */\n      tag_438\n      jump\t// in\n    tag_581:\n        /* \"#utility.yul\":6741:6813   */\n      tag_582\n        /* \"#utility.yul\":6809:6811   */\n      0x20\n        /* \"#utility.yul\":6798:6807   */\n      dup4\n        /* \"#utility.yul\":6794:6812   */\n      add\n        /* \"#utility.yul\":6785:6791   */\n      dup7\n        /* \"#utility.yul\":6741:6813   */\n      tag_439\n      jump\t// in\n    tag_582:\n        /* \"#utility.yul\":6823:6889   */\n      tag_583\n        /* \"#utility.yul\":6885:6887   */\n      0x40\n        /* \"#utility.yul\":6874:6883   */\n      dup4\n        /* \"#utility.yul\":6870:6888   */\n      add\n        /* \"#utility.yul\":6861:6867   */\n      dup6\n        /* \"#utility.yul\":6823:6889   */\n      tag_433\n      jump\t// in\n    tag_583:\n        /* \"#utility.yul\":6936:6945   */\n      dup2\n        /* \"#utility.yul\":6930:6934   */\n      dup2\n        /* \"#utility.yul\":6926:6946   */\n      sub\n        /* \"#utility.yul\":6921:6923   */\n      0x60\n        /* \"#utility.yul\":6910:6919   */\n      dup4\n        /* \"#utility.yul\":6906:6924   */\n      add\n        /* \"#utility.yul\":6899:6947   */\n      mstore\n        /* \"#utility.yul\":6964:7042   */\n      tag_584\n        /* \"#utility.yul\":7037:7041   */\n      dup2\n        /* \"#utility.yul\":7028:7034   */\n      dup5\n        /* \"#utility.yul\":6964:7042   */\n      tag_421\n      jump\t// in\n    tag_584:\n        /* \"#utility.yul\":6956:7042   */\n      swap1\n      pop\n        /* \"#utility.yul\":6405:7049   */\n      swap6\n      swap5\n      pop\n      pop\n      pop\n      pop\n      pop\n      jump\t// out\n        /* \"#utility.yul\":7055:7169   */\n    tag_440:\n        /* \"#utility.yul\":7122:7128   */\n      0x00\n        /* \"#utility.yul\":7156:7161   */\n      dup2\n        /* \"#utility.yul\":7150:7162   */\n      mload\n        /* \"#utility.yul\":7140:7162   */\n      swap1\n      pop\n        /* \"#utility.yul\":7055:7169   */\n      swap2\n      swap1\n      pop\n      jump\t// out\n        /* \"#utility.yul\":7175:7359   */\n    tag_441:\n        /* \"#utility.yul\":7274:7285   */\n      0x00\n        /* \"#utility.yul\":7308:7314   */\n      dup3\n        /* \"#utility.yul\":7303:7306   */\n      dup3\n        /* \"#utility.yul\":7296:7315   */\n      mstore\n        /* \"#utility.yul\":7348:7352   */\n      0x20\n        /* \"#utility.yul\":7343:7346   */\n      dup3\n        /* \"#utility.yul\":7339:7353   */\n      add\n        /* \"#utility.yul\":7324:7353   */\n      swap1\n      pop\n        /* \"#utility.yul\":7175:7359   */\n      swap3\n      swap2\n      pop\n      pop\n      jump\t// out\n        /* \"#utility.yul\":7365:7497   */\n    tag_442:\n        /* \"#utility.yul\":7432:7436   */\n      0x00\n        /* \"#utility.yul\":7455:7458   */\n      dup2\n        /* \"#utility.yul\":7447:7458   */\n      swap1\n      pop\n        /* \"#utility.yul\":7485:7489   */\n      0x20\n        /* \"#utility.yul\":7480:7483   */\n      dup3\n        /* \"#utility.yul\":7476:7490   */\n      add\n        /* \"#utility.yul\":7468:7490   */\n      swap1\n      pop\n        /* \"#utility.yul\":7365:7497   */\n      swap2\n      swap1\n      pop\n      jump\t// out\n        /* \"#utility.yul\":7503:7611   */\n    tag_443:\n        /* \"#utility.yul\":7580:7604   */\n      tag_589\n        /* \"#utility.yul\":7598:7603   */\n      dup2\n        /* \"#utility.yul\":7580:7604   */\n      tag_426\n      jump\t// in\n    tag_589:\n        /* \"#utility.yul\":7575:7578   */\n      dup3\n        /* \"#utility.yul\":7568:7605   */\n      mstore\n        /* \"#utility.yul\":7503:7611   */\n      pop\n      pop\n      jump\t// out\n        /* \"#utility.yul\":7617:7796   */\n    tag_444:\n        /* \"#utility.yul\":7686:7696   */\n      0x00\n        /* \"#utility.yul\":7707:7753   */\n      tag_591\n        /* \"#utility.yul\":7749:7752   */\n      dup4\n        /* \"#utility.yul\":7741:7747   */\n      dup4\n        /* \"#utility.yul\":7707:7753   */\n      tag_443\n      jump\t// in\n    tag_591:\n        /* \"#utility.yul\":7785:7789   */\n      0x20\n        /* \"#utility.yul\":7780:7783   */\n      dup4\n        /* \"#utility.yul\":7776:7790   */\n      add\n        /* \"#utility.yul\":7762:7790   */\n      swap1\n      pop\n        /* \"#utility.yul\":7617:7796   */\n      swap3\n      swap2\n      pop\n      pop\n      jump\t// out\n        /* \"#utility.yul\":7802:7915   */\n    tag_445:\n        /* \"#utility.yul\":7872:7876   */\n      0x00\n        /* \"#utility.yul\":7904:7908   */\n      0x20\n        /* \"#utility.yul\":7899:7902   */\n      dup3\n        /* \"#utility.yul\":7895:7909   */\n      add\n        /* \"#utility.yul\":7887:7909   */\n      swap1\n      pop\n        /* \"#utility.yul\":7802:7915   */\n      swap2\n      swap1\n      pop\n      jump\t// out\n        /* \"#utility.yul\":7951:8683   */\n    tag_446:\n        /* \"#utility.yul\":8070:8073   */\n      0x00\n        /* \"#utility.yul\":8099:8153   */\n      tag_594\n        /* \"#utility.yul\":8147:8152   */\n      dup3\n        /* \"#utility.yul\":8099:8153   */\n      tag_440\n      jump\t// in\n    tag_594:\n        /* \"#utility.yul\":8169:8255   */\n      tag_595\n        /* \"#utility.yul\":8248:8254   */\n      dup2\n        /* \"#utility.yul\":8243:8246   */\n      dup6\n        /* \"#utility.yul\":8169:8255   */\n      tag_441\n      jump\t// in\n    tag_595:\n        /* \"#utility.yul\":8162:8255   */\n      swap4\n      pop\n        /* \"#utility.yul\":8279:8335   */\n      tag_596\n        /* \"#utility.yul\":8329:8334   */\n      dup4\n        /* \"#utility.yul\":8279:8335   */\n      tag_442\n      jump\t// in\n    tag_596:\n        /* \"#utility.yul\":8358:8365   */\n      dup1\n        /* \"#utility.yul\":8389:8390   */\n      0x00\n        /* \"#utility.yul\":8374:8658   */\n    tag_597:\n        /* \"#utility.yul\":8399:8405   */\n      dup4\n        /* \"#utility.yul\":8396:8397   */\n      dup2\n        /* \"#utility.yul\":8393:8406   */\n      lt\n        /* \"#utility.yul\":8374:8658   */\n      iszero\n      tag_599\n      jumpi\n        /* \"#utility.yul\":8475:8481   */\n      dup2\n        /* \"#utility.yul\":8469:8482   */\n      mload\n        /* \"#utility.yul\":8502:8565   */\n      tag_600\n        /* \"#utility.yul\":8561:8564   */\n      dup9\n        /* \"#utility.yul\":8546:8559   */\n      dup3\n        /* \"#utility.yul\":8502:8565   */\n      tag_444\n      jump\t// in\n    tag_600:\n        /* \"#utility.yul\":8495:8565   */\n      swap8\n      pop\n        /* \"#utility.yul\":8588:8648   */\n      tag_601\n        /* \"#utility.yul\":8641:8647   */\n      dup4\n        /* \"#utility.yul\":8588:8648   */\n      tag_445\n      jump\t// in\n    tag_601:\n        /* \"#utility.yul\":8578:8648   */\n      swap3\n      pop\n        /* \"#utility.yul\":8434:8658   */\n      pop\n        /* \"#utility.yul\":8421:8422   */\n      0x01\n        /* \"#utility.yul\":8418:8419   */\n      dup2\n        /* \"#utility.yul\":8414:8423   */\n      add\n        /* \"#utility.yul\":8409:8423   */\n      swap1\n      pop\n        /* \"#utility.yul\":8374:8658   */\n      jump(tag_597)\n    tag_599:\n        /* \"#utility.yul\":8378:8392   */\n      pop\n        /* \"#utility.yul\":8674:8677   */\n      dup6\n        /* \"#utility.yul\":8667:8677   */\n      swap4\n      pop\n        /* \"#utility.yul\":8075:8683   */\n      pop\n      pop\n      pop\n        /* \"#utility.yul\":7951:8683   */\n      swap3\n      swap2\n      pop\n      pop\n      jump\t// out\n        /* \"#utility.yul\":8689:9062   */\n    tag_114:\n        /* \"#utility.yul\":8832:8836   */\n      0x00\n        /* \"#utility.yul\":8870:8872   */\n      0x20\n        /* \"#utility.yul\":8859:8868   */\n      dup3\n        /* \"#utility.yul\":8855:8873   */\n      add\n        /* \"#utility.yul\":8847:8873   */\n      swap1\n      pop\n        /* \"#utility.yul\":8919:8928   */\n      dup2\n        /* \"#utility.yul\":8913:8917   */\n      dup2\n        /* \"#utility.yul\":8909:8929   */\n      sub\n        /* \"#utility.yul\":8905:8906   */\n      0x00\n        /* \"#utility.yul\":8894:8903   */\n      dup4\n        /* \"#utility.yul\":8890:8907   */\n      add\n        /* \"#utility.yul\":8883:8930   */\n      mstore\n        /* \"#utility.yul\":8947:9055   */\n      tag_603\n        /* \"#utility.yul\":9050:9054   */\n      dup2\n        /* \"#utility.yul\":9041:9047   */\n      dup5\n        /* \"#utility.yul\":8947:9055   */\n      tag_446\n      jump\t// in\n    tag_603:\n        /* \"#utility.yul\":8939:9055   */\n      swap1\n      pop\n        /* \"#utility.yul\":8689:9062   */\n      swap3\n      swap2\n      pop\n      pop\n      jump\t// out\n        /* \"#utility.yul\":9068:9175   */\n    tag_447:\n        /* \"#utility.yul\":9149:9150   */\n      0x03\n        /* \"#utility.yul\":9142:9147   */\n      dup2\n        /* \"#utility.yul\":9139:9151   */\n      lt\n        /* \"#utility.yul\":9129:9169   */\n      tag_605\n      jumpi\n        /* \"#utility.yul\":9165:9166   */\n      0x00\n        /* \"#utility.yul\":9162:9163   */\n      dup1\n        /* \"#utility.yul\":9155:9167   */\n      revert\n        /* \"#utility.yul\":9129:9169   */\n    tag_605:\n        /* \"#utility.yul\":9068:9175   */\n      pop\n      jump\t// out\n        /* \"#utility.yul\":9181:9336   */\n    tag_448:\n        /* \"#utility.yul\":9235:9240   */\n      0x00\n        /* \"#utility.yul\":9273:9279   */\n      dup2\n        /* \"#utility.yul\":9260:9280   */\n      calldataload\n        /* \"#utility.yul\":9251:9280   */\n      swap1\n      pop\n        /* \"#utility.yul\":9289:9330   */\n      tag_607\n        /* \"#utility.yul\":9324:9329   */\n      dup2\n        /* \"#utility.yul\":9289:9330   */\n      tag_447\n      jump\t// in\n    tag_607:\n        /* \"#utility.yul\":9181:9336   */\n      swap3\n      swap2\n      pop\n      pop\n      jump\t// out\n        /* \"#utility.yul\":9342:10285   */\n    tag_124:\n        /* \"#utility.yul\":9453:9459   */\n      0x00\n        /* \"#utility.yul\":9461:9467   */\n      dup1\n        /* \"#utility.yul\":9469:9475   */\n      0x00\n        /* \"#utility.yul\":9477:9483   */\n      dup1\n        /* \"#utility.yul\":9485:9491   */\n      0x00\n        /* \"#utility.yul\":9534:9537   */\n      0xa0\n        /* \"#utility.yul\":9522:9531   */\n      dup7\n        /* \"#utility.yul\":9513:9520   */\n      dup9\n        /* \"#utility.yul\":9509:9532   */\n      sub\n        /* \"#utility.yul\":9505:9538   */\n      slt\n        /* \"#utility.yul\":9502:9622   */\n      iszero\n      tag_609\n      jumpi\n        /* \"#utility.yul\":9541:9620   */\n      tag_610\n      tag_423\n      jump\t// in\n    tag_610:\n        /* \"#utility.yul\":9502:9622   */\n    tag_609:\n        /* \"#utility.yul\":9661:9662   */\n      0x00\n        /* \"#utility.yul\":9686:9739   */\n      tag_611\n        /* \"#utility.yul\":9731:9738   */\n      dup9\n        /* \"#utility.yul\":9722:9728   */\n      dup3\n        /* \"#utility.yul\":9711:9720   */\n      dup10\n        /* \"#utility.yul\":9707:9729   */\n      add\n        /* \"#utility.yul\":9686:9739   */\n      tag_428\n      jump\t// in\n    tag_611:\n        /* \"#utility.yul\":9676:9739   */\n      swap6\n      pop\n        /* \"#utility.yul\":9632:9749   */\n      pop\n        /* \"#utility.yul\":9788:9790   */\n      0x20\n        /* \"#utility.yul\":9814:9867   */\n      tag_612\n        /* \"#utility.yul\":9859:9866   */\n      dup9\n        /* \"#utility.yul\":9850:9856   */\n      dup3\n        /* \"#utility.yul\":9839:9848   */\n      dup10\n        /* \"#utility.yul\":9835:9857   */\n      add\n        /* \"#utility.yul\":9814:9867   */\n      tag_428\n      jump\t// in\n    tag_612:\n        /* \"#utility.yul\":9804:9867   */\n      swap5\n      pop\n        /* \"#utility.yul\":9759:9877   */\n      pop\n        /* \"#utility.yul\":9916:9918   */\n      0x40\n        /* \"#utility.yul\":9942:9995   */\n      tag_613\n        /* \"#utility.yul\":9987:9994   */\n      dup9\n        /* \"#utility.yul\":9978:9984   */\n      dup3\n        /* \"#utility.yul\":9967:9976   */\n      dup10\n        /* \"#utility.yul\":9963:9985   */\n      add\n        /* \"#utility.yul\":9942:9995   */\n      tag_428\n      jump\t// in\n    tag_613:\n        /* \"#utility.yul\":9932:9995   */\n      swap4\n      pop\n        /* \"#utility.yul\":9887:10005   */\n      pop\n        /* \"#utility.yul\":10044:10046   */\n      0x60\n        /* \"#utility.yul\":10070:10131   */\n      tag_614\n        /* \"#utility.yul\":10123:10130   */\n      dup9\n        /* \"#utility.yul\":10114:10120   */\n      dup3\n        /* \"#utility.yul\":10103:10112   */\n      dup10\n        /* \"#utility.yul\":10099:10121   */\n      add\n        /* \"#utility.yul\":10070:10131   */\n      tag_448\n      jump\t// in\n    tag_614:\n        /* \"#utility.yul\":10060:10131   */\n      swap3\n      pop\n        /* \"#utility.yul\":10015:10141   */\n      pop\n        /* \"#utility.yul\":10180:10183   */\n      0x80\n        /* \"#utility.yul\":10207:10268   */\n      tag_615\n        /* \"#utility.yul\":10260:10267   */\n      dup9\n        /* \"#utility.yul\":10251:10257   */\n      dup3\n        /* \"#utility.yul\":10240:10249   */\n      dup10\n        /* \"#utility.yul\":10236:10258   */\n      add\n        /* \"#utility.yul\":10207:10268   */\n      tag_448\n      jump\t// in\n    tag_615:\n        /* \"#utility.yul\":10197:10268   */\n      swap2\n      pop\n        /* \"#utility.yul\":10151:10278   */\n      pop\n        /* \"#utility.yul\":9342:10285   */\n      swap3\n      swap6\n      pop\n      swap3\n      swap6\n      swap1\n      swap4\n      pop\n      jump\t// out\n        /* \"#utility.yul\":10291:10733   */\n    tag_127:\n        /* \"#utility.yul\":10440:10444   */\n      0x00\n        /* \"#utility.yul\":10478:10480   */\n      0x60\n        /* \"#utility.yul\":10467:10476   */\n      dup3\n        /* \"#utility.yul\":10463:10481   */\n      add\n        /* \"#utility.yul\":10455:10481   */\n      swap1\n      pop\n        /* \"#utility.yul\":10491:10562   */\n      tag_617\n        /* \"#utility.yul\":10559:10560   */\n      0x00\n        /* \"#utility.yul\":10548:10557   */\n      dup4\n        /* \"#utility.yul\":10544:10561   */\n      add\n        /* \"#utility.yul\":10535:10541   */\n      dup7\n        /* \"#utility.yul\":10491:10562   */\n      tag_439\n      jump\t// in\n    tag_617:\n        /* \"#utility.yul\":10572:10650   */\n      tag_618\n        /* \"#utility.yul\":10646:10648   */\n      0x20\n        /* \"#utility.yul\":10635:10644   */\n      dup4\n        /* \"#utility.yul\":10631:10649   */\n      add\n        /* \"#utility.yul\":10622:10628   */\n      dup6\n        /* \"#utility.yul\":10572:10650   */\n      tag_438\n      jump\t// in\n    tag_618:\n        /* \"#utility.yul\":10660:10726   */\n      tag_619\n        /* \"#utility.yul\":10722:10724   */\n      0x40\n        /* \"#utility.yul\":10711:10720   */\n      dup4\n        /* \"#utility.yul\":10707:10725   */\n      add\n        /* \"#utility.yul\":10698:10704   */\n      dup5\n        /* \"#utility.yul\":10660:10726   */\n      tag_433\n      jump\t// in\n    tag_619:\n        /* \"#utility.yul\":10291:10733   */\n      swap5\n      swap4\n      pop\n      pop\n      pop\n      pop\n      jump\t// out\n        /* \"#utility.yul\":10739:11213   */\n    tag_137:\n        /* \"#utility.yul\":10807:10813   */\n      0x00\n        /* \"#utility.yul\":10815:10821   */\n      dup1\n        /* \"#utility.yul\":10864:10866   */\n      0x40\n        /* \"#utility.yul\":10852:10861   */\n      dup4\n        /* \"#utility.yul\":10843:10850   */\n      dup6\n        /* \"#utility.yul\":10839:10862   */\n      sub\n        /* \"#utility.yul\":10835:10867   */\n      slt\n        /* \"#utility.yul\":10832:10951   */\n      iszero\n      tag_621\n      jumpi\n        /* \"#utility.yul\":10870:10949   */\n      tag_622\n      tag_423\n      jump\t// in\n    tag_622:\n        /* \"#utility.yul\":10832:10951   */\n    tag_621:\n        /* \"#utility.yul\":10990:10991   */\n      0x00\n        /* \"#utility.yul\":11015:11068   */\n      tag_623\n        /* \"#utility.yul\":11060:11067   */\n      dup6\n        /* \"#utility.yul\":11051:11057   */\n      dup3\n        /* \"#utility.yul\":11040:11049   */\n      dup7\n        /* \"#utility.yul\":11036:11058   */\n      add\n        /* \"#utility.yul\":11015:11068   */\n      tag_428\n      jump\t// in\n    tag_623:\n        /* \"#utility.yul\":11005:11068   */\n      swap3\n      pop\n        /* \"#utility.yul\":10961:11078   */\n      pop\n        /* \"#utility.yul\":11117:11119   */\n      0x20\n        /* \"#utility.yul\":11143:11196   */\n      tag_624\n        /* \"#utility.yul\":11188:11195   */\n      dup6\n        /* \"#utility.yul\":11179:11185   */\n      dup3\n        /* \"#utility.yul\":11168:11177   */\n      dup7\n        /* \"#utility.yul\":11164:11186   */\n      add\n        /* \"#utility.yul\":11143:11196   */\n      tag_428\n      jump\t// in\n    tag_624:\n        /* \"#utility.yul\":11133:11196   */\n      swap2\n      pop\n        /* \"#utility.yul\":11088:11206   */\n      pop\n        /* \"#utility.yul\":10739:11213   */\n      swap3\n      pop\n      swap3\n      swap1\n      pop\n      jump\t// out\n        /* \"#utility.yul\":11219:11709   */\n    tag_168:\n        /* \"#utility.yul\":11295:11301   */\n      0x00\n        /* \"#utility.yul\":11303:11309   */\n      dup1\n        /* \"#utility.yul\":11352:11354   */\n      0x40\n        /* \"#utility.yul\":11340:11349   */\n      dup4\n        /* \"#utility.yul\":11331:11338   */\n      dup6\n        /* \"#utility.yul\":11327:11350   */\n      sub\n        /* \"#utility.yul\":11323:11355   */\n      slt\n        /* \"#utility.yul\":11320:11439   */\n      iszero\n      tag_626\n      jumpi\n        /* \"#utility.yul\":11358:11437   */\n      tag_627\n      tag_423\n      jump\t// in\n    tag_627:\n        /* \"#utility.yul\":11320:11439   */\n    tag_626:\n        /* \"#utility.yul\":11478:11479   */\n      0x00\n        /* \"#utility.yul\":11503:11556   */\n      tag_628\n        /* \"#utility.yul\":11548:11555   */\n      dup6\n        /* \"#utility.yul\":11539:11545   */\n      dup3\n        /* \"#utility.yul\":11528:11537   */\n      dup7\n        /* \"#utility.yul\":11524:11546   */\n      add\n        /* \"#utility.yul\":11503:11556   */\n      tag_428\n      jump\t// in\n    tag_628:\n        /* \"#utility.yul\":11493:11556   */\n      swap3\n      pop\n        /* \"#utility.yul\":11449:11566   */\n      pop\n        /* \"#utility.yul\":11605:11607   */\n      0x20\n        /* \"#utility.yul\":11631:11692   */\n      tag_629\n        /* \"#utility.yul\":11684:11691   */\n      dup6\n        /* \"#utility.yul\":11675:11681   */\n      dup3\n        /* \"#utility.yul\":11664:11673   */\n      dup7\n        /* \"#utility.yul\":11660:11682   */\n      add\n        /* \"#utility.yul\":11631:11692   */\n      tag_448\n      jump\t// in\n    tag_629:\n        /* \"#utility.yul\":11621:11692   */\n      swap2\n      pop\n        /* \"#utility.yul\":11576:11702   */\n      pop\n        /* \"#utility.yul\":11219:11709   */\n      swap3\n      pop\n      swap3\n      swap1\n      pop\n      jump\t// out\n        /* \"#utility.yul\":11715:12458   */\n    tag_175:\n        /* \"#utility.yul\":11934:11938   */\n      0x00\n        /* \"#utility.yul\":11972:11975   */\n      0xa0\n        /* \"#utility.yul\":11961:11970   */\n      dup3\n        /* \"#utility.yul\":11957:11976   */\n      add\n        /* \"#utility.yul\":11949:11976   */\n      swap1\n      pop\n        /* \"#utility.yul\":11986:12057   */\n      tag_631\n        /* \"#utility.yul\":12054:12055   */\n      0x00\n        /* \"#utility.yul\":12043:12052   */\n      dup4\n        /* \"#utility.yul\":12039:12056   */\n      add\n        /* \"#utility.yul\":12030:12036   */\n      dup9\n        /* \"#utility.yul\":11986:12057   */\n      tag_439\n      jump\t// in\n    tag_631:\n        /* \"#utility.yul\":12067:12133   */\n      tag_632\n        /* \"#utility.yul\":12129:12131   */\n      0x20\n        /* \"#utility.yul\":12118:12127   */\n      dup4\n        /* \"#utility.yul\":12114:12132   */\n      add\n        /* \"#utility.yul\":12105:12111   */\n      dup8\n        /* \"#utility.yul\":12067:12133   */\n      tag_433\n      jump\t// in\n    tag_632:\n        /* \"#utility.yul\":12143:12209   */\n      tag_633\n        /* \"#utility.yul\":12205:12207   */\n      0x40\n        /* \"#utility.yul\":12194:12203   */\n      dup4\n        /* \"#utility.yul\":12190:12208   */\n      add\n        /* \"#utility.yul\":12181:12187   */\n      dup7\n        /* \"#utility.yul\":12143:12209   */\n      tag_433\n      jump\t// in\n    tag_633:\n        /* \"#utility.yul\":12219:12297   */\n      tag_634\n        /* \"#utility.yul\":12293:12295   */\n      0x60\n        /* \"#utility.yul\":12282:12291   */\n      dup4\n        /* \"#utility.yul\":12278:12296   */\n      add\n        /* \"#utility.yul\":12269:12275   */\n      dup6\n        /* \"#utility.yul\":12219:12297   */\n      tag_438\n      jump\t// in\n    tag_634:\n        /* \"#utility.yul\":12345:12354   */\n      dup2\n        /* \"#utility.yul\":12339:12343   */\n      dup2\n        /* \"#utility.yul\":12335:12355   */\n      sub\n        /* \"#utility.yul\":12329:12332   */\n      0x80\n        /* \"#utility.yul\":12318:12327   */\n      dup4\n        /* \"#utility.yul\":12314:12333   */\n      add\n        /* \"#utility.yul\":12307:12356   */\n      mstore\n        /* \"#utility.yul\":12373:12451   */\n      tag_635\n        /* \"#utility.yul\":12446:12450   */\n      dup2\n        /* \"#utility.yul\":12437:12443   */\n      dup5\n        /* \"#utility.yul\":12373:12451   */\n      tag_421\n      jump\t// in\n    tag_635:\n        /* \"#utility.yul\":12365:12451   */\n      swap1\n      pop\n        /* \"#utility.yul\":11715:12458   */\n      swap7\n      swap6\n      pop\n      pop\n      pop\n      pop\n      pop\n      pop\n      jump\t// out\n        /* \"#utility.yul\":12464:12644   */\n    tag_449:\n        /* \"#utility.yul\":12512:12589   */\n      0x4e487b7100000000000000000000000000000000000000000000000000000000\n        /* \"#utility.yul\":12509:12510   */\n      0x00\n        /* \"#utility.yul\":12502:12590   */\n      mstore\n        /* \"#utility.yul\":12609:12613   */\n      0x22\n        /* \"#utility.yul\":12606:12607   */\n      0x04\n        /* \"#utility.yul\":12599:12614   */\n      mstore\n        /* \"#utility.yul\":12633:12637   */\n      0x24\n        /* \"#utility.yul\":12630:12631   */\n      0x00\n        /* \"#utility.yul\":12623:12638   */\n      revert\n        /* \"#utility.yul\":12650:12970   */\n    tag_207:\n        /* \"#utility.yul\":12694:12700   */\n      0x00\n        /* \"#utility.yul\":12731:12732   */\n      0x02\n        /* \"#utility.yul\":12725:12729   */\n      dup3\n        /* \"#utility.yul\":12721:12733   */\n      div\n        /* \"#utility.yul\":12711:12733   */\n      swap1\n      pop\n        /* \"#utility.yul\":12778:12779   */\n      0x01\n        /* \"#utility.yul\":12772:12776   */\n      dup3\n        /* \"#utility.yul\":12768:12780   */\n      and\n        /* \"#utility.yul\":12799:12817   */\n      dup1\n        /* \"#utility.yul\":12789:12870   */\n      tag_638\n      jumpi\n        /* \"#utility.yul\":12855:12859   */\n      0x7f\n        /* \"#utility.yul\":12847:12853   */\n      dup3\n        /* \"#utility.yul\":12843:12860   */\n      and\n        /* \"#utility.yul\":12833:12860   */\n      swap2\n      pop\n        /* \"#utility.yul\":12789:12870   */\n    tag_638:\n        /* \"#utility.yul\":12917:12919   */\n      0x20\n        /* \"#utility.yul\":12909:12915   */\n      dup3\n        /* \"#utility.yul\":12906:12920   */\n      lt\n        /* \"#utility.yul\":12886:12904   */\n      dup2\n        /* \"#utility.yul\":12883:12921   */\n      sub\n        /* \"#utility.yul\":12880:12964   */\n      tag_639\n      jumpi\n        /* \"#utility.yul\":12936:12954   */\n      tag_640\n      tag_449\n      jump\t// in\n    tag_640:\n        /* \"#utility.yul\":12880:12964   */\n    tag_639:\n        /* \"#utility.yul\":12701:12970   */\n      pop\n        /* \"#utility.yul\":12650:12970   */\n      swap2\n      swap1\n      pop\n      jump\t// out\n        /* \"#utility.yul\":12976:13138   */\n    tag_450:\n        /* \"#utility.yul\":13116:13130   */\n      0x63616e742062652073616d650000000000000000000000000000000000000000\n        /* \"#utility.yul\":13112:13113   */\n      0x00\n        /* \"#utility.yul\":13104:13110   */\n      dup3\n        /* \"#utility.yul\":13100:13114   */\n      add\n        /* \"#utility.yul\":13093:13131   */\n      mstore\n        /* \"#utility.yul\":12976:13138   */\n      pop\n      jump\t// out\n        /* \"#utility.yul\":13144:13510   */\n    tag_451:\n        /* \"#utility.yul\":13286:13289   */\n      0x00\n        /* \"#utility.yul\":13307:13374   */\n      tag_643\n        /* \"#utility.yul\":13371:13373   */\n      0x0c\n        /* \"#utility.yul\":13366:13369   */\n      dup4\n        /* \"#utility.yul\":13307:13374   */\n      tag_418\n      jump\t// in\n    tag_643:\n        /* \"#utility.yul\":13300:13374   */\n      swap2\n      pop\n        /* \"#utility.yul\":13383:13476   */\n      tag_644\n        /* \"#utility.yul\":13472:13475   */\n      dup3\n        /* \"#utility.yul\":13383:13476   */\n      tag_450\n      jump\t// in\n    tag_644:\n        /* \"#utility.yul\":13501:13503   */\n      0x20\n        /* \"#utility.yul\":13496:13499   */\n      dup3\n        /* \"#utility.yul\":13492:13504   */\n      add\n        /* \"#utility.yul\":13485:13504   */\n      swap1\n      pop\n        /* \"#utility.yul\":13144:13510   */\n      swap2\n      swap1\n      pop\n      jump\t// out\n        /* \"#utility.yul\":13516:13935   */\n    tag_215:\n        /* \"#utility.yul\":13682:13686   */\n      0x00\n        /* \"#utility.yul\":13720:13722   */\n      0x20\n        /* \"#utility.yul\":13709:13718   */\n      dup3\n        /* \"#utility.yul\":13705:13723   */\n      add\n        /* \"#utility.yul\":13697:13723   */\n      swap1\n      pop\n        /* \"#utility.yul\":13769:13778   */\n      dup2\n        /* \"#utility.yul\":13763:13767   */\n      dup2\n        /* \"#utility.yul\":13759:13779   */\n      sub\n        /* \"#utility.yul\":13755:13756   */\n      0x00\n        /* \"#utility.yul\":13744:13753   */\n      dup4\n        /* \"#utility.yul\":13740:13757   */\n      add\n        /* \"#utility.yul\":13733:13780   */\n      mstore\n        /* \"#utility.yul\":13797:13928   */\n      tag_646\n        /* \"#utility.yul\":13923:13927   */\n      dup2\n        /* \"#utility.yul\":13797:13928   */\n      tag_451\n      jump\t// in\n    tag_646:\n        /* \"#utility.yul\":13789:13928   */\n      swap1\n      pop\n        /* \"#utility.yul\":13516:13935   */\n      swap2\n      swap1\n      pop\n      jump\t// out\n        /* \"#utility.yul\":13941:14098   */\n    tag_452:\n        /* \"#utility.yul\":14081:14090   */\n      0x4e6f20426e636500000000000000000000000000000000000000000000000000\n        /* \"#utility.yul\":14077:14078   */\n      0x00\n        /* \"#utility.yul\":14069:14075   */\n      dup3\n        /* \"#utility.yul\":14065:14079   */\n      add\n        /* \"#utility.yul\":14058:14091   */\n      mstore\n        /* \"#utility.yul\":13941:14098   */\n      pop\n      jump\t// out\n        /* \"#utility.yul\":14104:14469   */\n    tag_453:\n        /* \"#utility.yul\":14246:14249   */\n      0x00\n        /* \"#utility.yul\":14267:14333   */\n      tag_649\n        /* \"#utility.yul\":14331:14332   */\n      0x07\n        /* \"#utility.yul\":14326:14329   */\n      dup4\n        /* \"#utility.yul\":14267:14333   */\n      tag_418\n      jump\t// in\n    tag_649:\n        /* \"#utility.yul\":14260:14333   */\n      swap2\n      pop\n        /* \"#utility.yul\":14342:14435   */\n      tag_650\n        /* \"#utility.yul\":14431:14434   */\n      dup3\n        /* \"#utility.yul\":14342:14435   */\n      tag_452\n      jump\t// in\n    tag_650:\n        /* \"#utility.yul\":14460:14462   */\n      0x20\n        /* \"#utility.yul\":14455:14458   */\n      dup3\n        /* \"#utility.yul\":14451:14463   */\n      add\n        /* \"#utility.yul\":14444:14463   */\n      swap1\n      pop\n        /* \"#utility.yul\":14104:14469   */\n      swap2\n      swap1\n      pop\n      jump\t// out\n        /* \"#utility.yul\":14475:14894   */\n    tag_218:\n        /* \"#utility.yul\":14641:14645   */\n      0x00\n        /* \"#utility.yul\":14679:14681   */\n      0x20\n        /* \"#utility.yul\":14668:14677   */\n      dup3\n        /* \"#utility.yul\":14664:14682   */\n      add\n        /* \"#utility.yul\":14656:14682   */\n      swap1\n      pop\n        /* \"#utility.yul\":14728:14737   */\n      dup2\n        /* \"#utility.yul\":14722:14726   */\n      dup2\n        /* \"#utility.yul\":14718:14738   */\n      sub\n        /* \"#utility.yul\":14714:14715   */\n      0x00\n        /* \"#utility.yul\":14703:14712   */\n      dup4\n        /* \"#utility.yul\":14699:14716   */\n      add\n        /* \"#utility.yul\":14692:14739   */\n      mstore\n        /* \"#utility.yul\":14756:14887   */\n      tag_652\n        /* \"#utility.yul\":14882:14886   */\n      dup2\n        /* \"#utility.yul\":14756:14887   */\n      tag_453\n      jump\t// in\n    tag_652:\n        /* \"#utility.yul\":14748:14887   */\n      swap1\n      pop\n        /* \"#utility.yul\":14475:14894   */\n      swap2\n      swap1\n      pop\n      jump\t// out\n        /* \"#utility.yul\":14900:15080   */\n    tag_454:\n        /* \"#utility.yul\":14948:15025   */\n      0x4e487b7100000000000000000000000000000000000000000000000000000000\n        /* \"#utility.yul\":14945:14946   */\n      0x00\n        /* \"#utility.yul\":14938:15026   */\n      mstore\n        /* \"#utility.yul\":15045:15049   */\n      0x11\n        /* \"#utility.yul\":15042:15043   */\n      0x04\n        /* \"#utility.yul\":15035:15050   */\n      mstore\n        /* \"#utility.yul\":15069:15073   */\n      0x24\n        /* \"#utility.yul\":15066:15067   */\n      0x00\n        /* \"#utility.yul\":15059:15074   */\n      revert\n        /* \"#utility.yul\":15086:15280   */\n    tag_220:\n        /* \"#utility.yul\":15126:15130   */\n      0x00\n        /* \"#utility.yul\":15146:15166   */\n      tag_655\n        /* \"#utility.yul\":15164:15165   */\n      dup3\n        /* \"#utility.yul\":15146:15166   */\n      tag_429\n      jump\t// in\n    tag_655:\n        /* \"#utility.yul\":15141:15166   */\n      swap2\n      pop\n        /* \"#utility.yul\":15180:15200   */\n      tag_656\n        /* \"#utility.yul\":15198:15199   */\n      dup4\n        /* \"#utility.yul\":15180:15200   */\n      tag_429\n      jump\t// in\n    tag_656:\n        /* \"#utility.yul\":15175:15200   */\n      swap3\n      pop\n        /* \"#utility.yul\":15224:15225   */\n      dup3\n        /* \"#utility.yul\":15221:15222   */\n      dup3\n        /* \"#utility.yul\":15217:15226   */\n      sub\n        /* \"#utility.yul\":15209:15226   */\n      swap1\n      pop\n        /* \"#utility.yul\":15248:15249   */\n      dup2\n        /* \"#utility.yul\":15242:15246   */\n      dup2\n        /* \"#utility.yul\":15239:15250   */\n      gt\n        /* \"#utility.yul\":15236:15273   */\n      iszero\n      tag_657\n      jumpi\n        /* \"#utility.yul\":15253:15271   */\n      tag_658\n      tag_454\n      jump\t// in\n    tag_658:\n        /* \"#utility.yul\":15236:15273   */\n    tag_657:\n        /* \"#utility.yul\":15086:15280   */\n      swap3\n      swap2\n      pop\n      pop\n      jump\t// out\n        /* \"#utility.yul\":15286:15443   */\n    tag_455:\n        /* \"#utility.yul\":15426:15435   */\n      0x6f7720626e636500000000000000000000000000000000000000000000000000\n        /* \"#utility.yul\":15422:15423   */\n      0x00\n        /* \"#utility.yul\":15414:15420   */\n      dup3\n        /* \"#utility.yul\":15410:15424   */\n      add\n        /* \"#utility.yul\":15403:15436   */\n      mstore\n        /* \"#utility.yul\":15286:15443   */\n      pop\n      jump\t// out\n        /* \"#utility.yul\":15449:15814   */\n    tag_456:\n        /* \"#utility.yul\":15591:15594   */\n      0x00\n        /* \"#utility.yul\":15612:15678   */\n      tag_661\n        /* \"#utility.yul\":15676:15677   */\n      0x07\n        /* \"#utility.yul\":15671:15674   */\n      dup4\n        /* \"#utility.yul\":15612:15678   */\n      tag_418\n      jump\t// in\n    tag_661:\n        /* \"#utility.yul\":15605:15678   */\n      swap2\n      pop\n        /* \"#utility.yul\":15687:15780   */\n      tag_662\n        /* \"#utility.yul\":15776:15779   */\n      dup3\n        /* \"#utility.yul\":15687:15780   */\n      tag_455\n      jump\t// in\n    tag_662:\n        /* \"#utility.yul\":15805:15807   */\n      0x20\n        /* \"#utility.yul\":15800:15803   */\n      dup3\n        /* \"#utility.yul\":15796:15808   */\n      add\n        /* \"#utility.yul\":15789:15808   */\n      swap1\n      pop\n        /* \"#utility.yul\":15449:15814   */\n      swap2\n      swap1\n      pop\n      jump\t// out\n        /* \"#utility.yul\":15820:16239   */\n    tag_226:\n        /* \"#utility.yul\":15986:15990   */\n      0x00\n        /* \"#utility.yul\":16024:16026   */\n      0x20\n        /* \"#utility.yul\":16013:16022   */\n      dup3\n        /* \"#utility.yul\":16009:16027   */\n      add\n        /* \"#utility.yul\":16001:16027   */\n      swap1\n      pop\n        /* \"#utility.yul\":16073:16082   */\n      dup2\n        /* \"#utility.yul\":16067:16071   */\n      dup2\n        /* \"#utility.yul\":16063:16083   */\n      sub\n        /* \"#utility.yul\":16059:16060   */\n      0x00\n        /* \"#utility.yul\":16048:16057   */\n      dup4\n        /* \"#utility.yul\":16044:16061   */\n      add\n        /* \"#utility.yul\":16037:16084   */\n      mstore\n        /* \"#utility.yul\":16101:16232   */\n      tag_664\n        /* \"#utility.yul\":16227:16231   */\n      dup2\n        /* \"#utility.yul\":16101:16232   */\n      tag_456\n      jump\t// in\n    tag_664:\n        /* \"#utility.yul\":16093:16232   */\n      swap1\n      pop\n        /* \"#utility.yul\":15820:16239   */\n      swap2\n      swap1\n      pop\n      jump\t// out\n        /* \"#utility.yul\":16245:16474   */\n    tag_457:\n        /* \"#utility.yul\":16385:16419   */\n      0x4e6f74204f6e20546865205768697465204c69737420546f2052656369657665\n        /* \"#utility.yul\":16381:16382   */\n      0x00\n        /* \"#utility.yul\":16373:16379   */\n      dup3\n        /* \"#utility.yul\":16369:16383   */\n      add\n        /* \"#utility.yul\":16362:16420   */\n      mstore\n        /* \"#utility.yul\":16454:16466   */\n      0x2054686520546f6b656e00000000000000000000000000000000000000000000\n        /* \"#utility.yul\":16449:16451   */\n      0x20\n        /* \"#utility.yul\":16441:16447   */\n      dup3\n        /* \"#utility.yul\":16437:16452   */\n      add\n        /* \"#utility.yul\":16430:16467   */\n      mstore\n        /* \"#utility.yul\":16245:16474   */\n      pop\n      jump\t// out\n        /* \"#utility.yul\":16480:16846   */\n    tag_458:\n        /* \"#utility.yul\":16622:16625   */\n      0x00\n        /* \"#utility.yul\":16643:16710   */\n      tag_667\n        /* \"#utility.yul\":16707:16709   */\n      0x2a\n        /* \"#utility.yul\":16702:16705   */\n      dup4\n        /* \"#utility.yul\":16643:16710   */\n      tag_418\n      jump\t// in\n    tag_667:\n        /* \"#utility.yul\":16636:16710   */\n      swap2\n      pop\n        /* \"#utility.yul\":16719:16812   */\n      tag_668\n        /* \"#utility.yul\":16808:16811   */\n      dup3\n        /* \"#utility.yul\":16719:16812   */\n      tag_457\n      jump\t// in\n    tag_668:\n        /* \"#utility.yul\":16837:16839   */\n      0x40\n        /* \"#utility.yul\":16832:16835   */\n      dup3\n        /* \"#utility.yul\":16828:16840   */\n      add\n        /* \"#utility.yul\":16821:16840   */\n      swap1\n      pop\n        /* \"#utility.yul\":16480:16846   */\n      swap2\n      swap1\n      pop\n      jump\t// out\n        /* \"#utility.yul\":16852:17271   */\n    tag_229:\n        /* \"#utility.yul\":17018:17022   */\n      0x00\n        /* \"#utility.yul\":17056:17058   */\n      0x20\n        /* \"#utility.yul\":17045:17054   */\n      dup3\n        /* \"#utility.yul\":17041:17059   */\n      add\n        /* \"#utility.yul\":17033:17059   */\n      swap1\n      pop\n        /* \"#utility.yul\":17105:17114   */\n      dup2\n        /* \"#utility.yul\":17099:17103   */\n      dup2\n        /* \"#utility.yul\":17095:17115   */\n      sub\n        /* \"#utility.yul\":17091:17092   */\n      0x00\n        /* \"#utility.yul\":17080:17089   */\n      dup4\n        /* \"#utility.yul\":17076:17093   */\n      add\n        /* \"#utility.yul\":17069:17116   */\n      mstore\n        /* \"#utility.yul\":17133:17264   */\n      tag_670\n        /* \"#utility.yul\":17259:17263   */\n      dup2\n        /* \"#utility.yul\":17133:17264   */\n      tag_458\n      jump\t// in\n    tag_670:\n        /* \"#utility.yul\":17125:17264   */\n      swap1\n      pop\n        /* \"#utility.yul\":16852:17271   */\n      swap2\n      swap1\n      pop\n      jump\t// out\n        /* \"#utility.yul\":17277:17441   */\n    tag_459:\n        /* \"#utility.yul\":17417:17433   */\n      0x6e6f206e6f74206f6e20626c636b000000000000000000000000000000000000\n        /* \"#utility.yul\":17413:17414   */\n      0x00\n        /* \"#utility.yul\":17405:17411   */\n      dup3\n        /* \"#utility.yul\":17401:17415   */\n      add\n        /* \"#utility.yul\":17394:17434   */\n      mstore\n        /* \"#utility.yul\":17277:17441   */\n      pop\n      jump\t// out\n        /* \"#utility.yul\":17447:17813   */\n    tag_460:\n        /* \"#utility.yul\":17589:17592   */\n      0x00\n        /* \"#utility.yul\":17610:17677   */\n      tag_673\n        /* \"#utility.yul\":17674:17676   */\n      0x0e\n        /* \"#utility.yul\":17669:17672   */\n      dup4\n        /* \"#utility.yul\":17610:17677   */\n      tag_418\n      jump\t// in\n    tag_673:\n        /* \"#utility.yul\":17603:17677   */\n      swap2\n      pop\n        /* \"#utility.yul\":17686:17779   */\n      tag_674\n        /* \"#utility.yul\":17775:17778   */\n      dup3\n        /* \"#utility.yul\":17686:17779   */\n      tag_459\n      jump\t// in\n    tag_674:\n        /* \"#utility.yul\":17804:17806   */\n      0x20\n        /* \"#utility.yul\":17799:17802   */\n      dup3\n        /* \"#utility.yul\":17795:17807   */\n      add\n        /* \"#utility.yul\":17788:17807   */\n      swap1\n      pop\n        /* \"#utility.yul\":17447:17813   */\n      swap2\n      swap1\n      pop\n      jump\t// out\n        /* \"#utility.yul\":17819:18238   */\n    tag_233:\n        /* \"#utility.yul\":17985:17989   */\n      0x00\n        /* \"#utility.yul\":18023:18025   */\n      0x20\n        /* \"#utility.yul\":18012:18021   */\n      dup3\n        /* \"#utility.yul\":18008:18026   */\n      add\n        /* \"#utility.yul\":18000:18026   */\n      swap1\n      pop\n        /* \"#utility.yul\":18072:18081   */\n      dup2\n        /* \"#utility.yul\":18066:18070   */\n      dup2\n        /* \"#utility.yul\":18062:18082   */\n      sub\n        /* \"#utility.yul\":18058:18059   */\n      0x00\n        /* \"#utility.yul\":18047:18056   */\n      dup4\n        /* \"#utility.yul\":18043:18060   */\n      add\n        /* \"#utility.yul\":18036:18083   */\n      mstore\n        /* \"#utility.yul\":18100:18231   */\n      tag_676\n        /* \"#utility.yul\":18226:18230   */\n      dup2\n        /* \"#utility.yul\":18100:18231   */\n      tag_460\n      jump\t// in\n    tag_676:\n        /* \"#utility.yul\":18092:18231   */\n      swap1\n      pop\n        /* \"#utility.yul\":17819:18238   */\n      swap2\n      swap1\n      pop\n      jump\t// out\n        /* \"#utility.yul\":18244:18413   */\n    tag_461:\n        /* \"#utility.yul\":18384:18405   */\n      0x76616c7565206d757420626520706f7469766500000000000000000000000000\n        /* \"#utility.yul\":18380:18381   */\n      0x00\n        /* \"#utility.yul\":18372:18378   */\n      dup3\n        /* \"#utility.yul\":18368:18382   */\n      add\n        /* \"#utility.yul\":18361:18406   */\n      mstore\n        /* \"#utility.yul\":18244:18413   */\n      pop\n      jump\t// out\n        /* \"#utility.yul\":18419:18785   */\n    tag_462:\n        /* \"#utility.yul\":18561:18564   */\n      0x00\n        /* \"#utility.yul\":18582:18649   */\n      tag_679\n        /* \"#utility.yul\":18646:18648   */\n      0x13\n        /* \"#utility.yul\":18641:18644   */\n      dup4\n        /* \"#utility.yul\":18582:18649   */\n      tag_418\n      jump\t// in\n    tag_679:\n        /* \"#utility.yul\":18575:18649   */\n      swap2\n      pop\n        /* \"#utility.yul\":18658:18751   */\n      tag_680\n        /* \"#utility.yul\":18747:18750   */\n      dup3\n        /* \"#utility.yul\":18658:18751   */\n      tag_461\n      jump\t// in\n    tag_680:\n        /* \"#utility.yul\":18776:18778   */\n      0x20\n        /* \"#utility.yul\":18771:18774   */\n      dup3\n        /* \"#utility.yul\":18767:18779   */\n      add\n        /* \"#utility.yul\":18760:18779   */\n      swap1\n      pop\n        /* \"#utility.yul\":18419:18785   */\n      swap2\n      swap1\n      pop\n      jump\t// out\n        /* \"#utility.yul\":18791:19210   */\n    tag_236:\n        /* \"#utility.yul\":18957:18961   */\n      0x00\n        /* \"#utility.yul\":18995:18997   */\n      0x20\n        /* \"#utility.yul\":18984:18993   */\n      dup3\n        /* \"#utility.yul\":18980:18998   */\n      add\n        /* \"#utility.yul\":18972:18998   */\n      swap1\n      pop\n        /* \"#utility.yul\":19044:19053   */\n      dup2\n        /* \"#utility.yul\":19038:19042   */\n      dup2\n        /* \"#utility.yul\":19034:19054   */\n      sub\n        /* \"#utility.yul\":19030:19031   */\n      0x00\n        /* \"#utility.yul\":19019:19028   */\n      dup4\n        /* \"#utility.yul\":19015:19032   */\n      add\n        /* \"#utility.yul\":19008:19055   */\n      mstore\n        /* \"#utility.yul\":19072:19203   */\n      tag_682\n        /* \"#utility.yul\":19198:19202   */\n      dup2\n        /* \"#utility.yul\":19072:19203   */\n      tag_462\n      jump\t// in\n    tag_682:\n        /* \"#utility.yul\":19064:19203   */\n      swap1\n      pop\n        /* \"#utility.yul\":18791:19210   */\n      swap2\n      swap1\n      pop\n      jump\t// out\n        /* \"#utility.yul\":19216:19378   */\n    tag_463:\n        /* \"#utility.yul\":19356:19370   */\n      0x6973206e6f742070757365640000000000000000000000000000000000000000\n        /* \"#utility.yul\":19352:19353   */\n      0x00\n        /* \"#utility.yul\":19344:19350   */\n      dup3\n        /* \"#utility.yul\":19340:19354   */\n      add\n        /* \"#utility.yul\":19333:19371   */\n      mstore\n        /* \"#utility.yul\":19216:19378   */\n      pop\n      jump\t// out\n        /* \"#utility.yul\":19384:19750   */\n    tag_464:\n        /* \"#utility.yul\":19526:19529   */\n      0x00\n        /* \"#utility.yul\":19547:19614   */\n      tag_685\n        /* \"#utility.yul\":19611:19613   */\n      0x0c\n        /* \"#utility.yul\":19606:19609   */\n      dup4\n        /* \"#utility.yul\":19547:19614   */\n      tag_418\n      jump\t// in\n    tag_685:\n        /* \"#utility.yul\":19540:19614   */\n      swap2\n      pop\n        /* \"#utility.yul\":19623:19716   */\n      tag_686\n        /* \"#utility.yul\":19712:19715   */\n      dup3\n        /* \"#utility.yul\":19623:19716   */\n      tag_463\n      jump\t// in\n    tag_686:\n        /* \"#utility.yul\":19741:19743   */\n      0x20\n        /* \"#utility.yul\":19736:19739   */\n      dup3\n        /* \"#utility.yul\":19732:19744   */\n      add\n        /* \"#utility.yul\":19725:19744   */\n      swap1\n      pop\n        /* \"#utility.yul\":19384:19750   */\n      swap2\n      swap1\n      pop\n      jump\t// out\n        /* \"#utility.yul\":19756:20175   */\n    tag_239:\n        /* \"#utility.yul\":19922:19926   */\n      0x00\n        /* \"#utility.yul\":19960:19962   */\n      0x20\n        /* \"#utility.yul\":19949:19958   */\n      dup3\n        /* \"#utility.yul\":19945:19963   */\n      add\n        /* \"#utility.yul\":19937:19963   */\n      swap1\n      pop\n        /* \"#utility.yul\":20009:20018   */\n      dup2\n        /* \"#utility.yul\":20003:20007   */\n      dup2\n        /* \"#utility.yul\":19999:20019   */\n      sub\n        /* \"#utility.yul\":19995:19996   */\n      0x00\n        /* \"#utility.yul\":19984:19993   */\n      dup4\n        /* \"#utility.yul\":19980:19997   */\n      add\n        /* \"#utility.yul\":19973:20020   */\n      mstore\n        /* \"#utility.yul\":20037:20168   */\n      tag_688\n        /* \"#utility.yul\":20163:20167   */\n      dup2\n        /* \"#utility.yul\":20037:20168   */\n      tag_464\n      jump\t// in\n    tag_688:\n        /* \"#utility.yul\":20029:20168   */\n      swap1\n      pop\n        /* \"#utility.yul\":19756:20175   */\n      swap2\n      swap1\n      pop\n      jump\t// out\n        /* \"#utility.yul\":20181:20358   */\n    tag_465:\n        /* \"#utility.yul\":20321:20350   */\n      0x6d6f756e74206d7574206265206772657465722074686e207675650000000000\n        /* \"#utility.yul\":20317:20318   */\n      0x00\n        /* \"#utility.yul\":20309:20315   */\n      dup3\n        /* \"#utility.yul\":20305:20319   */\n      add\n        /* \"#utility.yul\":20298:20351   */\n      mstore\n        /* \"#utility.yul\":20181:20358   */\n      pop\n      jump\t// out\n        /* \"#utility.yul\":20364:20730   */\n    tag_466:\n        /* \"#utility.yul\":20506:20509   */\n      0x00\n        /* \"#utility.yul\":20527:20594   */\n      tag_691\n        /* \"#utility.yul\":20591:20593   */\n      0x1b\n        /* \"#utility.yul\":20586:20589   */\n      dup4\n        /* \"#utility.yul\":20527:20594   */\n      tag_418\n      jump\t// in\n    tag_691:\n        /* \"#utility.yul\":20520:20594   */\n      swap2\n      pop\n        /* \"#utility.yul\":20603:20696   */\n      tag_692\n        /* \"#utility.yul\":20692:20695   */\n      dup3\n        /* \"#utility.yul\":20603:20696   */\n      tag_465\n      jump\t// in\n    tag_692:\n        /* \"#utility.yul\":20721:20723   */\n      0x20\n        /* \"#utility.yul\":20716:20719   */\n      dup3\n        /* \"#utility.yul\":20712:20724   */\n      add\n        /* \"#utility.yul\":20705:20724   */\n      swap1\n      pop\n        /* \"#utility.yul\":20364:20730   */\n      swap2\n      swap1\n      pop\n      jump\t// out\n        /* \"#utility.yul\":20736:21155   */\n    tag_242:\n        /* \"#utility.yul\":20902:20906   */\n      0x00\n        /* \"#utility.yul\":20940:20942   */\n      0x20\n        /* \"#utility.yul\":20929:20938   */\n      dup3\n        /* \"#utility.yul\":20925:20943   */\n      add\n        /* \"#utility.yul\":20917:20943   */\n      swap1\n      pop\n        /* \"#utility.yul\":20989:20998   */\n      dup2\n        /* \"#utility.yul\":20983:20987   */\n      dup2\n        /* \"#utility.yul\":20979:20999   */\n      sub\n        /* \"#utility.yul\":20975:20976   */\n      0x00\n        /* \"#utility.yul\":20964:20973   */\n      dup4\n        /* \"#utility.yul\":20960:20977   */\n      add\n        /* \"#utility.yul\":20953:21000   */\n      mstore\n        /* \"#utility.yul\":21017:21148   */\n      tag_694\n        /* \"#utility.yul\":21143:21147   */\n      dup2\n        /* \"#utility.yul\":21017:21148   */\n      tag_466\n      jump\t// in\n    tag_694:\n        /* \"#utility.yul\":21009:21148   */\n      swap1\n      pop\n        /* \"#utility.yul\":20736:21155   */\n      swap2\n      swap1\n      pop\n      jump\t// out\n        /* \"#utility.yul\":21161:21352   */\n    tag_246:\n        /* \"#utility.yul\":21201:21204   */\n      0x00\n        /* \"#utility.yul\":21220:21240   */\n      tag_696\n        /* \"#utility.yul\":21238:21239   */\n      dup3\n        /* \"#utility.yul\":21220:21240   */\n      tag_429\n      jump\t// in\n    tag_696:\n        /* \"#utility.yul\":21215:21240   */\n      swap2\n      pop\n        /* \"#utility.yul\":21254:21274   */\n      tag_697\n        /* \"#utility.yul\":21272:21273   */\n      dup4\n        /* \"#utility.yul\":21254:21274   */\n      tag_429\n      jump\t// in\n    tag_697:\n        /* \"#utility.yul\":21249:21274   */\n      swap3\n      pop\n        /* \"#utility.yul\":21297:21298   */\n      dup3\n        /* \"#utility.yul\":21294:21295   */\n      dup3\n        /* \"#utility.yul\":21290:21299   */\n      add\n        /* \"#utility.yul\":21283:21299   */\n      swap1\n      pop\n        /* \"#utility.yul\":21318:21321   */\n      dup1\n        /* \"#utility.yul\":21315:21316   */\n      dup3\n        /* \"#utility.yul\":21312:21322   */\n      gt\n        /* \"#utility.yul\":21309:21345   */\n      iszero\n      tag_698\n      jumpi\n        /* \"#utility.yul\":21325:21343   */\n      tag_699\n      tag_454\n      jump\t// in\n    tag_699:\n        /* \"#utility.yul\":21309:21345   */\n    tag_698:\n        /* \"#utility.yul\":21161:21352   */\n      swap3\n      swap2\n      pop\n      pop\n      jump\t// out\n        /* \"#utility.yul\":21358:21578   */\n    tag_467:\n        /* \"#utility.yul\":21498:21532   */\n      0x6f6e6c79206f776e65722063616e2063616c6c20546869732046756e6374696f\n        /* \"#utility.yul\":21494:21495   */\n      0x00\n        /* \"#utility.yul\":21486:21492   */\n      dup3\n        /* \"#utility.yul\":21482:21496   */\n      add\n        /* \"#utility.yul\":21475:21533   */\n      mstore\n        /* \"#utility.yul\":21567:21570   */\n      0x6e00000000000000000000000000000000000000000000000000000000000000\n        /* \"#utility.yul\":21562:21564   */\n      0x20\n        /* \"#utility.yul\":21554:21560   */\n      dup3\n        /* \"#utility.yul\":21550:21565   */\n      add\n        /* \"#utility.yul\":21543:21571   */\n      mstore\n        /* \"#utility.yul\":21358:21578   */\n      pop\n      jump\t// out\n        /* \"#utility.yul\":21584:21950   */\n    tag_468:\n        /* \"#utility.yul\":21726:21729   */\n      0x00\n        /* \"#utility.yul\":21747:21814   */\n      tag_702\n        /* \"#utility.yul\":21811:21813   */\n      0x21\n        /* \"#utility.yul\":21806:21809   */\n      dup4\n        /* \"#utility.yul\":21747:21814   */\n      tag_418\n      jump\t// in\n    tag_702:\n        /* \"#utility.yul\":21740:21814   */\n      swap2\n      pop\n        /* \"#utility.yul\":21823:21916   */\n      tag_703\n        /* \"#utility.yul\":21912:21915   */\n      dup3\n        /* \"#utility.yul\":21823:21916   */\n      tag_467\n      jump\t// in\n    tag_703:\n        /* \"#utility.yul\":21941:21943   */\n      0x40\n        /* \"#utility.yul\":21936:21939   */\n      dup3\n        /* \"#utility.yul\":21932:21944   */\n      add\n        /* \"#utility.yul\":21925:21944   */\n      swap1\n      pop\n        /* \"#utility.yul\":21584:21950   */\n      swap2\n      swap1\n      pop\n      jump\t// out\n        /* \"#utility.yul\":21956:22375   */\n    tag_254:\n        /* \"#utility.yul\":22122:22126   */\n      0x00\n        /* \"#utility.yul\":22160:22162   */\n      0x20\n        /* \"#utility.yul\":22149:22158   */\n      dup3\n        /* \"#utility.yul\":22145:22163   */\n      add\n        /* \"#utility.yul\":22137:22163   */\n      swap1\n      pop\n        /* \"#utility.yul\":22209:22218   */\n      dup2\n        /* \"#utility.yul\":22203:22207   */\n      dup2\n        /* \"#utility.yul\":22199:22219   */\n      sub\n        /* \"#utility.yul\":22195:22196   */\n      0x00\n        /* \"#utility.yul\":22184:22193   */\n      dup4\n        /* \"#utility.yul\":22180:22197   */\n      add\n        /* \"#utility.yul\":22173:22220   */\n      mstore\n        /* \"#utility.yul\":22237:22368   */\n      tag_705\n        /* \"#utility.yul\":22363:22367   */\n      dup2\n        /* \"#utility.yul\":22237:22368   */\n      tag_468\n      jump\t// in\n    tag_705:\n        /* \"#utility.yul\":22229:22368   */\n      swap1\n      pop\n        /* \"#utility.yul\":21956:22375   */\n      swap2\n      swap1\n      pop\n      jump\t// out\n        /* \"#utility.yul\":22381:22561   */\n    tag_469:\n        /* \"#utility.yul\":22429:22506   */\n      0x4e487b7100000000000000000000000000000000000000000000000000000000\n        /* \"#utility.yul\":22426:22427   */\n      0x00\n        /* \"#utility.yul\":22419:22507   */\n      mstore\n        /* \"#utility.yul\":22526:22530   */\n      0x12\n        /* \"#utility.yul\":22523:22524   */\n      0x04\n        /* \"#utility.yul\":22516:22531   */\n      mstore\n        /* \"#utility.yul\":22550:22554   */\n      0x24\n        /* \"#utility.yul\":22547:22548   */\n      0x00\n        /* \"#utility.yul\":22540:22555   */\n      revert\n        /* \"#utility.yul\":22567:22752   */\n    tag_258:\n        /* \"#utility.yul\":22607:22608   */\n      0x00\n        /* \"#utility.yul\":22624:22644   */\n      tag_708\n        /* \"#utility.yul\":22642:22643   */\n      dup3\n        /* \"#utility.yul\":22624:22644   */\n      tag_429\n      jump\t// in\n    tag_708:\n        /* \"#utility.yul\":22619:22644   */\n      swap2\n      pop\n        /* \"#utility.yul\":22658:22678   */\n      tag_709\n        /* \"#utility.yul\":22676:22677   */\n      dup4\n        /* \"#utility.yul\":22658:22678   */\n      tag_429\n      jump\t// in\n    tag_709:\n        /* \"#utility.yul\":22653:22678   */\n      swap3\n      pop\n        /* \"#utility.yul\":22697:22698   */\n      dup3\n        /* \"#utility.yul\":22687:22722   */\n      tag_710\n      jumpi\n        /* \"#utility.yul\":22702:22720   */\n      tag_711\n      tag_469\n      jump\t// in\n    tag_711:\n        /* \"#utility.yul\":22687:22722   */\n    tag_710:\n        /* \"#utility.yul\":22744:22745   */\n      dup3\n        /* \"#utility.yul\":22741:22742   */\n      dup3\n        /* \"#utility.yul\":22737:22746   */\n      div\n        /* \"#utility.yul\":22732:22746   */\n      swap1\n      pop\n        /* \"#utility.yul\":22567:22752   */\n      swap3\n      swap2\n      pop\n      pop\n      jump\t// out\n        /* \"#utility.yul\":22758:22925   */\n    tag_470:\n        /* \"#utility.yul\":22898:22917   */\n      0x6f6e79206f776e657220636e206d696e74000000000000000000000000000000\n        /* \"#utility.yul\":22894:22895   */\n      0x00\n        /* \"#utility.yul\":22886:22892   */\n      dup3\n        /* \"#utility.yul\":22882:22896   */\n      add\n        /* \"#utility.yul\":22875:22918   */\n      mstore\n        /* \"#utility.yul\":22758:22925   */\n      pop\n      jump\t// out\n        /* \"#utility.yul\":22931:23297   */\n    tag_471:\n        /* \"#utility.yul\":23073:23076   */\n      0x00\n        /* \"#utility.yul\":23094:23161   */\n      tag_714\n        /* \"#utility.yul\":23158:23160   */\n      0x11\n        /* \"#utility.yul\":23153:23156   */\n      dup4\n        /* \"#utility.yul\":23094:23161   */\n      tag_418\n      jump\t// in\n    tag_714:\n        /* \"#utility.yul\":23087:23161   */\n      swap2\n      pop\n        /* \"#utility.yul\":23170:23263   */\n      tag_715\n        /* \"#utility.yul\":23259:23262   */\n      dup3\n        /* \"#utility.yul\":23170:23263   */\n      tag_470\n      jump\t// in\n    tag_715:\n        /* \"#utility.yul\":23288:23290   */\n      0x20\n        /* \"#utility.yul\":23283:23286   */\n      dup3\n        /* \"#utility.yul\":23279:23291   */\n      add\n        /* \"#utility.yul\":23272:23291   */\n      swap1\n      pop\n        /* \"#utility.yul\":22931:23297   */\n      swap2\n      swap1\n      pop\n      jump\t// out\n        /* \"#utility.yul\":23303:23722   */\n    tag_262:\n        /* \"#utility.yul\":23469:23473   */\n      0x00\n        /* \"#utility.yul\":23507:23509   */\n      0x20\n        /* \"#utility.yul\":23496:23505   */\n      dup3\n        /* \"#utility.yul\":23492:23510   */\n      add\n        /* \"#utility.yul\":23484:23510   */\n      swap1\n      pop\n        /* \"#utility.yul\":23556:23565   */\n      dup2\n        /* \"#utility.yul\":23550:23554   */\n      dup2\n        /* \"#utility.yul\":23546:23566   */\n      sub\n        /* \"#utility.yul\":23542:23543   */\n      0x00\n        /* \"#utility.yul\":23531:23540   */\n      dup4\n        /* \"#utility.yul\":23527:23544   */\n      add\n        /* \"#utility.yul\":23520:23567   */\n      mstore\n        /* \"#utility.yul\":23584:23715   */\n      tag_717\n        /* \"#utility.yul\":23710:23714   */\n      dup2\n        /* \"#utility.yul\":23584:23715   */\n      tag_471\n      jump\t// in\n    tag_717:\n        /* \"#utility.yul\":23576:23715   */\n      swap1\n      pop\n        /* \"#utility.yul\":23303:23722   */\n      swap2\n      swap1\n      pop\n      jump\t// out\n        /* \"#utility.yul\":23728:23893   */\n    tag_472:\n        /* \"#utility.yul\":23868:23885   */\n      0x4e6f7420456e6f75676820426e63650000000000000000000000000000000000\n        /* \"#utility.yul\":23864:23865   */\n      0x00\n        /* \"#utility.yul\":23856:23862   */\n      dup3\n        /* \"#utility.yul\":23852:23866   */\n      add\n        /* \"#utility.yul\":23845:23886   */\n      mstore\n        /* \"#utility.yul\":23728:23893   */\n      pop\n      jump\t// out\n        /* \"#utility.yul\":23899:24265   */\n    tag_473:\n        /* \"#utility.yul\":24041:24044   */\n      0x00\n        /* \"#utility.yul\":24062:24129   */\n      tag_720\n        /* \"#utility.yul\":24126:24128   */\n      0x0f\n        /* \"#utility.yul\":24121:24124   */\n      dup4\n        /* \"#utility.yul\":24062:24129   */\n      tag_418\n      jump\t// in\n    tag_720:\n        /* \"#utility.yul\":24055:24129   */\n      swap2\n      pop\n        /* \"#utility.yul\":24138:24231   */\n      tag_721\n        /* \"#utility.yul\":24227:24230   */\n      dup3\n        /* \"#utility.yul\":24138:24231   */\n      tag_472\n      jump\t// in\n    tag_721:\n        /* \"#utility.yul\":24256:24258   */\n      0x20\n        /* \"#utility.yul\":24251:24254   */\n      dup3\n        /* \"#utility.yul\":24247:24259   */\n      add\n        /* \"#utility.yul\":24240:24259   */\n      swap1\n      pop\n        /* \"#utility.yul\":23899:24265   */\n      swap2\n      swap1\n      pop\n      jump\t// out\n        /* \"#utility.yul\":24271:24690   */\n    tag_270:\n        /* \"#utility.yul\":24437:24441   */\n      0x00\n        /* \"#utility.yul\":24475:24477   */\n      0x20\n        /* \"#utility.yul\":24464:24473   */\n      dup3\n        /* \"#utility.yul\":24460:24478   */\n      add\n        /* \"#utility.yul\":24452:24478   */\n      swap1\n      pop\n        /* \"#utility.yul\":24524:24533   */\n      dup2\n        /* \"#utility.yul\":24518:24522   */\n      dup2\n        /* \"#utility.yul\":24514:24534   */\n      sub\n        /* \"#utility.yul\":24510:24511   */\n      0x00\n        /* \"#utility.yul\":24499:24508   */\n      dup4\n        /* \"#utility.yul\":24495:24512   */\n      add\n        /* \"#utility.yul\":24488:24535   */\n      mstore\n        /* \"#utility.yul\":24552:24683   */\n      tag_723\n        /* \"#utility.yul\":24678:24682   */\n      dup2\n        /* \"#utility.yul\":24552:24683   */\n      tag_473\n      jump\t// in\n    tag_723:\n        /* \"#utility.yul\":24544:24683   */\n      swap1\n      pop\n        /* \"#utility.yul\":24271:24690   */\n      swap2\n      swap1\n      pop\n      jump\t// out\n        /* \"#utility.yul\":24696:24862   */\n    tag_474:\n        /* \"#utility.yul\":24836:24854   */\n      0x63616e206e6f7420206265207a65726f00000000000000000000000000000000\n        /* \"#utility.yul\":24832:24833   */\n      0x00\n        /* \"#utility.yul\":24824:24830   */\n      dup3\n        /* \"#utility.yul\":24820:24834   */\n      add\n        /* \"#utility.yul\":24813:24855   */\n      mstore\n        /* \"#utility.yul\":24696:24862   */\n      pop\n      jump\t// out\n        /* \"#utility.yul\":24868:25234   */\n    tag_475:\n        /* \"#utility.yul\":25010:25013   */\n      0x00\n        /* \"#utility.yul\":25031:25098   */\n      tag_726\n        /* \"#utility.yul\":25095:25097   */\n      0x10\n        /* \"#utility.yul\":25090:25093   */\n      dup4\n        /* \"#utility.yul\":25031:25098   */\n      tag_418\n      jump\t// in\n    tag_726:\n        /* \"#utility.yul\":25024:25098   */\n      swap2\n      pop\n        /* \"#utility.yul\":25107:25200   */\n      tag_727\n        /* \"#utility.yul\":25196:25199   */\n      dup3\n        /* \"#utility.yul\":25107:25200   */\n      tag_474\n      jump\t// in\n    tag_727:\n        /* \"#utility.yul\":25225:25227   */\n      0x20\n        /* \"#utility.yul\":25220:25223   */\n      dup3\n        /* \"#utility.yul\":25216:25228   */\n      add\n        /* \"#utility.yul\":25209:25228   */\n      swap1\n      pop\n        /* \"#utility.yul\":24868:25234   */\n      swap2\n      swap1\n      pop\n      jump\t// out\n        /* \"#utility.yul\":25240:25659   */\n    tag_273:\n        /* \"#utility.yul\":25406:25410   */\n      0x00\n        /* \"#utility.yul\":25444:25446   */\n      0x20\n        /* \"#utility.yul\":25433:25442   */\n      dup3\n        /* \"#utility.yul\":25429:25447   */\n      add\n        /* \"#utility.yul\":25421:25447   */\n      swap1\n      pop\n        /* \"#utility.yul\":25493:25502   */\n      dup2\n        /* \"#utility.yul\":25487:25491   */\n      dup2\n        /* \"#utility.yul\":25483:25503   */\n      sub\n        /* \"#utility.yul\":25479:25480   */\n      0x00\n        /* \"#utility.yul\":25468:25477   */\n      dup4\n        /* \"#utility.yul\":25464:25481   */\n      add\n        /* \"#utility.yul\":25457:25504   */\n      mstore\n        /* \"#utility.yul\":25521:25652   */\n      tag_729\n        /* \"#utility.yul\":25647:25651   */\n      dup2\n        /* \"#utility.yul\":25521:25652   */\n      tag_475\n      jump\t// in\n    tag_729:\n        /* \"#utility.yul\":25513:25652   */\n      swap1\n      pop\n        /* \"#utility.yul\":25240:25659   */\n      swap2\n      swap1\n      pop\n      jump\t// out\n        /* \"#utility.yul\":25665:25845   */\n    tag_476:\n        /* \"#utility.yul\":25713:25790   */\n      0x4e487b7100000000000000000000000000000000000000000000000000000000\n        /* \"#utility.yul\":25710:25711   */\n      0x00\n        /* \"#utility.yul\":25703:25791   */\n      mstore\n        /* \"#utility.yul\":25810:25814   */\n      0x41\n        /* \"#utility.yul\":25807:25808   */\n      0x04\n        /* \"#utility.yul\":25800:25815   */\n      mstore\n        /* \"#utility.yul\":25834:25838   */\n      0x24\n        /* \"#utility.yul\":25831:25832   */\n      0x00\n        /* \"#utility.yul\":25824:25839   */\n      revert\n        /* \"#utility.yul\":25851:25992   */\n    tag_477:\n        /* \"#utility.yul\":25900:25904   */\n      0x00\n        /* \"#utility.yul\":25923:25926   */\n      dup2\n        /* \"#utility.yul\":25915:25926   */\n      swap1\n      pop\n        /* \"#utility.yul\":25946:25949   */\n      dup2\n        /* \"#utility.yul\":25943:25944   */\n      0x00\n        /* \"#utility.yul\":25936:25950   */\n      mstore\n        /* \"#utility.yul\":25980:25984   */\n      0x20\n        /* \"#utility.yul\":25977:25978   */\n      0x00\n        /* \"#utility.yul\":25967:25985   */\n      keccak256\n        /* \"#utility.yul\":25959:25985   */\n      swap1\n      pop\n        /* \"#utility.yul\":25851:25992   */\n      swap2\n      swap1\n      pop\n      jump\t// out\n        /* \"#utility.yul\":25998:26091   */\n    tag_478:\n        /* \"#utility.yul\":26035:26041   */\n      0x00\n        /* \"#utility.yul\":26082:26084   */\n      0x20\n        /* \"#utility.yul\":26077:26079   */\n      0x1f\n        /* \"#utility.yul\":26070:26075   */\n      dup4\n        /* \"#utility.yul\":26066:26080   */\n      add\n        /* \"#utility.yul\":26062:26085   */\n      div\n        /* \"#utility.yul\":26052:26085   */\n      swap1\n      pop\n        /* \"#utility.yul\":25998:26091   */\n      swap2\n      swap1\n      pop\n      jump\t// out\n        /* \"#utility.yul\":26097:26204   */\n    tag_479:\n        /* \"#utility.yul\":26141:26149   */\n      0x00\n        /* \"#utility.yul\":26191:26196   */\n      dup3\n        /* \"#utility.yul\":26185:26189   */\n      dup3\n        /* \"#utility.yul\":26181:26197   */\n      shl\n        /* \"#utility.yul\":26160:26197   */\n      swap1\n      pop\n        /* \"#utility.yul\":26097:26204   */\n      swap3\n      swap2\n      pop\n      pop\n      jump\t// out\n        /* \"#utility.yul\":26210:26603   */\n    tag_480:\n        /* \"#utility.yul\":26279:26285   */\n      0x00\n        /* \"#utility.yul\":26329:26330   */\n      0x08\n        /* \"#utility.yul\":26317:26327   */\n      dup4\n        /* \"#utility.yul\":26313:26331   */\n      mul\n        /* \"#utility.yul\":26352:26449   */\n      tag_735\n        /* \"#utility.yul\":26382:26448   */\n      0xffffffffffffffffffffffffffffffffffffffffffffffffffffffffffffffff\n        /* \"#utility.yul\":26371:26380   */\n      dup3\n        /* \"#utility.yul\":26352:26449   */\n      tag_479\n      jump\t// in\n    tag_735:\n        /* \"#utility.yul\":26470:26509   */\n      tag_736\n        /* \"#utility.yul\":26500:26508   */\n      dup7\n        /* \"#utility.yul\":26489:26498   */\n      dup4\n        /* \"#utility.yul\":26470:26509   */\n      tag_479\n      jump\t// in\n    tag_736:\n        /* \"#utility.yul\":26458:26509   */\n      swap6\n      pop\n        /* \"#utility.yul\":26542:26546   */\n      dup1\n        /* \"#utility.yul\":26538:26547   */\n      not\n        /* \"#utility.yul\":26531:26536   */\n      dup5\n        /* \"#utility.yul\":26527:26548   */\n      and\n        /* \"#utility.yul\":26518:26548   */\n      swap4\n      pop\n        /* \"#utility.yul\":26591:26595   */\n      dup1\n        /* \"#utility.yul\":26581:26589   */\n      dup7\n        /* \"#utility.yul\":26577:26596   */\n      and\n        /* \"#utility.yul\":26570:26575   */\n      dup5\n        /* \"#utility.yul\":26567:26597   */\n      or\n        /* \"#utility.yul\":26557:26597   */\n      swap3\n      pop\n        /* \"#utility.yul\":26286:26603   */\n      pop\n      pop\n        /* \"#utility.yul\":26210:26603   */\n      swap4\n      swap3\n      pop\n      pop\n      pop\n      jump\t// out\n        /* \"#utility.yul\":26609:26669   */\n    tag_481:\n        /* \"#utility.yul\":26637:26640   */\n      0x00\n        /* \"#utility.yul\":26658:26663   */\n      dup2\n        /* \"#utility.yul\":26651:26663   */\n      swap1\n      pop\n        /* \"#utility.yul\":26609:26669   */\n      swap2\n      swap1\n      pop\n      jump\t// out\n        /* \"#utility.yul\":26675:26817   */\n    tag_482:\n        /* \"#utility.yul\":26725:26734   */\n      0x00\n        /* \"#utility.yul\":26758:26811   */\n      tag_739\n        /* \"#utility.yul\":26776:26810   */\n      tag_740\n        /* \"#utility.yul\":26785:26809   */\n      tag_741\n        /* \"#utility.yul\":26803:26808   */\n      dup5\n        /* \"#utility.yul\":26785:26809   */\n      tag_429\n      jump\t// in\n    tag_741:\n        /* \"#utility.yul\":26776:26810   */\n      tag_481\n      jump\t// in\n    tag_740:\n        /* \"#utility.yul\":26758:26811   */\n      tag_429\n      jump\t// in\n    tag_739:\n        /* \"#utility.yul\":26745:26811   */\n      swap1\n      pop\n        /* \"#utility.yul\":26675:26817   */\n      swap2\n      swap1\n      pop\n      jump\t// out\n        /* \"#utility.yul\":26823:26898   */\n    tag_483:\n        /* \"#utility.yul\":26866:26869   */\n      0x00\n        /* \"#utility.yul\":26887:26892   */\n      dup2\n        /* \"#utility.yul\":26880:26892   */\n      swap1\n      pop\n        /* \"#utility.yul\":26823:26898   */\n      swap2\n      swap1\n      pop\n      jump\t// out\n        /* \"#utility.yul\":26904:27173   */\n    tag_484:\n        /* \"#utility.yul\":27014:27053   */\n      tag_744\n        /* \"#utility.yul\":27045:27052   */\n      dup4\n        /* \"#utility.yul\":27014:27053   */\n      tag_482\n      jump\t// in\n    tag_744:\n        /* \"#utility.yul\":27075:27166   */\n      tag_745\n        /* \"#utility.yul\":27124:27165   */\n      tag_746\n        /* \"#utility.yul\":27148:27164   */\n      dup3\n        /* \"#utility.yul\":27124:27165   */\n      tag_483\n      jump\t// in\n    tag_746:\n        /* \"#utility.yul\":27116:27122   */\n      dup5\n        /* \"#utility.yul\":27109:27113   */\n      dup5\n        /* \"#utility.yul\":27103:27114   */\n      sload\n        /* \"#utility.yul\":27075:27166   */\n      tag_480\n      jump\t// in\n    tag_745:\n        /* \"#utility.yul\":27069:27073   */\n      dup3\n        /* \"#utility.yul\":27062:27167   */\n      sstore\n        /* \"#utility.yul\":26980:27173   */\n      pop\n        /* \"#utility.yul\":26904:27173   */\n      pop\n      pop\n      pop\n      jump\t// out\n        /* \"#utility.yul\":27179:27252   */\n    tag_485:\n        /* \"#utility.yul\":27224:27227   */\n      0x00\n        /* \"#utility.yul\":27179:27252   */\n      swap1\n      jump\t// out\n        /* \"#utility.yul\":27258:27447   */\n    tag_486:\n        /* \"#utility.yul\":27335:27367   */\n      tag_749\n      tag_485\n      jump\t// in\n    tag_749:\n        /* \"#utility.yul\":27376:27441   */\n      tag_750\n        /* \"#utility.yul\":27434:27440   */\n      dup2\n        /* \"#utility.yul\":27426:27432   */\n      dup5\n        /* \"#utility.yul\":27420:27424   */\n      dup5\n        /* \"#utility.yul\":27376:27441   */\n      tag_484\n      jump\t// in\n    tag_750:\n        /* \"#utility.yul\":27311:27447   */\n      pop\n        /* \"#utility.yul\":27258:27447   */\n      pop\n      pop\n      jump\t// out\n        /* \"#utility.yul\":27453:27639   */\n    tag_487:\n        /* \"#utility.yul\":27513:27633   */\n    tag_752:\n        /* \"#utility.yul\":27530:27533   */\n      dup2\n        /* \"#utility.yul\":27523:27528   */\n      dup2\n        /* \"#utility.yul\":27520:27534   */\n      lt\n        /* \"#utility.yul\":27513:27633   */\n      iszero\n      tag_754\n      jumpi\n        /* \"#utility.yul\":27584:27623   */\n      tag_755\n        /* \"#utility.yul\":27621:27622   */\n      0x00\n        /* \"#utility.yul\":27614:27619   */\n      dup3\n        /* \"#utility.yul\":27584:27623   */\n      tag_486\n      jump\t// in\n    tag_755:\n        /* \"#utility.yul\":27557:27558   */\n      0x01\n        /* \"#utility.yul\":27550:27555   */\n      dup2\n        /* \"#utility.yul\":27546:27559   */\n      add\n        /* \"#utility.yul\":27537:27559   */\n      swap1\n      pop\n        /* \"#utility.yul\":27513:27633   */\n      jump(tag_752)\n    tag_754:\n        /* \"#utility.yul\":27453:27639   */\n      pop\n      pop\n      jump\t// out\n        /* \"#utility.yul\":27645:28188   */\n    tag_488:\n        /* \"#utility.yul\":27746:27748   */\n      0x1f\n        /* \"#utility.yul\":27741:27744   */\n      dup3\n        /* \"#utility.yul\":27738:27749   */\n      gt\n        /* \"#utility.yul\":27735:28181   */\n      iszero\n      tag_757\n      jumpi\n        /* \"#utility.yul\":27780:27818   */\n      tag_758\n        /* \"#utility.yul\":27812:27817   */\n      dup2\n        /* \"#utility.yul\":27780:27818   */\n      tag_477\n      jump\t// in\n    tag_758:\n        /* \"#utility.yul\":27864:27893   */\n      tag_759\n        /* \"#utility.yul\":27882:27892   */\n      dup5\n        /* \"#utility.yul\":27864:27893   */\n      tag_478\n      jump\t// in\n    tag_759:\n        /* \"#utility.yul\":27854:27862   */\n      dup2\n        /* \"#utility.yul\":27850:27894   */\n      add\n        /* \"#utility.yul\":28047:28049   */\n      0x20\n        /* \"#utility.yul\":28035:28045   */\n      dup6\n        /* \"#utility.yul\":28032:28050   */\n      lt\n        /* \"#utility.yul\":28029:28078   */\n      iszero\n      tag_760\n      jumpi\n        /* \"#utility.yul\":28068:28076   */\n      dup2\n        /* \"#utility.yul\":28053:28076   */\n      swap1\n      pop\n        /* \"#utility.yul\":28029:28078   */\n    tag_760:\n        /* \"#utility.yul\":28091:28171   */\n      tag_761\n        /* \"#utility.yul\":28147:28169   */\n      tag_762\n        /* \"#utility.yul\":28165:28168   */\n      dup6\n        /* \"#utility.yul\":28147:28169   */\n      tag_478\n      jump\t// in\n    tag_762:\n        /* \"#utility.yul\":28137:28145   */\n      dup4\n        /* \"#utility.yul\":28133:28170   */\n      add\n        /* \"#utility.yul\":28120:28131   */\n      dup3\n        /* \"#utility.yul\":28091:28171   */\n      tag_487\n      jump\t// in\n    tag_761:\n        /* \"#utility.yul\":27750:28181   */\n      pop\n      pop\n        /* \"#utility.yul\":27735:28181   */\n    tag_757:\n        /* \"#utility.yul\":27645:28188   */\n      pop\n      pop\n      pop\n      jump\t// out\n        /* \"#utility.yul\":28194:28311   */\n    tag_489:\n        /* \"#utility.yul\":28248:28256   */\n      0x00\n        /* \"#utility.yul\":28298:28303   */\n      dup3\n        /* \"#utility.yul\":28292:28296   */\n      dup3\n        /* \"#utility.yul\":28288:28304   */\n      shr\n        /* \"#utility.yul\":28267:28304   */\n      swap1\n      pop\n        /* \"#utility.yul\":28194:28311   */\n      swap3\n      swap2\n      pop\n      pop\n      jump\t// out\n        /* \"#utility.yul\":28317:28486   */\n    tag_490:\n        /* \"#utility.yul\":28361:28367   */\n      0x00\n        /* \"#utility.yul\":28394:28445   */\n      tag_765\n        /* \"#utility.yul\":28442:28443   */\n      0x00\n        /* \"#utility.yul\":28438:28444   */\n      not\n        /* \"#utility.yul\":28430:28435   */\n      dup5\n        /* \"#utility.yul\":28427:28428   */\n      0x08\n        /* \"#utility.yul\":28423:28436   */\n      mul\n        /* \"#utility.yul\":28394:28445   */\n      tag_489\n      jump\t// in\n    tag_765:\n        /* \"#utility.yul\":28390:28446   */\n      not\n        /* \"#utility.yul\":28475:28479   */\n      dup1\n        /* \"#utility.yul\":28469:28473   */\n      dup4\n        /* \"#utility.yul\":28465:28480   */\n      and\n        /* \"#utility.yul\":28455:28480   */\n      swap2\n      pop\n        /* \"#utility.yul\":28368:28486   */\n      pop\n        /* \"#utility.yul\":28317:28486   */\n      swap3\n      swap2\n      pop\n      pop\n      jump\t// out\n        /* \"#utility.yul\":28491:28786   */\n    tag_491:\n        /* \"#utility.yul\":28567:28571   */\n      0x00\n        /* \"#utility.yul\":28713:28742   */\n      tag_767\n        /* \"#utility.yul\":28738:28741   */\n      dup4\n        /* \"#utility.yul\":28732:28736   */\n      dup4\n        /* \"#utility.yul\":28713:28742   */\n      tag_490\n      jump\t// in\n    tag_767:\n        /* \"#utility.yul\":28705:28742   */\n      swap2\n      pop\n        /* \"#utility.yul\":28775:28778   */\n      dup3\n        /* \"#utility.yul\":28772:28773   */\n      0x02\n        /* \"#utility.yul\":28768:28779   */\n      mul\n        /* \"#utility.yul\":28762:28766   */\n      dup3\n        /* \"#utility.yul\":28759:28780   */\n      or\n        /* \"#utility.yul\":28751:28780   */\n      swap1\n      pop\n        /* \"#utility.yul\":28491:28786   */\n      swap3\n      swap2\n      pop\n      pop\n      jump\t// out\n        /* \"#utility.yul\":28791:30186   */\n    tag_302:\n        /* \"#utility.yul\":28908:28945   */\n      tag_769\n        /* \"#utility.yul\":28941:28944   */\n      dup3\n        /* \"#utility.yul\":28908:28945   */\n      tag_417\n      jump\t// in\n    tag_769:\n        /* \"#utility.yul\":29010:29028   */\n      0xffffffffffffffff\n        /* \"#utility.yul\":29002:29008   */\n      dup2\n        /* \"#utility.yul\":28999:29029   */\n      gt\n        /* \"#utility.yul\":28996:29052   */\n      iszero\n      tag_770\n      jumpi\n        /* \"#utility.yul\":29032:29050   */\n      tag_771\n      tag_476\n      jump\t// in\n    tag_771:\n        /* \"#utility.yul\":28996:29052   */\n    tag_770:\n        /* \"#utility.yul\":29076:29114   */\n      tag_772\n        /* \"#utility.yul\":29108:29112   */\n      dup3\n        /* \"#utility.yul\":29102:29113   */\n      sload\n        /* \"#utility.yul\":29076:29114   */\n      tag_207\n      jump\t// in\n    tag_772:\n        /* \"#utility.yul\":29161:29228   */\n      tag_773\n        /* \"#utility.yul\":29221:29227   */\n      dup3\n        /* \"#utility.yul\":29213:29219   */\n      dup3\n        /* \"#utility.yul\":29207:29211   */\n      dup6\n        /* \"#utility.yul\":29161:29228   */\n      tag_488\n      jump\t// in\n    tag_773:\n        /* \"#utility.yul\":29255:29256   */\n      0x00\n        /* \"#utility.yul\":29279:29283   */\n      0x20\n        /* \"#utility.yul\":29266:29283   */\n      swap1\n      pop\n        /* \"#utility.yul\":29311:29313   */\n      0x1f\n        /* \"#utility.yul\":29303:29309   */\n      dup4\n        /* \"#utility.yul\":29300:29314   */\n      gt\n        /* \"#utility.yul\":29328:29329   */\n      0x01\n        /* \"#utility.yul\":29323:29941   */\n      dup2\n      eq\n      tag_775\n      jumpi\n        /* \"#utility.yul\":29985:29986   */\n      0x00\n        /* \"#utility.yul\":30002:30008   */\n      dup5\n        /* \"#utility.yul\":29999:30076   */\n      iszero\n      tag_776\n      jumpi\n        /* \"#utility.yul\":30051:30060   */\n      dup3\n        /* \"#utility.yul\":30046:30049   */\n      dup8\n        /* \"#utility.yul\":30042:30061   */\n      add\n        /* \"#utility.yul\":30036:30062   */\n      mload\n        /* \"#utility.yul\":30027:30062   */\n      swap1\n      pop\n        /* \"#utility.yul\":29999:30076   */\n    tag_776:\n        /* \"#utility.yul\":30102:30169   */\n      tag_777\n        /* \"#utility.yul\":30162:30168   */\n      dup6\n        /* \"#utility.yul\":30155:30160   */\n      dup3\n        /* \"#utility.yul\":30102:30169   */\n      tag_491\n      jump\t// in\n    tag_777:\n        /* \"#utility.yul\":30096:30100   */\n      dup7\n        /* \"#utility.yul\":30089:30170   */\n      sstore\n        /* \"#utility.yul\":29958:30180   */\n      pop\n        /* \"#utility.yul\":29293:30180   */\n      jump(tag_774)\n        /* \"#utility.yul\":29323:29941   */\n    tag_775:\n        /* \"#utility.yul\":29375:29379   */\n      0x1f\n        /* \"#utility.yul\":29371:29380   */\n      not\n        /* \"#utility.yul\":29363:29369   */\n      dup5\n        /* \"#utility.yul\":29359:29381   */\n      and\n        /* \"#utility.yul\":29409:29446   */\n      tag_778\n        /* \"#utility.yul\":29441:29445   */\n      dup7\n        /* \"#utility.yul\":29409:29446   */\n      tag_477\n      jump\t// in\n    tag_778:\n        /* \"#utility.yul\":29468:29469   */\n      0x00\n        /* \"#utility.yul\":29482:29690   */\n    tag_779:\n        /* \"#utility.yul\":29496:29503   */\n      dup3\n        /* \"#utility.yul\":29493:29494   */\n      dup2\n        /* \"#utility.yul\":29490:29504   */\n      lt\n        /* \"#utility.yul\":29482:29690   */\n      iszero\n      tag_781\n      jumpi\n        /* \"#utility.yul\":29575:29584   */\n      dup5\n        /* \"#utility.yul\":29570:29573   */\n      dup10\n        /* \"#utility.yul\":29566:29585   */\n      add\n        /* \"#utility.yul\":29560:29586   */\n      mload\n        /* \"#utility.yul\":29552:29558   */\n      dup3\n        /* \"#utility.yul\":29545:29587   */\n      sstore\n        /* \"#utility.yul\":29626:29627   */\n      0x01\n        /* \"#utility.yul\":29618:29624   */\n      dup3\n        /* \"#utility.yul\":29614:29628   */\n      add\n        /* \"#utility.yul\":29604:29628   */\n      swap2\n      pop\n        /* \"#utility.yul\":29673:29675   */\n      0x20\n        /* \"#utility.yul\":29662:29671   */\n      dup6\n        /* \"#utility.yul\":29658:29676   */\n      add\n        /* \"#utility.yul\":29645:29676   */\n      swap5\n      pop\n        /* \"#utility.yul\":29519:29523   */\n      0x20\n        /* \"#utility.yul\":29516:29517   */\n      dup2\n        /* \"#utility.yul\":29512:29524   */\n      add\n        /* \"#utility.yul\":29507:29524   */\n      swap1\n      pop\n        /* \"#utility.yul\":29482:29690   */\n      jump(tag_779)\n    tag_781:\n        /* \"#utility.yul\":29718:29724   */\n      dup7\n        /* \"#utility.yul\":29709:29716   */\n      dup4\n        /* \"#utility.yul\":29706:29725   */\n      lt\n        /* \"#utility.yul\":29703:29882   */\n      iszero\n      tag_782\n      jumpi\n        /* \"#utility.yul\":29776:29785   */\n      dup5\n        /* \"#utility.yul\":29771:29774   */\n      dup10\n        /* \"#utility.yul\":29767:29786   */\n      add\n        /* \"#utility.yul\":29761:29787   */\n      mload\n        /* \"#utility.yul\":29819:29867   */\n      tag_783\n        /* \"#utility.yul\":29861:29865   */\n      0x1f\n        /* \"#utility.yul\":29853:29859   */\n      dup10\n        /* \"#utility.yul\":29849:29866   */\n      and\n        /* \"#utility.yul\":29838:29847   */\n      dup3\n        /* \"#utility.yul\":29819:29867   */\n      tag_490\n      jump\t// in\n    tag_783:\n        /* \"#utility.yul\":29811:29817   */\n      dup4\n        /* \"#utility.yul\":29804:29868   */\n      sstore\n        /* \"#utility.yul\":29726:29882   */\n      pop\n        /* \"#utility.yul\":29703:29882   */\n    tag_782:\n        /* \"#utility.yul\":29928:29929   */\n      0x01\n        /* \"#utility.yul\":29924:29925   */\n      0x02\n        /* \"#utility.yul\":29916:29922   */\n      dup9\n        /* \"#utility.yul\":29912:29926   */\n      mul\n        /* \"#utility.yul\":29908:29930   */\n      add\n        /* \"#utility.yul\":29902:29906   */\n      dup9\n        /* \"#utility.yul\":29895:29931   */\n      sstore\n        /* \"#utility.yul\":29330:29941   */\n      pop\n      pop\n      pop\n        /* \"#utility.yul\":29293:30180   */\n    tag_774:\n      pop\n        /* \"#utility.yul\":28883:30186   */\n      pop\n      pop\n      pop\n        /* \"#utility.yul\":28791:30186   */\n      pop\n      pop\n      jump\t// out\n        /* \"#utility.yul\":30192:30368   */\n    tag_492:\n        /* \"#utility.yul\":30332:30360   */\n      0x4f6e792061646d696e6973747261746f722063616e2063616c6c000000000000\n        /* \"#utility.yul\":30328:30329   */\n      0x00\n        /* \"#utility.yul\":30320:30326   */\n      dup3\n        /* \"#utility.yul\":30316:30330   */\n      add\n        /* \"#utility.yul\":30309:30361   */\n      mstore\n        /* \"#utility.yul\":30192:30368   */\n      pop\n      jump\t// out\n        /* \"#utility.yul\":30374:30740   */\n    tag_493:\n        /* \"#utility.yul\":30516:30519   */\n      0x00\n        /* \"#utility.yul\":30537:30604   */\n      tag_786\n        /* \"#utility.yul\":30601:30603   */\n      0x1a\n        /* \"#utility.yul\":30596:30599   */\n      dup4\n        /* \"#utility.yul\":30537:30604   */\n      tag_418\n      jump\t// in\n    tag_786:\n        /* \"#utility.yul\":30530:30604   */\n      swap2\n      pop\n        /* \"#utility.yul\":30613:30706   */\n      tag_787\n        /* \"#utility.yul\":30702:30705   */\n      dup3\n        /* \"#utility.yul\":30613:30706   */\n      tag_492\n      jump\t// in\n    tag_787:\n        /* \"#utility.yul\":30731:30733   */\n      0x20\n        /* \"#utility.yul\":30726:30729   */\n      dup3\n        /* \"#utility.yul\":30722:30734   */\n      add\n        /* \"#utility.yul\":30715:30734   */\n      swap1\n      pop\n        /* \"#utility.yul\":30374:30740   */\n      swap2\n      swap1\n      pop\n      jump\t// out\n        /* \"#utility.yul\":30746:31165   */\n    tag_310:\n        /* \"#utility.yul\":30912:30916   */\n      0x00\n        /* \"#utility.yul\":30950:30952   */\n      0x20\n        /* \"#utility.yul\":30939:30948   */\n      dup3\n        /* \"#utility.yul\":30935:30953   */\n      add\n        /* \"#utility.yul\":30927:30953   */\n      swap1\n      pop\n        /* \"#utility.yul\":30999:31008   */\n      dup2\n        /* \"#utility.yul\":30993:30997   */\n      dup2\n        /* \"#utility.yul\":30989:31009   */\n      sub\n        /* \"#utility.yul\":30985:30986   */\n      0x00\n        /* \"#utility.yul\":30974:30983   */\n      dup4\n        /* \"#utility.yul\":30970:30987   */\n      add\n        /* \"#utility.yul\":30963:31010   */\n      mstore\n        /* \"#utility.yul\":31027:31158   */\n      tag_789\n        /* \"#utility.yul\":31153:31157   */\n      dup2\n        /* \"#utility.yul\":31027:31158   */\n      tag_493\n      jump\t// in\n    tag_789:\n        /* \"#utility.yul\":31019:31158   */\n      swap1\n      pop\n        /* \"#utility.yul\":30746:31165   */\n      swap2\n      swap1\n      pop\n      jump\t// out\n        /* \"#utility.yul\":31171:31392   */\n    tag_494:\n        /* \"#utility.yul\":31311:31345   */\n      0x4f6e6c792041646d696e732043616e2043616c6c20546869732046756e637469\n        /* \"#utility.yul\":31307:31308   */\n      0x00\n        /* \"#utility.yul\":31299:31305   */\n      dup3\n        /* \"#utility.yul\":31295:31309   */\n      add\n        /* \"#utility.yul\":31288:31346   */\n      mstore\n        /* \"#utility.yul\":31380:31384   */\n      0x6f6e000000000000000000000000000000000000000000000000000000000000\n        /* \"#utility.yul\":31375:31377   */\n      0x20\n        /* \"#utility.yul\":31367:31373   */\n      dup3\n        /* \"#utility.yul\":31363:31378   */\n      add\n        /* \"#utility.yul\":31356:31385   */\n      mstore\n        /* \"#utility.yul\":31171:31392   */\n      pop\n      jump\t// out\n        /* \"#utility.yul\":31398:31764   */\n    tag_495:\n        /* \"#utility.yul\":31540:31543   */\n      0x00\n        /* \"#utility.yul\":31561:31628   */\n      tag_792\n        /* \"#utility.yul\":31625:31627   */\n      0x22\n        /* \"#utility.yul\":31620:31623   */\n      dup4\n        /* \"#utility.yul\":31561:31628   */\n      tag_418\n      jump\t// in\n    tag_792:\n        /* \"#utility.yul\":31554:31628   */\n      swap2\n      pop\n        /* \"#utility.yul\":31637:31730   */\n      tag_793\n        /* \"#utility.yul\":31726:31729   */\n      dup3\n        /* \"#utility.yul\":31637:31730   */\n      tag_494\n      jump\t// in\n    tag_793:\n        /* \"#utility.yul\":31755:31757   */\n      0x40\n        /* \"#utility.yul\":31750:31753   */\n      dup3\n        /* \"#utility.yul\":31746:31758   */\n      add\n        /* \"#utility.yul\":31739:31758   */\n      swap1\n      pop\n        /* \"#utility.yul\":31398:31764   */\n      swap2\n      swap1\n      pop\n      jump\t// out\n        /* \"#utility.yul\":31770:32189   */\n    tag_317:\n        /* \"#utility.yul\":31936:31940   */\n      0x00\n        /* \"#utility.yul\":31974:31976   */\n      0x20\n        /* \"#utility.yul\":31963:31972   */\n      dup3\n        /* \"#utility.yul\":31959:31977   */\n      add\n        /* \"#utility.yul\":31951:31977   */\n      swap1\n      pop\n        /* \"#utility.yul\":32023:32032   */\n      dup2\n        /* \"#utility.yul\":32017:32021   */\n      dup2\n        /* \"#utility.yul\":32013:32033   */\n      sub\n        /* \"#utility.yul\":32009:32010   */\n      0x00\n        /* \"#utility.yul\":31998:32007   */\n      dup4\n        /* \"#utility.yul\":31994:32011   */\n      add\n        /* \"#utility.yul\":31987:32034   */\n      mstore\n        /* \"#utility.yul\":32051:32182   */\n      tag_795\n        /* \"#utility.yul\":32177:32181   */\n      dup2\n        /* \"#utility.yul\":32051:32182   */\n      tag_495\n      jump\t// in\n    tag_795:\n        /* \"#utility.yul\":32043:32182   */\n      swap1\n      pop\n        /* \"#utility.yul\":31770:32189   */\n      swap2\n      swap1\n      pop\n      jump\t// out\n        /* \"#utility.yul\":32195:32372   */\n    tag_496:\n        /* \"#utility.yul\":32335:32364   */\n      0x4f6e6c792061646d696e6973747261746f722063616e2063616c6c0000000000\n        /* \"#utility.yul\":32331:32332   */\n      0x00\n        /* \"#utility.yul\":32323:32329   */\n      dup3\n        /* \"#utility.yul\":32319:32333   */\n      add\n        /* \"#utility.yul\":32312:32365   */\n      mstore\n        /* \"#utility.yul\":32195:32372   */\n      pop\n      jump\t// out\n        /* \"#utility.yul\":32378:32744   */\n    tag_497:\n        /* \"#utility.yul\":32520:32523   */\n      0x00\n        /* \"#utility.yul\":32541:32608   */\n      tag_798\n        /* \"#utility.yul\":32605:32607   */\n      0x1b\n        /* \"#utility.yul\":32600:32603   */\n      dup4\n        /* \"#utility.yul\":32541:32608   */\n      tag_418\n      jump\t// in\n    tag_798:\n        /* \"#utility.yul\":32534:32608   */\n      swap2\n      pop\n        /* \"#utility.yul\":32617:32710   */\n      tag_799\n        /* \"#utility.yul\":32706:32709   */\n      dup3\n        /* \"#utility.yul\":32617:32710   */\n      tag_496\n      jump\t// in\n    tag_799:\n        /* \"#utility.yul\":32735:32737   */\n      0x20\n        /* \"#utility.yul\":32730:32733   */\n      dup3\n        /* \"#utility.yul\":32726:32738   */\n      add\n        /* \"#utility.yul\":32719:32738   */\n      swap1\n      pop\n        /* \"#utility.yul\":32378:32744   */\n      swap2\n      swap1\n      pop\n      jump\t// out\n        /* \"#utility.yul\":32750:33169   */\n    tag_325:\n        /* \"#utility.yul\":32916:32920   */\n      0x00\n        /* \"#utility.yul\":32954:32956   */\n      0x20\n        /* \"#utility.yul\":32943:32952   */\n      dup3\n        /* \"#utility.yul\":32939:32957   */\n      add\n        /* \"#utility.yul\":32931:32957   */\n      swap1\n      pop\n        /* \"#utility.yul\":33003:33012   */\n      dup2\n        /* \"#utility.yul\":32997:33001   */\n      dup2\n        /* \"#utility.yul\":32993:33013   */\n      sub\n        /* \"#utility.yul\":32989:32990   */\n      0x00\n        /* \"#utility.yul\":32978:32987   */\n      dup4\n        /* \"#utility.yul\":32974:32991   */\n      add\n        /* \"#utility.yul\":32967:33014   */\n      mstore\n        /* \"#utility.yul\":33031:33162   */\n      tag_801\n        /* \"#utility.yul\":33157:33161   */\n      dup2\n        /* \"#utility.yul\":33031:33162   */\n      tag_497\n      jump\t// in\n    tag_801:\n        /* \"#utility.yul\":33023:33162   */\n      swap1\n      pop\n        /* \"#utility.yul\":32750:33169   */\n      swap2\n      swap1\n      pop\n      jump\t// out\n        /* \"#utility.yul\":33175:33395   */\n    tag_498:\n        /* \"#utility.yul\":33315:33349   */\n      0x4d696e7465722043616e204e6f74204772616e742048696d73656c6620726f6c\n        /* \"#utility.yul\":33311:33312   */\n      0x00\n        /* \"#utility.yul\":33303:33309   */\n      dup3\n        /* \"#utility.yul\":33299:33313   */\n      add\n        /* \"#utility.yul\":33292:33350   */\n      mstore\n        /* \"#utility.yul\":33384:33387   */\n      0x6500000000000000000000000000000000000000000000000000000000000000\n        /* \"#utility.yul\":33379:33381   */\n      0x20\n        /* \"#utility.yul\":33371:33377   */\n      dup3\n        /* \"#utility.yul\":33367:33382   */\n      add\n        /* \"#utility.yul\":33360:33388   */\n      mstore\n        /* \"#utility.yul\":33175:33395   */\n      pop\n      jump\t// out\n        /* \"#utility.yul\":33401:33767   */\n    tag_499:\n        /* \"#utility.yul\":33543:33546   */\n      0x00\n        /* \"#utility.yul\":33564:33631   */\n      tag_804\n        /* \"#utility.yul\":33628:33630   */\n      0x21\n        /* \"#utility.yul\":33623:33626   */\n      dup4\n        /* \"#utility.yul\":33564:33631   */\n      tag_418\n      jump\t// in\n    tag_804:\n        /* \"#utility.yul\":33557:33631   */\n      swap2\n      pop\n        /* \"#utility.yul\":33640:33733   */\n      tag_805\n        /* \"#utility.yul\":33729:33732   */\n      dup3\n        /* \"#utility.yul\":33640:33733   */\n      tag_498\n      jump\t// in\n    tag_805:\n        /* \"#utility.yul\":33758:33760   */\n      0x40\n        /* \"#utility.yul\":33753:33756   */\n      dup3\n        /* \"#utility.yul\":33749:33761   */\n      add\n        /* \"#utility.yul\":33742:33761   */\n      swap1\n      pop\n        /* \"#utility.yul\":33401:33767   */\n      swap2\n      swap1\n      pop\n      jump\t// out\n        /* \"#utility.yul\":33773:34192   */\n    tag_332:\n        /* \"#utility.yul\":33939:33943   */\n      0x00\n        /* \"#utility.yul\":33977:33979   */\n      0x20\n        /* \"#utility.yul\":33966:33975   */\n      dup3\n        /* \"#utility.yul\":33962:33980   */\n      add\n        /* \"#utility.yul\":33954:33980   */\n      swap1\n      pop\n        /* \"#utility.yul\":34026:34035   */\n      dup2\n        /* \"#utility.yul\":34020:34024   */\n      dup2\n        /* \"#utility.yul\":34016:34036   */\n      sub\n        /* \"#utility.yul\":34012:34013   */\n      0x00\n        /* \"#utility.yul\":34001:34010   */\n      dup4\n        /* \"#utility.yul\":33997:34014   */\n      add\n        /* \"#utility.yul\":33990:34037   */\n      mstore\n        /* \"#utility.yul\":34054:34185   */\n      tag_807\n        /* \"#utility.yul\":34180:34184   */\n      dup2\n        /* \"#utility.yul\":34054:34185   */\n      tag_499\n      jump\t// in\n    tag_807:\n        /* \"#utility.yul\":34046:34185   */\n      swap1\n      pop\n        /* \"#utility.yul\":33773:34192   */\n      swap2\n      swap1\n      pop\n      jump\t// out\n        /* \"#utility.yul\":34198:34373   */\n    tag_500:\n        /* \"#utility.yul\":34338:34365   */\n      0x416c7265616479204772616e746564205468697320526f6c6500000000000000\n        /* \"#utility.yul\":34334:34335   */\n      0x00\n        /* \"#utility.yul\":34326:34332   */\n      dup3\n        /* \"#utility.yul\":34322:34336   */\n      add\n        /* \"#utility.yul\":34315:34366   */\n      mstore\n        /* \"#utility.yul\":34198:34373   */\n      pop\n      jump\t// out\n        /* \"#utility.yul\":34379:34745   */\n    tag_501:\n        /* \"#utility.yul\":34521:34524   */\n      0x00\n        /* \"#utility.yul\":34542:34609   */\n      tag_810\n        /* \"#utility.yul\":34606:34608   */\n      0x19\n        /* \"#utility.yul\":34601:34604   */\n      dup4\n        /* \"#utility.yul\":34542:34609   */\n      tag_418\n      jump\t// in\n    tag_810:\n        /* \"#utility.yul\":34535:34609   */\n      swap2\n      pop\n        /* \"#utility.yul\":34618:34711   */\n      tag_811\n        /* \"#utility.yul\":34707:34710   */\n      dup3\n        /* \"#utility.yul\":34618:34711   */\n      tag_500\n      jump\t// in\n    tag_811:\n        /* \"#utility.yul\":34736:34738   */\n      0x20\n        /* \"#utility.yul\":34731:34734   */\n      dup3\n        /* \"#utility.yul\":34727:34739   */\n      add\n        /* \"#utility.yul\":34720:34739   */\n      swap1\n      pop\n        /* \"#utility.yul\":34379:34745   */\n      swap2\n      swap1\n      pop\n      jump\t// out\n        /* \"#utility.yul\":34751:35170   */\n    tag_335:\n        /* \"#utility.yul\":34917:34921   */\n      0x00\n        /* \"#utility.yul\":34955:34957   */\n      0x20\n        /* \"#utility.yul\":34944:34953   */\n      dup3\n        /* \"#utility.yul\":34940:34958   */\n      add\n        /* \"#utility.yul\":34932:34958   */\n      swap1\n      pop\n        /* \"#utility.yul\":35004:35013   */\n      dup2\n        /* \"#utility.yul\":34998:35002   */\n      dup2\n        /* \"#utility.yul\":34994:35014   */\n      sub\n        /* \"#utility.yul\":34990:34991   */\n      0x00\n        /* \"#utility.yul\":34979:34988   */\n      dup4\n        /* \"#utility.yul\":34975:34992   */\n      add\n        /* \"#utility.yul\":34968:35015   */\n      mstore\n        /* \"#utility.yul\":35032:35163   */\n      tag_813\n        /* \"#utility.yul\":35158:35162   */\n      dup2\n        /* \"#utility.yul\":35032:35163   */\n      tag_501\n      jump\t// in\n    tag_813:\n        /* \"#utility.yul\":35024:35163   */\n      swap1\n      pop\n        /* \"#utility.yul\":34751:35170   */\n      swap2\n      swap1\n      pop\n      jump\t// out\n        /* \"#utility.yul\":35176:35356   */\n    tag_366:\n        /* \"#utility.yul\":35224:35301   */\n      0x4e487b7100000000000000000000000000000000000000000000000000000000\n        /* \"#utility.yul\":35221:35222   */\n      0x00\n        /* \"#utility.yul\":35214:35302   */\n      mstore\n        /* \"#utility.yul\":35321:35325   */\n      0x32\n        /* \"#utility.yul\":35318:35319   */\n      0x04\n        /* \"#utility.yul\":35311:35326   */\n      mstore\n        /* \"#utility.yul\":35345:35349   */\n      0x24\n        /* \"#utility.yul\":35342:35343   */\n      0x00\n        /* \"#utility.yul\":35335:35350   */\n      revert\n        /* \"#utility.yul\":35362:35531   */\n    tag_502:\n        /* \"#utility.yul\":35502:35523   */\n      0x6e6f206e6f74206f6e20626c61636b6c69737400000000000000000000000000\n        /* \"#utility.yul\":35498:35499   */\n      0x00\n        /* \"#utility.yul\":35490:35496   */\n      dup3\n        /* \"#utility.yul\":35486:35500   */\n      add\n        /* \"#utility.yul\":35479:35524   */\n      mstore\n        /* \"#utility.yul\":35362:35531   */\n      pop\n      jump\t// out\n        /* \"#utility.yul\":35537:35903   */\n    tag_503:\n        /* \"#utility.yul\":35679:35682   */\n      0x00\n        /* \"#utility.yul\":35700:35767   */\n      tag_817\n        /* \"#utility.yul\":35764:35766   */\n      0x13\n        /* \"#utility.yul\":35759:35762   */\n      dup4\n        /* \"#utility.yul\":35700:35767   */\n      tag_418\n      jump\t// in\n    tag_817:\n        /* \"#utility.yul\":35693:35767   */\n      swap2\n      pop\n        /* \"#utility.yul\":35776:35869   */\n      tag_818\n        /* \"#utility.yul\":35865:35868   */\n      dup3\n        /* \"#utility.yul\":35776:35869   */\n      tag_502\n      jump\t// in\n    tag_818:\n        /* \"#utility.yul\":35894:35896   */\n      0x20\n        /* \"#utility.yul\":35889:35892   */\n      dup3\n        /* \"#utility.yul\":35885:35897   */\n      add\n        /* \"#utility.yul\":35878:35897   */\n      swap1\n      pop\n        /* \"#utility.yul\":35537:35903   */\n      swap2\n      swap1\n      pop\n      jump\t// out\n        /* \"#utility.yul\":35909:36328   */\n    tag_385:\n        /* \"#utility.yul\":36075:36079   */\n      0x00\n        /* \"#utility.yul\":36113:36115   */\n      0x20\n        /* \"#utility.yul\":36102:36111   */\n      dup3\n        /* \"#utility.yul\":36098:36116   */\n      add\n        /* \"#utility.yul\":36090:36116   */\n      swap1\n      pop\n        /* \"#utility.yul\":36162:36171   */\n      dup2\n        /* \"#utility.yul\":36156:36160   */\n      dup2\n        /* \"#utility.yul\":36152:36172   */\n      sub\n        /* \"#utility.yul\":36148:36149   */\n      0x00\n        /* \"#utility.yul\":36137:36146   */\n      dup4\n        /* \"#utility.yul\":36133:36150   */\n      add\n        /* \"#utility.yul\":36126:36173   */\n      mstore\n        /* \"#utility.yul\":36190:36321   */\n      tag_820\n        /* \"#utility.yul\":36316:36320   */\n      dup2\n        /* \"#utility.yul\":36190:36321   */\n      tag_503\n      jump\t// in\n    tag_820:\n        /* \"#utility.yul\":36182:36321   */\n      swap1\n      pop\n        /* \"#utility.yul\":35909:36328   */\n      swap2\n      swap1\n      pop\n      jump\t// out\n\n    auxdata: 0xa26469706673582212208f07d7933c31cb230ccd1dd6a83453d7a1d59e3226d12abb5b6764f57d2b271964736f6c63430008130033\n}\n",
				"bytecode": {
					"linkReferences": {},
					"object": "60806040526040518060400160405280600881526020017f54657420546f656e000000000000000000000000000000000000000000000000815250600090816200004a9190620003f0565b506040518060400160405280600381526020017f546574000000000000000000000000000000000000000000000000000000000081525060019081620000919190620003f0565b50670de0b6b3a7640000600255348015620000ab57600080fd5b5033600460006101000a81548173ffffffffffffffffffffffffffffffffffffffff021916908373ffffffffffffffffffffffffffffffffffffffff1602179055506000600460146101000a81548160ff0219169083151502179055506107d060066000600460009054906101000a900473ffffffffffffffffffffffffffffffffffffffff1673ffffffffffffffffffffffffffffffffffffffff1673ffffffffffffffffffffffffffffffffffffffff16815260200190815260200160002081905550620004d7565b600081519050919050565b7f4e487b7100000000000000000000000000000000000000000000000000000000600052604160045260246000fd5b7f4e487b7100000000000000000000000000000000000000000000000000000000600052602260045260246000fd5b60006002820490506001821680620001f857607f821691505b6020821081036200020e576200020d620001b0565b5b50919050565b60008190508160005260206000209050919050565b60006020601f8301049050919050565b600082821b905092915050565b600060088302620002787fffffffffffffffffffffffffffffffffffffffffffffffffffffffffffffffff8262000239565b62000284868362000239565b95508019841693508086168417925050509392505050565b6000819050919050565b6000819050919050565b6000620002d1620002cb620002c5846200029c565b620002a6565b6200029c565b9050919050565b6000819050919050565b620002ed83620002b0565b62000305620002fc82620002d8565b84845462000246565b825550505050565b600090565b6200031c6200030d565b62000329818484620002e2565b505050565b5b8181101562000351576200034560008262000312565b6001810190506200032f565b5050565b601f821115620003a0576200036a8162000214565b620003758462000229565b8101602085101562000385578190505b6200039d620003948562000229565b8301826200032e565b50505b505050565b600082821c905092915050565b6000620003c560001984600802620003a5565b1980831691505092915050565b6000620003e08383620003b2565b9150826002028217905092915050565b620003fb8262000176565b67ffffffffffffffff81111562000417576200041662000181565b5b620004238254620001df565b6200043082828562000355565b600060209050601f83116001811462000468576000841562000453578287015190505b6200045f8582620003d2565b865550620004cf565b601f198416620004788662000214565b60005b82811015620004a2578489015182556001820191506020850194506020810190506200047b565b86831015620004c25784890151620004be601f891682620003b2565b8355505b6001600288020188555050505b505050505050565b61450280620004e76000396000f3fe608060405234801561001057600080fd5b506004361061023d5760003560e01c806370a082311161013b578063c0446a7d116100b8578063eb91e6511161007c578063eb91e651146107bb578063f1d2b3c2146107eb578063f9f92be414610809578063fc5f505d14610839578063fe575a87146108575761023d565b8063c0446a7d146106c7578063ceca9ffb146106f7578063dd62ed3e1461072b578063e0639f5c1461075b578063e43252d71461078b5761023d565b806395d89b41116100ff57806395d89b41146105e95780639b19251a146106075780639cfe42da14610637578063a24ed45214610667578063a9059cbb146106975761023d565b806370a082311461051d57806374db30641461054d5780637c91b15e1461056b5780638456cb591461059b5780638ab1d681146105b95761023d565b806340180920116101c95780634975d2021161018d5780634975d20214610463578063499d0379146104815780634b38b4531461049f57806357d50b9d146104cf57806369507da8146104eb5761023d565b806340180920146103bc57806340c10f19146103da5780634163fd02146103f657806342966c6814610414578063476b49bc146104305761023d565b8063208532391161021057806320853239146102de57806323b872dd1461030e5780632c69953b1461033e5780633af32abf1461036e5780633f4ba83a1461039e5761023d565b806306fdde0314610242578063095ea7b31461026057806312cae7af1461029057806318160ddd146102c0575b600080fd5b61024a610887565b60405161025791906132c8565b60405180910390f35b61027a60048036038101906102759190613383565b610915565b60405161028791906133de565b60405180910390f35b6102aa60048036038101906102a591906133f9565b610b4c565b6040516102b79190613435565b60405180910390f35b6102c8610b95565b6040516102d59190613435565b60405180910390f35b6102f860048036038101906102f391906133f9565b610b9b565b60405161030591906134c7565b60405180910390f35b610328600480360381019061032391906134e2565b610bbb565b60405161033591906133de565b60405180910390f35b61035860048036038101906103539190613535565b6110b6565b6040516103659190613571565b60405180910390f35b610388600480360381019061038391906133f9565b6110f5565b60405161039591906133de565b60405180910390f35b6103a661114b565b6040516103b391906133de565b60405180910390f35b6103c46111fb565b6040516103d19190613435565b60405180910390f35b6103f460048036038101906103ef9190613383565b611249565b005b6103fe611408565b60405161040b9190613435565b60405180910390f35b61042e60048036038101906104299190613535565b61140e565b005b61044a600480360381019061044591906133f9565b6115ab565b60405161045a949392919061358c565b60405180910390f35b61046b61176e565b6040516104789190613435565b60405180910390f35b6104896117d7565b6040516104969190613696565b60405180910390f35b6104b960048036038101906104b49190613535565b611865565b6040516104c69190613571565b60405180910390f35b6104e960048036038101906104e491906133f9565b6118a4565b005b610505600480360381019061050091906136dd565b611a30565b60405161051493929190613758565b60405180910390f35b610537600480360381019061053291906133f9565b612446565b6040516105449190613435565b60405180910390f35b61055561245e565b6040516105629190613571565b60405180910390f35b6105856004803603810190610580919061378f565b612488565b6040516105929190613435565b60405180910390f35b6105a36124ad565b6040516105b091906133de565b60405180910390f35b6105d360048036038101906105ce91906133f9565b61255d565b6040516105e09190613696565b60405180910390f35b6105f1612727565b6040516105fe91906132c8565b60405180910390f35b610621600480360381019061061c91906133f9565b6127b5565b60405161062e91906133de565b60405180910390f35b610651600480360381019061064c91906133f9565b6127d5565b60405161065e9190613696565b60405180910390f35b610681600480360381019061067c9190613383565b612920565b60405161068e9190613435565b60405180910390f35b6106b160048036038101906106ac9190613383565b6129ac565b6040516106be91906133de565b60405180910390f35b6106e160048036038101906106dc91906137cf565b612cc6565b6040516106ee91906133de565b60405180910390f35b610711600480360381019061070c91906133f9565b612cf5565b60405161072295949392919061380f565b60405180910390f35b6107456004803603810190610740919061378f565b612dfa565b6040516107529190613435565b60405180910390f35b61077560048036038101906107709190613535565b612e1f565b6040516107829190613571565b60405180910390f35b6107a560048036038101906107a091906133f9565b612e5e565b6040516107b29190613696565b60405180910390f35b6107d560048036038101906107d091906133f9565b613039565b6040516107e29190613696565b60405180910390f35b6107f3613173565b6040516108009190613571565b60405180910390f35b610823600480360381019061081e91906133f9565b61317b565b60405161083091906133de565b60405180910390f35b61084161319b565b60405161084e9190613435565b60405180910390f35b610871600480360381019061086c91906133f9565b6131e2565b60405161087e91906133de565b60405180910390f35b6000805461089490613898565b80601f01602080910402602001604051908101604052809291908181526020018280546108c090613898565b801561090d5780601f106108e25761010080835404028352916020019161090d565b820191906000526020600020905b8154815290600101906020018083116108f057829003601f168201915b505050505081565b60008273ffffffffffffffffffffffffffffffffffffffff163373ffffffffffffffffffffffffffffffffffffffff1603610985576040517f08c379a000000000000000000000000000000000000000000000000000000000815260040161097c90613915565b60405180910390fd5b81600660003373ffffffffffffffffffffffffffffffffffffffff1673ffffffffffffffffffffffffffffffffffffffff1681526020019081526020016000205411610a06576040517f08c379a00000000000000000000000000000000000000000000000000000000081526004016109fd90613981565b60405180910390fd5b81600560003373ffffffffffffffffffffffffffffffffffffffff1673ffffffffffffffffffffffffffffffffffffffff16815260200190815260200160002060008573ffffffffffffffffffffffffffffffffffffffff1673ffffffffffffffffffffffffffffffffffffffff1681526020019081526020016000208190555081600660003373ffffffffffffffffffffffffffffffffffffffff1673ffffffffffffffffffffffffffffffffffffffff1681526020019081526020016000206000828254610ad691906139d0565b925050819055508273ffffffffffffffffffffffffffffffffffffffff163373ffffffffffffffffffffffffffffffffffffffff167f8c5be1e5ebec7d5bd14f71427d1e84f3dd0314c0f7b2291e5b200ac8c7c3b92584604051610b3a9190613435565b60405180910390a36001905092915050565b6000600660008373ffffffffffffffffffffffffffffffffffffffff1673ffffffffffffffffffffffffffffffffffffffff168152602001908152602001600020549050919050565b60035481565b600e6020528060005260406000206000915054906101000a900460ff1681565b600081600660008673ffffffffffffffffffffffffffffffffffffffff1673ffffffffffffffffffffffffffffffffffffffff1681526020019081526020016000205411610c3e576040517f08c379a0000000000000000000000000000000000000000000000000000000008152600401610c3590613a50565b60405180910390fd5b60011515600860008573ffffffffffffffffffffffffffffffffffffffff1673ffffffffffffffffffffffffffffffffffffffff16815260200190815260200160002060009054906101000a900460ff16151514610cd1576040517f08c379a0000000000000000000000000000000000000000000000000000000008152600401610cc890613ae2565b60405180910390fd5b600760008573ffffffffffffffffffffffffffffffffffffffff1673ffffffffffffffffffffffffffffffffffffffff16815260200190815260200160002060009054906101000a900460ff16158015610d755750600760008473ffffffffffffffffffffffffffffffffffffffff1673ffffffffffffffffffffffffffffffffffffffff16815260200190815260200160002060009054906101000a900460ff16155b610db4576040517f08c379a0000000000000000000000000000000000000000000000000000000008152600401610dab90613b4e565b60405180910390fd5b60008211610df7576040517f08c379a0000000000000000000000000000000000000000000000000000000008152600401610dee90613bba565b60405180910390fd5b60001515600460149054906101000a900460ff16151514610e4d576040517f08c379a0000000000000000000000000000000000000000000000000000000008152600401610e4490613c26565b60405180910390fd5b81600560008673ffffffffffffffffffffffffffffffffffffffff1673ffffffffffffffffffffffffffffffffffffffff16815260200190815260200160002060008573ffffffffffffffffffffffffffffffffffffffff1673ffffffffffffffffffffffffffffffffffffffff1681526020019081526020016000205411610f0b576040517f08c379a0000000000000000000000000000000000000000000000000000000008152600401610f0290613c92565b60405180910390fd5b81600560008673ffffffffffffffffffffffffffffffffffffffff1673ffffffffffffffffffffffffffffffffffffffff16815260200190815260200160002060008573ffffffffffffffffffffffffffffffffffffffff1673ffffffffffffffffffffffffffffffffffffffff1681526020019081526020016000206000828254610f9791906139d0565b9250508190555081600660008673ffffffffffffffffffffffffffffffffffffffff1673ffffffffffffffffffffffffffffffffffffffff1681526020019081526020016000206000828254610fed91906139d0565b9250508190555081600660008573ffffffffffffffffffffffffffffffffffffffff1673ffffffffffffffffffffffffffffffffffffffff16815260200190815260200160002060008282546110439190613cb2565b925050819055508273ffffffffffffffffffffffffffffffffffffffff168473ffffffffffffffffffffffffffffffffffffffff167fddf252ad1be2c89b69c2b068fc378daa952ba7f163c4a11628f55a4df523b3ef846040516110a79190613435565b60405180910390a39392505050565b600a81815481106110c657600080fd5b906000526020600020016000915054906101000a900473ffffffffffffffffffffffffffffffffffffffff1681565b6000600860008373ffffffffffffffffffffffffffffffffffffffff1673ffffffffffffffffffffffffffffffffffffffff16815260200190815260200160002060009054906101000a900460ff169050919050565b6000600460009054906101000a900473ffffffffffffffffffffffffffffffffffffffff1673ffffffffffffffffffffffffffffffffffffffff163373ffffffffffffffffffffffffffffffffffffffff16146111dd576040517f08c379a00000000000000000000000000000000000000000000000000000000081526004016111d490613d58565b60405180910390fd5b6000600460146101000a81548160ff02191690831515021790555090565b6000600254600460009054906101000a900473ffffffffffffffffffffffffffffffffffffffff1673ffffffffffffffffffffffffffffffffffffffff16316112449190613da7565b905090565b600460009054906101000a900473ffffffffffffffffffffffffffffffffffffffff1673ffffffffffffffffffffffffffffffffffffffff163373ffffffffffffffffffffffffffffffffffffffff16146112d9576040517f08c379a00000000000000000000000000000000000000000000000000000000081526004016112d090613e24565b60405180910390fd5b80600660003373ffffffffffffffffffffffffffffffffffffffff1673ffffffffffffffffffffffffffffffffffffffff168152602001908152602001600020600082825461132891906139d0565b9250508190555080600360008282546113419190613cb2565b9250508190555080600660008473ffffffffffffffffffffffffffffffffffffffff1673ffffffffffffffffffffffffffffffffffffffff16815260200190815260200160002060008282546113979190613cb2565b925050819055508173ffffffffffffffffffffffffffffffffffffffff16600073ffffffffffffffffffffffffffffffffffffffff167fddf252ad1be2c89b69c2b068fc378daa952ba7f163c4a11628f55a4df523b3ef836040516113fc9190613435565b60405180910390a35050565b60025481565b80600660003373ffffffffffffffffffffffffffffffffffffffff1673ffffffffffffffffffffffffffffffffffffffff168152602001908152602001600020541161148f576040517f08c379a000000000000000000000000000000000000000000000000000000000815260040161148690613e90565b60405180910390fd5b80600354116114d3576040517f08c379a00000000000000000000000000000000000000000000000000000000081526004016114ca90613efc565b60405180910390fd5b80600360008282546114e591906139d0565b9250508190555080600660003373ffffffffffffffffffffffffffffffffffffffff1673ffffffffffffffffffffffffffffffffffffffff168152602001908152602001600020600082825461153b91906139d0565b92505081905550600073ffffffffffffffffffffffffffffffffffffffff163373ffffffffffffffffffffffffffffffffffffffff167fddf252ad1be2c89b69c2b068fc378daa952ba7f163c4a11628f55a4df523b3ef836040516115a09190613435565b60405180910390a350565b60008060006060600e60008673ffffffffffffffffffffffffffffffffffffffff1673ffffffffffffffffffffffffffffffffffffffff16815260200190815260200160002060009054906101000a900460ff1685600d60008873ffffffffffffffffffffffffffffffffffffffff1673ffffffffffffffffffffffffffffffffffffffff1681526020019081526020016000206000600e60008a73ffffffffffffffffffffffffffffffffffffffff1673ffffffffffffffffffffffffffffffffffffffff16815260200190815260200160002060009054906101000a900460ff1660028111156116a05761169f613450565b5b60028111156116b2576116b1613450565b5b815260200190815260200160002060009054906101000a900460ff16600b6001018080546116df90613898565b80601f016020809104026020016040519081016040528092919081815260200182805461170b90613898565b80156117585780601f1061172d57610100808354040283529160200191611758565b820191906000526020600020905b81548152906001019060200180831161173b57829003601f168201915b5050505050905093509350935093509193509193565b600060066000600460009054906101000a900473ffffffffffffffffffffffffffffffffffffffff1673ffffffffffffffffffffffffffffffffffffffff1673ffffffffffffffffffffffffffffffffffffffff16815260200190815260200160002054905090565b6060600980548060200260200160405190810160405280929190818152602001828054801561185b57602002820191906000526020600020905b8160009054906101000a900473ffffffffffffffffffffffffffffffffffffffff1673ffffffffffffffffffffffffffffffffffffffff1681526020019060010190808311611811575b5050505050905090565b6009818154811061187557600080fd5b906000526020600020016000915054906101000a900473ffffffffffffffffffffffffffffffffffffffff1681565b6000600e60008373ffffffffffffffffffffffffffffffffffffffff1673ffffffffffffffffffffffffffffffffffffffff16815260200190815260200160002060006101000a81548160ff0219169083600281111561190757611906613450565b5b02179055506001600d60008373ffffffffffffffffffffffffffffffffffffffff1673ffffffffffffffffffffffffffffffffffffffff1681526020019081526020016000206000600e60008573ffffffffffffffffffffffffffffffffffffffff1673ffffffffffffffffffffffffffffffffffffffff16815260200190815260200160002060009054906101000a900460ff1660028111156119ae576119ad613450565b5b60028111156119c0576119bf613450565b5b815260200190815260200160002060006101000a81548160ff0219169083151502179055506040518060400160405280600581526020017f41646d696e000000000000000000000000000000000000000000000000000000815250600b6001019081611a2c91906140f7565b5050565b6000806000878560006002811115611a4b57611a4a613450565b5b600e60008473ffffffffffffffffffffffffffffffffffffffff1673ffffffffffffffffffffffffffffffffffffffff16815260200190815260200160002060009054906101000a900460ff166002811115611aaa57611aa9613450565b5b14611aea576040517f08c379a0000000000000000000000000000000000000000000000000000000008152600401611ae190614215565b60405180910390fd5b600d60008373ffffffffffffffffffffffffffffffffffffffff1673ffffffffffffffffffffffffffffffffffffffff1681526020019081526020016000206000806002811115611b3e57611b3d613450565b5b6002811115611b5057611b4f613450565b5b815260200190815260200160002060009054906101000a900460ff16611bab576040517f08c379a0000000000000000000000000000000000000000000000000000000008152600401611ba2906142a7565b60405180910390fd5b60006002811115611bbf57611bbe613450565b5b600e60008c73ffffffffffffffffffffffffffffffffffffffff1673ffffffffffffffffffffffffffffffffffffffff16815260200190815260200160002060009054906101000a900460ff166002811115611c1e57611c1d613450565b5b14611c5e576040517f08c379a0000000000000000000000000000000000000000000000000000000008152600401611c5590614313565b60405180910390fd5b60016002811115611c7257611c71613450565b5b600e60008b73ffffffffffffffffffffffffffffffffffffffff1673ffffffffffffffffffffffffffffffffffffffff16815260200190815260200160002060009054906101000a900460ff166002811115611cd157611cd0613450565b5b03611d11576040517f08c379a0000000000000000000000000000000000000000000000000000000008152600401611d08906143a5565b60405180910390fd5b60001515600b60000160149054906101000a900460ff16151514611d6a576040517f08c379a0000000000000000000000000000000000000000000000000000000008152600401611d6190614411565b60405180910390fd5b88601060008b73ffffffffffffffffffffffffffffffffffffffff1673ffffffffffffffffffffffffffffffffffffffff16815260200190815260200160002060000160006101000a81548173ffffffffffffffffffffffffffffffffffffffff021916908373ffffffffffffffffffffffffffffffffffffffff16021790555087601060008a73ffffffffffffffffffffffffffffffffffffffff1673ffffffffffffffffffffffffffffffffffffffff16815260200190815260200160002060000160006101000a81548173ffffffffffffffffffffffffffffffffffffffff021916908373ffffffffffffffffffffffffffffffffffffffff1602179055506001600d60008c73ffffffffffffffffffffffffffffffffffffffff1673ffffffffffffffffffffffffffffffffffffffff1681526020019081526020016000206000600e60008d73ffffffffffffffffffffffffffffffffffffffff1673ffffffffffffffffffffffffffffffffffffffff16815260200190815260200160002060009054906101000a900460ff166002811115611f0e57611f0d613450565b5b6002811115611f2057611f1f613450565b5b815260200190815260200160002060006101000a81548160ff0219169083151502179055506001601060008b73ffffffffffffffffffffffffffffffffffffffff1673ffffffffffffffffffffffffffffffffffffffff16815260200190815260200160002060000160146101000a81548160ff0219169083151502179055506040518060400160405280600681526020017f4d696e7465720000000000000000000000000000000000000000000000000000815250601060008b73ffffffffffffffffffffffffffffffffffffffff1673ffffffffffffffffffffffffffffffffffffffff168152602001908152602001600020600101908161202491906140f7565b5086601060008b73ffffffffffffffffffffffffffffffffffffffff1673ffffffffffffffffffffffffffffffffffffffff16815260200190815260200160002060000160166101000a81548160ff0219169083600281111561208a57612089613450565b5b02179055506001600d60008c73ffffffffffffffffffffffffffffffffffffffff1673ffffffffffffffffffffffffffffffffffffffff1681526020019081526020016000206000600e60008c73ffffffffffffffffffffffffffffffffffffffff1673ffffffffffffffffffffffffffffffffffffffff16815260200190815260200160002060009054906101000a900460ff16600281111561213157612130613450565b5b600281111561214357612142613450565b5b815260200190815260200160002060006101000a81548160ff0219169083151502179055506001601060008a73ffffffffffffffffffffffffffffffffffffffff1673ffffffffffffffffffffffffffffffffffffffff16815260200190815260200160002060000160146101000a81548160ff0219169083151502179055506040518060400160405280600681526020017f5061757365720000000000000000000000000000000000000000000000000000815250601060008a73ffffffffffffffffffffffffffffffffffffffff1673ffffffffffffffffffffffffffffffffffffffff168152602001908152602001600020600101908161224791906140f7565b5085601060008a73ffffffffffffffffffffffffffffffffffffffff1673ffffffffffffffffffffffffffffffffffffffff16815260200190815260200160002060000160166101000a81548160ff021916908360028111156122ad576122ac613450565b5b0217905550601060008973ffffffffffffffffffffffffffffffffffffffff1673ffffffffffffffffffffffffffffffffffffffff16815260200190815260200160002060000160009054906101000a900473ffffffffffffffffffffffffffffffffffffffff16601060008a73ffffffffffffffffffffffffffffffffffffffff1673ffffffffffffffffffffffffffffffffffffffff16815260200190815260200160002060000160169054906101000a900460ff16600d60008d73ffffffffffffffffffffffffffffffffffffffff1673ffffffffffffffffffffffffffffffffffffffff1681526020019081526020016000206000600e60008d73ffffffffffffffffffffffffffffffffffffffff1673ffffffffffffffffffffffffffffffffffffffff16815260200190815260200160002060009054906101000a900460ff16600281111561240557612404613450565b5b600281111561241757612416613450565b5b815260200190815260200160002060009054906101000a900460ff169450945094505050955095509592505050565b60066020528060005260406000206000915090505481565b6000600460009054906101000a900473ffffffffffffffffffffffffffffffffffffffff16905090565b600f602052816000526040600020602052806000526040600020600091509150505481565b6000600460009054906101000a900473ffffffffffffffffffffffffffffffffffffffff1673ffffffffffffffffffffffffffffffffffffffff163373ffffffffffffffffffffffffffffffffffffffff161461253f576040517f08c379a000000000000000000000000000000000000000000000000000000000815260040161253690613d58565b60405180910390fd5b6001600460146101000a81548160ff02191690831515021790555090565b6060600460009054906101000a900473ffffffffffffffffffffffffffffffffffffffff1673ffffffffffffffffffffffffffffffffffffffff163373ffffffffffffffffffffffffffffffffffffffff16146125ef576040517f08c379a00000000000000000000000000000000000000000000000000000000081526004016125e690613d58565b60405180910390fd5b6000600860008473ffffffffffffffffffffffffffffffffffffffff1673ffffffffffffffffffffffffffffffffffffffff16815260200190815260200160002060006101000a81548160ff021916908315150217905550600a6001600a8054905061265b91906139d0565b8154811061266c5761266b614431565b5b9060005260206000200160006101000a81549073ffffffffffffffffffffffffffffffffffffffff0219169055600a80548060200260200160405190810160405280929190818152602001828054801561271b57602002820191906000526020600020905b8160009054906101000a900473ffffffffffffffffffffffffffffffffffffffff1673ffffffffffffffffffffffffffffffffffffffff16815260200190600101908083116126d1575b50505050509050919050565b6001805461273490613898565b80601f016020809104026020016040519081016040528092919081815260200182805461276090613898565b80156127ad5780601f10612782576101008083540402835291602001916127ad565b820191906000526020600020905b81548152906001019060200180831161279057829003601f168201915b505050505081565b60086020528060005260406000206000915054906101000a900460ff1681565b60606001600760008473ffffffffffffffffffffffffffffffffffffffff1673ffffffffffffffffffffffffffffffffffffffff16815260200190815260200160002060006101000a81548160ff0219169083151502179055506009829080600181540180825580915050600190039060005260206000200160009091909190916101000a81548173ffffffffffffffffffffffffffffffffffffffff021916908373ffffffffffffffffffffffffffffffffffffffff160217905550600980548060200260200160405190810160405280929190818152602001828054801561291457602002820191906000526020600020905b8160009054906101000a900473ffffffffffffffffffffffffffffffffffffffff1673ffffffffffffffffffffffffffffffffffffffff16815260200190600101908083116128ca575b50505050509050919050565b600080600560003373ffffffffffffffffffffffffffffffffffffffff1673ffffffffffffffffffffffffffffffffffffffff16815260200190815260200160002060008573ffffffffffffffffffffffffffffffffffffffff1673ffffffffffffffffffffffffffffffffffffffff1681526020019081526020016000205490508091505092915050565b600081600660003373ffffffffffffffffffffffffffffffffffffffff1673ffffffffffffffffffffffffffffffffffffffff1681526020019081526020016000205411612a2f576040517f08c379a0000000000000000000000000000000000000000000000000000000008152600401612a2690613a50565b60405180910390fd5b60001515600760008573ffffffffffffffffffffffffffffffffffffffff1673ffffffffffffffffffffffffffffffffffffffff16815260200190815260200160002060009054906101000a900460ff16151514612ac2576040517f08c379a0000000000000000000000000000000000000000000000000000000008152600401612ab9906144ac565b60405180910390fd5b60001515600460149054906101000a900460ff16151514612b18576040517f08c379a0000000000000000000000000000000000000000000000000000000008152600401612b0f90613c26565b60405180910390fd5b60011515600860008573ffffffffffffffffffffffffffffffffffffffff1673ffffffffffffffffffffffffffffffffffffffff16815260200190815260200160002060009054906101000a900460ff16151514612bab576040517f08c379a0000000000000000000000000000000000000000000000000000000008152600401612ba290613ae2565b60405180910390fd5b81600660008573ffffffffffffffffffffffffffffffffffffffff1673ffffffffffffffffffffffffffffffffffffffff1681526020019081526020016000206000828254612bfa9190613cb2565b9250508190555081600660003373ffffffffffffffffffffffffffffffffffffffff1673ffffffffffffffffffffffffffffffffffffffff1681526020019081526020016000206000828254612c5091906139d0565b925050819055508273ffffffffffffffffffffffffffffffffffffffff163373ffffffffffffffffffffffffffffffffffffffff167fddf252ad1be2c89b69c2b068fc378daa952ba7f163c4a11628f55a4df523b3ef84604051612cb49190613435565b60405180910390a36001905092915050565b600d6020528160005260406000206020528060005260406000206000915091509054906101000a900460ff1681565b60106020528060005260406000206000915090508060000160009054906101000a900473ffffffffffffffffffffffffffffffffffffffff16908060000160149054906101000a900460ff16908060000160159054906101000a900460ff16908060000160169054906101000a900460ff1690806001018054612d7790613898565b80601f0160208091040260200160405190810160405280929190818152602001828054612da390613898565b8015612df05780601f10612dc557610100808354040283529160200191612df0565b820191906000526020600020905b815481529060010190602001808311612dd357829003601f168201915b5050505050905085565b6005602052816000526040600020602052806000526040600020600091509150505481565b60118181548110612e2f57600080fd5b906000526020600020016000915054906101000a900473ffffffffffffffffffffffffffffffffffffffff1681565b6060600460009054906101000a900473ffffffffffffffffffffffffffffffffffffffff1673ffffffffffffffffffffffffffffffffffffffff163373ffffffffffffffffffffffffffffffffffffffff1614612ef0576040517f08c379a0000000000000000000000000000000000000000000000000000000008152600401612ee790613d58565b60405180910390fd5b6001600860008473ffffffffffffffffffffffffffffffffffffffff1673ffffffffffffffffffffffffffffffffffffffff16815260200190815260200160002060006101000a81548160ff021916908315150217905550600a829080600181540180825580915050600190039060005260206000200160009091909190916101000a81548173ffffffffffffffffffffffffffffffffffffffff021916908373ffffffffffffffffffffffffffffffffffffffff160217905550600a80548060200260200160405190810160405280929190818152602001828054801561302d57602002820191906000526020600020905b8160009054906101000a900473ffffffffffffffffffffffffffffffffffffffff1673ffffffffffffffffffffffffffffffffffffffff1681526020019060010190808311612fe3575b50505050509050919050565b60606000600760008473ffffffffffffffffffffffffffffffffffffffff1673ffffffffffffffffffffffffffffffffffffffff16815260200190815260200160002060006101000a81548160ff021916908315150217905550600960016009805490506130a791906139d0565b815481106130b8576130b7614431565b5b9060005260206000200160006101000a81549073ffffffffffffffffffffffffffffffffffffffff0219169055600980548060200260200160405190810160405280929190818152602001828054801561316757602002820191906000526020600020905b8160009054906101000a900473ffffffffffffffffffffffffffffffffffffffff1673ffffffffffffffffffffffffffffffffffffffff168152602001906001019080831161311d575b50505050509050919050565b600033905090565b60076020528060005260406000206000915054906101000a900460ff1681565b6000600660003373ffffffffffffffffffffffffffffffffffffffff1673ffffffffffffffffffffffffffffffffffffffff16815260200190815260200160002054905090565b6000600760008373ffffffffffffffffffffffffffffffffffffffff1673ffffffffffffffffffffffffffffffffffffffff16815260200190815260200160002060009054906101000a900460ff169050919050565b600081519050919050565b600082825260208201905092915050565b60005b83811015613272578082015181840152602081019050613257565b60008484015250505050565b6000601f19601f8301169050919050565b600061329a82613238565b6132a48185613243565b93506132b4818560208601613254565b6132bd8161327e565b840191505092915050565b600060208201905081810360008301526132e2818461328f565b905092915050565b600080fd5b600073ffffffffffffffffffffffffffffffffffffffff82169050919050565b600061331a826132ef565b9050919050565b61332a8161330f565b811461333557600080fd5b50565b60008135905061334781613321565b92915050565b6000819050919050565b6133608161334d565b811461336b57600080fd5b50565b60008135905061337d81613357565b92915050565b6000806040838503121561339a576133996132ea565b5b60006133a885828601613338565b92505060206133b98582860161336e565b9150509250929050565b60008115159050919050565b6133d8816133c3565b82525050565b60006020820190506133f360008301846133cf565b92915050565b60006020828403121561340f5761340e6132ea565b5b600061341d84828501613338565b91505092915050565b61342f8161334d565b82525050565b600060208201905061344a6000830184613426565b92915050565b7f4e487b7100000000000000000000000000000000000000000000000000000000600052602160045260246000fd5b600381106134905761348f613450565b5b50565b60008190506134a18261347f565b919050565b60006134b182613493565b9050919050565b6134c1816134a6565b82525050565b60006020820190506134dc60008301846134b8565b92915050565b6000806000606084860312156134fb576134fa6132ea565b5b600061350986828701613338565b935050602061351a86828701613338565b925050604061352b8682870161336e565b9150509250925092565b60006020828403121561354b5761354a6132ea565b5b60006135598482850161336e565b91505092915050565b61356b8161330f565b82525050565b60006020820190506135866000830184613562565b92915050565b60006080820190506135a160008301876134b8565b6135ae6020830186613562565b6135bb60408301856133cf565b81810360608301526135cd818461328f565b905095945050505050565b600081519050919050565b600082825260208201905092915050565b6000819050602082019050919050565b61360d8161330f565b82525050565b600061361f8383613604565b60208301905092915050565b6000602082019050919050565b6000613643826135d8565b61364d81856135e3565b9350613658836135f4565b8060005b838110156136895781516136708882613613565b975061367b8361362b565b92505060018101905061365c565b5085935050505092915050565b600060208201905081810360008301526136b08184613638565b905092915050565b600381106136c557600080fd5b50565b6000813590506136d7816136b8565b92915050565b600080600080600060a086880312156136f9576136f86132ea565b5b600061370788828901613338565b955050602061371888828901613338565b945050604061372988828901613338565b935050606061373a888289016136c8565b925050608061374b888289016136c8565b9150509295509295909350565b600060608201905061376d6000830186613562565b61377a60208301856134b8565b61378760408301846133cf565b949350505050565b600080604083850312156137a6576137a56132ea565b5b60006137b485828601613338565b92505060206137c585828601613338565b9150509250929050565b600080604083850312156137e6576137e56132ea565b5b60006137f485828601613338565b9250506020613805858286016136c8565b9150509250929050565b600060a0820190506138246000830188613562565b61383160208301876133cf565b61383e60408301866133cf565b61384b60608301856134b8565b818103608083015261385d818461328f565b90509695505050505050565b7f4e487b7100000000000000000000000000000000000000000000000000000000600052602260045260246000fd5b600060028204905060018216806138b057607f821691505b6020821081036138c3576138c2613869565b5b50919050565b7f63616e742062652073616d650000000000000000000000000000000000000000600082015250565b60006138ff600c83613243565b915061390a826138c9565b602082019050919050565b6000602082019050818103600083015261392e816138f2565b9050919050565b7f4e6f20426e636500000000000000000000000000000000000000000000000000600082015250565b600061396b600783613243565b915061397682613935565b602082019050919050565b6000602082019050818103600083015261399a8161395e565b9050919050565b7f4e487b7100000000000000000000000000000000000000000000000000000000600052601160045260246000fd5b60006139db8261334d565b91506139e68361334d565b92508282039050818111156139fe576139fd6139a1565b5b92915050565b7f6f7720626e636500000000000000000000000000000000000000000000000000600082015250565b6000613a3a600783613243565b9150613a4582613a04565b602082019050919050565b60006020820190508181036000830152613a6981613a2d565b9050919050565b7f4e6f74204f6e20546865205768697465204c69737420546f205265636965766560008201527f2054686520546f6b656e00000000000000000000000000000000000000000000602082015250565b6000613acc602a83613243565b9150613ad782613a70565b604082019050919050565b60006020820190508181036000830152613afb81613abf565b9050919050565b7f6e6f206e6f74206f6e20626c636b000000000000000000000000000000000000600082015250565b6000613b38600e83613243565b9150613b4382613b02565b602082019050919050565b60006020820190508181036000830152613b6781613b2b565b9050919050565b7f76616c7565206d757420626520706f7469766500000000000000000000000000600082015250565b6000613ba4601383613243565b9150613baf82613b6e565b602082019050919050565b60006020820190508181036000830152613bd381613b97565b9050919050565b7f6973206e6f742070757365640000000000000000000000000000000000000000600082015250565b6000613c10600c83613243565b9150613c1b82613bda565b602082019050919050565b60006020820190508181036000830152613c3f81613c03565b9050919050565b7f6d6f756e74206d7574206265206772657465722074686e207675650000000000600082015250565b6000613c7c601b83613243565b9150613c8782613c46565b602082019050919050565b60006020820190508181036000830152613cab81613c6f565b9050919050565b6000613cbd8261334d565b9150613cc88361334d565b9250828201905080821115613ce057613cdf6139a1565b5b92915050565b7f6f6e6c79206f776e65722063616e2063616c6c20546869732046756e6374696f60008201527f6e00000000000000000000000000000000000000000000000000000000000000602082015250565b6000613d42602183613243565b9150613d4d82613ce6565b604082019050919050565b60006020820190508181036000830152613d7181613d35565b9050919050565b7f4e487b7100000000000000000000000000000000000000000000000000000000600052601260045260246000fd5b6000613db28261334d565b9150613dbd8361334d565b925082613dcd57613dcc613d78565b5b828204905092915050565b7f6f6e79206f776e657220636e206d696e74000000000000000000000000000000600082015250565b6000613e0e601183613243565b9150613e1982613dd8565b602082019050919050565b60006020820190508181036000830152613e3d81613e01565b9050919050565b7f4e6f7420456e6f75676820426e63650000000000000000000000000000000000600082015250565b6000613e7a600f83613243565b9150613e8582613e44565b602082019050919050565b60006020820190508181036000830152613ea981613e6d565b9050919050565b7f63616e206e6f7420206265207a65726f00000000000000000000000000000000600082015250565b6000613ee6601083613243565b9150613ef182613eb0565b602082019050919050565b60006020820190508181036000830152613f1581613ed9565b9050919050565b7f4e487b7100000000000000000000000000000000000000000000000000000000600052604160045260246000fd5b60008190508160005260206000209050919050565b60006020601f8301049050919050565b600082821b905092915050565b600060088302613fad7fffffffffffffffffffffffffffffffffffffffffffffffffffffffffffffffff82613f70565b613fb78683613f70565b95508019841693508086168417925050509392505050565b6000819050919050565b6000613ff4613fef613fea8461334d565b613fcf565b61334d565b9050919050565b6000819050919050565b61400e83613fd9565b61402261401a82613ffb565b848454613f7d565b825550505050565b600090565b61403761402a565b614042818484614005565b505050565b5b818110156140665761405b60008261402f565b600181019050614048565b5050565b601f8211156140ab5761407c81613f4b565b61408584613f60565b81016020851015614094578190505b6140a86140a085613f60565b830182614047565b50505b505050565b600082821c905092915050565b60006140ce600019846008026140b0565b1980831691505092915050565b60006140e783836140bd565b9150826002028217905092915050565b61410082613238565b67ffffffffffffffff81111561411957614118613f1c565b5b6141238254613898565b61412e82828561406a565b600060209050601f831160018114614161576000841561414f578287015190505b61415985826140db565b8655506141c1565b601f19841661416f86613f4b565b60005b8281101561419757848901518255600182019150602085019450602081019050614172565b868310156141b457848901516141b0601f8916826140bd565b8355505b6001600288020188555050505b505050505050565b7f4f6e792061646d696e6973747261746f722063616e2063616c6c000000000000600082015250565b60006141ff601a83613243565b915061420a826141c9565b602082019050919050565b6000602082019050818103600083015261422e816141f2565b9050919050565b7f4f6e6c792041646d696e732043616e2043616c6c20546869732046756e63746960008201527f6f6e000000000000000000000000000000000000000000000000000000000000602082015250565b6000614291602283613243565b915061429c82614235565b604082019050919050565b600060208201905081810360008301526142c081614284565b9050919050565b7f4f6e6c792061646d696e6973747261746f722063616e2063616c6c0000000000600082015250565b60006142fd601b83613243565b9150614308826142c7565b602082019050919050565b6000602082019050818103600083015261432c816142f0565b9050919050565b7f4d696e7465722043616e204e6f74204772616e742048696d73656c6620726f6c60008201527f6500000000000000000000000000000000000000000000000000000000000000602082015250565b600061438f602183613243565b915061439a82614333565b604082019050919050565b600060208201905081810360008301526143be81614382565b9050919050565b7f416c7265616479204772616e746564205468697320526f6c6500000000000000600082015250565b60006143fb601983613243565b9150614406826143c5565b602082019050919050565b6000602082019050818103600083015261442a816143ee565b9050919050565b7f4e487b7100000000000000000000000000000000000000000000000000000000600052603260045260246000fd5b7f6e6f206e6f74206f6e20626c61636b6c69737400000000000000000000000000600082015250565b6000614496601383613243565b91506144a182614460565b602082019050919050565b600060208201905081810360008301526144c581614489565b905091905056fea26469706673582212208f07d7933c31cb230ccd1dd6a83453d7a1d59e3226d12abb5b6764f57d2b271964736f6c63430008130033",
					"opcodes": "PUSH1 0x80 PUSH1 0x40 MSTORE PUSH1 0x40 MLOAD DUP1 PUSH1 0x40 ADD PUSH1 0x40 MSTORE DUP1 PUSH1 0x8 DUP2 MSTORE PUSH1 0x20 ADD PUSH32 0x54657420546F656E000000000000000000000000000000000000000000000000 DUP2 MSTORE POP PUSH1 0x0 SWAP1 DUP2 PUSH3 0x4A SWAP2 SWAP1 PUSH3 0x3F0 JUMP JUMPDEST POP PUSH1 0x40 MLOAD DUP1 PUSH1 0x40 ADD PUSH1 0x40 MSTORE DUP1 PUSH1 0x3 DUP2 MSTORE PUSH1 0x20 ADD PUSH32 0x5465740000000000000000000000000000000000000000000000000000000000 DUP2 MSTORE POP PUSH1 0x1 SWAP1 DUP2 PUSH3 0x91 SWAP2 SWAP1 PUSH3 0x3F0 JUMP JUMPDEST POP PUSH8 0xDE0B6B3A7640000 PUSH1 0x2 SSTORE CALLVALUE DUP1 ISZERO PUSH3 0xAB JUMPI PUSH1 0x0 DUP1 REVERT JUMPDEST POP CALLER PUSH1 0x4 PUSH1 0x0 PUSH2 0x100 EXP DUP2 SLOAD DUP2 PUSH20 0xFFFFFFFFFFFFFFFFFFFFFFFFFFFFFFFFFFFFFFFF MUL NOT AND SWAP1 DUP4 PUSH20 0xFFFFFFFFFFFFFFFFFFFFFFFFFFFFFFFFFFFFFFFF AND MUL OR SWAP1 SSTORE POP PUSH1 0x0 PUSH1 0x4 PUSH1 0x14 PUSH2 0x100 EXP DUP2 SLOAD DUP2 PUSH1 0xFF MUL NOT AND SWAP1 DUP4 ISZERO ISZERO MUL OR SWAP1 SSTORE POP PUSH2 0x7D0 PUSH1 0x6 PUSH1 0x0 PUSH1 0x4 PUSH1 0x0 SWAP1 SLOAD SWAP1 PUSH2 0x100 EXP SWAP1 DIV PUSH20 0xFFFFFFFFFFFFFFFFFFFFFFFFFFFFFFFFFFFFFFFF AND PUSH20 0xFFFFFFFFFFFFFFFFFFFFFFFFFFFFFFFFFFFFFFFF AND PUSH20 0xFFFFFFFFFFFFFFFFFFFFFFFFFFFFFFFFFFFFFFFF AND DUP2 MSTORE PUSH1 0x20 ADD SWAP1 DUP2 MSTORE PUSH1 0x20 ADD PUSH1 0x0 KECCAK256 DUP2 SWAP1 SSTORE POP PUSH3 0x4D7 JUMP JUMPDEST PUSH1 0x0 DUP2 MLOAD SWAP1 POP SWAP2 SWAP1 POP JUMP JUMPDEST PUSH32 0x4E487B7100000000000000000000000000000000000000000000000000000000 PUSH1 0x0 MSTORE PUSH1 0x41 PUSH1 0x4 MSTORE PUSH1 0x24 PUSH1 0x0 REVERT JUMPDEST PUSH32 0x4E487B7100000000000000000000000000000000000000000000000000000000 PUSH1 0x0 MSTORE PUSH1 0x22 PUSH1 0x4 MSTORE PUSH1 0x24 PUSH1 0x0 REVERT JUMPDEST PUSH1 0x0 PUSH1 0x2 DUP3 DIV SWAP1 POP PUSH1 0x1 DUP3 AND DUP1 PUSH3 0x1F8 JUMPI PUSH1 0x7F DUP3 AND SWAP2 POP JUMPDEST PUSH1 0x20 DUP3 LT DUP2 SUB PUSH3 0x20E JUMPI PUSH3 0x20D PUSH3 0x1B0 JUMP JUMPDEST JUMPDEST POP SWAP2 SWAP1 POP JUMP JUMPDEST PUSH1 0x0 DUP2 SWAP1 POP DUP2 PUSH1 0x0 MSTORE PUSH1 0x20 PUSH1 0x0 KECCAK256 SWAP1 POP SWAP2 SWAP1 POP JUMP JUMPDEST PUSH1 0x0 PUSH1 0x20 PUSH1 0x1F DUP4 ADD DIV SWAP1 POP SWAP2 SWAP1 POP JUMP JUMPDEST PUSH1 0x0 DUP3 DUP3 SHL SWAP1 POP SWAP3 SWAP2 POP POP JUMP JUMPDEST PUSH1 0x0 PUSH1 0x8 DUP4 MUL PUSH3 0x278 PUSH32 0xFFFFFFFFFFFFFFFFFFFFFFFFFFFFFFFFFFFFFFFFFFFFFFFFFFFFFFFFFFFFFFFF DUP3 PUSH3 0x239 JUMP JUMPDEST PUSH3 0x284 DUP7 DUP4 PUSH3 0x239 JUMP JUMPDEST SWAP6 POP DUP1 NOT DUP5 AND SWAP4 POP DUP1 DUP7 AND DUP5 OR SWAP3 POP POP POP SWAP4 SWAP3 POP POP POP JUMP JUMPDEST PUSH1 0x0 DUP2 SWAP1 POP SWAP2 SWAP1 POP JUMP JUMPDEST PUSH1 0x0 DUP2 SWAP1 POP SWAP2 SWAP1 POP JUMP JUMPDEST PUSH1 0x0 PUSH3 0x2D1 PUSH3 0x2CB PUSH3 0x2C5 DUP5 PUSH3 0x29C JUMP JUMPDEST PUSH3 0x2A6 JUMP JUMPDEST PUSH3 0x29C JUMP JUMPDEST SWAP1 POP SWAP2 SWAP1 POP JUMP JUMPDEST PUSH1 0x0 DUP2 SWAP1 POP SWAP2 SWAP1 POP JUMP JUMPDEST PUSH3 0x2ED DUP4 PUSH3 0x2B0 JUMP JUMPDEST PUSH3 0x305 PUSH3 0x2FC DUP3 PUSH3 0x2D8 JUMP JUMPDEST DUP5 DUP5 SLOAD PUSH3 0x246 JUMP JUMPDEST DUP3 SSTORE POP POP POP POP JUMP JUMPDEST PUSH1 0x0 SWAP1 JUMP JUMPDEST PUSH3 0x31C PUSH3 0x30D JUMP JUMPDEST PUSH3 0x329 DUP2 DUP5 DUP5 PUSH3 0x2E2 JUMP JUMPDEST POP POP POP JUMP JUMPDEST JUMPDEST DUP2 DUP2 LT ISZERO PUSH3 0x351 JUMPI PUSH3 0x345 PUSH1 0x0 DUP3 PUSH3 0x312 JUMP JUMPDEST PUSH1 0x1 DUP2 ADD SWAP1 POP PUSH3 0x32F JUMP JUMPDEST POP POP JUMP JUMPDEST PUSH1 0x1F DUP3 GT ISZERO PUSH3 0x3A0 JUMPI PUSH3 0x36A DUP2 PUSH3 0x214 JUMP JUMPDEST PUSH3 0x375 DUP5 PUSH3 0x229 JUMP JUMPDEST DUP2 ADD PUSH1 0x20 DUP6 LT ISZERO PUSH3 0x385 JUMPI DUP2 SWAP1 POP JUMPDEST PUSH3 0x39D PUSH3 0x394 DUP6 PUSH3 0x229 JUMP JUMPDEST DUP4 ADD DUP3 PUSH3 0x32E JUMP JUMPDEST POP POP JUMPDEST POP POP POP JUMP JUMPDEST PUSH1 0x0 DUP3 DUP3 SHR SWAP1 POP SWAP3 SWAP2 POP POP JUMP JUMPDEST PUSH1 0x0 PUSH3 0x3C5 PUSH1 0x0 NOT DUP5 PUSH1 0x8 MUL PUSH3 0x3A5 JUMP JUMPDEST NOT DUP1 DUP4 AND SWAP2 POP POP SWAP3 SWAP2 POP POP JUMP JUMPDEST PUSH1 0x0 PUSH3 0x3E0 DUP4 DUP4 PUSH3 0x3B2 JUMP JUMPDEST SWAP2 POP DUP3 PUSH1 0x2 MUL DUP3 OR SWAP1 POP SWAP3 SWAP2 POP POP JUMP JUMPDEST PUSH3 0x3FB DUP3 PUSH3 0x176 JUMP JUMPDEST PUSH8 0xFFFFFFFFFFFFFFFF DUP2 GT ISZERO PUSH3 0x417 JUMPI PUSH3 0x416 PUSH3 0x181 JUMP JUMPDEST JUMPDEST PUSH3 0x423 DUP3 SLOAD PUSH3 0x1DF JUMP JUMPDEST PUSH3 0x430 DUP3 DUP3 DUP6 PUSH3 0x355 JUMP JUMPDEST PUSH1 0x0 PUSH1 0x20 SWAP1 POP PUSH1 0x1F DUP4 GT PUSH1 0x1 DUP2 EQ PUSH3 0x468 JUMPI PUSH1 0x0 DUP5 ISZERO PUSH3 0x453 JUMPI DUP3 DUP8 ADD MLOAD SWAP1 POP JUMPDEST PUSH3 0x45F DUP6 DUP3 PUSH3 0x3D2 JUMP JUMPDEST DUP7 SSTORE POP PUSH3 0x4CF JUMP JUMPDEST PUSH1 0x1F NOT DUP5 AND PUSH3 0x478 DUP7 PUSH3 0x214 JUMP JUMPDEST PUSH1 0x0 JUMPDEST DUP3 DUP2 LT ISZERO PUSH3 0x4A2 JUMPI DUP5 DUP10 ADD MLOAD DUP3 SSTORE PUSH1 0x1 DUP3 ADD SWAP2 POP PUSH1 0x20 DUP6 ADD SWAP5 POP PUSH1 0x20 DUP2 ADD SWAP1 POP PUSH3 0x47B JUMP JUMPDEST DUP7 DUP4 LT ISZERO PUSH3 0x4C2 JUMPI DUP5 DUP10 ADD MLOAD PUSH3 0x4BE PUSH1 0x1F DUP10 AND DUP3 PUSH3 0x3B2 JUMP JUMPDEST DUP4 SSTORE POP JUMPDEST PUSH1 0x1 PUSH1 0x2 DUP9 MUL ADD DUP9 SSTORE POP POP POP JUMPDEST POP POP POP POP POP POP JUMP JUMPDEST PUSH2 0x4502 DUP1 PUSH3 0x4E7 PUSH1 0x0 CODECOPY PUSH1 0x0 RETURN INVALID PUSH1 0x80 PUSH1 0x40 MSTORE CALLVALUE DUP1 ISZERO PUSH2 0x10 JUMPI PUSH1 0x0 DUP1 REVERT JUMPDEST POP PUSH1 0x4 CALLDATASIZE LT PUSH2 0x23D JUMPI PUSH1 0x0 CALLDATALOAD PUSH1 0xE0 SHR DUP1 PUSH4 0x70A08231 GT PUSH2 0x13B JUMPI DUP1 PUSH4 0xC0446A7D GT PUSH2 0xB8 JUMPI DUP1 PUSH4 0xEB91E651 GT PUSH2 0x7C JUMPI DUP1 PUSH4 0xEB91E651 EQ PUSH2 0x7BB JUMPI DUP1 PUSH4 0xF1D2B3C2 EQ PUSH2 0x7EB JUMPI DUP1 PUSH4 0xF9F92BE4 EQ PUSH2 0x809 JUMPI DUP1 PUSH4 0xFC5F505D EQ PUSH2 0x839 JUMPI DUP1 PUSH4 0xFE575A87 EQ PUSH2 0x857 JUMPI PUSH2 0x23D JUMP JUMPDEST DUP1 PUSH4 0xC0446A7D EQ PUSH2 0x6C7 JUMPI DUP1 PUSH4 0xCECA9FFB EQ PUSH2 0x6F7 JUMPI DUP1 PUSH4 0xDD62ED3E EQ PUSH2 0x72B JUMPI DUP1 PUSH4 0xE0639F5C EQ PUSH2 0x75B JUMPI DUP1 PUSH4 0xE43252D7 EQ PUSH2 0x78B JUMPI PUSH2 0x23D JUMP JUMPDEST DUP1 PUSH4 0x95D89B41 GT PUSH2 0xFF JUMPI DUP1 PUSH4 0x95D89B41 EQ PUSH2 0x5E9 JUMPI DUP1 PUSH4 0x9B19251A EQ PUSH2 0x607 JUMPI DUP1 PUSH4 0x9CFE42DA EQ PUSH2 0x637 JUMPI DUP1 PUSH4 0xA24ED452 EQ PUSH2 0x667 JUMPI DUP1 PUSH4 0xA9059CBB EQ PUSH2 0x697 JUMPI PUSH2 0x23D JUMP JUMPDEST DUP1 PUSH4 0x70A08231 EQ PUSH2 0x51D JUMPI DUP1 PUSH4 0x74DB3064 EQ PUSH2 0x54D JUMPI DUP1 PUSH4 0x7C91B15E EQ PUSH2 0x56B JUMPI DUP1 PUSH4 0x8456CB59 EQ PUSH2 0x59B JUMPI DUP1 PUSH4 0x8AB1D681 EQ PUSH2 0x5B9 JUMPI PUSH2 0x23D JUMP JUMPDEST DUP1 PUSH4 0x40180920 GT PUSH2 0x1C9 JUMPI DUP1 PUSH4 0x4975D202 GT PUSH2 0x18D JUMPI DUP1 PUSH4 0x4975D202 EQ PUSH2 0x463 JUMPI DUP1 PUSH4 0x499D0379 EQ PUSH2 0x481 JUMPI DUP1 PUSH4 0x4B38B453 EQ PUSH2 0x49F JUMPI DUP1 PUSH4 0x57D50B9D EQ PUSH2 0x4CF JUMPI DUP1 PUSH4 0x69507DA8 EQ PUSH2 0x4EB JUMPI PUSH2 0x23D JUMP JUMPDEST DUP1 PUSH4 0x40180920 EQ PUSH2 0x3BC JUMPI DUP1 PUSH4 0x40C10F19 EQ PUSH2 0x3DA JUMPI DUP1 PUSH4 0x4163FD02 EQ PUSH2 0x3F6 JUMPI DUP1 PUSH4 0x42966C68 EQ PUSH2 0x414 JUMPI DUP1 PUSH4 0x476B49BC EQ PUSH2 0x430 JUMPI PUSH2 0x23D JUMP JUMPDEST DUP1 PUSH4 0x20853239 GT PUSH2 0x210 JUMPI DUP1 PUSH4 0x20853239 EQ PUSH2 0x2DE JUMPI DUP1 PUSH4 0x23B872DD EQ PUSH2 0x30E JUMPI DUP1 PUSH4 0x2C69953B EQ PUSH2 0x33E JUMPI DUP1 PUSH4 0x3AF32ABF EQ PUSH2 0x36E JUMPI DUP1 PUSH4 0x3F4BA83A EQ PUSH2 0x39E JUMPI PUSH2 0x23D JUMP JUMPDEST DUP1 PUSH4 0x6FDDE03 EQ PUSH2 0x242 JUMPI DUP1 PUSH4 0x95EA7B3 EQ PUSH2 0x260 JUMPI DUP1 PUSH4 0x12CAE7AF EQ PUSH2 0x290 JUMPI DUP1 PUSH4 0x18160DDD EQ PUSH2 0x2C0 JUMPI JUMPDEST PUSH1 0x0 DUP1 REVERT JUMPDEST PUSH2 0x24A PUSH2 0x887 JUMP JUMPDEST PUSH1 0x40 MLOAD PUSH2 0x257 SWAP2 SWAP1 PUSH2 0x32C8 JUMP JUMPDEST PUSH1 0x40 MLOAD DUP1 SWAP2 SUB SWAP1 RETURN JUMPDEST PUSH2 0x27A PUSH1 0x4 DUP1 CALLDATASIZE SUB DUP2 ADD SWAP1 PUSH2 0x275 SWAP2 SWAP1 PUSH2 0x3383 JUMP JUMPDEST PUSH2 0x915 JUMP JUMPDEST PUSH1 0x40 MLOAD PUSH2 0x287 SWAP2 SWAP1 PUSH2 0x33DE JUMP JUMPDEST PUSH1 0x40 MLOAD DUP1 SWAP2 SUB SWAP1 RETURN JUMPDEST PUSH2 0x2AA PUSH1 0x4 DUP1 CALLDATASIZE SUB DUP2 ADD SWAP1 PUSH2 0x2A5 SWAP2 SWAP1 PUSH2 0x33F9 JUMP JUMPDEST PUSH2 0xB4C JUMP JUMPDEST PUSH1 0x40 MLOAD PUSH2 0x2B7 SWAP2 SWAP1 PUSH2 0x3435 JUMP JUMPDEST PUSH1 0x40 MLOAD DUP1 SWAP2 SUB SWAP1 RETURN JUMPDEST PUSH2 0x2C8 PUSH2 0xB95 JUMP JUMPDEST PUSH1 0x40 MLOAD PUSH2 0x2D5 SWAP2 SWAP1 PUSH2 0x3435 JUMP JUMPDEST PUSH1 0x40 MLOAD DUP1 SWAP2 SUB SWAP1 RETURN JUMPDEST PUSH2 0x2F8 PUSH1 0x4 DUP1 CALLDATASIZE SUB DUP2 ADD SWAP1 PUSH2 0x2F3 SWAP2 SWAP1 PUSH2 0x33F9 JUMP JUMPDEST PUSH2 0xB9B JUMP JUMPDEST PUSH1 0x40 MLOAD PUSH2 0x305 SWAP2 SWAP1 PUSH2 0x34C7 JUMP JUMPDEST PUSH1 0x40 MLOAD DUP1 SWAP2 SUB SWAP1 RETURN JUMPDEST PUSH2 0x328 PUSH1 0x4 DUP1 CALLDATASIZE SUB DUP2 ADD SWAP1 PUSH2 0x323 SWAP2 SWAP1 PUSH2 0x34E2 JUMP JUMPDEST PUSH2 0xBBB JUMP JUMPDEST PUSH1 0x40 MLOAD PUSH2 0x335 SWAP2 SWAP1 PUSH2 0x33DE JUMP JUMPDEST PUSH1 0x40 MLOAD DUP1 SWAP2 SUB SWAP1 RETURN JUMPDEST PUSH2 0x358 PUSH1 0x4 DUP1 CALLDATASIZE SUB DUP2 ADD SWAP1 PUSH2 0x353 SWAP2 SWAP1 PUSH2 0x3535 JUMP JUMPDEST PUSH2 0x10B6 JUMP JUMPDEST PUSH1 0x40 MLOAD PUSH2 0x365 SWAP2 SWAP1 PUSH2 0x3571 JUMP JUMPDEST PUSH1 0x40 MLOAD DUP1 SWAP2 SUB SWAP1 RETURN JUMPDEST PUSH2 0x388 PUSH1 0x4 DUP1 CALLDATASIZE SUB DUP2 ADD SWAP1 PUSH2 0x383 SWAP2 SWAP1 PUSH2 0x33F9 JUMP JUMPDEST PUSH2 0x10F5 JUMP JUMPDEST PUSH1 0x40 MLOAD PUSH2 0x395 SWAP2 SWAP1 PUSH2 0x33DE JUMP JUMPDEST PUSH1 0x40 MLOAD DUP1 SWAP2 SUB SWAP1 RETURN JUMPDEST PUSH2 0x3A6 PUSH2 0x114B JUMP JUMPDEST PUSH1 0x40 MLOAD PUSH2 0x3B3 SWAP2 SWAP1 PUSH2 0x33DE JUMP JUMPDEST PUSH1 0x40 MLOAD DUP1 SWAP2 SUB SWAP1 RETURN JUMPDEST PUSH2 0x3C4 PUSH2 0x11FB JUMP JUMPDEST PUSH1 0x40 MLOAD PUSH2 0x3D1 SWAP2 SWAP1 PUSH2 0x3435 JUMP JUMPDEST PUSH1 0x40 MLOAD DUP1 SWAP2 SUB SWAP1 RETURN JUMPDEST PUSH2 0x3F4 PUSH1 0x4 DUP1 CALLDATASIZE SUB DUP2 ADD SWAP1 PUSH2 0x3EF SWAP2 SWAP1 PUSH2 0x3383 JUMP JUMPDEST PUSH2 0x1249 JUMP JUMPDEST STOP JUMPDEST PUSH2 0x3FE PUSH2 0x1408 JUMP JUMPDEST PUSH1 0x40 MLOAD PUSH2 0x40B SWAP2 SWAP1 PUSH2 0x3435 JUMP JUMPDEST PUSH1 0x40 MLOAD DUP1 SWAP2 SUB SWAP1 RETURN JUMPDEST PUSH2 0x42E PUSH1 0x4 DUP1 CALLDATASIZE SUB DUP2 ADD SWAP1 PUSH2 0x429 SWAP2 SWAP1 PUSH2 0x3535 JUMP JUMPDEST PUSH2 0x140E JUMP JUMPDEST STOP JUMPDEST PUSH2 0x44A PUSH1 0x4 DUP1 CALLDATASIZE SUB DUP2 ADD SWAP1 PUSH2 0x445 SWAP2 SWAP1 PUSH2 0x33F9 JUMP JUMPDEST PUSH2 0x15AB JUMP JUMPDEST PUSH1 0x40 MLOAD PUSH2 0x45A SWAP5 SWAP4 SWAP3 SWAP2 SWAP1 PUSH2 0x358C JUMP JUMPDEST PUSH1 0x40 MLOAD DUP1 SWAP2 SUB SWAP1 RETURN JUMPDEST PUSH2 0x46B PUSH2 0x176E JUMP JUMPDEST PUSH1 0x40 MLOAD PUSH2 0x478 SWAP2 SWAP1 PUSH2 0x3435 JUMP JUMPDEST PUSH1 0x40 MLOAD DUP1 SWAP2 SUB SWAP1 RETURN JUMPDEST PUSH2 0x489 PUSH2 0x17D7 JUMP JUMPDEST PUSH1 0x40 MLOAD PUSH2 0x496 SWAP2 SWAP1 PUSH2 0x3696 JUMP JUMPDEST PUSH1 0x40 MLOAD DUP1 SWAP2 SUB SWAP1 RETURN JUMPDEST PUSH2 0x4B9 PUSH1 0x4 DUP1 CALLDATASIZE SUB DUP2 ADD SWAP1 PUSH2 0x4B4 SWAP2 SWAP1 PUSH2 0x3535 JUMP JUMPDEST PUSH2 0x1865 JUMP JUMPDEST PUSH1 0x40 MLOAD PUSH2 0x4C6 SWAP2 SWAP1 PUSH2 0x3571 JUMP JUMPDEST PUSH1 0x40 MLOAD DUP1 SWAP2 SUB SWAP1 RETURN JUMPDEST PUSH2 0x4E9 PUSH1 0x4 DUP1 CALLDATASIZE SUB DUP2 ADD SWAP1 PUSH2 0x4E4 SWAP2 SWAP1 PUSH2 0x33F9 JUMP JUMPDEST PUSH2 0x18A4 JUMP JUMPDEST STOP JUMPDEST PUSH2 0x505 PUSH1 0x4 DUP1 CALLDATASIZE SUB DUP2 ADD SWAP1 PUSH2 0x500 SWAP2 SWAP1 PUSH2 0x36DD JUMP JUMPDEST PUSH2 0x1A30 JUMP JUMPDEST PUSH1 0x40 MLOAD PUSH2 0x514 SWAP4 SWAP3 SWAP2 SWAP1 PUSH2 0x3758 JUMP JUMPDEST PUSH1 0x40 MLOAD DUP1 SWAP2 SUB SWAP1 RETURN JUMPDEST PUSH2 0x537 PUSH1 0x4 DUP1 CALLDATASIZE SUB DUP2 ADD SWAP1 PUSH2 0x532 SWAP2 SWAP1 PUSH2 0x33F9 JUMP JUMPDEST PUSH2 0x2446 JUMP JUMPDEST PUSH1 0x40 MLOAD PUSH2 0x544 SWAP2 SWAP1 PUSH2 0x3435 JUMP JUMPDEST PUSH1 0x40 MLOAD DUP1 SWAP2 SUB SWAP1 RETURN JUMPDEST PUSH2 0x555 PUSH2 0x245E JUMP JUMPDEST PUSH1 0x40 MLOAD PUSH2 0x562 SWAP2 SWAP1 PUSH2 0x3571 JUMP JUMPDEST PUSH1 0x40 MLOAD DUP1 SWAP2 SUB SWAP1 RETURN JUMPDEST PUSH2 0x585 PUSH1 0x4 DUP1 CALLDATASIZE SUB DUP2 ADD SWAP1 PUSH2 0x580 SWAP2 SWAP1 PUSH2 0x378F JUMP JUMPDEST PUSH2 0x2488 JUMP JUMPDEST PUSH1 0x40 MLOAD PUSH2 0x592 SWAP2 SWAP1 PUSH2 0x3435 JUMP JUMPDEST PUSH1 0x40 MLOAD DUP1 SWAP2 SUB SWAP1 RETURN JUMPDEST PUSH2 0x5A3 PUSH2 0x24AD JUMP JUMPDEST PUSH1 0x40 MLOAD PUSH2 0x5B0 SWAP2 SWAP1 PUSH2 0x33DE JUMP JUMPDEST PUSH1 0x40 MLOAD DUP1 SWAP2 SUB SWAP1 RETURN JUMPDEST PUSH2 0x5D3 PUSH1 0x4 DUP1 CALLDATASIZE SUB DUP2 ADD SWAP1 PUSH2 0x5CE SWAP2 SWAP1 PUSH2 0x33F9 JUMP JUMPDEST PUSH2 0x255D JUMP JUMPDEST PUSH1 0x40 MLOAD PUSH2 0x5E0 SWAP2 SWAP1 PUSH2 0x3696 JUMP JUMPDEST PUSH1 0x40 MLOAD DUP1 SWAP2 SUB SWAP1 RETURN JUMPDEST PUSH2 0x5F1 PUSH2 0x2727 JUMP JUMPDEST PUSH1 0x40 MLOAD PUSH2 0x5FE SWAP2 SWAP1 PUSH2 0x32C8 JUMP JUMPDEST PUSH1 0x40 MLOAD DUP1 SWAP2 SUB SWAP1 RETURN JUMPDEST PUSH2 0x621 PUSH1 0x4 DUP1 CALLDATASIZE SUB DUP2 ADD SWAP1 PUSH2 0x61C SWAP2 SWAP1 PUSH2 0x33F9 JUMP JUMPDEST PUSH2 0x27B5 JUMP JUMPDEST PUSH1 0x40 MLOAD PUSH2 0x62E SWAP2 SWAP1 PUSH2 0x33DE JUMP JUMPDEST PUSH1 0x40 MLOAD DUP1 SWAP2 SUB SWAP1 RETURN JUMPDEST PUSH2 0x651 PUSH1 0x4 DUP1 CALLDATASIZE SUB DUP2 ADD SWAP1 PUSH2 0x64C SWAP2 SWAP1 PUSH2 0x33F9 JUMP JUMPDEST PUSH2 0x27D5 JUMP JUMPDEST PUSH1 0x40 MLOAD PUSH2 0x65E SWAP2 SWAP1 PUSH2 0x3696 JUMP JUMPDEST PUSH1 0x40 MLOAD DUP1 SWAP2 SUB SWAP1 RETURN JUMPDEST PUSH2 0x681 PUSH1 0x4 DUP1 CALLDATASIZE SUB DUP2 ADD SWAP1 PUSH2 0x67C SWAP2 SWAP1 PUSH2 0x3383 JUMP JUMPDEST PUSH2 0x2920 JUMP JUMPDEST PUSH1 0x40 MLOAD PUSH2 0x68E SWAP2 SWAP1 PUSH2 0x3435 JUMP JUMPDEST PUSH1 0x40 MLOAD DUP1 SWAP2 SUB SWAP1 RETURN JUMPDEST PUSH2 0x6B1 PUSH1 0x4 DUP1 CALLDATASIZE SUB DUP2 ADD SWAP1 PUSH2 0x6AC SWAP2 SWAP1 PUSH2 0x3383 JUMP JUMPDEST PUSH2 0x29AC JUMP JUMPDEST PUSH1 0x40 MLOAD PUSH2 0x6BE SWAP2 SWAP1 PUSH2 0x33DE JUMP JUMPDEST PUSH1 0x40 MLOAD DUP1 SWAP2 SUB SWAP1 RETURN JUMPDEST PUSH2 0x6E1 PUSH1 0x4 DUP1 CALLDATASIZE SUB DUP2 ADD SWAP1 PUSH2 0x6DC SWAP2 SWAP1 PUSH2 0x37CF JUMP JUMPDEST PUSH2 0x2CC6 JUMP JUMPDEST PUSH1 0x40 MLOAD PUSH2 0x6EE SWAP2 SWAP1 PUSH2 0x33DE JUMP JUMPDEST PUSH1 0x40 MLOAD DUP1 SWAP2 SUB SWAP1 RETURN JUMPDEST PUSH2 0x711 PUSH1 0x4 DUP1 CALLDATASIZE SUB DUP2 ADD SWAP1 PUSH2 0x70C SWAP2 SWAP1 PUSH2 0x33F9 JUMP JUMPDEST PUSH2 0x2CF5 JUMP JUMPDEST PUSH1 0x40 MLOAD PUSH2 0x722 SWAP6 SWAP5 SWAP4 SWAP3 SWAP2 SWAP1 PUSH2 0x380F JUMP JUMPDEST PUSH1 0x40 MLOAD DUP1 SWAP2 SUB SWAP1 RETURN JUMPDEST PUSH2 0x745 PUSH1 0x4 DUP1 CALLDATASIZE SUB DUP2 ADD SWAP1 PUSH2 0x740 SWAP2 SWAP1 PUSH2 0x378F JUMP JUMPDEST PUSH2 0x2DFA JUMP JUMPDEST PUSH1 0x40 MLOAD PUSH2 0x752 SWAP2 SWAP1 PUSH2 0x3435 JUMP JUMPDEST PUSH1 0x40 MLOAD DUP1 SWAP2 SUB SWAP1 RETURN JUMPDEST PUSH2 0x775 PUSH1 0x4 DUP1 CALLDATASIZE SUB DUP2 ADD SWAP1 PUSH2 0x770 SWAP2 SWAP1 PUSH2 0x3535 JUMP JUMPDEST PUSH2 0x2E1F JUMP JUMPDEST PUSH1 0x40 MLOAD PUSH2 0x782 SWAP2 SWAP1 PUSH2 0x3571 JUMP JUMPDEST PUSH1 0x40 MLOAD DUP1 SWAP2 SUB SWAP1 RETURN JUMPDEST PUSH2 0x7A5 PUSH1 0x4 DUP1 CALLDATASIZE SUB DUP2 ADD SWAP1 PUSH2 0x7A0 SWAP2 SWAP1 PUSH2 0x33F9 JUMP JUMPDEST PUSH2 0x2E5E JUMP JUMPDEST PUSH1 0x40 MLOAD PUSH2 0x7B2 SWAP2 SWAP1 PUSH2 0x3696 JUMP JUMPDEST PUSH1 0x40 MLOAD DUP1 SWAP2 SUB SWAP1 RETURN JUMPDEST PUSH2 0x7D5 PUSH1 0x4 DUP1 CALLDATASIZE SUB DUP2 ADD SWAP1 PUSH2 0x7D0 SWAP2 SWAP1 PUSH2 0x33F9 JUMP JUMPDEST PUSH2 0x3039 JUMP JUMPDEST PUSH1 0x40 MLOAD PUSH2 0x7E2 SWAP2 SWAP1 PUSH2 0x3696 JUMP JUMPDEST PUSH1 0x40 MLOAD DUP1 SWAP2 SUB SWAP1 RETURN JUMPDEST PUSH2 0x7F3 PUSH2 0x3173 JUMP JUMPDEST PUSH1 0x40 MLOAD PUSH2 0x800 SWAP2 SWAP1 PUSH2 0x3571 JUMP JUMPDEST PUSH1 0x40 MLOAD DUP1 SWAP2 SUB SWAP1 RETURN JUMPDEST PUSH2 0x823 PUSH1 0x4 DUP1 CALLDATASIZE SUB DUP2 ADD SWAP1 PUSH2 0x81E SWAP2 SWAP1 PUSH2 0x33F9 JUMP JUMPDEST PUSH2 0x317B JUMP JUMPDEST PUSH1 0x40 MLOAD PUSH2 0x830 SWAP2 SWAP1 PUSH2 0x33DE JUMP JUMPDEST PUSH1 0x40 MLOAD DUP1 SWAP2 SUB SWAP1 RETURN JUMPDEST PUSH2 0x841 PUSH2 0x319B JUMP JUMPDEST PUSH1 0x40 MLOAD PUSH2 0x84E SWAP2 SWAP1 PUSH2 0x3435 JUMP JUMPDEST PUSH1 0x40 MLOAD DUP1 SWAP2 SUB SWAP1 RETURN JUMPDEST PUSH2 0x871 PUSH1 0x4 DUP1 CALLDATASIZE SUB DUP2 ADD SWAP1 PUSH2 0x86C SWAP2 SWAP1 PUSH2 0x33F9 JUMP JUMPDEST PUSH2 0x31E2 JUMP JUMPDEST PUSH1 0x40 MLOAD PUSH2 0x87E SWAP2 SWAP1 PUSH2 0x33DE JUMP JUMPDEST PUSH1 0x40 MLOAD DUP1 SWAP2 SUB SWAP1 RETURN JUMPDEST PUSH1 0x0 DUP1 SLOAD PUSH2 0x894 SWAP1 PUSH2 0x3898 JUMP JUMPDEST DUP1 PUSH1 0x1F ADD PUSH1 0x20 DUP1 SWAP2 DIV MUL PUSH1 0x20 ADD PUSH1 0x40 MLOAD SWAP1 DUP2 ADD PUSH1 0x40 MSTORE DUP1 SWAP3 SWAP2 SWAP1 DUP2 DUP2 MSTORE PUSH1 0x20 ADD DUP3 DUP1 SLOAD PUSH2 0x8C0 SWAP1 PUSH2 0x3898 JUMP JUMPDEST DUP1 ISZERO PUSH2 0x90D JUMPI DUP1 PUSH1 0x1F LT PUSH2 0x8E2 JUMPI PUSH2 0x100 DUP1 DUP4 SLOAD DIV MUL DUP4 MSTORE SWAP2 PUSH1 0x20 ADD SWAP2 PUSH2 0x90D JUMP JUMPDEST DUP3 ADD SWAP2 SWAP1 PUSH1 0x0 MSTORE PUSH1 0x20 PUSH1 0x0 KECCAK256 SWAP1 JUMPDEST DUP2 SLOAD DUP2 MSTORE SWAP1 PUSH1 0x1 ADD SWAP1 PUSH1 0x20 ADD DUP1 DUP4 GT PUSH2 0x8F0 JUMPI DUP3 SWAP1 SUB PUSH1 0x1F AND DUP3 ADD SWAP2 JUMPDEST POP POP POP POP POP DUP2 JUMP JUMPDEST PUSH1 0x0 DUP3 PUSH20 0xFFFFFFFFFFFFFFFFFFFFFFFFFFFFFFFFFFFFFFFF AND CALLER PUSH20 0xFFFFFFFFFFFFFFFFFFFFFFFFFFFFFFFFFFFFFFFF AND SUB PUSH2 0x985 JUMPI PUSH1 0x40 MLOAD PUSH32 0x8C379A000000000000000000000000000000000000000000000000000000000 DUP2 MSTORE PUSH1 0x4 ADD PUSH2 0x97C SWAP1 PUSH2 0x3915 JUMP JUMPDEST PUSH1 0x40 MLOAD DUP1 SWAP2 SUB SWAP1 REVERT JUMPDEST DUP2 PUSH1 0x6 PUSH1 0x0 CALLER PUSH20 0xFFFFFFFFFFFFFFFFFFFFFFFFFFFFFFFFFFFFFFFF AND PUSH20 0xFFFFFFFFFFFFFFFFFFFFFFFFFFFFFFFFFFFFFFFF AND DUP2 MSTORE PUSH1 0x20 ADD SWAP1 DUP2 MSTORE PUSH1 0x20 ADD PUSH1 0x0 KECCAK256 SLOAD GT PUSH2 0xA06 JUMPI PUSH1 0x40 MLOAD PUSH32 0x8C379A000000000000000000000000000000000000000000000000000000000 DUP2 MSTORE PUSH1 0x4 ADD PUSH2 0x9FD SWAP1 PUSH2 0x3981 JUMP JUMPDEST PUSH1 0x40 MLOAD DUP1 SWAP2 SUB SWAP1 REVERT JUMPDEST DUP2 PUSH1 0x5 PUSH1 0x0 CALLER PUSH20 0xFFFFFFFFFFFFFFFFFFFFFFFFFFFFFFFFFFFFFFFF AND PUSH20 0xFFFFFFFFFFFFFFFFFFFFFFFFFFFFFFFFFFFFFFFF AND DUP2 MSTORE PUSH1 0x20 ADD SWAP1 DUP2 MSTORE PUSH1 0x20 ADD PUSH1 0x0 KECCAK256 PUSH1 0x0 DUP6 PUSH20 0xFFFFFFFFFFFFFFFFFFFFFFFFFFFFFFFFFFFFFFFF AND PUSH20 0xFFFFFFFFFFFFFFFFFFFFFFFFFFFFFFFFFFFFFFFF AND DUP2 MSTORE PUSH1 0x20 ADD SWAP1 DUP2 MSTORE PUSH1 0x20 ADD PUSH1 0x0 KECCAK256 DUP2 SWAP1 SSTORE POP DUP2 PUSH1 0x6 PUSH1 0x0 CALLER PUSH20 0xFFFFFFFFFFFFFFFFFFFFFFFFFFFFFFFFFFFFFFFF AND PUSH20 0xFFFFFFFFFFFFFFFFFFFFFFFFFFFFFFFFFFFFFFFF AND DUP2 MSTORE PUSH1 0x20 ADD SWAP1 DUP2 MSTORE PUSH1 0x20 ADD PUSH1 0x0 KECCAK256 PUSH1 0x0 DUP3 DUP3 SLOAD PUSH2 0xAD6 SWAP2 SWAP1 PUSH2 0x39D0 JUMP JUMPDEST SWAP3 POP POP DUP2 SWAP1 SSTORE POP DUP3 PUSH20 0xFFFFFFFFFFFFFFFFFFFFFFFFFFFFFFFFFFFFFFFF AND CALLER PUSH20 0xFFFFFFFFFFFFFFFFFFFFFFFFFFFFFFFFFFFFFFFF AND PUSH32 0x8C5BE1E5EBEC7D5BD14F71427D1E84F3DD0314C0F7B2291E5B200AC8C7C3B925 DUP5 PUSH1 0x40 MLOAD PUSH2 0xB3A SWAP2 SWAP1 PUSH2 0x3435 JUMP JUMPDEST PUSH1 0x40 MLOAD DUP1 SWAP2 SUB SWAP1 LOG3 PUSH1 0x1 SWAP1 POP SWAP3 SWAP2 POP POP JUMP JUMPDEST PUSH1 0x0 PUSH1 0x6 PUSH1 0x0 DUP4 PUSH20 0xFFFFFFFFFFFFFFFFFFFFFFFFFFFFFFFFFFFFFFFF AND PUSH20 0xFFFFFFFFFFFFFFFFFFFFFFFFFFFFFFFFFFFFFFFF AND DUP2 MSTORE PUSH1 0x20 ADD SWAP1 DUP2 MSTORE PUSH1 0x20 ADD PUSH1 0x0 KECCAK256 SLOAD SWAP1 POP SWAP2 SWAP1 POP JUMP JUMPDEST PUSH1 0x3 SLOAD DUP2 JUMP JUMPDEST PUSH1 0xE PUSH1 0x20 MSTORE DUP1 PUSH1 0x0 MSTORE PUSH1 0x40 PUSH1 0x0 KECCAK256 PUSH1 0x0 SWAP2 POP SLOAD SWAP1 PUSH2 0x100 EXP SWAP1 DIV PUSH1 0xFF AND DUP2 JUMP JUMPDEST PUSH1 0x0 DUP2 PUSH1 0x6 PUSH1 0x0 DUP7 PUSH20 0xFFFFFFFFFFFFFFFFFFFFFFFFFFFFFFFFFFFFFFFF AND PUSH20 0xFFFFFFFFFFFFFFFFFFFFFFFFFFFFFFFFFFFFFFFF AND DUP2 MSTORE PUSH1 0x20 ADD SWAP1 DUP2 MSTORE PUSH1 0x20 ADD PUSH1 0x0 KECCAK256 SLOAD GT PUSH2 0xC3E JUMPI PUSH1 0x40 MLOAD PUSH32 0x8C379A000000000000000000000000000000000000000000000000000000000 DUP2 MSTORE PUSH1 0x4 ADD PUSH2 0xC35 SWAP1 PUSH2 0x3A50 JUMP JUMPDEST PUSH1 0x40 MLOAD DUP1 SWAP2 SUB SWAP1 REVERT JUMPDEST PUSH1 0x1 ISZERO ISZERO PUSH1 0x8 PUSH1 0x0 DUP6 PUSH20 0xFFFFFFFFFFFFFFFFFFFFFFFFFFFFFFFFFFFFFFFF AND PUSH20 0xFFFFFFFFFFFFFFFFFFFFFFFFFFFFFFFFFFFFFFFF AND DUP2 MSTORE PUSH1 0x20 ADD SWAP1 DUP2 MSTORE PUSH1 0x20 ADD PUSH1 0x0 KECCAK256 PUSH1 0x0 SWAP1 SLOAD SWAP1 PUSH2 0x100 EXP SWAP1 DIV PUSH1 0xFF AND ISZERO ISZERO EQ PUSH2 0xCD1 JUMPI PUSH1 0x40 MLOAD PUSH32 0x8C379A000000000000000000000000000000000000000000000000000000000 DUP2 MSTORE PUSH1 0x4 ADD PUSH2 0xCC8 SWAP1 PUSH2 0x3AE2 JUMP JUMPDEST PUSH1 0x40 MLOAD DUP1 SWAP2 SUB SWAP1 REVERT JUMPDEST PUSH1 0x7 PUSH1 0x0 DUP6 PUSH20 0xFFFFFFFFFFFFFFFFFFFFFFFFFFFFFFFFFFFFFFFF AND PUSH20 0xFFFFFFFFFFFFFFFFFFFFFFFFFFFFFFFFFFFFFFFF AND DUP2 MSTORE PUSH1 0x20 ADD SWAP1 DUP2 MSTORE PUSH1 0x20 ADD PUSH1 0x0 KECCAK256 PUSH1 0x0 SWAP1 SLOAD SWAP1 PUSH2 0x100 EXP SWAP1 DIV PUSH1 0xFF AND ISZERO DUP1 ISZERO PUSH2 0xD75 JUMPI POP PUSH1 0x7 PUSH1 0x0 DUP5 PUSH20 0xFFFFFFFFFFFFFFFFFFFFFFFFFFFFFFFFFFFFFFFF AND PUSH20 0xFFFFFFFFFFFFFFFFFFFFFFFFFFFFFFFFFFFFFFFF AND DUP2 MSTORE PUSH1 0x20 ADD SWAP1 DUP2 MSTORE PUSH1 0x20 ADD PUSH1 0x0 KECCAK256 PUSH1 0x0 SWAP1 SLOAD SWAP1 PUSH2 0x100 EXP SWAP1 DIV PUSH1 0xFF AND ISZERO JUMPDEST PUSH2 0xDB4 JUMPI PUSH1 0x40 MLOAD PUSH32 0x8C379A000000000000000000000000000000000000000000000000000000000 DUP2 MSTORE PUSH1 0x4 ADD PUSH2 0xDAB SWAP1 PUSH2 0x3B4E JUMP JUMPDEST PUSH1 0x40 MLOAD DUP1 SWAP2 SUB SWAP1 REVERT JUMPDEST PUSH1 0x0 DUP3 GT PUSH2 0xDF7 JUMPI PUSH1 0x40 MLOAD PUSH32 0x8C379A000000000000000000000000000000000000000000000000000000000 DUP2 MSTORE PUSH1 0x4 ADD PUSH2 0xDEE SWAP1 PUSH2 0x3BBA JUMP JUMPDEST PUSH1 0x40 MLOAD DUP1 SWAP2 SUB SWAP1 REVERT JUMPDEST PUSH1 0x0 ISZERO ISZERO PUSH1 0x4 PUSH1 0x14 SWAP1 SLOAD SWAP1 PUSH2 0x100 EXP SWAP1 DIV PUSH1 0xFF AND ISZERO ISZERO EQ PUSH2 0xE4D JUMPI PUSH1 0x40 MLOAD PUSH32 0x8C379A000000000000000000000000000000000000000000000000000000000 DUP2 MSTORE PUSH1 0x4 ADD PUSH2 0xE44 SWAP1 PUSH2 0x3C26 JUMP JUMPDEST PUSH1 0x40 MLOAD DUP1 SWAP2 SUB SWAP1 REVERT JUMPDEST DUP2 PUSH1 0x5 PUSH1 0x0 DUP7 PUSH20 0xFFFFFFFFFFFFFFFFFFFFFFFFFFFFFFFFFFFFFFFF AND PUSH20 0xFFFFFFFFFFFFFFFFFFFFFFFFFFFFFFFFFFFFFFFF AND DUP2 MSTORE PUSH1 0x20 ADD SWAP1 DUP2 MSTORE PUSH1 0x20 ADD PUSH1 0x0 KECCAK256 PUSH1 0x0 DUP6 PUSH20 0xFFFFFFFFFFFFFFFFFFFFFFFFFFFFFFFFFFFFFFFF AND PUSH20 0xFFFFFFFFFFFFFFFFFFFFFFFFFFFFFFFFFFFFFFFF AND DUP2 MSTORE PUSH1 0x20 ADD SWAP1 DUP2 MSTORE PUSH1 0x20 ADD PUSH1 0x0 KECCAK256 SLOAD GT PUSH2 0xF0B JUMPI PUSH1 0x40 MLOAD PUSH32 0x8C379A000000000000000000000000000000000000000000000000000000000 DUP2 MSTORE PUSH1 0x4 ADD PUSH2 0xF02 SWAP1 PUSH2 0x3C92 JUMP JUMPDEST PUSH1 0x40 MLOAD DUP1 SWAP2 SUB SWAP1 REVERT JUMPDEST DUP2 PUSH1 0x5 PUSH1 0x0 DUP7 PUSH20 0xFFFFFFFFFFFFFFFFFFFFFFFFFFFFFFFFFFFFFFFF AND PUSH20 0xFFFFFFFFFFFFFFFFFFFFFFFFFFFFFFFFFFFFFFFF AND DUP2 MSTORE PUSH1 0x20 ADD SWAP1 DUP2 MSTORE PUSH1 0x20 ADD PUSH1 0x0 KECCAK256 PUSH1 0x0 DUP6 PUSH20 0xFFFFFFFFFFFFFFFFFFFFFFFFFFFFFFFFFFFFFFFF AND PUSH20 0xFFFFFFFFFFFFFFFFFFFFFFFFFFFFFFFFFFFFFFFF AND DUP2 MSTORE PUSH1 0x20 ADD SWAP1 DUP2 MSTORE PUSH1 0x20 ADD PUSH1 0x0 KECCAK256 PUSH1 0x0 DUP3 DUP3 SLOAD PUSH2 0xF97 SWAP2 SWAP1 PUSH2 0x39D0 JUMP JUMPDEST SWAP3 POP POP DUP2 SWAP1 SSTORE POP DUP2 PUSH1 0x6 PUSH1 0x0 DUP7 PUSH20 0xFFFFFFFFFFFFFFFFFFFFFFFFFFFFFFFFFFFFFFFF AND PUSH20 0xFFFFFFFFFFFFFFFFFFFFFFFFFFFFFFFFFFFFFFFF AND DUP2 MSTORE PUSH1 0x20 ADD SWAP1 DUP2 MSTORE PUSH1 0x20 ADD PUSH1 0x0 KECCAK256 PUSH1 0x0 DUP3 DUP3 SLOAD PUSH2 0xFED SWAP2 SWAP1 PUSH2 0x39D0 JUMP JUMPDEST SWAP3 POP POP DUP2 SWAP1 SSTORE POP DUP2 PUSH1 0x6 PUSH1 0x0 DUP6 PUSH20 0xFFFFFFFFFFFFFFFFFFFFFFFFFFFFFFFFFFFFFFFF AND PUSH20 0xFFFFFFFFFFFFFFFFFFFFFFFFFFFFFFFFFFFFFFFF AND DUP2 MSTORE PUSH1 0x20 ADD SWAP1 DUP2 MSTORE PUSH1 0x20 ADD PUSH1 0x0 KECCAK256 PUSH1 0x0 DUP3 DUP3 SLOAD PUSH2 0x1043 SWAP2 SWAP1 PUSH2 0x3CB2 JUMP JUMPDEST SWAP3 POP POP DUP2 SWAP1 SSTORE POP DUP3 PUSH20 0xFFFFFFFFFFFFFFFFFFFFFFFFFFFFFFFFFFFFFFFF AND DUP5 PUSH20 0xFFFFFFFFFFFFFFFFFFFFFFFFFFFFFFFFFFFFFFFF AND PUSH32 0xDDF252AD1BE2C89B69C2B068FC378DAA952BA7F163C4A11628F55A4DF523B3EF DUP5 PUSH1 0x40 MLOAD PUSH2 0x10A7 SWAP2 SWAP1 PUSH2 0x3435 JUMP JUMPDEST PUSH1 0x40 MLOAD DUP1 SWAP2 SUB SWAP1 LOG3 SWAP4 SWAP3 POP POP POP JUMP JUMPDEST PUSH1 0xA DUP2 DUP2 SLOAD DUP2 LT PUSH2 0x10C6 JUMPI PUSH1 0x0 DUP1 REVERT JUMPDEST SWAP1 PUSH1 0x0 MSTORE PUSH1 0x20 PUSH1 0x0 KECCAK256 ADD PUSH1 0x0 SWAP2 POP SLOAD SWAP1 PUSH2 0x100 EXP SWAP1 DIV PUSH20 0xFFFFFFFFFFFFFFFFFFFFFFFFFFFFFFFFFFFFFFFF AND DUP2 JUMP JUMPDEST PUSH1 0x0 PUSH1 0x8 PUSH1 0x0 DUP4 PUSH20 0xFFFFFFFFFFFFFFFFFFFFFFFFFFFFFFFFFFFFFFFF AND PUSH20 0xFFFFFFFFFFFFFFFFFFFFFFFFFFFFFFFFFFFFFFFF AND DUP2 MSTORE PUSH1 0x20 ADD SWAP1 DUP2 MSTORE PUSH1 0x20 ADD PUSH1 0x0 KECCAK256 PUSH1 0x0 SWAP1 SLOAD SWAP1 PUSH2 0x100 EXP SWAP1 DIV PUSH1 0xFF AND SWAP1 POP SWAP2 SWAP1 POP JUMP JUMPDEST PUSH1 0x0 PUSH1 0x4 PUSH1 0x0 SWAP1 SLOAD SWAP1 PUSH2 0x100 EXP SWAP1 DIV PUSH20 0xFFFFFFFFFFFFFFFFFFFFFFFFFFFFFFFFFFFFFFFF AND PUSH20 0xFFFFFFFFFFFFFFFFFFFFFFFFFFFFFFFFFFFFFFFF AND CALLER PUSH20 0xFFFFFFFFFFFFFFFFFFFFFFFFFFFFFFFFFFFFFFFF AND EQ PUSH2 0x11DD JUMPI PUSH1 0x40 MLOAD PUSH32 0x8C379A000000000000000000000000000000000000000000000000000000000 DUP2 MSTORE PUSH1 0x4 ADD PUSH2 0x11D4 SWAP1 PUSH2 0x3D58 JUMP JUMPDEST PUSH1 0x40 MLOAD DUP1 SWAP2 SUB SWAP1 REVERT JUMPDEST PUSH1 0x0 PUSH1 0x4 PUSH1 0x14 PUSH2 0x100 EXP DUP2 SLOAD DUP2 PUSH1 0xFF MUL NOT AND SWAP1 DUP4 ISZERO ISZERO MUL OR SWAP1 SSTORE POP SWAP1 JUMP JUMPDEST PUSH1 0x0 PUSH1 0x2 SLOAD PUSH1 0x4 PUSH1 0x0 SWAP1 SLOAD SWAP1 PUSH2 0x100 EXP SWAP1 DIV PUSH20 0xFFFFFFFFFFFFFFFFFFFFFFFFFFFFFFFFFFFFFFFF AND PUSH20 0xFFFFFFFFFFFFFFFFFFFFFFFFFFFFFFFFFFFFFFFF AND BALANCE PUSH2 0x1244 SWAP2 SWAP1 PUSH2 0x3DA7 JUMP JUMPDEST SWAP1 POP SWAP1 JUMP JUMPDEST PUSH1 0x4 PUSH1 0x0 SWAP1 SLOAD SWAP1 PUSH2 0x100 EXP SWAP1 DIV PUSH20 0xFFFFFFFFFFFFFFFFFFFFFFFFFFFFFFFFFFFFFFFF AND PUSH20 0xFFFFFFFFFFFFFFFFFFFFFFFFFFFFFFFFFFFFFFFF AND CALLER PUSH20 0xFFFFFFFFFFFFFFFFFFFFFFFFFFFFFFFFFFFFFFFF AND EQ PUSH2 0x12D9 JUMPI PUSH1 0x40 MLOAD PUSH32 0x8C379A000000000000000000000000000000000000000000000000000000000 DUP2 MSTORE PUSH1 0x4 ADD PUSH2 0x12D0 SWAP1 PUSH2 0x3E24 JUMP JUMPDEST PUSH1 0x40 MLOAD DUP1 SWAP2 SUB SWAP1 REVERT JUMPDEST DUP1 PUSH1 0x6 PUSH1 0x0 CALLER PUSH20 0xFFFFFFFFFFFFFFFFFFFFFFFFFFFFFFFFFFFFFFFF AND PUSH20 0xFFFFFFFFFFFFFFFFFFFFFFFFFFFFFFFFFFFFFFFF AND DUP2 MSTORE PUSH1 0x20 ADD SWAP1 DUP2 MSTORE PUSH1 0x20 ADD PUSH1 0x0 KECCAK256 PUSH1 0x0 DUP3 DUP3 SLOAD PUSH2 0x1328 SWAP2 SWAP1 PUSH2 0x39D0 JUMP JUMPDEST SWAP3 POP POP DUP2 SWAP1 SSTORE POP DUP1 PUSH1 0x3 PUSH1 0x0 DUP3 DUP3 SLOAD PUSH2 0x1341 SWAP2 SWAP1 PUSH2 0x3CB2 JUMP JUMPDEST SWAP3 POP POP DUP2 SWAP1 SSTORE POP DUP1 PUSH1 0x6 PUSH1 0x0 DUP5 PUSH20 0xFFFFFFFFFFFFFFFFFFFFFFFFFFFFFFFFFFFFFFFF AND PUSH20 0xFFFFFFFFFFFFFFFFFFFFFFFFFFFFFFFFFFFFFFFF AND DUP2 MSTORE PUSH1 0x20 ADD SWAP1 DUP2 MSTORE PUSH1 0x20 ADD PUSH1 0x0 KECCAK256 PUSH1 0x0 DUP3 DUP3 SLOAD PUSH2 0x1397 SWAP2 SWAP1 PUSH2 0x3CB2 JUMP JUMPDEST SWAP3 POP POP DUP2 SWAP1 SSTORE POP DUP2 PUSH20 0xFFFFFFFFFFFFFFFFFFFFFFFFFFFFFFFFFFFFFFFF AND PUSH1 0x0 PUSH20 0xFFFFFFFFFFFFFFFFFFFFFFFFFFFFFFFFFFFFFFFF AND PUSH32 0xDDF252AD1BE2C89B69C2B068FC378DAA952BA7F163C4A11628F55A4DF523B3EF DUP4 PUSH1 0x40 MLOAD PUSH2 0x13FC SWAP2 SWAP1 PUSH2 0x3435 JUMP JUMPDEST PUSH1 0x40 MLOAD DUP1 SWAP2 SUB SWAP1 LOG3 POP POP JUMP JUMPDEST PUSH1 0x2 SLOAD DUP2 JUMP JUMPDEST DUP1 PUSH1 0x6 PUSH1 0x0 CALLER PUSH20 0xFFFFFFFFFFFFFFFFFFFFFFFFFFFFFFFFFFFFFFFF AND PUSH20 0xFFFFFFFFFFFFFFFFFFFFFFFFFFFFFFFFFFFFFFFF AND DUP2 MSTORE PUSH1 0x20 ADD SWAP1 DUP2 MSTORE PUSH1 0x20 ADD PUSH1 0x0 KECCAK256 SLOAD GT PUSH2 0x148F JUMPI PUSH1 0x40 MLOAD PUSH32 0x8C379A000000000000000000000000000000000000000000000000000000000 DUP2 MSTORE PUSH1 0x4 ADD PUSH2 0x1486 SWAP1 PUSH2 0x3E90 JUMP JUMPDEST PUSH1 0x40 MLOAD DUP1 SWAP2 SUB SWAP1 REVERT JUMPDEST DUP1 PUSH1 0x3 SLOAD GT PUSH2 0x14D3 JUMPI PUSH1 0x40 MLOAD PUSH32 0x8C379A000000000000000000000000000000000000000000000000000000000 DUP2 MSTORE PUSH1 0x4 ADD PUSH2 0x14CA SWAP1 PUSH2 0x3EFC JUMP JUMPDEST PUSH1 0x40 MLOAD DUP1 SWAP2 SUB SWAP1 REVERT JUMPDEST DUP1 PUSH1 0x3 PUSH1 0x0 DUP3 DUP3 SLOAD PUSH2 0x14E5 SWAP2 SWAP1 PUSH2 0x39D0 JUMP JUMPDEST SWAP3 POP POP DUP2 SWAP1 SSTORE POP DUP1 PUSH1 0x6 PUSH1 0x0 CALLER PUSH20 0xFFFFFFFFFFFFFFFFFFFFFFFFFFFFFFFFFFFFFFFF AND PUSH20 0xFFFFFFFFFFFFFFFFFFFFFFFFFFFFFFFFFFFFFFFF AND DUP2 MSTORE PUSH1 0x20 ADD SWAP1 DUP2 MSTORE PUSH1 0x20 ADD PUSH1 0x0 KECCAK256 PUSH1 0x0 DUP3 DUP3 SLOAD PUSH2 0x153B SWAP2 SWAP1 PUSH2 0x39D0 JUMP JUMPDEST SWAP3 POP POP DUP2 SWAP1 SSTORE POP PUSH1 0x0 PUSH20 0xFFFFFFFFFFFFFFFFFFFFFFFFFFFFFFFFFFFFFFFF AND CALLER PUSH20 0xFFFFFFFFFFFFFFFFFFFFFFFFFFFFFFFFFFFFFFFF AND PUSH32 0xDDF252AD1BE2C89B69C2B068FC378DAA952BA7F163C4A11628F55A4DF523B3EF DUP4 PUSH1 0x40 MLOAD PUSH2 0x15A0 SWAP2 SWAP1 PUSH2 0x3435 JUMP JUMPDEST PUSH1 0x40 MLOAD DUP1 SWAP2 SUB SWAP1 LOG3 POP JUMP JUMPDEST PUSH1 0x0 DUP1 PUSH1 0x0 PUSH1 0x60 PUSH1 0xE PUSH1 0x0 DUP7 PUSH20 0xFFFFFFFFFFFFFFFFFFFFFFFFFFFFFFFFFFFFFFFF AND PUSH20 0xFFFFFFFFFFFFFFFFFFFFFFFFFFFFFFFFFFFFFFFF AND DUP2 MSTORE PUSH1 0x20 ADD SWAP1 DUP2 MSTORE PUSH1 0x20 ADD PUSH1 0x0 KECCAK256 PUSH1 0x0 SWAP1 SLOAD SWAP1 PUSH2 0x100 EXP SWAP1 DIV PUSH1 0xFF AND DUP6 PUSH1 0xD PUSH1 0x0 DUP9 PUSH20 0xFFFFFFFFFFFFFFFFFFFFFFFFFFFFFFFFFFFFFFFF AND PUSH20 0xFFFFFFFFFFFFFFFFFFFFFFFFFFFFFFFFFFFFFFFF AND DUP2 MSTORE PUSH1 0x20 ADD SWAP1 DUP2 MSTORE PUSH1 0x20 ADD PUSH1 0x0 KECCAK256 PUSH1 0x0 PUSH1 0xE PUSH1 0x0 DUP11 PUSH20 0xFFFFFFFFFFFFFFFFFFFFFFFFFFFFFFFFFFFFFFFF AND PUSH20 0xFFFFFFFFFFFFFFFFFFFFFFFFFFFFFFFFFFFFFFFF AND DUP2 MSTORE PUSH1 0x20 ADD SWAP1 DUP2 MSTORE PUSH1 0x20 ADD PUSH1 0x0 KECCAK256 PUSH1 0x0 SWAP1 SLOAD SWAP1 PUSH2 0x100 EXP SWAP1 DIV PUSH1 0xFF AND PUSH1 0x2 DUP2 GT ISZERO PUSH2 0x16A0 JUMPI PUSH2 0x169F PUSH2 0x3450 JUMP JUMPDEST JUMPDEST PUSH1 0x2 DUP2 GT ISZERO PUSH2 0x16B2 JUMPI PUSH2 0x16B1 PUSH2 0x3450 JUMP JUMPDEST JUMPDEST DUP2 MSTORE PUSH1 0x20 ADD SWAP1 DUP2 MSTORE PUSH1 0x20 ADD PUSH1 0x0 KECCAK256 PUSH1 0x0 SWAP1 SLOAD SWAP1 PUSH2 0x100 EXP SWAP1 DIV PUSH1 0xFF AND PUSH1 0xB PUSH1 0x1 ADD DUP1 DUP1 SLOAD PUSH2 0x16DF SWAP1 PUSH2 0x3898 JUMP JUMPDEST DUP1 PUSH1 0x1F ADD PUSH1 0x20 DUP1 SWAP2 DIV MUL PUSH1 0x20 ADD PUSH1 0x40 MLOAD SWAP1 DUP2 ADD PUSH1 0x40 MSTORE DUP1 SWAP3 SWAP2 SWAP1 DUP2 DUP2 MSTORE PUSH1 0x20 ADD DUP3 DUP1 SLOAD PUSH2 0x170B SWAP1 PUSH2 0x3898 JUMP JUMPDEST DUP1 ISZERO PUSH2 0x1758 JUMPI DUP1 PUSH1 0x1F LT PUSH2 0x172D JUMPI PUSH2 0x100 DUP1 DUP4 SLOAD DIV MUL DUP4 MSTORE SWAP2 PUSH1 0x20 ADD SWAP2 PUSH2 0x1758 JUMP JUMPDEST DUP3 ADD SWAP2 SWAP1 PUSH1 0x0 MSTORE PUSH1 0x20 PUSH1 0x0 KECCAK256 SWAP1 JUMPDEST DUP2 SLOAD DUP2 MSTORE SWAP1 PUSH1 0x1 ADD SWAP1 PUSH1 0x20 ADD DUP1 DUP4 GT PUSH2 0x173B JUMPI DUP3 SWAP1 SUB PUSH1 0x1F AND DUP3 ADD SWAP2 JUMPDEST POP POP POP POP POP SWAP1 POP SWAP4 POP SWAP4 POP SWAP4 POP SWAP4 POP SWAP2 SWAP4 POP SWAP2 SWAP4 JUMP JUMPDEST PUSH1 0x0 PUSH1 0x6 PUSH1 0x0 PUSH1 0x4 PUSH1 0x0 SWAP1 SLOAD SWAP1 PUSH2 0x100 EXP SWAP1 DIV PUSH20 0xFFFFFFFFFFFFFFFFFFFFFFFFFFFFFFFFFFFFFFFF AND PUSH20 0xFFFFFFFFFFFFFFFFFFFFFFFFFFFFFFFFFFFFFFFF AND PUSH20 0xFFFFFFFFFFFFFFFFFFFFFFFFFFFFFFFFFFFFFFFF AND DUP2 MSTORE PUSH1 0x20 ADD SWAP1 DUP2 MSTORE PUSH1 0x20 ADD PUSH1 0x0 KECCAK256 SLOAD SWAP1 POP SWAP1 JUMP JUMPDEST PUSH1 0x60 PUSH1 0x9 DUP1 SLOAD DUP1 PUSH1 0x20 MUL PUSH1 0x20 ADD PUSH1 0x40 MLOAD SWAP1 DUP2 ADD PUSH1 0x40 MSTORE DUP1 SWAP3 SWAP2 SWAP1 DUP2 DUP2 MSTORE PUSH1 0x20 ADD DUP3 DUP1 SLOAD DUP1 ISZERO PUSH2 0x185B JUMPI PUSH1 0x20 MUL DUP3 ADD SWAP2 SWAP1 PUSH1 0x0 MSTORE PUSH1 0x20 PUSH1 0x0 KECCAK256 SWAP1 JUMPDEST DUP2 PUSH1 0x0 SWAP1 SLOAD SWAP1 PUSH2 0x100 EXP SWAP1 DIV PUSH20 0xFFFFFFFFFFFFFFFFFFFFFFFFFFFFFFFFFFFFFFFF AND PUSH20 0xFFFFFFFFFFFFFFFFFFFFFFFFFFFFFFFFFFFFFFFF AND DUP2 MSTORE PUSH1 0x20 ADD SWAP1 PUSH1 0x1 ADD SWAP1 DUP1 DUP4 GT PUSH2 0x1811 JUMPI JUMPDEST POP POP POP POP POP SWAP1 POP SWAP1 JUMP JUMPDEST PUSH1 0x9 DUP2 DUP2 SLOAD DUP2 LT PUSH2 0x1875 JUMPI PUSH1 0x0 DUP1 REVERT JUMPDEST SWAP1 PUSH1 0x0 MSTORE PUSH1 0x20 PUSH1 0x0 KECCAK256 ADD PUSH1 0x0 SWAP2 POP SLOAD SWAP1 PUSH2 0x100 EXP SWAP1 DIV PUSH20 0xFFFFFFFFFFFFFFFFFFFFFFFFFFFFFFFFFFFFFFFF AND DUP2 JUMP JUMPDEST PUSH1 0x0 PUSH1 0xE PUSH1 0x0 DUP4 PUSH20 0xFFFFFFFFFFFFFFFFFFFFFFFFFFFFFFFFFFFFFFFF AND PUSH20 0xFFFFFFFFFFFFFFFFFFFFFFFFFFFFFFFFFFFFFFFF AND DUP2 MSTORE PUSH1 0x20 ADD SWAP1 DUP2 MSTORE PUSH1 0x20 ADD PUSH1 0x0 KECCAK256 PUSH1 0x0 PUSH2 0x100 EXP DUP2 SLOAD DUP2 PUSH1 0xFF MUL NOT AND SWAP1 DUP4 PUSH1 0x2 DUP2 GT ISZERO PUSH2 0x1907 JUMPI PUSH2 0x1906 PUSH2 0x3450 JUMP JUMPDEST JUMPDEST MUL OR SWAP1 SSTORE POP PUSH1 0x1 PUSH1 0xD PUSH1 0x0 DUP4 PUSH20 0xFFFFFFFFFFFFFFFFFFFFFFFFFFFFFFFFFFFFFFFF AND PUSH20 0xFFFFFFFFFFFFFFFFFFFFFFFFFFFFFFFFFFFFFFFF AND DUP2 MSTORE PUSH1 0x20 ADD SWAP1 DUP2 MSTORE PUSH1 0x20 ADD PUSH1 0x0 KECCAK256 PUSH1 0x0 PUSH1 0xE PUSH1 0x0 DUP6 PUSH20 0xFFFFFFFFFFFFFFFFFFFFFFFFFFFFFFFFFFFFFFFF AND PUSH20 0xFFFFFFFFFFFFFFFFFFFFFFFFFFFFFFFFFFFFFFFF AND DUP2 MSTORE PUSH1 0x20 ADD SWAP1 DUP2 MSTORE PUSH1 0x20 ADD PUSH1 0x0 KECCAK256 PUSH1 0x0 SWAP1 SLOAD SWAP1 PUSH2 0x100 EXP SWAP1 DIV PUSH1 0xFF AND PUSH1 0x2 DUP2 GT ISZERO PUSH2 0x19AE JUMPI PUSH2 0x19AD PUSH2 0x3450 JUMP JUMPDEST JUMPDEST PUSH1 0x2 DUP2 GT ISZERO PUSH2 0x19C0 JUMPI PUSH2 0x19BF PUSH2 0x3450 JUMP JUMPDEST JUMPDEST DUP2 MSTORE PUSH1 0x20 ADD SWAP1 DUP2 MSTORE PUSH1 0x20 ADD PUSH1 0x0 KECCAK256 PUSH1 0x0 PUSH2 0x100 EXP DUP2 SLOAD DUP2 PUSH1 0xFF MUL NOT AND SWAP1 DUP4 ISZERO ISZERO MUL OR SWAP1 SSTORE POP PUSH1 0x40 MLOAD DUP1 PUSH1 0x40 ADD PUSH1 0x40 MSTORE DUP1 PUSH1 0x5 DUP2 MSTORE PUSH1 0x20 ADD PUSH32 0x41646D696E000000000000000000000000000000000000000000000000000000 DUP2 MSTORE POP PUSH1 0xB PUSH1 0x1 ADD SWAP1 DUP2 PUSH2 0x1A2C SWAP2 SWAP1 PUSH2 0x40F7 JUMP JUMPDEST POP POP JUMP JUMPDEST PUSH1 0x0 DUP1 PUSH1 0x0 DUP8 DUP6 PUSH1 0x0 PUSH1 0x2 DUP2 GT ISZERO PUSH2 0x1A4B JUMPI PUSH2 0x1A4A PUSH2 0x3450 JUMP JUMPDEST JUMPDEST PUSH1 0xE PUSH1 0x0 DUP5 PUSH20 0xFFFFFFFFFFFFFFFFFFFFFFFFFFFFFFFFFFFFFFFF AND PUSH20 0xFFFFFFFFFFFFFFFFFFFFFFFFFFFFFFFFFFFFFFFF AND DUP2 MSTORE PUSH1 0x20 ADD SWAP1 DUP2 MSTORE PUSH1 0x20 ADD PUSH1 0x0 KECCAK256 PUSH1 0x0 SWAP1 SLOAD SWAP1 PUSH2 0x100 EXP SWAP1 DIV PUSH1 0xFF AND PUSH1 0x2 DUP2 GT ISZERO PUSH2 0x1AAA JUMPI PUSH2 0x1AA9 PUSH2 0x3450 JUMP JUMPDEST JUMPDEST EQ PUSH2 0x1AEA JUMPI PUSH1 0x40 MLOAD PUSH32 0x8C379A000000000000000000000000000000000000000000000000000000000 DUP2 MSTORE PUSH1 0x4 ADD PUSH2 0x1AE1 SWAP1 PUSH2 0x4215 JUMP JUMPDEST PUSH1 0x40 MLOAD DUP1 SWAP2 SUB SWAP1 REVERT JUMPDEST PUSH1 0xD PUSH1 0x0 DUP4 PUSH20 0xFFFFFFFFFFFFFFFFFFFFFFFFFFFFFFFFFFFFFFFF AND PUSH20 0xFFFFFFFFFFFFFFFFFFFFFFFFFFFFFFFFFFFFFFFF AND DUP2 MSTORE PUSH1 0x20 ADD SWAP1 DUP2 MSTORE PUSH1 0x20 ADD PUSH1 0x0 KECCAK256 PUSH1 0x0 DUP1 PUSH1 0x2 DUP2 GT ISZERO PUSH2 0x1B3E JUMPI PUSH2 0x1B3D PUSH2 0x3450 JUMP JUMPDEST JUMPDEST PUSH1 0x2 DUP2 GT ISZERO PUSH2 0x1B50 JUMPI PUSH2 0x1B4F PUSH2 0x3450 JUMP JUMPDEST JUMPDEST DUP2 MSTORE PUSH1 0x20 ADD SWAP1 DUP2 MSTORE PUSH1 0x20 ADD PUSH1 0x0 KECCAK256 PUSH1 0x0 SWAP1 SLOAD SWAP1 PUSH2 0x100 EXP SWAP1 DIV PUSH1 0xFF AND PUSH2 0x1BAB JUMPI PUSH1 0x40 MLOAD PUSH32 0x8C379A000000000000000000000000000000000000000000000000000000000 DUP2 MSTORE PUSH1 0x4 ADD PUSH2 0x1BA2 SWAP1 PUSH2 0x42A7 JUMP JUMPDEST PUSH1 0x40 MLOAD DUP1 SWAP2 SUB SWAP1 REVERT JUMPDEST PUSH1 0x0 PUSH1 0x2 DUP2 GT ISZERO PUSH2 0x1BBF JUMPI PUSH2 0x1BBE PUSH2 0x3450 JUMP JUMPDEST JUMPDEST PUSH1 0xE PUSH1 0x0 DUP13 PUSH20 0xFFFFFFFFFFFFFFFFFFFFFFFFFFFFFFFFFFFFFFFF AND PUSH20 0xFFFFFFFFFFFFFFFFFFFFFFFFFFFFFFFFFFFFFFFF AND DUP2 MSTORE PUSH1 0x20 ADD SWAP1 DUP2 MSTORE PUSH1 0x20 ADD PUSH1 0x0 KECCAK256 PUSH1 0x0 SWAP1 SLOAD SWAP1 PUSH2 0x100 EXP SWAP1 DIV PUSH1 0xFF AND PUSH1 0x2 DUP2 GT ISZERO PUSH2 0x1C1E JUMPI PUSH2 0x1C1D PUSH2 0x3450 JUMP JUMPDEST JUMPDEST EQ PUSH2 0x1C5E JUMPI PUSH1 0x40 MLOAD PUSH32 0x8C379A000000000000000000000000000000000000000000000000000000000 DUP2 MSTORE PUSH1 0x4 ADD PUSH2 0x1C55 SWAP1 PUSH2 0x4313 JUMP JUMPDEST PUSH1 0x40 MLOAD DUP1 SWAP2 SUB SWAP1 REVERT JUMPDEST PUSH1 0x1 PUSH1 0x2 DUP2 GT ISZERO PUSH2 0x1C72 JUMPI PUSH2 0x1C71 PUSH2 0x3450 JUMP JUMPDEST JUMPDEST PUSH1 0xE PUSH1 0x0 DUP12 PUSH20 0xFFFFFFFFFFFFFFFFFFFFFFFFFFFFFFFFFFFFFFFF AND PUSH20 0xFFFFFFFFFFFFFFFFFFFFFFFFFFFFFFFFFFFFFFFF AND DUP2 MSTORE PUSH1 0x20 ADD SWAP1 DUP2 MSTORE PUSH1 0x20 ADD PUSH1 0x0 KECCAK256 PUSH1 0x0 SWAP1 SLOAD SWAP1 PUSH2 0x100 EXP SWAP1 DIV PUSH1 0xFF AND PUSH1 0x2 DUP2 GT ISZERO PUSH2 0x1CD1 JUMPI PUSH2 0x1CD0 PUSH2 0x3450 JUMP JUMPDEST JUMPDEST SUB PUSH2 0x1D11 JUMPI PUSH1 0x40 MLOAD PUSH32 0x8C379A000000000000000000000000000000000000000000000000000000000 DUP2 MSTORE PUSH1 0x4 ADD PUSH2 0x1D08 SWAP1 PUSH2 0x43A5 JUMP JUMPDEST PUSH1 0x40 MLOAD DUP1 SWAP2 SUB SWAP1 REVERT JUMPDEST PUSH1 0x0 ISZERO ISZERO PUSH1 0xB PUSH1 0x0 ADD PUSH1 0x14 SWAP1 SLOAD SWAP1 PUSH2 0x100 EXP SWAP1 DIV PUSH1 0xFF AND ISZERO ISZERO EQ PUSH2 0x1D6A JUMPI PUSH1 0x40 MLOAD PUSH32 0x8C379A000000000000000000000000000000000000000000000000000000000 DUP2 MSTORE PUSH1 0x4 ADD PUSH2 0x1D61 SWAP1 PUSH2 0x4411 JUMP JUMPDEST PUSH1 0x40 MLOAD DUP1 SWAP2 SUB SWAP1 REVERT JUMPDEST DUP9 PUSH1 0x10 PUSH1 0x0 DUP12 PUSH20 0xFFFFFFFFFFFFFFFFFFFFFFFFFFFFFFFFFFFFFFFF AND PUSH20 0xFFFFFFFFFFFFFFFFFFFFFFFFFFFFFFFFFFFFFFFF AND DUP2 MSTORE PUSH1 0x20 ADD SWAP1 DUP2 MSTORE PUSH1 0x20 ADD PUSH1 0x0 KECCAK256 PUSH1 0x0 ADD PUSH1 0x0 PUSH2 0x100 EXP DUP2 SLOAD DUP2 PUSH20 0xFFFFFFFFFFFFFFFFFFFFFFFFFFFFFFFFFFFFFFFF MUL NOT AND SWAP1 DUP4 PUSH20 0xFFFFFFFFFFFFFFFFFFFFFFFFFFFFFFFFFFFFFFFF AND MUL OR SWAP1 SSTORE POP DUP8 PUSH1 0x10 PUSH1 0x0 DUP11 PUSH20 0xFFFFFFFFFFFFFFFFFFFFFFFFFFFFFFFFFFFFFFFF AND PUSH20 0xFFFFFFFFFFFFFFFFFFFFFFFFFFFFFFFFFFFFFFFF AND DUP2 MSTORE PUSH1 0x20 ADD SWAP1 DUP2 MSTORE PUSH1 0x20 ADD PUSH1 0x0 KECCAK256 PUSH1 0x0 ADD PUSH1 0x0 PUSH2 0x100 EXP DUP2 SLOAD DUP2 PUSH20 0xFFFFFFFFFFFFFFFFFFFFFFFFFFFFFFFFFFFFFFFF MUL NOT AND SWAP1 DUP4 PUSH20 0xFFFFFFFFFFFFFFFFFFFFFFFFFFFFFFFFFFFFFFFF AND MUL OR SWAP1 SSTORE POP PUSH1 0x1 PUSH1 0xD PUSH1 0x0 DUP13 PUSH20 0xFFFFFFFFFFFFFFFFFFFFFFFFFFFFFFFFFFFFFFFF AND PUSH20 0xFFFFFFFFFFFFFFFFFFFFFFFFFFFFFFFFFFFFFFFF AND DUP2 MSTORE PUSH1 0x20 ADD SWAP1 DUP2 MSTORE PUSH1 0x20 ADD PUSH1 0x0 KECCAK256 PUSH1 0x0 PUSH1 0xE PUSH1 0x0 DUP14 PUSH20 0xFFFFFFFFFFFFFFFFFFFFFFFFFFFFFFFFFFFFFFFF AND PUSH20 0xFFFFFFFFFFFFFFFFFFFFFFFFFFFFFFFFFFFFFFFF AND DUP2 MSTORE PUSH1 0x20 ADD SWAP1 DUP2 MSTORE PUSH1 0x20 ADD PUSH1 0x0 KECCAK256 PUSH1 0x0 SWAP1 SLOAD SWAP1 PUSH2 0x100 EXP SWAP1 DIV PUSH1 0xFF AND PUSH1 0x2 DUP2 GT ISZERO PUSH2 0x1F0E JUMPI PUSH2 0x1F0D PUSH2 0x3450 JUMP JUMPDEST JUMPDEST PUSH1 0x2 DUP2 GT ISZERO PUSH2 0x1F20 JUMPI PUSH2 0x1F1F PUSH2 0x3450 JUMP JUMPDEST JUMPDEST DUP2 MSTORE PUSH1 0x20 ADD SWAP1 DUP2 MSTORE PUSH1 0x20 ADD PUSH1 0x0 KECCAK256 PUSH1 0x0 PUSH2 0x100 EXP DUP2 SLOAD DUP2 PUSH1 0xFF MUL NOT AND SWAP1 DUP4 ISZERO ISZERO MUL OR SWAP1 SSTORE POP PUSH1 0x1 PUSH1 0x10 PUSH1 0x0 DUP12 PUSH20 0xFFFFFFFFFFFFFFFFFFFFFFFFFFFFFFFFFFFFFFFF AND PUSH20 0xFFFFFFFFFFFFFFFFFFFFFFFFFFFFFFFFFFFFFFFF AND DUP2 MSTORE PUSH1 0x20 ADD SWAP1 DUP2 MSTORE PUSH1 0x20 ADD PUSH1 0x0 KECCAK256 PUSH1 0x0 ADD PUSH1 0x14 PUSH2 0x100 EXP DUP2 SLOAD DUP2 PUSH1 0xFF MUL NOT AND SWAP1 DUP4 ISZERO ISZERO MUL OR SWAP1 SSTORE POP PUSH1 0x40 MLOAD DUP1 PUSH1 0x40 ADD PUSH1 0x40 MSTORE DUP1 PUSH1 0x6 DUP2 MSTORE PUSH1 0x20 ADD PUSH32 0x4D696E7465720000000000000000000000000000000000000000000000000000 DUP2 MSTORE POP PUSH1 0x10 PUSH1 0x0 DUP12 PUSH20 0xFFFFFFFFFFFFFFFFFFFFFFFFFFFFFFFFFFFFFFFF AND PUSH20 0xFFFFFFFFFFFFFFFFFFFFFFFFFFFFFFFFFFFFFFFF AND DUP2 MSTORE PUSH1 0x20 ADD SWAP1 DUP2 MSTORE PUSH1 0x20 ADD PUSH1 0x0 KECCAK256 PUSH1 0x1 ADD SWAP1 DUP2 PUSH2 0x2024 SWAP2 SWAP1 PUSH2 0x40F7 JUMP JUMPDEST POP DUP7 PUSH1 0x10 PUSH1 0x0 DUP12 PUSH20 0xFFFFFFFFFFFFFFFFFFFFFFFFFFFFFFFFFFFFFFFF AND PUSH20 0xFFFFFFFFFFFFFFFFFFFFFFFFFFFFFFFFFFFFFFFF AND DUP2 MSTORE PUSH1 0x20 ADD SWAP1 DUP2 MSTORE PUSH1 0x20 ADD PUSH1 0x0 KECCAK256 PUSH1 0x0 ADD PUSH1 0x16 PUSH2 0x100 EXP DUP2 SLOAD DUP2 PUSH1 0xFF MUL NOT AND SWAP1 DUP4 PUSH1 0x2 DUP2 GT ISZERO PUSH2 0x208A JUMPI PUSH2 0x2089 PUSH2 0x3450 JUMP JUMPDEST JUMPDEST MUL OR SWAP1 SSTORE POP PUSH1 0x1 PUSH1 0xD PUSH1 0x0 DUP13 PUSH20 0xFFFFFFFFFFFFFFFFFFFFFFFFFFFFFFFFFFFFFFFF AND PUSH20 0xFFFFFFFFFFFFFFFFFFFFFFFFFFFFFFFFFFFFFFFF AND DUP2 MSTORE PUSH1 0x20 ADD SWAP1 DUP2 MSTORE PUSH1 0x20 ADD PUSH1 0x0 KECCAK256 PUSH1 0x0 PUSH1 0xE PUSH1 0x0 DUP13 PUSH20 0xFFFFFFFFFFFFFFFFFFFFFFFFFFFFFFFFFFFFFFFF AND PUSH20 0xFFFFFFFFFFFFFFFFFFFFFFFFFFFFFFFFFFFFFFFF AND DUP2 MSTORE PUSH1 0x20 ADD SWAP1 DUP2 MSTORE PUSH1 0x20 ADD PUSH1 0x0 KECCAK256 PUSH1 0x0 SWAP1 SLOAD SWAP1 PUSH2 0x100 EXP SWAP1 DIV PUSH1 0xFF AND PUSH1 0x2 DUP2 GT ISZERO PUSH2 0x2131 JUMPI PUSH2 0x2130 PUSH2 0x3450 JUMP JUMPDEST JUMPDEST PUSH1 0x2 DUP2 GT ISZERO PUSH2 0x2143 JUMPI PUSH2 0x2142 PUSH2 0x3450 JUMP JUMPDEST JUMPDEST DUP2 MSTORE PUSH1 0x20 ADD SWAP1 DUP2 MSTORE PUSH1 0x20 ADD PUSH1 0x0 KECCAK256 PUSH1 0x0 PUSH2 0x100 EXP DUP2 SLOAD DUP2 PUSH1 0xFF MUL NOT AND SWAP1 DUP4 ISZERO ISZERO MUL OR SWAP1 SSTORE POP PUSH1 0x1 PUSH1 0x10 PUSH1 0x0 DUP11 PUSH20 0xFFFFFFFFFFFFFFFFFFFFFFFFFFFFFFFFFFFFFFFF AND PUSH20 0xFFFFFFFFFFFFFFFFFFFFFFFFFFFFFFFFFFFFFFFF AND DUP2 MSTORE PUSH1 0x20 ADD SWAP1 DUP2 MSTORE PUSH1 0x20 ADD PUSH1 0x0 KECCAK256 PUSH1 0x0 ADD PUSH1 0x14 PUSH2 0x100 EXP DUP2 SLOAD DUP2 PUSH1 0xFF MUL NOT AND SWAP1 DUP4 ISZERO ISZERO MUL OR SWAP1 SSTORE POP PUSH1 0x40 MLOAD DUP1 PUSH1 0x40 ADD PUSH1 0x40 MSTORE DUP1 PUSH1 0x6 DUP2 MSTORE PUSH1 0x20 ADD PUSH32 0x5061757365720000000000000000000000000000000000000000000000000000 DUP2 MSTORE POP PUSH1 0x10 PUSH1 0x0 DUP11 PUSH20 0xFFFFFFFFFFFFFFFFFFFFFFFFFFFFFFFFFFFFFFFF AND PUSH20 0xFFFFFFFFFFFFFFFFFFFFFFFFFFFFFFFFFFFFFFFF AND DUP2 MSTORE PUSH1 0x20 ADD SWAP1 DUP2 MSTORE PUSH1 0x20 ADD PUSH1 0x0 KECCAK256 PUSH1 0x1 ADD SWAP1 DUP2 PUSH2 0x2247 SWAP2 SWAP1 PUSH2 0x40F7 JUMP JUMPDEST POP DUP6 PUSH1 0x10 PUSH1 0x0 DUP11 PUSH20 0xFFFFFFFFFFFFFFFFFFFFFFFFFFFFFFFFFFFFFFFF AND PUSH20 0xFFFFFFFFFFFFFFFFFFFFFFFFFFFFFFFFFFFFFFFF AND DUP2 MSTORE PUSH1 0x20 ADD SWAP1 DUP2 MSTORE PUSH1 0x20 ADD PUSH1 0x0 KECCAK256 PUSH1 0x0 ADD PUSH1 0x16 PUSH2 0x100 EXP DUP2 SLOAD DUP2 PUSH1 0xFF MUL NOT AND SWAP1 DUP4 PUSH1 0x2 DUP2 GT ISZERO PUSH2 0x22AD JUMPI PUSH2 0x22AC PUSH2 0x3450 JUMP JUMPDEST JUMPDEST MUL OR SWAP1 SSTORE POP PUSH1 0x10 PUSH1 0x0 DUP10 PUSH20 0xFFFFFFFFFFFFFFFFFFFFFFFFFFFFFFFFFFFFFFFF AND PUSH20 0xFFFFFFFFFFFFFFFFFFFFFFFFFFFFFFFFFFFFFFFF AND DUP2 MSTORE PUSH1 0x20 ADD SWAP1 DUP2 MSTORE PUSH1 0x20 ADD PUSH1 0x0 KECCAK256 PUSH1 0x0 ADD PUSH1 0x0 SWAP1 SLOAD SWAP1 PUSH2 0x100 EXP SWAP1 DIV PUSH20 0xFFFFFFFFFFFFFFFFFFFFFFFFFFFFFFFFFFFFFFFF AND PUSH1 0x10 PUSH1 0x0 DUP11 PUSH20 0xFFFFFFFFFFFFFFFFFFFFFFFFFFFFFFFFFFFFFFFF AND PUSH20 0xFFFFFFFFFFFFFFFFFFFFFFFFFFFFFFFFFFFFFFFF AND DUP2 MSTORE PUSH1 0x20 ADD SWAP1 DUP2 MSTORE PUSH1 0x20 ADD PUSH1 0x0 KECCAK256 PUSH1 0x0 ADD PUSH1 0x16 SWAP1 SLOAD SWAP1 PUSH2 0x100 EXP SWAP1 DIV PUSH1 0xFF AND PUSH1 0xD PUSH1 0x0 DUP14 PUSH20 0xFFFFFFFFFFFFFFFFFFFFFFFFFFFFFFFFFFFFFFFF AND PUSH20 0xFFFFFFFFFFFFFFFFFFFFFFFFFFFFFFFFFFFFFFFF AND DUP2 MSTORE PUSH1 0x20 ADD SWAP1 DUP2 MSTORE PUSH1 0x20 ADD PUSH1 0x0 KECCAK256 PUSH1 0x0 PUSH1 0xE PUSH1 0x0 DUP14 PUSH20 0xFFFFFFFFFFFFFFFFFFFFFFFFFFFFFFFFFFFFFFFF AND PUSH20 0xFFFFFFFFFFFFFFFFFFFFFFFFFFFFFFFFFFFFFFFF AND DUP2 MSTORE PUSH1 0x20 ADD SWAP1 DUP2 MSTORE PUSH1 0x20 ADD PUSH1 0x0 KECCAK256 PUSH1 0x0 SWAP1 SLOAD SWAP1 PUSH2 0x100 EXP SWAP1 DIV PUSH1 0xFF AND PUSH1 0x2 DUP2 GT ISZERO PUSH2 0x2405 JUMPI PUSH2 0x2404 PUSH2 0x3450 JUMP JUMPDEST JUMPDEST PUSH1 0x2 DUP2 GT ISZERO PUSH2 0x2417 JUMPI PUSH2 0x2416 PUSH2 0x3450 JUMP JUMPDEST JUMPDEST DUP2 MSTORE PUSH1 0x20 ADD SWAP1 DUP2 MSTORE PUSH1 0x20 ADD PUSH1 0x0 KECCAK256 PUSH1 0x0 SWAP1 SLOAD SWAP1 PUSH2 0x100 EXP SWAP1 DIV PUSH1 0xFF AND SWAP5 POP SWAP5 POP SWAP5 POP POP POP SWAP6 POP SWAP6 POP SWAP6 SWAP3 POP POP POP JUMP JUMPDEST PUSH1 0x6 PUSH1 0x20 MSTORE DUP1 PUSH1 0x0 MSTORE PUSH1 0x40 PUSH1 0x0 KECCAK256 PUSH1 0x0 SWAP2 POP SWAP1 POP SLOAD DUP2 JUMP JUMPDEST PUSH1 0x0 PUSH1 0x4 PUSH1 0x0 SWAP1 SLOAD SWAP1 PUSH2 0x100 EXP SWAP1 DIV PUSH20 0xFFFFFFFFFFFFFFFFFFFFFFFFFFFFFFFFFFFFFFFF AND SWAP1 POP SWAP1 JUMP JUMPDEST PUSH1 0xF PUSH1 0x20 MSTORE DUP2 PUSH1 0x0 MSTORE PUSH1 0x40 PUSH1 0x0 KECCAK256 PUSH1 0x20 MSTORE DUP1 PUSH1 0x0 MSTORE PUSH1 0x40 PUSH1 0x0 KECCAK256 PUSH1 0x0 SWAP2 POP SWAP2 POP POP SLOAD DUP2 JUMP JUMPDEST PUSH1 0x0 PUSH1 0x4 PUSH1 0x0 SWAP1 SLOAD SWAP1 PUSH2 0x100 EXP SWAP1 DIV PUSH20 0xFFFFFFFFFFFFFFFFFFFFFFFFFFFFFFFFFFFFFFFF AND PUSH20 0xFFFFFFFFFFFFFFFFFFFFFFFFFFFFFFFFFFFFFFFF AND CALLER PUSH20 0xFFFFFFFFFFFFFFFFFFFFFFFFFFFFFFFFFFFFFFFF AND EQ PUSH2 0x253F JUMPI PUSH1 0x40 MLOAD PUSH32 0x8C379A000000000000000000000000000000000000000000000000000000000 DUP2 MSTORE PUSH1 0x4 ADD PUSH2 0x2536 SWAP1 PUSH2 0x3D58 JUMP JUMPDEST PUSH1 0x40 MLOAD DUP1 SWAP2 SUB SWAP1 REVERT JUMPDEST PUSH1 0x1 PUSH1 0x4 PUSH1 0x14 PUSH2 0x100 EXP DUP2 SLOAD DUP2 PUSH1 0xFF MUL NOT AND SWAP1 DUP4 ISZERO ISZERO MUL OR SWAP1 SSTORE POP SWAP1 JUMP JUMPDEST PUSH1 0x60 PUSH1 0x4 PUSH1 0x0 SWAP1 SLOAD SWAP1 PUSH2 0x100 EXP SWAP1 DIV PUSH20 0xFFFFFFFFFFFFFFFFFFFFFFFFFFFFFFFFFFFFFFFF AND PUSH20 0xFFFFFFFFFFFFFFFFFFFFFFFFFFFFFFFFFFFFFFFF AND CALLER PUSH20 0xFFFFFFFFFFFFFFFFFFFFFFFFFFFFFFFFFFFFFFFF AND EQ PUSH2 0x25EF JUMPI PUSH1 0x40 MLOAD PUSH32 0x8C379A000000000000000000000000000000000000000000000000000000000 DUP2 MSTORE PUSH1 0x4 ADD PUSH2 0x25E6 SWAP1 PUSH2 0x3D58 JUMP JUMPDEST PUSH1 0x40 MLOAD DUP1 SWAP2 SUB SWAP1 REVERT JUMPDEST PUSH1 0x0 PUSH1 0x8 PUSH1 0x0 DUP5 PUSH20 0xFFFFFFFFFFFFFFFFFFFFFFFFFFFFFFFFFFFFFFFF AND PUSH20 0xFFFFFFFFFFFFFFFFFFFFFFFFFFFFFFFFFFFFFFFF AND DUP2 MSTORE PUSH1 0x20 ADD SWAP1 DUP2 MSTORE PUSH1 0x20 ADD PUSH1 0x0 KECCAK256 PUSH1 0x0 PUSH2 0x100 EXP DUP2 SLOAD DUP2 PUSH1 0xFF MUL NOT AND SWAP1 DUP4 ISZERO ISZERO MUL OR SWAP1 SSTORE POP PUSH1 0xA PUSH1 0x1 PUSH1 0xA DUP1 SLOAD SWAP1 POP PUSH2 0x265B SWAP2 SWAP1 PUSH2 0x39D0 JUMP JUMPDEST DUP2 SLOAD DUP2 LT PUSH2 0x266C JUMPI PUSH2 0x266B PUSH2 0x4431 JUMP JUMPDEST JUMPDEST SWAP1 PUSH1 0x0 MSTORE PUSH1 0x20 PUSH1 0x0 KECCAK256 ADD PUSH1 0x0 PUSH2 0x100 EXP DUP2 SLOAD SWAP1 PUSH20 0xFFFFFFFFFFFFFFFFFFFFFFFFFFFFFFFFFFFFFFFF MUL NOT AND SWAP1 SSTORE PUSH1 0xA DUP1 SLOAD DUP1 PUSH1 0x20 MUL PUSH1 0x20 ADD PUSH1 0x40 MLOAD SWAP1 DUP2 ADD PUSH1 0x40 MSTORE DUP1 SWAP3 SWAP2 SWAP1 DUP2 DUP2 MSTORE PUSH1 0x20 ADD DUP3 DUP1 SLOAD DUP1 ISZERO PUSH2 0x271B JUMPI PUSH1 0x20 MUL DUP3 ADD SWAP2 SWAP1 PUSH1 0x0 MSTORE PUSH1 0x20 PUSH1 0x0 KECCAK256 SWAP1 JUMPDEST DUP2 PUSH1 0x0 SWAP1 SLOAD SWAP1 PUSH2 0x100 EXP SWAP1 DIV PUSH20 0xFFFFFFFFFFFFFFFFFFFFFFFFFFFFFFFFFFFFFFFF AND PUSH20 0xFFFFFFFFFFFFFFFFFFFFFFFFFFFFFFFFFFFFFFFF AND DUP2 MSTORE PUSH1 0x20 ADD SWAP1 PUSH1 0x1 ADD SWAP1 DUP1 DUP4 GT PUSH2 0x26D1 JUMPI JUMPDEST POP POP POP POP POP SWAP1 POP SWAP2 SWAP1 POP JUMP JUMPDEST PUSH1 0x1 DUP1 SLOAD PUSH2 0x2734 SWAP1 PUSH2 0x3898 JUMP JUMPDEST DUP1 PUSH1 0x1F ADD PUSH1 0x20 DUP1 SWAP2 DIV MUL PUSH1 0x20 ADD PUSH1 0x40 MLOAD SWAP1 DUP2 ADD PUSH1 0x40 MSTORE DUP1 SWAP3 SWAP2 SWAP1 DUP2 DUP2 MSTORE PUSH1 0x20 ADD DUP3 DUP1 SLOAD PUSH2 0x2760 SWAP1 PUSH2 0x3898 JUMP JUMPDEST DUP1 ISZERO PUSH2 0x27AD JUMPI DUP1 PUSH1 0x1F LT PUSH2 0x2782 JUMPI PUSH2 0x100 DUP1 DUP4 SLOAD DIV MUL DUP4 MSTORE SWAP2 PUSH1 0x20 ADD SWAP2 PUSH2 0x27AD JUMP JUMPDEST DUP3 ADD SWAP2 SWAP1 PUSH1 0x0 MSTORE PUSH1 0x20 PUSH1 0x0 KECCAK256 SWAP1 JUMPDEST DUP2 SLOAD DUP2 MSTORE SWAP1 PUSH1 0x1 ADD SWAP1 PUSH1 0x20 ADD DUP1 DUP4 GT PUSH2 0x2790 JUMPI DUP3 SWAP1 SUB PUSH1 0x1F AND DUP3 ADD SWAP2 JUMPDEST POP POP POP POP POP DUP2 JUMP JUMPDEST PUSH1 0x8 PUSH1 0x20 MSTORE DUP1 PUSH1 0x0 MSTORE PUSH1 0x40 PUSH1 0x0 KECCAK256 PUSH1 0x0 SWAP2 POP SLOAD SWAP1 PUSH2 0x100 EXP SWAP1 DIV PUSH1 0xFF AND DUP2 JUMP JUMPDEST PUSH1 0x60 PUSH1 0x1 PUSH1 0x7 PUSH1 0x0 DUP5 PUSH20 0xFFFFFFFFFFFFFFFFFFFFFFFFFFFFFFFFFFFFFFFF AND PUSH20 0xFFFFFFFFFFFFFFFFFFFFFFFFFFFFFFFFFFFFFFFF AND DUP2 MSTORE PUSH1 0x20 ADD SWAP1 DUP2 MSTORE PUSH1 0x20 ADD PUSH1 0x0 KECCAK256 PUSH1 0x0 PUSH2 0x100 EXP DUP2 SLOAD DUP2 PUSH1 0xFF MUL NOT AND SWAP1 DUP4 ISZERO ISZERO MUL OR SWAP1 SSTORE POP PUSH1 0x9 DUP3 SWAP1 DUP1 PUSH1 0x1 DUP2 SLOAD ADD DUP1 DUP3 SSTORE DUP1 SWAP2 POP POP PUSH1 0x1 SWAP1 SUB SWAP1 PUSH1 0x0 MSTORE PUSH1 0x20 PUSH1 0x0 KECCAK256 ADD PUSH1 0x0 SWAP1 SWAP2 SWAP1 SWAP2 SWAP1 SWAP2 PUSH2 0x100 EXP DUP2 SLOAD DUP2 PUSH20 0xFFFFFFFFFFFFFFFFFFFFFFFFFFFFFFFFFFFFFFFF MUL NOT AND SWAP1 DUP4 PUSH20 0xFFFFFFFFFFFFFFFFFFFFFFFFFFFFFFFFFFFFFFFF AND MUL OR SWAP1 SSTORE POP PUSH1 0x9 DUP1 SLOAD DUP1 PUSH1 0x20 MUL PUSH1 0x20 ADD PUSH1 0x40 MLOAD SWAP1 DUP2 ADD PUSH1 0x40 MSTORE DUP1 SWAP3 SWAP2 SWAP1 DUP2 DUP2 MSTORE PUSH1 0x20 ADD DUP3 DUP1 SLOAD DUP1 ISZERO PUSH2 0x2914 JUMPI PUSH1 0x20 MUL DUP3 ADD SWAP2 SWAP1 PUSH1 0x0 MSTORE PUSH1 0x20 PUSH1 0x0 KECCAK256 SWAP1 JUMPDEST DUP2 PUSH1 0x0 SWAP1 SLOAD SWAP1 PUSH2 0x100 EXP SWAP1 DIV PUSH20 0xFFFFFFFFFFFFFFFFFFFFFFFFFFFFFFFFFFFFFFFF AND PUSH20 0xFFFFFFFFFFFFFFFFFFFFFFFFFFFFFFFFFFFFFFFF AND DUP2 MSTORE PUSH1 0x20 ADD SWAP1 PUSH1 0x1 ADD SWAP1 DUP1 DUP4 GT PUSH2 0x28CA JUMPI JUMPDEST POP POP POP POP POP SWAP1 POP SWAP2 SWAP1 POP JUMP JUMPDEST PUSH1 0x0 DUP1 PUSH1 0x5 PUSH1 0x0 CALLER PUSH20 0xFFFFFFFFFFFFFFFFFFFFFFFFFFFFFFFFFFFFFFFF AND PUSH20 0xFFFFFFFFFFFFFFFFFFFFFFFFFFFFFFFFFFFFFFFF AND DUP2 MSTORE PUSH1 0x20 ADD SWAP1 DUP2 MSTORE PUSH1 0x20 ADD PUSH1 0x0 KECCAK256 PUSH1 0x0 DUP6 PUSH20 0xFFFFFFFFFFFFFFFFFFFFFFFFFFFFFFFFFFFFFFFF AND PUSH20 0xFFFFFFFFFFFFFFFFFFFFFFFFFFFFFFFFFFFFFFFF AND DUP2 MSTORE PUSH1 0x20 ADD SWAP1 DUP2 MSTORE PUSH1 0x20 ADD PUSH1 0x0 KECCAK256 SLOAD SWAP1 POP DUP1 SWAP2 POP POP SWAP3 SWAP2 POP POP JUMP JUMPDEST PUSH1 0x0 DUP2 PUSH1 0x6 PUSH1 0x0 CALLER PUSH20 0xFFFFFFFFFFFFFFFFFFFFFFFFFFFFFFFFFFFFFFFF AND PUSH20 0xFFFFFFFFFFFFFFFFFFFFFFFFFFFFFFFFFFFFFFFF AND DUP2 MSTORE PUSH1 0x20 ADD SWAP1 DUP2 MSTORE PUSH1 0x20 ADD PUSH1 0x0 KECCAK256 SLOAD GT PUSH2 0x2A2F JUMPI PUSH1 0x40 MLOAD PUSH32 0x8C379A000000000000000000000000000000000000000000000000000000000 DUP2 MSTORE PUSH1 0x4 ADD PUSH2 0x2A26 SWAP1 PUSH2 0x3A50 JUMP JUMPDEST PUSH1 0x40 MLOAD DUP1 SWAP2 SUB SWAP1 REVERT JUMPDEST PUSH1 0x0 ISZERO ISZERO PUSH1 0x7 PUSH1 0x0 DUP6 PUSH20 0xFFFFFFFFFFFFFFFFFFFFFFFFFFFFFFFFFFFFFFFF AND PUSH20 0xFFFFFFFFFFFFFFFFFFFFFFFFFFFFFFFFFFFFFFFF AND DUP2 MSTORE PUSH1 0x20 ADD SWAP1 DUP2 MSTORE PUSH1 0x20 ADD PUSH1 0x0 KECCAK256 PUSH1 0x0 SWAP1 SLOAD SWAP1 PUSH2 0x100 EXP SWAP1 DIV PUSH1 0xFF AND ISZERO ISZERO EQ PUSH2 0x2AC2 JUMPI PUSH1 0x40 MLOAD PUSH32 0x8C379A000000000000000000000000000000000000000000000000000000000 DUP2 MSTORE PUSH1 0x4 ADD PUSH2 0x2AB9 SWAP1 PUSH2 0x44AC JUMP JUMPDEST PUSH1 0x40 MLOAD DUP1 SWAP2 SUB SWAP1 REVERT JUMPDEST PUSH1 0x0 ISZERO ISZERO PUSH1 0x4 PUSH1 0x14 SWAP1 SLOAD SWAP1 PUSH2 0x100 EXP SWAP1 DIV PUSH1 0xFF AND ISZERO ISZERO EQ PUSH2 0x2B18 JUMPI PUSH1 0x40 MLOAD PUSH32 0x8C379A000000000000000000000000000000000000000000000000000000000 DUP2 MSTORE PUSH1 0x4 ADD PUSH2 0x2B0F SWAP1 PUSH2 0x3C26 JUMP JUMPDEST PUSH1 0x40 MLOAD DUP1 SWAP2 SUB SWAP1 REVERT JUMPDEST PUSH1 0x1 ISZERO ISZERO PUSH1 0x8 PUSH1 0x0 DUP6 PUSH20 0xFFFFFFFFFFFFFFFFFFFFFFFFFFFFFFFFFFFFFFFF AND PUSH20 0xFFFFFFFFFFFFFFFFFFFFFFFFFFFFFFFFFFFFFFFF AND DUP2 MSTORE PUSH1 0x20 ADD SWAP1 DUP2 MSTORE PUSH1 0x20 ADD PUSH1 0x0 KECCAK256 PUSH1 0x0 SWAP1 SLOAD SWAP1 PUSH2 0x100 EXP SWAP1 DIV PUSH1 0xFF AND ISZERO ISZERO EQ PUSH2 0x2BAB JUMPI PUSH1 0x40 MLOAD PUSH32 0x8C379A000000000000000000000000000000000000000000000000000000000 DUP2 MSTORE PUSH1 0x4 ADD PUSH2 0x2BA2 SWAP1 PUSH2 0x3AE2 JUMP JUMPDEST PUSH1 0x40 MLOAD DUP1 SWAP2 SUB SWAP1 REVERT JUMPDEST DUP2 PUSH1 0x6 PUSH1 0x0 DUP6 PUSH20 0xFFFFFFFFFFFFFFFFFFFFFFFFFFFFFFFFFFFFFFFF AND PUSH20 0xFFFFFFFFFFFFFFFFFFFFFFFFFFFFFFFFFFFFFFFF AND DUP2 MSTORE PUSH1 0x20 ADD SWAP1 DUP2 MSTORE PUSH1 0x20 ADD PUSH1 0x0 KECCAK256 PUSH1 0x0 DUP3 DUP3 SLOAD PUSH2 0x2BFA SWAP2 SWAP1 PUSH2 0x3CB2 JUMP JUMPDEST SWAP3 POP POP DUP2 SWAP1 SSTORE POP DUP2 PUSH1 0x6 PUSH1 0x0 CALLER PUSH20 0xFFFFFFFFFFFFFFFFFFFFFFFFFFFFFFFFFFFFFFFF AND PUSH20 0xFFFFFFFFFFFFFFFFFFFFFFFFFFFFFFFFFFFFFFFF AND DUP2 MSTORE PUSH1 0x20 ADD SWAP1 DUP2 MSTORE PUSH1 0x20 ADD PUSH1 0x0 KECCAK256 PUSH1 0x0 DUP3 DUP3 SLOAD PUSH2 0x2C50 SWAP2 SWAP1 PUSH2 0x39D0 JUMP JUMPDEST SWAP3 POP POP DUP2 SWAP1 SSTORE POP DUP3 PUSH20 0xFFFFFFFFFFFFFFFFFFFFFFFFFFFFFFFFFFFFFFFF AND CALLER PUSH20 0xFFFFFFFFFFFFFFFFFFFFFFFFFFFFFFFFFFFFFFFF AND PUSH32 0xDDF252AD1BE2C89B69C2B068FC378DAA952BA7F163C4A11628F55A4DF523B3EF DUP5 PUSH1 0x40 MLOAD PUSH2 0x2CB4 SWAP2 SWAP1 PUSH2 0x3435 JUMP JUMPDEST PUSH1 0x40 MLOAD DUP1 SWAP2 SUB SWAP1 LOG3 PUSH1 0x1 SWAP1 POP SWAP3 SWAP2 POP POP JUMP JUMPDEST PUSH1 0xD PUSH1 0x20 MSTORE DUP2 PUSH1 0x0 MSTORE PUSH1 0x40 PUSH1 0x0 KECCAK256 PUSH1 0x20 MSTORE DUP1 PUSH1 0x0 MSTORE PUSH1 0x40 PUSH1 0x0 KECCAK256 PUSH1 0x0 SWAP2 POP SWAP2 POP SWAP1 SLOAD SWAP1 PUSH2 0x100 EXP SWAP1 DIV PUSH1 0xFF AND DUP2 JUMP JUMPDEST PUSH1 0x10 PUSH1 0x20 MSTORE DUP1 PUSH1 0x0 MSTORE PUSH1 0x40 PUSH1 0x0 KECCAK256 PUSH1 0x0 SWAP2 POP SWAP1 POP DUP1 PUSH1 0x0 ADD PUSH1 0x0 SWAP1 SLOAD SWAP1 PUSH2 0x100 EXP SWAP1 DIV PUSH20 0xFFFFFFFFFFFFFFFFFFFFFFFFFFFFFFFFFFFFFFFF AND SWAP1 DUP1 PUSH1 0x0 ADD PUSH1 0x14 SWAP1 SLOAD SWAP1 PUSH2 0x100 EXP SWAP1 DIV PUSH1 0xFF AND SWAP1 DUP1 PUSH1 0x0 ADD PUSH1 0x15 SWAP1 SLOAD SWAP1 PUSH2 0x100 EXP SWAP1 DIV PUSH1 0xFF AND SWAP1 DUP1 PUSH1 0x0 ADD PUSH1 0x16 SWAP1 SLOAD SWAP1 PUSH2 0x100 EXP SWAP1 DIV PUSH1 0xFF AND SWAP1 DUP1 PUSH1 0x1 ADD DUP1 SLOAD PUSH2 0x2D77 SWAP1 PUSH2 0x3898 JUMP JUMPDEST DUP1 PUSH1 0x1F ADD PUSH1 0x20 DUP1 SWAP2 DIV MUL PUSH1 0x20 ADD PUSH1 0x40 MLOAD SWAP1 DUP2 ADD PUSH1 0x40 MSTORE DUP1 SWAP3 SWAP2 SWAP1 DUP2 DUP2 MSTORE PUSH1 0x20 ADD DUP3 DUP1 SLOAD PUSH2 0x2DA3 SWAP1 PUSH2 0x3898 JUMP JUMPDEST DUP1 ISZERO PUSH2 0x2DF0 JUMPI DUP1 PUSH1 0x1F LT PUSH2 0x2DC5 JUMPI PUSH2 0x100 DUP1 DUP4 SLOAD DIV MUL DUP4 MSTORE SWAP2 PUSH1 0x20 ADD SWAP2 PUSH2 0x2DF0 JUMP JUMPDEST DUP3 ADD SWAP2 SWAP1 PUSH1 0x0 MSTORE PUSH1 0x20 PUSH1 0x0 KECCAK256 SWAP1 JUMPDEST DUP2 SLOAD DUP2 MSTORE SWAP1 PUSH1 0x1 ADD SWAP1 PUSH1 0x20 ADD DUP1 DUP4 GT PUSH2 0x2DD3 JUMPI DUP3 SWAP1 SUB PUSH1 0x1F AND DUP3 ADD SWAP2 JUMPDEST POP POP POP POP POP SWAP1 POP DUP6 JUMP JUMPDEST PUSH1 0x5 PUSH1 0x20 MSTORE DUP2 PUSH1 0x0 MSTORE PUSH1 0x40 PUSH1 0x0 KECCAK256 PUSH1 0x20 MSTORE DUP1 PUSH1 0x0 MSTORE PUSH1 0x40 PUSH1 0x0 KECCAK256 PUSH1 0x0 SWAP2 POP SWAP2 POP POP SLOAD DUP2 JUMP JUMPDEST PUSH1 0x11 DUP2 DUP2 SLOAD DUP2 LT PUSH2 0x2E2F JUMPI PUSH1 0x0 DUP1 REVERT JUMPDEST SWAP1 PUSH1 0x0 MSTORE PUSH1 0x20 PUSH1 0x0 KECCAK256 ADD PUSH1 0x0 SWAP2 POP SLOAD SWAP1 PUSH2 0x100 EXP SWAP1 DIV PUSH20 0xFFFFFFFFFFFFFFFFFFFFFFFFFFFFFFFFFFFFFFFF AND DUP2 JUMP JUMPDEST PUSH1 0x60 PUSH1 0x4 PUSH1 0x0 SWAP1 SLOAD SWAP1 PUSH2 0x100 EXP SWAP1 DIV PUSH20 0xFFFFFFFFFFFFFFFFFFFFFFFFFFFFFFFFFFFFFFFF AND PUSH20 0xFFFFFFFFFFFFFFFFFFFFFFFFFFFFFFFFFFFFFFFF AND CALLER PUSH20 0xFFFFFFFFFFFFFFFFFFFFFFFFFFFFFFFFFFFFFFFF AND EQ PUSH2 0x2EF0 JUMPI PUSH1 0x40 MLOAD PUSH32 0x8C379A000000000000000000000000000000000000000000000000000000000 DUP2 MSTORE PUSH1 0x4 ADD PUSH2 0x2EE7 SWAP1 PUSH2 0x3D58 JUMP JUMPDEST PUSH1 0x40 MLOAD DUP1 SWAP2 SUB SWAP1 REVERT JUMPDEST PUSH1 0x1 PUSH1 0x8 PUSH1 0x0 DUP5 PUSH20 0xFFFFFFFFFFFFFFFFFFFFFFFFFFFFFFFFFFFFFFFF AND PUSH20 0xFFFFFFFFFFFFFFFFFFFFFFFFFFFFFFFFFFFFFFFF AND DUP2 MSTORE PUSH1 0x20 ADD SWAP1 DUP2 MSTORE PUSH1 0x20 ADD PUSH1 0x0 KECCAK256 PUSH1 0x0 PUSH2 0x100 EXP DUP2 SLOAD DUP2 PUSH1 0xFF MUL NOT AND SWAP1 DUP4 ISZERO ISZERO MUL OR SWAP1 SSTORE POP PUSH1 0xA DUP3 SWAP1 DUP1 PUSH1 0x1 DUP2 SLOAD ADD DUP1 DUP3 SSTORE DUP1 SWAP2 POP POP PUSH1 0x1 SWAP1 SUB SWAP1 PUSH1 0x0 MSTORE PUSH1 0x20 PUSH1 0x0 KECCAK256 ADD PUSH1 0x0 SWAP1 SWAP2 SWAP1 SWAP2 SWAP1 SWAP2 PUSH2 0x100 EXP DUP2 SLOAD DUP2 PUSH20 0xFFFFFFFFFFFFFFFFFFFFFFFFFFFFFFFFFFFFFFFF MUL NOT AND SWAP1 DUP4 PUSH20 0xFFFFFFFFFFFFFFFFFFFFFFFFFFFFFFFFFFFFFFFF AND MUL OR SWAP1 SSTORE POP PUSH1 0xA DUP1 SLOAD DUP1 PUSH1 0x20 MUL PUSH1 0x20 ADD PUSH1 0x40 MLOAD SWAP1 DUP2 ADD PUSH1 0x40 MSTORE DUP1 SWAP3 SWAP2 SWAP1 DUP2 DUP2 MSTORE PUSH1 0x20 ADD DUP3 DUP1 SLOAD DUP1 ISZERO PUSH2 0x302D JUMPI PUSH1 0x20 MUL DUP3 ADD SWAP2 SWAP1 PUSH1 0x0 MSTORE PUSH1 0x20 PUSH1 0x0 KECCAK256 SWAP1 JUMPDEST DUP2 PUSH1 0x0 SWAP1 SLOAD SWAP1 PUSH2 0x100 EXP SWAP1 DIV PUSH20 0xFFFFFFFFFFFFFFFFFFFFFFFFFFFFFFFFFFFFFFFF AND PUSH20 0xFFFFFFFFFFFFFFFFFFFFFFFFFFFFFFFFFFFFFFFF AND DUP2 MSTORE PUSH1 0x20 ADD SWAP1 PUSH1 0x1 ADD SWAP1 DUP1 DUP4 GT PUSH2 0x2FE3 JUMPI JUMPDEST POP POP POP POP POP SWAP1 POP SWAP2 SWAP1 POP JUMP JUMPDEST PUSH1 0x60 PUSH1 0x0 PUSH1 0x7 PUSH1 0x0 DUP5 PUSH20 0xFFFFFFFFFFFFFFFFFFFFFFFFFFFFFFFFFFFFFFFF AND PUSH20 0xFFFFFFFFFFFFFFFFFFFFFFFFFFFFFFFFFFFFFFFF AND DUP2 MSTORE PUSH1 0x20 ADD SWAP1 DUP2 MSTORE PUSH1 0x20 ADD PUSH1 0x0 KECCAK256 PUSH1 0x0 PUSH2 0x100 EXP DUP2 SLOAD DUP2 PUSH1 0xFF MUL NOT AND SWAP1 DUP4 ISZERO ISZERO MUL OR SWAP1 SSTORE POP PUSH1 0x9 PUSH1 0x1 PUSH1 0x9 DUP1 SLOAD SWAP1 POP PUSH2 0x30A7 SWAP2 SWAP1 PUSH2 0x39D0 JUMP JUMPDEST DUP2 SLOAD DUP2 LT PUSH2 0x30B8 JUMPI PUSH2 0x30B7 PUSH2 0x4431 JUMP JUMPDEST JUMPDEST SWAP1 PUSH1 0x0 MSTORE PUSH1 0x20 PUSH1 0x0 KECCAK256 ADD PUSH1 0x0 PUSH2 0x100 EXP DUP2 SLOAD SWAP1 PUSH20 0xFFFFFFFFFFFFFFFFFFFFFFFFFFFFFFFFFFFFFFFF MUL NOT AND SWAP1 SSTORE PUSH1 0x9 DUP1 SLOAD DUP1 PUSH1 0x20 MUL PUSH1 0x20 ADD PUSH1 0x40 MLOAD SWAP1 DUP2 ADD PUSH1 0x40 MSTORE DUP1 SWAP3 SWAP2 SWAP1 DUP2 DUP2 MSTORE PUSH1 0x20 ADD DUP3 DUP1 SLOAD DUP1 ISZERO PUSH2 0x3167 JUMPI PUSH1 0x20 MUL DUP3 ADD SWAP2 SWAP1 PUSH1 0x0 MSTORE PUSH1 0x20 PUSH1 0x0 KECCAK256 SWAP1 JUMPDEST DUP2 PUSH1 0x0 SWAP1 SLOAD SWAP1 PUSH2 0x100 EXP SWAP1 DIV PUSH20 0xFFFFFFFFFFFFFFFFFFFFFFFFFFFFFFFFFFFFFFFF AND PUSH20 0xFFFFFFFFFFFFFFFFFFFFFFFFFFFFFFFFFFFFFFFF AND DUP2 MSTORE PUSH1 0x20 ADD SWAP1 PUSH1 0x1 ADD SWAP1 DUP1 DUP4 GT PUSH2 0x311D JUMPI JUMPDEST POP POP POP POP POP SWAP1 POP SWAP2 SWAP1 POP JUMP JUMPDEST PUSH1 0x0 CALLER SWAP1 POP SWAP1 JUMP JUMPDEST PUSH1 0x7 PUSH1 0x20 MSTORE DUP1 PUSH1 0x0 MSTORE PUSH1 0x40 PUSH1 0x0 KECCAK256 PUSH1 0x0 SWAP2 POP SLOAD SWAP1 PUSH2 0x100 EXP SWAP1 DIV PUSH1 0xFF AND DUP2 JUMP JUMPDEST PUSH1 0x0 PUSH1 0x6 PUSH1 0x0 CALLER PUSH20 0xFFFFFFFFFFFFFFFFFFFFFFFFFFFFFFFFFFFFFFFF AND PUSH20 0xFFFFFFFFFFFFFFFFFFFFFFFFFFFFFFFFFFFFFFFF AND DUP2 MSTORE PUSH1 0x20 ADD SWAP1 DUP2 MSTORE PUSH1 0x20 ADD PUSH1 0x0 KECCAK256 SLOAD SWAP1 POP SWAP1 JUMP JUMPDEST PUSH1 0x0 PUSH1 0x7 PUSH1 0x0 DUP4 PUSH20 0xFFFFFFFFFFFFFFFFFFFFFFFFFFFFFFFFFFFFFFFF AND PUSH20 0xFFFFFFFFFFFFFFFFFFFFFFFFFFFFFFFFFFFFFFFF AND DUP2 MSTORE PUSH1 0x20 ADD SWAP1 DUP2 MSTORE PUSH1 0x20 ADD PUSH1 0x0 KECCAK256 PUSH1 0x0 SWAP1 SLOAD SWAP1 PUSH2 0x100 EXP SWAP1 DIV PUSH1 0xFF AND SWAP1 POP SWAP2 SWAP1 POP JUMP JUMPDEST PUSH1 0x0 DUP2 MLOAD SWAP1 POP SWAP2 SWAP1 POP JUMP JUMPDEST PUSH1 0x0 DUP3 DUP3 MSTORE PUSH1 0x20 DUP3 ADD SWAP1 POP SWAP3 SWAP2 POP POP JUMP JUMPDEST PUSH1 0x0 JUMPDEST DUP4 DUP2 LT ISZERO PUSH2 0x3272 JUMPI DUP1 DUP3 ADD MLOAD DUP2 DUP5 ADD MSTORE PUSH1 0x20 DUP2 ADD SWAP1 POP PUSH2 0x3257 JUMP JUMPDEST PUSH1 0x0 DUP5 DUP5 ADD MSTORE POP POP POP POP JUMP JUMPDEST PUSH1 0x0 PUSH1 0x1F NOT PUSH1 0x1F DUP4 ADD AND SWAP1 POP SWAP2 SWAP1 POP JUMP JUMPDEST PUSH1 0x0 PUSH2 0x329A DUP3 PUSH2 0x3238 JUMP JUMPDEST PUSH2 0x32A4 DUP2 DUP6 PUSH2 0x3243 JUMP JUMPDEST SWAP4 POP PUSH2 0x32B4 DUP2 DUP6 PUSH1 0x20 DUP7 ADD PUSH2 0x3254 JUMP JUMPDEST PUSH2 0x32BD DUP2 PUSH2 0x327E JUMP JUMPDEST DUP5 ADD SWAP2 POP POP SWAP3 SWAP2 POP POP JUMP JUMPDEST PUSH1 0x0 PUSH1 0x20 DUP3 ADD SWAP1 POP DUP2 DUP2 SUB PUSH1 0x0 DUP4 ADD MSTORE PUSH2 0x32E2 DUP2 DUP5 PUSH2 0x328F JUMP JUMPDEST SWAP1 POP SWAP3 SWAP2 POP POP JUMP JUMPDEST PUSH1 0x0 DUP1 REVERT JUMPDEST PUSH1 0x0 PUSH20 0xFFFFFFFFFFFFFFFFFFFFFFFFFFFFFFFFFFFFFFFF DUP3 AND SWAP1 POP SWAP2 SWAP1 POP JUMP JUMPDEST PUSH1 0x0 PUSH2 0x331A DUP3 PUSH2 0x32EF JUMP JUMPDEST SWAP1 POP SWAP2 SWAP1 POP JUMP JUMPDEST PUSH2 0x332A DUP2 PUSH2 0x330F JUMP JUMPDEST DUP2 EQ PUSH2 0x3335 JUMPI PUSH1 0x0 DUP1 REVERT JUMPDEST POP JUMP JUMPDEST PUSH1 0x0 DUP2 CALLDATALOAD SWAP1 POP PUSH2 0x3347 DUP2 PUSH2 0x3321 JUMP JUMPDEST SWAP3 SWAP2 POP POP JUMP JUMPDEST PUSH1 0x0 DUP2 SWAP1 POP SWAP2 SWAP1 POP JUMP JUMPDEST PUSH2 0x3360 DUP2 PUSH2 0x334D JUMP JUMPDEST DUP2 EQ PUSH2 0x336B JUMPI PUSH1 0x0 DUP1 REVERT JUMPDEST POP JUMP JUMPDEST PUSH1 0x0 DUP2 CALLDATALOAD SWAP1 POP PUSH2 0x337D DUP2 PUSH2 0x3357 JUMP JUMPDEST SWAP3 SWAP2 POP POP JUMP JUMPDEST PUSH1 0x0 DUP1 PUSH1 0x40 DUP4 DUP6 SUB SLT ISZERO PUSH2 0x339A JUMPI PUSH2 0x3399 PUSH2 0x32EA JUMP JUMPDEST JUMPDEST PUSH1 0x0 PUSH2 0x33A8 DUP6 DUP3 DUP7 ADD PUSH2 0x3338 JUMP JUMPDEST SWAP3 POP POP PUSH1 0x20 PUSH2 0x33B9 DUP6 DUP3 DUP7 ADD PUSH2 0x336E JUMP JUMPDEST SWAP2 POP POP SWAP3 POP SWAP3 SWAP1 POP JUMP JUMPDEST PUSH1 0x0 DUP2 ISZERO ISZERO SWAP1 POP SWAP2 SWAP1 POP JUMP JUMPDEST PUSH2 0x33D8 DUP2 PUSH2 0x33C3 JUMP JUMPDEST DUP3 MSTORE POP POP JUMP JUMPDEST PUSH1 0x0 PUSH1 0x20 DUP3 ADD SWAP1 POP PUSH2 0x33F3 PUSH1 0x0 DUP4 ADD DUP5 PUSH2 0x33CF JUMP JUMPDEST SWAP3 SWAP2 POP POP JUMP JUMPDEST PUSH1 0x0 PUSH1 0x20 DUP3 DUP5 SUB SLT ISZERO PUSH2 0x340F JUMPI PUSH2 0x340E PUSH2 0x32EA JUMP JUMPDEST JUMPDEST PUSH1 0x0 PUSH2 0x341D DUP5 DUP3 DUP6 ADD PUSH2 0x3338 JUMP JUMPDEST SWAP2 POP POP SWAP3 SWAP2 POP POP JUMP JUMPDEST PUSH2 0x342F DUP2 PUSH2 0x334D JUMP JUMPDEST DUP3 MSTORE POP POP JUMP JUMPDEST PUSH1 0x0 PUSH1 0x20 DUP3 ADD SWAP1 POP PUSH2 0x344A PUSH1 0x0 DUP4 ADD DUP5 PUSH2 0x3426 JUMP JUMPDEST SWAP3 SWAP2 POP POP JUMP JUMPDEST PUSH32 0x4E487B7100000000000000000000000000000000000000000000000000000000 PUSH1 0x0 MSTORE PUSH1 0x21 PUSH1 0x4 MSTORE PUSH1 0x24 PUSH1 0x0 REVERT JUMPDEST PUSH1 0x3 DUP2 LT PUSH2 0x3490 JUMPI PUSH2 0x348F PUSH2 0x3450 JUMP JUMPDEST JUMPDEST POP JUMP JUMPDEST PUSH1 0x0 DUP2 SWAP1 POP PUSH2 0x34A1 DUP3 PUSH2 0x347F JUMP JUMPDEST SWAP2 SWAP1 POP JUMP JUMPDEST PUSH1 0x0 PUSH2 0x34B1 DUP3 PUSH2 0x3493 JUMP JUMPDEST SWAP1 POP SWAP2 SWAP1 POP JUMP JUMPDEST PUSH2 0x34C1 DUP2 PUSH2 0x34A6 JUMP JUMPDEST DUP3 MSTORE POP POP JUMP JUMPDEST PUSH1 0x0 PUSH1 0x20 DUP3 ADD SWAP1 POP PUSH2 0x34DC PUSH1 0x0 DUP4 ADD DUP5 PUSH2 0x34B8 JUMP JUMPDEST SWAP3 SWAP2 POP POP JUMP JUMPDEST PUSH1 0x0 DUP1 PUSH1 0x0 PUSH1 0x60 DUP5 DUP7 SUB SLT ISZERO PUSH2 0x34FB JUMPI PUSH2 0x34FA PUSH2 0x32EA JUMP JUMPDEST JUMPDEST PUSH1 0x0 PUSH2 0x3509 DUP7 DUP3 DUP8 ADD PUSH2 0x3338 JUMP JUMPDEST SWAP4 POP POP PUSH1 0x20 PUSH2 0x351A DUP7 DUP3 DUP8 ADD PUSH2 0x3338 JUMP JUMPDEST SWAP3 POP POP PUSH1 0x40 PUSH2 0x352B DUP7 DUP3 DUP8 ADD PUSH2 0x336E JUMP JUMPDEST SWAP2 POP POP SWAP3 POP SWAP3 POP SWAP3 JUMP JUMPDEST PUSH1 0x0 PUSH1 0x20 DUP3 DUP5 SUB SLT ISZERO PUSH2 0x354B JUMPI PUSH2 0x354A PUSH2 0x32EA JUMP JUMPDEST JUMPDEST PUSH1 0x0 PUSH2 0x3559 DUP5 DUP3 DUP6 ADD PUSH2 0x336E JUMP JUMPDEST SWAP2 POP POP SWAP3 SWAP2 POP POP JUMP JUMPDEST PUSH2 0x356B DUP2 PUSH2 0x330F JUMP JUMPDEST DUP3 MSTORE POP POP JUMP JUMPDEST PUSH1 0x0 PUSH1 0x20 DUP3 ADD SWAP1 POP PUSH2 0x3586 PUSH1 0x0 DUP4 ADD DUP5 PUSH2 0x3562 JUMP JUMPDEST SWAP3 SWAP2 POP POP JUMP JUMPDEST PUSH1 0x0 PUSH1 0x80 DUP3 ADD SWAP1 POP PUSH2 0x35A1 PUSH1 0x0 DUP4 ADD DUP8 PUSH2 0x34B8 JUMP JUMPDEST PUSH2 0x35AE PUSH1 0x20 DUP4 ADD DUP7 PUSH2 0x3562 JUMP JUMPDEST PUSH2 0x35BB PUSH1 0x40 DUP4 ADD DUP6 PUSH2 0x33CF JUMP JUMPDEST DUP2 DUP2 SUB PUSH1 0x60 DUP4 ADD MSTORE PUSH2 0x35CD DUP2 DUP5 PUSH2 0x328F JUMP JUMPDEST SWAP1 POP SWAP6 SWAP5 POP POP POP POP POP JUMP JUMPDEST PUSH1 0x0 DUP2 MLOAD SWAP1 POP SWAP2 SWAP1 POP JUMP JUMPDEST PUSH1 0x0 DUP3 DUP3 MSTORE PUSH1 0x20 DUP3 ADD SWAP1 POP SWAP3 SWAP2 POP POP JUMP JUMPDEST PUSH1 0x0 DUP2 SWAP1 POP PUSH1 0x20 DUP3 ADD SWAP1 POP SWAP2 SWAP1 POP JUMP JUMPDEST PUSH2 0x360D DUP2 PUSH2 0x330F JUMP JUMPDEST DUP3 MSTORE POP POP JUMP JUMPDEST PUSH1 0x0 PUSH2 0x361F DUP4 DUP4 PUSH2 0x3604 JUMP JUMPDEST PUSH1 0x20 DUP4 ADD SWAP1 POP SWAP3 SWAP2 POP POP JUMP JUMPDEST PUSH1 0x0 PUSH1 0x20 DUP3 ADD SWAP1 POP SWAP2 SWAP1 POP JUMP JUMPDEST PUSH1 0x0 PUSH2 0x3643 DUP3 PUSH2 0x35D8 JUMP JUMPDEST PUSH2 0x364D DUP2 DUP6 PUSH2 0x35E3 JUMP JUMPDEST SWAP4 POP PUSH2 0x3658 DUP4 PUSH2 0x35F4 JUMP JUMPDEST DUP1 PUSH1 0x0 JUMPDEST DUP4 DUP2 LT ISZERO PUSH2 0x3689 JUMPI DUP2 MLOAD PUSH2 0x3670 DUP9 DUP3 PUSH2 0x3613 JUMP JUMPDEST SWAP8 POP PUSH2 0x367B DUP4 PUSH2 0x362B JUMP JUMPDEST SWAP3 POP POP PUSH1 0x1 DUP2 ADD SWAP1 POP PUSH2 0x365C JUMP JUMPDEST POP DUP6 SWAP4 POP POP POP POP SWAP3 SWAP2 POP POP JUMP JUMPDEST PUSH1 0x0 PUSH1 0x20 DUP3 ADD SWAP1 POP DUP2 DUP2 SUB PUSH1 0x0 DUP4 ADD MSTORE PUSH2 0x36B0 DUP2 DUP5 PUSH2 0x3638 JUMP JUMPDEST SWAP1 POP SWAP3 SWAP2 POP POP JUMP JUMPDEST PUSH1 0x3 DUP2 LT PUSH2 0x36C5 JUMPI PUSH1 0x0 DUP1 REVERT JUMPDEST POP JUMP JUMPDEST PUSH1 0x0 DUP2 CALLDATALOAD SWAP1 POP PUSH2 0x36D7 DUP2 PUSH2 0x36B8 JUMP JUMPDEST SWAP3 SWAP2 POP POP JUMP JUMPDEST PUSH1 0x0 DUP1 PUSH1 0x0 DUP1 PUSH1 0x0 PUSH1 0xA0 DUP7 DUP9 SUB SLT ISZERO PUSH2 0x36F9 JUMPI PUSH2 0x36F8 PUSH2 0x32EA JUMP JUMPDEST JUMPDEST PUSH1 0x0 PUSH2 0x3707 DUP9 DUP3 DUP10 ADD PUSH2 0x3338 JUMP JUMPDEST SWAP6 POP POP PUSH1 0x20 PUSH2 0x3718 DUP9 DUP3 DUP10 ADD PUSH2 0x3338 JUMP JUMPDEST SWAP5 POP POP PUSH1 0x40 PUSH2 0x3729 DUP9 DUP3 DUP10 ADD PUSH2 0x3338 JUMP JUMPDEST SWAP4 POP POP PUSH1 0x60 PUSH2 0x373A DUP9 DUP3 DUP10 ADD PUSH2 0x36C8 JUMP JUMPDEST SWAP3 POP POP PUSH1 0x80 PUSH2 0x374B DUP9 DUP3 DUP10 ADD PUSH2 0x36C8 JUMP JUMPDEST SWAP2 POP POP SWAP3 SWAP6 POP SWAP3 SWAP6 SWAP1 SWAP4 POP JUMP JUMPDEST PUSH1 0x0 PUSH1 0x60 DUP3 ADD SWAP1 POP PUSH2 0x376D PUSH1 0x0 DUP4 ADD DUP7 PUSH2 0x3562 JUMP JUMPDEST PUSH2 0x377A PUSH1 0x20 DUP4 ADD DUP6 PUSH2 0x34B8 JUMP JUMPDEST PUSH2 0x3787 PUSH1 0x40 DUP4 ADD DUP5 PUSH2 0x33CF JUMP JUMPDEST SWAP5 SWAP4 POP POP POP POP JUMP JUMPDEST PUSH1 0x0 DUP1 PUSH1 0x40 DUP4 DUP6 SUB SLT ISZERO PUSH2 0x37A6 JUMPI PUSH2 0x37A5 PUSH2 0x32EA JUMP JUMPDEST JUMPDEST PUSH1 0x0 PUSH2 0x37B4 DUP6 DUP3 DUP7 ADD PUSH2 0x3338 JUMP JUMPDEST SWAP3 POP POP PUSH1 0x20 PUSH2 0x37C5 DUP6 DUP3 DUP7 ADD PUSH2 0x3338 JUMP JUMPDEST SWAP2 POP POP SWAP3 POP SWAP3 SWAP1 POP JUMP JUMPDEST PUSH1 0x0 DUP1 PUSH1 0x40 DUP4 DUP6 SUB SLT ISZERO PUSH2 0x37E6 JUMPI PUSH2 0x37E5 PUSH2 0x32EA JUMP JUMPDEST JUMPDEST PUSH1 0x0 PUSH2 0x37F4 DUP6 DUP3 DUP7 ADD PUSH2 0x3338 JUMP JUMPDEST SWAP3 POP POP PUSH1 0x20 PUSH2 0x3805 DUP6 DUP3 DUP7 ADD PUSH2 0x36C8 JUMP JUMPDEST SWAP2 POP POP SWAP3 POP SWAP3 SWAP1 POP JUMP JUMPDEST PUSH1 0x0 PUSH1 0xA0 DUP3 ADD SWAP1 POP PUSH2 0x3824 PUSH1 0x0 DUP4 ADD DUP9 PUSH2 0x3562 JUMP JUMPDEST PUSH2 0x3831 PUSH1 0x20 DUP4 ADD DUP8 PUSH2 0x33CF JUMP JUMPDEST PUSH2 0x383E PUSH1 0x40 DUP4 ADD DUP7 PUSH2 0x33CF JUMP JUMPDEST PUSH2 0x384B PUSH1 0x60 DUP4 ADD DUP6 PUSH2 0x34B8 JUMP JUMPDEST DUP2 DUP2 SUB PUSH1 0x80 DUP4 ADD MSTORE PUSH2 0x385D DUP2 DUP5 PUSH2 0x328F JUMP JUMPDEST SWAP1 POP SWAP7 SWAP6 POP POP POP POP POP POP JUMP JUMPDEST PUSH32 0x4E487B7100000000000000000000000000000000000000000000000000000000 PUSH1 0x0 MSTORE PUSH1 0x22 PUSH1 0x4 MSTORE PUSH1 0x24 PUSH1 0x0 REVERT JUMPDEST PUSH1 0x0 PUSH1 0x2 DUP3 DIV SWAP1 POP PUSH1 0x1 DUP3 AND DUP1 PUSH2 0x38B0 JUMPI PUSH1 0x7F DUP3 AND SWAP2 POP JUMPDEST PUSH1 0x20 DUP3 LT DUP2 SUB PUSH2 0x38C3 JUMPI PUSH2 0x38C2 PUSH2 0x3869 JUMP JUMPDEST JUMPDEST POP SWAP2 SWAP1 POP JUMP JUMPDEST PUSH32 0x63616E742062652073616D650000000000000000000000000000000000000000 PUSH1 0x0 DUP3 ADD MSTORE POP JUMP JUMPDEST PUSH1 0x0 PUSH2 0x38FF PUSH1 0xC DUP4 PUSH2 0x3243 JUMP JUMPDEST SWAP2 POP PUSH2 0x390A DUP3 PUSH2 0x38C9 JUMP JUMPDEST PUSH1 0x20 DUP3 ADD SWAP1 POP SWAP2 SWAP1 POP JUMP JUMPDEST PUSH1 0x0 PUSH1 0x20 DUP3 ADD SWAP1 POP DUP2 DUP2 SUB PUSH1 0x0 DUP4 ADD MSTORE PUSH2 0x392E DUP2 PUSH2 0x38F2 JUMP JUMPDEST SWAP1 POP SWAP2 SWAP1 POP JUMP JUMPDEST PUSH32 0x4E6F20426E636500000000000000000000000000000000000000000000000000 PUSH1 0x0 DUP3 ADD MSTORE POP JUMP JUMPDEST PUSH1 0x0 PUSH2 0x396B PUSH1 0x7 DUP4 PUSH2 0x3243 JUMP JUMPDEST SWAP2 POP PUSH2 0x3976 DUP3 PUSH2 0x3935 JUMP JUMPDEST PUSH1 0x20 DUP3 ADD SWAP1 POP SWAP2 SWAP1 POP JUMP JUMPDEST PUSH1 0x0 PUSH1 0x20 DUP3 ADD SWAP1 POP DUP2 DUP2 SUB PUSH1 0x0 DUP4 ADD MSTORE PUSH2 0x399A DUP2 PUSH2 0x395E JUMP JUMPDEST SWAP1 POP SWAP2 SWAP1 POP JUMP JUMPDEST PUSH32 0x4E487B7100000000000000000000000000000000000000000000000000000000 PUSH1 0x0 MSTORE PUSH1 0x11 PUSH1 0x4 MSTORE PUSH1 0x24 PUSH1 0x0 REVERT JUMPDEST PUSH1 0x0 PUSH2 0x39DB DUP3 PUSH2 0x334D JUMP JUMPDEST SWAP2 POP PUSH2 0x39E6 DUP4 PUSH2 0x334D JUMP JUMPDEST SWAP3 POP DUP3 DUP3 SUB SWAP1 POP DUP2 DUP2 GT ISZERO PUSH2 0x39FE JUMPI PUSH2 0x39FD PUSH2 0x39A1 JUMP JUMPDEST JUMPDEST SWAP3 SWAP2 POP POP JUMP JUMPDEST PUSH32 0x6F7720626E636500000000000000000000000000000000000000000000000000 PUSH1 0x0 DUP3 ADD MSTORE POP JUMP JUMPDEST PUSH1 0x0 PUSH2 0x3A3A PUSH1 0x7 DUP4 PUSH2 0x3243 JUMP JUMPDEST SWAP2 POP PUSH2 0x3A45 DUP3 PUSH2 0x3A04 JUMP JUMPDEST PUSH1 0x20 DUP3 ADD SWAP1 POP SWAP2 SWAP1 POP JUMP JUMPDEST PUSH1 0x0 PUSH1 0x20 DUP3 ADD SWAP1 POP DUP2 DUP2 SUB PUSH1 0x0 DUP4 ADD MSTORE PUSH2 0x3A69 DUP2 PUSH2 0x3A2D JUMP JUMPDEST SWAP1 POP SWAP2 SWAP1 POP JUMP JUMPDEST PUSH32 0x4E6F74204F6E20546865205768697465204C69737420546F2052656369657665 PUSH1 0x0 DUP3 ADD MSTORE PUSH32 0x2054686520546F6B656E00000000000000000000000000000000000000000000 PUSH1 0x20 DUP3 ADD MSTORE POP JUMP JUMPDEST PUSH1 0x0 PUSH2 0x3ACC PUSH1 0x2A DUP4 PUSH2 0x3243 JUMP JUMPDEST SWAP2 POP PUSH2 0x3AD7 DUP3 PUSH2 0x3A70 JUMP JUMPDEST PUSH1 0x40 DUP3 ADD SWAP1 POP SWAP2 SWAP1 POP JUMP JUMPDEST PUSH1 0x0 PUSH1 0x20 DUP3 ADD SWAP1 POP DUP2 DUP2 SUB PUSH1 0x0 DUP4 ADD MSTORE PUSH2 0x3AFB DUP2 PUSH2 0x3ABF JUMP JUMPDEST SWAP1 POP SWAP2 SWAP1 POP JUMP JUMPDEST PUSH32 0x6E6F206E6F74206F6E20626C636B000000000000000000000000000000000000 PUSH1 0x0 DUP3 ADD MSTORE POP JUMP JUMPDEST PUSH1 0x0 PUSH2 0x3B38 PUSH1 0xE DUP4 PUSH2 0x3243 JUMP JUMPDEST SWAP2 POP PUSH2 0x3B43 DUP3 PUSH2 0x3B02 JUMP JUMPDEST PUSH1 0x20 DUP3 ADD SWAP1 POP SWAP2 SWAP1 POP JUMP JUMPDEST PUSH1 0x0 PUSH1 0x20 DUP3 ADD SWAP1 POP DUP2 DUP2 SUB PUSH1 0x0 DUP4 ADD MSTORE PUSH2 0x3B67 DUP2 PUSH2 0x3B2B JUMP JUMPDEST SWAP1 POP SWAP2 SWAP1 POP JUMP JUMPDEST PUSH32 0x76616C7565206D757420626520706F7469766500000000000000000000000000 PUSH1 0x0 DUP3 ADD MSTORE POP JUMP JUMPDEST PUSH1 0x0 PUSH2 0x3BA4 PUSH1 0x13 DUP4 PUSH2 0x3243 JUMP JUMPDEST SWAP2 POP PUSH2 0x3BAF DUP3 PUSH2 0x3B6E JUMP JUMPDEST PUSH1 0x20 DUP3 ADD SWAP1 POP SWAP2 SWAP1 POP JUMP JUMPDEST PUSH1 0x0 PUSH1 0x20 DUP3 ADD SWAP1 POP DUP2 DUP2 SUB PUSH1 0x0 DUP4 ADD MSTORE PUSH2 0x3BD3 DUP2 PUSH2 0x3B97 JUMP JUMPDEST SWAP1 POP SWAP2 SWAP1 POP JUMP JUMPDEST PUSH32 0x6973206E6F742070757365640000000000000000000000000000000000000000 PUSH1 0x0 DUP3 ADD MSTORE POP JUMP JUMPDEST PUSH1 0x0 PUSH2 0x3C10 PUSH1 0xC DUP4 PUSH2 0x3243 JUMP JUMPDEST SWAP2 POP PUSH2 0x3C1B DUP3 PUSH2 0x3BDA JUMP JUMPDEST PUSH1 0x20 DUP3 ADD SWAP1 POP SWAP2 SWAP1 POP JUMP JUMPDEST PUSH1 0x0 PUSH1 0x20 DUP3 ADD SWAP1 POP DUP2 DUP2 SUB PUSH1 0x0 DUP4 ADD MSTORE PUSH2 0x3C3F DUP2 PUSH2 0x3C03 JUMP JUMPDEST SWAP1 POP SWAP2 SWAP1 POP JUMP JUMPDEST PUSH32 0x6D6F756E74206D7574206265206772657465722074686E207675650000000000 PUSH1 0x0 DUP3 ADD MSTORE POP JUMP JUMPDEST PUSH1 0x0 PUSH2 0x3C7C PUSH1 0x1B DUP4 PUSH2 0x3243 JUMP JUMPDEST SWAP2 POP PUSH2 0x3C87 DUP3 PUSH2 0x3C46 JUMP JUMPDEST PUSH1 0x20 DUP3 ADD SWAP1 POP SWAP2 SWAP1 POP JUMP JUMPDEST PUSH1 0x0 PUSH1 0x20 DUP3 ADD SWAP1 POP DUP2 DUP2 SUB PUSH1 0x0 DUP4 ADD MSTORE PUSH2 0x3CAB DUP2 PUSH2 0x3C6F JUMP JUMPDEST SWAP1 POP SWAP2 SWAP1 POP JUMP JUMPDEST PUSH1 0x0 PUSH2 0x3CBD DUP3 PUSH2 0x334D JUMP JUMPDEST SWAP2 POP PUSH2 0x3CC8 DUP4 PUSH2 0x334D JUMP JUMPDEST SWAP3 POP DUP3 DUP3 ADD SWAP1 POP DUP1 DUP3 GT ISZERO PUSH2 0x3CE0 JUMPI PUSH2 0x3CDF PUSH2 0x39A1 JUMP JUMPDEST JUMPDEST SWAP3 SWAP2 POP POP JUMP JUMPDEST PUSH32 0x6F6E6C79206F776E65722063616E2063616C6C20546869732046756E6374696F PUSH1 0x0 DUP3 ADD MSTORE PUSH32 0x6E00000000000000000000000000000000000000000000000000000000000000 PUSH1 0x20 DUP3 ADD MSTORE POP JUMP JUMPDEST PUSH1 0x0 PUSH2 0x3D42 PUSH1 0x21 DUP4 PUSH2 0x3243 JUMP JUMPDEST SWAP2 POP PUSH2 0x3D4D DUP3 PUSH2 0x3CE6 JUMP JUMPDEST PUSH1 0x40 DUP3 ADD SWAP1 POP SWAP2 SWAP1 POP JUMP JUMPDEST PUSH1 0x0 PUSH1 0x20 DUP3 ADD SWAP1 POP DUP2 DUP2 SUB PUSH1 0x0 DUP4 ADD MSTORE PUSH2 0x3D71 DUP2 PUSH2 0x3D35 JUMP JUMPDEST SWAP1 POP SWAP2 SWAP1 POP JUMP JUMPDEST PUSH32 0x4E487B7100000000000000000000000000000000000000000000000000000000 PUSH1 0x0 MSTORE PUSH1 0x12 PUSH1 0x4 MSTORE PUSH1 0x24 PUSH1 0x0 REVERT JUMPDEST PUSH1 0x0 PUSH2 0x3DB2 DUP3 PUSH2 0x334D JUMP JUMPDEST SWAP2 POP PUSH2 0x3DBD DUP4 PUSH2 0x334D JUMP JUMPDEST SWAP3 POP DUP3 PUSH2 0x3DCD JUMPI PUSH2 0x3DCC PUSH2 0x3D78 JUMP JUMPDEST JUMPDEST DUP3 DUP3 DIV SWAP1 POP SWAP3 SWAP2 POP POP JUMP JUMPDEST PUSH32 0x6F6E79206F776E657220636E206D696E74000000000000000000000000000000 PUSH1 0x0 DUP3 ADD MSTORE POP JUMP JUMPDEST PUSH1 0x0 PUSH2 0x3E0E PUSH1 0x11 DUP4 PUSH2 0x3243 JUMP JUMPDEST SWAP2 POP PUSH2 0x3E19 DUP3 PUSH2 0x3DD8 JUMP JUMPDEST PUSH1 0x20 DUP3 ADD SWAP1 POP SWAP2 SWAP1 POP JUMP JUMPDEST PUSH1 0x0 PUSH1 0x20 DUP3 ADD SWAP1 POP DUP2 DUP2 SUB PUSH1 0x0 DUP4 ADD MSTORE PUSH2 0x3E3D DUP2 PUSH2 0x3E01 JUMP JUMPDEST SWAP1 POP SWAP2 SWAP1 POP JUMP JUMPDEST PUSH32 0x4E6F7420456E6F75676820426E63650000000000000000000000000000000000 PUSH1 0x0 DUP3 ADD MSTORE POP JUMP JUMPDEST PUSH1 0x0 PUSH2 0x3E7A PUSH1 0xF DUP4 PUSH2 0x3243 JUMP JUMPDEST SWAP2 POP PUSH2 0x3E85 DUP3 PUSH2 0x3E44 JUMP JUMPDEST PUSH1 0x20 DUP3 ADD SWAP1 POP SWAP2 SWAP1 POP JUMP JUMPDEST PUSH1 0x0 PUSH1 0x20 DUP3 ADD SWAP1 POP DUP2 DUP2 SUB PUSH1 0x0 DUP4 ADD MSTORE PUSH2 0x3EA9 DUP2 PUSH2 0x3E6D JUMP JUMPDEST SWAP1 POP SWAP2 SWAP1 POP JUMP JUMPDEST PUSH32 0x63616E206E6F7420206265207A65726F00000000000000000000000000000000 PUSH1 0x0 DUP3 ADD MSTORE POP JUMP JUMPDEST PUSH1 0x0 PUSH2 0x3EE6 PUSH1 0x10 DUP4 PUSH2 0x3243 JUMP JUMPDEST SWAP2 POP PUSH2 0x3EF1 DUP3 PUSH2 0x3EB0 JUMP JUMPDEST PUSH1 0x20 DUP3 ADD SWAP1 POP SWAP2 SWAP1 POP JUMP JUMPDEST PUSH1 0x0 PUSH1 0x20 DUP3 ADD SWAP1 POP DUP2 DUP2 SUB PUSH1 0x0 DUP4 ADD MSTORE PUSH2 0x3F15 DUP2 PUSH2 0x3ED9 JUMP JUMPDEST SWAP1 POP SWAP2 SWAP1 POP JUMP JUMPDEST PUSH32 0x4E487B7100000000000000000000000000000000000000000000000000000000 PUSH1 0x0 MSTORE PUSH1 0x41 PUSH1 0x4 MSTORE PUSH1 0x24 PUSH1 0x0 REVERT JUMPDEST PUSH1 0x0 DUP2 SWAP1 POP DUP2 PUSH1 0x0 MSTORE PUSH1 0x20 PUSH1 0x0 KECCAK256 SWAP1 POP SWAP2 SWAP1 POP JUMP JUMPDEST PUSH1 0x0 PUSH1 0x20 PUSH1 0x1F DUP4 ADD DIV SWAP1 POP SWAP2 SWAP1 POP JUMP JUMPDEST PUSH1 0x0 DUP3 DUP3 SHL SWAP1 POP SWAP3 SWAP2 POP POP JUMP JUMPDEST PUSH1 0x0 PUSH1 0x8 DUP4 MUL PUSH2 0x3FAD PUSH32 0xFFFFFFFFFFFFFFFFFFFFFFFFFFFFFFFFFFFFFFFFFFFFFFFFFFFFFFFFFFFFFFFF DUP3 PUSH2 0x3F70 JUMP JUMPDEST PUSH2 0x3FB7 DUP7 DUP4 PUSH2 0x3F70 JUMP JUMPDEST SWAP6 POP DUP1 NOT DUP5 AND SWAP4 POP DUP1 DUP7 AND DUP5 OR SWAP3 POP POP POP SWAP4 SWAP3 POP POP POP JUMP JUMPDEST PUSH1 0x0 DUP2 SWAP1 POP SWAP2 SWAP1 POP JUMP JUMPDEST PUSH1 0x0 PUSH2 0x3FF4 PUSH2 0x3FEF PUSH2 0x3FEA DUP5 PUSH2 0x334D JUMP JUMPDEST PUSH2 0x3FCF JUMP JUMPDEST PUSH2 0x334D JUMP JUMPDEST SWAP1 POP SWAP2 SWAP1 POP JUMP JUMPDEST PUSH1 0x0 DUP2 SWAP1 POP SWAP2 SWAP1 POP JUMP JUMPDEST PUSH2 0x400E DUP4 PUSH2 0x3FD9 JUMP JUMPDEST PUSH2 0x4022 PUSH2 0x401A DUP3 PUSH2 0x3FFB JUMP JUMPDEST DUP5 DUP5 SLOAD PUSH2 0x3F7D JUMP JUMPDEST DUP3 SSTORE POP POP POP POP JUMP JUMPDEST PUSH1 0x0 SWAP1 JUMP JUMPDEST PUSH2 0x4037 PUSH2 0x402A JUMP JUMPDEST PUSH2 0x4042 DUP2 DUP5 DUP5 PUSH2 0x4005 JUMP JUMPDEST POP POP POP JUMP JUMPDEST JUMPDEST DUP2 DUP2 LT ISZERO PUSH2 0x4066 JUMPI PUSH2 0x405B PUSH1 0x0 DUP3 PUSH2 0x402F JUMP JUMPDEST PUSH1 0x1 DUP2 ADD SWAP1 POP PUSH2 0x4048 JUMP JUMPDEST POP POP JUMP JUMPDEST PUSH1 0x1F DUP3 GT ISZERO PUSH2 0x40AB JUMPI PUSH2 0x407C DUP2 PUSH2 0x3F4B JUMP JUMPDEST PUSH2 0x4085 DUP5 PUSH2 0x3F60 JUMP JUMPDEST DUP2 ADD PUSH1 0x20 DUP6 LT ISZERO PUSH2 0x4094 JUMPI DUP2 SWAP1 POP JUMPDEST PUSH2 0x40A8 PUSH2 0x40A0 DUP6 PUSH2 0x3F60 JUMP JUMPDEST DUP4 ADD DUP3 PUSH2 0x4047 JUMP JUMPDEST POP POP JUMPDEST POP POP POP JUMP JUMPDEST PUSH1 0x0 DUP3 DUP3 SHR SWAP1 POP SWAP3 SWAP2 POP POP JUMP JUMPDEST PUSH1 0x0 PUSH2 0x40CE PUSH1 0x0 NOT DUP5 PUSH1 0x8 MUL PUSH2 0x40B0 JUMP JUMPDEST NOT DUP1 DUP4 AND SWAP2 POP POP SWAP3 SWAP2 POP POP JUMP JUMPDEST PUSH1 0x0 PUSH2 0x40E7 DUP4 DUP4 PUSH2 0x40BD JUMP JUMPDEST SWAP2 POP DUP3 PUSH1 0x2 MUL DUP3 OR SWAP1 POP SWAP3 SWAP2 POP POP JUMP JUMPDEST PUSH2 0x4100 DUP3 PUSH2 0x3238 JUMP JUMPDEST PUSH8 0xFFFFFFFFFFFFFFFF DUP2 GT ISZERO PUSH2 0x4119 JUMPI PUSH2 0x4118 PUSH2 0x3F1C JUMP JUMPDEST JUMPDEST PUSH2 0x4123 DUP3 SLOAD PUSH2 0x3898 JUMP JUMPDEST PUSH2 0x412E DUP3 DUP3 DUP6 PUSH2 0x406A JUMP JUMPDEST PUSH1 0x0 PUSH1 0x20 SWAP1 POP PUSH1 0x1F DUP4 GT PUSH1 0x1 DUP2 EQ PUSH2 0x4161 JUMPI PUSH1 0x0 DUP5 ISZERO PUSH2 0x414F JUMPI DUP3 DUP8 ADD MLOAD SWAP1 POP JUMPDEST PUSH2 0x4159 DUP6 DUP3 PUSH2 0x40DB JUMP JUMPDEST DUP7 SSTORE POP PUSH2 0x41C1 JUMP JUMPDEST PUSH1 0x1F NOT DUP5 AND PUSH2 0x416F DUP7 PUSH2 0x3F4B JUMP JUMPDEST PUSH1 0x0 JUMPDEST DUP3 DUP2 LT ISZERO PUSH2 0x4197 JUMPI DUP5 DUP10 ADD MLOAD DUP3 SSTORE PUSH1 0x1 DUP3 ADD SWAP2 POP PUSH1 0x20 DUP6 ADD SWAP5 POP PUSH1 0x20 DUP2 ADD SWAP1 POP PUSH2 0x4172 JUMP JUMPDEST DUP7 DUP4 LT ISZERO PUSH2 0x41B4 JUMPI DUP5 DUP10 ADD MLOAD PUSH2 0x41B0 PUSH1 0x1F DUP10 AND DUP3 PUSH2 0x40BD JUMP JUMPDEST DUP4 SSTORE POP JUMPDEST PUSH1 0x1 PUSH1 0x2 DUP9 MUL ADD DUP9 SSTORE POP POP POP JUMPDEST POP POP POP POP POP POP JUMP JUMPDEST PUSH32 0x4F6E792061646D696E6973747261746F722063616E2063616C6C000000000000 PUSH1 0x0 DUP3 ADD MSTORE POP JUMP JUMPDEST PUSH1 0x0 PUSH2 0x41FF PUSH1 0x1A DUP4 PUSH2 0x3243 JUMP JUMPDEST SWAP2 POP PUSH2 0x420A DUP3 PUSH2 0x41C9 JUMP JUMPDEST PUSH1 0x20 DUP3 ADD SWAP1 POP SWAP2 SWAP1 POP JUMP JUMPDEST PUSH1 0x0 PUSH1 0x20 DUP3 ADD SWAP1 POP DUP2 DUP2 SUB PUSH1 0x0 DUP4 ADD MSTORE PUSH2 0x422E DUP2 PUSH2 0x41F2 JUMP JUMPDEST SWAP1 POP SWAP2 SWAP1 POP JUMP JUMPDEST PUSH32 0x4F6E6C792041646D696E732043616E2043616C6C20546869732046756E637469 PUSH1 0x0 DUP3 ADD MSTORE PUSH32 0x6F6E000000000000000000000000000000000000000000000000000000000000 PUSH1 0x20 DUP3 ADD MSTORE POP JUMP JUMPDEST PUSH1 0x0 PUSH2 0x4291 PUSH1 0x22 DUP4 PUSH2 0x3243 JUMP JUMPDEST SWAP2 POP PUSH2 0x429C DUP3 PUSH2 0x4235 JUMP JUMPDEST PUSH1 0x40 DUP3 ADD SWAP1 POP SWAP2 SWAP1 POP JUMP JUMPDEST PUSH1 0x0 PUSH1 0x20 DUP3 ADD SWAP1 POP DUP2 DUP2 SUB PUSH1 0x0 DUP4 ADD MSTORE PUSH2 0x42C0 DUP2 PUSH2 0x4284 JUMP JUMPDEST SWAP1 POP SWAP2 SWAP1 POP JUMP JUMPDEST PUSH32 0x4F6E6C792061646D696E6973747261746F722063616E2063616C6C0000000000 PUSH1 0x0 DUP3 ADD MSTORE POP JUMP JUMPDEST PUSH1 0x0 PUSH2 0x42FD PUSH1 0x1B DUP4 PUSH2 0x3243 JUMP JUMPDEST SWAP2 POP PUSH2 0x4308 DUP3 PUSH2 0x42C7 JUMP JUMPDEST PUSH1 0x20 DUP3 ADD SWAP1 POP SWAP2 SWAP1 POP JUMP JUMPDEST PUSH1 0x0 PUSH1 0x20 DUP3 ADD SWAP1 POP DUP2 DUP2 SUB PUSH1 0x0 DUP4 ADD MSTORE PUSH2 0x432C DUP2 PUSH2 0x42F0 JUMP JUMPDEST SWAP1 POP SWAP2 SWAP1 POP JUMP JUMPDEST PUSH32 0x4D696E7465722043616E204E6F74204772616E742048696D73656C6620726F6C PUSH1 0x0 DUP3 ADD MSTORE PUSH32 0x6500000000000000000000000000000000000000000000000000000000000000 PUSH1 0x20 DUP3 ADD MSTORE POP JUMP JUMPDEST PUSH1 0x0 PUSH2 0x438F PUSH1 0x21 DUP4 PUSH2 0x3243 JUMP JUMPDEST SWAP2 POP PUSH2 0x439A DUP3 PUSH2 0x4333 JUMP JUMPDEST PUSH1 0x40 DUP3 ADD SWAP1 POP SWAP2 SWAP1 POP JUMP JUMPDEST PUSH1 0x0 PUSH1 0x20 DUP3 ADD SWAP1 POP DUP2 DUP2 SUB PUSH1 0x0 DUP4 ADD MSTORE PUSH2 0x43BE DUP2 PUSH2 0x4382 JUMP JUMPDEST SWAP1 POP SWAP2 SWAP1 POP JUMP JUMPDEST PUSH32 0x416C7265616479204772616E746564205468697320526F6C6500000000000000 PUSH1 0x0 DUP3 ADD MSTORE POP JUMP JUMPDEST PUSH1 0x0 PUSH2 0x43FB PUSH1 0x19 DUP4 PUSH2 0x3243 JUMP JUMPDEST SWAP2 POP PUSH2 0x4406 DUP3 PUSH2 0x43C5 JUMP JUMPDEST PUSH1 0x20 DUP3 ADD SWAP1 POP SWAP2 SWAP1 POP JUMP JUMPDEST PUSH1 0x0 PUSH1 0x20 DUP3 ADD SWAP1 POP DUP2 DUP2 SUB PUSH1 0x0 DUP4 ADD MSTORE PUSH2 0x442A DUP2 PUSH2 0x43EE JUMP JUMPDEST SWAP1 POP SWAP2 SWAP1 POP JUMP JUMPDEST PUSH32 0x4E487B7100000000000000000000000000000000000000000000000000000000 PUSH1 0x0 MSTORE PUSH1 0x32 PUSH1 0x4 MSTORE PUSH1 0x24 PUSH1 0x0 REVERT JUMPDEST PUSH32 0x6E6F206E6F74206F6E20626C61636B6C69737400000000000000000000000000 PUSH1 0x0 DUP3 ADD MSTORE POP JUMP JUMPDEST PUSH1 0x0 PUSH2 0x4496 PUSH1 0x13 DUP4 PUSH2 0x3243 JUMP JUMPDEST SWAP2 POP PUSH2 0x44A1 DUP3 PUSH2 0x4460 JUMP JUMPDEST PUSH1 0x20 DUP3 ADD SWAP1 POP SWAP2 SWAP1 POP JUMP JUMPDEST PUSH1 0x0 PUSH1 0x20 DUP3 ADD SWAP1 POP DUP2 DUP2 SUB PUSH1 0x0 DUP4 ADD MSTORE PUSH2 0x44C5 DUP2 PUSH2 0x4489 JUMP JUMPDEST SWAP1 POP SWAP2 SWAP1 POP JUMP INVALID LOG2 PUSH5 0x6970667358 0x22 SLT KECCAK256 DUP16 SMOD 0xD7 SWAP4 EXTCODECOPY BALANCE 0xCB 0x23 0xC 0xCD SAR 0xD6 0xA8 CALLVALUE MSTORE8 0xD7 LOG1 0xD5 SWAP15 ORIGIN 0x26 0xD1 0x2A 0xBB JUMPDEST PUSH8 0x64F57D2B27196473 PUSH16 0x6C634300081300330000000000000000 "
				},
				"gasEstimates": {
					"creation": {
						"codeDepositCost": "3533200",
						"executionCost": "infinite",
						"totalCost": "infinite"
					},
					"external": {
						"Owner1()": "451",
						"Owner2()": "2590",
						"_hasRole(address,uint8)": "3089",
						"_role(address,address)": "infinite",
						"_roles(address)": "2980",
						"_userRoleData(address)": "infinite",
						"addBlacklist(address)": "infinite",
						"addToWhitelist(address)": "infinite",
						"allowance(address,address)": "infinite",
						"allowance2(address,uint256)": "infinite",
						"approve(address,uint256)": "infinite",
						"balanceOf(address)": "2860",
						"balanceOfOwner()": "4708",
						"balanceOfOwner1()": "2636",
						"balanceOfOwner2()": "infinite",
						"balanceOfUser(address)": "2932",
						"blackListedAddresses(uint256)": "5045",
						"blacklist(address)": "2933",
						"burn(uint256)": "infinite",
						"ecim()": "2519",
						"getAdmin99(address)": "infinite",
						"getBlackListedUsers()": "infinite",
						"grantRole(address,address,address,uint8,uint8)": "infinite",
						"isBlacklisted(address)": "3015",
						"isWhitelisted(address)": "2995",
						"mint(address,uint256)": "infinite",
						"name()": "infinite",
						"pause()": "26934",
						"removeBlacklist(address)": "infinite",
						"removeFromWhitelist(address)": "infinite",
						"setAdmin99(address)": "infinite",
						"symbol()": "infinite",
						"totalSupply()": "2542",
						"transfer(address,uint256)": "infinite",
						"transferFrom(address,address,uint256)": "infinite",
						"unpause()": "26956",
						"userroles(uint256)": "5067",
						"whiteListedAddresses(uint256)": "5046",
						"whitelist(address)": "2912"
					}
				},
				"methodIdentifiers": {
					"Owner1()": "f1d2b3c2",
					"Owner2()": "74db3064",
					"_hasRole(address,uint8)": "c0446a7d",
					"_role(address,address)": "7c91b15e",
					"_roles(address)": "20853239",
					"_userRoleData(address)": "ceca9ffb",
					"addBlacklist(address)": "9cfe42da",
					"addToWhitelist(address)": "e43252d7",
					"allowance(address,address)": "dd62ed3e",
					"allowance2(address,uint256)": "a24ed452",
					"approve(address,uint256)": "095ea7b3",
					"balanceOf(address)": "70a08231",
					"balanceOfOwner()": "4975d202",
					"balanceOfOwner1()": "fc5f505d",
					"balanceOfOwner2()": "40180920",
					"balanceOfUser(address)": "12cae7af",
					"blackListedAddresses(uint256)": "4b38b453",
					"blacklist(address)": "f9f92be4",
					"burn(uint256)": "42966c68",
					"ecim()": "4163fd02",
					"getAdmin99(address)": "476b49bc",
					"getBlackListedUsers()": "499d0379",
					"grantRole(address,address,address,uint8,uint8)": "69507da8",
					"isBlacklisted(address)": "fe575a87",
					"isWhitelisted(address)": "3af32abf",
					"mint(address,uint256)": "40c10f19",
					"name()": "06fdde03",
					"pause()": "8456cb59",
					"removeBlacklist(address)": "eb91e651",
					"removeFromWhitelist(address)": "8ab1d681",
					"setAdmin99(address)": "57d50b9d",
					"symbol()": "95d89b41",
					"totalSupply()": "18160ddd",
					"transfer(address,uint256)": "a9059cbb",
					"transferFrom(address,address,uint256)": "23b872dd",
					"unpause()": "3f4ba83a",
					"userroles(uint256)": "e0639f5c",
					"whiteListedAddresses(uint256)": "2c69953b",
					"whitelist(address)": "9b19251a"
				}
			},
			"storageLayout": {
				"storage": [
					{
						"astId": 4,
						"contract": "Tet.sol:Tet",
						"label": "name",
						"offset": 0,
						"slot": "0",
						"type": "t_string_storage"
					},
					{
						"astId": 7,
						"contract": "Tet.sol:Tet",
						"label": "symbol",
						"offset": 0,
						"slot": "1",
						"type": "t_string_storage"
					},
					{
						"astId": 12,
						"contract": "Tet.sol:Tet",
						"label": "ecim",
						"offset": 0,
						"slot": "2",
						"type": "t_uint256"
					},
					{
						"astId": 14,
						"contract": "Tet.sol:Tet",
						"label": "totalSupply",
						"offset": 0,
						"slot": "3",
						"type": "t_uint256"
					},
					{
						"astId": 16,
						"contract": "Tet.sol:Tet",
						"label": "owner",
						"offset": 0,
						"slot": "4",
						"type": "t_address"
					},
					{
						"astId": 18,
						"contract": "Tet.sol:Tet",
						"label": "paused",
						"offset": 20,
						"slot": "4",
						"type": "t_bool"
					},
					{
						"astId": 43,
						"contract": "Tet.sol:Tet",
						"label": "allowance",
						"offset": 0,
						"slot": "5",
						"type": "t_mapping(t_address,t_mapping(t_address,t_uint256))"
					},
					{
						"astId": 47,
						"contract": "Tet.sol:Tet",
						"label": "balanceOf",
						"offset": 0,
						"slot": "6",
						"type": "t_mapping(t_address,t_uint256)"
					},
					{
						"astId": 51,
						"contract": "Tet.sol:Tet",
						"label": "blacklist",
						"offset": 0,
						"slot": "7",
						"type": "t_mapping(t_address,t_bool)"
					},
					{
						"astId": 55,
						"contract": "Tet.sol:Tet",
						"label": "whitelist",
						"offset": 0,
						"slot": "8",
						"type": "t_mapping(t_address,t_bool)"
					},
					{
						"astId": 502,
						"contract": "Tet.sol:Tet",
						"label": "blackListedAddresses",
						"offset": 0,
						"slot": "9",
						"type": "t_array(t_address)dyn_storage"
					},
					{
						"astId": 574,
						"contract": "Tet.sol:Tet",
						"label": "whiteListedAddresses",
						"offset": 0,
						"slot": "10",
						"type": "t_array(t_address)dyn_storage"
					},
					{
						"astId": 657,
						"contract": "Tet.sol:Tet",
						"label": "roledata",
						"offset": 0,
						"slot": "11",
						"type": "t_struct(RoleData)654_storage"
					},
					{
						"astId": 664,
						"contract": "Tet.sol:Tet",
						"label": "_hasRole",
						"offset": 0,
						"slot": "13",
						"type": "t_mapping(t_address,t_mapping(t_enum(Role)642,t_bool))"
					},
					{
						"astId": 669,
						"contract": "Tet.sol:Tet",
						"label": "_roles",
						"offset": 0,
						"slot": "14",
						"type": "t_mapping(t_address,t_enum(Role)642)"
					},
					{
						"astId": 675,
						"contract": "Tet.sol:Tet",
						"label": "_role",
						"offset": 0,
						"slot": "15",
						"type": "t_mapping(t_address,t_mapping(t_address,t_uint256))"
					},
					{
						"astId": 680,
						"contract": "Tet.sol:Tet",
						"label": "_userRoleData",
						"offset": 0,
						"slot": "16",
						"type": "t_mapping(t_address,t_struct(RoleData)654_storage)"
					},
					{
						"astId": 683,
						"contract": "Tet.sol:Tet",
						"label": "userroles",
						"offset": 0,
						"slot": "17",
						"type": "t_array(t_address)dyn_storage"
					}
				],
				"types": {
					"t_address": {
						"encoding": "inplace",
						"label": "address",
						"numberOfBytes": "20"
					},
					"t_array(t_address)dyn_storage": {
						"base": "t_address",
						"encoding": "dynamic_array",
						"label": "address[]",
						"numberOfBytes": "32"
					},
					"t_bool": {
						"encoding": "inplace",
						"label": "bool",
						"numberOfBytes": "1"
					},
					"t_enum(Role)642": {
						"encoding": "inplace",
						"label": "enum Tet.Role",
						"numberOfBytes": "1"
					},
					"t_mapping(t_address,t_bool)": {
						"encoding": "mapping",
						"key": "t_address",
						"label": "mapping(address => bool)",
						"numberOfBytes": "32",
						"value": "t_bool"
					},
					"t_mapping(t_address,t_enum(Role)642)": {
						"encoding": "mapping",
						"key": "t_address",
						"label": "mapping(address => enum Tet.Role)",
						"numberOfBytes": "32",
						"value": "t_enum(Role)642"
					},
					"t_mapping(t_address,t_mapping(t_address,t_uint256))": {
						"encoding": "mapping",
						"key": "t_address",
						"label": "mapping(address => mapping(address => uint256))",
						"numberOfBytes": "32",
						"value": "t_mapping(t_address,t_uint256)"
					},
					"t_mapping(t_address,t_mapping(t_enum(Role)642,t_bool))": {
						"encoding": "mapping",
						"key": "t_address",
						"label": "mapping(address => mapping(enum Tet.Role => bool))",
						"numberOfBytes": "32",
						"value": "t_mapping(t_enum(Role)642,t_bool)"
					},
					"t_mapping(t_address,t_struct(RoleData)654_storage)": {
						"encoding": "mapping",
						"key": "t_address",
						"label": "mapping(address => struct Tet.RoleData)",
						"numberOfBytes": "32",
						"value": "t_struct(RoleData)654_storage"
					},
					"t_mapping(t_address,t_uint256)": {
						"encoding": "mapping",
						"key": "t_address",
						"label": "mapping(address => uint256)",
						"numberOfBytes": "32",
						"value": "t_uint256"
					},
					"t_mapping(t_enum(Role)642,t_bool)": {
						"encoding": "mapping",
						"key": "t_enum(Role)642",
						"label": "mapping(enum Tet.Role => bool)",
						"numberOfBytes": "32",
						"value": "t_bool"
					},
					"t_string_storage": {
						"encoding": "bytes",
						"label": "string",
						"numberOfBytes": "32"
					},
					"t_struct(RoleData)654_storage": {
						"encoding": "inplace",
						"label": "struct Tet.RoleData",
						"members": [
							{
								"astId": 644,
								"contract": "Tet.sol:Tet",
								"label": "user",
								"offset": 0,
								"slot": "0",
								"type": "t_address"
							},
							{
								"astId": 646,
								"contract": "Tet.sol:Tet",
								"label": "isGranted",
								"offset": 20,
								"slot": "0",
								"type": "t_bool"
							},
							{
								"astId": 648,
								"contract": "Tet.sol:Tet",
								"label": "isRevoked",
								"offset": 21,
								"slot": "0",
								"type": "t_bool"
							},
							{
								"astId": 651,
								"contract": "Tet.sol:Tet",
								"label": "roleType",
								"offset": 22,
								"slot": "0",
								"type": "t_enum(Role)642"
							},
							{
								"astId": 653,
								"contract": "Tet.sol:Tet",
								"label": "roleName",
								"offset": 0,
								"slot": "1",
								"type": "t_string_storage"
							}
						],
						"numberOfBytes": "64"
					},
					"t_uint256": {
						"encoding": "inplace",
						"label": "uint256",
						"numberOfBytes": "32"
					}
				}
			},
			"userdoc": {
				"kind": "user",
				"methods": {},
				"version": 1
			}
		}
	}
}