{
	"Learning.sol": {
		"Learning": {
			"abi": [
				{
					"inputs": [],
					"stateMutability": "nonpayable",
					"type": "constructor"
				},
				{
					"inputs": [
						{
							"internalType": "address",
							"name": "",
							"type": "address"
						}
					],
					"name": "_checkole",
					"outputs": [
						{
							"internalType": "bool",
							"name": "",
							"type": "bool"
						}
					],
					"stateMutability": "view",
					"type": "function"
				},
				{
					"inputs": [
						{
							"internalType": "address",
							"name": "",
							"type": "address"
						},
						{
							"internalType": "enum Learning.Role",
							"name": "",
							"type": "uint8"
						}
					],
					"name": "_hasRoleGivenByAdmin",
					"outputs": [
						{
							"internalType": "bool",
							"name": "",
							"type": "bool"
						}
					],
					"stateMutability": "view",
					"type": "function"
				},
				{
					"inputs": [
						{
							"internalType": "address",
							"name": "",
							"type": "address"
						}
					],
					"name": "_roles",
					"outputs": [
						{
							"internalType": "enum Learning.Role",
							"name": "",
							"type": "uint8"
						}
					],
					"stateMutability": "view",
					"type": "function"
				},
				{
					"inputs": [
						{
							"internalType": "address",
							"name": "",
							"type": "address"
						}
					],
					"name": "_userRoleData",
					"outputs": [
						{
							"internalType": "address",
							"name": "user",
							"type": "address"
						},
						{
							"internalType": "bool",
							"name": "isGranted",
							"type": "bool"
						},
						{
							"internalType": "bool",
							"name": "isRevoked",
							"type": "bool"
						},
						{
							"internalType": "enum Learning.Role",
							"name": "roleType",
							"type": "uint8"
						},
						{
							"internalType": "string",
							"name": "roleName",
							"type": "string"
						}
					],
					"stateMutability": "view",
					"type": "function"
				},
				{
					"inputs": [],
					"name": "approveOrder",
					"outputs": [],
					"stateMutability": "nonpayable",
					"type": "function"
				},
				{
					"inputs": [
						{
							"internalType": "address",
							"name": "_user",
							"type": "address"
						}
					],
					"name": "checkRole",
					"outputs": [
						{
							"internalType": "address",
							"name": "",
							"type": "address"
						},
						{
							"internalType": "bool",
							"name": "",
							"type": "bool"
						},
						{
							"internalType": "bool",
							"name": "",
							"type": "bool"
						},
						{
							"internalType": "enum Learning.Role",
							"name": "",
							"type": "uint8"
						},
						{
							"internalType": "string",
							"name": "",
							"type": "string"
						}
					],
					"stateMutability": "view",
					"type": "function"
				},
				{
					"inputs": [
						{
							"internalType": "uint256",
							"name": "_taskId",
							"type": "uint256"
						},
						{
							"internalType": "string",
							"name": "newState",
							"type": "string"
						}
					],
					"name": "createTask",
					"outputs": [
						{
							"components": [
								{
									"internalType": "string",
									"name": "state",
									"type": "string"
								}
							],
							"internalType": "struct Learning.Task",
							"name": "",
							"type": "tuple"
						},
						{
							"internalType": "uint256",
							"name": "",
							"type": "uint256"
						}
					],
					"stateMutability": "nonpayable",
					"type": "function"
				},
				{
					"inputs": [
						{
							"internalType": "address",
							"name": "_admin",
							"type": "address"
						}
					],
					"name": "getAdmin99",
					"outputs": [
						{
							"internalType": "enum Learning.Role",
							"name": "",
							"type": "uint8"
						},
						{
							"internalType": "address",
							"name": "",
							"type": "address"
						},
						{
							"internalType": "bool",
							"name": "",
							"type": "bool"
						},
						{
							"internalType": "string",
							"name": "",
							"type": "string"
						}
					],
					"stateMutability": "view",
					"type": "function"
				},
				{
					"inputs": [],
					"name": "getStatus",
					"outputs": [
						{
							"internalType": "enum Learning.Status",
							"name": "",
							"type": "uint8"
						}
					],
					"stateMutability": "view",
					"type": "function"
				},
				{
					"inputs": [],
					"name": "getStatusInt",
					"outputs": [
						{
							"internalType": "uint256",
							"name": "",
							"type": "uint256"
						}
					],
					"stateMutability": "view",
					"type": "function"
				},
				{
					"inputs": [],
					"name": "getTotalTask",
					"outputs": [
						{
							"internalType": "uint256",
							"name": "",
							"type": "uint256"
						}
					],
					"stateMutability": "view",
					"type": "function"
				},
				{
					"inputs": [
						{
							"internalType": "address",
							"name": "_admin",
							"type": "address"
						},
						{
							"internalType": "address",
							"name": "_pauser",
							"type": "address"
						},
						{
							"internalType": "enum Learning.Role",
							"name": "role1",
							"type": "uint8"
						}
					],
					"name": "grantRole",
					"outputs": [
						{
							"internalType": "address",
							"name": "",
							"type": "address"
						},
						{
							"internalType": "enum Learning.Role",
							"name": "",
							"type": "uint8"
						},
						{
							"internalType": "bool",
							"name": "",
							"type": "bool"
						}
					],
					"stateMutability": "nonpayable",
					"type": "function"
				},
				{
					"inputs": [],
					"name": "order",
					"outputs": [
						{
							"internalType": "uint256",
							"name": "id",
							"type": "uint256"
						},
						{
							"internalType": "enum Learning.Status",
							"name": "status",
							"type": "uint8"
						}
					],
					"stateMutability": "view",
					"type": "function"
				},
				{
					"inputs": [
						{
							"internalType": "address",
							"name": "_pauser",
							"type": "address"
						},
						{
							"internalType": "enum Learning.Role",
							"name": "role",
							"type": "uint8"
						}
					],
					"name": "renouncePauserRole",
					"outputs": [
						{
							"internalType": "address",
							"name": "",
							"type": "address"
						},
						{
							"internalType": "enum Learning.Role",
							"name": "",
							"type": "uint8"
						},
						{
							"internalType": "bool",
							"name": "",
							"type": "bool"
						}
					],
					"stateMutability": "nonpayable",
					"type": "function"
				},
				{
					"inputs": [
						{
							"internalType": "address",
							"name": "_admin",
							"type": "address"
						},
						{
							"internalType": "address",
							"name": "_pauser",
							"type": "address"
						},
						{
							"internalType": "enum Learning.Role",
							"name": "role",
							"type": "uint8"
						}
					],
					"name": "revokeRole",
					"outputs": [
						{
							"internalType": "address",
							"name": "",
							"type": "address"
						},
						{
							"internalType": "enum Learning.Role",
							"name": "",
							"type": "uint8"
						},
						{
							"internalType": "bool",
							"name": "",
							"type": "bool"
						}
					],
					"stateMutability": "nonpayable",
					"type": "function"
				},
				{
					"inputs": [
						{
							"internalType": "address",
							"name": "_admin",
							"type": "address"
						},
						{
							"internalType": "enum Learning.Role",
							"name": "role",
							"type": "uint8"
						}
					],
					"name": "setAdmin99",
					"outputs": [
						{
							"internalType": "address",
							"name": "",
							"type": "address"
						},
						{
							"internalType": "enum Learning.Role",
							"name": "",
							"type": "uint8"
						},
						{
							"internalType": "bool",
							"name": "",
							"type": "bool"
						}
					],
					"stateMutability": "nonpayable",
					"type": "function"
				},
				{
					"inputs": [
						{
							"internalType": "uint256",
							"name": "",
							"type": "uint256"
						}
					],
					"name": "statusDescription",
					"outputs": [
						{
							"internalType": "string",
							"name": "",
							"type": "string"
						}
					],
					"stateMutability": "view",
					"type": "function"
				},
				{
					"inputs": [
						{
							"internalType": "string",
							"name": "_string",
							"type": "string"
						}
					],
					"name": "stringToBytes",
					"outputs": [
						{
							"internalType": "bytes",
							"name": "",
							"type": "bytes"
						}
					],
					"stateMutability": "pure",
					"type": "function"
				},
				{
					"inputs": [
						{
							"internalType": "uint256",
							"name": "",
							"type": "uint256"
						}
					],
					"name": "taskIDs",
					"outputs": [
						{
							"internalType": "uint256",
							"name": "",
							"type": "uint256"
						}
					],
					"stateMutability": "view",
					"type": "function"
				},
				{
					"inputs": [
						{
							"internalType": "uint256",
							"name": "",
							"type": "uint256"
						}
					],
					"name": "tasks",
					"outputs": [
						{
							"internalType": "string",
							"name": "state",
							"type": "string"
						}
					],
					"stateMutability": "view",
					"type": "function"
				},
				{
					"inputs": [
						{
							"internalType": "uint256",
							"name": "",
							"type": "uint256"
						}
					],
					"name": "userroles",
					"outputs": [
						{
							"internalType": "address",
							"name": "",
							"type": "address"
						}
					],
					"stateMutability": "view",
					"type": "function"
				}
			],
			"devdoc": {
				"kind": "dev",
				"methods": {},
				"version": 1
			},
			"evm": {
				"assembly": "    /* \"Learning.sol\":90:25577  contract Learning  {... */\n  mstore(0x40, 0x80)\n    /* \"Learning.sol\":22670:22785  constructor() {... */\n  callvalue\n  dup1\n  iszero\n  tag_1\n  jumpi\n  revert(0x00, 0x00)\ntag_1:\n  pop\n    /* \"Learning.sol\":22699:22700  1 */\n  0x01\n    /* \"Learning.sol\":22688:22693  order */\n  0x0a\n    /* \"Learning.sol\":22688:22696  order.id */\n  0x00\n  add\n    /* \"Learning.sol\":22688:22700  order.id = 1 */\n  dup2\n  swap1\n  sstore\n  pop\n    /* \"Learning.sol\":22768:22782  Status.Pending */\n  0x00\n    /* \"Learning.sol\":22753:22758  order */\n  0x0a\n    /* \"Learning.sol\":22753:22765  order.status */\n  0x01\n  add\n  0x00\n    /* \"Learning.sol\":22753:22782  order.status = Status.Pending */\n  0x0100\n  exp\n  dup2\n  sload\n  dup2\n  0xff\n  mul\n  not\n  and\n  swap1\n  dup4\n  0x02\n  dup2\n  gt\n  iszero\n  tag_4\n  jumpi\n  tag_5\n  tag_6\n  jump\t// in\ntag_5:\ntag_4:\n  mul\n  or\n  swap1\n  sstore\n  pop\n    /* \"Learning.sol\":90:25577  contract Learning  {... */\n  jump(tag_7)\n    /* \"#utility.yul\":7:187   */\ntag_6:\n    /* \"#utility.yul\":55:132   */\n  0x4e487b7100000000000000000000000000000000000000000000000000000000\n    /* \"#utility.yul\":52:53   */\n  0x00\n    /* \"#utility.yul\":45:133   */\n  mstore\n    /* \"#utility.yul\":152:156   */\n  0x21\n    /* \"#utility.yul\":149:150   */\n  0x04\n    /* \"#utility.yul\":142:157   */\n  mstore\n    /* \"#utility.yul\":176:180   */\n  0x24\n    /* \"#utility.yul\":173:174   */\n  0x00\n    /* \"#utility.yul\":166:181   */\n  revert\n    /* \"Learning.sol\":90:25577  contract Learning  {... */\ntag_7:\n  dataSize(sub_0)\n  dup1\n  dataOffset(sub_0)\n  0x00\n  codecopy\n  0x00\n  return\nstop\n\nsub_0: assembly {\n        /* \"Learning.sol\":90:25577  contract Learning  {... */\n      mstore(0x40, 0x80)\n      callvalue\n      dup1\n      iszero\n      tag_1\n      jumpi\n      revert(0x00, 0x00)\n    tag_1:\n      pop\n      jumpi(tag_2, lt(calldatasize, 0x04))\n      shr(0xe0, calldataload(0x00))\n      dup1\n      0x80245a21\n      gt\n      tag_24\n      jumpi\n      dup1\n      0xc9feb159\n      gt\n      tag_25\n      jumpi\n      dup1\n      0xc9feb159\n      eq\n      tag_18\n      jumpi\n      dup1\n      0xceca9ffb\n      eq\n      tag_19\n      jumpi\n      dup1\n      0xd12c987c\n      eq\n      tag_20\n      jumpi\n      dup1\n      0xe0639f5c\n      eq\n      tag_21\n      jumpi\n      dup1\n      0xe106fb4b\n      eq\n      tag_22\n      jumpi\n      dup1\n      0xf13e5d09\n      eq\n      tag_23\n      jumpi\n      jump(tag_2)\n    tag_25:\n      dup1\n      0x80245a21\n      eq\n      tag_13\n      jumpi\n      dup1\n      0x8d977672\n      eq\n      tag_14\n      jumpi\n      dup1\n      0xa0d7823e\n      eq\n      tag_15\n      jumpi\n      dup1\n      0xa8813de8\n      eq\n      tag_16\n      jumpi\n      dup1\n      0xbf15071d\n      eq\n      tag_17\n      jumpi\n      jump(tag_2)\n    tag_24:\n      dup1\n      0x3868e7e5\n      gt\n      tag_26\n      jumpi\n      dup1\n      0x3868e7e5\n      eq\n      tag_8\n      jumpi\n      dup1\n      0x38e174ed\n      eq\n      tag_9\n      jumpi\n      dup1\n      0x476b49bc\n      eq\n      tag_10\n      jumpi\n      dup1\n      0x4e69d560\n      eq\n      tag_11\n      jumpi\n      dup1\n      0x74b2f66a\n      eq\n      tag_12\n      jumpi\n      jump(tag_2)\n    tag_26:\n      dup1\n      0x16d41b94\n      eq\n      tag_3\n      jumpi\n      dup1\n      0x1e47d8ac\n      eq\n      tag_4\n      jumpi\n      dup1\n      0x20853239\n      eq\n      tag_5\n      jumpi\n      dup1\n      0x299958bf\n      eq\n      tag_6\n      jumpi\n      dup1\n      0x32d02f6d\n      eq\n      tag_7\n      jumpi\n    tag_2:\n      revert(0x00, 0x00)\n        /* \"Learning.sol\":21777:22061  function createTask(uint _taskId, string memory newState) public returns(Task memory,uint){... */\n    tag_3:\n      tag_27\n      0x04\n      dup1\n      calldatasize\n      sub\n      dup2\n      add\n      swap1\n      tag_28\n      swap2\n      swap1\n      tag_29\n      jump\t// in\n    tag_28:\n      tag_30\n      jump\t// in\n    tag_27:\n      mload(0x40)\n      tag_31\n      swap3\n      swap2\n      swap1\n      tag_32\n      jump\t// in\n    tag_31:\n      mload(0x40)\n      dup1\n      swap2\n      sub\n      swap1\n      return\n        /* \"Learning.sol\":8324:8393  mapping(address => mapping(Role => bool)) public _hasRoleGivenByAdmin */\n    tag_4:\n      tag_33\n      0x04\n      dup1\n      calldatasize\n      sub\n      dup2\n      add\n      swap1\n      tag_34\n      swap2\n      swap1\n      tag_35\n      jump\t// in\n    tag_34:\n      tag_36\n      jump\t// in\n    tag_33:\n      mload(0x40)\n      tag_37\n      swap2\n      swap1\n      tag_38\n      jump\t// in\n    tag_37:\n      mload(0x40)\n      dup1\n      swap2\n      sub\n      swap1\n      return\n        /* \"Learning.sol\":8395:8433  mapping(address => Role) public _roles */\n    tag_5:\n      tag_39\n      0x04\n      dup1\n      calldatasize\n      sub\n      dup2\n      add\n      swap1\n      tag_40\n      swap2\n      swap1\n      tag_41\n      jump\t// in\n    tag_40:\n      tag_42\n      jump\t// in\n    tag_39:\n      mload(0x40)\n      tag_43\n      swap2\n      swap1\n      tag_44\n      jump\t// in\n    tag_43:\n      mload(0x40)\n      dup1\n      swap2\n      sub\n      swap1\n      return\n        /* \"Learning.sol\":21753:21774  uint[] public taskIDs */\n    tag_6:\n      tag_45\n      0x04\n      dup1\n      calldatasize\n      sub\n      dup2\n      add\n      swap1\n      tag_46\n      swap2\n      swap1\n      tag_47\n      jump\t// in\n    tag_46:\n      tag_48\n      jump\t// in\n    tag_45:\n      mload(0x40)\n      tag_49\n      swap2\n      swap1\n      tag_50\n      jump\t// in\n    tag_49:\n      mload(0x40)\n      dup1\n      swap2\n      sub\n      swap1\n      return\n        /* \"Learning.sol\":21482:21533  mapping(uint256 => string) public statusDescription */\n    tag_7:\n      tag_51\n      0x04\n      dup1\n      calldatasize\n      sub\n      dup2\n      add\n      swap1\n      tag_52\n      swap2\n      swap1\n      tag_47\n      jump\t// in\n    tag_52:\n      tag_53\n      jump\t// in\n    tag_51:\n      mload(0x40)\n      tag_54\n      swap2\n      swap1\n      tag_55\n      jump\t// in\n    tag_54:\n      mload(0x40)\n      dup1\n      swap2\n      sub\n      swap1\n      return\n        /* \"Learning.sol\":11580:13114  function grantRole(address _admin,address _pauser, Role role1 ) ... */\n    tag_8:\n      tag_56\n      0x04\n      dup1\n      calldatasize\n      sub\n      dup2\n      add\n      swap1\n      tag_57\n      swap2\n      swap1\n      tag_58\n      jump\t// in\n    tag_57:\n      tag_59\n      jump\t// in\n    tag_56:\n      mload(0x40)\n      tag_60\n      swap4\n      swap3\n      swap2\n      swap1\n      tag_61\n      jump\t// in\n    tag_60:\n      mload(0x40)\n      dup1\n      swap2\n      sub\n      swap1\n      return\n        /* \"Learning.sol\":23140:23210  function approveOrder() external {... */\n    tag_9:\n      tag_62\n      tag_63\n      jump\t// in\n    tag_62:\n      stop\n        /* \"Learning.sol\":11006:11199  function getAdmin99(address _admin) public view returns(Role,address,bool,string memory) {... */\n    tag_10:\n      tag_64\n      0x04\n      dup1\n      calldatasize\n      sub\n      dup2\n      add\n      swap1\n      tag_65\n      swap2\n      swap1\n      tag_41\n      jump\t// in\n    tag_65:\n      tag_66\n      jump\t// in\n    tag_64:\n      mload(0x40)\n      tag_67\n      swap5\n      swap4\n      swap3\n      swap2\n      swap1\n      tag_68\n      jump\t// in\n    tag_67:\n      mload(0x40)\n      dup1\n      swap2\n      sub\n      swap1\n      return\n        /* \"Learning.sol\":23300:23376  function getStatus() external view returns(Status){... */\n    tag_11:\n      tag_69\n      tag_70\n      jump\t// in\n    tag_69:\n      mload(0x40)\n      tag_71\n      swap2\n      swap1\n      tag_72\n      jump\t// in\n    tag_71:\n      mload(0x40)\n      dup1\n      swap2\n      sub\n      swap1\n      return\n        /* \"Learning.sol\":23212:23298  function getStatusInt() external view returns(uint){... */\n    tag_12:\n      tag_73\n      tag_74\n      jump\t// in\n    tag_73:\n      mload(0x40)\n      tag_75\n      swap2\n      swap1\n      tag_50\n      jump\t// in\n    tag_75:\n      mload(0x40)\n      dup1\n      swap2\n      sub\n      swap1\n      return\n        /* \"Learning.sol\":8281:8322  mapping(address => bool) public _checkole */\n    tag_13:\n      tag_76\n      0x04\n      dup1\n      calldatasize\n      sub\n      dup2\n      add\n      swap1\n      tag_77\n      swap2\n      swap1\n      tag_41\n      jump\t// in\n    tag_77:\n      tag_78\n      jump\t// in\n    tag_76:\n      mload(0x40)\n      tag_79\n      swap2\n      swap1\n      tag_38\n      jump\t// in\n    tag_79:\n      mload(0x40)\n      dup1\n      swap2\n      sub\n      swap1\n      return\n        /* \"Learning.sol\":21611:21645  mapping(uint => Task) public tasks */\n    tag_14:\n      tag_80\n      0x04\n      dup1\n      calldatasize\n      sub\n      dup2\n      add\n      swap1\n      tag_81\n      swap2\n      swap1\n      tag_47\n      jump\t// in\n    tag_81:\n      tag_82\n      jump\t// in\n    tag_80:\n      mload(0x40)\n      tag_83\n      swap2\n      swap1\n      tag_55\n      jump\t// in\n    tag_83:\n      mload(0x40)\n      dup1\n      swap2\n      sub\n      swap1\n      return\n        /* \"Learning.sol\":20293:20827  function checkRole(address _user) public view returns(address, bool,bool,Role,string memory ) {... */\n    tag_15:\n      tag_84\n      0x04\n      dup1\n      calldatasize\n      sub\n      dup2\n      add\n      swap1\n      tag_85\n      swap2\n      swap1\n      tag_41\n      jump\t// in\n    tag_85:\n      tag_86\n      jump\t// in\n    tag_84:\n      mload(0x40)\n      tag_87\n      swap6\n      swap5\n      swap4\n      swap3\n      swap2\n      swap1\n      tag_88\n      jump\t// in\n    tag_87:\n      mload(0x40)\n      dup1\n      swap2\n      sub\n      swap1\n      return\n        /* \"Learning.sol\":18714:20125  function renouncePauserRole(address _pauser,Role role)... */\n    tag_16:\n      tag_89\n      0x04\n      dup1\n      calldatasize\n      sub\n      dup2\n      add\n      swap1\n      tag_90\n      swap2\n      swap1\n      tag_35\n      jump\t// in\n    tag_90:\n      tag_91\n      jump\t// in\n    tag_89:\n      mload(0x40)\n      tag_92\n      swap4\n      swap3\n      swap2\n      swap1\n      tag_61\n      jump\t// in\n    tag_92:\n      mload(0x40)\n      dup1\n      swap2\n      sub\n      swap1\n      return\n        /* \"Learning.sol\":22649:22667  Order public order */\n    tag_17:\n      tag_93\n      tag_94\n      jump\t// in\n    tag_93:\n      mload(0x40)\n      tag_95\n      swap3\n      swap2\n      swap1\n      tag_96\n      jump\t// in\n    tag_95:\n      mload(0x40)\n      dup1\n      swap2\n      sub\n      swap1\n      return\n        /* \"Learning.sol\":9579:11004  function setAdmin99(address _admin, Role role) public ... */\n    tag_18:\n      tag_97\n      0x04\n      dup1\n      calldatasize\n      sub\n      dup2\n      add\n      swap1\n      tag_98\n      swap2\n      swap1\n      tag_35\n      jump\t// in\n    tag_98:\n      tag_99\n      jump\t// in\n    tag_97:\n      mload(0x40)\n      tag_100\n      swap4\n      swap3\n      swap2\n      swap1\n      tag_61\n      jump\t// in\n    tag_100:\n      mload(0x40)\n      dup1\n      swap2\n      sub\n      swap1\n      return\n        /* \"Learning.sol\":8489:8538  mapping(address => RoleData) public _userRoleData */\n    tag_19:\n      tag_101\n      0x04\n      dup1\n      calldatasize\n      sub\n      dup2\n      add\n      swap1\n      tag_102\n      swap2\n      swap1\n      tag_41\n      jump\t// in\n    tag_102:\n      tag_103\n      jump\t// in\n    tag_101:\n      mload(0x40)\n      tag_104\n      swap6\n      swap5\n      swap4\n      swap3\n      swap2\n      swap1\n      tag_88\n      jump\t// in\n    tag_104:\n      mload(0x40)\n      dup1\n      swap2\n      sub\n      swap1\n      return\n        /* \"Learning.sol\":22063:22141  function getTotalTask() public view returns(uint) {... */\n    tag_20:\n      tag_105\n      tag_106\n      jump\t// in\n    tag_105:\n      mload(0x40)\n      tag_107\n      swap2\n      swap1\n      tag_50\n      jump\t// in\n    tag_107:\n      mload(0x40)\n      dup1\n      swap2\n      sub\n      swap1\n      return\n        /* \"Learning.sol\":8541:8567  address[] public userroles */\n    tag_21:\n      tag_108\n      0x04\n      dup1\n      calldatasize\n      sub\n      dup2\n      add\n      swap1\n      tag_109\n      swap2\n      swap1\n      tag_47\n      jump\t// in\n    tag_109:\n      tag_110\n      jump\t// in\n    tag_108:\n      mload(0x40)\n      tag_111\n      swap2\n      swap1\n      tag_112\n      jump\t// in\n    tag_111:\n      mload(0x40)\n      dup1\n      swap2\n      sub\n      swap1\n      return\n        /* \"Learning.sol\":21361:21481  function stringToBytes(string calldata _string) public pure returns(bytes memory){... */\n    tag_22:\n      tag_113\n      0x04\n      dup1\n      calldatasize\n      sub\n      dup2\n      add\n      swap1\n      tag_114\n      swap2\n      swap1\n      tag_115\n      jump\t// in\n    tag_114:\n      tag_116\n      jump\t// in\n    tag_113:\n      mload(0x40)\n      tag_117\n      swap2\n      swap1\n      tag_118\n      jump\t// in\n    tag_117:\n      mload(0x40)\n      dup1\n      swap2\n      sub\n      swap1\n      return\n        /* \"Learning.sol\":13300:15374  function revokeRole(address _admin , address _pauser,Role role)... */\n    tag_23:\n      tag_119\n      0x04\n      dup1\n      calldatasize\n      sub\n      dup2\n      add\n      swap1\n      tag_120\n      swap2\n      swap1\n      tag_58\n      jump\t// in\n    tag_120:\n      tag_121\n      jump\t// in\n    tag_119:\n      mload(0x40)\n      tag_122\n      swap4\n      swap3\n      swap2\n      swap1\n      tag_61\n      jump\t// in\n    tag_122:\n      mload(0x40)\n      dup1\n      swap2\n      sub\n      swap1\n      return\n        /* \"Learning.sol\":21777:22061  function createTask(uint _taskId, string memory newState) public returns(Task memory,uint){... */\n    tag_30:\n        /* \"Learning.sol\":21850:21861  Task memory */\n      tag_123\n      tag_124\n      jump\t// in\n    tag_123:\n        /* \"Learning.sol\":21862:21866  uint */\n      0x00\n        /* \"Learning.sol\":21960:21992  Task({... */\n      mload(0x40)\n      dup1\n      0x20\n      add\n      0x40\n      mstore\n      dup1\n        /* \"Learning.sol\":21979:21987  newState */\n      dup5\n        /* \"Learning.sol\":21960:21992  Task({... */\n      dup2\n      mstore\n      pop\n        /* \"Learning.sol\":21943:21948  tasks */\n      0x08\n        /* \"Learning.sol\":21943:21957  tasks[_taskId] */\n      0x00\n        /* \"Learning.sol\":21949:21956  _taskId */\n      dup7\n        /* \"Learning.sol\":21943:21957  tasks[_taskId] */\n      dup2\n      mstore\n      0x20\n      add\n      swap1\n      dup2\n      mstore\n      0x20\n      add\n      0x00\n      keccak256\n        /* \"Learning.sol\":21943:21992  tasks[_taskId] = Task({... */\n      0x00\n      dup3\n      add\n      mload\n      dup2\n      0x00\n      add\n      swap1\n      dup2\n      tag_126\n      swap2\n      swap1\n      tag_127\n      jump\t// in\n    tag_126:\n      pop\n      swap1\n      pop\n      pop\n        /* \"Learning.sol\":21996:22003  taskIDs */\n      0x09\n        /* \"Learning.sol\":22009:22016  _taskId */\n      dup5\n        /* \"Learning.sol\":21996:22017  taskIDs.push(_taskId) */\n      swap1\n      dup1\n      0x01\n      dup2\n      sload\n      add\n      dup1\n      dup3\n      sstore\n      dup1\n      swap2\n      pop\n      pop\n      0x01\n      swap1\n      sub\n      swap1\n      0x00\n      mstore\n      keccak256(0x00, 0x20)\n      add\n      0x00\n      swap1\n      swap2\n      swap1\n      swap2\n      swap1\n      swap2\n      pop\n      sstore\n        /* \"Learning.sol\":22028:22033  tasks */\n      0x08\n        /* \"Learning.sol\":22028:22042  tasks[_taskId] */\n      0x00\n        /* \"Learning.sol\":22034:22041  _taskId */\n      dup6\n        /* \"Learning.sol\":22028:22042  tasks[_taskId] */\n      dup2\n      mstore\n      0x20\n      add\n      swap1\n      dup2\n      mstore\n      0x20\n      add\n      0x00\n      keccak256\n        /* \"Learning.sol\":22043:22050  taskIDs */\n      0x09\n        /* \"Learning.sol\":22043:22057  taskIDs.length */\n      dup1\n      sload\n      swap1\n      pop\n        /* \"Learning.sol\":22020:22058  return (tasks[_taskId],taskIDs.length) */\n      dup2\n      mload(0x40)\n      dup1\n      0x20\n      add\n      0x40\n      mstore\n      swap1\n      dup2\n      0x00\n      dup3\n      add\n      dup1\n      sload\n      tag_129\n      swap1\n      tag_130\n      jump\t// in\n    tag_129:\n      dup1\n      0x1f\n      add\n      0x20\n      dup1\n      swap2\n      div\n      mul\n      0x20\n      add\n      mload(0x40)\n      swap1\n      dup2\n      add\n      0x40\n      mstore\n      dup1\n      swap3\n      swap2\n      swap1\n      dup2\n      dup2\n      mstore\n      0x20\n      add\n      dup3\n      dup1\n      sload\n      tag_131\n      swap1\n      tag_130\n      jump\t// in\n    tag_131:\n      dup1\n      iszero\n      tag_132\n      jumpi\n      dup1\n      0x1f\n      lt\n      tag_133\n      jumpi\n      0x0100\n      dup1\n      dup4\n      sload\n      div\n      mul\n      dup4\n      mstore\n      swap2\n      0x20\n      add\n      swap2\n      jump(tag_132)\n    tag_133:\n      dup3\n      add\n      swap2\n      swap1\n      0x00\n      mstore\n      keccak256(0x00, 0x20)\n      swap1\n    tag_134:\n      dup2\n      sload\n      dup2\n      mstore\n      swap1\n      0x01\n      add\n      swap1\n      0x20\n      add\n      dup1\n      dup4\n      gt\n      tag_134\n      jumpi\n      dup3\n      swap1\n      sub\n      0x1f\n      and\n      dup3\n      add\n      swap2\n    tag_132:\n      pop\n      pop\n      pop\n      pop\n      pop\n      dup2\n      mstore\n      pop\n      pop\n      swap2\n      pop\n      swap2\n      pop\n      swap2\n      pop\n        /* \"Learning.sol\":21777:22061  function createTask(uint _taskId, string memory newState) public returns(Task memory,uint){... */\n      swap3\n      pop\n      swap3\n      swap1\n      pop\n      jump\t// out\n        /* \"Learning.sol\":8324:8393  mapping(address => mapping(Role => bool)) public _hasRoleGivenByAdmin */\n    tag_36:\n      mstore(0x20, 0x03)\n      dup2\n      0x00\n      mstore\n      mstore(0x20, keccak256(0x00, 0x40))\n      dup1\n      0x00\n      mstore\n      keccak256(0x00, 0x40)\n      0x00\n      swap2\n      pop\n      swap2\n      pop\n      swap1\n      sload\n      swap1\n      0x0100\n      exp\n      swap1\n      div\n      0xff\n      and\n      dup2\n      jump\t// out\n        /* \"Learning.sol\":8395:8433  mapping(address => Role) public _roles */\n    tag_42:\n      mstore(0x20, 0x04)\n      dup1\n      0x00\n      mstore\n      keccak256(0x00, 0x40)\n      0x00\n      swap2\n      pop\n      sload\n      swap1\n      0x0100\n      exp\n      swap1\n      div\n      0xff\n      and\n      dup2\n      jump\t// out\n        /* \"Learning.sol\":21753:21774  uint[] public taskIDs */\n    tag_48:\n      0x09\n      dup2\n      dup2\n      sload\n      dup2\n      lt\n      tag_135\n      jumpi\n      0x00\n      dup1\n      revert\n    tag_135:\n      swap1\n      0x00\n      mstore\n      keccak256(0x00, 0x20)\n      add\n      0x00\n      swap2\n      pop\n      swap1\n      pop\n      sload\n      dup2\n      jump\t// out\n        /* \"Learning.sol\":21482:21533  mapping(uint256 => string) public statusDescription */\n    tag_53:\n      mstore(0x20, 0x07)\n      dup1\n      0x00\n      mstore\n      keccak256(0x00, 0x40)\n      0x00\n      swap2\n      pop\n      swap1\n      pop\n      dup1\n      sload\n      tag_137\n      swap1\n      tag_130\n      jump\t// in\n    tag_137:\n      dup1\n      0x1f\n      add\n      0x20\n      dup1\n      swap2\n      div\n      mul\n      0x20\n      add\n      mload(0x40)\n      swap1\n      dup2\n      add\n      0x40\n      mstore\n      dup1\n      swap3\n      swap2\n      swap1\n      dup2\n      dup2\n      mstore\n      0x20\n      add\n      dup3\n      dup1\n      sload\n      tag_138\n      swap1\n      tag_130\n      jump\t// in\n    tag_138:\n      dup1\n      iszero\n      tag_139\n      jumpi\n      dup1\n      0x1f\n      lt\n      tag_140\n      jumpi\n      0x0100\n      dup1\n      dup4\n      sload\n      div\n      mul\n      dup4\n      mstore\n      swap2\n      0x20\n      add\n      swap2\n      jump(tag_139)\n    tag_140:\n      dup3\n      add\n      swap2\n      swap1\n      0x00\n      mstore\n      keccak256(0x00, 0x20)\n      swap1\n    tag_141:\n      dup2\n      sload\n      dup2\n      mstore\n      swap1\n      0x01\n      add\n      swap1\n      0x20\n      add\n      dup1\n      dup4\n      gt\n      tag_141\n      jumpi\n      dup3\n      swap1\n      sub\n      0x1f\n      and\n      dup3\n      add\n      swap2\n    tag_139:\n      pop\n      pop\n      pop\n      pop\n      pop\n      dup2\n      jump\t// out\n        /* \"Learning.sol\":11580:13114  function grantRole(address _admin,address _pauser, Role role1 ) ... */\n    tag_59:\n        /* \"Learning.sol\":11686:11693  address */\n      0x00\n        /* \"Learning.sol\":11694:11698  Role */\n      0x00\n        /* \"Learning.sol\":11699:11703  bool */\n      0x00\n        /* \"Learning.sol\":11663:11669  _admin */\n      dup6\n        /* \"Learning.sol\":11670:11675  role1 */\n      dup5\n        /* \"Learning.sol\":8648:8658  Role.Admin */\n      0x01\n        /* \"Learning.sol\":8630:8658  _roles[_admin] == Role.Admin */\n      0x03\n      dup2\n      gt\n      iszero\n      tag_143\n      jumpi\n      tag_144\n      tag_145\n      jump\t// in\n    tag_144:\n    tag_143:\n        /* \"Learning.sol\":8630:8636  _roles */\n      0x04\n        /* \"Learning.sol\":8630:8644  _roles[_admin] */\n      0x00\n        /* \"Learning.sol\":8637:8643  _admin */\n      dup5\n        /* \"Learning.sol\":8630:8644  _roles[_admin] */\n      0xffffffffffffffffffffffffffffffffffffffff\n      and\n      0xffffffffffffffffffffffffffffffffffffffff\n      and\n      dup2\n      mstore\n      0x20\n      add\n      swap1\n      dup2\n      mstore\n      0x20\n      add\n      0x00\n      keccak256\n      0x00\n      swap1\n      sload\n      swap1\n      0x0100\n      exp\n      swap1\n      div\n      0xff\n      and\n        /* \"Learning.sol\":8630:8658  _roles[_admin] == Role.Admin */\n      0x03\n      dup2\n      gt\n      iszero\n      tag_146\n      jumpi\n      tag_147\n      tag_145\n      jump\t// in\n    tag_147:\n    tag_146:\n      eq\n        /* \"Learning.sol\":8622:8688  require(_roles[_admin] == Role.Admin,\"Ony administrator can call\") */\n      tag_148\n      jumpi\n      mload(0x40)\n      0x08c379a000000000000000000000000000000000000000000000000000000000\n      dup2\n      mstore\n      0x04\n      add\n      tag_149\n      swap1\n      tag_150\n      jump\t// in\n    tag_149:\n      mload(0x40)\n      dup1\n      swap2\n      sub\n      swap1\n      revert\n    tag_148:\n        /* \"Learning.sol\":8792:8801  _checkole */\n      0x02\n        /* \"Learning.sol\":8792:8810  _checkole[ _admin] */\n      0x00\n        /* \"Learning.sol\":8803:8809  _admin */\n      dup4\n        /* \"Learning.sol\":8792:8810  _checkole[ _admin] */\n      0xffffffffffffffffffffffffffffffffffffffff\n      and\n      0xffffffffffffffffffffffffffffffffffffffff\n      and\n      dup2\n      mstore\n      0x20\n      add\n      swap1\n      dup2\n      mstore\n      0x20\n      add\n      0x00\n      keccak256\n      0x00\n      swap1\n      sload\n      swap1\n      0x0100\n      exp\n      swap1\n      div\n      0xff\n      and\n        /* \"Learning.sol\":8784:8848  require(_checkole[ _admin],\"Only Admins Can Call This Function\") */\n      tag_151\n      jumpi\n      mload(0x40)\n      0x08c379a000000000000000000000000000000000000000000000000000000000\n      dup2\n      mstore\n      0x04\n      add\n      tag_152\n      swap1\n      tag_153\n      jump\t// in\n    tag_152:\n      mload(0x40)\n      dup1\n      swap2\n      sub\n      swap1\n      revert\n    tag_151:\n        /* \"Learning.sol\":11736:11746  Role.Admin */\n      0x01\n        /* \"Learning.sol\":11718:11746  _roles[_admin] == Role.Admin */\n      0x03\n      dup2\n      gt\n      iszero\n      tag_155\n      jumpi\n      tag_156\n      tag_145\n      jump\t// in\n    tag_156:\n    tag_155:\n        /* \"Learning.sol\":11718:11724  _roles */\n      0x04\n        /* \"Learning.sol\":11718:11732  _roles[_admin] */\n      0x00\n        /* \"Learning.sol\":11725:11731  _admin */\n      dup11\n        /* \"Learning.sol\":11718:11732  _roles[_admin] */\n      0xffffffffffffffffffffffffffffffffffffffff\n      and\n      0xffffffffffffffffffffffffffffffffffffffff\n      and\n      dup2\n      mstore\n      0x20\n      add\n      swap1\n      dup2\n      mstore\n      0x20\n      add\n      0x00\n      keccak256\n      0x00\n      swap1\n      sload\n      swap1\n      0x0100\n      exp\n      swap1\n      div\n      0xff\n      and\n        /* \"Learning.sol\":11718:11746  _roles[_admin] == Role.Admin */\n      0x03\n      dup2\n      gt\n      iszero\n      tag_157\n      jumpi\n      tag_158\n      tag_145\n      jump\t// in\n    tag_158:\n    tag_157:\n      eq\n        /* \"Learning.sol\":11710:11777  require(_roles[_admin] == Role.Admin,\"Only administrator can call\") */\n      tag_159\n      jumpi\n      mload(0x40)\n      0x08c379a000000000000000000000000000000000000000000000000000000000\n      dup2\n      mstore\n      0x04\n      add\n      tag_160\n      swap1\n      tag_161\n      jump\t// in\n    tag_160:\n      mload(0x40)\n      dup1\n      swap2\n      sub\n      swap1\n      revert\n    tag_159:\n        /* \"Learning.sol\":11889:11900  Role.Pauser */\n      0x03\n        /* \"Learning.sol\":11870:11900  _roles[_pauser] != Role.Pauser */\n      dup1\n      dup2\n      gt\n      iszero\n      tag_162\n      jumpi\n      tag_163\n      tag_145\n      jump\t// in\n    tag_163:\n    tag_162:\n        /* \"Learning.sol\":11870:11876  _roles */\n      0x04\n        /* \"Learning.sol\":11870:11885  _roles[_pauser] */\n      0x00\n        /* \"Learning.sol\":11877:11884  _pauser */\n      dup10\n        /* \"Learning.sol\":11870:11885  _roles[_pauser] */\n      0xffffffffffffffffffffffffffffffffffffffff\n      and\n      0xffffffffffffffffffffffffffffffffffffffff\n      and\n      dup2\n      mstore\n      0x20\n      add\n      swap1\n      dup2\n      mstore\n      0x20\n      add\n      0x00\n      keccak256\n      0x00\n      swap1\n      sload\n      swap1\n      0x0100\n      exp\n      swap1\n      div\n      0xff\n      and\n        /* \"Learning.sol\":11870:11900  _roles[_pauser] != Role.Pauser */\n      0x03\n      dup2\n      gt\n      iszero\n      tag_164\n      jumpi\n      tag_165\n      tag_145\n      jump\t// in\n    tag_165:\n    tag_164:\n      sub\n        /* \"Learning.sol\":11862:11937  require(_roles[_pauser] != Role.Pauser,\"Pauser Can Not Grant Himself Role\") */\n      tag_166\n      jumpi\n      mload(0x40)\n      0x08c379a000000000000000000000000000000000000000000000000000000000\n      dup2\n      mstore\n      0x04\n      add\n      tag_167\n      swap1\n      tag_168\n      jump\t// in\n    tag_167:\n      mload(0x40)\n      dup1\n      swap2\n      sub\n      swap1\n      revert\n    tag_166:\n        /* \"Learning.sol\":11971:11976  false */\n      0x00\n        /* \"Learning.sol\":11949:11976  roledata.isGranted == false */\n      iszero\n      iszero\n        /* \"Learning.sol\":11949:11957  roledata */\n      0x00\n        /* \"Learning.sol\":11949:11967  roledata.isGranted */\n      0x00\n      add\n      0x14\n      swap1\n      sload\n      swap1\n      0x0100\n      exp\n      swap1\n      div\n      0xff\n      and\n        /* \"Learning.sol\":11949:11976  roledata.isGranted == false */\n      iszero\n      iszero\n      eq\n        /* \"Learning.sol\":11941:12005  require(roledata.isGranted == false,\"Already Granted This Role\") */\n      tag_169\n      jumpi\n      mload(0x40)\n      0x08c379a000000000000000000000000000000000000000000000000000000000\n      dup2\n      mstore\n      0x04\n      add\n      tag_170\n      swap1\n      tag_171\n      jump\t// in\n    tag_170:\n      mload(0x40)\n      dup1\n      swap2\n      sub\n      swap1\n      revert\n    tag_169:\n        /* \"Learning.sol\":12018:12031  _userRoleData */\n      0x05\n        /* \"Learning.sol\":12018:12040  _userRoleData[_pauser] */\n      0x00\n        /* \"Learning.sol\":12032:12039  _pauser */\n      dup9\n        /* \"Learning.sol\":12018:12040  _userRoleData[_pauser] */\n      0xffffffffffffffffffffffffffffffffffffffff\n      and\n      0xffffffffffffffffffffffffffffffffffffffff\n      and\n      dup2\n      mstore\n      0x20\n      add\n      swap1\n      dup2\n      mstore\n      0x20\n      add\n      0x00\n      keccak256\n        /* \"Learning.sol\":12018:12050  _userRoleData[_pauser].isGranted */\n      0x00\n      add\n      0x14\n      swap1\n      sload\n      swap1\n      0x0100\n      exp\n      swap1\n      div\n      0xff\n      and\n        /* \"Learning.sol\":12017:12050  !_userRoleData[_pauser].isGranted */\n      iszero\n        /* \"Learning.sol\":12009:12112  require(!_userRoleData[_pauser].isGranted ,\"Grant has already been given; it can only be granted once\") */\n      tag_172\n      jumpi\n      mload(0x40)\n      0x08c379a000000000000000000000000000000000000000000000000000000000\n      dup2\n      mstore\n      0x04\n      add\n      tag_173\n      swap1\n      tag_174\n      jump\t// in\n    tag_173:\n      mload(0x40)\n      dup1\n      swap2\n      sub\n      swap1\n      revert\n    tag_172:\n        /* \"Learning.sol\":12189:12196  _pauser */\n      dup7\n        /* \"Learning.sol\":12159:12172  _userRoleData */\n      0x05\n        /* \"Learning.sol\":12159:12181  _userRoleData[_pauser] */\n      0x00\n        /* \"Learning.sol\":12173:12180  _pauser */\n      dup10\n        /* \"Learning.sol\":12159:12181  _userRoleData[_pauser] */\n      0xffffffffffffffffffffffffffffffffffffffff\n      and\n      0xffffffffffffffffffffffffffffffffffffffff\n      and\n      dup2\n      mstore\n      0x20\n      add\n      swap1\n      dup2\n      mstore\n      0x20\n      add\n      0x00\n      keccak256\n        /* \"Learning.sol\":12159:12186  _userRoleData[_pauser].user */\n      0x00\n      add\n      0x00\n        /* \"Learning.sol\":12159:12196  _userRoleData[_pauser].user = _pauser */\n      0x0100\n      exp\n      dup2\n      sload\n      dup2\n      0xffffffffffffffffffffffffffffffffffffffff\n      mul\n      not\n      and\n      swap1\n      dup4\n      0xffffffffffffffffffffffffffffffffffffffff\n      and\n      mul\n      or\n      swap1\n      sstore\n      pop\n        /* \"Learning.sol\":12620:12625  role1 */\n      dup6\n        /* \"Learning.sol\":12602:12608  _roles */\n      0x04\n        /* \"Learning.sol\":12602:12617  _roles[_pauser] */\n      0x00\n        /* \"Learning.sol\":12609:12616  _pauser */\n      dup10\n        /* \"Learning.sol\":12602:12617  _roles[_pauser] */\n      0xffffffffffffffffffffffffffffffffffffffff\n      and\n      0xffffffffffffffffffffffffffffffffffffffff\n      and\n      dup2\n      mstore\n      0x20\n      add\n      swap1\n      dup2\n      mstore\n      0x20\n      add\n      0x00\n      keccak256\n      0x00\n        /* \"Learning.sol\":12602:12625  _roles[_pauser] = role1 */\n      0x0100\n      exp\n      dup2\n      sload\n      dup2\n      0xff\n      mul\n      not\n      and\n      swap1\n      dup4\n      0x03\n      dup2\n      gt\n      iszero\n      tag_175\n      jumpi\n      tag_176\n      tag_145\n      jump\t// in\n    tag_176:\n    tag_175:\n      mul\n      or\n      swap1\n      sstore\n      pop\n        /* \"Learning.sol\":12651:12655  true */\n      0x01\n        /* \"Learning.sol\":12630:12639  _checkole */\n      0x02\n        /* \"Learning.sol\":12630:12648  _checkole[_pauser] */\n      0x00\n        /* \"Learning.sol\":12640:12647  _pauser */\n      dup10\n        /* \"Learning.sol\":12630:12648  _checkole[_pauser] */\n      0xffffffffffffffffffffffffffffffffffffffff\n      and\n      0xffffffffffffffffffffffffffffffffffffffff\n      and\n      dup2\n      mstore\n      0x20\n      add\n      swap1\n      dup2\n      mstore\n      0x20\n      add\n      0x00\n      keccak256\n      0x00\n        /* \"Learning.sol\":12630:12655  _checkole[_pauser] = true */\n      0x0100\n      exp\n      dup2\n      sload\n      dup2\n      0xff\n      mul\n      not\n      and\n      swap1\n      dup4\n      iszero\n      iszero\n      mul\n      or\n      swap1\n      sstore\n      pop\n        /* \"Learning.sol\":12708:12712  true */\n      0x01\n        /* \"Learning.sol\":12660:12680  _hasRoleGivenByAdmin */\n      0x03\n        /* \"Learning.sol\":12660:12688  _hasRoleGivenByAdmin[_admin] */\n      0x00\n        /* \"Learning.sol\":12681:12687  _admin */\n      dup11\n        /* \"Learning.sol\":12660:12688  _hasRoleGivenByAdmin[_admin] */\n      0xffffffffffffffffffffffffffffffffffffffff\n      and\n      0xffffffffffffffffffffffffffffffffffffffff\n      and\n      dup2\n      mstore\n      0x20\n      add\n      swap1\n      dup2\n      mstore\n      0x20\n      add\n      0x00\n      keccak256\n        /* \"Learning.sol\":12660:12705  _hasRoleGivenByAdmin[_admin][_roles[_pauser]] */\n      0x00\n        /* \"Learning.sol\":12689:12695  _roles */\n      0x04\n        /* \"Learning.sol\":12689:12704  _roles[_pauser] */\n      0x00\n        /* \"Learning.sol\":12696:12703  _pauser */\n      dup12\n        /* \"Learning.sol\":12689:12704  _roles[_pauser] */\n      0xffffffffffffffffffffffffffffffffffffffff\n      and\n      0xffffffffffffffffffffffffffffffffffffffff\n      and\n      dup2\n      mstore\n      0x20\n      add\n      swap1\n      dup2\n      mstore\n      0x20\n      add\n      0x00\n      keccak256\n      0x00\n      swap1\n      sload\n      swap1\n      0x0100\n      exp\n      swap1\n      div\n      0xff\n      and\n        /* \"Learning.sol\":12660:12705  _hasRoleGivenByAdmin[_admin][_roles[_pauser]] */\n      0x03\n      dup2\n      gt\n      iszero\n      tag_177\n      jumpi\n      tag_178\n      tag_145\n      jump\t// in\n    tag_178:\n    tag_177:\n      0x03\n      dup2\n      gt\n      iszero\n      tag_179\n      jumpi\n      tag_180\n      tag_145\n      jump\t// in\n    tag_180:\n    tag_179:\n      dup2\n      mstore\n      0x20\n      add\n      swap1\n      dup2\n      mstore\n      0x20\n      add\n      0x00\n      keccak256\n      0x00\n        /* \"Learning.sol\":12660:12712  _hasRoleGivenByAdmin[_admin][_roles[_pauser]] = true */\n      0x0100\n      exp\n      dup2\n      sload\n      dup2\n      0xff\n      mul\n      not\n      and\n      swap1\n      dup4\n      iszero\n      iszero\n      mul\n      or\n      swap1\n      sstore\n      pop\n        /* \"Learning.sol\":12752:12756  true */\n      0x01\n        /* \"Learning.sol\":12717:12730  _userRoleData */\n      0x05\n        /* \"Learning.sol\":12717:12739  _userRoleData[_pauser] */\n      0x00\n        /* \"Learning.sol\":12731:12738  _pauser */\n      dup10\n        /* \"Learning.sol\":12717:12739  _userRoleData[_pauser] */\n      0xffffffffffffffffffffffffffffffffffffffff\n      and\n      0xffffffffffffffffffffffffffffffffffffffff\n      and\n      dup2\n      mstore\n      0x20\n      add\n      swap1\n      dup2\n      mstore\n      0x20\n      add\n      0x00\n      keccak256\n        /* \"Learning.sol\":12717:12749  _userRoleData[_pauser].isGranted */\n      0x00\n      add\n      0x14\n        /* \"Learning.sol\":12717:12756  _userRoleData[_pauser].isGranted = true */\n      0x0100\n      exp\n      dup2\n      sload\n      dup2\n      0xff\n      mul\n      not\n      and\n      swap1\n      dup4\n      iszero\n      iszero\n      mul\n      or\n      swap1\n      sstore\n      pop\n        /* \"Learning.sol\":12761:12803  _userRoleData[_pauser].roleName = \"Pauser\" */\n      mload(0x40)\n      dup1\n      0x40\n      add\n      0x40\n      mstore\n      dup1\n      0x06\n      dup2\n      mstore\n      0x20\n      add\n      0x5061757365720000000000000000000000000000000000000000000000000000\n      dup2\n      mstore\n      pop\n        /* \"Learning.sol\":12761:12774  _userRoleData */\n      0x05\n        /* \"Learning.sol\":12761:12783  _userRoleData[_pauser] */\n      0x00\n        /* \"Learning.sol\":12775:12782  _pauser */\n      dup10\n        /* \"Learning.sol\":12761:12783  _userRoleData[_pauser] */\n      0xffffffffffffffffffffffffffffffffffffffff\n      and\n      0xffffffffffffffffffffffffffffffffffffffff\n      and\n      dup2\n      mstore\n      0x20\n      add\n      swap1\n      dup2\n      mstore\n      0x20\n      add\n      0x00\n      keccak256\n        /* \"Learning.sol\":12761:12792  _userRoleData[_pauser].roleName */\n      0x01\n      add\n        /* \"Learning.sol\":12761:12803  _userRoleData[_pauser].roleName = \"Pauser\" */\n      swap1\n      dup2\n      tag_181\n      swap2\n      swap1\n      tag_127\n      jump\t// in\n    tag_181:\n      pop\n        /* \"Learning.sol\":12842:12847  role1 */\n      dup6\n        /* \"Learning.sol\":12808:12821  _userRoleData */\n      0x05\n        /* \"Learning.sol\":12808:12830  _userRoleData[_pauser] */\n      0x00\n        /* \"Learning.sol\":12822:12829  _pauser */\n      dup10\n        /* \"Learning.sol\":12808:12830  _userRoleData[_pauser] */\n      0xffffffffffffffffffffffffffffffffffffffff\n      and\n      0xffffffffffffffffffffffffffffffffffffffff\n      and\n      dup2\n      mstore\n      0x20\n      add\n      swap1\n      dup2\n      mstore\n      0x20\n      add\n      0x00\n      keccak256\n        /* \"Learning.sol\":12808:12839  _userRoleData[_pauser].roleType */\n      0x00\n      add\n      0x16\n        /* \"Learning.sol\":12808:12847  _userRoleData[_pauser].roleType = role1 */\n      0x0100\n      exp\n      dup2\n      sload\n      dup2\n      0xff\n      mul\n      not\n      and\n      swap1\n      dup4\n      0x03\n      dup2\n      gt\n      iszero\n      tag_182\n      jumpi\n      tag_183\n      tag_145\n      jump\t// in\n    tag_183:\n    tag_182:\n      mul\n      or\n      swap1\n      sstore\n      pop\n        /* \"Learning.sol\":12861:12874  _userRoleData */\n      0x05\n        /* \"Learning.sol\":12861:12883  _userRoleData[_pauser] */\n      0x00\n        /* \"Learning.sol\":12875:12882  _pauser */\n      dup9\n        /* \"Learning.sol\":12861:12883  _userRoleData[_pauser] */\n      0xffffffffffffffffffffffffffffffffffffffff\n      and\n      0xffffffffffffffffffffffffffffffffffffffff\n      and\n      dup2\n      mstore\n      0x20\n      add\n      swap1\n      dup2\n      mstore\n      0x20\n      add\n      0x00\n      keccak256\n        /* \"Learning.sol\":12861:12888  _userRoleData[_pauser].user */\n      0x00\n      add\n      0x00\n      swap1\n      sload\n      swap1\n      0x0100\n      exp\n      swap1\n      div\n      0xffffffffffffffffffffffffffffffffffffffff\n      and\n        /* \"Learning.sol\":12890:12903  _userRoleData */\n      0x05\n        /* \"Learning.sol\":12890:12912  _userRoleData[_pauser] */\n      0x00\n        /* \"Learning.sol\":12904:12911  _pauser */\n      dup10\n        /* \"Learning.sol\":12890:12912  _userRoleData[_pauser] */\n      0xffffffffffffffffffffffffffffffffffffffff\n      and\n      0xffffffffffffffffffffffffffffffffffffffff\n      and\n      dup2\n      mstore\n      0x20\n      add\n      swap1\n      dup2\n      mstore\n      0x20\n      add\n      0x00\n      keccak256\n        /* \"Learning.sol\":12890:12921  _userRoleData[_pauser].roleType */\n      0x00\n      add\n      0x16\n      swap1\n      sload\n      swap1\n      0x0100\n      exp\n      swap1\n      div\n      0xff\n      and\n        /* \"Learning.sol\":12922:12942  _hasRoleGivenByAdmin */\n      0x03\n        /* \"Learning.sol\":12922:12950  _hasRoleGivenByAdmin[_admin] */\n      0x00\n        /* \"Learning.sol\":12943:12949  _admin */\n      dup12\n        /* \"Learning.sol\":12922:12950  _hasRoleGivenByAdmin[_admin] */\n      0xffffffffffffffffffffffffffffffffffffffff\n      and\n      0xffffffffffffffffffffffffffffffffffffffff\n      and\n      dup2\n      mstore\n      0x20\n      add\n      swap1\n      dup2\n      mstore\n      0x20\n      add\n      0x00\n      keccak256\n        /* \"Learning.sol\":12922:12967  _hasRoleGivenByAdmin[_admin][_roles[_pauser]] */\n      0x00\n        /* \"Learning.sol\":12951:12957  _roles */\n      0x04\n        /* \"Learning.sol\":12951:12966  _roles[_pauser] */\n      0x00\n        /* \"Learning.sol\":12958:12965  _pauser */\n      dup13\n        /* \"Learning.sol\":12951:12966  _roles[_pauser] */\n      0xffffffffffffffffffffffffffffffffffffffff\n      and\n      0xffffffffffffffffffffffffffffffffffffffff\n      and\n      dup2\n      mstore\n      0x20\n      add\n      swap1\n      dup2\n      mstore\n      0x20\n      add\n      0x00\n      keccak256\n      0x00\n      swap1\n      sload\n      swap1\n      0x0100\n      exp\n      swap1\n      div\n      0xff\n      and\n        /* \"Learning.sol\":12922:12967  _hasRoleGivenByAdmin[_admin][_roles[_pauser]] */\n      0x03\n      dup2\n      gt\n      iszero\n      tag_184\n      jumpi\n      tag_185\n      tag_145\n      jump\t// in\n    tag_185:\n    tag_184:\n      0x03\n      dup2\n      gt\n      iszero\n      tag_186\n      jumpi\n      tag_187\n      tag_145\n      jump\t// in\n    tag_187:\n    tag_186:\n      dup2\n      mstore\n      0x20\n      add\n      swap1\n      dup2\n      mstore\n      0x20\n      add\n      0x00\n      keccak256\n      0x00\n      swap1\n      sload\n      swap1\n      0x0100\n      exp\n      swap1\n      div\n      0xff\n      and\n        /* \"Learning.sol\":12853:12968  return (_userRoleData[_pauser].user ,_userRoleData[_pauser].roleType,_hasRoleGivenByAdmin[_admin][_roles[_pauser]]) */\n      swap5\n      pop\n      swap5\n      pop\n      swap5\n      pop\n        /* \"Learning.sol\":11580:13114  function grantRole(address _admin,address _pauser, Role role1 ) ... */\n      pop\n      pop\n      swap4\n      pop\n      swap4\n      pop\n      swap4\n      swap1\n      pop\n      jump\t// out\n        /* \"Learning.sol\":23140:23210  function approveOrder() external {... */\n    tag_63:\n        /* \"Learning.sol\":23192:23207  Status.Approved */\n      0x01\n        /* \"Learning.sol\":23177:23182  order */\n      0x0a\n        /* \"Learning.sol\":23177:23189  order.status */\n      0x01\n      add\n      0x00\n        /* \"Learning.sol\":23177:23207  order.status = Status.Approved */\n      0x0100\n      exp\n      dup2\n      sload\n      dup2\n      0xff\n      mul\n      not\n      and\n      swap1\n      dup4\n      0x02\n      dup2\n      gt\n      iszero\n      tag_189\n      jumpi\n      tag_190\n      tag_145\n      jump\t// in\n    tag_190:\n    tag_189:\n      mul\n      or\n      swap1\n      sstore\n      pop\n        /* \"Learning.sol\":23140:23210  function approveOrder() external {... */\n      jump\t// out\n        /* \"Learning.sol\":11006:11199  function getAdmin99(address _admin) public view returns(Role,address,bool,string memory) {... */\n    tag_66:\n        /* \"Learning.sol\":11062:11066  Role */\n      0x00\n        /* \"Learning.sol\":11067:11074  address */\n      0x00\n        /* \"Learning.sol\":11075:11079  bool */\n      0x00\n        /* \"Learning.sol\":11080:11093  string memory */\n      0x60\n        /* \"Learning.sol\":11108:11114  _roles */\n      0x04\n        /* \"Learning.sol\":11108:11122  _roles[_admin] */\n      0x00\n        /* \"Learning.sol\":11115:11121  _admin */\n      dup7\n        /* \"Learning.sol\":11108:11122  _roles[_admin] */\n      0xffffffffffffffffffffffffffffffffffffffff\n      and\n      0xffffffffffffffffffffffffffffffffffffffff\n      and\n      dup2\n      mstore\n      0x20\n      add\n      swap1\n      dup2\n      mstore\n      0x20\n      add\n      0x00\n      keccak256\n      0x00\n      swap1\n      sload\n      swap1\n      0x0100\n      exp\n      swap1\n      div\n      0xff\n      and\n        /* \"Learning.sol\":11125:11131  _admin */\n      dup6\n        /* \"Learning.sol\":11133:11153  _hasRoleGivenByAdmin */\n      0x03\n        /* \"Learning.sol\":11133:11161  _hasRoleGivenByAdmin[_admin] */\n      0x00\n        /* \"Learning.sol\":11154:11160  _admin */\n      dup9\n        /* \"Learning.sol\":11133:11161  _hasRoleGivenByAdmin[_admin] */\n      0xffffffffffffffffffffffffffffffffffffffff\n      and\n      0xffffffffffffffffffffffffffffffffffffffff\n      and\n      dup2\n      mstore\n      0x20\n      add\n      swap1\n      dup2\n      mstore\n      0x20\n      add\n      0x00\n      keccak256\n        /* \"Learning.sol\":11133:11177  _hasRoleGivenByAdmin[_admin][_roles[_admin]] */\n      0x00\n        /* \"Learning.sol\":11162:11168  _roles */\n      0x04\n        /* \"Learning.sol\":11162:11176  _roles[_admin] */\n      0x00\n        /* \"Learning.sol\":11169:11175  _admin */\n      dup11\n        /* \"Learning.sol\":11162:11176  _roles[_admin] */\n      0xffffffffffffffffffffffffffffffffffffffff\n      and\n      0xffffffffffffffffffffffffffffffffffffffff\n      and\n      dup2\n      mstore\n      0x20\n      add\n      swap1\n      dup2\n      mstore\n      0x20\n      add\n      0x00\n      keccak256\n      0x00\n      swap1\n      sload\n      swap1\n      0x0100\n      exp\n      swap1\n      div\n      0xff\n      and\n        /* \"Learning.sol\":11133:11177  _hasRoleGivenByAdmin[_admin][_roles[_admin]] */\n      0x03\n      dup2\n      gt\n      iszero\n      tag_192\n      jumpi\n      tag_193\n      tag_145\n      jump\t// in\n    tag_193:\n    tag_192:\n      0x03\n      dup2\n      gt\n      iszero\n      tag_194\n      jumpi\n      tag_195\n      tag_145\n      jump\t// in\n    tag_195:\n    tag_194:\n      dup2\n      mstore\n      0x20\n      add\n      swap1\n      dup2\n      mstore\n      0x20\n      add\n      0x00\n      keccak256\n      0x00\n      swap1\n      sload\n      swap1\n      0x0100\n      exp\n      swap1\n      div\n      0xff\n      and\n        /* \"Learning.sol\":11178:11186  roledata */\n      0x00\n        /* \"Learning.sol\":11178:11195  roledata.roleName */\n      0x01\n      add\n        /* \"Learning.sol\":11099:11196  return  (_roles[_admin] , _admin, _hasRoleGivenByAdmin[_admin][_roles[_admin]],roledata.roleName) */\n      dup1\n      dup1\n      sload\n      tag_196\n      swap1\n      tag_130\n      jump\t// in\n    tag_196:\n      dup1\n      0x1f\n      add\n      0x20\n      dup1\n      swap2\n      div\n      mul\n      0x20\n      add\n      mload(0x40)\n      swap1\n      dup2\n      add\n      0x40\n      mstore\n      dup1\n      swap3\n      swap2\n      swap1\n      dup2\n      dup2\n      mstore\n      0x20\n      add\n      dup3\n      dup1\n      sload\n      tag_197\n      swap1\n      tag_130\n      jump\t// in\n    tag_197:\n      dup1\n      iszero\n      tag_198\n      jumpi\n      dup1\n      0x1f\n      lt\n      tag_199\n      jumpi\n      0x0100\n      dup1\n      dup4\n      sload\n      div\n      mul\n      dup4\n      mstore\n      swap2\n      0x20\n      add\n      swap2\n      jump(tag_198)\n    tag_199:\n      dup3\n      add\n      swap2\n      swap1\n      0x00\n      mstore\n      keccak256(0x00, 0x20)\n      swap1\n    tag_200:\n      dup2\n      sload\n      dup2\n      mstore\n      swap1\n      0x01\n      add\n      swap1\n      0x20\n      add\n      dup1\n      dup4\n      gt\n      tag_200\n      jumpi\n      dup3\n      swap1\n      sub\n      0x1f\n      and\n      dup3\n      add\n      swap2\n    tag_198:\n      pop\n      pop\n      pop\n      pop\n      pop\n      swap1\n      pop\n      swap4\n      pop\n      swap4\n      pop\n      swap4\n      pop\n      swap4\n      pop\n        /* \"Learning.sol\":11006:11199  function getAdmin99(address _admin) public view returns(Role,address,bool,string memory) {... */\n      swap2\n      swap4\n      pop\n      swap2\n      swap4\n      jump\t// out\n        /* \"Learning.sol\":23300:23376  function getStatus() external view returns(Status){... */\n    tag_70:\n        /* \"Learning.sol\":23343:23349  Status */\n      0x00\n        /* \"Learning.sol\":23361:23366  order */\n      0x0a\n        /* \"Learning.sol\":23361:23373  order.status */\n      0x01\n      add\n      0x00\n      swap1\n      sload\n      swap1\n      0x0100\n      exp\n      swap1\n      div\n      0xff\n      and\n        /* \"Learning.sol\":23354:23373  return order.status */\n      swap1\n      pop\n        /* \"Learning.sol\":23300:23376  function getStatus() external view returns(Status){... */\n      swap1\n      jump\t// out\n        /* \"Learning.sol\":23212:23298  function getStatusInt() external view returns(uint){... */\n    tag_74:\n        /* \"Learning.sol\":23258:23262  uint */\n      0x00\n        /* \"Learning.sol\":23279:23294  Status.Approved */\n      0x01\n        /* \"Learning.sol\":23274:23295  uint(Status.Approved) */\n      0x02\n      dup2\n      gt\n      iszero\n      tag_203\n      jumpi\n      tag_204\n      tag_145\n      jump\t// in\n    tag_204:\n    tag_203:\n        /* \"Learning.sol\":23267:23295  return uint(Status.Approved) */\n      swap1\n      pop\n        /* \"Learning.sol\":23212:23298  function getStatusInt() external view returns(uint){... */\n      swap1\n      jump\t// out\n        /* \"Learning.sol\":8281:8322  mapping(address => bool) public _checkole */\n    tag_78:\n      mstore(0x20, 0x02)\n      dup1\n      0x00\n      mstore\n      keccak256(0x00, 0x40)\n      0x00\n      swap2\n      pop\n      sload\n      swap1\n      0x0100\n      exp\n      swap1\n      div\n      0xff\n      and\n      dup2\n      jump\t// out\n        /* \"Learning.sol\":21611:21645  mapping(uint => Task) public tasks */\n    tag_82:\n      mstore(0x20, 0x08)\n      dup1\n      0x00\n      mstore\n      keccak256(0x00, 0x40)\n      0x00\n      swap2\n      pop\n      swap1\n      pop\n      dup1\n      0x00\n      add\n      dup1\n      sload\n      tag_205\n      swap1\n      tag_130\n      jump\t// in\n    tag_205:\n      dup1\n      0x1f\n      add\n      0x20\n      dup1\n      swap2\n      div\n      mul\n      0x20\n      add\n      mload(0x40)\n      swap1\n      dup2\n      add\n      0x40\n      mstore\n      dup1\n      swap3\n      swap2\n      swap1\n      dup2\n      dup2\n      mstore\n      0x20\n      add\n      dup3\n      dup1\n      sload\n      tag_206\n      swap1\n      tag_130\n      jump\t// in\n    tag_206:\n      dup1\n      iszero\n      tag_207\n      jumpi\n      dup1\n      0x1f\n      lt\n      tag_208\n      jumpi\n      0x0100\n      dup1\n      dup4\n      sload\n      div\n      mul\n      dup4\n      mstore\n      swap2\n      0x20\n      add\n      swap2\n      jump(tag_207)\n    tag_208:\n      dup3\n      add\n      swap2\n      swap1\n      0x00\n      mstore\n      keccak256(0x00, 0x20)\n      swap1\n    tag_209:\n      dup2\n      sload\n      dup2\n      mstore\n      swap1\n      0x01\n      add\n      swap1\n      0x20\n      add\n      dup1\n      dup4\n      gt\n      tag_209\n      jumpi\n      dup3\n      swap1\n      sub\n      0x1f\n      and\n      dup3\n      add\n      swap2\n    tag_207:\n      pop\n      pop\n      pop\n      pop\n      pop\n      swap1\n      pop\n      dup2\n      jump\t// out\n        /* \"Learning.sol\":20293:20827  function checkRole(address _user) public view returns(address, bool,bool,Role,string memory ) {... */\n    tag_86:\n        /* \"Learning.sol\":20347:20354  address */\n      0x00\n        /* \"Learning.sol\":20356:20360  bool */\n      0x00\n        /* \"Learning.sol\":20361:20365  bool */\n      0x00\n        /* \"Learning.sol\":20366:20370  Role */\n      0x00\n        /* \"Learning.sol\":20371:20384  string memory */\n      0x60\n        /* \"Learning.sol\":20397:20406  _checkole */\n      0x02\n        /* \"Learning.sol\":20397:20413  _checkole[_user] */\n      0x00\n        /* \"Learning.sol\":20407:20412  _user */\n      dup8\n        /* \"Learning.sol\":20397:20413  _checkole[_user] */\n      0xffffffffffffffffffffffffffffffffffffffff\n      and\n      0xffffffffffffffffffffffffffffffffffffffff\n      and\n      dup2\n      mstore\n      0x20\n      add\n      swap1\n      dup2\n      mstore\n      0x20\n      add\n      0x00\n      keccak256\n      0x00\n      swap1\n      sload\n      swap1\n      0x0100\n      exp\n      swap1\n      div\n      0xff\n      and\n        /* \"Learning.sol\":20393:20825  if (_checkole[_user]) {... */\n      iszero\n      tag_211\n      jumpi\n        /* \"Learning.sol\":20431:20444  _userRoleData */\n      0x05\n        /* \"Learning.sol\":20431:20451  _userRoleData[_user] */\n      0x00\n        /* \"Learning.sol\":20445:20450  _user */\n      dup8\n        /* \"Learning.sol\":20431:20451  _userRoleData[_user] */\n      0xffffffffffffffffffffffffffffffffffffffff\n      and\n      0xffffffffffffffffffffffffffffffffffffffff\n      and\n      dup2\n      mstore\n      0x20\n      add\n      swap1\n      dup2\n      mstore\n      0x20\n      add\n      0x00\n      keccak256\n        /* \"Learning.sol\":20431:20456  _userRoleData[_user].user */\n      0x00\n      add\n      0x00\n      swap1\n      sload\n      swap1\n      0x0100\n      exp\n      swap1\n      div\n      0xffffffffffffffffffffffffffffffffffffffff\n      and\n        /* \"Learning.sol\":20457:20470  _userRoleData */\n      0x05\n        /* \"Learning.sol\":20457:20477  _userRoleData[_user] */\n      0x00\n        /* \"Learning.sol\":20471:20476  _user */\n      dup9\n        /* \"Learning.sol\":20457:20477  _userRoleData[_user] */\n      0xffffffffffffffffffffffffffffffffffffffff\n      and\n      0xffffffffffffffffffffffffffffffffffffffff\n      and\n      dup2\n      mstore\n      0x20\n      add\n      swap1\n      dup2\n      mstore\n      0x20\n      add\n      0x00\n      keccak256\n        /* \"Learning.sol\":20457:20487  _userRoleData[_user].isGranted */\n      0x00\n      add\n      0x14\n      swap1\n      sload\n      swap1\n      0x0100\n      exp\n      swap1\n      div\n      0xff\n      and\n        /* \"Learning.sol\":20497:20517  _hasRoleGivenByAdmin */\n      0x03\n        /* \"Learning.sol\":20497:20524  _hasRoleGivenByAdmin[_user] */\n      0x00\n        /* \"Learning.sol\":20518:20523  _user */\n      dup10\n        /* \"Learning.sol\":20497:20524  _hasRoleGivenByAdmin[_user] */\n      0xffffffffffffffffffffffffffffffffffffffff\n      and\n      0xffffffffffffffffffffffffffffffffffffffff\n      and\n      dup2\n      mstore\n      0x20\n      add\n      swap1\n      dup2\n      mstore\n      0x20\n      add\n      0x00\n      keccak256\n        /* \"Learning.sol\":20497:20539  _hasRoleGivenByAdmin[_user][_roles[_user]] */\n      0x00\n        /* \"Learning.sol\":20525:20531  _roles */\n      0x04\n        /* \"Learning.sol\":20525:20538  _roles[_user] */\n      0x00\n        /* \"Learning.sol\":20532:20537  _user */\n      dup12\n        /* \"Learning.sol\":20525:20538  _roles[_user] */\n      0xffffffffffffffffffffffffffffffffffffffff\n      and\n      0xffffffffffffffffffffffffffffffffffffffff\n      and\n      dup2\n      mstore\n      0x20\n      add\n      swap1\n      dup2\n      mstore\n      0x20\n      add\n      0x00\n      keccak256\n      0x00\n      swap1\n      sload\n      swap1\n      0x0100\n      exp\n      swap1\n      div\n      0xff\n      and\n        /* \"Learning.sol\":20497:20539  _hasRoleGivenByAdmin[_user][_roles[_user]] */\n      0x03\n      dup2\n      gt\n      iszero\n      tag_212\n      jumpi\n      tag_213\n      tag_145\n      jump\t// in\n    tag_213:\n    tag_212:\n      0x03\n      dup2\n      gt\n      iszero\n      tag_214\n      jumpi\n      tag_215\n      tag_145\n      jump\t// in\n    tag_215:\n    tag_214:\n      dup2\n      mstore\n      0x20\n      add\n      swap1\n      dup2\n      mstore\n      0x20\n      add\n      0x00\n      keccak256\n      0x00\n      swap1\n      sload\n      swap1\n      0x0100\n      exp\n      swap1\n      div\n      0xff\n      and\n        /* \"Learning.sol\":20548:20561  _userRoleData */\n      0x05\n        /* \"Learning.sol\":20548:20568  _userRoleData[_user] */\n      0x00\n        /* \"Learning.sol\":20562:20567  _user */\n      dup11\n        /* \"Learning.sol\":20548:20568  _userRoleData[_user] */\n      0xffffffffffffffffffffffffffffffffffffffff\n      and\n      0xffffffffffffffffffffffffffffffffffffffff\n      and\n      dup2\n      mstore\n      0x20\n      add\n      swap1\n      dup2\n      mstore\n      0x20\n      add\n      0x00\n      keccak256\n        /* \"Learning.sol\":20548:20577  _userRoleData[_user].roleType */\n      0x00\n      add\n      0x16\n      swap1\n      sload\n      swap1\n      0x0100\n      exp\n      swap1\n      div\n      0xff\n      and\n        /* \"Learning.sol\":20580:20593  _userRoleData */\n      0x05\n        /* \"Learning.sol\":20580:20600  _userRoleData[_user] */\n      0x00\n        /* \"Learning.sol\":20594:20599  _user */\n      dup12\n        /* \"Learning.sol\":20580:20600  _userRoleData[_user] */\n      0xffffffffffffffffffffffffffffffffffffffff\n      and\n      0xffffffffffffffffffffffffffffffffffffffff\n      and\n      dup2\n      mstore\n      0x20\n      add\n      swap1\n      dup2\n      mstore\n      0x20\n      add\n      0x00\n      keccak256\n        /* \"Learning.sol\":20580:20609  _userRoleData[_user].roleName */\n      0x01\n      add\n        /* \"Learning.sol\":20423:20610  return (_userRoleData[_user].user,_userRoleData[_user].isGranted ,... */\n      dup1\n      dup1\n      sload\n      tag_216\n      swap1\n      tag_130\n      jump\t// in\n    tag_216:\n      dup1\n      0x1f\n      add\n      0x20\n      dup1\n      swap2\n      div\n      mul\n      0x20\n      add\n      mload(0x40)\n      swap1\n      dup2\n      add\n      0x40\n      mstore\n      dup1\n      swap3\n      swap2\n      swap1\n      dup2\n      dup2\n      mstore\n      0x20\n      add\n      dup3\n      dup1\n      sload\n      tag_217\n      swap1\n      tag_130\n      jump\t// in\n    tag_217:\n      dup1\n      iszero\n      tag_218\n      jumpi\n      dup1\n      0x1f\n      lt\n      tag_219\n      jumpi\n      0x0100\n      dup1\n      dup4\n      sload\n      div\n      mul\n      dup4\n      mstore\n      swap2\n      0x20\n      add\n      swap2\n      jump(tag_218)\n    tag_219:\n      dup3\n      add\n      swap2\n      swap1\n      0x00\n      mstore\n      keccak256(0x00, 0x20)\n      swap1\n    tag_220:\n      dup2\n      sload\n      dup2\n      mstore\n      swap1\n      0x01\n      add\n      swap1\n      0x20\n      add\n      dup1\n      dup4\n      gt\n      tag_220\n      jumpi\n      dup3\n      swap1\n      sub\n      0x1f\n      and\n      dup3\n      add\n      swap2\n    tag_218:\n      pop\n      pop\n      pop\n      pop\n      pop\n      swap1\n      pop\n      swap5\n      pop\n      swap5\n      pop\n      swap5\n      pop\n      swap5\n      pop\n      swap5\n      pop\n      jump(tag_210)\n        /* \"Learning.sol\":20393:20825  if (_checkole[_user]) {... */\n    tag_211:\n        /* \"Learning.sol\":20639:20652  _userRoleData */\n      0x05\n        /* \"Learning.sol\":20639:20659  _userRoleData[_user] */\n      0x00\n        /* \"Learning.sol\":20653:20658  _user */\n      dup8\n        /* \"Learning.sol\":20639:20659  _userRoleData[_user] */\n      0xffffffffffffffffffffffffffffffffffffffff\n      and\n      0xffffffffffffffffffffffffffffffffffffffff\n      and\n      dup2\n      mstore\n      0x20\n      add\n      swap1\n      dup2\n      mstore\n      0x20\n      add\n      0x00\n      keccak256\n        /* \"Learning.sol\":20639:20664  _userRoleData[_user].user */\n      0x00\n      add\n      0x00\n      swap1\n      sload\n      swap1\n      0x0100\n      exp\n      swap1\n      div\n      0xffffffffffffffffffffffffffffffffffffffff\n      and\n        /* \"Learning.sol\":20665:20678  _userRoleData */\n      0x05\n        /* \"Learning.sol\":20665:20685  _userRoleData[_user] */\n      0x00\n        /* \"Learning.sol\":20679:20684  _user */\n      dup9\n        /* \"Learning.sol\":20665:20685  _userRoleData[_user] */\n      0xffffffffffffffffffffffffffffffffffffffff\n      and\n      0xffffffffffffffffffffffffffffffffffffffff\n      and\n      dup2\n      mstore\n      0x20\n      add\n      swap1\n      dup2\n      mstore\n      0x20\n      add\n      0x00\n      keccak256\n        /* \"Learning.sol\":20665:20695  _userRoleData[_user].isGranted */\n      0x00\n      add\n      0x14\n      swap1\n      sload\n      swap1\n      0x0100\n      exp\n      swap1\n      div\n      0xff\n      and\n        /* \"Learning.sol\":20705:20725  _hasRoleGivenByAdmin */\n      0x03\n        /* \"Learning.sol\":20705:20732  _hasRoleGivenByAdmin[_user] */\n      0x00\n        /* \"Learning.sol\":20726:20731  _user */\n      dup10\n        /* \"Learning.sol\":20705:20732  _hasRoleGivenByAdmin[_user] */\n      0xffffffffffffffffffffffffffffffffffffffff\n      and\n      0xffffffffffffffffffffffffffffffffffffffff\n      and\n      dup2\n      mstore\n      0x20\n      add\n      swap1\n      dup2\n      mstore\n      0x20\n      add\n      0x00\n      keccak256\n        /* \"Learning.sol\":20705:20747  _hasRoleGivenByAdmin[_user][_roles[_user]] */\n      0x00\n        /* \"Learning.sol\":20733:20739  _roles */\n      0x04\n        /* \"Learning.sol\":20733:20746  _roles[_user] */\n      0x00\n        /* \"Learning.sol\":20740:20745  _user */\n      dup12\n        /* \"Learning.sol\":20733:20746  _roles[_user] */\n      0xffffffffffffffffffffffffffffffffffffffff\n      and\n      0xffffffffffffffffffffffffffffffffffffffff\n      and\n      dup2\n      mstore\n      0x20\n      add\n      swap1\n      dup2\n      mstore\n      0x20\n      add\n      0x00\n      keccak256\n      0x00\n      swap1\n      sload\n      swap1\n      0x0100\n      exp\n      swap1\n      div\n      0xff\n      and\n        /* \"Learning.sol\":20705:20747  _hasRoleGivenByAdmin[_user][_roles[_user]] */\n      0x03\n      dup2\n      gt\n      iszero\n      tag_222\n      jumpi\n      tag_223\n      tag_145\n      jump\t// in\n    tag_223:\n    tag_222:\n      0x03\n      dup2\n      gt\n      iszero\n      tag_224\n      jumpi\n      tag_225\n      tag_145\n      jump\t// in\n    tag_225:\n    tag_224:\n      dup2\n      mstore\n      0x20\n      add\n      swap1\n      dup2\n      mstore\n      0x20\n      add\n      0x00\n      keccak256\n      0x00\n      swap1\n      sload\n      swap1\n      0x0100\n      exp\n      swap1\n      div\n      0xff\n      and\n        /* \"Learning.sol\":20756:20769  _userRoleData */\n      0x05\n        /* \"Learning.sol\":20756:20776  _userRoleData[_user] */\n      0x00\n        /* \"Learning.sol\":20770:20775  _user */\n      dup11\n        /* \"Learning.sol\":20756:20776  _userRoleData[_user] */\n      0xffffffffffffffffffffffffffffffffffffffff\n      and\n      0xffffffffffffffffffffffffffffffffffffffff\n      and\n      dup2\n      mstore\n      0x20\n      add\n      swap1\n      dup2\n      mstore\n      0x20\n      add\n      0x00\n      keccak256\n        /* \"Learning.sol\":20756:20785  _userRoleData[_user].roleType */\n      0x00\n      add\n      0x16\n      swap1\n      sload\n      swap1\n      0x0100\n      exp\n      swap1\n      div\n      0xff\n      and\n        /* \"Learning.sol\":20788:20801  _userRoleData */\n      0x05\n        /* \"Learning.sol\":20788:20808  _userRoleData[_user] */\n      0x00\n        /* \"Learning.sol\":20802:20807  _user */\n      dup12\n        /* \"Learning.sol\":20788:20808  _userRoleData[_user] */\n      0xffffffffffffffffffffffffffffffffffffffff\n      and\n      0xffffffffffffffffffffffffffffffffffffffff\n      and\n      dup2\n      mstore\n      0x20\n      add\n      swap1\n      dup2\n      mstore\n      0x20\n      add\n      0x00\n      keccak256\n        /* \"Learning.sol\":20788:20817  _userRoleData[_user].roleName */\n      0x01\n      add\n        /* \"Learning.sol\":20631:20818  return (_userRoleData[_user].user,_userRoleData[_user].isGranted ,... */\n      dup1\n      dup1\n      sload\n      tag_226\n      swap1\n      tag_130\n      jump\t// in\n    tag_226:\n      dup1\n      0x1f\n      add\n      0x20\n      dup1\n      swap2\n      div\n      mul\n      0x20\n      add\n      mload(0x40)\n      swap1\n      dup2\n      add\n      0x40\n      mstore\n      dup1\n      swap3\n      swap2\n      swap1\n      dup2\n      dup2\n      mstore\n      0x20\n      add\n      dup3\n      dup1\n      sload\n      tag_227\n      swap1\n      tag_130\n      jump\t// in\n    tag_227:\n      dup1\n      iszero\n      tag_228\n      jumpi\n      dup1\n      0x1f\n      lt\n      tag_229\n      jumpi\n      0x0100\n      dup1\n      dup4\n      sload\n      div\n      mul\n      dup4\n      mstore\n      swap2\n      0x20\n      add\n      swap2\n      jump(tag_228)\n    tag_229:\n      dup3\n      add\n      swap2\n      swap1\n      0x00\n      mstore\n      keccak256(0x00, 0x20)\n      swap1\n    tag_230:\n      dup2\n      sload\n      dup2\n      mstore\n      swap1\n      0x01\n      add\n      swap1\n      0x20\n      add\n      dup1\n      dup4\n      gt\n      tag_230\n      jumpi\n      dup3\n      swap1\n      sub\n      0x1f\n      and\n      dup3\n      add\n      swap2\n    tag_228:\n      pop\n      pop\n      pop\n      pop\n      pop\n      swap1\n      pop\n      swap5\n      pop\n      swap5\n      pop\n      swap5\n      pop\n      swap5\n      pop\n      swap5\n      pop\n        /* \"Learning.sol\":20293:20827  function checkRole(address _user) public view returns(address, bool,bool,Role,string memory ) {... */\n    tag_210:\n      swap2\n      swap4\n      swap6\n      swap1\n      swap3\n      swap5\n      pop\n      jump\t// out\n        /* \"Learning.sol\":18714:20125  function renouncePauserRole(address _pauser,Role role)... */\n    tag_91:\n        /* \"Learning.sol\":18811:18818  address */\n      0x00\n        /* \"Learning.sol\":18819:18823  Role */\n      0x00\n        /* \"Learning.sol\":18825:18829  bool */\n      0x00\n        /* \"Learning.sol\":18788:18795  _pauser */\n      dup5\n        /* \"Learning.sol\":18797:18801  role */\n      dup5\n        /* \"Learning.sol\":9267:9280  _userRoleData */\n      0x05\n        /* \"Learning.sol\":9267:9289  _userRoleData[_pauser] */\n      0x00\n        /* \"Learning.sol\":9281:9288  _pauser */\n      dup4\n        /* \"Learning.sol\":9267:9289  _userRoleData[_pauser] */\n      0xffffffffffffffffffffffffffffffffffffffff\n      and\n      0xffffffffffffffffffffffffffffffffffffffff\n      and\n      dup2\n      mstore\n      0x20\n      add\n      swap1\n      dup2\n      mstore\n      0x20\n      add\n      0x00\n      keccak256\n        /* \"Learning.sol\":9267:9298  _userRoleData[_pauser].roleType */\n      0x00\n      add\n      0x16\n      swap1\n      sload\n      swap1\n      0x0100\n      exp\n      swap1\n      div\n      0xff\n      and\n        /* \"Learning.sol\":9248:9298  _roles[_pauser] == _userRoleData[_pauser].roleType */\n      0x03\n      dup2\n      gt\n      iszero\n      tag_232\n      jumpi\n      tag_233\n      tag_145\n      jump\t// in\n    tag_233:\n    tag_232:\n        /* \"Learning.sol\":9248:9254  _roles */\n      0x04\n        /* \"Learning.sol\":9248:9263  _roles[_pauser] */\n      0x00\n        /* \"Learning.sol\":9255:9262  _pauser */\n      dup5\n        /* \"Learning.sol\":9248:9263  _roles[_pauser] */\n      0xffffffffffffffffffffffffffffffffffffffff\n      and\n      0xffffffffffffffffffffffffffffffffffffffff\n      and\n      dup2\n      mstore\n      0x20\n      add\n      swap1\n      dup2\n      mstore\n      0x20\n      add\n      0x00\n      keccak256\n      0x00\n      swap1\n      sload\n      swap1\n      0x0100\n      exp\n      swap1\n      div\n      0xff\n      and\n        /* \"Learning.sol\":9248:9298  _roles[_pauser] == _userRoleData[_pauser].roleType */\n      0x03\n      dup2\n      gt\n      iszero\n      tag_234\n      jumpi\n      tag_235\n      tag_145\n      jump\t// in\n    tag_235:\n    tag_234:\n      eq\n        /* \"Learning.sol\":9240:9324  require(_roles[_pauser] == _userRoleData[_pauser].roleType,\"Caller is not a pauser\") */\n      tag_236\n      jumpi\n      mload(0x40)\n      0x08c379a000000000000000000000000000000000000000000000000000000000\n      dup2\n      mstore\n      0x04\n      add\n      tag_237\n      swap1\n      tag_238\n      jump\t// in\n    tag_237:\n      mload(0x40)\n      dup1\n      swap2\n      sub\n      swap1\n      revert\n    tag_236:\n        /* \"Learning.sol\":9449:9458  _checkole */\n      0x02\n        /* \"Learning.sol\":9449:9467  _checkole[_pauser] */\n      0x00\n        /* \"Learning.sol\":9459:9466  _pauser */\n      dup4\n        /* \"Learning.sol\":9449:9467  _checkole[_pauser] */\n      0xffffffffffffffffffffffffffffffffffffffff\n      and\n      0xffffffffffffffffffffffffffffffffffffffff\n      and\n      dup2\n      mstore\n      0x20\n      add\n      swap1\n      dup2\n      mstore\n      0x20\n      add\n      0x00\n      keccak256\n      0x00\n      swap1\n      sload\n      swap1\n      0x0100\n      exp\n      swap1\n      div\n      0xff\n      and\n        /* \"Learning.sol\":9441:9520  require(_checkole[_pauser],\"Caller does not have pauser role granted by admin\") */\n      tag_239\n      jumpi\n      mload(0x40)\n      0x08c379a000000000000000000000000000000000000000000000000000000000\n      dup2\n      mstore\n      0x04\n      add\n      tag_240\n      swap1\n      tag_241\n      jump\t// in\n    tag_240:\n      mload(0x40)\n      dup1\n      swap2\n      sub\n      swap1\n      revert\n    tag_239:\n        /* \"Learning.sol\":19478:19482  true */\n      0x01\n        /* \"Learning.sol\":19442:19482  _userRoleData[_pauser].isGranted == true */\n      iszero\n      iszero\n        /* \"Learning.sol\":19442:19455  _userRoleData */\n      0x05\n        /* \"Learning.sol\":19442:19464  _userRoleData[_pauser] */\n      0x00\n        /* \"Learning.sol\":19456:19463  _pauser */\n      dup10\n        /* \"Learning.sol\":19442:19464  _userRoleData[_pauser] */\n      0xffffffffffffffffffffffffffffffffffffffff\n      and\n      0xffffffffffffffffffffffffffffffffffffffff\n      and\n      dup2\n      mstore\n      0x20\n      add\n      swap1\n      dup2\n      mstore\n      0x20\n      add\n      0x00\n      keccak256\n        /* \"Learning.sol\":19442:19474  _userRoleData[_pauser].isGranted */\n      0x00\n      add\n      0x14\n      swap1\n      sload\n      swap1\n      0x0100\n      exp\n      swap1\n      div\n      0xff\n      and\n        /* \"Learning.sol\":19442:19482  _userRoleData[_pauser].isGranted == true */\n      iszero\n      iszero\n      eq\n        /* \"Learning.sol\":19434:19524  require(_userRoleData[_pauser].isGranted == true,\"The pauser role has never been granted\") */\n      tag_243\n      jumpi\n      mload(0x40)\n      0x08c379a000000000000000000000000000000000000000000000000000000000\n      dup2\n      mstore\n      0x04\n      add\n      tag_244\n      swap1\n      tag_245\n      jump\t// in\n    tag_244:\n      mload(0x40)\n      dup1\n      swap2\n      sub\n      swap1\n      revert\n    tag_243:\n        /* \"Learning.sol\":19673:19678  false */\n      0x00\n        /* \"Learning.sol\":19637:19678  _userRoleData[_pauser].isRevoked == false */\n      iszero\n      iszero\n        /* \"Learning.sol\":19637:19650  _userRoleData */\n      0x05\n        /* \"Learning.sol\":19637:19659  _userRoleData[_pauser] */\n      0x00\n        /* \"Learning.sol\":19651:19658  _pauser */\n      dup10\n        /* \"Learning.sol\":19637:19659  _userRoleData[_pauser] */\n      0xffffffffffffffffffffffffffffffffffffffff\n      and\n      0xffffffffffffffffffffffffffffffffffffffff\n      and\n      dup2\n      mstore\n      0x20\n      add\n      swap1\n      dup2\n      mstore\n      0x20\n      add\n      0x00\n      keccak256\n        /* \"Learning.sol\":19637:19669  _userRoleData[_pauser].isRevoked */\n      0x00\n      add\n      0x15\n      swap1\n      sload\n      swap1\n      0x0100\n      exp\n      swap1\n      div\n      0xff\n      and\n        /* \"Learning.sol\":19637:19678  _userRoleData[_pauser].isRevoked == false */\n      iszero\n      iszero\n      eq\n        /* \"Learning.sol\":19629:19722  require(_userRoleData[_pauser].isRevoked == false,\"The pauser role has already been revoked\") */\n      tag_246\n      jumpi\n      mload(0x40)\n      0x08c379a000000000000000000000000000000000000000000000000000000000\n      dup2\n      mstore\n      0x04\n      add\n      tag_247\n      swap1\n      tag_248\n      jump\t// in\n    tag_247:\n      mload(0x40)\n      dup1\n      swap2\n      sub\n      swap1\n      revert\n    tag_246:\n        /* \"Learning.sol\":19800:19807  _pauser */\n      dup7\n        /* \"Learning.sol\":19770:19783  _userRoleData */\n      0x05\n        /* \"Learning.sol\":19770:19792  _userRoleData[_pauser] */\n      0x00\n        /* \"Learning.sol\":19784:19791  _pauser */\n      dup10\n        /* \"Learning.sol\":19770:19792  _userRoleData[_pauser] */\n      0xffffffffffffffffffffffffffffffffffffffff\n      and\n      0xffffffffffffffffffffffffffffffffffffffff\n      and\n      dup2\n      mstore\n      0x20\n      add\n      swap1\n      dup2\n      mstore\n      0x20\n      add\n      0x00\n      keccak256\n        /* \"Learning.sol\":19770:19797  _userRoleData[_pauser].user */\n      0x00\n      add\n      0x00\n        /* \"Learning.sol\":19770:19807  _userRoleData[_pauser].user = _pauser */\n      0x0100\n      exp\n      dup2\n      sload\n      dup2\n      0xffffffffffffffffffffffffffffffffffffffff\n      mul\n      not\n      and\n      swap1\n      dup4\n      0xffffffffffffffffffffffffffffffffffffffff\n      and\n      mul\n      or\n      swap1\n      sstore\n      pop\n        /* \"Learning.sol\":19837:19843  _roles */\n      0x04\n        /* \"Learning.sol\":19837:19852  _roles[_pauser] */\n      0x00\n        /* \"Learning.sol\":19844:19851  _pauser */\n      dup9\n        /* \"Learning.sol\":19837:19852  _roles[_pauser] */\n      0xffffffffffffffffffffffffffffffffffffffff\n      and\n      0xffffffffffffffffffffffffffffffffffffffff\n      and\n      dup2\n      mstore\n      0x20\n      add\n      swap1\n      dup2\n      mstore\n      0x20\n      add\n      0x00\n      keccak256\n      0x00\n        /* \"Learning.sol\":19830:19852  delete _roles[_pauser] */\n      0x0100\n      exp\n      dup2\n      sload\n      swap1\n      0xff\n      mul\n      not\n      and\n      swap1\n      sstore\n        /* \"Learning.sol\":19907:19912  false */\n      0x00\n        /* \"Learning.sol\":19858:19878  _hasRoleGivenByAdmin */\n      0x03\n        /* \"Learning.sol\":19858:19887  _hasRoleGivenByAdmin[_pauser] */\n      0x00\n        /* \"Learning.sol\":19879:19886  _pauser */\n      dup10\n        /* \"Learning.sol\":19858:19887  _hasRoleGivenByAdmin[_pauser] */\n      0xffffffffffffffffffffffffffffffffffffffff\n      and\n      0xffffffffffffffffffffffffffffffffffffffff\n      and\n      dup2\n      mstore\n      0x20\n      add\n      swap1\n      dup2\n      mstore\n      0x20\n      add\n      0x00\n      keccak256\n        /* \"Learning.sol\":19858:19904  _hasRoleGivenByAdmin[_pauser][_roles[_pauser]] */\n      0x00\n        /* \"Learning.sol\":19888:19894  _roles */\n      0x04\n        /* \"Learning.sol\":19888:19903  _roles[_pauser] */\n      0x00\n        /* \"Learning.sol\":19895:19902  _pauser */\n      dup12\n        /* \"Learning.sol\":19888:19903  _roles[_pauser] */\n      0xffffffffffffffffffffffffffffffffffffffff\n      and\n      0xffffffffffffffffffffffffffffffffffffffff\n      and\n      dup2\n      mstore\n      0x20\n      add\n      swap1\n      dup2\n      mstore\n      0x20\n      add\n      0x00\n      keccak256\n      0x00\n      swap1\n      sload\n      swap1\n      0x0100\n      exp\n      swap1\n      div\n      0xff\n      and\n        /* \"Learning.sol\":19858:19904  _hasRoleGivenByAdmin[_pauser][_roles[_pauser]] */\n      0x03\n      dup2\n      gt\n      iszero\n      tag_249\n      jumpi\n      tag_250\n      tag_145\n      jump\t// in\n    tag_250:\n    tag_249:\n      0x03\n      dup2\n      gt\n      iszero\n      tag_251\n      jumpi\n      tag_252\n      tag_145\n      jump\t// in\n    tag_252:\n    tag_251:\n      dup2\n      mstore\n      0x20\n      add\n      swap1\n      dup2\n      mstore\n      0x20\n      add\n      0x00\n      keccak256\n      0x00\n        /* \"Learning.sol\":19858:19912  _hasRoleGivenByAdmin[_pauser][_roles[_pauser]] = false */\n      0x0100\n      exp\n      dup2\n      sload\n      dup2\n      0xff\n      mul\n      not\n      and\n      swap1\n      dup4\n      iszero\n      iszero\n      mul\n      or\n      swap1\n      sstore\n      pop\n        /* \"Learning.sol\":19952:19957  false */\n      0x00\n        /* \"Learning.sol\":19917:19930  _userRoleData */\n      0x05\n        /* \"Learning.sol\":19917:19939  _userRoleData[_pauser] */\n      0x00\n        /* \"Learning.sol\":19931:19938  _pauser */\n      dup10\n        /* \"Learning.sol\":19917:19939  _userRoleData[_pauser] */\n      0xffffffffffffffffffffffffffffffffffffffff\n      and\n      0xffffffffffffffffffffffffffffffffffffffff\n      and\n      dup2\n      mstore\n      0x20\n      add\n      swap1\n      dup2\n      mstore\n      0x20\n      add\n      0x00\n      keccak256\n        /* \"Learning.sol\":19917:19949  _userRoleData[_pauser].isGranted */\n      0x00\n      add\n      0x14\n        /* \"Learning.sol\":19917:19957  _userRoleData[_pauser].isGranted = false */\n      0x0100\n      exp\n      dup2\n      sload\n      dup2\n      0xff\n      mul\n      not\n      and\n      swap1\n      dup4\n      iszero\n      iszero\n      mul\n      or\n      swap1\n      sstore\n      pop\n        /* \"Learning.sol\":19997:20001  true */\n      0x01\n        /* \"Learning.sol\":19962:19975  _userRoleData */\n      0x05\n        /* \"Learning.sol\":19962:19984  _userRoleData[_pauser] */\n      0x00\n        /* \"Learning.sol\":19976:19983  _pauser */\n      dup10\n        /* \"Learning.sol\":19962:19984  _userRoleData[_pauser] */\n      0xffffffffffffffffffffffffffffffffffffffff\n      and\n      0xffffffffffffffffffffffffffffffffffffffff\n      and\n      dup2\n      mstore\n      0x20\n      add\n      swap1\n      dup2\n      mstore\n      0x20\n      add\n      0x00\n      keccak256\n        /* \"Learning.sol\":19962:19994  _userRoleData[_pauser].isRevoked */\n      0x00\n      add\n      0x15\n        /* \"Learning.sol\":19962:20001  _userRoleData[_pauser].isRevoked = true */\n      0x0100\n      exp\n      dup2\n      sload\n      dup2\n      0xff\n      mul\n      not\n      and\n      swap1\n      dup4\n      iszero\n      iszero\n      mul\n      or\n      swap1\n      sstore\n      pop\n        /* \"Learning.sol\":20006:20046  _userRoleData[_pauser].roleName = \"None\" */\n      mload(0x40)\n      dup1\n      0x40\n      add\n      0x40\n      mstore\n      dup1\n      0x04\n      dup2\n      mstore\n      0x20\n      add\n      0x4e6f6e6500000000000000000000000000000000000000000000000000000000\n      dup2\n      mstore\n      pop\n        /* \"Learning.sol\":20006:20019  _userRoleData */\n      0x05\n        /* \"Learning.sol\":20006:20028  _userRoleData[_pauser] */\n      0x00\n        /* \"Learning.sol\":20020:20027  _pauser */\n      dup10\n        /* \"Learning.sol\":20006:20028  _userRoleData[_pauser] */\n      0xffffffffffffffffffffffffffffffffffffffff\n      and\n      0xffffffffffffffffffffffffffffffffffffffff\n      and\n      dup2\n      mstore\n      0x20\n      add\n      swap1\n      dup2\n      mstore\n      0x20\n      add\n      0x00\n      keccak256\n        /* \"Learning.sol\":20006:20037  _userRoleData[_pauser].roleName */\n      0x01\n      add\n        /* \"Learning.sol\":20006:20046  _userRoleData[_pauser].roleName = \"None\" */\n      swap1\n      dup2\n      tag_253\n      swap2\n      swap1\n      tag_127\n      jump\t// in\n    tag_253:\n      pop\n        /* \"Learning.sol\":20072:20077  false */\n      0x00\n        /* \"Learning.sol\":20051:20060  _checkole */\n      0x02\n        /* \"Learning.sol\":20051:20069  _checkole[_pauser] */\n      0x00\n        /* \"Learning.sol\":20061:20068  _pauser */\n      dup10\n        /* \"Learning.sol\":20051:20069  _checkole[_pauser] */\n      0xffffffffffffffffffffffffffffffffffffffff\n      and\n      0xffffffffffffffffffffffffffffffffffffffff\n      and\n      dup2\n      mstore\n      0x20\n      add\n      swap1\n      dup2\n      mstore\n      0x20\n      add\n      0x00\n      keccak256\n      0x00\n        /* \"Learning.sol\":20051:20077  _checkole[_pauser] = false */\n      0x0100\n      exp\n      dup2\n      sload\n      dup2\n      0xff\n      mul\n      not\n      and\n      swap1\n      dup4\n      iszero\n      iszero\n      mul\n      or\n      swap1\n      sstore\n      pop\n        /* \"Learning.sol\":20089:20102  _userRoleData */\n      0x05\n        /* \"Learning.sol\":20089:20111  _userRoleData[_pauser] */\n      0x00\n        /* \"Learning.sol\":20103:20110  _pauser */\n      dup9\n        /* \"Learning.sol\":20089:20111  _userRoleData[_pauser] */\n      0xffffffffffffffffffffffffffffffffffffffff\n      and\n      0xffffffffffffffffffffffffffffffffffffffff\n      and\n      dup2\n      mstore\n      0x20\n      add\n      swap1\n      dup2\n      mstore\n      0x20\n      add\n      0x00\n      keccak256\n        /* \"Learning.sol\":20089:20120  _userRoleData[_pauser].roleType */\n      0x00\n      add\n      0x16\n        /* \"Learning.sol\":20082:20120  delete _userRoleData[_pauser].roleType */\n      0x0100\n      exp\n      dup2\n      sload\n      swap1\n      0xff\n      mul\n      not\n      and\n      swap1\n      sstore\n        /* \"Learning.sol\":18714:20125  function renouncePauserRole(address _pauser,Role role)... */\n      pop\n      pop\n      swap3\n      pop\n      swap3\n      pop\n      swap3\n      jump\t// out\n        /* \"Learning.sol\":22649:22667  Order public order */\n    tag_94:\n      0x0a\n      dup1\n      0x00\n      add\n      sload\n      swap1\n      dup1\n      0x01\n      add\n      0x00\n      swap1\n      sload\n      swap1\n      0x0100\n      exp\n      swap1\n      div\n      0xff\n      and\n      swap1\n      pop\n      dup3\n      jump\t// out\n        /* \"Learning.sol\":9579:11004  function setAdmin99(address _admin, Role role) public ... */\n    tag_99:\n        /* \"Learning.sol\":9669:9676  address */\n      0x00\n        /* \"Learning.sol\":9677:9681  Role */\n      0x00\n        /* \"Learning.sol\":9682:9686  bool */\n      0x00\n        /* \"Learning.sol\":9711:9721  Role.Admin */\n      0x01\n        /* \"Learning.sol\":9703:9721  role == Role.Admin */\n      0x03\n      dup2\n      gt\n      iszero\n      tag_255\n      jumpi\n      tag_256\n      tag_145\n      jump\t// in\n    tag_256:\n    tag_255:\n        /* \"Learning.sol\":9703:9707  role */\n      dup5\n        /* \"Learning.sol\":9703:9721  role == Role.Admin */\n      0x03\n      dup2\n      gt\n      iszero\n      tag_257\n      jumpi\n      tag_258\n      tag_145\n      jump\t// in\n    tag_258:\n    tag_257:\n      eq\n        /* \"Learning.sol\":9695:9748  require(role == Role.Admin,\"Role must be admin only\") */\n      tag_259\n      jumpi\n      mload(0x40)\n      0x08c379a000000000000000000000000000000000000000000000000000000000\n      dup2\n      mstore\n      0x04\n      add\n      tag_260\n      swap1\n      tag_261\n      jump\t// in\n    tag_260:\n      mload(0x40)\n      dup1\n      swap2\n      sub\n      swap1\n      revert\n    tag_259:\n        /* \"Learning.sol\":9770:9781  Role.Minter */\n      0x02\n        /* \"Learning.sol\":9762:9781  role != Role.Minter */\n      0x03\n      dup2\n      gt\n      iszero\n      tag_262\n      jumpi\n      tag_263\n      tag_145\n      jump\t// in\n    tag_263:\n    tag_262:\n        /* \"Learning.sol\":9762:9766  role */\n      dup5\n        /* \"Learning.sol\":9762:9781  role != Role.Minter */\n      0x03\n      dup2\n      gt\n      iszero\n      tag_264\n      jumpi\n      tag_265\n      tag_145\n      jump\t// in\n    tag_265:\n    tag_264:\n      sub\n        /* \"Learning.sol\":9754:9822  require(role != Role.Minter,\"The role cannot be assigned as Minter\") */\n      tag_266\n      jumpi\n      mload(0x40)\n      0x08c379a000000000000000000000000000000000000000000000000000000000\n      dup2\n      mstore\n      0x04\n      add\n      tag_267\n      swap1\n      tag_268\n      jump\t// in\n    tag_267:\n      mload(0x40)\n      dup1\n      swap2\n      sub\n      swap1\n      revert\n    tag_266:\n        /* \"Learning.sol\":9844:9855  Role.Pauser */\n      0x03\n        /* \"Learning.sol\":9836:9855  role != Role.Pauser */\n      dup1\n      dup2\n      gt\n      iszero\n      tag_269\n      jumpi\n      tag_270\n      tag_145\n      jump\t// in\n    tag_270:\n    tag_269:\n        /* \"Learning.sol\":9836:9840  role */\n      dup5\n        /* \"Learning.sol\":9836:9855  role != Role.Pauser */\n      0x03\n      dup2\n      gt\n      iszero\n      tag_271\n      jumpi\n      tag_272\n      tag_145\n      jump\t// in\n    tag_272:\n    tag_271:\n      sub\n        /* \"Learning.sol\":9828:9896  require(role != Role.Pauser,\"The role cannot be assigned as Pauser\") */\n      tag_273\n      jumpi\n      mload(0x40)\n      0x08c379a000000000000000000000000000000000000000000000000000000000\n      dup2\n      mstore\n      0x04\n      add\n      tag_274\n      swap1\n      tag_275\n      jump\t// in\n    tag_274:\n      mload(0x40)\n      dup1\n      swap2\n      sub\n      swap1\n      revert\n    tag_273:\n        /* \"Learning.sol\":9944:9948  role */\n      dup4\n        /* \"Learning.sol\":9910:9948  _userRoleData[_admin].roleType != role */\n      0x03\n      dup2\n      gt\n      iszero\n      tag_276\n      jumpi\n      tag_277\n      tag_145\n      jump\t// in\n    tag_277:\n    tag_276:\n        /* \"Learning.sol\":9910:9923  _userRoleData */\n      0x05\n        /* \"Learning.sol\":9910:9931  _userRoleData[_admin] */\n      0x00\n        /* \"Learning.sol\":9924:9930  _admin */\n      dup8\n        /* \"Learning.sol\":9910:9931  _userRoleData[_admin] */\n      0xffffffffffffffffffffffffffffffffffffffff\n      and\n      0xffffffffffffffffffffffffffffffffffffffff\n      and\n      dup2\n      mstore\n      0x20\n      add\n      swap1\n      dup2\n      mstore\n      0x20\n      add\n      0x00\n      keccak256\n        /* \"Learning.sol\":9910:9940  _userRoleData[_admin].roleType */\n      0x00\n      add\n      0x16\n      swap1\n      sload\n      swap1\n      0x0100\n      exp\n      swap1\n      div\n      0xff\n      and\n        /* \"Learning.sol\":9910:9948  _userRoleData[_admin].roleType != role */\n      0x03\n      dup2\n      gt\n      iszero\n      tag_278\n      jumpi\n      tag_279\n      tag_145\n      jump\t// in\n    tag_279:\n    tag_278:\n      sub\n        /* \"Learning.sol\":9902:9987  require(_userRoleData[_admin].roleType != role,\"admin have an already assigned role\") */\n      tag_280\n      jumpi\n      mload(0x40)\n      0x08c379a000000000000000000000000000000000000000000000000000000000\n      dup2\n      mstore\n      0x04\n      add\n      tag_281\n      swap1\n      tag_282\n      jump\t// in\n    tag_281:\n      mload(0x40)\n      dup1\n      swap2\n      sub\n      swap1\n      revert\n    tag_280:\n        /* \"Learning.sol\":10115:10124  Role.None */\n      0x00\n        /* \"Learning.sol\":10107:10124  role >= Role.None */\n      0x03\n      dup2\n      gt\n      iszero\n      tag_283\n      jumpi\n      tag_284\n      tag_145\n      jump\t// in\n    tag_284:\n    tag_283:\n        /* \"Learning.sol\":10107:10111  role */\n      dup5\n        /* \"Learning.sol\":10107:10124  role >= Role.None */\n      0x03\n      dup2\n      gt\n      iszero\n      tag_285\n      jumpi\n      tag_286\n      tag_145\n      jump\t// in\n    tag_286:\n    tag_285:\n      lt\n      iszero\n        /* \"Learning.sol\":10107:10147  role >= Role.None && role <= Role.Pauser */\n      dup1\n      iszero\n      tag_287\n      jumpi\n      pop\n        /* \"Learning.sol\":10136:10147  Role.Pauser */\n      0x03\n        /* \"Learning.sol\":10128:10147  role <= Role.Pauser */\n      dup1\n      dup2\n      gt\n      iszero\n      tag_288\n      jumpi\n      tag_289\n      tag_145\n      jump\t// in\n    tag_289:\n    tag_288:\n        /* \"Learning.sol\":10128:10132  role */\n      dup5\n        /* \"Learning.sol\":10128:10147  role <= Role.Pauser */\n      0x03\n      dup2\n      gt\n      iszero\n      tag_290\n      jumpi\n      tag_291\n      tag_145\n      jump\t// in\n    tag_291:\n    tag_290:\n      gt\n      iszero\n        /* \"Learning.sol\":10107:10147  role >= Role.None && role <= Role.Pauser */\n    tag_287:\n        /* \"Learning.sol\":10099:10204  require(role >= Role.None && role <= Role.Pauser  ,\"There is No Role Type for this Type of role number\" ) */\n      tag_292\n      jumpi\n      mload(0x40)\n      0x08c379a000000000000000000000000000000000000000000000000000000000\n      dup2\n      mstore\n      0x04\n      add\n      tag_293\n      swap1\n      tag_294\n      jump\t// in\n    tag_293:\n      mload(0x40)\n      dup1\n      swap2\n      sub\n      swap1\n      revert\n    tag_292:\n        /* \"Learning.sol\":10255:10265  Role.Admin */\n      0x01\n        /* \"Learning.sol\":10247:10265  role == Role.Admin */\n      0x03\n      dup2\n      gt\n      iszero\n      tag_295\n      jumpi\n      tag_296\n      tag_145\n      jump\t// in\n    tag_296:\n    tag_295:\n        /* \"Learning.sol\":10247:10251  role */\n      dup5\n        /* \"Learning.sol\":10247:10265  role == Role.Admin */\n      0x03\n      dup2\n      gt\n      iszero\n      tag_297\n      jumpi\n      tag_298\n      tag_145\n      jump\t// in\n    tag_298:\n    tag_297:\n      sub\n        /* \"Learning.sol\":10243:10792  if (role == Role.Admin) {... */\n      tag_299\n      jumpi\n        /* \"Learning.sol\":10290:10294  role */\n      dup4\n        /* \"Learning.sol\":10273:10279  _roles */\n      0x04\n        /* \"Learning.sol\":10273:10287  _roles[_admin] */\n      0x00\n        /* \"Learning.sol\":10280:10286  _admin */\n      dup8\n        /* \"Learning.sol\":10273:10287  _roles[_admin] */\n      0xffffffffffffffffffffffffffffffffffffffff\n      and\n      0xffffffffffffffffffffffffffffffffffffffff\n      and\n      dup2\n      mstore\n      0x20\n      add\n      swap1\n      dup2\n      mstore\n      0x20\n      add\n      0x00\n      keccak256\n      0x00\n        /* \"Learning.sol\":10273:10294  _roles[_admin] = role */\n      0x0100\n      exp\n      dup2\n      sload\n      dup2\n      0xff\n      mul\n      not\n      and\n      swap1\n      dup4\n      0x03\n      dup2\n      gt\n      iszero\n      tag_300\n      jumpi\n      tag_301\n      tag_145\n      jump\t// in\n    tag_301:\n    tag_300:\n      mul\n      or\n      swap1\n      sstore\n      pop\n        /* \"Learning.sol\":10319:10323  true */\n      0x01\n        /* \"Learning.sol\":10299:10308  _checkole */\n      0x02\n        /* \"Learning.sol\":10299:10316  _checkole[_admin] */\n      0x00\n        /* \"Learning.sol\":10309:10315  _admin */\n      dup8\n        /* \"Learning.sol\":10299:10316  _checkole[_admin] */\n      0xffffffffffffffffffffffffffffffffffffffff\n      and\n      0xffffffffffffffffffffffffffffffffffffffff\n      and\n      dup2\n      mstore\n      0x20\n      add\n      swap1\n      dup2\n      mstore\n      0x20\n      add\n      0x00\n      keccak256\n      0x00\n        /* \"Learning.sol\":10299:10323  _checkole[_admin] = true */\n      0x0100\n      exp\n      dup2\n      sload\n      dup2\n      0xff\n      mul\n      not\n      and\n      swap1\n      dup4\n      iszero\n      iszero\n      mul\n      or\n      swap1\n      sstore\n      pop\n        /* \"Learning.sol\":10375:10379  true */\n      0x01\n        /* \"Learning.sol\":10328:10348  _hasRoleGivenByAdmin */\n      0x03\n        /* \"Learning.sol\":10328:10356  _hasRoleGivenByAdmin[_admin] */\n      0x00\n        /* \"Learning.sol\":10349:10355  _admin */\n      dup8\n        /* \"Learning.sol\":10328:10356  _hasRoleGivenByAdmin[_admin] */\n      0xffffffffffffffffffffffffffffffffffffffff\n      and\n      0xffffffffffffffffffffffffffffffffffffffff\n      and\n      dup2\n      mstore\n      0x20\n      add\n      swap1\n      dup2\n      mstore\n      0x20\n      add\n      0x00\n      keccak256\n        /* \"Learning.sol\":10328:10372  _hasRoleGivenByAdmin[_admin][_roles[_admin]] */\n      0x00\n        /* \"Learning.sol\":10357:10363  _roles */\n      0x04\n        /* \"Learning.sol\":10357:10371  _roles[_admin] */\n      0x00\n        /* \"Learning.sol\":10364:10370  _admin */\n      dup10\n        /* \"Learning.sol\":10357:10371  _roles[_admin] */\n      0xffffffffffffffffffffffffffffffffffffffff\n      and\n      0xffffffffffffffffffffffffffffffffffffffff\n      and\n      dup2\n      mstore\n      0x20\n      add\n      swap1\n      dup2\n      mstore\n      0x20\n      add\n      0x00\n      keccak256\n      0x00\n      swap1\n      sload\n      swap1\n      0x0100\n      exp\n      swap1\n      div\n      0xff\n      and\n        /* \"Learning.sol\":10328:10372  _hasRoleGivenByAdmin[_admin][_roles[_admin]] */\n      0x03\n      dup2\n      gt\n      iszero\n      tag_302\n      jumpi\n      tag_303\n      tag_145\n      jump\t// in\n    tag_303:\n    tag_302:\n      0x03\n      dup2\n      gt\n      iszero\n      tag_304\n      jumpi\n      tag_305\n      tag_145\n      jump\t// in\n    tag_305:\n    tag_304:\n      dup2\n      mstore\n      0x20\n      add\n      swap1\n      dup2\n      mstore\n      0x20\n      add\n      0x00\n      keccak256\n      0x00\n        /* \"Learning.sol\":10328:10379  _hasRoleGivenByAdmin[_admin][_roles[_admin]] = true */\n      0x0100\n      exp\n      dup2\n      sload\n      dup2\n      0xff\n      mul\n      not\n      and\n      swap1\n      dup4\n      iszero\n      iszero\n      mul\n      or\n      swap1\n      sstore\n      pop\n        /* \"Learning.sol\":10487:10491  true */\n      0x01\n        /* \"Learning.sol\":10453:10466  _userRoleData */\n      0x05\n        /* \"Learning.sol\":10453:10474  _userRoleData[_admin] */\n      0x00\n        /* \"Learning.sol\":10467:10473  _admin */\n      dup8\n        /* \"Learning.sol\":10453:10474  _userRoleData[_admin] */\n      0xffffffffffffffffffffffffffffffffffffffff\n      and\n      0xffffffffffffffffffffffffffffffffffffffff\n      and\n      dup2\n      mstore\n      0x20\n      add\n      swap1\n      dup2\n      mstore\n      0x20\n      add\n      0x00\n      keccak256\n        /* \"Learning.sol\":10453:10484  _userRoleData[_admin].isGranted */\n      0x00\n      add\n      0x14\n        /* \"Learning.sol\":10453:10491  _userRoleData[_admin].isGranted = true */\n      0x0100\n      exp\n      dup2\n      sload\n      dup2\n      0xff\n      mul\n      not\n      and\n      swap1\n      dup4\n      iszero\n      iszero\n      mul\n      or\n      swap1\n      sstore\n      pop\n        /* \"Learning.sol\":10496:10536  _userRoleData[_admin].roleName = \"Admin\" */\n      mload(0x40)\n      dup1\n      0x40\n      add\n      0x40\n      mstore\n      dup1\n      0x05\n      dup2\n      mstore\n      0x20\n      add\n      0x41646d696e000000000000000000000000000000000000000000000000000000\n      dup2\n      mstore\n      pop\n        /* \"Learning.sol\":10496:10509  _userRoleData */\n      0x05\n        /* \"Learning.sol\":10496:10517  _userRoleData[_admin] */\n      0x00\n        /* \"Learning.sol\":10510:10516  _admin */\n      dup8\n        /* \"Learning.sol\":10496:10517  _userRoleData[_admin] */\n      0xffffffffffffffffffffffffffffffffffffffff\n      and\n      0xffffffffffffffffffffffffffffffffffffffff\n      and\n      dup2\n      mstore\n      0x20\n      add\n      swap1\n      dup2\n      mstore\n      0x20\n      add\n      0x00\n      keccak256\n        /* \"Learning.sol\":10496:10526  _userRoleData[_admin].roleName */\n      0x01\n      add\n        /* \"Learning.sol\":10496:10536  _userRoleData[_admin].roleName = \"Admin\" */\n      swap1\n      dup2\n      tag_306\n      swap2\n      swap1\n      tag_127\n      jump\t// in\n    tag_306:\n      pop\n        /* \"Learning.sol\":10575:10579  role */\n      dup4\n        /* \"Learning.sol\":10541:10554  _userRoleData */\n      0x05\n        /* \"Learning.sol\":10541:10562  _userRoleData[_admin] */\n      0x00\n        /* \"Learning.sol\":10555:10561  _admin */\n      dup8\n        /* \"Learning.sol\":10541:10562  _userRoleData[_admin] */\n      0xffffffffffffffffffffffffffffffffffffffff\n      and\n      0xffffffffffffffffffffffffffffffffffffffff\n      and\n      dup2\n      mstore\n      0x20\n      add\n      swap1\n      dup2\n      mstore\n      0x20\n      add\n      0x00\n      keccak256\n        /* \"Learning.sol\":10541:10571  _userRoleData[_admin].roleType */\n      0x00\n      add\n      0x16\n        /* \"Learning.sol\":10541:10579  _userRoleData[_admin].roleType =  role */\n      0x0100\n      exp\n      dup2\n      sload\n      dup2\n      0xff\n      mul\n      not\n      and\n      swap1\n      dup4\n      0x03\n      dup2\n      gt\n      iszero\n      tag_307\n      jumpi\n      tag_308\n      tag_145\n      jump\t// in\n    tag_308:\n    tag_307:\n      mul\n      or\n      swap1\n      sstore\n      pop\n        /* \"Learning.sol\":10613:10619  _admin */\n      dup5\n        /* \"Learning.sol\":10584:10597  _userRoleData */\n      0x05\n        /* \"Learning.sol\":10584:10605  _userRoleData[_admin] */\n      0x00\n        /* \"Learning.sol\":10598:10604  _admin */\n      dup8\n        /* \"Learning.sol\":10584:10605  _userRoleData[_admin] */\n      0xffffffffffffffffffffffffffffffffffffffff\n      and\n      0xffffffffffffffffffffffffffffffffffffffff\n      and\n      dup2\n      mstore\n      0x20\n      add\n      swap1\n      dup2\n      mstore\n      0x20\n      add\n      0x00\n      keccak256\n        /* \"Learning.sol\":10584:10610  _userRoleData[_admin].user */\n      0x00\n      add\n      0x00\n        /* \"Learning.sol\":10584:10619  _userRoleData[_admin].user = _admin */\n      0x0100\n      exp\n      dup2\n      sload\n      dup2\n      0xffffffffffffffffffffffffffffffffffffffff\n      mul\n      not\n      and\n      swap1\n      dup4\n      0xffffffffffffffffffffffffffffffffffffffff\n      and\n      mul\n      or\n      swap1\n      sstore\n      pop\n        /* \"Learning.sol\":10243:10792  if (role == Role.Admin) {... */\n      jump(tag_309)\n    tag_299:\n        /* \"Learning.sol\":10683:10696  _userRoleData */\n      0x05\n        /* \"Learning.sol\":10683:10704  _userRoleData[_admin] */\n      0x00\n        /* \"Learning.sol\":10697:10703  _admin */\n      dup7\n        /* \"Learning.sol\":10683:10704  _userRoleData[_admin] */\n      0xffffffffffffffffffffffffffffffffffffffff\n      and\n      0xffffffffffffffffffffffffffffffffffffffff\n      and\n      dup2\n      mstore\n      0x20\n      add\n      swap1\n      dup2\n      mstore\n      0x20\n      add\n      0x00\n      keccak256\n        /* \"Learning.sol\":10683:10709  _userRoleData[_admin].user */\n      0x00\n      add\n      0x00\n      swap1\n      sload\n      swap1\n      0x0100\n      exp\n      swap1\n      div\n      0xffffffffffffffffffffffffffffffffffffffff\n      and\n        /* \"Learning.sol\":10710:10723  _userRoleData */\n      0x05\n        /* \"Learning.sol\":10710:10731  _userRoleData[_admin] */\n      0x00\n        /* \"Learning.sol\":10724:10730  _admin */\n      dup8\n        /* \"Learning.sol\":10710:10731  _userRoleData[_admin] */\n      0xffffffffffffffffffffffffffffffffffffffff\n      and\n      0xffffffffffffffffffffffffffffffffffffffff\n      and\n      dup2\n      mstore\n      0x20\n      add\n      swap1\n      dup2\n      mstore\n      0x20\n      add\n      0x00\n      keccak256\n        /* \"Learning.sol\":10710:10740  _userRoleData[_admin].roleType */\n      0x00\n      add\n      0x16\n      swap1\n      sload\n      swap1\n      0x0100\n      exp\n      swap1\n      div\n      0xff\n      and\n        /* \"Learning.sol\":10742:10762  _hasRoleGivenByAdmin */\n      0x03\n        /* \"Learning.sol\":10742:10770  _hasRoleGivenByAdmin[_admin] */\n      0x00\n        /* \"Learning.sol\":10763:10769  _admin */\n      dup9\n        /* \"Learning.sol\":10742:10770  _hasRoleGivenByAdmin[_admin] */\n      0xffffffffffffffffffffffffffffffffffffffff\n      and\n      0xffffffffffffffffffffffffffffffffffffffff\n      and\n      dup2\n      mstore\n      0x20\n      add\n      swap1\n      dup2\n      mstore\n      0x20\n      add\n      0x00\n      keccak256\n        /* \"Learning.sol\":10742:10786  _hasRoleGivenByAdmin[_admin][_roles[_admin]] */\n      0x00\n        /* \"Learning.sol\":10771:10777  _roles */\n      0x04\n        /* \"Learning.sol\":10771:10785  _roles[_admin] */\n      0x00\n        /* \"Learning.sol\":10778:10784  _admin */\n      dup11\n        /* \"Learning.sol\":10771:10785  _roles[_admin] */\n      0xffffffffffffffffffffffffffffffffffffffff\n      and\n      0xffffffffffffffffffffffffffffffffffffffff\n      and\n      dup2\n      mstore\n      0x20\n      add\n      swap1\n      dup2\n      mstore\n      0x20\n      add\n      0x00\n      keccak256\n      0x00\n      swap1\n      sload\n      swap1\n      0x0100\n      exp\n      swap1\n      div\n      0xff\n      and\n        /* \"Learning.sol\":10742:10786  _hasRoleGivenByAdmin[_admin][_roles[_admin]] */\n      0x03\n      dup2\n      gt\n      iszero\n      tag_310\n      jumpi\n      tag_311\n      tag_145\n      jump\t// in\n    tag_311:\n    tag_310:\n      0x03\n      dup2\n      gt\n      iszero\n      tag_312\n      jumpi\n      tag_313\n      tag_145\n      jump\t// in\n    tag_313:\n    tag_312:\n      dup2\n      mstore\n      0x20\n      add\n      swap1\n      dup2\n      mstore\n      0x20\n      add\n      0x00\n      keccak256\n      0x00\n      swap1\n      sload\n      swap1\n      0x0100\n      exp\n      swap1\n      div\n      0xff\n      and\n        /* \"Learning.sol\":10675:10787  return (_userRoleData[_admin].user,_userRoleData[_admin].roleType ,_hasRoleGivenByAdmin[_admin][_roles[_admin]]) */\n      swap3\n      pop\n      swap3\n      pop\n      swap3\n      pop\n      jump(tag_254)\n        /* \"Learning.sol\":10243:10792  if (role == Role.Admin) {... */\n    tag_309:\n        /* \"Learning.sol\":9579:11004  function setAdmin99(address _admin, Role role) public ... */\n    tag_254:\n      swap3\n      pop\n      swap3\n      pop\n      swap3\n      jump\t// out\n        /* \"Learning.sol\":8489:8538  mapping(address => RoleData) public _userRoleData */\n    tag_103:\n      mstore(0x20, 0x05)\n      dup1\n      0x00\n      mstore\n      keccak256(0x00, 0x40)\n      0x00\n      swap2\n      pop\n      swap1\n      pop\n      dup1\n      0x00\n      add\n      0x00\n      swap1\n      sload\n      swap1\n      0x0100\n      exp\n      swap1\n      div\n      0xffffffffffffffffffffffffffffffffffffffff\n      and\n      swap1\n      dup1\n      0x00\n      add\n      0x14\n      swap1\n      sload\n      swap1\n      0x0100\n      exp\n      swap1\n      div\n      0xff\n      and\n      swap1\n      dup1\n      0x00\n      add\n      0x15\n      swap1\n      sload\n      swap1\n      0x0100\n      exp\n      swap1\n      div\n      0xff\n      and\n      swap1\n      dup1\n      0x00\n      add\n      0x16\n      swap1\n      sload\n      swap1\n      0x0100\n      exp\n      swap1\n      div\n      0xff\n      and\n      swap1\n      dup1\n      0x01\n      add\n      dup1\n      sload\n      tag_314\n      swap1\n      tag_130\n      jump\t// in\n    tag_314:\n      dup1\n      0x1f\n      add\n      0x20\n      dup1\n      swap2\n      div\n      mul\n      0x20\n      add\n      mload(0x40)\n      swap1\n      dup2\n      add\n      0x40\n      mstore\n      dup1\n      swap3\n      swap2\n      swap1\n      dup2\n      dup2\n      mstore\n      0x20\n      add\n      dup3\n      dup1\n      sload\n      tag_315\n      swap1\n      tag_130\n      jump\t// in\n    tag_315:\n      dup1\n      iszero\n      tag_316\n      jumpi\n      dup1\n      0x1f\n      lt\n      tag_317\n      jumpi\n      0x0100\n      dup1\n      dup4\n      sload\n      div\n      mul\n      dup4\n      mstore\n      swap2\n      0x20\n      add\n      swap2\n      jump(tag_316)\n    tag_317:\n      dup3\n      add\n      swap2\n      swap1\n      0x00\n      mstore\n      keccak256(0x00, 0x20)\n      swap1\n    tag_318:\n      dup2\n      sload\n      dup2\n      mstore\n      swap1\n      0x01\n      add\n      swap1\n      0x20\n      add\n      dup1\n      dup4\n      gt\n      tag_318\n      jumpi\n      dup3\n      swap1\n      sub\n      0x1f\n      and\n      dup3\n      add\n      swap2\n    tag_316:\n      pop\n      pop\n      pop\n      pop\n      pop\n      swap1\n      pop\n      dup6\n      jump\t// out\n        /* \"Learning.sol\":22063:22141  function getTotalTask() public view returns(uint) {... */\n    tag_106:\n        /* \"Learning.sol\":22107:22111  uint */\n      0x00\n        /* \"Learning.sol\":22124:22131  taskIDs */\n      0x09\n        /* \"Learning.sol\":22124:22138  taskIDs.length */\n      dup1\n      sload\n      swap1\n      pop\n        /* \"Learning.sol\":22117:22138  return taskIDs.length */\n      swap1\n      pop\n        /* \"Learning.sol\":22063:22141  function getTotalTask() public view returns(uint) {... */\n      swap1\n      jump\t// out\n        /* \"Learning.sol\":8541:8567  address[] public userroles */\n    tag_110:\n      0x06\n      dup2\n      dup2\n      sload\n      dup2\n      lt\n      tag_320\n      jumpi\n      0x00\n      dup1\n      revert\n    tag_320:\n      swap1\n      0x00\n      mstore\n      keccak256(0x00, 0x20)\n      add\n      0x00\n      swap2\n      pop\n      sload\n      swap1\n      0x0100\n      exp\n      swap1\n      div\n      0xffffffffffffffffffffffffffffffffffffffff\n      and\n      dup2\n      jump\t// out\n        /* \"Learning.sol\":21361:21481  function stringToBytes(string calldata _string) public pure returns(bytes memory){... */\n    tag_116:\n        /* \"Learning.sol\":21429:21441  bytes memory */\n      0x60\n        /* \"Learning.sol\":21470:21477  _string */\n      dup3\n      dup3\n        /* \"Learning.sol\":21453:21478  abi.encodePacked(_string) */\n      add(0x20, mload(0x40))\n      tag_323\n      swap3\n      swap2\n      swap1\n      tag_324\n      jump\t// in\n    tag_323:\n      mload(0x40)\n      0x20\n      dup2\n      dup4\n      sub\n      sub\n      dup2\n      mstore\n      swap1\n      0x40\n      mstore\n        /* \"Learning.sol\":21446:21478  return abi.encodePacked(_string) */\n      swap1\n      pop\n        /* \"Learning.sol\":21361:21481  function stringToBytes(string calldata _string) public pure returns(bytes memory){... */\n      swap3\n      swap2\n      pop\n      pop\n      jump\t// out\n        /* \"Learning.sol\":13300:15374  function revokeRole(address _admin , address _pauser,Role role)... */\n    tag_121:\n        /* \"Learning.sol\":13404:13411  address */\n      0x00\n        /* \"Learning.sol\":13412:13416  Role */\n      0x00\n        /* \"Learning.sol\":13418:13422  bool */\n      0x00\n        /* \"Learning.sol\":13382:13388  _admin */\n      dup6\n        /* \"Learning.sol\":13390:13394  role */\n      dup5\n        /* \"Learning.sol\":8648:8658  Role.Admin */\n      0x01\n        /* \"Learning.sol\":8630:8658  _roles[_admin] == Role.Admin */\n      0x03\n      dup2\n      gt\n      iszero\n      tag_326\n      jumpi\n      tag_327\n      tag_145\n      jump\t// in\n    tag_327:\n    tag_326:\n        /* \"Learning.sol\":8630:8636  _roles */\n      0x04\n        /* \"Learning.sol\":8630:8644  _roles[_admin] */\n      0x00\n        /* \"Learning.sol\":8637:8643  _admin */\n      dup5\n        /* \"Learning.sol\":8630:8644  _roles[_admin] */\n      0xffffffffffffffffffffffffffffffffffffffff\n      and\n      0xffffffffffffffffffffffffffffffffffffffff\n      and\n      dup2\n      mstore\n      0x20\n      add\n      swap1\n      dup2\n      mstore\n      0x20\n      add\n      0x00\n      keccak256\n      0x00\n      swap1\n      sload\n      swap1\n      0x0100\n      exp\n      swap1\n      div\n      0xff\n      and\n        /* \"Learning.sol\":8630:8658  _roles[_admin] == Role.Admin */\n      0x03\n      dup2\n      gt\n      iszero\n      tag_328\n      jumpi\n      tag_329\n      tag_145\n      jump\t// in\n    tag_329:\n    tag_328:\n      eq\n        /* \"Learning.sol\":8622:8688  require(_roles[_admin] == Role.Admin,\"Ony administrator can call\") */\n      tag_330\n      jumpi\n      mload(0x40)\n      0x08c379a000000000000000000000000000000000000000000000000000000000\n      dup2\n      mstore\n      0x04\n      add\n      tag_331\n      swap1\n      tag_150\n      jump\t// in\n    tag_331:\n      mload(0x40)\n      dup1\n      swap2\n      sub\n      swap1\n      revert\n    tag_330:\n        /* \"Learning.sol\":8792:8801  _checkole */\n      0x02\n        /* \"Learning.sol\":8792:8810  _checkole[ _admin] */\n      0x00\n        /* \"Learning.sol\":8803:8809  _admin */\n      dup4\n        /* \"Learning.sol\":8792:8810  _checkole[ _admin] */\n      0xffffffffffffffffffffffffffffffffffffffff\n      and\n      0xffffffffffffffffffffffffffffffffffffffff\n      and\n      dup2\n      mstore\n      0x20\n      add\n      swap1\n      dup2\n      mstore\n      0x20\n      add\n      0x00\n      keccak256\n      0x00\n      swap1\n      sload\n      swap1\n      0x0100\n      exp\n      swap1\n      div\n      0xff\n      and\n        /* \"Learning.sol\":8784:8848  require(_checkole[ _admin],\"Only Admins Can Call This Function\") */\n      tag_332\n      jumpi\n      mload(0x40)\n      0x08c379a000000000000000000000000000000000000000000000000000000000\n      dup2\n      mstore\n      0x04\n      add\n      tag_333\n      swap1\n      tag_153\n      jump\t// in\n    tag_333:\n      mload(0x40)\n      dup1\n      swap2\n      sub\n      swap1\n      revert\n    tag_332:\n        /* \"Learning.sol\":13458:13468  Role.Admin */\n      0x01\n        /* \"Learning.sol\":13440:13468  _roles[_admin] == Role.Admin */\n      0x03\n      dup2\n      gt\n      iszero\n      tag_335\n      jumpi\n      tag_336\n      tag_145\n      jump\t// in\n    tag_336:\n    tag_335:\n        /* \"Learning.sol\":13440:13446  _roles */\n      0x04\n        /* \"Learning.sol\":13440:13454  _roles[_admin] */\n      0x00\n        /* \"Learning.sol\":13447:13453  _admin */\n      dup11\n        /* \"Learning.sol\":13440:13454  _roles[_admin] */\n      0xffffffffffffffffffffffffffffffffffffffff\n      and\n      0xffffffffffffffffffffffffffffffffffffffff\n      and\n      dup2\n      mstore\n      0x20\n      add\n      swap1\n      dup2\n      mstore\n      0x20\n      add\n      0x00\n      keccak256\n      0x00\n      swap1\n      sload\n      swap1\n      0x0100\n      exp\n      swap1\n      div\n      0xff\n      and\n        /* \"Learning.sol\":13440:13468  _roles[_admin] == Role.Admin */\n      0x03\n      dup2\n      gt\n      iszero\n      tag_337\n      jumpi\n      tag_338\n      tag_145\n      jump\t// in\n    tag_338:\n    tag_337:\n      eq\n        /* \"Learning.sol\":13432:13499  require(_roles[_admin] == Role.Admin,\"Only administrator can call\") */\n      tag_339\n      jumpi\n      mload(0x40)\n      0x08c379a000000000000000000000000000000000000000000000000000000000\n      dup2\n      mstore\n      0x04\n      add\n      tag_340\n      swap1\n      tag_161\n      jump\t// in\n    tag_340:\n      mload(0x40)\n      dup1\n      swap2\n      sub\n      swap1\n      revert\n    tag_339:\n        /* \"Learning.sol\":13725:13729  true */\n      0x01\n        /* \"Learning.sol\":13676:13729  _hasRoleGivenByAdmin[ _admin][_roles[_pauser]] ==true */\n      iszero\n      iszero\n        /* \"Learning.sol\":13676:13696  _hasRoleGivenByAdmin */\n      0x03\n        /* \"Learning.sol\":13676:13705  _hasRoleGivenByAdmin[ _admin] */\n      0x00\n        /* \"Learning.sol\":13698:13704  _admin */\n      dup11\n        /* \"Learning.sol\":13676:13705  _hasRoleGivenByAdmin[ _admin] */\n      0xffffffffffffffffffffffffffffffffffffffff\n      and\n      0xffffffffffffffffffffffffffffffffffffffff\n      and\n      dup2\n      mstore\n      0x20\n      add\n      swap1\n      dup2\n      mstore\n      0x20\n      add\n      0x00\n      keccak256\n        /* \"Learning.sol\":13676:13722  _hasRoleGivenByAdmin[ _admin][_roles[_pauser]] */\n      0x00\n        /* \"Learning.sol\":13706:13712  _roles */\n      0x04\n        /* \"Learning.sol\":13706:13721  _roles[_pauser] */\n      0x00\n        /* \"Learning.sol\":13713:13720  _pauser */\n      dup12\n        /* \"Learning.sol\":13706:13721  _roles[_pauser] */\n      0xffffffffffffffffffffffffffffffffffffffff\n      and\n      0xffffffffffffffffffffffffffffffffffffffff\n      and\n      dup2\n      mstore\n      0x20\n      add\n      swap1\n      dup2\n      mstore\n      0x20\n      add\n      0x00\n      keccak256\n      0x00\n      swap1\n      sload\n      swap1\n      0x0100\n      exp\n      swap1\n      div\n      0xff\n      and\n        /* \"Learning.sol\":13676:13722  _hasRoleGivenByAdmin[ _admin][_roles[_pauser]] */\n      0x03\n      dup2\n      gt\n      iszero\n      tag_341\n      jumpi\n      tag_342\n      tag_145\n      jump\t// in\n    tag_342:\n    tag_341:\n      0x03\n      dup2\n      gt\n      iszero\n      tag_343\n      jumpi\n      tag_344\n      tag_145\n      jump\t// in\n    tag_344:\n    tag_343:\n      dup2\n      mstore\n      0x20\n      add\n      swap1\n      dup2\n      mstore\n      0x20\n      add\n      0x00\n      keccak256\n      0x00\n      swap1\n      sload\n      swap1\n      0x0100\n      exp\n      swap1\n      div\n      0xff\n      and\n        /* \"Learning.sol\":13676:13729  _hasRoleGivenByAdmin[ _admin][_roles[_pauser]] ==true */\n      iszero\n      iszero\n      eq\n        /* \"Learning.sol\":13668:13773  require(_hasRoleGivenByAdmin[ _admin][_roles[_pauser]] ==true,\"No Role Is Given To Pauser To Revoke it\" ) */\n      tag_345\n      jumpi\n      mload(0x40)\n      0x08c379a000000000000000000000000000000000000000000000000000000000\n      dup2\n      mstore\n      0x04\n      add\n      tag_346\n      swap1\n      tag_347\n      jump\t// in\n    tag_346:\n      mload(0x40)\n      dup1\n      swap2\n      sub\n      swap1\n      revert\n    tag_345:\n        /* \"Learning.sol\":14051:14055  true */\n      0x01\n        /* \"Learning.sol\":14015:14055  _userRoleData[_pauser].isGranted == true */\n      iszero\n      iszero\n        /* \"Learning.sol\":14015:14028  _userRoleData */\n      0x05\n        /* \"Learning.sol\":14015:14037  _userRoleData[_pauser] */\n      0x00\n        /* \"Learning.sol\":14029:14036  _pauser */\n      dup10\n        /* \"Learning.sol\":14015:14037  _userRoleData[_pauser] */\n      0xffffffffffffffffffffffffffffffffffffffff\n      and\n      0xffffffffffffffffffffffffffffffffffffffff\n      and\n      dup2\n      mstore\n      0x20\n      add\n      swap1\n      dup2\n      mstore\n      0x20\n      add\n      0x00\n      keccak256\n        /* \"Learning.sol\":14015:14047  _userRoleData[_pauser].isGranted */\n      0x00\n      add\n      0x14\n      swap1\n      sload\n      swap1\n      0x0100\n      exp\n      swap1\n      div\n      0xff\n      and\n        /* \"Learning.sol\":14015:14055  _userRoleData[_pauser].isGranted == true */\n      iszero\n      iszero\n      eq\n        /* \"Learning.sol\":14007:14097  require(_userRoleData[_pauser].isGranted == true,\"The minter role has never been granted\") */\n      tag_348\n      jumpi\n      mload(0x40)\n      0x08c379a000000000000000000000000000000000000000000000000000000000\n      dup2\n      mstore\n      0x04\n      add\n      tag_349\n      swap1\n      tag_350\n      jump\t// in\n    tag_349:\n      mload(0x40)\n      dup1\n      swap2\n      sub\n      swap1\n      revert\n    tag_348:\n        /* \"Learning.sol\":14249:14254  false */\n      0x00\n        /* \"Learning.sol\":14213:14254  _userRoleData[_pauser].isRevoked == false */\n      iszero\n      iszero\n        /* \"Learning.sol\":14213:14226  _userRoleData */\n      0x05\n        /* \"Learning.sol\":14213:14235  _userRoleData[_pauser] */\n      0x00\n        /* \"Learning.sol\":14227:14234  _pauser */\n      dup10\n        /* \"Learning.sol\":14213:14235  _userRoleData[_pauser] */\n      0xffffffffffffffffffffffffffffffffffffffff\n      and\n      0xffffffffffffffffffffffffffffffffffffffff\n      and\n      dup2\n      mstore\n      0x20\n      add\n      swap1\n      dup2\n      mstore\n      0x20\n      add\n      0x00\n      keccak256\n        /* \"Learning.sol\":14213:14245  _userRoleData[_pauser].isRevoked */\n      0x00\n      add\n      0x15\n      swap1\n      sload\n      swap1\n      0x0100\n      exp\n      swap1\n      div\n      0xff\n      and\n        /* \"Learning.sol\":14213:14254  _userRoleData[_pauser].isRevoked == false */\n      iszero\n      iszero\n      eq\n        /* \"Learning.sol\":14205:14298  require(_userRoleData[_pauser].isRevoked == false,\"The pauser role has already been revoked\") */\n      tag_351\n      jumpi\n      mload(0x40)\n      0x08c379a000000000000000000000000000000000000000000000000000000000\n      dup2\n      mstore\n      0x04\n      add\n      tag_352\n      swap1\n      tag_248\n      jump\t// in\n    tag_352:\n      mload(0x40)\n      dup1\n      swap2\n      sub\n      swap1\n      revert\n    tag_351:\n        /* \"Learning.sol\":14377:14384  _pauser */\n      dup7\n        /* \"Learning.sol\":14347:14360  _userRoleData */\n      0x05\n        /* \"Learning.sol\":14347:14369  _userRoleData[_pauser] */\n      0x00\n        /* \"Learning.sol\":14361:14368  _pauser */\n      dup10\n        /* \"Learning.sol\":14347:14369  _userRoleData[_pauser] */\n      0xffffffffffffffffffffffffffffffffffffffff\n      and\n      0xffffffffffffffffffffffffffffffffffffffff\n      and\n      dup2\n      mstore\n      0x20\n      add\n      swap1\n      dup2\n      mstore\n      0x20\n      add\n      0x00\n      keccak256\n        /* \"Learning.sol\":14347:14374  _userRoleData[_pauser].user */\n      0x00\n      add\n      0x00\n        /* \"Learning.sol\":14347:14384  _userRoleData[_pauser].user = _pauser */\n      0x0100\n      exp\n      dup2\n      sload\n      dup2\n      0xffffffffffffffffffffffffffffffffffffffff\n      mul\n      not\n      and\n      swap1\n      dup4\n      0xffffffffffffffffffffffffffffffffffffffff\n      and\n      mul\n      or\n      swap1\n      sstore\n      pop\n        /* \"Learning.sol\":15080:15086  _roles */\n      0x04\n        /* \"Learning.sol\":15080:15095  _roles[_pauser] */\n      0x00\n        /* \"Learning.sol\":15087:15094  _pauser */\n      dup9\n        /* \"Learning.sol\":15080:15095  _roles[_pauser] */\n      0xffffffffffffffffffffffffffffffffffffffff\n      and\n      0xffffffffffffffffffffffffffffffffffffffff\n      and\n      dup2\n      mstore\n      0x20\n      add\n      swap1\n      dup2\n      mstore\n      0x20\n      add\n      0x00\n      keccak256\n      0x00\n        /* \"Learning.sol\":15073:15095  delete _roles[_pauser] */\n      0x0100\n      exp\n      dup2\n      sload\n      swap1\n      0xff\n      mul\n      not\n      and\n      swap1\n      sstore\n        /* \"Learning.sol\":15149:15154  false */\n      0x00\n        /* \"Learning.sol\":15101:15121  _hasRoleGivenByAdmin */\n      0x03\n        /* \"Learning.sol\":15101:15129  _hasRoleGivenByAdmin[_admin] */\n      0x00\n        /* \"Learning.sol\":15122:15128  _admin */\n      dup11\n        /* \"Learning.sol\":15101:15129  _hasRoleGivenByAdmin[_admin] */\n      0xffffffffffffffffffffffffffffffffffffffff\n      and\n      0xffffffffffffffffffffffffffffffffffffffff\n      and\n      dup2\n      mstore\n      0x20\n      add\n      swap1\n      dup2\n      mstore\n      0x20\n      add\n      0x00\n      keccak256\n        /* \"Learning.sol\":15101:15146  _hasRoleGivenByAdmin[_admin][_roles[_pauser]] */\n      0x00\n        /* \"Learning.sol\":15130:15136  _roles */\n      0x04\n        /* \"Learning.sol\":15130:15145  _roles[_pauser] */\n      0x00\n        /* \"Learning.sol\":15137:15144  _pauser */\n      dup12\n        /* \"Learning.sol\":15130:15145  _roles[_pauser] */\n      0xffffffffffffffffffffffffffffffffffffffff\n      and\n      0xffffffffffffffffffffffffffffffffffffffff\n      and\n      dup2\n      mstore\n      0x20\n      add\n      swap1\n      dup2\n      mstore\n      0x20\n      add\n      0x00\n      keccak256\n      0x00\n      swap1\n      sload\n      swap1\n      0x0100\n      exp\n      swap1\n      div\n      0xff\n      and\n        /* \"Learning.sol\":15101:15146  _hasRoleGivenByAdmin[_admin][_roles[_pauser]] */\n      0x03\n      dup2\n      gt\n      iszero\n      tag_353\n      jumpi\n      tag_354\n      tag_145\n      jump\t// in\n    tag_354:\n    tag_353:\n      0x03\n      dup2\n      gt\n      iszero\n      tag_355\n      jumpi\n      tag_356\n      tag_145\n      jump\t// in\n    tag_356:\n    tag_355:\n      dup2\n      mstore\n      0x20\n      add\n      swap1\n      dup2\n      mstore\n      0x20\n      add\n      0x00\n      keccak256\n      0x00\n        /* \"Learning.sol\":15101:15154  _hasRoleGivenByAdmin[_admin][_roles[_pauser]] = false */\n      0x0100\n      exp\n      dup2\n      sload\n      dup2\n      0xff\n      mul\n      not\n      and\n      swap1\n      dup4\n      iszero\n      iszero\n      mul\n      or\n      swap1\n      sstore\n      pop\n        /* \"Learning.sol\":15194:15199  false */\n      0x00\n        /* \"Learning.sol\":15159:15172  _userRoleData */\n      0x05\n        /* \"Learning.sol\":15159:15181  _userRoleData[_pauser] */\n      0x00\n        /* \"Learning.sol\":15173:15180  _pauser */\n      dup10\n        /* \"Learning.sol\":15159:15181  _userRoleData[_pauser] */\n      0xffffffffffffffffffffffffffffffffffffffff\n      and\n      0xffffffffffffffffffffffffffffffffffffffff\n      and\n      dup2\n      mstore\n      0x20\n      add\n      swap1\n      dup2\n      mstore\n      0x20\n      add\n      0x00\n      keccak256\n        /* \"Learning.sol\":15159:15191  _userRoleData[_pauser].isGranted */\n      0x00\n      add\n      0x14\n        /* \"Learning.sol\":15159:15199  _userRoleData[_pauser].isGranted = false */\n      0x0100\n      exp\n      dup2\n      sload\n      dup2\n      0xff\n      mul\n      not\n      and\n      swap1\n      dup4\n      iszero\n      iszero\n      mul\n      or\n      swap1\n      sstore\n      pop\n        /* \"Learning.sol\":15239:15243  true */\n      0x01\n        /* \"Learning.sol\":15204:15217  _userRoleData */\n      0x05\n        /* \"Learning.sol\":15204:15226  _userRoleData[_pauser] */\n      0x00\n        /* \"Learning.sol\":15218:15225  _pauser */\n      dup10\n        /* \"Learning.sol\":15204:15226  _userRoleData[_pauser] */\n      0xffffffffffffffffffffffffffffffffffffffff\n      and\n      0xffffffffffffffffffffffffffffffffffffffff\n      and\n      dup2\n      mstore\n      0x20\n      add\n      swap1\n      dup2\n      mstore\n      0x20\n      add\n      0x00\n      keccak256\n        /* \"Learning.sol\":15204:15236  _userRoleData[_pauser].isRevoked */\n      0x00\n      add\n      0x15\n        /* \"Learning.sol\":15204:15243  _userRoleData[_pauser].isRevoked = true */\n      0x0100\n      exp\n      dup2\n      sload\n      dup2\n      0xff\n      mul\n      not\n      and\n      swap1\n      dup4\n      iszero\n      iszero\n      mul\n      or\n      swap1\n      sstore\n      pop\n        /* \"Learning.sol\":15248:15288  _userRoleData[_pauser].roleName = \"None\" */\n      mload(0x40)\n      dup1\n      0x40\n      add\n      0x40\n      mstore\n      dup1\n      0x04\n      dup2\n      mstore\n      0x20\n      add\n      0x4e6f6e6500000000000000000000000000000000000000000000000000000000\n      dup2\n      mstore\n      pop\n        /* \"Learning.sol\":15248:15261  _userRoleData */\n      0x05\n        /* \"Learning.sol\":15248:15270  _userRoleData[_pauser] */\n      0x00\n        /* \"Learning.sol\":15262:15269  _pauser */\n      dup10\n        /* \"Learning.sol\":15248:15270  _userRoleData[_pauser] */\n      0xffffffffffffffffffffffffffffffffffffffff\n      and\n      0xffffffffffffffffffffffffffffffffffffffff\n      and\n      dup2\n      mstore\n      0x20\n      add\n      swap1\n      dup2\n      mstore\n      0x20\n      add\n      0x00\n      keccak256\n        /* \"Learning.sol\":15248:15279  _userRoleData[_pauser].roleName */\n      0x01\n      add\n        /* \"Learning.sol\":15248:15288  _userRoleData[_pauser].roleName = \"None\" */\n      swap1\n      dup2\n      tag_357\n      swap2\n      swap1\n      tag_127\n      jump\t// in\n    tag_357:\n      pop\n        /* \"Learning.sol\":15316:15321  false */\n      0x00\n        /* \"Learning.sol\":15295:15304  _checkole */\n      0x02\n        /* \"Learning.sol\":15295:15313  _checkole[_pauser] */\n      0x00\n        /* \"Learning.sol\":15305:15312  _pauser */\n      dup10\n        /* \"Learning.sol\":15295:15313  _checkole[_pauser] */\n      0xffffffffffffffffffffffffffffffffffffffff\n      and\n      0xffffffffffffffffffffffffffffffffffffffff\n      and\n      dup2\n      mstore\n      0x20\n      add\n      swap1\n      dup2\n      mstore\n      0x20\n      add\n      0x00\n      keccak256\n      0x00\n        /* \"Learning.sol\":15295:15321  _checkole[_pauser] = false */\n      0x0100\n      exp\n      dup2\n      sload\n      dup2\n      0xff\n      mul\n      not\n      and\n      swap1\n      dup4\n      iszero\n      iszero\n      mul\n      or\n      swap1\n      sstore\n      pop\n        /* \"Learning.sol\":15333:15346  _userRoleData */\n      0x05\n        /* \"Learning.sol\":15333:15355  _userRoleData[_pauser] */\n      0x00\n        /* \"Learning.sol\":15347:15354  _pauser */\n      dup9\n        /* \"Learning.sol\":15333:15355  _userRoleData[_pauser] */\n      0xffffffffffffffffffffffffffffffffffffffff\n      and\n      0xffffffffffffffffffffffffffffffffffffffff\n      and\n      dup2\n      mstore\n      0x20\n      add\n      swap1\n      dup2\n      mstore\n      0x20\n      add\n      0x00\n      keccak256\n        /* \"Learning.sol\":15333:15364  _userRoleData[_pauser].roleType */\n      0x00\n      add\n      0x16\n        /* \"Learning.sol\":15326:15364  delete _userRoleData[_pauser].roleType */\n      0x0100\n      exp\n      dup2\n      sload\n      swap1\n      0xff\n      mul\n      not\n      and\n      swap1\n      sstore\n        /* \"Learning.sol\":13300:15374  function revokeRole(address _admin , address _pauser,Role role)... */\n      pop\n      pop\n      swap4\n      pop\n      swap4\n      pop\n      swap4\n      swap1\n      pop\n      jump\t// out\n    tag_124:\n      mload(0x40)\n      dup1\n      0x20\n      add\n      0x40\n      mstore\n      dup1\n      0x60\n      dup2\n      mstore\n      pop\n      swap1\n      jump\t// out\n        /* \"#utility.yul\":7:82   */\n    tag_358:\n        /* \"#utility.yul\":40:46   */\n      0x00\n        /* \"#utility.yul\":73:75   */\n      0x40\n        /* \"#utility.yul\":67:76   */\n      mload\n        /* \"#utility.yul\":57:76   */\n      swap1\n      pop\n        /* \"#utility.yul\":7:82   */\n      swap1\n      jump\t// out\n        /* \"#utility.yul\":88:205   */\n    tag_359:\n        /* \"#utility.yul\":197:198   */\n      0x00\n        /* \"#utility.yul\":194:195   */\n      0x00\n        /* \"#utility.yul\":187:199   */\n      revert\n        /* \"#utility.yul\":211:328   */\n    tag_360:\n        /* \"#utility.yul\":320:321   */\n      0x00\n        /* \"#utility.yul\":317:318   */\n      0x00\n        /* \"#utility.yul\":310:322   */\n      revert\n        /* \"#utility.yul\":334:411   */\n    tag_361:\n        /* \"#utility.yul\":371:378   */\n      0x00\n        /* \"#utility.yul\":400:405   */\n      dup2\n        /* \"#utility.yul\":389:405   */\n      swap1\n      pop\n        /* \"#utility.yul\":334:411   */\n      swap2\n      swap1\n      pop\n      jump\t// out\n        /* \"#utility.yul\":417:539   */\n    tag_362:\n        /* \"#utility.yul\":490:514   */\n      tag_463\n        /* \"#utility.yul\":508:513   */\n      dup2\n        /* \"#utility.yul\":490:514   */\n      tag_361\n      jump\t// in\n    tag_463:\n        /* \"#utility.yul\":483:488   */\n      dup2\n        /* \"#utility.yul\":480:515   */\n      eq\n        /* \"#utility.yul\":470:533   */\n      tag_464\n      jumpi\n        /* \"#utility.yul\":529:530   */\n      0x00\n        /* \"#utility.yul\":526:527   */\n      0x00\n        /* \"#utility.yul\":519:531   */\n      revert\n        /* \"#utility.yul\":470:533   */\n    tag_464:\n        /* \"#utility.yul\":417:539   */\n      pop\n      jump\t// out\n        /* \"#utility.yul\":545:684   */\n    tag_363:\n        /* \"#utility.yul\":591:596   */\n      0x00\n        /* \"#utility.yul\":629:635   */\n      dup2\n        /* \"#utility.yul\":616:636   */\n      calldataload\n        /* \"#utility.yul\":607:636   */\n      swap1\n      pop\n        /* \"#utility.yul\":645:678   */\n      tag_466\n        /* \"#utility.yul\":672:677   */\n      dup2\n        /* \"#utility.yul\":645:678   */\n      tag_362\n      jump\t// in\n    tag_466:\n        /* \"#utility.yul\":545:684   */\n      swap3\n      swap2\n      pop\n      pop\n      jump\t// out\n        /* \"#utility.yul\":690:807   */\n    tag_364:\n        /* \"#utility.yul\":799:800   */\n      0x00\n        /* \"#utility.yul\":796:797   */\n      0x00\n        /* \"#utility.yul\":789:801   */\n      revert\n        /* \"#utility.yul\":813:930   */\n    tag_365:\n        /* \"#utility.yul\":922:923   */\n      0x00\n        /* \"#utility.yul\":919:920   */\n      0x00\n        /* \"#utility.yul\":912:924   */\n      revert\n        /* \"#utility.yul\":936:1038   */\n    tag_366:\n        /* \"#utility.yul\":977:983   */\n      0x00\n        /* \"#utility.yul\":1028:1030   */\n      0x1f\n        /* \"#utility.yul\":1024:1031   */\n      not\n        /* \"#utility.yul\":1019:1021   */\n      0x1f\n        /* \"#utility.yul\":1012:1017   */\n      dup4\n        /* \"#utility.yul\":1008:1022   */\n      add\n        /* \"#utility.yul\":1004:1032   */\n      and\n        /* \"#utility.yul\":994:1032   */\n      swap1\n      pop\n        /* \"#utility.yul\":936:1038   */\n      swap2\n      swap1\n      pop\n      jump\t// out\n        /* \"#utility.yul\":1044:1224   */\n    tag_367:\n        /* \"#utility.yul\":1092:1169   */\n      0x4e487b7100000000000000000000000000000000000000000000000000000000\n        /* \"#utility.yul\":1089:1090   */\n      0x00\n        /* \"#utility.yul\":1082:1170   */\n      mstore\n        /* \"#utility.yul\":1189:1193   */\n      0x41\n        /* \"#utility.yul\":1186:1187   */\n      0x04\n        /* \"#utility.yul\":1179:1194   */\n      mstore\n        /* \"#utility.yul\":1213:1217   */\n      0x24\n        /* \"#utility.yul\":1210:1211   */\n      0x00\n        /* \"#utility.yul\":1203:1218   */\n      revert\n        /* \"#utility.yul\":1230:1511   */\n    tag_368:\n        /* \"#utility.yul\":1313:1340   */\n      tag_472\n        /* \"#utility.yul\":1335:1339   */\n      dup3\n        /* \"#utility.yul\":1313:1340   */\n      tag_366\n      jump\t// in\n    tag_472:\n        /* \"#utility.yul\":1305:1311   */\n      dup2\n        /* \"#utility.yul\":1301:1341   */\n      add\n        /* \"#utility.yul\":1443:1449   */\n      dup2\n        /* \"#utility.yul\":1431:1441   */\n      dup2\n        /* \"#utility.yul\":1428:1450   */\n      lt\n        /* \"#utility.yul\":1407:1425   */\n      0xffffffffffffffff\n        /* \"#utility.yul\":1395:1405   */\n      dup3\n        /* \"#utility.yul\":1392:1426   */\n      gt\n        /* \"#utility.yul\":1389:1451   */\n      or\n        /* \"#utility.yul\":1386:1474   */\n      iszero\n      tag_473\n      jumpi\n        /* \"#utility.yul\":1454:1472   */\n      tag_474\n      tag_367\n      jump\t// in\n    tag_474:\n        /* \"#utility.yul\":1386:1474   */\n    tag_473:\n        /* \"#utility.yul\":1494:1504   */\n      dup1\n        /* \"#utility.yul\":1490:1492   */\n      0x40\n        /* \"#utility.yul\":1483:1505   */\n      mstore\n        /* \"#utility.yul\":1273:1511   */\n      pop\n        /* \"#utility.yul\":1230:1511   */\n      pop\n      pop\n      jump\t// out\n        /* \"#utility.yul\":1517:1646   */\n    tag_369:\n        /* \"#utility.yul\":1551:1557   */\n      0x00\n        /* \"#utility.yul\":1578:1598   */\n      tag_476\n      tag_358\n      jump\t// in\n    tag_476:\n        /* \"#utility.yul\":1568:1598   */\n      swap1\n      pop\n        /* \"#utility.yul\":1607:1640   */\n      tag_477\n        /* \"#utility.yul\":1635:1639   */\n      dup3\n        /* \"#utility.yul\":1627:1633   */\n      dup3\n        /* \"#utility.yul\":1607:1640   */\n      tag_368\n      jump\t// in\n    tag_477:\n        /* \"#utility.yul\":1517:1646   */\n      swap2\n      swap1\n      pop\n      jump\t// out\n        /* \"#utility.yul\":1652:1960   */\n    tag_370:\n        /* \"#utility.yul\":1714:1718   */\n      0x00\n        /* \"#utility.yul\":1804:1822   */\n      0xffffffffffffffff\n        /* \"#utility.yul\":1796:1802   */\n      dup3\n        /* \"#utility.yul\":1793:1823   */\n      gt\n        /* \"#utility.yul\":1790:1846   */\n      iszero\n      tag_479\n      jumpi\n        /* \"#utility.yul\":1826:1844   */\n      tag_480\n      tag_367\n      jump\t// in\n    tag_480:\n        /* \"#utility.yul\":1790:1846   */\n    tag_479:\n        /* \"#utility.yul\":1864:1893   */\n      tag_481\n        /* \"#utility.yul\":1886:1892   */\n      dup3\n        /* \"#utility.yul\":1864:1893   */\n      tag_366\n      jump\t// in\n    tag_481:\n        /* \"#utility.yul\":1856:1893   */\n      swap1\n      pop\n        /* \"#utility.yul\":1948:1952   */\n      0x20\n        /* \"#utility.yul\":1942:1946   */\n      dup2\n        /* \"#utility.yul\":1938:1953   */\n      add\n        /* \"#utility.yul\":1930:1953   */\n      swap1\n      pop\n        /* \"#utility.yul\":1652:1960   */\n      swap2\n      swap1\n      pop\n      jump\t// out\n        /* \"#utility.yul\":1966:2114   */\n    tag_371:\n        /* \"#utility.yul\":2064:2070   */\n      dup3\n        /* \"#utility.yul\":2059:2062   */\n      dup2\n        /* \"#utility.yul\":2054:2057   */\n      dup4\n        /* \"#utility.yul\":2041:2071   */\n      calldatacopy\n        /* \"#utility.yul\":2105:2106   */\n      0x00\n        /* \"#utility.yul\":2096:2102   */\n      dup4\n        /* \"#utility.yul\":2091:2094   */\n      dup4\n        /* \"#utility.yul\":2087:2103   */\n      add\n        /* \"#utility.yul\":2080:2107   */\n      mstore\n        /* \"#utility.yul\":1966:2114   */\n      pop\n      pop\n      pop\n      jump\t// out\n        /* \"#utility.yul\":2120:2545   */\n    tag_372:\n        /* \"#utility.yul\":2198:2203   */\n      0x00\n        /* \"#utility.yul\":2223:2289   */\n      tag_484\n        /* \"#utility.yul\":2239:2288   */\n      tag_485\n        /* \"#utility.yul\":2281:2287   */\n      dup5\n        /* \"#utility.yul\":2239:2288   */\n      tag_370\n      jump\t// in\n    tag_485:\n        /* \"#utility.yul\":2223:2289   */\n      tag_369\n      jump\t// in\n    tag_484:\n        /* \"#utility.yul\":2214:2289   */\n      swap1\n      pop\n        /* \"#utility.yul\":2312:2318   */\n      dup3\n        /* \"#utility.yul\":2305:2310   */\n      dup2\n        /* \"#utility.yul\":2298:2319   */\n      mstore\n        /* \"#utility.yul\":2350:2354   */\n      0x20\n        /* \"#utility.yul\":2343:2348   */\n      dup2\n        /* \"#utility.yul\":2339:2355   */\n      add\n        /* \"#utility.yul\":2388:2391   */\n      dup5\n        /* \"#utility.yul\":2379:2385   */\n      dup5\n        /* \"#utility.yul\":2374:2377   */\n      dup5\n        /* \"#utility.yul\":2370:2386   */\n      add\n        /* \"#utility.yul\":2367:2392   */\n      gt\n        /* \"#utility.yul\":2364:2476   */\n      iszero\n      tag_486\n      jumpi\n        /* \"#utility.yul\":2395:2474   */\n      tag_487\n      tag_365\n      jump\t// in\n    tag_487:\n        /* \"#utility.yul\":2364:2476   */\n    tag_486:\n        /* \"#utility.yul\":2485:2539   */\n      tag_488\n        /* \"#utility.yul\":2532:2538   */\n      dup5\n        /* \"#utility.yul\":2527:2530   */\n      dup3\n        /* \"#utility.yul\":2522:2525   */\n      dup6\n        /* \"#utility.yul\":2485:2539   */\n      tag_371\n      jump\t// in\n    tag_488:\n        /* \"#utility.yul\":2204:2545   */\n      pop\n        /* \"#utility.yul\":2120:2545   */\n      swap4\n      swap3\n      pop\n      pop\n      pop\n      jump\t// out\n        /* \"#utility.yul\":2565:2905   */\n    tag_373:\n        /* \"#utility.yul\":2621:2626   */\n      0x00\n        /* \"#utility.yul\":2670:2673   */\n      dup3\n        /* \"#utility.yul\":2663:2667   */\n      0x1f\n        /* \"#utility.yul\":2655:2661   */\n      dup4\n        /* \"#utility.yul\":2651:2668   */\n      add\n        /* \"#utility.yul\":2647:2674   */\n      slt\n        /* \"#utility.yul\":2637:2759   */\n      tag_490\n      jumpi\n        /* \"#utility.yul\":2678:2757   */\n      tag_491\n      tag_364\n      jump\t// in\n    tag_491:\n        /* \"#utility.yul\":2637:2759   */\n    tag_490:\n        /* \"#utility.yul\":2795:2801   */\n      dup2\n        /* \"#utility.yul\":2782:2802   */\n      calldataload\n        /* \"#utility.yul\":2820:2899   */\n      tag_492\n        /* \"#utility.yul\":2895:2898   */\n      dup5\n        /* \"#utility.yul\":2887:2893   */\n      dup3\n        /* \"#utility.yul\":2880:2884   */\n      0x20\n        /* \"#utility.yul\":2872:2878   */\n      dup7\n        /* \"#utility.yul\":2868:2885   */\n      add\n        /* \"#utility.yul\":2820:2899   */\n      tag_372\n      jump\t// in\n    tag_492:\n        /* \"#utility.yul\":2811:2899   */\n      swap2\n      pop\n        /* \"#utility.yul\":2627:2905   */\n      pop\n        /* \"#utility.yul\":2565:2905   */\n      swap3\n      swap2\n      pop\n      pop\n      jump\t// out\n        /* \"#utility.yul\":2911:3565   */\n    tag_29:\n        /* \"#utility.yul\":2989:2995   */\n      0x00\n        /* \"#utility.yul\":2997:3003   */\n      0x00\n        /* \"#utility.yul\":3046:3048   */\n      0x40\n        /* \"#utility.yul\":3034:3043   */\n      dup4\n        /* \"#utility.yul\":3025:3032   */\n      dup6\n        /* \"#utility.yul\":3021:3044   */\n      sub\n        /* \"#utility.yul\":3017:3049   */\n      slt\n        /* \"#utility.yul\":3014:3133   */\n      iszero\n      tag_494\n      jumpi\n        /* \"#utility.yul\":3052:3131   */\n      tag_495\n      tag_359\n      jump\t// in\n    tag_495:\n        /* \"#utility.yul\":3014:3133   */\n    tag_494:\n        /* \"#utility.yul\":3172:3173   */\n      0x00\n        /* \"#utility.yul\":3197:3250   */\n      tag_496\n        /* \"#utility.yul\":3242:3249   */\n      dup6\n        /* \"#utility.yul\":3233:3239   */\n      dup3\n        /* \"#utility.yul\":3222:3231   */\n      dup7\n        /* \"#utility.yul\":3218:3240   */\n      add\n        /* \"#utility.yul\":3197:3250   */\n      tag_363\n      jump\t// in\n    tag_496:\n        /* \"#utility.yul\":3187:3250   */\n      swap3\n      pop\n        /* \"#utility.yul\":3143:3260   */\n      pop\n        /* \"#utility.yul\":3327:3329   */\n      0x20\n        /* \"#utility.yul\":3316:3325   */\n      dup4\n        /* \"#utility.yul\":3312:3330   */\n      add\n        /* \"#utility.yul\":3299:3331   */\n      calldataload\n        /* \"#utility.yul\":3358:3376   */\n      0xffffffffffffffff\n        /* \"#utility.yul\":3350:3356   */\n      dup2\n        /* \"#utility.yul\":3347:3377   */\n      gt\n        /* \"#utility.yul\":3344:3461   */\n      iszero\n      tag_497\n      jumpi\n        /* \"#utility.yul\":3380:3459   */\n      tag_498\n      tag_360\n      jump\t// in\n    tag_498:\n        /* \"#utility.yul\":3344:3461   */\n    tag_497:\n        /* \"#utility.yul\":3485:3548   */\n      tag_499\n        /* \"#utility.yul\":3540:3547   */\n      dup6\n        /* \"#utility.yul\":3531:3537   */\n      dup3\n        /* \"#utility.yul\":3520:3529   */\n      dup7\n        /* \"#utility.yul\":3516:3538   */\n      add\n        /* \"#utility.yul\":3485:3548   */\n      tag_373\n      jump\t// in\n    tag_499:\n        /* \"#utility.yul\":3475:3548   */\n      swap2\n      pop\n        /* \"#utility.yul\":3270:3558   */\n      pop\n        /* \"#utility.yul\":2911:3565   */\n      swap3\n      pop\n      swap3\n      swap1\n      pop\n      jump\t// out\n        /* \"#utility.yul\":3571:3670   */\n    tag_374:\n        /* \"#utility.yul\":3623:3629   */\n      0x00\n        /* \"#utility.yul\":3657:3662   */\n      dup2\n        /* \"#utility.yul\":3651:3663   */\n      mload\n        /* \"#utility.yul\":3641:3663   */\n      swap1\n      pop\n        /* \"#utility.yul\":3571:3670   */\n      swap2\n      swap1\n      pop\n      jump\t// out\n        /* \"#utility.yul\":3676:3835   */\n    tag_375:\n        /* \"#utility.yul\":3750:3761   */\n      0x00\n        /* \"#utility.yul\":3784:3790   */\n      dup3\n        /* \"#utility.yul\":3779:3782   */\n      dup3\n        /* \"#utility.yul\":3772:3791   */\n      mstore\n        /* \"#utility.yul\":3824:3828   */\n      0x20\n        /* \"#utility.yul\":3819:3822   */\n      dup3\n        /* \"#utility.yul\":3815:3829   */\n      add\n        /* \"#utility.yul\":3800:3829   */\n      swap1\n      pop\n        /* \"#utility.yul\":3676:3835   */\n      swap3\n      swap2\n      pop\n      pop\n      jump\t// out\n        /* \"#utility.yul\":3841:3980   */\n    tag_376:\n        /* \"#utility.yul\":3930:3936   */\n      dup3\n        /* \"#utility.yul\":3925:3928   */\n      dup2\n        /* \"#utility.yul\":3920:3923   */\n      dup4\n        /* \"#utility.yul\":3914:3937   */\n      mcopy\n        /* \"#utility.yul\":3971:3972   */\n      0x00\n        /* \"#utility.yul\":3962:3968   */\n      dup4\n        /* \"#utility.yul\":3957:3960   */\n      dup4\n        /* \"#utility.yul\":3953:3969   */\n      add\n        /* \"#utility.yul\":3946:3973   */\n      mstore\n        /* \"#utility.yul\":3841:3980   */\n      pop\n      pop\n      pop\n      jump\t// out\n        /* \"#utility.yul\":3986:4343   */\n    tag_377:\n        /* \"#utility.yul\":4064:4067   */\n      0x00\n        /* \"#utility.yul\":4092:4131   */\n      tag_504\n        /* \"#utility.yul\":4125:4130   */\n      dup3\n        /* \"#utility.yul\":4092:4131   */\n      tag_374\n      jump\t// in\n    tag_504:\n        /* \"#utility.yul\":4147:4208   */\n      tag_505\n        /* \"#utility.yul\":4201:4207   */\n      dup2\n        /* \"#utility.yul\":4196:4199   */\n      dup6\n        /* \"#utility.yul\":4147:4208   */\n      tag_375\n      jump\t// in\n    tag_505:\n        /* \"#utility.yul\":4140:4208   */\n      swap4\n      pop\n        /* \"#utility.yul\":4217:4282   */\n      tag_506\n        /* \"#utility.yul\":4275:4281   */\n      dup2\n        /* \"#utility.yul\":4270:4273   */\n      dup6\n        /* \"#utility.yul\":4263:4267   */\n      0x20\n        /* \"#utility.yul\":4256:4261   */\n      dup7\n        /* \"#utility.yul\":4252:4268   */\n      add\n        /* \"#utility.yul\":4217:4282   */\n      tag_376\n      jump\t// in\n    tag_506:\n        /* \"#utility.yul\":4307:4336   */\n      tag_507\n        /* \"#utility.yul\":4329:4335   */\n      dup2\n        /* \"#utility.yul\":4307:4336   */\n      tag_366\n      jump\t// in\n    tag_507:\n        /* \"#utility.yul\":4302:4305   */\n      dup5\n        /* \"#utility.yul\":4298:4337   */\n      add\n        /* \"#utility.yul\":4291:4337   */\n      swap2\n      pop\n        /* \"#utility.yul\":4068:4343   */\n      pop\n        /* \"#utility.yul\":3986:4343   */\n      swap3\n      swap2\n      pop\n      pop\n      jump\t// out\n        /* \"#utility.yul\":4401:4826   */\n    tag_378:\n        /* \"#utility.yul\":4512:4515   */\n      0x00\n        /* \"#utility.yul\":4548:4552   */\n      0x20\n        /* \"#utility.yul\":4543:4546   */\n      dup4\n        /* \"#utility.yul\":4539:4553   */\n      add\n        /* \"#utility.yul\":4636:4640   */\n      0x00\n        /* \"#utility.yul\":4629:4634   */\n      dup4\n        /* \"#utility.yul\":4625:4641   */\n      add\n        /* \"#utility.yul\":4619:4642   */\n      mload\n        /* \"#utility.yul\":4689:4692   */\n      dup5\n        /* \"#utility.yul\":4683:4687   */\n      dup3\n        /* \"#utility.yul\":4679:4693   */\n      sub\n        /* \"#utility.yul\":4672:4676   */\n      0x00\n        /* \"#utility.yul\":4667:4670   */\n      dup7\n        /* \"#utility.yul\":4663:4677   */\n      add\n        /* \"#utility.yul\":4656:4694   */\n      mstore\n        /* \"#utility.yul\":4715:4788   */\n      tag_509\n        /* \"#utility.yul\":4783:4787   */\n      dup3\n        /* \"#utility.yul\":4769:4781   */\n      dup3\n        /* \"#utility.yul\":4715:4788   */\n      tag_377\n      jump\t// in\n    tag_509:\n        /* \"#utility.yul\":4707:4788   */\n      swap2\n      pop\n        /* \"#utility.yul\":4563:4799   */\n      pop\n        /* \"#utility.yul\":4816:4820   */\n      dup1\n        /* \"#utility.yul\":4809:4820   */\n      swap2\n      pop\n        /* \"#utility.yul\":4517:4826   */\n      pop\n        /* \"#utility.yul\":4401:4826   */\n      swap3\n      swap2\n      pop\n      pop\n      jump\t// out\n        /* \"#utility.yul\":4832:4950   */\n    tag_379:\n        /* \"#utility.yul\":4919:4943   */\n      tag_511\n        /* \"#utility.yul\":4937:4942   */\n      dup2\n        /* \"#utility.yul\":4919:4943   */\n      tag_361\n      jump\t// in\n    tag_511:\n        /* \"#utility.yul\":4914:4917   */\n      dup3\n        /* \"#utility.yul\":4907:4944   */\n      mstore\n        /* \"#utility.yul\":4832:4950   */\n      pop\n      pop\n      jump\t// out\n        /* \"#utility.yul\":4956:5423   */\n    tag_32:\n        /* \"#utility.yul\":5119:5123   */\n      0x00\n        /* \"#utility.yul\":5157:5159   */\n      0x40\n        /* \"#utility.yul\":5146:5155   */\n      dup3\n        /* \"#utility.yul\":5142:5160   */\n      add\n        /* \"#utility.yul\":5134:5160   */\n      swap1\n      pop\n        /* \"#utility.yul\":5206:5215   */\n      dup2\n        /* \"#utility.yul\":5200:5204   */\n      dup2\n        /* \"#utility.yul\":5196:5216   */\n      sub\n        /* \"#utility.yul\":5192:5193   */\n      0x00\n        /* \"#utility.yul\":5181:5190   */\n      dup4\n        /* \"#utility.yul\":5177:5194   */\n      add\n        /* \"#utility.yul\":5170:5217   */\n      mstore\n        /* \"#utility.yul\":5234:5334   */\n      tag_513\n        /* \"#utility.yul\":5329:5333   */\n      dup2\n        /* \"#utility.yul\":5320:5326   */\n      dup6\n        /* \"#utility.yul\":5234:5334   */\n      tag_378\n      jump\t// in\n    tag_513:\n        /* \"#utility.yul\":5226:5334   */\n      swap1\n      pop\n        /* \"#utility.yul\":5344:5416   */\n      tag_514\n        /* \"#utility.yul\":5412:5414   */\n      0x20\n        /* \"#utility.yul\":5401:5410   */\n      dup4\n        /* \"#utility.yul\":5397:5415   */\n      add\n        /* \"#utility.yul\":5388:5394   */\n      dup5\n        /* \"#utility.yul\":5344:5416   */\n      tag_379\n      jump\t// in\n    tag_514:\n        /* \"#utility.yul\":4956:5423   */\n      swap4\n      swap3\n      pop\n      pop\n      pop\n      jump\t// out\n        /* \"#utility.yul\":5429:5555   */\n    tag_380:\n        /* \"#utility.yul\":5466:5473   */\n      0x00\n        /* \"#utility.yul\":5506:5548   */\n      0xffffffffffffffffffffffffffffffffffffffff\n        /* \"#utility.yul\":5499:5504   */\n      dup3\n        /* \"#utility.yul\":5495:5549   */\n      and\n        /* \"#utility.yul\":5484:5549   */\n      swap1\n      pop\n        /* \"#utility.yul\":5429:5555   */\n      swap2\n      swap1\n      pop\n      jump\t// out\n        /* \"#utility.yul\":5561:5657   */\n    tag_381:\n        /* \"#utility.yul\":5598:5605   */\n      0x00\n        /* \"#utility.yul\":5627:5651   */\n      tag_517\n        /* \"#utility.yul\":5645:5650   */\n      dup3\n        /* \"#utility.yul\":5627:5651   */\n      tag_380\n      jump\t// in\n    tag_517:\n        /* \"#utility.yul\":5616:5651   */\n      swap1\n      pop\n        /* \"#utility.yul\":5561:5657   */\n      swap2\n      swap1\n      pop\n      jump\t// out\n        /* \"#utility.yul\":5663:5785   */\n    tag_382:\n        /* \"#utility.yul\":5736:5760   */\n      tag_519\n        /* \"#utility.yul\":5754:5759   */\n      dup2\n        /* \"#utility.yul\":5736:5760   */\n      tag_381\n      jump\t// in\n    tag_519:\n        /* \"#utility.yul\":5729:5734   */\n      dup2\n        /* \"#utility.yul\":5726:5761   */\n      eq\n        /* \"#utility.yul\":5716:5779   */\n      tag_520\n      jumpi\n        /* \"#utility.yul\":5775:5776   */\n      0x00\n        /* \"#utility.yul\":5772:5773   */\n      0x00\n        /* \"#utility.yul\":5765:5777   */\n      revert\n        /* \"#utility.yul\":5716:5779   */\n    tag_520:\n        /* \"#utility.yul\":5663:5785   */\n      pop\n      jump\t// out\n        /* \"#utility.yul\":5791:5930   */\n    tag_383:\n        /* \"#utility.yul\":5837:5842   */\n      0x00\n        /* \"#utility.yul\":5875:5881   */\n      dup2\n        /* \"#utility.yul\":5862:5882   */\n      calldataload\n        /* \"#utility.yul\":5853:5882   */\n      swap1\n      pop\n        /* \"#utility.yul\":5891:5924   */\n      tag_522\n        /* \"#utility.yul\":5918:5923   */\n      dup2\n        /* \"#utility.yul\":5891:5924   */\n      tag_382\n      jump\t// in\n    tag_522:\n        /* \"#utility.yul\":5791:5930   */\n      swap3\n      swap2\n      pop\n      pop\n      jump\t// out\n        /* \"#utility.yul\":5936:6041   */\n    tag_384:\n        /* \"#utility.yul\":6015:6016   */\n      0x04\n        /* \"#utility.yul\":6008:6013   */\n      dup2\n        /* \"#utility.yul\":6005:6017   */\n      lt\n        /* \"#utility.yul\":5995:6035   */\n      tag_524\n      jumpi\n        /* \"#utility.yul\":6031:6032   */\n      0x00\n        /* \"#utility.yul\":6028:6029   */\n      0x00\n        /* \"#utility.yul\":6021:6033   */\n      revert\n        /* \"#utility.yul\":5995:6035   */\n    tag_524:\n        /* \"#utility.yul\":5936:6041   */\n      pop\n      jump\t// out\n        /* \"#utility.yul\":6047:6198   */\n    tag_385:\n        /* \"#utility.yul\":6099:6104   */\n      0x00\n        /* \"#utility.yul\":6137:6143   */\n      dup2\n        /* \"#utility.yul\":6124:6144   */\n      calldataload\n        /* \"#utility.yul\":6115:6144   */\n      swap1\n      pop\n        /* \"#utility.yul\":6153:6192   */\n      tag_526\n        /* \"#utility.yul\":6186:6191   */\n      dup2\n        /* \"#utility.yul\":6153:6192   */\n      tag_384\n      jump\t// in\n    tag_526:\n        /* \"#utility.yul\":6047:6198   */\n      swap3\n      swap2\n      pop\n      pop\n      jump\t// out\n        /* \"#utility.yul\":6204:6690   */\n    tag_35:\n        /* \"#utility.yul\":6278:6284   */\n      0x00\n        /* \"#utility.yul\":6286:6292   */\n      0x00\n        /* \"#utility.yul\":6335:6337   */\n      0x40\n        /* \"#utility.yul\":6323:6332   */\n      dup4\n        /* \"#utility.yul\":6314:6321   */\n      dup6\n        /* \"#utility.yul\":6310:6333   */\n      sub\n        /* \"#utility.yul\":6306:6338   */\n      slt\n        /* \"#utility.yul\":6303:6422   */\n      iszero\n      tag_528\n      jumpi\n        /* \"#utility.yul\":6341:6420   */\n      tag_529\n      tag_359\n      jump\t// in\n    tag_529:\n        /* \"#utility.yul\":6303:6422   */\n    tag_528:\n        /* \"#utility.yul\":6461:6462   */\n      0x00\n        /* \"#utility.yul\":6486:6539   */\n      tag_530\n        /* \"#utility.yul\":6531:6538   */\n      dup6\n        /* \"#utility.yul\":6522:6528   */\n      dup3\n        /* \"#utility.yul\":6511:6520   */\n      dup7\n        /* \"#utility.yul\":6507:6529   */\n      add\n        /* \"#utility.yul\":6486:6539   */\n      tag_383\n      jump\t// in\n    tag_530:\n        /* \"#utility.yul\":6476:6539   */\n      swap3\n      pop\n        /* \"#utility.yul\":6432:6549   */\n      pop\n        /* \"#utility.yul\":6588:6590   */\n      0x20\n        /* \"#utility.yul\":6614:6673   */\n      tag_531\n        /* \"#utility.yul\":6665:6672   */\n      dup6\n        /* \"#utility.yul\":6656:6662   */\n      dup3\n        /* \"#utility.yul\":6645:6654   */\n      dup7\n        /* \"#utility.yul\":6641:6663   */\n      add\n        /* \"#utility.yul\":6614:6673   */\n      tag_385\n      jump\t// in\n    tag_531:\n        /* \"#utility.yul\":6604:6673   */\n      swap2\n      pop\n        /* \"#utility.yul\":6559:6683   */\n      pop\n        /* \"#utility.yul\":6204:6690   */\n      swap3\n      pop\n      swap3\n      swap1\n      pop\n      jump\t// out\n        /* \"#utility.yul\":6696:6786   */\n    tag_386:\n        /* \"#utility.yul\":6730:6737   */\n      0x00\n        /* \"#utility.yul\":6773:6778   */\n      dup2\n        /* \"#utility.yul\":6766:6779   */\n      iszero\n        /* \"#utility.yul\":6759:6780   */\n      iszero\n        /* \"#utility.yul\":6748:6780   */\n      swap1\n      pop\n        /* \"#utility.yul\":6696:6786   */\n      swap2\n      swap1\n      pop\n      jump\t// out\n        /* \"#utility.yul\":6792:6901   */\n    tag_387:\n        /* \"#utility.yul\":6873:6894   */\n      tag_534\n        /* \"#utility.yul\":6888:6893   */\n      dup2\n        /* \"#utility.yul\":6873:6894   */\n      tag_386\n      jump\t// in\n    tag_534:\n        /* \"#utility.yul\":6868:6871   */\n      dup3\n        /* \"#utility.yul\":6861:6895   */\n      mstore\n        /* \"#utility.yul\":6792:6901   */\n      pop\n      pop\n      jump\t// out\n        /* \"#utility.yul\":6907:7117   */\n    tag_38:\n        /* \"#utility.yul\":6994:6998   */\n      0x00\n        /* \"#utility.yul\":7032:7034   */\n      0x20\n        /* \"#utility.yul\":7021:7030   */\n      dup3\n        /* \"#utility.yul\":7017:7035   */\n      add\n        /* \"#utility.yul\":7009:7035   */\n      swap1\n      pop\n        /* \"#utility.yul\":7045:7110   */\n      tag_536\n        /* \"#utility.yul\":7107:7108   */\n      0x00\n        /* \"#utility.yul\":7096:7105   */\n      dup4\n        /* \"#utility.yul\":7092:7109   */\n      add\n        /* \"#utility.yul\":7083:7089   */\n      dup5\n        /* \"#utility.yul\":7045:7110   */\n      tag_387\n      jump\t// in\n    tag_536:\n        /* \"#utility.yul\":6907:7117   */\n      swap3\n      swap2\n      pop\n      pop\n      jump\t// out\n        /* \"#utility.yul\":7123:7452   */\n    tag_41:\n        /* \"#utility.yul\":7182:7188   */\n      0x00\n        /* \"#utility.yul\":7231:7233   */\n      0x20\n        /* \"#utility.yul\":7219:7228   */\n      dup3\n        /* \"#utility.yul\":7210:7217   */\n      dup5\n        /* \"#utility.yul\":7206:7229   */\n      sub\n        /* \"#utility.yul\":7202:7234   */\n      slt\n        /* \"#utility.yul\":7199:7318   */\n      iszero\n      tag_538\n      jumpi\n        /* \"#utility.yul\":7237:7316   */\n      tag_539\n      tag_359\n      jump\t// in\n    tag_539:\n        /* \"#utility.yul\":7199:7318   */\n    tag_538:\n        /* \"#utility.yul\":7357:7358   */\n      0x00\n        /* \"#utility.yul\":7382:7435   */\n      tag_540\n        /* \"#utility.yul\":7427:7434   */\n      dup5\n        /* \"#utility.yul\":7418:7424   */\n      dup3\n        /* \"#utility.yul\":7407:7416   */\n      dup6\n        /* \"#utility.yul\":7403:7425   */\n      add\n        /* \"#utility.yul\":7382:7435   */\n      tag_383\n      jump\t// in\n    tag_540:\n        /* \"#utility.yul\":7372:7435   */\n      swap2\n      pop\n        /* \"#utility.yul\":7328:7445   */\n      pop\n        /* \"#utility.yul\":7123:7452   */\n      swap3\n      swap2\n      pop\n      pop\n      jump\t// out\n        /* \"#utility.yul\":7458:7638   */\n    tag_145:\n        /* \"#utility.yul\":7506:7583   */\n      0x4e487b7100000000000000000000000000000000000000000000000000000000\n        /* \"#utility.yul\":7503:7504   */\n      0x00\n        /* \"#utility.yul\":7496:7584   */\n      mstore\n        /* \"#utility.yul\":7603:7607   */\n      0x21\n        /* \"#utility.yul\":7600:7601   */\n      0x04\n        /* \"#utility.yul\":7593:7608   */\n      mstore\n        /* \"#utility.yul\":7627:7631   */\n      0x24\n        /* \"#utility.yul\":7624:7625   */\n      0x00\n        /* \"#utility.yul\":7617:7632   */\n      revert\n        /* \"#utility.yul\":7644:7755   */\n    tag_388:\n        /* \"#utility.yul\":7723:7724   */\n      0x04\n        /* \"#utility.yul\":7716:7721   */\n      dup2\n        /* \"#utility.yul\":7713:7725   */\n      lt\n        /* \"#utility.yul\":7703:7749   */\n      tag_543\n      jumpi\n        /* \"#utility.yul\":7729:7747   */\n      tag_544\n      tag_145\n      jump\t// in\n    tag_544:\n        /* \"#utility.yul\":7703:7749   */\n    tag_543:\n        /* \"#utility.yul\":7644:7755   */\n      pop\n      jump\t// out\n        /* \"#utility.yul\":7761:7884   */\n    tag_389:\n        /* \"#utility.yul\":7804:7811   */\n      0x00\n        /* \"#utility.yul\":7833:7838   */\n      dup2\n        /* \"#utility.yul\":7822:7838   */\n      swap1\n      pop\n        /* \"#utility.yul\":7839:7878   */\n      tag_546\n        /* \"#utility.yul\":7872:7877   */\n      dup3\n        /* \"#utility.yul\":7839:7878   */\n      tag_388\n      jump\t// in\n    tag_546:\n        /* \"#utility.yul\":7761:7884   */\n      swap2\n      swap1\n      pop\n      jump\t// out\n        /* \"#utility.yul\":7890:8013   */\n    tag_390:\n        /* \"#utility.yul\":7944:7953   */\n      0x00\n        /* \"#utility.yul\":7977:8007   */\n      tag_548\n        /* \"#utility.yul\":8001:8006   */\n      dup3\n        /* \"#utility.yul\":7977:8007   */\n      tag_389\n      jump\t// in\n    tag_548:\n        /* \"#utility.yul\":7964:8007   */\n      swap1\n      pop\n        /* \"#utility.yul\":7890:8013   */\n      swap2\n      swap1\n      pop\n      jump\t// out\n        /* \"#utility.yul\":8019:8158   */\n    tag_391:\n        /* \"#utility.yul\":8110:8151   */\n      tag_550\n        /* \"#utility.yul\":8145:8150   */\n      dup2\n        /* \"#utility.yul\":8110:8151   */\n      tag_390\n      jump\t// in\n    tag_550:\n        /* \"#utility.yul\":8105:8108   */\n      dup3\n        /* \"#utility.yul\":8098:8152   */\n      mstore\n        /* \"#utility.yul\":8019:8158   */\n      pop\n      pop\n      jump\t// out\n        /* \"#utility.yul\":8164:8394   */\n    tag_44:\n        /* \"#utility.yul\":8261:8265   */\n      0x00\n        /* \"#utility.yul\":8299:8301   */\n      0x20\n        /* \"#utility.yul\":8288:8297   */\n      dup3\n        /* \"#utility.yul\":8284:8302   */\n      add\n        /* \"#utility.yul\":8276:8302   */\n      swap1\n      pop\n        /* \"#utility.yul\":8312:8387   */\n      tag_552\n        /* \"#utility.yul\":8384:8385   */\n      0x00\n        /* \"#utility.yul\":8373:8382   */\n      dup4\n        /* \"#utility.yul\":8369:8386   */\n      add\n        /* \"#utility.yul\":8360:8366   */\n      dup5\n        /* \"#utility.yul\":8312:8387   */\n      tag_391\n      jump\t// in\n    tag_552:\n        /* \"#utility.yul\":8164:8394   */\n      swap3\n      swap2\n      pop\n      pop\n      jump\t// out\n        /* \"#utility.yul\":8400:8729   */\n    tag_47:\n        /* \"#utility.yul\":8459:8465   */\n      0x00\n        /* \"#utility.yul\":8508:8510   */\n      0x20\n        /* \"#utility.yul\":8496:8505   */\n      dup3\n        /* \"#utility.yul\":8487:8494   */\n      dup5\n        /* \"#utility.yul\":8483:8506   */\n      sub\n        /* \"#utility.yul\":8479:8511   */\n      slt\n        /* \"#utility.yul\":8476:8595   */\n      iszero\n      tag_554\n      jumpi\n        /* \"#utility.yul\":8514:8593   */\n      tag_555\n      tag_359\n      jump\t// in\n    tag_555:\n        /* \"#utility.yul\":8476:8595   */\n    tag_554:\n        /* \"#utility.yul\":8634:8635   */\n      0x00\n        /* \"#utility.yul\":8659:8712   */\n      tag_556\n        /* \"#utility.yul\":8704:8711   */\n      dup5\n        /* \"#utility.yul\":8695:8701   */\n      dup3\n        /* \"#utility.yul\":8684:8693   */\n      dup6\n        /* \"#utility.yul\":8680:8702   */\n      add\n        /* \"#utility.yul\":8659:8712   */\n      tag_363\n      jump\t// in\n    tag_556:\n        /* \"#utility.yul\":8649:8712   */\n      swap2\n      pop\n        /* \"#utility.yul\":8605:8722   */\n      pop\n        /* \"#utility.yul\":8400:8729   */\n      swap3\n      swap2\n      pop\n      pop\n      jump\t// out\n        /* \"#utility.yul\":8735:8957   */\n    tag_50:\n        /* \"#utility.yul\":8828:8832   */\n      0x00\n        /* \"#utility.yul\":8866:8868   */\n      0x20\n        /* \"#utility.yul\":8855:8864   */\n      dup3\n        /* \"#utility.yul\":8851:8869   */\n      add\n        /* \"#utility.yul\":8843:8869   */\n      swap1\n      pop\n        /* \"#utility.yul\":8879:8950   */\n      tag_558\n        /* \"#utility.yul\":8947:8948   */\n      0x00\n        /* \"#utility.yul\":8936:8945   */\n      dup4\n        /* \"#utility.yul\":8932:8949   */\n      add\n        /* \"#utility.yul\":8923:8929   */\n      dup5\n        /* \"#utility.yul\":8879:8950   */\n      tag_379\n      jump\t// in\n    tag_558:\n        /* \"#utility.yul\":8735:8957   */\n      swap3\n      swap2\n      pop\n      pop\n      jump\t// out\n        /* \"#utility.yul\":8963:9132   */\n    tag_392:\n        /* \"#utility.yul\":9047:9058   */\n      0x00\n        /* \"#utility.yul\":9081:9087   */\n      dup3\n        /* \"#utility.yul\":9076:9079   */\n      dup3\n        /* \"#utility.yul\":9069:9088   */\n      mstore\n        /* \"#utility.yul\":9121:9125   */\n      0x20\n        /* \"#utility.yul\":9116:9119   */\n      dup3\n        /* \"#utility.yul\":9112:9126   */\n      add\n        /* \"#utility.yul\":9097:9126   */\n      swap1\n      pop\n        /* \"#utility.yul\":8963:9132   */\n      swap3\n      swap2\n      pop\n      pop\n      jump\t// out\n        /* \"#utility.yul\":9138:9515   */\n    tag_393:\n        /* \"#utility.yul\":9226:9229   */\n      0x00\n        /* \"#utility.yul\":9254:9293   */\n      tag_561\n        /* \"#utility.yul\":9287:9292   */\n      dup3\n        /* \"#utility.yul\":9254:9293   */\n      tag_374\n      jump\t// in\n    tag_561:\n        /* \"#utility.yul\":9309:9380   */\n      tag_562\n        /* \"#utility.yul\":9373:9379   */\n      dup2\n        /* \"#utility.yul\":9368:9371   */\n      dup6\n        /* \"#utility.yul\":9309:9380   */\n      tag_392\n      jump\t// in\n    tag_562:\n        /* \"#utility.yul\":9302:9380   */\n      swap4\n      pop\n        /* \"#utility.yul\":9389:9454   */\n      tag_563\n        /* \"#utility.yul\":9447:9453   */\n      dup2\n        /* \"#utility.yul\":9442:9445   */\n      dup6\n        /* \"#utility.yul\":9435:9439   */\n      0x20\n        /* \"#utility.yul\":9428:9433   */\n      dup7\n        /* \"#utility.yul\":9424:9440   */\n      add\n        /* \"#utility.yul\":9389:9454   */\n      tag_376\n      jump\t// in\n    tag_563:\n        /* \"#utility.yul\":9479:9508   */\n      tag_564\n        /* \"#utility.yul\":9501:9507   */\n      dup2\n        /* \"#utility.yul\":9479:9508   */\n      tag_366\n      jump\t// in\n    tag_564:\n        /* \"#utility.yul\":9474:9477   */\n      dup5\n        /* \"#utility.yul\":9470:9509   */\n      add\n        /* \"#utility.yul\":9463:9509   */\n      swap2\n      pop\n        /* \"#utility.yul\":9230:9515   */\n      pop\n        /* \"#utility.yul\":9138:9515   */\n      swap3\n      swap2\n      pop\n      pop\n      jump\t// out\n        /* \"#utility.yul\":9521:9834   */\n    tag_55:\n        /* \"#utility.yul\":9634:9638   */\n      0x00\n        /* \"#utility.yul\":9672:9674   */\n      0x20\n        /* \"#utility.yul\":9661:9670   */\n      dup3\n        /* \"#utility.yul\":9657:9675   */\n      add\n        /* \"#utility.yul\":9649:9675   */\n      swap1\n      pop\n        /* \"#utility.yul\":9721:9730   */\n      dup2\n        /* \"#utility.yul\":9715:9719   */\n      dup2\n        /* \"#utility.yul\":9711:9731   */\n      sub\n        /* \"#utility.yul\":9707:9708   */\n      0x00\n        /* \"#utility.yul\":9696:9705   */\n      dup4\n        /* \"#utility.yul\":9692:9709   */\n      add\n        /* \"#utility.yul\":9685:9732   */\n      mstore\n        /* \"#utility.yul\":9749:9827   */\n      tag_566\n        /* \"#utility.yul\":9822:9826   */\n      dup2\n        /* \"#utility.yul\":9813:9819   */\n      dup5\n        /* \"#utility.yul\":9749:9827   */\n      tag_393\n      jump\t// in\n    tag_566:\n        /* \"#utility.yul\":9741:9827   */\n      swap1\n      pop\n        /* \"#utility.yul\":9521:9834   */\n      swap3\n      swap2\n      pop\n      pop\n      jump\t// out\n        /* \"#utility.yul\":9840:10471   */\n    tag_58:\n        /* \"#utility.yul\":9923:9929   */\n      0x00\n        /* \"#utility.yul\":9931:9937   */\n      0x00\n        /* \"#utility.yul\":9939:9945   */\n      0x00\n        /* \"#utility.yul\":9988:9990   */\n      0x60\n        /* \"#utility.yul\":9976:9985   */\n      dup5\n        /* \"#utility.yul\":9967:9974   */\n      dup7\n        /* \"#utility.yul\":9963:9986   */\n      sub\n        /* \"#utility.yul\":9959:9991   */\n      slt\n        /* \"#utility.yul\":9956:10075   */\n      iszero\n      tag_568\n      jumpi\n        /* \"#utility.yul\":9994:10073   */\n      tag_569\n      tag_359\n      jump\t// in\n    tag_569:\n        /* \"#utility.yul\":9956:10075   */\n    tag_568:\n        /* \"#utility.yul\":10114:10115   */\n      0x00\n        /* \"#utility.yul\":10139:10192   */\n      tag_570\n        /* \"#utility.yul\":10184:10191   */\n      dup7\n        /* \"#utility.yul\":10175:10181   */\n      dup3\n        /* \"#utility.yul\":10164:10173   */\n      dup8\n        /* \"#utility.yul\":10160:10182   */\n      add\n        /* \"#utility.yul\":10139:10192   */\n      tag_383\n      jump\t// in\n    tag_570:\n        /* \"#utility.yul\":10129:10192   */\n      swap4\n      pop\n        /* \"#utility.yul\":10085:10202   */\n      pop\n        /* \"#utility.yul\":10241:10243   */\n      0x20\n        /* \"#utility.yul\":10267:10320   */\n      tag_571\n        /* \"#utility.yul\":10312:10319   */\n      dup7\n        /* \"#utility.yul\":10303:10309   */\n      dup3\n        /* \"#utility.yul\":10292:10301   */\n      dup8\n        /* \"#utility.yul\":10288:10310   */\n      add\n        /* \"#utility.yul\":10267:10320   */\n      tag_383\n      jump\t// in\n    tag_571:\n        /* \"#utility.yul\":10257:10320   */\n      swap3\n      pop\n        /* \"#utility.yul\":10212:10330   */\n      pop\n        /* \"#utility.yul\":10369:10371   */\n      0x40\n        /* \"#utility.yul\":10395:10454   */\n      tag_572\n        /* \"#utility.yul\":10446:10453   */\n      dup7\n        /* \"#utility.yul\":10437:10443   */\n      dup3\n        /* \"#utility.yul\":10426:10435   */\n      dup8\n        /* \"#utility.yul\":10422:10444   */\n      add\n        /* \"#utility.yul\":10395:10454   */\n      tag_385\n      jump\t// in\n    tag_572:\n        /* \"#utility.yul\":10385:10454   */\n      swap2\n      pop\n        /* \"#utility.yul\":10340:10464   */\n      pop\n        /* \"#utility.yul\":9840:10471   */\n      swap3\n      pop\n      swap3\n      pop\n      swap3\n      jump\t// out\n        /* \"#utility.yul\":10477:10595   */\n    tag_394:\n        /* \"#utility.yul\":10564:10588   */\n      tag_574\n        /* \"#utility.yul\":10582:10587   */\n      dup2\n        /* \"#utility.yul\":10564:10588   */\n      tag_381\n      jump\t// in\n    tag_574:\n        /* \"#utility.yul\":10559:10562   */\n      dup3\n        /* \"#utility.yul\":10552:10589   */\n      mstore\n        /* \"#utility.yul\":10477:10595   */\n      pop\n      pop\n      jump\t// out\n        /* \"#utility.yul\":10601:11039   */\n    tag_61:\n        /* \"#utility.yul\":10748:10752   */\n      0x00\n        /* \"#utility.yul\":10786:10788   */\n      0x60\n        /* \"#utility.yul\":10775:10784   */\n      dup3\n        /* \"#utility.yul\":10771:10789   */\n      add\n        /* \"#utility.yul\":10763:10789   */\n      swap1\n      pop\n        /* \"#utility.yul\":10799:10870   */\n      tag_576\n        /* \"#utility.yul\":10867:10868   */\n      0x00\n        /* \"#utility.yul\":10856:10865   */\n      dup4\n        /* \"#utility.yul\":10852:10869   */\n      add\n        /* \"#utility.yul\":10843:10849   */\n      dup7\n        /* \"#utility.yul\":10799:10870   */\n      tag_394\n      jump\t// in\n    tag_576:\n        /* \"#utility.yul\":10880:10956   */\n      tag_577\n        /* \"#utility.yul\":10952:10954   */\n      0x20\n        /* \"#utility.yul\":10941:10950   */\n      dup4\n        /* \"#utility.yul\":10937:10955   */\n      add\n        /* \"#utility.yul\":10928:10934   */\n      dup6\n        /* \"#utility.yul\":10880:10956   */\n      tag_391\n      jump\t// in\n    tag_577:\n        /* \"#utility.yul\":10966:11032   */\n      tag_578\n        /* \"#utility.yul\":11028:11030   */\n      0x40\n        /* \"#utility.yul\":11017:11026   */\n      dup4\n        /* \"#utility.yul\":11013:11031   */\n      add\n        /* \"#utility.yul\":11004:11010   */\n      dup5\n        /* \"#utility.yul\":10966:11032   */\n      tag_387\n      jump\t// in\n    tag_578:\n        /* \"#utility.yul\":10601:11039   */\n      swap5\n      swap4\n      pop\n      pop\n      pop\n      pop\n      jump\t// out\n        /* \"#utility.yul\":11045:11685   */\n    tag_68:\n        /* \"#utility.yul\":11240:11244   */\n      0x00\n        /* \"#utility.yul\":11278:11281   */\n      0x80\n        /* \"#utility.yul\":11267:11276   */\n      dup3\n        /* \"#utility.yul\":11263:11282   */\n      add\n        /* \"#utility.yul\":11255:11282   */\n      swap1\n      pop\n        /* \"#utility.yul\":11292:11367   */\n      tag_580\n        /* \"#utility.yul\":11364:11365   */\n      0x00\n        /* \"#utility.yul\":11353:11362   */\n      dup4\n        /* \"#utility.yul\":11349:11366   */\n      add\n        /* \"#utility.yul\":11340:11346   */\n      dup8\n        /* \"#utility.yul\":11292:11367   */\n      tag_391\n      jump\t// in\n    tag_580:\n        /* \"#utility.yul\":11377:11449   */\n      tag_581\n        /* \"#utility.yul\":11445:11447   */\n      0x20\n        /* \"#utility.yul\":11434:11443   */\n      dup4\n        /* \"#utility.yul\":11430:11448   */\n      add\n        /* \"#utility.yul\":11421:11427   */\n      dup7\n        /* \"#utility.yul\":11377:11449   */\n      tag_394\n      jump\t// in\n    tag_581:\n        /* \"#utility.yul\":11459:11525   */\n      tag_582\n        /* \"#utility.yul\":11521:11523   */\n      0x40\n        /* \"#utility.yul\":11510:11519   */\n      dup4\n        /* \"#utility.yul\":11506:11524   */\n      add\n        /* \"#utility.yul\":11497:11503   */\n      dup6\n        /* \"#utility.yul\":11459:11525   */\n      tag_387\n      jump\t// in\n    tag_582:\n        /* \"#utility.yul\":11572:11581   */\n      dup2\n        /* \"#utility.yul\":11566:11570   */\n      dup2\n        /* \"#utility.yul\":11562:11582   */\n      sub\n        /* \"#utility.yul\":11557:11559   */\n      0x60\n        /* \"#utility.yul\":11546:11555   */\n      dup4\n        /* \"#utility.yul\":11542:11560   */\n      add\n        /* \"#utility.yul\":11535:11583   */\n      mstore\n        /* \"#utility.yul\":11600:11678   */\n      tag_583\n        /* \"#utility.yul\":11673:11677   */\n      dup2\n        /* \"#utility.yul\":11664:11670   */\n      dup5\n        /* \"#utility.yul\":11600:11678   */\n      tag_393\n      jump\t// in\n    tag_583:\n        /* \"#utility.yul\":11592:11678   */\n      swap1\n      pop\n        /* \"#utility.yul\":11045:11685   */\n      swap6\n      swap5\n      pop\n      pop\n      pop\n      pop\n      pop\n      jump\t// out\n        /* \"#utility.yul\":11691:11806   */\n    tag_395:\n        /* \"#utility.yul\":11774:11775   */\n      0x03\n        /* \"#utility.yul\":11767:11772   */\n      dup2\n        /* \"#utility.yul\":11764:11776   */\n      lt\n        /* \"#utility.yul\":11754:11800   */\n      tag_585\n      jumpi\n        /* \"#utility.yul\":11780:11798   */\n      tag_586\n      tag_145\n      jump\t// in\n    tag_586:\n        /* \"#utility.yul\":11754:11800   */\n    tag_585:\n        /* \"#utility.yul\":11691:11806   */\n      pop\n      jump\t// out\n        /* \"#utility.yul\":11812:11943   */\n    tag_396:\n        /* \"#utility.yul\":11859:11866   */\n      0x00\n        /* \"#utility.yul\":11888:11893   */\n      dup2\n        /* \"#utility.yul\":11877:11893   */\n      swap1\n      pop\n        /* \"#utility.yul\":11894:11937   */\n      tag_588\n        /* \"#utility.yul\":11931:11936   */\n      dup3\n        /* \"#utility.yul\":11894:11937   */\n      tag_395\n      jump\t// in\n    tag_588:\n        /* \"#utility.yul\":11812:11943   */\n      swap2\n      swap1\n      pop\n      jump\t// out\n        /* \"#utility.yul\":11949:12080   */\n    tag_397:\n        /* \"#utility.yul\":12007:12016   */\n      0x00\n        /* \"#utility.yul\":12040:12074   */\n      tag_590\n        /* \"#utility.yul\":12068:12073   */\n      dup3\n        /* \"#utility.yul\":12040:12074   */\n      tag_396\n      jump\t// in\n    tag_590:\n        /* \"#utility.yul\":12027:12074   */\n      swap1\n      pop\n        /* \"#utility.yul\":11949:12080   */\n      swap2\n      swap1\n      pop\n      jump\t// out\n        /* \"#utility.yul\":12086:12233   */\n    tag_398:\n        /* \"#utility.yul\":12181:12226   */\n      tag_592\n        /* \"#utility.yul\":12220:12225   */\n      dup2\n        /* \"#utility.yul\":12181:12226   */\n      tag_397\n      jump\t// in\n    tag_592:\n        /* \"#utility.yul\":12176:12179   */\n      dup3\n        /* \"#utility.yul\":12169:12227   */\n      mstore\n        /* \"#utility.yul\":12086:12233   */\n      pop\n      pop\n      jump\t// out\n        /* \"#utility.yul\":12239:12477   */\n    tag_72:\n        /* \"#utility.yul\":12340:12344   */\n      0x00\n        /* \"#utility.yul\":12378:12380   */\n      0x20\n        /* \"#utility.yul\":12367:12376   */\n      dup3\n        /* \"#utility.yul\":12363:12381   */\n      add\n        /* \"#utility.yul\":12355:12381   */\n      swap1\n      pop\n        /* \"#utility.yul\":12391:12470   */\n      tag_594\n        /* \"#utility.yul\":12467:12468   */\n      0x00\n        /* \"#utility.yul\":12456:12465   */\n      dup4\n        /* \"#utility.yul\":12452:12469   */\n      add\n        /* \"#utility.yul\":12443:12449   */\n      dup5\n        /* \"#utility.yul\":12391:12470   */\n      tag_398\n      jump\t// in\n    tag_594:\n        /* \"#utility.yul\":12239:12477   */\n      swap3\n      swap2\n      pop\n      pop\n      jump\t// out\n        /* \"#utility.yul\":12483:13222   */\n    tag_88:\n        /* \"#utility.yul\":12700:12704   */\n      0x00\n        /* \"#utility.yul\":12738:12741   */\n      0xa0\n        /* \"#utility.yul\":12727:12736   */\n      dup3\n        /* \"#utility.yul\":12723:12742   */\n      add\n        /* \"#utility.yul\":12715:12742   */\n      swap1\n      pop\n        /* \"#utility.yul\":12752:12823   */\n      tag_596\n        /* \"#utility.yul\":12820:12821   */\n      0x00\n        /* \"#utility.yul\":12809:12818   */\n      dup4\n        /* \"#utility.yul\":12805:12822   */\n      add\n        /* \"#utility.yul\":12796:12802   */\n      dup9\n        /* \"#utility.yul\":12752:12823   */\n      tag_394\n      jump\t// in\n    tag_596:\n        /* \"#utility.yul\":12833:12899   */\n      tag_597\n        /* \"#utility.yul\":12895:12897   */\n      0x20\n        /* \"#utility.yul\":12884:12893   */\n      dup4\n        /* \"#utility.yul\":12880:12898   */\n      add\n        /* \"#utility.yul\":12871:12877   */\n      dup8\n        /* \"#utility.yul\":12833:12899   */\n      tag_387\n      jump\t// in\n    tag_597:\n        /* \"#utility.yul\":12909:12975   */\n      tag_598\n        /* \"#utility.yul\":12971:12973   */\n      0x40\n        /* \"#utility.yul\":12960:12969   */\n      dup4\n        /* \"#utility.yul\":12956:12974   */\n      add\n        /* \"#utility.yul\":12947:12953   */\n      dup7\n        /* \"#utility.yul\":12909:12975   */\n      tag_387\n      jump\t// in\n    tag_598:\n        /* \"#utility.yul\":12985:13061   */\n      tag_599\n        /* \"#utility.yul\":13057:13059   */\n      0x60\n        /* \"#utility.yul\":13046:13055   */\n      dup4\n        /* \"#utility.yul\":13042:13060   */\n      add\n        /* \"#utility.yul\":13033:13039   */\n      dup6\n        /* \"#utility.yul\":12985:13061   */\n      tag_391\n      jump\t// in\n    tag_599:\n        /* \"#utility.yul\":13109:13118   */\n      dup2\n        /* \"#utility.yul\":13103:13107   */\n      dup2\n        /* \"#utility.yul\":13099:13119   */\n      sub\n        /* \"#utility.yul\":13093:13096   */\n      0x80\n        /* \"#utility.yul\":13082:13091   */\n      dup4\n        /* \"#utility.yul\":13078:13097   */\n      add\n        /* \"#utility.yul\":13071:13120   */\n      mstore\n        /* \"#utility.yul\":13137:13215   */\n      tag_600\n        /* \"#utility.yul\":13210:13214   */\n      dup2\n        /* \"#utility.yul\":13201:13207   */\n      dup5\n        /* \"#utility.yul\":13137:13215   */\n      tag_393\n      jump\t// in\n    tag_600:\n        /* \"#utility.yul\":13129:13215   */\n      swap1\n      pop\n        /* \"#utility.yul\":12483:13222   */\n      swap7\n      swap6\n      pop\n      pop\n      pop\n      pop\n      pop\n      pop\n      jump\t// out\n        /* \"#utility.yul\":13228:13576   */\n    tag_96:\n        /* \"#utility.yul\":13357:13361   */\n      0x00\n        /* \"#utility.yul\":13395:13397   */\n      0x40\n        /* \"#utility.yul\":13384:13393   */\n      dup3\n        /* \"#utility.yul\":13380:13398   */\n      add\n        /* \"#utility.yul\":13372:13398   */\n      swap1\n      pop\n        /* \"#utility.yul\":13408:13479   */\n      tag_602\n        /* \"#utility.yul\":13476:13477   */\n      0x00\n        /* \"#utility.yul\":13465:13474   */\n      dup4\n        /* \"#utility.yul\":13461:13478   */\n      add\n        /* \"#utility.yul\":13452:13458   */\n      dup6\n        /* \"#utility.yul\":13408:13479   */\n      tag_379\n      jump\t// in\n    tag_602:\n        /* \"#utility.yul\":13489:13569   */\n      tag_603\n        /* \"#utility.yul\":13565:13567   */\n      0x20\n        /* \"#utility.yul\":13554:13563   */\n      dup4\n        /* \"#utility.yul\":13550:13568   */\n      add\n        /* \"#utility.yul\":13541:13547   */\n      dup5\n        /* \"#utility.yul\":13489:13569   */\n      tag_398\n      jump\t// in\n    tag_603:\n        /* \"#utility.yul\":13228:13576   */\n      swap4\n      swap3\n      pop\n      pop\n      pop\n      jump\t// out\n        /* \"#utility.yul\":13582:13804   */\n    tag_112:\n        /* \"#utility.yul\":13675:13679   */\n      0x00\n        /* \"#utility.yul\":13713:13715   */\n      0x20\n        /* \"#utility.yul\":13702:13711   */\n      dup3\n        /* \"#utility.yul\":13698:13716   */\n      add\n        /* \"#utility.yul\":13690:13716   */\n      swap1\n      pop\n        /* \"#utility.yul\":13726:13797   */\n      tag_605\n        /* \"#utility.yul\":13794:13795   */\n      0x00\n        /* \"#utility.yul\":13783:13792   */\n      dup4\n        /* \"#utility.yul\":13779:13796   */\n      add\n        /* \"#utility.yul\":13770:13776   */\n      dup5\n        /* \"#utility.yul\":13726:13797   */\n      tag_394\n      jump\t// in\n    tag_605:\n        /* \"#utility.yul\":13582:13804   */\n      swap3\n      swap2\n      pop\n      pop\n      jump\t// out\n        /* \"#utility.yul\":13810:13927   */\n    tag_399:\n        /* \"#utility.yul\":13919:13920   */\n      0x00\n        /* \"#utility.yul\":13916:13917   */\n      0x00\n        /* \"#utility.yul\":13909:13921   */\n      revert\n        /* \"#utility.yul\":13933:14050   */\n    tag_400:\n        /* \"#utility.yul\":14042:14043   */\n      0x00\n        /* \"#utility.yul\":14039:14040   */\n      0x00\n        /* \"#utility.yul\":14032:14044   */\n      revert\n        /* \"#utility.yul\":14070:14623   */\n    tag_401:\n        /* \"#utility.yul\":14128:14136   */\n      0x00\n        /* \"#utility.yul\":14138:14144   */\n      0x00\n        /* \"#utility.yul\":14188:14191   */\n      dup4\n        /* \"#utility.yul\":14181:14185   */\n      0x1f\n        /* \"#utility.yul\":14173:14179   */\n      dup5\n        /* \"#utility.yul\":14169:14186   */\n      add\n        /* \"#utility.yul\":14165:14192   */\n      slt\n        /* \"#utility.yul\":14155:14277   */\n      tag_609\n      jumpi\n        /* \"#utility.yul\":14196:14275   */\n      tag_610\n      tag_364\n      jump\t// in\n    tag_610:\n        /* \"#utility.yul\":14155:14277   */\n    tag_609:\n        /* \"#utility.yul\":14309:14315   */\n      dup3\n        /* \"#utility.yul\":14296:14316   */\n      calldataload\n        /* \"#utility.yul\":14286:14316   */\n      swap1\n      pop\n        /* \"#utility.yul\":14339:14357   */\n      0xffffffffffffffff\n        /* \"#utility.yul\":14331:14337   */\n      dup2\n        /* \"#utility.yul\":14328:14358   */\n      gt\n        /* \"#utility.yul\":14325:14442   */\n      iszero\n      tag_611\n      jumpi\n        /* \"#utility.yul\":14361:14440   */\n      tag_612\n      tag_399\n      jump\t// in\n    tag_612:\n        /* \"#utility.yul\":14325:14442   */\n    tag_611:\n        /* \"#utility.yul\":14475:14479   */\n      0x20\n        /* \"#utility.yul\":14467:14473   */\n      dup4\n        /* \"#utility.yul\":14463:14480   */\n      add\n        /* \"#utility.yul\":14451:14480   */\n      swap2\n      pop\n        /* \"#utility.yul\":14529:14532   */\n      dup4\n        /* \"#utility.yul\":14521:14525   */\n      0x01\n        /* \"#utility.yul\":14513:14519   */\n      dup3\n        /* \"#utility.yul\":14509:14526   */\n      mul\n        /* \"#utility.yul\":14499:14507   */\n      dup4\n        /* \"#utility.yul\":14495:14527   */\n      add\n        /* \"#utility.yul\":14492:14533   */\n      gt\n        /* \"#utility.yul\":14489:14617   */\n      iszero\n      tag_613\n      jumpi\n        /* \"#utility.yul\":14536:14615   */\n      tag_614\n      tag_400\n      jump\t// in\n    tag_614:\n        /* \"#utility.yul\":14489:14617   */\n    tag_613:\n        /* \"#utility.yul\":14070:14623   */\n      swap3\n      pop\n      swap3\n      swap1\n      pop\n      jump\t// out\n        /* \"#utility.yul\":14629:15158   */\n    tag_115:\n        /* \"#utility.yul\":14700:14706   */\n      0x00\n        /* \"#utility.yul\":14708:14714   */\n      0x00\n        /* \"#utility.yul\":14757:14759   */\n      0x20\n        /* \"#utility.yul\":14745:14754   */\n      dup4\n        /* \"#utility.yul\":14736:14743   */\n      dup6\n        /* \"#utility.yul\":14732:14755   */\n      sub\n        /* \"#utility.yul\":14728:14760   */\n      slt\n        /* \"#utility.yul\":14725:14844   */\n      iszero\n      tag_616\n      jumpi\n        /* \"#utility.yul\":14763:14842   */\n      tag_617\n      tag_359\n      jump\t// in\n    tag_617:\n        /* \"#utility.yul\":14725:14844   */\n    tag_616:\n        /* \"#utility.yul\":14911:14912   */\n      0x00\n        /* \"#utility.yul\":14900:14909   */\n      dup4\n        /* \"#utility.yul\":14896:14913   */\n      add\n        /* \"#utility.yul\":14883:14914   */\n      calldataload\n        /* \"#utility.yul\":14941:14959   */\n      0xffffffffffffffff\n        /* \"#utility.yul\":14933:14939   */\n      dup2\n        /* \"#utility.yul\":14930:14960   */\n      gt\n        /* \"#utility.yul\":14927:15044   */\n      iszero\n      tag_618\n      jumpi\n        /* \"#utility.yul\":14963:15042   */\n      tag_619\n      tag_360\n      jump\t// in\n    tag_619:\n        /* \"#utility.yul\":14927:15044   */\n    tag_618:\n        /* \"#utility.yul\":15076:15141   */\n      tag_620\n        /* \"#utility.yul\":15133:15140   */\n      dup6\n        /* \"#utility.yul\":15124:15130   */\n      dup3\n        /* \"#utility.yul\":15113:15122   */\n      dup7\n        /* \"#utility.yul\":15109:15131   */\n      add\n        /* \"#utility.yul\":15076:15141   */\n      tag_401\n      jump\t// in\n    tag_620:\n        /* \"#utility.yul\":15058:15141   */\n      swap3\n      pop\n      swap3\n      pop\n        /* \"#utility.yul\":14854:15151   */\n      pop\n        /* \"#utility.yul\":14629:15158   */\n      swap3\n      pop\n      swap3\n      swap1\n      pop\n      jump\t// out\n        /* \"#utility.yul\":15164:15262   */\n    tag_402:\n        /* \"#utility.yul\":15215:15221   */\n      0x00\n        /* \"#utility.yul\":15249:15254   */\n      dup2\n        /* \"#utility.yul\":15243:15255   */\n      mload\n        /* \"#utility.yul\":15233:15255   */\n      swap1\n      pop\n        /* \"#utility.yul\":15164:15262   */\n      swap2\n      swap1\n      pop\n      jump\t// out\n        /* \"#utility.yul\":15268:15436   */\n    tag_403:\n        /* \"#utility.yul\":15351:15362   */\n      0x00\n        /* \"#utility.yul\":15385:15391   */\n      dup3\n        /* \"#utility.yul\":15380:15383   */\n      dup3\n        /* \"#utility.yul\":15373:15392   */\n      mstore\n        /* \"#utility.yul\":15425:15429   */\n      0x20\n        /* \"#utility.yul\":15420:15423   */\n      dup3\n        /* \"#utility.yul\":15416:15430   */\n      add\n        /* \"#utility.yul\":15401:15430   */\n      swap1\n      pop\n        /* \"#utility.yul\":15268:15436   */\n      swap3\n      swap2\n      pop\n      pop\n      jump\t// out\n        /* \"#utility.yul\":15442:15815   */\n    tag_404:\n        /* \"#utility.yul\":15528:15531   */\n      0x00\n        /* \"#utility.yul\":15556:15594   */\n      tag_624\n        /* \"#utility.yul\":15588:15593   */\n      dup3\n        /* \"#utility.yul\":15556:15594   */\n      tag_402\n      jump\t// in\n    tag_624:\n        /* \"#utility.yul\":15610:15680   */\n      tag_625\n        /* \"#utility.yul\":15673:15679   */\n      dup2\n        /* \"#utility.yul\":15668:15671   */\n      dup6\n        /* \"#utility.yul\":15610:15680   */\n      tag_403\n      jump\t// in\n    tag_625:\n        /* \"#utility.yul\":15603:15680   */\n      swap4\n      pop\n        /* \"#utility.yul\":15689:15754   */\n      tag_626\n        /* \"#utility.yul\":15747:15753   */\n      dup2\n        /* \"#utility.yul\":15742:15745   */\n      dup6\n        /* \"#utility.yul\":15735:15739   */\n      0x20\n        /* \"#utility.yul\":15728:15733   */\n      dup7\n        /* \"#utility.yul\":15724:15740   */\n      add\n        /* \"#utility.yul\":15689:15754   */\n      tag_376\n      jump\t// in\n    tag_626:\n        /* \"#utility.yul\":15779:15808   */\n      tag_627\n        /* \"#utility.yul\":15801:15807   */\n      dup2\n        /* \"#utility.yul\":15779:15808   */\n      tag_366\n      jump\t// in\n    tag_627:\n        /* \"#utility.yul\":15774:15777   */\n      dup5\n        /* \"#utility.yul\":15770:15809   */\n      add\n        /* \"#utility.yul\":15763:15809   */\n      swap2\n      pop\n        /* \"#utility.yul\":15532:15815   */\n      pop\n        /* \"#utility.yul\":15442:15815   */\n      swap3\n      swap2\n      pop\n      pop\n      jump\t// out\n        /* \"#utility.yul\":15821:16130   */\n    tag_118:\n        /* \"#utility.yul\":15932:15936   */\n      0x00\n        /* \"#utility.yul\":15970:15972   */\n      0x20\n        /* \"#utility.yul\":15959:15968   */\n      dup3\n        /* \"#utility.yul\":15955:15973   */\n      add\n        /* \"#utility.yul\":15947:15973   */\n      swap1\n      pop\n        /* \"#utility.yul\":16019:16028   */\n      dup2\n        /* \"#utility.yul\":16013:16017   */\n      dup2\n        /* \"#utility.yul\":16009:16029   */\n      sub\n        /* \"#utility.yul\":16005:16006   */\n      0x00\n        /* \"#utility.yul\":15994:16003   */\n      dup4\n        /* \"#utility.yul\":15990:16007   */\n      add\n        /* \"#utility.yul\":15983:16030   */\n      mstore\n        /* \"#utility.yul\":16047:16123   */\n      tag_629\n        /* \"#utility.yul\":16118:16122   */\n      dup2\n        /* \"#utility.yul\":16109:16115   */\n      dup5\n        /* \"#utility.yul\":16047:16123   */\n      tag_404\n      jump\t// in\n    tag_629:\n        /* \"#utility.yul\":16039:16123   */\n      swap1\n      pop\n        /* \"#utility.yul\":15821:16130   */\n      swap3\n      swap2\n      pop\n      pop\n      jump\t// out\n        /* \"#utility.yul\":16136:16316   */\n    tag_405:\n        /* \"#utility.yul\":16184:16261   */\n      0x4e487b7100000000000000000000000000000000000000000000000000000000\n        /* \"#utility.yul\":16181:16182   */\n      0x00\n        /* \"#utility.yul\":16174:16262   */\n      mstore\n        /* \"#utility.yul\":16281:16285   */\n      0x22\n        /* \"#utility.yul\":16278:16279   */\n      0x04\n        /* \"#utility.yul\":16271:16286   */\n      mstore\n        /* \"#utility.yul\":16305:16309   */\n      0x24\n        /* \"#utility.yul\":16302:16303   */\n      0x00\n        /* \"#utility.yul\":16295:16310   */\n      revert\n        /* \"#utility.yul\":16322:16642   */\n    tag_130:\n        /* \"#utility.yul\":16366:16372   */\n      0x00\n        /* \"#utility.yul\":16403:16404   */\n      0x02\n        /* \"#utility.yul\":16397:16401   */\n      dup3\n        /* \"#utility.yul\":16393:16405   */\n      div\n        /* \"#utility.yul\":16383:16405   */\n      swap1\n      pop\n        /* \"#utility.yul\":16450:16451   */\n      0x01\n        /* \"#utility.yul\":16444:16448   */\n      dup3\n        /* \"#utility.yul\":16440:16452   */\n      and\n        /* \"#utility.yul\":16471:16489   */\n      dup1\n        /* \"#utility.yul\":16461:16542   */\n      tag_632\n      jumpi\n        /* \"#utility.yul\":16527:16531   */\n      0x7f\n        /* \"#utility.yul\":16519:16525   */\n      dup3\n        /* \"#utility.yul\":16515:16532   */\n      and\n        /* \"#utility.yul\":16505:16532   */\n      swap2\n      pop\n        /* \"#utility.yul\":16461:16542   */\n    tag_632:\n        /* \"#utility.yul\":16589:16591   */\n      0x20\n        /* \"#utility.yul\":16581:16587   */\n      dup3\n        /* \"#utility.yul\":16578:16592   */\n      lt\n        /* \"#utility.yul\":16558:16576   */\n      dup2\n        /* \"#utility.yul\":16555:16593   */\n      sub\n        /* \"#utility.yul\":16552:16636   */\n      tag_633\n      jumpi\n        /* \"#utility.yul\":16608:16626   */\n      tag_634\n      tag_405\n      jump\t// in\n    tag_634:\n        /* \"#utility.yul\":16552:16636   */\n    tag_633:\n        /* \"#utility.yul\":16373:16642   */\n      pop\n        /* \"#utility.yul\":16322:16642   */\n      swap2\n      swap1\n      pop\n      jump\t// out\n        /* \"#utility.yul\":16648:16789   */\n    tag_406:\n        /* \"#utility.yul\":16697:16701   */\n      0x00\n        /* \"#utility.yul\":16720:16723   */\n      dup2\n        /* \"#utility.yul\":16712:16723   */\n      swap1\n      pop\n        /* \"#utility.yul\":16743:16746   */\n      dup2\n        /* \"#utility.yul\":16740:16741   */\n      0x00\n        /* \"#utility.yul\":16733:16747   */\n      mstore\n        /* \"#utility.yul\":16777:16781   */\n      0x20\n        /* \"#utility.yul\":16774:16775   */\n      0x00\n        /* \"#utility.yul\":16764:16782   */\n      keccak256\n        /* \"#utility.yul\":16756:16782   */\n      swap1\n      pop\n        /* \"#utility.yul\":16648:16789   */\n      swap2\n      swap1\n      pop\n      jump\t// out\n        /* \"#utility.yul\":16795:16888   */\n    tag_407:\n        /* \"#utility.yul\":16832:16838   */\n      0x00\n        /* \"#utility.yul\":16879:16881   */\n      0x20\n        /* \"#utility.yul\":16874:16876   */\n      0x1f\n        /* \"#utility.yul\":16867:16872   */\n      dup4\n        /* \"#utility.yul\":16863:16877   */\n      add\n        /* \"#utility.yul\":16859:16882   */\n      div\n        /* \"#utility.yul\":16849:16882   */\n      swap1\n      pop\n        /* \"#utility.yul\":16795:16888   */\n      swap2\n      swap1\n      pop\n      jump\t// out\n        /* \"#utility.yul\":16894:17001   */\n    tag_408:\n        /* \"#utility.yul\":16938:16946   */\n      0x00\n        /* \"#utility.yul\":16988:16993   */\n      dup3\n        /* \"#utility.yul\":16982:16986   */\n      dup3\n        /* \"#utility.yul\":16978:16994   */\n      shl\n        /* \"#utility.yul\":16957:16994   */\n      swap1\n      pop\n        /* \"#utility.yul\":16894:17001   */\n      swap3\n      swap2\n      pop\n      pop\n      jump\t// out\n        /* \"#utility.yul\":17007:17400   */\n    tag_409:\n        /* \"#utility.yul\":17076:17082   */\n      0x00\n        /* \"#utility.yul\":17126:17127   */\n      0x08\n        /* \"#utility.yul\":17114:17124   */\n      dup4\n        /* \"#utility.yul\":17110:17128   */\n      mul\n        /* \"#utility.yul\":17149:17246   */\n      tag_639\n        /* \"#utility.yul\":17179:17245   */\n      0xffffffffffffffffffffffffffffffffffffffffffffffffffffffffffffffff\n        /* \"#utility.yul\":17168:17177   */\n      dup3\n        /* \"#utility.yul\":17149:17246   */\n      tag_408\n      jump\t// in\n    tag_639:\n        /* \"#utility.yul\":17267:17306   */\n      tag_640\n        /* \"#utility.yul\":17297:17305   */\n      dup7\n        /* \"#utility.yul\":17286:17295   */\n      dup4\n        /* \"#utility.yul\":17267:17306   */\n      tag_408\n      jump\t// in\n    tag_640:\n        /* \"#utility.yul\":17255:17306   */\n      swap6\n      pop\n        /* \"#utility.yul\":17339:17343   */\n      dup1\n        /* \"#utility.yul\":17335:17344   */\n      not\n        /* \"#utility.yul\":17328:17333   */\n      dup5\n        /* \"#utility.yul\":17324:17345   */\n      and\n        /* \"#utility.yul\":17315:17345   */\n      swap4\n      pop\n        /* \"#utility.yul\":17388:17392   */\n      dup1\n        /* \"#utility.yul\":17378:17386   */\n      dup7\n        /* \"#utility.yul\":17374:17393   */\n      and\n        /* \"#utility.yul\":17367:17372   */\n      dup5\n        /* \"#utility.yul\":17364:17394   */\n      or\n        /* \"#utility.yul\":17354:17394   */\n      swap3\n      pop\n        /* \"#utility.yul\":17083:17400   */\n      pop\n      pop\n        /* \"#utility.yul\":17007:17400   */\n      swap4\n      swap3\n      pop\n      pop\n      pop\n      jump\t// out\n        /* \"#utility.yul\":17406:17466   */\n    tag_410:\n        /* \"#utility.yul\":17434:17437   */\n      0x00\n        /* \"#utility.yul\":17455:17460   */\n      dup2\n        /* \"#utility.yul\":17448:17460   */\n      swap1\n      pop\n        /* \"#utility.yul\":17406:17466   */\n      swap2\n      swap1\n      pop\n      jump\t// out\n        /* \"#utility.yul\":17472:17614   */\n    tag_411:\n        /* \"#utility.yul\":17522:17531   */\n      0x00\n        /* \"#utility.yul\":17555:17608   */\n      tag_643\n        /* \"#utility.yul\":17573:17607   */\n      tag_644\n        /* \"#utility.yul\":17582:17606   */\n      tag_645\n        /* \"#utility.yul\":17600:17605   */\n      dup5\n        /* \"#utility.yul\":17582:17606   */\n      tag_361\n      jump\t// in\n    tag_645:\n        /* \"#utility.yul\":17573:17607   */\n      tag_410\n      jump\t// in\n    tag_644:\n        /* \"#utility.yul\":17555:17608   */\n      tag_361\n      jump\t// in\n    tag_643:\n        /* \"#utility.yul\":17542:17608   */\n      swap1\n      pop\n        /* \"#utility.yul\":17472:17614   */\n      swap2\n      swap1\n      pop\n      jump\t// out\n        /* \"#utility.yul\":17620:17695   */\n    tag_412:\n        /* \"#utility.yul\":17663:17666   */\n      0x00\n        /* \"#utility.yul\":17684:17689   */\n      dup2\n        /* \"#utility.yul\":17677:17689   */\n      swap1\n      pop\n        /* \"#utility.yul\":17620:17695   */\n      swap2\n      swap1\n      pop\n      jump\t// out\n        /* \"#utility.yul\":17701:17970   */\n    tag_413:\n        /* \"#utility.yul\":17811:17850   */\n      tag_648\n        /* \"#utility.yul\":17842:17849   */\n      dup4\n        /* \"#utility.yul\":17811:17850   */\n      tag_411\n      jump\t// in\n    tag_648:\n        /* \"#utility.yul\":17872:17963   */\n      tag_649\n        /* \"#utility.yul\":17921:17962   */\n      tag_650\n        /* \"#utility.yul\":17945:17961   */\n      dup3\n        /* \"#utility.yul\":17921:17962   */\n      tag_412\n      jump\t// in\n    tag_650:\n        /* \"#utility.yul\":17913:17919   */\n      dup5\n        /* \"#utility.yul\":17906:17910   */\n      dup5\n        /* \"#utility.yul\":17900:17911   */\n      sload\n        /* \"#utility.yul\":17872:17963   */\n      tag_409\n      jump\t// in\n    tag_649:\n        /* \"#utility.yul\":17866:17870   */\n      dup3\n        /* \"#utility.yul\":17859:17964   */\n      sstore\n        /* \"#utility.yul\":17777:17970   */\n      pop\n        /* \"#utility.yul\":17701:17970   */\n      pop\n      pop\n      pop\n      jump\t// out\n        /* \"#utility.yul\":17976:18049   */\n    tag_414:\n        /* \"#utility.yul\":18021:18024   */\n      0x00\n        /* \"#utility.yul\":18042:18043   */\n      0x00\n        /* \"#utility.yul\":18035:18043   */\n      swap1\n      pop\n        /* \"#utility.yul\":17976:18049   */\n      swap1\n      jump\t// out\n        /* \"#utility.yul\":18055:18244   */\n    tag_415:\n        /* \"#utility.yul\":18132:18164   */\n      tag_653\n      tag_414\n      jump\t// in\n    tag_653:\n        /* \"#utility.yul\":18173:18238   */\n      tag_654\n        /* \"#utility.yul\":18231:18237   */\n      dup2\n        /* \"#utility.yul\":18223:18229   */\n      dup5\n        /* \"#utility.yul\":18217:18221   */\n      dup5\n        /* \"#utility.yul\":18173:18238   */\n      tag_413\n      jump\t// in\n    tag_654:\n        /* \"#utility.yul\":18108:18244   */\n      pop\n        /* \"#utility.yul\":18055:18244   */\n      pop\n      pop\n      jump\t// out\n        /* \"#utility.yul\":18250:18436   */\n    tag_416:\n        /* \"#utility.yul\":18310:18430   */\n    tag_656:\n        /* \"#utility.yul\":18327:18330   */\n      dup2\n        /* \"#utility.yul\":18320:18325   */\n      dup2\n        /* \"#utility.yul\":18317:18331   */\n      lt\n        /* \"#utility.yul\":18310:18430   */\n      iszero\n      tag_658\n      jumpi\n        /* \"#utility.yul\":18381:18420   */\n      tag_659\n        /* \"#utility.yul\":18418:18419   */\n      0x00\n        /* \"#utility.yul\":18411:18416   */\n      dup3\n        /* \"#utility.yul\":18381:18420   */\n      tag_415\n      jump\t// in\n    tag_659:\n        /* \"#utility.yul\":18354:18355   */\n      0x01\n        /* \"#utility.yul\":18347:18352   */\n      dup2\n        /* \"#utility.yul\":18343:18356   */\n      add\n        /* \"#utility.yul\":18334:18356   */\n      swap1\n      pop\n        /* \"#utility.yul\":18310:18430   */\n      jump(tag_656)\n    tag_658:\n        /* \"#utility.yul\":18250:18436   */\n      pop\n      pop\n      jump\t// out\n        /* \"#utility.yul\":18442:18985   */\n    tag_417:\n        /* \"#utility.yul\":18543:18545   */\n      0x1f\n        /* \"#utility.yul\":18538:18541   */\n      dup3\n        /* \"#utility.yul\":18535:18546   */\n      gt\n        /* \"#utility.yul\":18532:18978   */\n      iszero\n      tag_661\n      jumpi\n        /* \"#utility.yul\":18577:18615   */\n      tag_662\n        /* \"#utility.yul\":18609:18614   */\n      dup2\n        /* \"#utility.yul\":18577:18615   */\n      tag_406\n      jump\t// in\n    tag_662:\n        /* \"#utility.yul\":18661:18690   */\n      tag_663\n        /* \"#utility.yul\":18679:18689   */\n      dup5\n        /* \"#utility.yul\":18661:18690   */\n      tag_407\n      jump\t// in\n    tag_663:\n        /* \"#utility.yul\":18651:18659   */\n      dup2\n        /* \"#utility.yul\":18647:18691   */\n      add\n        /* \"#utility.yul\":18844:18846   */\n      0x20\n        /* \"#utility.yul\":18832:18842   */\n      dup6\n        /* \"#utility.yul\":18829:18847   */\n      lt\n        /* \"#utility.yul\":18826:18875   */\n      iszero\n      tag_664\n      jumpi\n        /* \"#utility.yul\":18865:18873   */\n      dup2\n        /* \"#utility.yul\":18850:18873   */\n      swap1\n      pop\n        /* \"#utility.yul\":18826:18875   */\n    tag_664:\n        /* \"#utility.yul\":18888:18968   */\n      tag_665\n        /* \"#utility.yul\":18944:18966   */\n      tag_666\n        /* \"#utility.yul\":18962:18965   */\n      dup6\n        /* \"#utility.yul\":18944:18966   */\n      tag_407\n      jump\t// in\n    tag_666:\n        /* \"#utility.yul\":18934:18942   */\n      dup4\n        /* \"#utility.yul\":18930:18967   */\n      add\n        /* \"#utility.yul\":18917:18928   */\n      dup3\n        /* \"#utility.yul\":18888:18968   */\n      tag_416\n      jump\t// in\n    tag_665:\n        /* \"#utility.yul\":18547:18978   */\n      pop\n      pop\n        /* \"#utility.yul\":18532:18978   */\n    tag_661:\n        /* \"#utility.yul\":18442:18985   */\n      pop\n      pop\n      pop\n      jump\t// out\n        /* \"#utility.yul\":18991:19108   */\n    tag_418:\n        /* \"#utility.yul\":19045:19053   */\n      0x00\n        /* \"#utility.yul\":19095:19100   */\n      dup3\n        /* \"#utility.yul\":19089:19093   */\n      dup3\n        /* \"#utility.yul\":19085:19101   */\n      shr\n        /* \"#utility.yul\":19064:19101   */\n      swap1\n      pop\n        /* \"#utility.yul\":18991:19108   */\n      swap3\n      swap2\n      pop\n      pop\n      jump\t// out\n        /* \"#utility.yul\":19114:19283   */\n    tag_419:\n        /* \"#utility.yul\":19158:19164   */\n      0x00\n        /* \"#utility.yul\":19191:19242   */\n      tag_669\n        /* \"#utility.yul\":19239:19240   */\n      0x00\n        /* \"#utility.yul\":19235:19241   */\n      not\n        /* \"#utility.yul\":19227:19232   */\n      dup5\n        /* \"#utility.yul\":19224:19225   */\n      0x08\n        /* \"#utility.yul\":19220:19233   */\n      mul\n        /* \"#utility.yul\":19191:19242   */\n      tag_418\n      jump\t// in\n    tag_669:\n        /* \"#utility.yul\":19187:19243   */\n      not\n        /* \"#utility.yul\":19272:19276   */\n      dup1\n        /* \"#utility.yul\":19266:19270   */\n      dup4\n        /* \"#utility.yul\":19262:19277   */\n      and\n        /* \"#utility.yul\":19252:19277   */\n      swap2\n      pop\n        /* \"#utility.yul\":19165:19283   */\n      pop\n        /* \"#utility.yul\":19114:19283   */\n      swap3\n      swap2\n      pop\n      pop\n      jump\t// out\n        /* \"#utility.yul\":19288:19583   */\n    tag_420:\n        /* \"#utility.yul\":19364:19368   */\n      0x00\n        /* \"#utility.yul\":19510:19539   */\n      tag_671\n        /* \"#utility.yul\":19535:19538   */\n      dup4\n        /* \"#utility.yul\":19529:19533   */\n      dup4\n        /* \"#utility.yul\":19510:19539   */\n      tag_419\n      jump\t// in\n    tag_671:\n        /* \"#utility.yul\":19502:19539   */\n      swap2\n      pop\n        /* \"#utility.yul\":19572:19575   */\n      dup3\n        /* \"#utility.yul\":19569:19570   */\n      0x02\n        /* \"#utility.yul\":19565:19576   */\n      mul\n        /* \"#utility.yul\":19559:19563   */\n      dup3\n        /* \"#utility.yul\":19556:19577   */\n      or\n        /* \"#utility.yul\":19548:19577   */\n      swap1\n      pop\n        /* \"#utility.yul\":19288:19583   */\n      swap3\n      swap2\n      pop\n      pop\n      jump\t// out\n        /* \"#utility.yul\":19588:20983   */\n    tag_127:\n        /* \"#utility.yul\":19705:19742   */\n      tag_673\n        /* \"#utility.yul\":19738:19741   */\n      dup3\n        /* \"#utility.yul\":19705:19742   */\n      tag_374\n      jump\t// in\n    tag_673:\n        /* \"#utility.yul\":19807:19825   */\n      0xffffffffffffffff\n        /* \"#utility.yul\":19799:19805   */\n      dup2\n        /* \"#utility.yul\":19796:19826   */\n      gt\n        /* \"#utility.yul\":19793:19849   */\n      iszero\n      tag_674\n      jumpi\n        /* \"#utility.yul\":19829:19847   */\n      tag_675\n      tag_367\n      jump\t// in\n    tag_675:\n        /* \"#utility.yul\":19793:19849   */\n    tag_674:\n        /* \"#utility.yul\":19873:19911   */\n      tag_676\n        /* \"#utility.yul\":19905:19909   */\n      dup3\n        /* \"#utility.yul\":19899:19910   */\n      sload\n        /* \"#utility.yul\":19873:19911   */\n      tag_130\n      jump\t// in\n    tag_676:\n        /* \"#utility.yul\":19958:20025   */\n      tag_677\n        /* \"#utility.yul\":20018:20024   */\n      dup3\n        /* \"#utility.yul\":20010:20016   */\n      dup3\n        /* \"#utility.yul\":20004:20008   */\n      dup6\n        /* \"#utility.yul\":19958:20025   */\n      tag_417\n      jump\t// in\n    tag_677:\n        /* \"#utility.yul\":20052:20053   */\n      0x00\n        /* \"#utility.yul\":20076:20080   */\n      0x20\n        /* \"#utility.yul\":20063:20080   */\n      swap1\n      pop\n        /* \"#utility.yul\":20108:20110   */\n      0x1f\n        /* \"#utility.yul\":20100:20106   */\n      dup4\n        /* \"#utility.yul\":20097:20111   */\n      gt\n        /* \"#utility.yul\":20125:20126   */\n      0x01\n        /* \"#utility.yul\":20120:20738   */\n      dup2\n      eq\n      tag_679\n      jumpi\n        /* \"#utility.yul\":20782:20783   */\n      0x00\n        /* \"#utility.yul\":20799:20805   */\n      dup5\n        /* \"#utility.yul\":20796:20873   */\n      iszero\n      tag_680\n      jumpi\n        /* \"#utility.yul\":20848:20857   */\n      dup3\n        /* \"#utility.yul\":20843:20846   */\n      dup8\n        /* \"#utility.yul\":20839:20858   */\n      add\n        /* \"#utility.yul\":20833:20859   */\n      mload\n        /* \"#utility.yul\":20824:20859   */\n      swap1\n      pop\n        /* \"#utility.yul\":20796:20873   */\n    tag_680:\n        /* \"#utility.yul\":20899:20966   */\n      tag_681\n        /* \"#utility.yul\":20959:20965   */\n      dup6\n        /* \"#utility.yul\":20952:20957   */\n      dup3\n        /* \"#utility.yul\":20899:20966   */\n      tag_420\n      jump\t// in\n    tag_681:\n        /* \"#utility.yul\":20893:20897   */\n      dup7\n        /* \"#utility.yul\":20886:20967   */\n      sstore\n        /* \"#utility.yul\":20755:20977   */\n      pop\n        /* \"#utility.yul\":20090:20977   */\n      jump(tag_678)\n        /* \"#utility.yul\":20120:20738   */\n    tag_679:\n        /* \"#utility.yul\":20172:20176   */\n      0x1f\n        /* \"#utility.yul\":20168:20177   */\n      not\n        /* \"#utility.yul\":20160:20166   */\n      dup5\n        /* \"#utility.yul\":20156:20178   */\n      and\n        /* \"#utility.yul\":20206:20243   */\n      tag_682\n        /* \"#utility.yul\":20238:20242   */\n      dup7\n        /* \"#utility.yul\":20206:20243   */\n      tag_406\n      jump\t// in\n    tag_682:\n        /* \"#utility.yul\":20265:20266   */\n      0x00\n        /* \"#utility.yul\":20279:20487   */\n    tag_683:\n        /* \"#utility.yul\":20293:20300   */\n      dup3\n        /* \"#utility.yul\":20290:20291   */\n      dup2\n        /* \"#utility.yul\":20287:20301   */\n      lt\n        /* \"#utility.yul\":20279:20487   */\n      iszero\n      tag_685\n      jumpi\n        /* \"#utility.yul\":20372:20381   */\n      dup5\n        /* \"#utility.yul\":20367:20370   */\n      dup10\n        /* \"#utility.yul\":20363:20382   */\n      add\n        /* \"#utility.yul\":20357:20383   */\n      mload\n        /* \"#utility.yul\":20349:20355   */\n      dup3\n        /* \"#utility.yul\":20342:20384   */\n      sstore\n        /* \"#utility.yul\":20423:20424   */\n      0x01\n        /* \"#utility.yul\":20415:20421   */\n      dup3\n        /* \"#utility.yul\":20411:20425   */\n      add\n        /* \"#utility.yul\":20401:20425   */\n      swap2\n      pop\n        /* \"#utility.yul\":20470:20472   */\n      0x20\n        /* \"#utility.yul\":20459:20468   */\n      dup6\n        /* \"#utility.yul\":20455:20473   */\n      add\n        /* \"#utility.yul\":20442:20473   */\n      swap5\n      pop\n        /* \"#utility.yul\":20316:20320   */\n      0x20\n        /* \"#utility.yul\":20313:20314   */\n      dup2\n        /* \"#utility.yul\":20309:20321   */\n      add\n        /* \"#utility.yul\":20304:20321   */\n      swap1\n      pop\n        /* \"#utility.yul\":20279:20487   */\n      jump(tag_683)\n    tag_685:\n        /* \"#utility.yul\":20515:20521   */\n      dup7\n        /* \"#utility.yul\":20506:20513   */\n      dup4\n        /* \"#utility.yul\":20503:20522   */\n      lt\n        /* \"#utility.yul\":20500:20679   */\n      iszero\n      tag_686\n      jumpi\n        /* \"#utility.yul\":20573:20582   */\n      dup5\n        /* \"#utility.yul\":20568:20571   */\n      dup10\n        /* \"#utility.yul\":20564:20583   */\n      add\n        /* \"#utility.yul\":20558:20584   */\n      mload\n        /* \"#utility.yul\":20616:20664   */\n      tag_687\n        /* \"#utility.yul\":20658:20662   */\n      0x1f\n        /* \"#utility.yul\":20650:20656   */\n      dup10\n        /* \"#utility.yul\":20646:20663   */\n      and\n        /* \"#utility.yul\":20635:20644   */\n      dup3\n        /* \"#utility.yul\":20616:20664   */\n      tag_419\n      jump\t// in\n    tag_687:\n        /* \"#utility.yul\":20608:20614   */\n      dup4\n        /* \"#utility.yul\":20601:20665   */\n      sstore\n        /* \"#utility.yul\":20523:20679   */\n      pop\n        /* \"#utility.yul\":20500:20679   */\n    tag_686:\n        /* \"#utility.yul\":20725:20726   */\n      0x01\n        /* \"#utility.yul\":20721:20722   */\n      0x02\n        /* \"#utility.yul\":20713:20719   */\n      dup9\n        /* \"#utility.yul\":20709:20723   */\n      mul\n        /* \"#utility.yul\":20705:20727   */\n      add\n        /* \"#utility.yul\":20699:20703   */\n      dup9\n        /* \"#utility.yul\":20692:20728   */\n      sstore\n        /* \"#utility.yul\":20127:20738   */\n      pop\n      pop\n      pop\n        /* \"#utility.yul\":20090:20977   */\n    tag_678:\n      pop\n        /* \"#utility.yul\":19680:20983   */\n      pop\n      pop\n      pop\n        /* \"#utility.yul\":19588:20983   */\n      pop\n      pop\n      jump\t// out\n        /* \"#utility.yul\":20989:21165   */\n    tag_421:\n        /* \"#utility.yul\":21129:21157   */\n      0x4f6e792061646d696e6973747261746f722063616e2063616c6c000000000000\n        /* \"#utility.yul\":21125:21126   */\n      0x00\n        /* \"#utility.yul\":21117:21123   */\n      dup3\n        /* \"#utility.yul\":21113:21127   */\n      add\n        /* \"#utility.yul\":21106:21158   */\n      mstore\n        /* \"#utility.yul\":20989:21165   */\n      pop\n      jump\t// out\n        /* \"#utility.yul\":21171:21537   */\n    tag_422:\n        /* \"#utility.yul\":21313:21316   */\n      0x00\n        /* \"#utility.yul\":21334:21401   */\n      tag_690\n        /* \"#utility.yul\":21398:21400   */\n      0x1a\n        /* \"#utility.yul\":21393:21396   */\n      dup4\n        /* \"#utility.yul\":21334:21401   */\n      tag_392\n      jump\t// in\n    tag_690:\n        /* \"#utility.yul\":21327:21401   */\n      swap2\n      pop\n        /* \"#utility.yul\":21410:21503   */\n      tag_691\n        /* \"#utility.yul\":21499:21502   */\n      dup3\n        /* \"#utility.yul\":21410:21503   */\n      tag_421\n      jump\t// in\n    tag_691:\n        /* \"#utility.yul\":21528:21530   */\n      0x20\n        /* \"#utility.yul\":21523:21526   */\n      dup3\n        /* \"#utility.yul\":21519:21531   */\n      add\n        /* \"#utility.yul\":21512:21531   */\n      swap1\n      pop\n        /* \"#utility.yul\":21171:21537   */\n      swap2\n      swap1\n      pop\n      jump\t// out\n        /* \"#utility.yul\":21543:21962   */\n    tag_150:\n        /* \"#utility.yul\":21709:21713   */\n      0x00\n        /* \"#utility.yul\":21747:21749   */\n      0x20\n        /* \"#utility.yul\":21736:21745   */\n      dup3\n        /* \"#utility.yul\":21732:21750   */\n      add\n        /* \"#utility.yul\":21724:21750   */\n      swap1\n      pop\n        /* \"#utility.yul\":21796:21805   */\n      dup2\n        /* \"#utility.yul\":21790:21794   */\n      dup2\n        /* \"#utility.yul\":21786:21806   */\n      sub\n        /* \"#utility.yul\":21782:21783   */\n      0x00\n        /* \"#utility.yul\":21771:21780   */\n      dup4\n        /* \"#utility.yul\":21767:21784   */\n      add\n        /* \"#utility.yul\":21760:21807   */\n      mstore\n        /* \"#utility.yul\":21824:21955   */\n      tag_693\n        /* \"#utility.yul\":21950:21954   */\n      dup2\n        /* \"#utility.yul\":21824:21955   */\n      tag_422\n      jump\t// in\n    tag_693:\n        /* \"#utility.yul\":21816:21955   */\n      swap1\n      pop\n        /* \"#utility.yul\":21543:21962   */\n      swap2\n      swap1\n      pop\n      jump\t// out\n        /* \"#utility.yul\":21968:22189   */\n    tag_423:\n        /* \"#utility.yul\":22108:22142   */\n      0x4f6e6c792041646d696e732043616e2043616c6c20546869732046756e637469\n        /* \"#utility.yul\":22104:22105   */\n      0x00\n        /* \"#utility.yul\":22096:22102   */\n      dup3\n        /* \"#utility.yul\":22092:22106   */\n      add\n        /* \"#utility.yul\":22085:22143   */\n      mstore\n        /* \"#utility.yul\":22177:22181   */\n      0x6f6e000000000000000000000000000000000000000000000000000000000000\n        /* \"#utility.yul\":22172:22174   */\n      0x20\n        /* \"#utility.yul\":22164:22170   */\n      dup3\n        /* \"#utility.yul\":22160:22175   */\n      add\n        /* \"#utility.yul\":22153:22182   */\n      mstore\n        /* \"#utility.yul\":21968:22189   */\n      pop\n      jump\t// out\n        /* \"#utility.yul\":22195:22561   */\n    tag_424:\n        /* \"#utility.yul\":22337:22340   */\n      0x00\n        /* \"#utility.yul\":22358:22425   */\n      tag_696\n        /* \"#utility.yul\":22422:22424   */\n      0x22\n        /* \"#utility.yul\":22417:22420   */\n      dup4\n        /* \"#utility.yul\":22358:22425   */\n      tag_392\n      jump\t// in\n    tag_696:\n        /* \"#utility.yul\":22351:22425   */\n      swap2\n      pop\n        /* \"#utility.yul\":22434:22527   */\n      tag_697\n        /* \"#utility.yul\":22523:22526   */\n      dup3\n        /* \"#utility.yul\":22434:22527   */\n      tag_423\n      jump\t// in\n    tag_697:\n        /* \"#utility.yul\":22552:22554   */\n      0x40\n        /* \"#utility.yul\":22547:22550   */\n      dup3\n        /* \"#utility.yul\":22543:22555   */\n      add\n        /* \"#utility.yul\":22536:22555   */\n      swap1\n      pop\n        /* \"#utility.yul\":22195:22561   */\n      swap2\n      swap1\n      pop\n      jump\t// out\n        /* \"#utility.yul\":22567:22986   */\n    tag_153:\n        /* \"#utility.yul\":22733:22737   */\n      0x00\n        /* \"#utility.yul\":22771:22773   */\n      0x20\n        /* \"#utility.yul\":22760:22769   */\n      dup3\n        /* \"#utility.yul\":22756:22774   */\n      add\n        /* \"#utility.yul\":22748:22774   */\n      swap1\n      pop\n        /* \"#utility.yul\":22820:22829   */\n      dup2\n        /* \"#utility.yul\":22814:22818   */\n      dup2\n        /* \"#utility.yul\":22810:22830   */\n      sub\n        /* \"#utility.yul\":22806:22807   */\n      0x00\n        /* \"#utility.yul\":22795:22804   */\n      dup4\n        /* \"#utility.yul\":22791:22808   */\n      add\n        /* \"#utility.yul\":22784:22831   */\n      mstore\n        /* \"#utility.yul\":22848:22979   */\n      tag_699\n        /* \"#utility.yul\":22974:22978   */\n      dup2\n        /* \"#utility.yul\":22848:22979   */\n      tag_424\n      jump\t// in\n    tag_699:\n        /* \"#utility.yul\":22840:22979   */\n      swap1\n      pop\n        /* \"#utility.yul\":22567:22986   */\n      swap2\n      swap1\n      pop\n      jump\t// out\n        /* \"#utility.yul\":22992:23169   */\n    tag_425:\n        /* \"#utility.yul\":23132:23161   */\n      0x4f6e6c792061646d696e6973747261746f722063616e2063616c6c0000000000\n        /* \"#utility.yul\":23128:23129   */\n      0x00\n        /* \"#utility.yul\":23120:23126   */\n      dup3\n        /* \"#utility.yul\":23116:23130   */\n      add\n        /* \"#utility.yul\":23109:23162   */\n      mstore\n        /* \"#utility.yul\":22992:23169   */\n      pop\n      jump\t// out\n        /* \"#utility.yul\":23175:23541   */\n    tag_426:\n        /* \"#utility.yul\":23317:23320   */\n      0x00\n        /* \"#utility.yul\":23338:23405   */\n      tag_702\n        /* \"#utility.yul\":23402:23404   */\n      0x1b\n        /* \"#utility.yul\":23397:23400   */\n      dup4\n        /* \"#utility.yul\":23338:23405   */\n      tag_392\n      jump\t// in\n    tag_702:\n        /* \"#utility.yul\":23331:23405   */\n      swap2\n      pop\n        /* \"#utility.yul\":23414:23507   */\n      tag_703\n        /* \"#utility.yul\":23503:23506   */\n      dup3\n        /* \"#utility.yul\":23414:23507   */\n      tag_425\n      jump\t// in\n    tag_703:\n        /* \"#utility.yul\":23532:23534   */\n      0x20\n        /* \"#utility.yul\":23527:23530   */\n      dup3\n        /* \"#utility.yul\":23523:23535   */\n      add\n        /* \"#utility.yul\":23516:23535   */\n      swap1\n      pop\n        /* \"#utility.yul\":23175:23541   */\n      swap2\n      swap1\n      pop\n      jump\t// out\n        /* \"#utility.yul\":23547:23966   */\n    tag_161:\n        /* \"#utility.yul\":23713:23717   */\n      0x00\n        /* \"#utility.yul\":23751:23753   */\n      0x20\n        /* \"#utility.yul\":23740:23749   */\n      dup3\n        /* \"#utility.yul\":23736:23754   */\n      add\n        /* \"#utility.yul\":23728:23754   */\n      swap1\n      pop\n        /* \"#utility.yul\":23800:23809   */\n      dup2\n        /* \"#utility.yul\":23794:23798   */\n      dup2\n        /* \"#utility.yul\":23790:23810   */\n      sub\n        /* \"#utility.yul\":23786:23787   */\n      0x00\n        /* \"#utility.yul\":23775:23784   */\n      dup4\n        /* \"#utility.yul\":23771:23788   */\n      add\n        /* \"#utility.yul\":23764:23811   */\n      mstore\n        /* \"#utility.yul\":23828:23959   */\n      tag_705\n        /* \"#utility.yul\":23954:23958   */\n      dup2\n        /* \"#utility.yul\":23828:23959   */\n      tag_426\n      jump\t// in\n    tag_705:\n        /* \"#utility.yul\":23820:23959   */\n      swap1\n      pop\n        /* \"#utility.yul\":23547:23966   */\n      swap2\n      swap1\n      pop\n      jump\t// out\n        /* \"#utility.yul\":23972:24192   */\n    tag_427:\n        /* \"#utility.yul\":24112:24146   */\n      0x5061757365722043616e204e6f74204772616e742048696d73656c6620526f6c\n        /* \"#utility.yul\":24108:24109   */\n      0x00\n        /* \"#utility.yul\":24100:24106   */\n      dup3\n        /* \"#utility.yul\":24096:24110   */\n      add\n        /* \"#utility.yul\":24089:24147   */\n      mstore\n        /* \"#utility.yul\":24181:24184   */\n      0x6500000000000000000000000000000000000000000000000000000000000000\n        /* \"#utility.yul\":24176:24178   */\n      0x20\n        /* \"#utility.yul\":24168:24174   */\n      dup3\n        /* \"#utility.yul\":24164:24179   */\n      add\n        /* \"#utility.yul\":24157:24185   */\n      mstore\n        /* \"#utility.yul\":23972:24192   */\n      pop\n      jump\t// out\n        /* \"#utility.yul\":24198:24564   */\n    tag_428:\n        /* \"#utility.yul\":24340:24343   */\n      0x00\n        /* \"#utility.yul\":24361:24428   */\n      tag_708\n        /* \"#utility.yul\":24425:24427   */\n      0x21\n        /* \"#utility.yul\":24420:24423   */\n      dup4\n        /* \"#utility.yul\":24361:24428   */\n      tag_392\n      jump\t// in\n    tag_708:\n        /* \"#utility.yul\":24354:24428   */\n      swap2\n      pop\n        /* \"#utility.yul\":24437:24530   */\n      tag_709\n        /* \"#utility.yul\":24526:24529   */\n      dup3\n        /* \"#utility.yul\":24437:24530   */\n      tag_427\n      jump\t// in\n    tag_709:\n        /* \"#utility.yul\":24555:24557   */\n      0x40\n        /* \"#utility.yul\":24550:24553   */\n      dup3\n        /* \"#utility.yul\":24546:24558   */\n      add\n        /* \"#utility.yul\":24539:24558   */\n      swap1\n      pop\n        /* \"#utility.yul\":24198:24564   */\n      swap2\n      swap1\n      pop\n      jump\t// out\n        /* \"#utility.yul\":24570:24989   */\n    tag_168:\n        /* \"#utility.yul\":24736:24740   */\n      0x00\n        /* \"#utility.yul\":24774:24776   */\n      0x20\n        /* \"#utility.yul\":24763:24772   */\n      dup3\n        /* \"#utility.yul\":24759:24777   */\n      add\n        /* \"#utility.yul\":24751:24777   */\n      swap1\n      pop\n        /* \"#utility.yul\":24823:24832   */\n      dup2\n        /* \"#utility.yul\":24817:24821   */\n      dup2\n        /* \"#utility.yul\":24813:24833   */\n      sub\n        /* \"#utility.yul\":24809:24810   */\n      0x00\n        /* \"#utility.yul\":24798:24807   */\n      dup4\n        /* \"#utility.yul\":24794:24811   */\n      add\n        /* \"#utility.yul\":24787:24834   */\n      mstore\n        /* \"#utility.yul\":24851:24982   */\n      tag_711\n        /* \"#utility.yul\":24977:24981   */\n      dup2\n        /* \"#utility.yul\":24851:24982   */\n      tag_428\n      jump\t// in\n    tag_711:\n        /* \"#utility.yul\":24843:24982   */\n      swap1\n      pop\n        /* \"#utility.yul\":24570:24989   */\n      swap2\n      swap1\n      pop\n      jump\t// out\n        /* \"#utility.yul\":24995:25170   */\n    tag_429:\n        /* \"#utility.yul\":25135:25162   */\n      0x416c7265616479204772616e746564205468697320526f6c6500000000000000\n        /* \"#utility.yul\":25131:25132   */\n      0x00\n        /* \"#utility.yul\":25123:25129   */\n      dup3\n        /* \"#utility.yul\":25119:25133   */\n      add\n        /* \"#utility.yul\":25112:25163   */\n      mstore\n        /* \"#utility.yul\":24995:25170   */\n      pop\n      jump\t// out\n        /* \"#utility.yul\":25176:25542   */\n    tag_430:\n        /* \"#utility.yul\":25318:25321   */\n      0x00\n        /* \"#utility.yul\":25339:25406   */\n      tag_714\n        /* \"#utility.yul\":25403:25405   */\n      0x19\n        /* \"#utility.yul\":25398:25401   */\n      dup4\n        /* \"#utility.yul\":25339:25406   */\n      tag_392\n      jump\t// in\n    tag_714:\n        /* \"#utility.yul\":25332:25406   */\n      swap2\n      pop\n        /* \"#utility.yul\":25415:25508   */\n      tag_715\n        /* \"#utility.yul\":25504:25507   */\n      dup3\n        /* \"#utility.yul\":25415:25508   */\n      tag_429\n      jump\t// in\n    tag_715:\n        /* \"#utility.yul\":25533:25535   */\n      0x20\n        /* \"#utility.yul\":25528:25531   */\n      dup3\n        /* \"#utility.yul\":25524:25536   */\n      add\n        /* \"#utility.yul\":25517:25536   */\n      swap1\n      pop\n        /* \"#utility.yul\":25176:25542   */\n      swap2\n      swap1\n      pop\n      jump\t// out\n        /* \"#utility.yul\":25548:25967   */\n    tag_171:\n        /* \"#utility.yul\":25714:25718   */\n      0x00\n        /* \"#utility.yul\":25752:25754   */\n      0x20\n        /* \"#utility.yul\":25741:25750   */\n      dup3\n        /* \"#utility.yul\":25737:25755   */\n      add\n        /* \"#utility.yul\":25729:25755   */\n      swap1\n      pop\n        /* \"#utility.yul\":25801:25810   */\n      dup2\n        /* \"#utility.yul\":25795:25799   */\n      dup2\n        /* \"#utility.yul\":25791:25811   */\n      sub\n        /* \"#utility.yul\":25787:25788   */\n      0x00\n        /* \"#utility.yul\":25776:25785   */\n      dup4\n        /* \"#utility.yul\":25772:25789   */\n      add\n        /* \"#utility.yul\":25765:25812   */\n      mstore\n        /* \"#utility.yul\":25829:25960   */\n      tag_717\n        /* \"#utility.yul\":25955:25959   */\n      dup2\n        /* \"#utility.yul\":25829:25960   */\n      tag_430\n      jump\t// in\n    tag_717:\n        /* \"#utility.yul\":25821:25960   */\n      swap1\n      pop\n        /* \"#utility.yul\":25548:25967   */\n      swap2\n      swap1\n      pop\n      jump\t// out\n        /* \"#utility.yul\":25973:26217   */\n    tag_431:\n        /* \"#utility.yul\":26113:26147   */\n      0x4772616e742068617320616c7265616479206265656e20676976656e3b206974\n        /* \"#utility.yul\":26109:26110   */\n      0x00\n        /* \"#utility.yul\":26101:26107   */\n      dup3\n        /* \"#utility.yul\":26097:26111   */\n      add\n        /* \"#utility.yul\":26090:26148   */\n      mstore\n        /* \"#utility.yul\":26182:26209   */\n      0x2063616e206f6e6c79206265206772616e746564206f6e636500000000000000\n        /* \"#utility.yul\":26177:26179   */\n      0x20\n        /* \"#utility.yul\":26169:26175   */\n      dup3\n        /* \"#utility.yul\":26165:26180   */\n      add\n        /* \"#utility.yul\":26158:26210   */\n      mstore\n        /* \"#utility.yul\":25973:26217   */\n      pop\n      jump\t// out\n        /* \"#utility.yul\":26223:26589   */\n    tag_432:\n        /* \"#utility.yul\":26365:26368   */\n      0x00\n        /* \"#utility.yul\":26386:26453   */\n      tag_720\n        /* \"#utility.yul\":26450:26452   */\n      0x39\n        /* \"#utility.yul\":26445:26448   */\n      dup4\n        /* \"#utility.yul\":26386:26453   */\n      tag_392\n      jump\t// in\n    tag_720:\n        /* \"#utility.yul\":26379:26453   */\n      swap2\n      pop\n        /* \"#utility.yul\":26462:26555   */\n      tag_721\n        /* \"#utility.yul\":26551:26554   */\n      dup3\n        /* \"#utility.yul\":26462:26555   */\n      tag_431\n      jump\t// in\n    tag_721:\n        /* \"#utility.yul\":26580:26582   */\n      0x40\n        /* \"#utility.yul\":26575:26578   */\n      dup3\n        /* \"#utility.yul\":26571:26583   */\n      add\n        /* \"#utility.yul\":26564:26583   */\n      swap1\n      pop\n        /* \"#utility.yul\":26223:26589   */\n      swap2\n      swap1\n      pop\n      jump\t// out\n        /* \"#utility.yul\":26595:27014   */\n    tag_174:\n        /* \"#utility.yul\":26761:26765   */\n      0x00\n        /* \"#utility.yul\":26799:26801   */\n      0x20\n        /* \"#utility.yul\":26788:26797   */\n      dup3\n        /* \"#utility.yul\":26784:26802   */\n      add\n        /* \"#utility.yul\":26776:26802   */\n      swap1\n      pop\n        /* \"#utility.yul\":26848:26857   */\n      dup2\n        /* \"#utility.yul\":26842:26846   */\n      dup2\n        /* \"#utility.yul\":26838:26858   */\n      sub\n        /* \"#utility.yul\":26834:26835   */\n      0x00\n        /* \"#utility.yul\":26823:26832   */\n      dup4\n        /* \"#utility.yul\":26819:26836   */\n      add\n        /* \"#utility.yul\":26812:26859   */\n      mstore\n        /* \"#utility.yul\":26876:27007   */\n      tag_723\n        /* \"#utility.yul\":27002:27006   */\n      dup2\n        /* \"#utility.yul\":26876:27007   */\n      tag_432\n      jump\t// in\n    tag_723:\n        /* \"#utility.yul\":26868:27007   */\n      swap1\n      pop\n        /* \"#utility.yul\":26595:27014   */\n      swap2\n      swap1\n      pop\n      jump\t// out\n        /* \"#utility.yul\":27020:27192   */\n    tag_433:\n        /* \"#utility.yul\":27160:27184   */\n      0x43616c6c6572206973206e6f7420612070617573657200000000000000000000\n        /* \"#utility.yul\":27156:27157   */\n      0x00\n        /* \"#utility.yul\":27148:27154   */\n      dup3\n        /* \"#utility.yul\":27144:27158   */\n      add\n        /* \"#utility.yul\":27137:27185   */\n      mstore\n        /* \"#utility.yul\":27020:27192   */\n      pop\n      jump\t// out\n        /* \"#utility.yul\":27198:27564   */\n    tag_434:\n        /* \"#utility.yul\":27340:27343   */\n      0x00\n        /* \"#utility.yul\":27361:27428   */\n      tag_726\n        /* \"#utility.yul\":27425:27427   */\n      0x16\n        /* \"#utility.yul\":27420:27423   */\n      dup4\n        /* \"#utility.yul\":27361:27428   */\n      tag_392\n      jump\t// in\n    tag_726:\n        /* \"#utility.yul\":27354:27428   */\n      swap2\n      pop\n        /* \"#utility.yul\":27437:27530   */\n      tag_727\n        /* \"#utility.yul\":27526:27529   */\n      dup3\n        /* \"#utility.yul\":27437:27530   */\n      tag_433\n      jump\t// in\n    tag_727:\n        /* \"#utility.yul\":27555:27557   */\n      0x20\n        /* \"#utility.yul\":27550:27553   */\n      dup3\n        /* \"#utility.yul\":27546:27558   */\n      add\n        /* \"#utility.yul\":27539:27558   */\n      swap1\n      pop\n        /* \"#utility.yul\":27198:27564   */\n      swap2\n      swap1\n      pop\n      jump\t// out\n        /* \"#utility.yul\":27570:27989   */\n    tag_238:\n        /* \"#utility.yul\":27736:27740   */\n      0x00\n        /* \"#utility.yul\":27774:27776   */\n      0x20\n        /* \"#utility.yul\":27763:27772   */\n      dup3\n        /* \"#utility.yul\":27759:27777   */\n      add\n        /* \"#utility.yul\":27751:27777   */\n      swap1\n      pop\n        /* \"#utility.yul\":27823:27832   */\n      dup2\n        /* \"#utility.yul\":27817:27821   */\n      dup2\n        /* \"#utility.yul\":27813:27833   */\n      sub\n        /* \"#utility.yul\":27809:27810   */\n      0x00\n        /* \"#utility.yul\":27798:27807   */\n      dup4\n        /* \"#utility.yul\":27794:27811   */\n      add\n        /* \"#utility.yul\":27787:27834   */\n      mstore\n        /* \"#utility.yul\":27851:27982   */\n      tag_729\n        /* \"#utility.yul\":27977:27981   */\n      dup2\n        /* \"#utility.yul\":27851:27982   */\n      tag_434\n      jump\t// in\n    tag_729:\n        /* \"#utility.yul\":27843:27982   */\n      swap1\n      pop\n        /* \"#utility.yul\":27570:27989   */\n      swap2\n      swap1\n      pop\n      jump\t// out\n        /* \"#utility.yul\":27995:28231   */\n    tag_435:\n        /* \"#utility.yul\":28135:28169   */\n      0x43616c6c657220646f6573206e6f7420686176652070617573657220726f6c65\n        /* \"#utility.yul\":28131:28132   */\n      0x00\n        /* \"#utility.yul\":28123:28129   */\n      dup3\n        /* \"#utility.yul\":28119:28133   */\n      add\n        /* \"#utility.yul\":28112:28170   */\n      mstore\n        /* \"#utility.yul\":28204:28223   */\n      0x206772616e7465642062792061646d696e000000000000000000000000000000\n        /* \"#utility.yul\":28199:28201   */\n      0x20\n        /* \"#utility.yul\":28191:28197   */\n      dup3\n        /* \"#utility.yul\":28187:28202   */\n      add\n        /* \"#utility.yul\":28180:28224   */\n      mstore\n        /* \"#utility.yul\":27995:28231   */\n      pop\n      jump\t// out\n        /* \"#utility.yul\":28237:28603   */\n    tag_436:\n        /* \"#utility.yul\":28379:28382   */\n      0x00\n        /* \"#utility.yul\":28400:28467   */\n      tag_732\n        /* \"#utility.yul\":28464:28466   */\n      0x31\n        /* \"#utility.yul\":28459:28462   */\n      dup4\n        /* \"#utility.yul\":28400:28467   */\n      tag_392\n      jump\t// in\n    tag_732:\n        /* \"#utility.yul\":28393:28467   */\n      swap2\n      pop\n        /* \"#utility.yul\":28476:28569   */\n      tag_733\n        /* \"#utility.yul\":28565:28568   */\n      dup3\n        /* \"#utility.yul\":28476:28569   */\n      tag_435\n      jump\t// in\n    tag_733:\n        /* \"#utility.yul\":28594:28596   */\n      0x40\n        /* \"#utility.yul\":28589:28592   */\n      dup3\n        /* \"#utility.yul\":28585:28597   */\n      add\n        /* \"#utility.yul\":28578:28597   */\n      swap1\n      pop\n        /* \"#utility.yul\":28237:28603   */\n      swap2\n      swap1\n      pop\n      jump\t// out\n        /* \"#utility.yul\":28609:29028   */\n    tag_241:\n        /* \"#utility.yul\":28775:28779   */\n      0x00\n        /* \"#utility.yul\":28813:28815   */\n      0x20\n        /* \"#utility.yul\":28802:28811   */\n      dup3\n        /* \"#utility.yul\":28798:28816   */\n      add\n        /* \"#utility.yul\":28790:28816   */\n      swap1\n      pop\n        /* \"#utility.yul\":28862:28871   */\n      dup2\n        /* \"#utility.yul\":28856:28860   */\n      dup2\n        /* \"#utility.yul\":28852:28872   */\n      sub\n        /* \"#utility.yul\":28848:28849   */\n      0x00\n        /* \"#utility.yul\":28837:28846   */\n      dup4\n        /* \"#utility.yul\":28833:28850   */\n      add\n        /* \"#utility.yul\":28826:28873   */\n      mstore\n        /* \"#utility.yul\":28890:29021   */\n      tag_735\n        /* \"#utility.yul\":29016:29020   */\n      dup2\n        /* \"#utility.yul\":28890:29021   */\n      tag_436\n      jump\t// in\n    tag_735:\n        /* \"#utility.yul\":28882:29021   */\n      swap1\n      pop\n        /* \"#utility.yul\":28609:29028   */\n      swap2\n      swap1\n      pop\n      jump\t// out\n        /* \"#utility.yul\":29034:29259   */\n    tag_437:\n        /* \"#utility.yul\":29174:29208   */\n      0x5468652070617573657220726f6c6520686173206e65766572206265656e2067\n        /* \"#utility.yul\":29170:29171   */\n      0x00\n        /* \"#utility.yul\":29162:29168   */\n      dup3\n        /* \"#utility.yul\":29158:29172   */\n      add\n        /* \"#utility.yul\":29151:29209   */\n      mstore\n        /* \"#utility.yul\":29243:29251   */\n      0x72616e7465640000000000000000000000000000000000000000000000000000\n        /* \"#utility.yul\":29238:29240   */\n      0x20\n        /* \"#utility.yul\":29230:29236   */\n      dup3\n        /* \"#utility.yul\":29226:29241   */\n      add\n        /* \"#utility.yul\":29219:29252   */\n      mstore\n        /* \"#utility.yul\":29034:29259   */\n      pop\n      jump\t// out\n        /* \"#utility.yul\":29265:29631   */\n    tag_438:\n        /* \"#utility.yul\":29407:29410   */\n      0x00\n        /* \"#utility.yul\":29428:29495   */\n      tag_738\n        /* \"#utility.yul\":29492:29494   */\n      0x26\n        /* \"#utility.yul\":29487:29490   */\n      dup4\n        /* \"#utility.yul\":29428:29495   */\n      tag_392\n      jump\t// in\n    tag_738:\n        /* \"#utility.yul\":29421:29495   */\n      swap2\n      pop\n        /* \"#utility.yul\":29504:29597   */\n      tag_739\n        /* \"#utility.yul\":29593:29596   */\n      dup3\n        /* \"#utility.yul\":29504:29597   */\n      tag_437\n      jump\t// in\n    tag_739:\n        /* \"#utility.yul\":29622:29624   */\n      0x40\n        /* \"#utility.yul\":29617:29620   */\n      dup3\n        /* \"#utility.yul\":29613:29625   */\n      add\n        /* \"#utility.yul\":29606:29625   */\n      swap1\n      pop\n        /* \"#utility.yul\":29265:29631   */\n      swap2\n      swap1\n      pop\n      jump\t// out\n        /* \"#utility.yul\":29637:30056   */\n    tag_245:\n        /* \"#utility.yul\":29803:29807   */\n      0x00\n        /* \"#utility.yul\":29841:29843   */\n      0x20\n        /* \"#utility.yul\":29830:29839   */\n      dup3\n        /* \"#utility.yul\":29826:29844   */\n      add\n        /* \"#utility.yul\":29818:29844   */\n      swap1\n      pop\n        /* \"#utility.yul\":29890:29899   */\n      dup2\n        /* \"#utility.yul\":29884:29888   */\n      dup2\n        /* \"#utility.yul\":29880:29900   */\n      sub\n        /* \"#utility.yul\":29876:29877   */\n      0x00\n        /* \"#utility.yul\":29865:29874   */\n      dup4\n        /* \"#utility.yul\":29861:29878   */\n      add\n        /* \"#utility.yul\":29854:29901   */\n      mstore\n        /* \"#utility.yul\":29918:30049   */\n      tag_741\n        /* \"#utility.yul\":30044:30048   */\n      dup2\n        /* \"#utility.yul\":29918:30049   */\n      tag_438\n      jump\t// in\n    tag_741:\n        /* \"#utility.yul\":29910:30049   */\n      swap1\n      pop\n        /* \"#utility.yul\":29637:30056   */\n      swap2\n      swap1\n      pop\n      jump\t// out\n        /* \"#utility.yul\":30062:30289   */\n    tag_439:\n        /* \"#utility.yul\":30202:30236   */\n      0x5468652070617573657220726f6c652068617320616c7265616479206265656e\n        /* \"#utility.yul\":30198:30199   */\n      0x00\n        /* \"#utility.yul\":30190:30196   */\n      dup3\n        /* \"#utility.yul\":30186:30200   */\n      add\n        /* \"#utility.yul\":30179:30237   */\n      mstore\n        /* \"#utility.yul\":30271:30281   */\n      0x207265766f6b6564000000000000000000000000000000000000000000000000\n        /* \"#utility.yul\":30266:30268   */\n      0x20\n        /* \"#utility.yul\":30258:30264   */\n      dup3\n        /* \"#utility.yul\":30254:30269   */\n      add\n        /* \"#utility.yul\":30247:30282   */\n      mstore\n        /* \"#utility.yul\":30062:30289   */\n      pop\n      jump\t// out\n        /* \"#utility.yul\":30295:30661   */\n    tag_440:\n        /* \"#utility.yul\":30437:30440   */\n      0x00\n        /* \"#utility.yul\":30458:30525   */\n      tag_744\n        /* \"#utility.yul\":30522:30524   */\n      0x28\n        /* \"#utility.yul\":30517:30520   */\n      dup4\n        /* \"#utility.yul\":30458:30525   */\n      tag_392\n      jump\t// in\n    tag_744:\n        /* \"#utility.yul\":30451:30525   */\n      swap2\n      pop\n        /* \"#utility.yul\":30534:30627   */\n      tag_745\n        /* \"#utility.yul\":30623:30626   */\n      dup3\n        /* \"#utility.yul\":30534:30627   */\n      tag_439\n      jump\t// in\n    tag_745:\n        /* \"#utility.yul\":30652:30654   */\n      0x40\n        /* \"#utility.yul\":30647:30650   */\n      dup3\n        /* \"#utility.yul\":30643:30655   */\n      add\n        /* \"#utility.yul\":30636:30655   */\n      swap1\n      pop\n        /* \"#utility.yul\":30295:30661   */\n      swap2\n      swap1\n      pop\n      jump\t// out\n        /* \"#utility.yul\":30667:31086   */\n    tag_248:\n        /* \"#utility.yul\":30833:30837   */\n      0x00\n        /* \"#utility.yul\":30871:30873   */\n      0x20\n        /* \"#utility.yul\":30860:30869   */\n      dup3\n        /* \"#utility.yul\":30856:30874   */\n      add\n        /* \"#utility.yul\":30848:30874   */\n      swap1\n      pop\n        /* \"#utility.yul\":30920:30929   */\n      dup2\n        /* \"#utility.yul\":30914:30918   */\n      dup2\n        /* \"#utility.yul\":30910:30930   */\n      sub\n        /* \"#utility.yul\":30906:30907   */\n      0x00\n        /* \"#utility.yul\":30895:30904   */\n      dup4\n        /* \"#utility.yul\":30891:30908   */\n      add\n        /* \"#utility.yul\":30884:30931   */\n      mstore\n        /* \"#utility.yul\":30948:31079   */\n      tag_747\n        /* \"#utility.yul\":31074:31078   */\n      dup2\n        /* \"#utility.yul\":30948:31079   */\n      tag_440\n      jump\t// in\n    tag_747:\n        /* \"#utility.yul\":30940:31079   */\n      swap1\n      pop\n        /* \"#utility.yul\":30667:31086   */\n      swap2\n      swap1\n      pop\n      jump\t// out\n        /* \"#utility.yul\":31092:31265   */\n    tag_441:\n        /* \"#utility.yul\":31232:31257   */\n      0x526f6c65206d7573742062652061646d696e206f6e6c79000000000000000000\n        /* \"#utility.yul\":31228:31229   */\n      0x00\n        /* \"#utility.yul\":31220:31226   */\n      dup3\n        /* \"#utility.yul\":31216:31230   */\n      add\n        /* \"#utility.yul\":31209:31258   */\n      mstore\n        /* \"#utility.yul\":31092:31265   */\n      pop\n      jump\t// out\n        /* \"#utility.yul\":31271:31637   */\n    tag_442:\n        /* \"#utility.yul\":31413:31416   */\n      0x00\n        /* \"#utility.yul\":31434:31501   */\n      tag_750\n        /* \"#utility.yul\":31498:31500   */\n      0x17\n        /* \"#utility.yul\":31493:31496   */\n      dup4\n        /* \"#utility.yul\":31434:31501   */\n      tag_392\n      jump\t// in\n    tag_750:\n        /* \"#utility.yul\":31427:31501   */\n      swap2\n      pop\n        /* \"#utility.yul\":31510:31603   */\n      tag_751\n        /* \"#utility.yul\":31599:31602   */\n      dup3\n        /* \"#utility.yul\":31510:31603   */\n      tag_441\n      jump\t// in\n    tag_751:\n        /* \"#utility.yul\":31628:31630   */\n      0x20\n        /* \"#utility.yul\":31623:31626   */\n      dup3\n        /* \"#utility.yul\":31619:31631   */\n      add\n        /* \"#utility.yul\":31612:31631   */\n      swap1\n      pop\n        /* \"#utility.yul\":31271:31637   */\n      swap2\n      swap1\n      pop\n      jump\t// out\n        /* \"#utility.yul\":31643:32062   */\n    tag_261:\n        /* \"#utility.yul\":31809:31813   */\n      0x00\n        /* \"#utility.yul\":31847:31849   */\n      0x20\n        /* \"#utility.yul\":31836:31845   */\n      dup3\n        /* \"#utility.yul\":31832:31850   */\n      add\n        /* \"#utility.yul\":31824:31850   */\n      swap1\n      pop\n        /* \"#utility.yul\":31896:31905   */\n      dup2\n        /* \"#utility.yul\":31890:31894   */\n      dup2\n        /* \"#utility.yul\":31886:31906   */\n      sub\n        /* \"#utility.yul\":31882:31883   */\n      0x00\n        /* \"#utility.yul\":31871:31880   */\n      dup4\n        /* \"#utility.yul\":31867:31884   */\n      add\n        /* \"#utility.yul\":31860:31907   */\n      mstore\n        /* \"#utility.yul\":31924:32055   */\n      tag_753\n        /* \"#utility.yul\":32050:32054   */\n      dup2\n        /* \"#utility.yul\":31924:32055   */\n      tag_442\n      jump\t// in\n    tag_753:\n        /* \"#utility.yul\":31916:32055   */\n      swap1\n      pop\n        /* \"#utility.yul\":31643:32062   */\n      swap2\n      swap1\n      pop\n      jump\t// out\n        /* \"#utility.yul\":32068:32292   */\n    tag_443:\n        /* \"#utility.yul\":32208:32242   */\n      0x54686520726f6c652063616e6e6f742062652061737369676e6564206173204d\n        /* \"#utility.yul\":32204:32205   */\n      0x00\n        /* \"#utility.yul\":32196:32202   */\n      dup3\n        /* \"#utility.yul\":32192:32206   */\n      add\n        /* \"#utility.yul\":32185:32243   */\n      mstore\n        /* \"#utility.yul\":32277:32284   */\n      0x696e746572000000000000000000000000000000000000000000000000000000\n        /* \"#utility.yul\":32272:32274   */\n      0x20\n        /* \"#utility.yul\":32264:32270   */\n      dup3\n        /* \"#utility.yul\":32260:32275   */\n      add\n        /* \"#utility.yul\":32253:32285   */\n      mstore\n        /* \"#utility.yul\":32068:32292   */\n      pop\n      jump\t// out\n        /* \"#utility.yul\":32298:32664   */\n    tag_444:\n        /* \"#utility.yul\":32440:32443   */\n      0x00\n        /* \"#utility.yul\":32461:32528   */\n      tag_756\n        /* \"#utility.yul\":32525:32527   */\n      0x25\n        /* \"#utility.yul\":32520:32523   */\n      dup4\n        /* \"#utility.yul\":32461:32528   */\n      tag_392\n      jump\t// in\n    tag_756:\n        /* \"#utility.yul\":32454:32528   */\n      swap2\n      pop\n        /* \"#utility.yul\":32537:32630   */\n      tag_757\n        /* \"#utility.yul\":32626:32629   */\n      dup3\n        /* \"#utility.yul\":32537:32630   */\n      tag_443\n      jump\t// in\n    tag_757:\n        /* \"#utility.yul\":32655:32657   */\n      0x40\n        /* \"#utility.yul\":32650:32653   */\n      dup3\n        /* \"#utility.yul\":32646:32658   */\n      add\n        /* \"#utility.yul\":32639:32658   */\n      swap1\n      pop\n        /* \"#utility.yul\":32298:32664   */\n      swap2\n      swap1\n      pop\n      jump\t// out\n        /* \"#utility.yul\":32670:33089   */\n    tag_268:\n        /* \"#utility.yul\":32836:32840   */\n      0x00\n        /* \"#utility.yul\":32874:32876   */\n      0x20\n        /* \"#utility.yul\":32863:32872   */\n      dup3\n        /* \"#utility.yul\":32859:32877   */\n      add\n        /* \"#utility.yul\":32851:32877   */\n      swap1\n      pop\n        /* \"#utility.yul\":32923:32932   */\n      dup2\n        /* \"#utility.yul\":32917:32921   */\n      dup2\n        /* \"#utility.yul\":32913:32933   */\n      sub\n        /* \"#utility.yul\":32909:32910   */\n      0x00\n        /* \"#utility.yul\":32898:32907   */\n      dup4\n        /* \"#utility.yul\":32894:32911   */\n      add\n        /* \"#utility.yul\":32887:32934   */\n      mstore\n        /* \"#utility.yul\":32951:33082   */\n      tag_759\n        /* \"#utility.yul\":33077:33081   */\n      dup2\n        /* \"#utility.yul\":32951:33082   */\n      tag_444\n      jump\t// in\n    tag_759:\n        /* \"#utility.yul\":32943:33082   */\n      swap1\n      pop\n        /* \"#utility.yul\":32670:33089   */\n      swap2\n      swap1\n      pop\n      jump\t// out\n        /* \"#utility.yul\":33095:33319   */\n    tag_445:\n        /* \"#utility.yul\":33235:33269   */\n      0x54686520726f6c652063616e6e6f742062652061737369676e65642061732050\n        /* \"#utility.yul\":33231:33232   */\n      0x00\n        /* \"#utility.yul\":33223:33229   */\n      dup3\n        /* \"#utility.yul\":33219:33233   */\n      add\n        /* \"#utility.yul\":33212:33270   */\n      mstore\n        /* \"#utility.yul\":33304:33311   */\n      0x6175736572000000000000000000000000000000000000000000000000000000\n        /* \"#utility.yul\":33299:33301   */\n      0x20\n        /* \"#utility.yul\":33291:33297   */\n      dup3\n        /* \"#utility.yul\":33287:33302   */\n      add\n        /* \"#utility.yul\":33280:33312   */\n      mstore\n        /* \"#utility.yul\":33095:33319   */\n      pop\n      jump\t// out\n        /* \"#utility.yul\":33325:33691   */\n    tag_446:\n        /* \"#utility.yul\":33467:33470   */\n      0x00\n        /* \"#utility.yul\":33488:33555   */\n      tag_762\n        /* \"#utility.yul\":33552:33554   */\n      0x25\n        /* \"#utility.yul\":33547:33550   */\n      dup4\n        /* \"#utility.yul\":33488:33555   */\n      tag_392\n      jump\t// in\n    tag_762:\n        /* \"#utility.yul\":33481:33555   */\n      swap2\n      pop\n        /* \"#utility.yul\":33564:33657   */\n      tag_763\n        /* \"#utility.yul\":33653:33656   */\n      dup3\n        /* \"#utility.yul\":33564:33657   */\n      tag_445\n      jump\t// in\n    tag_763:\n        /* \"#utility.yul\":33682:33684   */\n      0x40\n        /* \"#utility.yul\":33677:33680   */\n      dup3\n        /* \"#utility.yul\":33673:33685   */\n      add\n        /* \"#utility.yul\":33666:33685   */\n      swap1\n      pop\n        /* \"#utility.yul\":33325:33691   */\n      swap2\n      swap1\n      pop\n      jump\t// out\n        /* \"#utility.yul\":33697:34116   */\n    tag_275:\n        /* \"#utility.yul\":33863:33867   */\n      0x00\n        /* \"#utility.yul\":33901:33903   */\n      0x20\n        /* \"#utility.yul\":33890:33899   */\n      dup3\n        /* \"#utility.yul\":33886:33904   */\n      add\n        /* \"#utility.yul\":33878:33904   */\n      swap1\n      pop\n        /* \"#utility.yul\":33950:33959   */\n      dup2\n        /* \"#utility.yul\":33944:33948   */\n      dup2\n        /* \"#utility.yul\":33940:33960   */\n      sub\n        /* \"#utility.yul\":33936:33937   */\n      0x00\n        /* \"#utility.yul\":33925:33934   */\n      dup4\n        /* \"#utility.yul\":33921:33938   */\n      add\n        /* \"#utility.yul\":33914:33961   */\n      mstore\n        /* \"#utility.yul\":33978:34109   */\n      tag_765\n        /* \"#utility.yul\":34104:34108   */\n      dup2\n        /* \"#utility.yul\":33978:34109   */\n      tag_446\n      jump\t// in\n    tag_765:\n        /* \"#utility.yul\":33970:34109   */\n      swap1\n      pop\n        /* \"#utility.yul\":33697:34116   */\n      swap2\n      swap1\n      pop\n      jump\t// out\n        /* \"#utility.yul\":34122:34344   */\n    tag_447:\n        /* \"#utility.yul\":34262:34296   */\n      0x61646d696e206861766520616e20616c72656164792061737369676e65642072\n        /* \"#utility.yul\":34258:34259   */\n      0x00\n        /* \"#utility.yul\":34250:34256   */\n      dup3\n        /* \"#utility.yul\":34246:34260   */\n      add\n        /* \"#utility.yul\":34239:34297   */\n      mstore\n        /* \"#utility.yul\":34331:34336   */\n      0x6f6c650000000000000000000000000000000000000000000000000000000000\n        /* \"#utility.yul\":34326:34328   */\n      0x20\n        /* \"#utility.yul\":34318:34324   */\n      dup3\n        /* \"#utility.yul\":34314:34329   */\n      add\n        /* \"#utility.yul\":34307:34337   */\n      mstore\n        /* \"#utility.yul\":34122:34344   */\n      pop\n      jump\t// out\n        /* \"#utility.yul\":34350:34716   */\n    tag_448:\n        /* \"#utility.yul\":34492:34495   */\n      0x00\n        /* \"#utility.yul\":34513:34580   */\n      tag_768\n        /* \"#utility.yul\":34577:34579   */\n      0x23\n        /* \"#utility.yul\":34572:34575   */\n      dup4\n        /* \"#utility.yul\":34513:34580   */\n      tag_392\n      jump\t// in\n    tag_768:\n        /* \"#utility.yul\":34506:34580   */\n      swap2\n      pop\n        /* \"#utility.yul\":34589:34682   */\n      tag_769\n        /* \"#utility.yul\":34678:34681   */\n      dup3\n        /* \"#utility.yul\":34589:34682   */\n      tag_447\n      jump\t// in\n    tag_769:\n        /* \"#utility.yul\":34707:34709   */\n      0x40\n        /* \"#utility.yul\":34702:34705   */\n      dup3\n        /* \"#utility.yul\":34698:34710   */\n      add\n        /* \"#utility.yul\":34691:34710   */\n      swap1\n      pop\n        /* \"#utility.yul\":34350:34716   */\n      swap2\n      swap1\n      pop\n      jump\t// out\n        /* \"#utility.yul\":34722:35141   */\n    tag_282:\n        /* \"#utility.yul\":34888:34892   */\n      0x00\n        /* \"#utility.yul\":34926:34928   */\n      0x20\n        /* \"#utility.yul\":34915:34924   */\n      dup3\n        /* \"#utility.yul\":34911:34929   */\n      add\n        /* \"#utility.yul\":34903:34929   */\n      swap1\n      pop\n        /* \"#utility.yul\":34975:34984   */\n      dup2\n        /* \"#utility.yul\":34969:34973   */\n      dup2\n        /* \"#utility.yul\":34965:34985   */\n      sub\n        /* \"#utility.yul\":34961:34962   */\n      0x00\n        /* \"#utility.yul\":34950:34959   */\n      dup4\n        /* \"#utility.yul\":34946:34963   */\n      add\n        /* \"#utility.yul\":34939:34986   */\n      mstore\n        /* \"#utility.yul\":35003:35134   */\n      tag_771\n        /* \"#utility.yul\":35129:35133   */\n      dup2\n        /* \"#utility.yul\":35003:35134   */\n      tag_448\n      jump\t// in\n    tag_771:\n        /* \"#utility.yul\":34995:35134   */\n      swap1\n      pop\n        /* \"#utility.yul\":34722:35141   */\n      swap2\n      swap1\n      pop\n      jump\t// out\n        /* \"#utility.yul\":35147:35384   */\n    tag_449:\n        /* \"#utility.yul\":35287:35321   */\n      0x5468657265206973204e6f20526f6c65205479706520666f7220746869732054\n        /* \"#utility.yul\":35283:35284   */\n      0x00\n        /* \"#utility.yul\":35275:35281   */\n      dup3\n        /* \"#utility.yul\":35271:35285   */\n      add\n        /* \"#utility.yul\":35264:35322   */\n      mstore\n        /* \"#utility.yul\":35356:35376   */\n      0x797065206f6620726f6c65206e756d6265720000000000000000000000000000\n        /* \"#utility.yul\":35351:35353   */\n      0x20\n        /* \"#utility.yul\":35343:35349   */\n      dup3\n        /* \"#utility.yul\":35339:35354   */\n      add\n        /* \"#utility.yul\":35332:35377   */\n      mstore\n        /* \"#utility.yul\":35147:35384   */\n      pop\n      jump\t// out\n        /* \"#utility.yul\":35390:35756   */\n    tag_450:\n        /* \"#utility.yul\":35532:35535   */\n      0x00\n        /* \"#utility.yul\":35553:35620   */\n      tag_774\n        /* \"#utility.yul\":35617:35619   */\n      0x32\n        /* \"#utility.yul\":35612:35615   */\n      dup4\n        /* \"#utility.yul\":35553:35620   */\n      tag_392\n      jump\t// in\n    tag_774:\n        /* \"#utility.yul\":35546:35620   */\n      swap2\n      pop\n        /* \"#utility.yul\":35629:35722   */\n      tag_775\n        /* \"#utility.yul\":35718:35721   */\n      dup3\n        /* \"#utility.yul\":35629:35722   */\n      tag_449\n      jump\t// in\n    tag_775:\n        /* \"#utility.yul\":35747:35749   */\n      0x40\n        /* \"#utility.yul\":35742:35745   */\n      dup3\n        /* \"#utility.yul\":35738:35750   */\n      add\n        /* \"#utility.yul\":35731:35750   */\n      swap1\n      pop\n        /* \"#utility.yul\":35390:35756   */\n      swap2\n      swap1\n      pop\n      jump\t// out\n        /* \"#utility.yul\":35762:36181   */\n    tag_294:\n        /* \"#utility.yul\":35928:35932   */\n      0x00\n        /* \"#utility.yul\":35966:35968   */\n      0x20\n        /* \"#utility.yul\":35955:35964   */\n      dup3\n        /* \"#utility.yul\":35951:35969   */\n      add\n        /* \"#utility.yul\":35943:35969   */\n      swap1\n      pop\n        /* \"#utility.yul\":36015:36024   */\n      dup2\n        /* \"#utility.yul\":36009:36013   */\n      dup2\n        /* \"#utility.yul\":36005:36025   */\n      sub\n        /* \"#utility.yul\":36001:36002   */\n      0x00\n        /* \"#utility.yul\":35990:35999   */\n      dup4\n        /* \"#utility.yul\":35986:36003   */\n      add\n        /* \"#utility.yul\":35979:36026   */\n      mstore\n        /* \"#utility.yul\":36043:36174   */\n      tag_777\n        /* \"#utility.yul\":36169:36173   */\n      dup2\n        /* \"#utility.yul\":36043:36174   */\n      tag_450\n      jump\t// in\n    tag_777:\n        /* \"#utility.yul\":36035:36174   */\n      swap1\n      pop\n        /* \"#utility.yul\":35762:36181   */\n      swap2\n      swap1\n      pop\n      jump\t// out\n        /* \"#utility.yul\":36187:36335   */\n    tag_451:\n        /* \"#utility.yul\":36289:36300   */\n      0x00\n        /* \"#utility.yul\":36326:36329   */\n      dup2\n        /* \"#utility.yul\":36311:36329   */\n      swap1\n      pop\n        /* \"#utility.yul\":36187:36335   */\n      swap3\n      swap2\n      pop\n      pop\n      jump\t// out\n        /* \"#utility.yul\":36365:36695   */\n    tag_452:\n        /* \"#utility.yul\":36481:36484   */\n      0x00\n        /* \"#utility.yul\":36502:36591   */\n      tag_780\n        /* \"#utility.yul\":36584:36590   */\n      dup4\n        /* \"#utility.yul\":36579:36582   */\n      dup6\n        /* \"#utility.yul\":36502:36591   */\n      tag_451\n      jump\t// in\n    tag_780:\n        /* \"#utility.yul\":36495:36591   */\n      swap4\n      pop\n        /* \"#utility.yul\":36601:36657   */\n      tag_781\n        /* \"#utility.yul\":36650:36656   */\n      dup4\n        /* \"#utility.yul\":36645:36648   */\n      dup6\n        /* \"#utility.yul\":36638:36643   */\n      dup5\n        /* \"#utility.yul\":36601:36657   */\n      tag_371\n      jump\t// in\n    tag_781:\n        /* \"#utility.yul\":36682:36688   */\n      dup3\n        /* \"#utility.yul\":36677:36680   */\n      dup5\n        /* \"#utility.yul\":36673:36689   */\n      add\n        /* \"#utility.yul\":36666:36689   */\n      swap1\n      pop\n        /* \"#utility.yul\":36365:36695   */\n      swap4\n      swap3\n      pop\n      pop\n      pop\n      jump\t// out\n        /* \"#utility.yul\":36701:36996   */\n    tag_324:\n        /* \"#utility.yul\":36843:36846   */\n      0x00\n        /* \"#utility.yul\":36865:36970   */\n      tag_783\n        /* \"#utility.yul\":36966:36969   */\n      dup3\n        /* \"#utility.yul\":36957:36963   */\n      dup5\n        /* \"#utility.yul\":36949:36955   */\n      dup7\n        /* \"#utility.yul\":36865:36970   */\n      tag_452\n      jump\t// in\n    tag_783:\n        /* \"#utility.yul\":36858:36970   */\n      swap2\n      pop\n        /* \"#utility.yul\":36987:36990   */\n      dup2\n        /* \"#utility.yul\":36980:36990   */\n      swap1\n      pop\n        /* \"#utility.yul\":36701:36996   */\n      swap4\n      swap3\n      pop\n      pop\n      pop\n      jump\t// out\n        /* \"#utility.yul\":37002:37228   */\n    tag_453:\n        /* \"#utility.yul\":37142:37176   */\n      0x4e6f20526f6c6520497320476976656e20546f2050617573657220546f205265\n        /* \"#utility.yul\":37138:37139   */\n      0x00\n        /* \"#utility.yul\":37130:37136   */\n      dup3\n        /* \"#utility.yul\":37126:37140   */\n      add\n        /* \"#utility.yul\":37119:37177   */\n      mstore\n        /* \"#utility.yul\":37211:37220   */\n      0x766f6b6520697400000000000000000000000000000000000000000000000000\n        /* \"#utility.yul\":37206:37208   */\n      0x20\n        /* \"#utility.yul\":37198:37204   */\n      dup3\n        /* \"#utility.yul\":37194:37209   */\n      add\n        /* \"#utility.yul\":37187:37221   */\n      mstore\n        /* \"#utility.yul\":37002:37228   */\n      pop\n      jump\t// out\n        /* \"#utility.yul\":37234:37600   */\n    tag_454:\n        /* \"#utility.yul\":37376:37379   */\n      0x00\n        /* \"#utility.yul\":37397:37464   */\n      tag_786\n        /* \"#utility.yul\":37461:37463   */\n      0x27\n        /* \"#utility.yul\":37456:37459   */\n      dup4\n        /* \"#utility.yul\":37397:37464   */\n      tag_392\n      jump\t// in\n    tag_786:\n        /* \"#utility.yul\":37390:37464   */\n      swap2\n      pop\n        /* \"#utility.yul\":37473:37566   */\n      tag_787\n        /* \"#utility.yul\":37562:37565   */\n      dup3\n        /* \"#utility.yul\":37473:37566   */\n      tag_453\n      jump\t// in\n    tag_787:\n        /* \"#utility.yul\":37591:37593   */\n      0x40\n        /* \"#utility.yul\":37586:37589   */\n      dup3\n        /* \"#utility.yul\":37582:37594   */\n      add\n        /* \"#utility.yul\":37575:37594   */\n      swap1\n      pop\n        /* \"#utility.yul\":37234:37600   */\n      swap2\n      swap1\n      pop\n      jump\t// out\n        /* \"#utility.yul\":37606:38025   */\n    tag_347:\n        /* \"#utility.yul\":37772:37776   */\n      0x00\n        /* \"#utility.yul\":37810:37812   */\n      0x20\n        /* \"#utility.yul\":37799:37808   */\n      dup3\n        /* \"#utility.yul\":37795:37813   */\n      add\n        /* \"#utility.yul\":37787:37813   */\n      swap1\n      pop\n        /* \"#utility.yul\":37859:37868   */\n      dup2\n        /* \"#utility.yul\":37853:37857   */\n      dup2\n        /* \"#utility.yul\":37849:37869   */\n      sub\n        /* \"#utility.yul\":37845:37846   */\n      0x00\n        /* \"#utility.yul\":37834:37843   */\n      dup4\n        /* \"#utility.yul\":37830:37847   */\n      add\n        /* \"#utility.yul\":37823:37870   */\n      mstore\n        /* \"#utility.yul\":37887:38018   */\n      tag_789\n        /* \"#utility.yul\":38013:38017   */\n      dup2\n        /* \"#utility.yul\":37887:38018   */\n      tag_454\n      jump\t// in\n    tag_789:\n        /* \"#utility.yul\":37879:38018   */\n      swap1\n      pop\n        /* \"#utility.yul\":37606:38025   */\n      swap2\n      swap1\n      pop\n      jump\t// out\n        /* \"#utility.yul\":38031:38256   */\n    tag_455:\n        /* \"#utility.yul\":38171:38205   */\n      0x546865206d696e74657220726f6c6520686173206e65766572206265656e2067\n        /* \"#utility.yul\":38167:38168   */\n      0x00\n        /* \"#utility.yul\":38159:38165   */\n      dup3\n        /* \"#utility.yul\":38155:38169   */\n      add\n        /* \"#utility.yul\":38148:38206   */\n      mstore\n        /* \"#utility.yul\":38240:38248   */\n      0x72616e7465640000000000000000000000000000000000000000000000000000\n        /* \"#utility.yul\":38235:38237   */\n      0x20\n        /* \"#utility.yul\":38227:38233   */\n      dup3\n        /* \"#utility.yul\":38223:38238   */\n      add\n        /* \"#utility.yul\":38216:38249   */\n      mstore\n        /* \"#utility.yul\":38031:38256   */\n      pop\n      jump\t// out\n        /* \"#utility.yul\":38262:38628   */\n    tag_456:\n        /* \"#utility.yul\":38404:38407   */\n      0x00\n        /* \"#utility.yul\":38425:38492   */\n      tag_792\n        /* \"#utility.yul\":38489:38491   */\n      0x26\n        /* \"#utility.yul\":38484:38487   */\n      dup4\n        /* \"#utility.yul\":38425:38492   */\n      tag_392\n      jump\t// in\n    tag_792:\n        /* \"#utility.yul\":38418:38492   */\n      swap2\n      pop\n        /* \"#utility.yul\":38501:38594   */\n      tag_793\n        /* \"#utility.yul\":38590:38593   */\n      dup3\n        /* \"#utility.yul\":38501:38594   */\n      tag_455\n      jump\t// in\n    tag_793:\n        /* \"#utility.yul\":38619:38621   */\n      0x40\n        /* \"#utility.yul\":38614:38617   */\n      dup3\n        /* \"#utility.yul\":38610:38622   */\n      add\n        /* \"#utility.yul\":38603:38622   */\n      swap1\n      pop\n        /* \"#utility.yul\":38262:38628   */\n      swap2\n      swap1\n      pop\n      jump\t// out\n        /* \"#utility.yul\":38634:39053   */\n    tag_350:\n        /* \"#utility.yul\":38800:38804   */\n      0x00\n        /* \"#utility.yul\":38838:38840   */\n      0x20\n        /* \"#utility.yul\":38827:38836   */\n      dup3\n        /* \"#utility.yul\":38823:38841   */\n      add\n        /* \"#utility.yul\":38815:38841   */\n      swap1\n      pop\n        /* \"#utility.yul\":38887:38896   */\n      dup2\n        /* \"#utility.yul\":38881:38885   */\n      dup2\n        /* \"#utility.yul\":38877:38897   */\n      sub\n        /* \"#utility.yul\":38873:38874   */\n      0x00\n        /* \"#utility.yul\":38862:38871   */\n      dup4\n        /* \"#utility.yul\":38858:38875   */\n      add\n        /* \"#utility.yul\":38851:38898   */\n      mstore\n        /* \"#utility.yul\":38915:39046   */\n      tag_795\n        /* \"#utility.yul\":39041:39045   */\n      dup2\n        /* \"#utility.yul\":38915:39046   */\n      tag_456\n      jump\t// in\n    tag_795:\n        /* \"#utility.yul\":38907:39046   */\n      swap1\n      pop\n        /* \"#utility.yul\":38634:39053   */\n      swap2\n      swap1\n      pop\n      jump\t// out\n\n    auxdata: 0xa26469706673582212205a490b85210f3f31df945923b5cfccf11d030be82733fcb7adb63cdd258a3de064736f6c634300081e0033\n}\n",
				"bytecode": {
					"linkReferences": {},
					"object": "6080604052348015600e575f5ffd5b506001600a5f01819055505f600a6001015f6101000a81548160ff02191690836002811115603d57603c6046565b5b02179055506073565b7f4e487b71000000000000000000000000000000000000000000000000000000005f52602160045260245ffd5b61424e806100805f395ff3fe608060405234801561000f575f5ffd5b5060043610610135575f3560e01c806380245a21116100b6578063c9feb1591161007a578063c9feb159146103ba578063ceca9ffb146103ec578063d12c987c14610420578063e0639f5c1461043e578063e106fb4b1461046e578063f13e5d091461049e57610135565b806380245a21146102d55780638d97767214610305578063a0d7823e14610335578063a8813de814610369578063bf15071d1461039b57610135565b80633868e7e5116100fd5780633868e7e51461022a57806338e174ed1461025c578063476b49bc146102665780634e69d5601461029957806374b2f66a146102b757610135565b806316d41b94146101395780631e47d8ac1461016a578063208532391461019a578063299958bf146101ca57806332d02f6d146101fa575b5f5ffd5b610153600480360381019061014e9190612ff8565b6104d0565b6040516101619291906130e8565b60405180910390f35b610184600480360381019061017f9190613193565b6105f5565b60405161019191906131eb565b60405180910390f35b6101b460048036038101906101af9190613204565b61061f565b6040516101c191906132a2565b60405180910390f35b6101e460048036038101906101df91906132bb565b61063c565b6040516101f191906132e6565b60405180910390f35b610214600480360381019061020f91906132bb565b61065c565b6040516102219190613347565b60405180910390f35b610244600480360381019061023f9190613367565b6106f7565b604051610253939291906133c6565b60405180910390f35b610264610f43565b005b610280600480360381019061027b9190613204565b610f72565b60405161029094939291906133fb565b60405180910390f35b6102a1611125565b6040516102ae919061348b565b60405180910390f35b6102bf61113d565b6040516102cc91906132e6565b60405180910390f35b6102ef60048036038101906102ea9190613204565b611157565b6040516102fc91906131eb565b60405180910390f35b61031f600480360381019061031a91906132bb565b611174565b60405161032c9190613347565b60405180910390f35b61034f600480360381019061034a9190613204565b611214565b6040516103609594939291906134a4565b60405180910390f35b610383600480360381019061037e9190613193565b61179e565b604051610392939291906133c6565b60405180910390f35b6103a3611dc3565b6040516103b19291906134fc565b60405180910390f35b6103d460048036038101906103cf9190613193565b611de0565b6040516103e3939291906133c6565b60405180910390f35b61040660048036038101906104019190613204565b61255f565b6040516104179594939291906134a4565b60405180910390f35b61042861265a565b60405161043591906132e6565b60405180910390f35b610458600480360381019061045391906132bb565b612666565b6040516104659190613523565b60405180910390f35b61048860048036038101906104839190613599565b6126a1565b6040516104959190613636565b60405180910390f35b6104b860048036038101906104b39190613367565b6126cd565b6040516104c7939291906133c6565b60405180910390f35b6104d8612e65565b5f60405180602001604052808481525060085f8681526020019081526020015f205f820151815f01908161050c9190613853565b50905050600984908060018154018082558091505060019003905f5260205f20015f909190919091505560085f8581526020019081526020015f20600980549050816040518060200160405290815f8201805461056890613683565b80601f016020809104026020016040519081016040528092919081815260200182805461059490613683565b80156105df5780601f106105b6576101008083540402835291602001916105df565b820191905f5260205f20905b8154815290600101906020018083116105c257829003601f168201915b5050505050815250509150915091509250929050565b6003602052815f5260405f20602052805f5260405f205f915091509054906101000a900460ff1681565b6004602052805f5260405f205f915054906101000a900460ff1681565b6009818154811061064b575f80fd5b905f5260205f20015f915090505481565b6007602052805f5260405f205f91509050805461067890613683565b80601f01602080910402602001604051908101604052809291908181526020018280546106a490613683565b80156106ef5780601f106106c6576101008083540402835291602001916106ef565b820191905f5260205f20905b8154815290600101906020018083116106d257829003601f168201915b505050505081565b5f5f5f8584600160038111156107105761070f61322f565b5b60045f8473ffffffffffffffffffffffffffffffffffffffff1673ffffffffffffffffffffffffffffffffffffffff1681526020019081526020015f205f9054906101000a900460ff16600381111561076c5761076b61322f565b5b146107ac576040517f08c379a00000000000000000000000000000000000000000000000000000000081526004016107a39061396c565b60405180910390fd5b60025f8373ffffffffffffffffffffffffffffffffffffffff1673ffffffffffffffffffffffffffffffffffffffff1681526020019081526020015f205f9054906101000a900460ff16610835576040517f08c379a000000000000000000000000000000000000000000000000000000000815260040161082c906139fa565b60405180910390fd5b600160038111156108495761084861322f565b5b60045f8a73ffffffffffffffffffffffffffffffffffffffff1673ffffffffffffffffffffffffffffffffffffffff1681526020019081526020015f205f9054906101000a900460ff1660038111156108a5576108a461322f565b5b146108e5576040517f08c379a00000000000000000000000000000000000000000000000000000000081526004016108dc90613a62565b60405180910390fd5b6003808111156108f8576108f761322f565b5b60045f8973ffffffffffffffffffffffffffffffffffffffff1673ffffffffffffffffffffffffffffffffffffffff1681526020019081526020015f205f9054906101000a900460ff1660038111156109545761095361322f565b5b03610994576040517f08c379a000000000000000000000000000000000000000000000000000000000815260040161098b90613af0565b60405180910390fd5b5f15155f5f0160149054906101000a900460ff161515146109ea576040517f08c379a00000000000000000000000000000000000000000000000000000000081526004016109e190613b58565b60405180910390fd5b60055f8873ffffffffffffffffffffffffffffffffffffffff1673ffffffffffffffffffffffffffffffffffffffff1681526020019081526020015f205f0160149054906101000a900460ff1615610a77576040517f08c379a0000000000000000000000000000000000000000000000000000000008152600401610a6e90613be6565b60405180910390fd5b8660055f8973ffffffffffffffffffffffffffffffffffffffff1673ffffffffffffffffffffffffffffffffffffffff1681526020019081526020015f205f015f6101000a81548173ffffffffffffffffffffffffffffffffffffffff021916908373ffffffffffffffffffffffffffffffffffffffff1602179055508560045f8973ffffffffffffffffffffffffffffffffffffffff1673ffffffffffffffffffffffffffffffffffffffff1681526020019081526020015f205f6101000a81548160ff02191690836003811115610b5357610b5261322f565b5b0217905550600160025f8973ffffffffffffffffffffffffffffffffffffffff1673ffffffffffffffffffffffffffffffffffffffff1681526020019081526020015f205f6101000a81548160ff021916908315150217905550600160035f8a73ffffffffffffffffffffffffffffffffffffffff1673ffffffffffffffffffffffffffffffffffffffff1681526020019081526020015f205f60045f8b73ffffffffffffffffffffffffffffffffffffffff1673ffffffffffffffffffffffffffffffffffffffff1681526020019081526020015f205f9054906101000a900460ff166003811115610c4957610c4861322f565b5b6003811115610c5b57610c5a61322f565b5b81526020019081526020015f205f6101000a81548160ff021916908315150217905550600160055f8973ffffffffffffffffffffffffffffffffffffffff1673ffffffffffffffffffffffffffffffffffffffff1681526020019081526020015f205f0160146101000a81548160ff0219169083151502179055506040518060400160405280600681526020017f506175736572000000000000000000000000000000000000000000000000000081525060055f8973ffffffffffffffffffffffffffffffffffffffff1673ffffffffffffffffffffffffffffffffffffffff1681526020019081526020015f206001019081610d589190613853565b508560055f8973ffffffffffffffffffffffffffffffffffffffff1673ffffffffffffffffffffffffffffffffffffffff1681526020019081526020015f205f0160166101000a81548160ff02191690836003811115610dbb57610dba61322f565b5b021790555060055f8873ffffffffffffffffffffffffffffffffffffffff1673ffffffffffffffffffffffffffffffffffffffff1681526020019081526020015f205f015f9054906101000a900473ffffffffffffffffffffffffffffffffffffffff1660055f8973ffffffffffffffffffffffffffffffffffffffff1673ffffffffffffffffffffffffffffffffffffffff1681526020019081526020015f205f0160169054906101000a900460ff1660035f8b73ffffffffffffffffffffffffffffffffffffffff1673ffffffffffffffffffffffffffffffffffffffff1681526020019081526020015f205f60045f8c73ffffffffffffffffffffffffffffffffffffffff1673ffffffffffffffffffffffffffffffffffffffff1681526020019081526020015f205f9054906101000a900460ff166003811115610f0657610f0561322f565b5b6003811115610f1857610f1761322f565b5b81526020019081526020015f205f9054906101000a900460ff16945094509450505093509350939050565b6001600a6001015f6101000a81548160ff02191690836002811115610f6b57610f6a61322f565b5b0217905550565b5f5f5f606060045f8673ffffffffffffffffffffffffffffffffffffffff1673ffffffffffffffffffffffffffffffffffffffff1681526020019081526020015f205f9054906101000a900460ff168560035f8873ffffffffffffffffffffffffffffffffffffffff1673ffffffffffffffffffffffffffffffffffffffff1681526020019081526020015f205f60045f8a73ffffffffffffffffffffffffffffffffffffffff1673ffffffffffffffffffffffffffffffffffffffff1681526020019081526020015f205f9054906101000a900460ff16600381111561105c5761105b61322f565b5b600381111561106e5761106d61322f565b5b81526020019081526020015f205f9054906101000a900460ff165f60010180805461109890613683565b80601f01602080910402602001604051908101604052809291908181526020018280546110c490613683565b801561110f5780601f106110e65761010080835404028352916020019161110f565b820191905f5260205f20905b8154815290600101906020018083116110f257829003601f168201915b5050505050905093509350935093509193509193565b5f600a6001015f9054906101000a900460ff16905090565b5f600160028111156111525761115161322f565b5b905090565b6002602052805f5260405f205f915054906101000a900460ff1681565b6008602052805f5260405f205f91509050805f01805461119390613683565b80601f01602080910402602001604051908101604052809291908181526020018280546111bf90613683565b801561120a5780601f106111e15761010080835404028352916020019161120a565b820191905f5260205f20905b8154815290600101906020018083116111ed57829003601f168201915b5050505050905081565b5f5f5f5f606060025f8773ffffffffffffffffffffffffffffffffffffffff1673ffffffffffffffffffffffffffffffffffffffff1681526020019081526020015f205f9054906101000a900460ff16156115015760055f8773ffffffffffffffffffffffffffffffffffffffff1673ffffffffffffffffffffffffffffffffffffffff1681526020019081526020015f205f015f9054906101000a900473ffffffffffffffffffffffffffffffffffffffff1660055f8873ffffffffffffffffffffffffffffffffffffffff1673ffffffffffffffffffffffffffffffffffffffff1681526020019081526020015f205f0160149054906101000a900460ff1660035f8973ffffffffffffffffffffffffffffffffffffffff1673ffffffffffffffffffffffffffffffffffffffff1681526020019081526020015f205f60045f8b73ffffffffffffffffffffffffffffffffffffffff1673ffffffffffffffffffffffffffffffffffffffff1681526020019081526020015f205f9054906101000a900460ff1660038111156113af576113ae61322f565b5b60038111156113c1576113c061322f565b5b81526020019081526020015f205f9054906101000a900460ff1660055f8a73ffffffffffffffffffffffffffffffffffffffff1673ffffffffffffffffffffffffffffffffffffffff1681526020019081526020015f205f0160169054906101000a900460ff1660055f8b73ffffffffffffffffffffffffffffffffffffffff1673ffffffffffffffffffffffffffffffffffffffff1681526020019081526020015f2060010180805461147490613683565b80601f01602080910402602001604051908101604052809291908181526020018280546114a090613683565b80156114eb5780601f106114c2576101008083540402835291602001916114eb565b820191905f5260205f20905b8154815290600101906020018083116114ce57829003601f168201915b5050505050905094509450945094509450611795565b60055f8773ffffffffffffffffffffffffffffffffffffffff1673ffffffffffffffffffffffffffffffffffffffff1681526020019081526020015f205f015f9054906101000a900473ffffffffffffffffffffffffffffffffffffffff1660055f8873ffffffffffffffffffffffffffffffffffffffff1673ffffffffffffffffffffffffffffffffffffffff1681526020019081526020015f205f0160149054906101000a900460ff1660035f8973ffffffffffffffffffffffffffffffffffffffff1673ffffffffffffffffffffffffffffffffffffffff1681526020019081526020015f205f60045f8b73ffffffffffffffffffffffffffffffffffffffff1673ffffffffffffffffffffffffffffffffffffffff1681526020019081526020015f205f9054906101000a900460ff1660038111156116475761164661322f565b5b60038111156116595761165861322f565b5b81526020019081526020015f205f9054906101000a900460ff1660055f8a73ffffffffffffffffffffffffffffffffffffffff1673ffffffffffffffffffffffffffffffffffffffff1681526020019081526020015f205f0160169054906101000a900460ff1660055f8b73ffffffffffffffffffffffffffffffffffffffff1673ffffffffffffffffffffffffffffffffffffffff1681526020019081526020015f2060010180805461170c90613683565b80601f016020809104026020016040519081016040528092919081815260200182805461173890613683565b80156117835780601f1061175a57610100808354040283529160200191611783565b820191905f5260205f20905b81548152906001019060200180831161176657829003601f168201915b50505050509050945094509450945094505b91939590929450565b5f5f5f848460055f8373ffffffffffffffffffffffffffffffffffffffff1673ffffffffffffffffffffffffffffffffffffffff1681526020019081526020015f205f0160169054906101000a900460ff1660038111156118025761180161322f565b5b60045f8473ffffffffffffffffffffffffffffffffffffffff1673ffffffffffffffffffffffffffffffffffffffff1681526020019081526020015f205f9054906101000a900460ff16600381111561185e5761185d61322f565b5b1461189e576040517f08c379a000000000000000000000000000000000000000000000000000000000815260040161189590613c4e565b60405180910390fd5b60025f8373ffffffffffffffffffffffffffffffffffffffff1673ffffffffffffffffffffffffffffffffffffffff1681526020019081526020015f205f9054906101000a900460ff16611927576040517f08c379a000000000000000000000000000000000000000000000000000000000815260040161191e90613cdc565b60405180910390fd5b6001151560055f8973ffffffffffffffffffffffffffffffffffffffff1673ffffffffffffffffffffffffffffffffffffffff1681526020019081526020015f205f0160149054906101000a900460ff161515146119ba576040517f08c379a00000000000000000000000000000000000000000000000000000000081526004016119b190613d6a565b60405180910390fd5b5f151560055f8973ffffffffffffffffffffffffffffffffffffffff1673ffffffffffffffffffffffffffffffffffffffff1681526020019081526020015f205f0160159054906101000a900460ff16151514611a4c576040517f08c379a0000000000000000000000000000000000000000000000000000000008152600401611a4390613df8565b60405180910390fd5b8660055f8973ffffffffffffffffffffffffffffffffffffffff1673ffffffffffffffffffffffffffffffffffffffff1681526020019081526020015f205f015f6101000a81548173ffffffffffffffffffffffffffffffffffffffff021916908373ffffffffffffffffffffffffffffffffffffffff16021790555060045f8873ffffffffffffffffffffffffffffffffffffffff1673ffffffffffffffffffffffffffffffffffffffff1681526020019081526020015f205f6101000a81549060ff02191690555f60035f8973ffffffffffffffffffffffffffffffffffffffff1673ffffffffffffffffffffffffffffffffffffffff1681526020019081526020015f205f60045f8b73ffffffffffffffffffffffffffffffffffffffff1673ffffffffffffffffffffffffffffffffffffffff1681526020019081526020015f205f9054906101000a900460ff166003811115611bb057611baf61322f565b5b6003811115611bc257611bc161322f565b5b81526020019081526020015f205f6101000a81548160ff0219169083151502179055505f60055f8973ffffffffffffffffffffffffffffffffffffffff1673ffffffffffffffffffffffffffffffffffffffff1681526020019081526020015f205f0160146101000a81548160ff021916908315150217905550600160055f8973ffffffffffffffffffffffffffffffffffffffff1673ffffffffffffffffffffffffffffffffffffffff1681526020019081526020015f205f0160156101000a81548160ff0219169083151502179055506040518060400160405280600481526020017f4e6f6e650000000000000000000000000000000000000000000000000000000081525060055f8973ffffffffffffffffffffffffffffffffffffffff1673ffffffffffffffffffffffffffffffffffffffff1681526020019081526020015f206001019081611d169190613853565b505f60025f8973ffffffffffffffffffffffffffffffffffffffff1673ffffffffffffffffffffffffffffffffffffffff1681526020019081526020015f205f6101000a81548160ff02191690831515021790555060055f8873ffffffffffffffffffffffffffffffffffffffff1673ffffffffffffffffffffffffffffffffffffffff1681526020019081526020015f205f0160166101000a81549060ff021916905550509250925092565b600a805f015490806001015f9054906101000a900460ff16905082565b5f5f5f60016003811115611df757611df661322f565b5b846003811115611e0a57611e0961322f565b5b14611e4a576040517f08c379a0000000000000000000000000000000000000000000000000000000008152600401611e4190613e60565b60405180910390fd5b60026003811115611e5e57611e5d61322f565b5b846003811115611e7157611e7061322f565b5b03611eb1576040517f08c379a0000000000000000000000000000000000000000000000000000000008152600401611ea890613eee565b60405180910390fd5b600380811115611ec457611ec361322f565b5b846003811115611ed757611ed661322f565b5b03611f17576040517f08c379a0000000000000000000000000000000000000000000000000000000008152600401611f0e90613f7c565b60405180910390fd5b836003811115611f2a57611f2961322f565b5b60055f8773ffffffffffffffffffffffffffffffffffffffff1673ffffffffffffffffffffffffffffffffffffffff1681526020019081526020015f205f0160169054906101000a900460ff166003811115611f8957611f8861322f565b5b03611fc9576040517f08c379a0000000000000000000000000000000000000000000000000000000008152600401611fc09061400a565b60405180910390fd5b5f6003811115611fdc57611fdb61322f565b5b846003811115611fef57611fee61322f565b5b10158015612021575060038081111561200b5761200a61322f565b5b84600381111561201e5761201d61322f565b5b11155b612060576040517f08c379a000000000000000000000000000000000000000000000000000000000815260040161205790614098565b60405180910390fd5b600160038111156120745761207361322f565b5b8460038111156120875761208661322f565b5b036123da578360045f8773ffffffffffffffffffffffffffffffffffffffff1673ffffffffffffffffffffffffffffffffffffffff1681526020019081526020015f205f6101000a81548160ff021916908360038111156120eb576120ea61322f565b5b0217905550600160025f8773ffffffffffffffffffffffffffffffffffffffff1673ffffffffffffffffffffffffffffffffffffffff1681526020019081526020015f205f6101000a81548160ff021916908315150217905550600160035f8773ffffffffffffffffffffffffffffffffffffffff1673ffffffffffffffffffffffffffffffffffffffff1681526020019081526020015f205f60045f8973ffffffffffffffffffffffffffffffffffffffff1673ffffffffffffffffffffffffffffffffffffffff1681526020019081526020015f205f9054906101000a900460ff1660038111156121e1576121e061322f565b5b60038111156121f3576121f261322f565b5b81526020019081526020015f205f6101000a81548160ff021916908315150217905550600160055f8773ffffffffffffffffffffffffffffffffffffffff1673ffffffffffffffffffffffffffffffffffffffff1681526020019081526020015f205f0160146101000a81548160ff0219169083151502179055506040518060400160405280600581526020017f41646d696e00000000000000000000000000000000000000000000000000000081525060055f8773ffffffffffffffffffffffffffffffffffffffff1673ffffffffffffffffffffffffffffffffffffffff1681526020019081526020015f2060010190816122f09190613853565b508360055f8773ffffffffffffffffffffffffffffffffffffffff1673ffffffffffffffffffffffffffffffffffffffff1681526020019081526020015f205f0160166101000a81548160ff021916908360038111156123535761235261322f565b5b02179055508460055f8773ffffffffffffffffffffffffffffffffffffffff1673ffffffffffffffffffffffffffffffffffffffff1681526020019081526020015f205f015f6101000a81548173ffffffffffffffffffffffffffffffffffffffff021916908373ffffffffffffffffffffffffffffffffffffffff160217905550612557565b60055f8673ffffffffffffffffffffffffffffffffffffffff1673ffffffffffffffffffffffffffffffffffffffff1681526020019081526020015f205f015f9054906101000a900473ffffffffffffffffffffffffffffffffffffffff1660055f8773ffffffffffffffffffffffffffffffffffffffff1673ffffffffffffffffffffffffffffffffffffffff1681526020019081526020015f205f0160169054906101000a900460ff1660035f8873ffffffffffffffffffffffffffffffffffffffff1673ffffffffffffffffffffffffffffffffffffffff1681526020019081526020015f205f60045f8a73ffffffffffffffffffffffffffffffffffffffff1673ffffffffffffffffffffffffffffffffffffffff1681526020019081526020015f205f9054906101000a900460ff1660038111156125205761251f61322f565b5b60038111156125325761253161322f565b5b81526020019081526020015f205f9054906101000a900460ff16925092509250612558565b5b9250925092565b6005602052805f5260405f205f91509050805f015f9054906101000a900473ffffffffffffffffffffffffffffffffffffffff1690805f0160149054906101000a900460ff1690805f0160159054906101000a900460ff1690805f0160169054906101000a900460ff16908060010180546125d990613683565b80601f016020809104026020016040519081016040528092919081815260200182805461260590613683565b80156126505780601f1061262757610100808354040283529160200191612650565b820191905f5260205f20905b81548152906001019060200180831161263357829003601f168201915b5050505050905085565b5f600980549050905090565b60068181548110612675575f80fd5b905f5260205f20015f915054906101000a900473ffffffffffffffffffffffffffffffffffffffff1681565b606082826040516020016126b69291906140e4565b604051602081830303815290604052905092915050565b5f5f5f8584600160038111156126e6576126e561322f565b5b60045f8473ffffffffffffffffffffffffffffffffffffffff1673ffffffffffffffffffffffffffffffffffffffff1681526020019081526020015f205f9054906101000a900460ff1660038111156127425761274161322f565b5b14612782576040517f08c379a00000000000000000000000000000000000000000000000000000000081526004016127799061396c565b60405180910390fd5b60025f8373ffffffffffffffffffffffffffffffffffffffff1673ffffffffffffffffffffffffffffffffffffffff1681526020019081526020015f205f9054906101000a900460ff1661280b576040517f08c379a0000000000000000000000000000000000000000000000000000000008152600401612802906139fa565b60405180910390fd5b6001600381111561281f5761281e61322f565b5b60045f8a73ffffffffffffffffffffffffffffffffffffffff1673ffffffffffffffffffffffffffffffffffffffff1681526020019081526020015f205f9054906101000a900460ff16600381111561287b5761287a61322f565b5b146128bb576040517f08c379a00000000000000000000000000000000000000000000000000000000081526004016128b290613a62565b60405180910390fd5b6001151560035f8a73ffffffffffffffffffffffffffffffffffffffff1673ffffffffffffffffffffffffffffffffffffffff1681526020019081526020015f205f60045f8b73ffffffffffffffffffffffffffffffffffffffff1673ffffffffffffffffffffffffffffffffffffffff1681526020019081526020015f205f9054906101000a900460ff1660038111156129595761295861322f565b5b600381111561296b5761296a61322f565b5b81526020019081526020015f205f9054906101000a900460ff161515146129c7576040517f08c379a00000000000000000000000000000000000000000000000000000000081526004016129be9061416c565b60405180910390fd5b6001151560055f8973ffffffffffffffffffffffffffffffffffffffff1673ffffffffffffffffffffffffffffffffffffffff1681526020019081526020015f205f0160149054906101000a900460ff16151514612a5a576040517f08c379a0000000000000000000000000000000000000000000000000000000008152600401612a51906141fa565b60405180910390fd5b5f151560055f8973ffffffffffffffffffffffffffffffffffffffff1673ffffffffffffffffffffffffffffffffffffffff1681526020019081526020015f205f0160159054906101000a900460ff16151514612aec576040517f08c379a0000000000000000000000000000000000000000000000000000000008152600401612ae390613df8565b60405180910390fd5b8660055f8973ffffffffffffffffffffffffffffffffffffffff1673ffffffffffffffffffffffffffffffffffffffff1681526020019081526020015f205f015f6101000a81548173ffffffffffffffffffffffffffffffffffffffff021916908373ffffffffffffffffffffffffffffffffffffffff16021790555060045f8873ffffffffffffffffffffffffffffffffffffffff1673ffffffffffffffffffffffffffffffffffffffff1681526020019081526020015f205f6101000a81549060ff02191690555f60035f8a73ffffffffffffffffffffffffffffffffffffffff1673ffffffffffffffffffffffffffffffffffffffff1681526020019081526020015f205f60045f8b73ffffffffffffffffffffffffffffffffffffffff1673ffffffffffffffffffffffffffffffffffffffff1681526020019081526020015f205f9054906101000a900460ff166003811115612c5057612c4f61322f565b5b6003811115612c6257612c6161322f565b5b81526020019081526020015f205f6101000a81548160ff0219169083151502179055505f60055f8973ffffffffffffffffffffffffffffffffffffffff1673ffffffffffffffffffffffffffffffffffffffff1681526020019081526020015f205f0160146101000a81548160ff021916908315150217905550600160055f8973ffffffffffffffffffffffffffffffffffffffff1673ffffffffffffffffffffffffffffffffffffffff1681526020019081526020015f205f0160156101000a81548160ff0219169083151502179055506040518060400160405280600481526020017f4e6f6e650000000000000000000000000000000000000000000000000000000081525060055f8973ffffffffffffffffffffffffffffffffffffffff1673ffffffffffffffffffffffffffffffffffffffff1681526020019081526020015f206001019081612db69190613853565b505f60025f8973ffffffffffffffffffffffffffffffffffffffff1673ffffffffffffffffffffffffffffffffffffffff1681526020019081526020015f205f6101000a81548160ff02191690831515021790555060055f8873ffffffffffffffffffffffffffffffffffffffff1673ffffffffffffffffffffffffffffffffffffffff1681526020019081526020015f205f0160166101000a81549060ff0219169055505093509350939050565b6040518060200160405280606081525090565b5f604051905090565b5f5ffd5b5f5ffd5b5f819050919050565b612e9b81612e89565b8114612ea5575f5ffd5b50565b5f81359050612eb681612e92565b92915050565b5f5ffd5b5f5ffd5b5f601f19601f8301169050919050565b7f4e487b71000000000000000000000000000000000000000000000000000000005f52604160045260245ffd5b612f0a82612ec4565b810181811067ffffffffffffffff82111715612f2957612f28612ed4565b5b80604052505050565b5f612f3b612e78565b9050612f478282612f01565b919050565b5f67ffffffffffffffff821115612f6657612f65612ed4565b5b612f6f82612ec4565b9050602081019050919050565b828183375f83830152505050565b5f612f9c612f9784612f4c565b612f32565b905082815260208101848484011115612fb857612fb7612ec0565b5b612fc3848285612f7c565b509392505050565b5f82601f830112612fdf57612fde612ebc565b5b8135612fef848260208601612f8a565b91505092915050565b5f5f6040838503121561300e5761300d612e81565b5b5f61301b85828601612ea8565b925050602083013567ffffffffffffffff81111561303c5761303b612e85565b5b61304885828601612fcb565b9150509250929050565b5f81519050919050565b5f82825260208201905092915050565b8281835e5f83830152505050565b5f61308482613052565b61308e818561305c565b935061309e81856020860161306c565b6130a781612ec4565b840191505092915050565b5f602083015f8301518482035f8601526130cc828261307a565b9150508091505092915050565b6130e281612e89565b82525050565b5f6040820190508181035f83015261310081856130b2565b905061310f60208301846130d9565b9392505050565b5f73ffffffffffffffffffffffffffffffffffffffff82169050919050565b5f61313f82613116565b9050919050565b61314f81613135565b8114613159575f5ffd5b50565b5f8135905061316a81613146565b92915050565b6004811061317c575f5ffd5b50565b5f8135905061318d81613170565b92915050565b5f5f604083850312156131a9576131a8612e81565b5b5f6131b68582860161315c565b92505060206131c78582860161317f565b9150509250929050565b5f8115159050919050565b6131e5816131d1565b82525050565b5f6020820190506131fe5f8301846131dc565b92915050565b5f6020828403121561321957613218612e81565b5b5f6132268482850161315c565b91505092915050565b7f4e487b71000000000000000000000000000000000000000000000000000000005f52602160045260245ffd5b6004811061326d5761326c61322f565b5b50565b5f81905061327d8261325c565b919050565b5f61328c82613270565b9050919050565b61329c81613282565b82525050565b5f6020820190506132b55f830184613293565b92915050565b5f602082840312156132d0576132cf612e81565b5b5f6132dd84828501612ea8565b91505092915050565b5f6020820190506132f95f8301846130d9565b92915050565b5f82825260208201905092915050565b5f61331982613052565b61332381856132ff565b935061333381856020860161306c565b61333c81612ec4565b840191505092915050565b5f6020820190508181035f83015261335f818461330f565b905092915050565b5f5f5f6060848603121561337e5761337d612e81565b5b5f61338b8682870161315c565b935050602061339c8682870161315c565b92505060406133ad8682870161317f565b9150509250925092565b6133c081613135565b82525050565b5f6060820190506133d95f8301866133b7565b6133e66020830185613293565b6133f360408301846131dc565b949350505050565b5f60808201905061340e5f830187613293565b61341b60208301866133b7565b61342860408301856131dc565b818103606083015261343a818461330f565b905095945050505050565b600381106134565761345561322f565b5b50565b5f81905061346682613445565b919050565b5f61347582613459565b9050919050565b6134858161346b565b82525050565b5f60208201905061349e5f83018461347c565b92915050565b5f60a0820190506134b75f8301886133b7565b6134c460208301876131dc565b6134d160408301866131dc565b6134de6060830185613293565b81810360808301526134f0818461330f565b90509695505050505050565b5f60408201905061350f5f8301856130d9565b61351c602083018461347c565b9392505050565b5f6020820190506135365f8301846133b7565b92915050565b5f5ffd5b5f5ffd5b5f5f83601f84011261355957613558612ebc565b5b8235905067ffffffffffffffff8111156135765761357561353c565b5b60208301915083600182028301111561359257613591613540565b5b9250929050565b5f5f602083850312156135af576135ae612e81565b5b5f83013567ffffffffffffffff8111156135cc576135cb612e85565b5b6135d885828601613544565b92509250509250929050565b5f81519050919050565b5f82825260208201905092915050565b5f613608826135e4565b61361281856135ee565b935061362281856020860161306c565b61362b81612ec4565b840191505092915050565b5f6020820190508181035f83015261364e81846135fe565b905092915050565b7f4e487b71000000000000000000000000000000000000000000000000000000005f52602260045260245ffd5b5f600282049050600182168061369a57607f821691505b6020821081036136ad576136ac613656565b5b50919050565b5f819050815f5260205f209050919050565b5f6020601f8301049050919050565b5f82821b905092915050565b5f6008830261370f7fffffffffffffffffffffffffffffffffffffffffffffffffffffffffffffffff826136d4565b61371986836136d4565b95508019841693508086168417925050509392505050565b5f819050919050565b5f61375461374f61374a84612e89565b613731565b612e89565b9050919050565b5f819050919050565b61376d8361373a565b6137816137798261375b565b8484546136e0565b825550505050565b5f5f905090565b613798613789565b6137a3818484613764565b505050565b5b818110156137c6576137bb5f82613790565b6001810190506137a9565b5050565b601f82111561380b576137dc816136b3565b6137e5846136c5565b810160208510156137f4578190505b613808613800856136c5565b8301826137a8565b50505b505050565b5f82821c905092915050565b5f61382b5f1984600802613810565b1980831691505092915050565b5f613843838361381c565b9150826002028217905092915050565b61385c82613052565b67ffffffffffffffff81111561387557613874612ed4565b5b61387f8254613683565b61388a8282856137ca565b5f60209050601f8311600181146138bb575f84156138a9578287015190505b6138b38582613838565b86555061391a565b601f1984166138c9866136b3565b5f5b828110156138f0578489015182556001820191506020850194506020810190506138cb565b8683101561390d5784890151613909601f89168261381c565b8355505b6001600288020188555050505b505050505050565b7f4f6e792061646d696e6973747261746f722063616e2063616c6c0000000000005f82015250565b5f613956601a836132ff565b915061396182613922565b602082019050919050565b5f6020820190508181035f8301526139838161394a565b9050919050565b7f4f6e6c792041646d696e732043616e2043616c6c20546869732046756e6374695f8201527f6f6e000000000000000000000000000000000000000000000000000000000000602082015250565b5f6139e46022836132ff565b91506139ef8261398a565b604082019050919050565b5f6020820190508181035f830152613a11816139d8565b9050919050565b7f4f6e6c792061646d696e6973747261746f722063616e2063616c6c00000000005f82015250565b5f613a4c601b836132ff565b9150613a5782613a18565b602082019050919050565b5f6020820190508181035f830152613a7981613a40565b9050919050565b7f5061757365722043616e204e6f74204772616e742048696d73656c6620526f6c5f8201527f6500000000000000000000000000000000000000000000000000000000000000602082015250565b5f613ada6021836132ff565b9150613ae582613a80565b604082019050919050565b5f6020820190508181035f830152613b0781613ace565b9050919050565b7f416c7265616479204772616e746564205468697320526f6c65000000000000005f82015250565b5f613b426019836132ff565b9150613b4d82613b0e565b602082019050919050565b5f6020820190508181035f830152613b6f81613b36565b9050919050565b7f4772616e742068617320616c7265616479206265656e20676976656e3b2069745f8201527f2063616e206f6e6c79206265206772616e746564206f6e636500000000000000602082015250565b5f613bd06039836132ff565b9150613bdb82613b76565b604082019050919050565b5f6020820190508181035f830152613bfd81613bc4565b9050919050565b7f43616c6c6572206973206e6f74206120706175736572000000000000000000005f82015250565b5f613c386016836132ff565b9150613c4382613c04565b602082019050919050565b5f6020820190508181035f830152613c6581613c2c565b9050919050565b7f43616c6c657220646f6573206e6f7420686176652070617573657220726f6c655f8201527f206772616e7465642062792061646d696e000000000000000000000000000000602082015250565b5f613cc66031836132ff565b9150613cd182613c6c565b604082019050919050565b5f6020820190508181035f830152613cf381613cba565b9050919050565b7f5468652070617573657220726f6c6520686173206e65766572206265656e20675f8201527f72616e7465640000000000000000000000000000000000000000000000000000602082015250565b5f613d546026836132ff565b9150613d5f82613cfa565b604082019050919050565b5f6020820190508181035f830152613d8181613d48565b9050919050565b7f5468652070617573657220726f6c652068617320616c7265616479206265656e5f8201527f207265766f6b6564000000000000000000000000000000000000000000000000602082015250565b5f613de26028836132ff565b9150613ded82613d88565b604082019050919050565b5f6020820190508181035f830152613e0f81613dd6565b9050919050565b7f526f6c65206d7573742062652061646d696e206f6e6c790000000000000000005f82015250565b5f613e4a6017836132ff565b9150613e5582613e16565b602082019050919050565b5f6020820190508181035f830152613e7781613e3e565b9050919050565b7f54686520726f6c652063616e6e6f742062652061737369676e6564206173204d5f8201527f696e746572000000000000000000000000000000000000000000000000000000602082015250565b5f613ed86025836132ff565b9150613ee382613e7e565b604082019050919050565b5f6020820190508181035f830152613f0581613ecc565b9050919050565b7f54686520726f6c652063616e6e6f742062652061737369676e656420617320505f8201527f6175736572000000000000000000000000000000000000000000000000000000602082015250565b5f613f666025836132ff565b9150613f7182613f0c565b604082019050919050565b5f6020820190508181035f830152613f9381613f5a565b9050919050565b7f61646d696e206861766520616e20616c72656164792061737369676e656420725f8201527f6f6c650000000000000000000000000000000000000000000000000000000000602082015250565b5f613ff46023836132ff565b9150613fff82613f9a565b604082019050919050565b5f6020820190508181035f83015261402181613fe8565b9050919050565b7f5468657265206973204e6f20526f6c65205479706520666f72207468697320545f8201527f797065206f6620726f6c65206e756d6265720000000000000000000000000000602082015250565b5f6140826032836132ff565b915061408d82614028565b604082019050919050565b5f6020820190508181035f8301526140af81614076565b9050919050565b5f81905092915050565b5f6140cb83856140b6565b93506140d8838584612f7c565b82840190509392505050565b5f6140f08284866140c0565b91508190509392505050565b7f4e6f20526f6c6520497320476976656e20546f2050617573657220546f2052655f8201527f766f6b6520697400000000000000000000000000000000000000000000000000602082015250565b5f6141566027836132ff565b9150614161826140fc565b604082019050919050565b5f6020820190508181035f8301526141838161414a565b9050919050565b7f546865206d696e74657220726f6c6520686173206e65766572206265656e20675f8201527f72616e7465640000000000000000000000000000000000000000000000000000602082015250565b5f6141e46026836132ff565b91506141ef8261418a565b604082019050919050565b5f6020820190508181035f830152614211816141d8565b905091905056fea26469706673582212205a490b85210f3f31df945923b5cfccf11d030be82733fcb7adb63cdd258a3de064736f6c634300081e0033",
					"opcodes": "PUSH1 0x80 PUSH1 0x40 MSTORE CALLVALUE DUP1 ISZERO PUSH1 0xE JUMPI PUSH0 PUSH0 REVERT JUMPDEST POP PUSH1 0x1 PUSH1 0xA PUSH0 ADD DUP2 SWAP1 SSTORE POP PUSH0 PUSH1 0xA PUSH1 0x1 ADD PUSH0 PUSH2 0x100 EXP DUP2 SLOAD DUP2 PUSH1 0xFF MUL NOT AND SWAP1 DUP4 PUSH1 0x2 DUP2 GT ISZERO PUSH1 0x3D JUMPI PUSH1 0x3C PUSH1 0x46 JUMP JUMPDEST JUMPDEST MUL OR SWAP1 SSTORE POP PUSH1 0x73 JUMP JUMPDEST PUSH32 0x4E487B7100000000000000000000000000000000000000000000000000000000 PUSH0 MSTORE PUSH1 0x21 PUSH1 0x4 MSTORE PUSH1 0x24 PUSH0 REVERT JUMPDEST PUSH2 0x424E DUP1 PUSH2 0x80 PUSH0 CODECOPY PUSH0 RETURN INVALID PUSH1 0x80 PUSH1 0x40 MSTORE CALLVALUE DUP1 ISZERO PUSH2 0xF JUMPI PUSH0 PUSH0 REVERT JUMPDEST POP PUSH1 0x4 CALLDATASIZE LT PUSH2 0x135 JUMPI PUSH0 CALLDATALOAD PUSH1 0xE0 SHR DUP1 PUSH4 0x80245A21 GT PUSH2 0xB6 JUMPI DUP1 PUSH4 0xC9FEB159 GT PUSH2 0x7A JUMPI DUP1 PUSH4 0xC9FEB159 EQ PUSH2 0x3BA JUMPI DUP1 PUSH4 0xCECA9FFB EQ PUSH2 0x3EC JUMPI DUP1 PUSH4 0xD12C987C EQ PUSH2 0x420 JUMPI DUP1 PUSH4 0xE0639F5C EQ PUSH2 0x43E JUMPI DUP1 PUSH4 0xE106FB4B EQ PUSH2 0x46E JUMPI DUP1 PUSH4 0xF13E5D09 EQ PUSH2 0x49E JUMPI PUSH2 0x135 JUMP JUMPDEST DUP1 PUSH4 0x80245A21 EQ PUSH2 0x2D5 JUMPI DUP1 PUSH4 0x8D977672 EQ PUSH2 0x305 JUMPI DUP1 PUSH4 0xA0D7823E EQ PUSH2 0x335 JUMPI DUP1 PUSH4 0xA8813DE8 EQ PUSH2 0x369 JUMPI DUP1 PUSH4 0xBF15071D EQ PUSH2 0x39B JUMPI PUSH2 0x135 JUMP JUMPDEST DUP1 PUSH4 0x3868E7E5 GT PUSH2 0xFD JUMPI DUP1 PUSH4 0x3868E7E5 EQ PUSH2 0x22A JUMPI DUP1 PUSH4 0x38E174ED EQ PUSH2 0x25C JUMPI DUP1 PUSH4 0x476B49BC EQ PUSH2 0x266 JUMPI DUP1 PUSH4 0x4E69D560 EQ PUSH2 0x299 JUMPI DUP1 PUSH4 0x74B2F66A EQ PUSH2 0x2B7 JUMPI PUSH2 0x135 JUMP JUMPDEST DUP1 PUSH4 0x16D41B94 EQ PUSH2 0x139 JUMPI DUP1 PUSH4 0x1E47D8AC EQ PUSH2 0x16A JUMPI DUP1 PUSH4 0x20853239 EQ PUSH2 0x19A JUMPI DUP1 PUSH4 0x299958BF EQ PUSH2 0x1CA JUMPI DUP1 PUSH4 0x32D02F6D EQ PUSH2 0x1FA JUMPI JUMPDEST PUSH0 PUSH0 REVERT JUMPDEST PUSH2 0x153 PUSH1 0x4 DUP1 CALLDATASIZE SUB DUP2 ADD SWAP1 PUSH2 0x14E SWAP2 SWAP1 PUSH2 0x2FF8 JUMP JUMPDEST PUSH2 0x4D0 JUMP JUMPDEST PUSH1 0x40 MLOAD PUSH2 0x161 SWAP3 SWAP2 SWAP1 PUSH2 0x30E8 JUMP JUMPDEST PUSH1 0x40 MLOAD DUP1 SWAP2 SUB SWAP1 RETURN JUMPDEST PUSH2 0x184 PUSH1 0x4 DUP1 CALLDATASIZE SUB DUP2 ADD SWAP1 PUSH2 0x17F SWAP2 SWAP1 PUSH2 0x3193 JUMP JUMPDEST PUSH2 0x5F5 JUMP JUMPDEST PUSH1 0x40 MLOAD PUSH2 0x191 SWAP2 SWAP1 PUSH2 0x31EB JUMP JUMPDEST PUSH1 0x40 MLOAD DUP1 SWAP2 SUB SWAP1 RETURN JUMPDEST PUSH2 0x1B4 PUSH1 0x4 DUP1 CALLDATASIZE SUB DUP2 ADD SWAP1 PUSH2 0x1AF SWAP2 SWAP1 PUSH2 0x3204 JUMP JUMPDEST PUSH2 0x61F JUMP JUMPDEST PUSH1 0x40 MLOAD PUSH2 0x1C1 SWAP2 SWAP1 PUSH2 0x32A2 JUMP JUMPDEST PUSH1 0x40 MLOAD DUP1 SWAP2 SUB SWAP1 RETURN JUMPDEST PUSH2 0x1E4 PUSH1 0x4 DUP1 CALLDATASIZE SUB DUP2 ADD SWAP1 PUSH2 0x1DF SWAP2 SWAP1 PUSH2 0x32BB JUMP JUMPDEST PUSH2 0x63C JUMP JUMPDEST PUSH1 0x40 MLOAD PUSH2 0x1F1 SWAP2 SWAP1 PUSH2 0x32E6 JUMP JUMPDEST PUSH1 0x40 MLOAD DUP1 SWAP2 SUB SWAP1 RETURN JUMPDEST PUSH2 0x214 PUSH1 0x4 DUP1 CALLDATASIZE SUB DUP2 ADD SWAP1 PUSH2 0x20F SWAP2 SWAP1 PUSH2 0x32BB JUMP JUMPDEST PUSH2 0x65C JUMP JUMPDEST PUSH1 0x40 MLOAD PUSH2 0x221 SWAP2 SWAP1 PUSH2 0x3347 JUMP JUMPDEST PUSH1 0x40 MLOAD DUP1 SWAP2 SUB SWAP1 RETURN JUMPDEST PUSH2 0x244 PUSH1 0x4 DUP1 CALLDATASIZE SUB DUP2 ADD SWAP1 PUSH2 0x23F SWAP2 SWAP1 PUSH2 0x3367 JUMP JUMPDEST PUSH2 0x6F7 JUMP JUMPDEST PUSH1 0x40 MLOAD PUSH2 0x253 SWAP4 SWAP3 SWAP2 SWAP1 PUSH2 0x33C6 JUMP JUMPDEST PUSH1 0x40 MLOAD DUP1 SWAP2 SUB SWAP1 RETURN JUMPDEST PUSH2 0x264 PUSH2 0xF43 JUMP JUMPDEST STOP JUMPDEST PUSH2 0x280 PUSH1 0x4 DUP1 CALLDATASIZE SUB DUP2 ADD SWAP1 PUSH2 0x27B SWAP2 SWAP1 PUSH2 0x3204 JUMP JUMPDEST PUSH2 0xF72 JUMP JUMPDEST PUSH1 0x40 MLOAD PUSH2 0x290 SWAP5 SWAP4 SWAP3 SWAP2 SWAP1 PUSH2 0x33FB JUMP JUMPDEST PUSH1 0x40 MLOAD DUP1 SWAP2 SUB SWAP1 RETURN JUMPDEST PUSH2 0x2A1 PUSH2 0x1125 JUMP JUMPDEST PUSH1 0x40 MLOAD PUSH2 0x2AE SWAP2 SWAP1 PUSH2 0x348B JUMP JUMPDEST PUSH1 0x40 MLOAD DUP1 SWAP2 SUB SWAP1 RETURN JUMPDEST PUSH2 0x2BF PUSH2 0x113D JUMP JUMPDEST PUSH1 0x40 MLOAD PUSH2 0x2CC SWAP2 SWAP1 PUSH2 0x32E6 JUMP JUMPDEST PUSH1 0x40 MLOAD DUP1 SWAP2 SUB SWAP1 RETURN JUMPDEST PUSH2 0x2EF PUSH1 0x4 DUP1 CALLDATASIZE SUB DUP2 ADD SWAP1 PUSH2 0x2EA SWAP2 SWAP1 PUSH2 0x3204 JUMP JUMPDEST PUSH2 0x1157 JUMP JUMPDEST PUSH1 0x40 MLOAD PUSH2 0x2FC SWAP2 SWAP1 PUSH2 0x31EB JUMP JUMPDEST PUSH1 0x40 MLOAD DUP1 SWAP2 SUB SWAP1 RETURN JUMPDEST PUSH2 0x31F PUSH1 0x4 DUP1 CALLDATASIZE SUB DUP2 ADD SWAP1 PUSH2 0x31A SWAP2 SWAP1 PUSH2 0x32BB JUMP JUMPDEST PUSH2 0x1174 JUMP JUMPDEST PUSH1 0x40 MLOAD PUSH2 0x32C SWAP2 SWAP1 PUSH2 0x3347 JUMP JUMPDEST PUSH1 0x40 MLOAD DUP1 SWAP2 SUB SWAP1 RETURN JUMPDEST PUSH2 0x34F PUSH1 0x4 DUP1 CALLDATASIZE SUB DUP2 ADD SWAP1 PUSH2 0x34A SWAP2 SWAP1 PUSH2 0x3204 JUMP JUMPDEST PUSH2 0x1214 JUMP JUMPDEST PUSH1 0x40 MLOAD PUSH2 0x360 SWAP6 SWAP5 SWAP4 SWAP3 SWAP2 SWAP1 PUSH2 0x34A4 JUMP JUMPDEST PUSH1 0x40 MLOAD DUP1 SWAP2 SUB SWAP1 RETURN JUMPDEST PUSH2 0x383 PUSH1 0x4 DUP1 CALLDATASIZE SUB DUP2 ADD SWAP1 PUSH2 0x37E SWAP2 SWAP1 PUSH2 0x3193 JUMP JUMPDEST PUSH2 0x179E JUMP JUMPDEST PUSH1 0x40 MLOAD PUSH2 0x392 SWAP4 SWAP3 SWAP2 SWAP1 PUSH2 0x33C6 JUMP JUMPDEST PUSH1 0x40 MLOAD DUP1 SWAP2 SUB SWAP1 RETURN JUMPDEST PUSH2 0x3A3 PUSH2 0x1DC3 JUMP JUMPDEST PUSH1 0x40 MLOAD PUSH2 0x3B1 SWAP3 SWAP2 SWAP1 PUSH2 0x34FC JUMP JUMPDEST PUSH1 0x40 MLOAD DUP1 SWAP2 SUB SWAP1 RETURN JUMPDEST PUSH2 0x3D4 PUSH1 0x4 DUP1 CALLDATASIZE SUB DUP2 ADD SWAP1 PUSH2 0x3CF SWAP2 SWAP1 PUSH2 0x3193 JUMP JUMPDEST PUSH2 0x1DE0 JUMP JUMPDEST PUSH1 0x40 MLOAD PUSH2 0x3E3 SWAP4 SWAP3 SWAP2 SWAP1 PUSH2 0x33C6 JUMP JUMPDEST PUSH1 0x40 MLOAD DUP1 SWAP2 SUB SWAP1 RETURN JUMPDEST PUSH2 0x406 PUSH1 0x4 DUP1 CALLDATASIZE SUB DUP2 ADD SWAP1 PUSH2 0x401 SWAP2 SWAP1 PUSH2 0x3204 JUMP JUMPDEST PUSH2 0x255F JUMP JUMPDEST PUSH1 0x40 MLOAD PUSH2 0x417 SWAP6 SWAP5 SWAP4 SWAP3 SWAP2 SWAP1 PUSH2 0x34A4 JUMP JUMPDEST PUSH1 0x40 MLOAD DUP1 SWAP2 SUB SWAP1 RETURN JUMPDEST PUSH2 0x428 PUSH2 0x265A JUMP JUMPDEST PUSH1 0x40 MLOAD PUSH2 0x435 SWAP2 SWAP1 PUSH2 0x32E6 JUMP JUMPDEST PUSH1 0x40 MLOAD DUP1 SWAP2 SUB SWAP1 RETURN JUMPDEST PUSH2 0x458 PUSH1 0x4 DUP1 CALLDATASIZE SUB DUP2 ADD SWAP1 PUSH2 0x453 SWAP2 SWAP1 PUSH2 0x32BB JUMP JUMPDEST PUSH2 0x2666 JUMP JUMPDEST PUSH1 0x40 MLOAD PUSH2 0x465 SWAP2 SWAP1 PUSH2 0x3523 JUMP JUMPDEST PUSH1 0x40 MLOAD DUP1 SWAP2 SUB SWAP1 RETURN JUMPDEST PUSH2 0x488 PUSH1 0x4 DUP1 CALLDATASIZE SUB DUP2 ADD SWAP1 PUSH2 0x483 SWAP2 SWAP1 PUSH2 0x3599 JUMP JUMPDEST PUSH2 0x26A1 JUMP JUMPDEST PUSH1 0x40 MLOAD PUSH2 0x495 SWAP2 SWAP1 PUSH2 0x3636 JUMP JUMPDEST PUSH1 0x40 MLOAD DUP1 SWAP2 SUB SWAP1 RETURN JUMPDEST PUSH2 0x4B8 PUSH1 0x4 DUP1 CALLDATASIZE SUB DUP2 ADD SWAP1 PUSH2 0x4B3 SWAP2 SWAP1 PUSH2 0x3367 JUMP JUMPDEST PUSH2 0x26CD JUMP JUMPDEST PUSH1 0x40 MLOAD PUSH2 0x4C7 SWAP4 SWAP3 SWAP2 SWAP1 PUSH2 0x33C6 JUMP JUMPDEST PUSH1 0x40 MLOAD DUP1 SWAP2 SUB SWAP1 RETURN JUMPDEST PUSH2 0x4D8 PUSH2 0x2E65 JUMP JUMPDEST PUSH0 PUSH1 0x40 MLOAD DUP1 PUSH1 0x20 ADD PUSH1 0x40 MSTORE DUP1 DUP5 DUP2 MSTORE POP PUSH1 0x8 PUSH0 DUP7 DUP2 MSTORE PUSH1 0x20 ADD SWAP1 DUP2 MSTORE PUSH1 0x20 ADD PUSH0 KECCAK256 PUSH0 DUP3 ADD MLOAD DUP2 PUSH0 ADD SWAP1 DUP2 PUSH2 0x50C SWAP2 SWAP1 PUSH2 0x3853 JUMP JUMPDEST POP SWAP1 POP POP PUSH1 0x9 DUP5 SWAP1 DUP1 PUSH1 0x1 DUP2 SLOAD ADD DUP1 DUP3 SSTORE DUP1 SWAP2 POP POP PUSH1 0x1 SWAP1 SUB SWAP1 PUSH0 MSTORE PUSH1 0x20 PUSH0 KECCAK256 ADD PUSH0 SWAP1 SWAP2 SWAP1 SWAP2 SWAP1 SWAP2 POP SSTORE PUSH1 0x8 PUSH0 DUP6 DUP2 MSTORE PUSH1 0x20 ADD SWAP1 DUP2 MSTORE PUSH1 0x20 ADD PUSH0 KECCAK256 PUSH1 0x9 DUP1 SLOAD SWAP1 POP DUP2 PUSH1 0x40 MLOAD DUP1 PUSH1 0x20 ADD PUSH1 0x40 MSTORE SWAP1 DUP2 PUSH0 DUP3 ADD DUP1 SLOAD PUSH2 0x568 SWAP1 PUSH2 0x3683 JUMP JUMPDEST DUP1 PUSH1 0x1F ADD PUSH1 0x20 DUP1 SWAP2 DIV MUL PUSH1 0x20 ADD PUSH1 0x40 MLOAD SWAP1 DUP2 ADD PUSH1 0x40 MSTORE DUP1 SWAP3 SWAP2 SWAP1 DUP2 DUP2 MSTORE PUSH1 0x20 ADD DUP3 DUP1 SLOAD PUSH2 0x594 SWAP1 PUSH2 0x3683 JUMP JUMPDEST DUP1 ISZERO PUSH2 0x5DF JUMPI DUP1 PUSH1 0x1F LT PUSH2 0x5B6 JUMPI PUSH2 0x100 DUP1 DUP4 SLOAD DIV MUL DUP4 MSTORE SWAP2 PUSH1 0x20 ADD SWAP2 PUSH2 0x5DF JUMP JUMPDEST DUP3 ADD SWAP2 SWAP1 PUSH0 MSTORE PUSH1 0x20 PUSH0 KECCAK256 SWAP1 JUMPDEST DUP2 SLOAD DUP2 MSTORE SWAP1 PUSH1 0x1 ADD SWAP1 PUSH1 0x20 ADD DUP1 DUP4 GT PUSH2 0x5C2 JUMPI DUP3 SWAP1 SUB PUSH1 0x1F AND DUP3 ADD SWAP2 JUMPDEST POP POP POP POP POP DUP2 MSTORE POP POP SWAP2 POP SWAP2 POP SWAP2 POP SWAP3 POP SWAP3 SWAP1 POP JUMP JUMPDEST PUSH1 0x3 PUSH1 0x20 MSTORE DUP2 PUSH0 MSTORE PUSH1 0x40 PUSH0 KECCAK256 PUSH1 0x20 MSTORE DUP1 PUSH0 MSTORE PUSH1 0x40 PUSH0 KECCAK256 PUSH0 SWAP2 POP SWAP2 POP SWAP1 SLOAD SWAP1 PUSH2 0x100 EXP SWAP1 DIV PUSH1 0xFF AND DUP2 JUMP JUMPDEST PUSH1 0x4 PUSH1 0x20 MSTORE DUP1 PUSH0 MSTORE PUSH1 0x40 PUSH0 KECCAK256 PUSH0 SWAP2 POP SLOAD SWAP1 PUSH2 0x100 EXP SWAP1 DIV PUSH1 0xFF AND DUP2 JUMP JUMPDEST PUSH1 0x9 DUP2 DUP2 SLOAD DUP2 LT PUSH2 0x64B JUMPI PUSH0 DUP1 REVERT JUMPDEST SWAP1 PUSH0 MSTORE PUSH1 0x20 PUSH0 KECCAK256 ADD PUSH0 SWAP2 POP SWAP1 POP SLOAD DUP2 JUMP JUMPDEST PUSH1 0x7 PUSH1 0x20 MSTORE DUP1 PUSH0 MSTORE PUSH1 0x40 PUSH0 KECCAK256 PUSH0 SWAP2 POP SWAP1 POP DUP1 SLOAD PUSH2 0x678 SWAP1 PUSH2 0x3683 JUMP JUMPDEST DUP1 PUSH1 0x1F ADD PUSH1 0x20 DUP1 SWAP2 DIV MUL PUSH1 0x20 ADD PUSH1 0x40 MLOAD SWAP1 DUP2 ADD PUSH1 0x40 MSTORE DUP1 SWAP3 SWAP2 SWAP1 DUP2 DUP2 MSTORE PUSH1 0x20 ADD DUP3 DUP1 SLOAD PUSH2 0x6A4 SWAP1 PUSH2 0x3683 JUMP JUMPDEST DUP1 ISZERO PUSH2 0x6EF JUMPI DUP1 PUSH1 0x1F LT PUSH2 0x6C6 JUMPI PUSH2 0x100 DUP1 DUP4 SLOAD DIV MUL DUP4 MSTORE SWAP2 PUSH1 0x20 ADD SWAP2 PUSH2 0x6EF JUMP JUMPDEST DUP3 ADD SWAP2 SWAP1 PUSH0 MSTORE PUSH1 0x20 PUSH0 KECCAK256 SWAP1 JUMPDEST DUP2 SLOAD DUP2 MSTORE SWAP1 PUSH1 0x1 ADD SWAP1 PUSH1 0x20 ADD DUP1 DUP4 GT PUSH2 0x6D2 JUMPI DUP3 SWAP1 SUB PUSH1 0x1F AND DUP3 ADD SWAP2 JUMPDEST POP POP POP POP POP DUP2 JUMP JUMPDEST PUSH0 PUSH0 PUSH0 DUP6 DUP5 PUSH1 0x1 PUSH1 0x3 DUP2 GT ISZERO PUSH2 0x710 JUMPI PUSH2 0x70F PUSH2 0x322F JUMP JUMPDEST JUMPDEST PUSH1 0x4 PUSH0 DUP5 PUSH20 0xFFFFFFFFFFFFFFFFFFFFFFFFFFFFFFFFFFFFFFFF AND PUSH20 0xFFFFFFFFFFFFFFFFFFFFFFFFFFFFFFFFFFFFFFFF AND DUP2 MSTORE PUSH1 0x20 ADD SWAP1 DUP2 MSTORE PUSH1 0x20 ADD PUSH0 KECCAK256 PUSH0 SWAP1 SLOAD SWAP1 PUSH2 0x100 EXP SWAP1 DIV PUSH1 0xFF AND PUSH1 0x3 DUP2 GT ISZERO PUSH2 0x76C JUMPI PUSH2 0x76B PUSH2 0x322F JUMP JUMPDEST JUMPDEST EQ PUSH2 0x7AC JUMPI PUSH1 0x40 MLOAD PUSH32 0x8C379A000000000000000000000000000000000000000000000000000000000 DUP2 MSTORE PUSH1 0x4 ADD PUSH2 0x7A3 SWAP1 PUSH2 0x396C JUMP JUMPDEST PUSH1 0x40 MLOAD DUP1 SWAP2 SUB SWAP1 REVERT JUMPDEST PUSH1 0x2 PUSH0 DUP4 PUSH20 0xFFFFFFFFFFFFFFFFFFFFFFFFFFFFFFFFFFFFFFFF AND PUSH20 0xFFFFFFFFFFFFFFFFFFFFFFFFFFFFFFFFFFFFFFFF AND DUP2 MSTORE PUSH1 0x20 ADD SWAP1 DUP2 MSTORE PUSH1 0x20 ADD PUSH0 KECCAK256 PUSH0 SWAP1 SLOAD SWAP1 PUSH2 0x100 EXP SWAP1 DIV PUSH1 0xFF AND PUSH2 0x835 JUMPI PUSH1 0x40 MLOAD PUSH32 0x8C379A000000000000000000000000000000000000000000000000000000000 DUP2 MSTORE PUSH1 0x4 ADD PUSH2 0x82C SWAP1 PUSH2 0x39FA JUMP JUMPDEST PUSH1 0x40 MLOAD DUP1 SWAP2 SUB SWAP1 REVERT JUMPDEST PUSH1 0x1 PUSH1 0x3 DUP2 GT ISZERO PUSH2 0x849 JUMPI PUSH2 0x848 PUSH2 0x322F JUMP JUMPDEST JUMPDEST PUSH1 0x4 PUSH0 DUP11 PUSH20 0xFFFFFFFFFFFFFFFFFFFFFFFFFFFFFFFFFFFFFFFF AND PUSH20 0xFFFFFFFFFFFFFFFFFFFFFFFFFFFFFFFFFFFFFFFF AND DUP2 MSTORE PUSH1 0x20 ADD SWAP1 DUP2 MSTORE PUSH1 0x20 ADD PUSH0 KECCAK256 PUSH0 SWAP1 SLOAD SWAP1 PUSH2 0x100 EXP SWAP1 DIV PUSH1 0xFF AND PUSH1 0x3 DUP2 GT ISZERO PUSH2 0x8A5 JUMPI PUSH2 0x8A4 PUSH2 0x322F JUMP JUMPDEST JUMPDEST EQ PUSH2 0x8E5 JUMPI PUSH1 0x40 MLOAD PUSH32 0x8C379A000000000000000000000000000000000000000000000000000000000 DUP2 MSTORE PUSH1 0x4 ADD PUSH2 0x8DC SWAP1 PUSH2 0x3A62 JUMP JUMPDEST PUSH1 0x40 MLOAD DUP1 SWAP2 SUB SWAP1 REVERT JUMPDEST PUSH1 0x3 DUP1 DUP2 GT ISZERO PUSH2 0x8F8 JUMPI PUSH2 0x8F7 PUSH2 0x322F JUMP JUMPDEST JUMPDEST PUSH1 0x4 PUSH0 DUP10 PUSH20 0xFFFFFFFFFFFFFFFFFFFFFFFFFFFFFFFFFFFFFFFF AND PUSH20 0xFFFFFFFFFFFFFFFFFFFFFFFFFFFFFFFFFFFFFFFF AND DUP2 MSTORE PUSH1 0x20 ADD SWAP1 DUP2 MSTORE PUSH1 0x20 ADD PUSH0 KECCAK256 PUSH0 SWAP1 SLOAD SWAP1 PUSH2 0x100 EXP SWAP1 DIV PUSH1 0xFF AND PUSH1 0x3 DUP2 GT ISZERO PUSH2 0x954 JUMPI PUSH2 0x953 PUSH2 0x322F JUMP JUMPDEST JUMPDEST SUB PUSH2 0x994 JUMPI PUSH1 0x40 MLOAD PUSH32 0x8C379A000000000000000000000000000000000000000000000000000000000 DUP2 MSTORE PUSH1 0x4 ADD PUSH2 0x98B SWAP1 PUSH2 0x3AF0 JUMP JUMPDEST PUSH1 0x40 MLOAD DUP1 SWAP2 SUB SWAP1 REVERT JUMPDEST PUSH0 ISZERO ISZERO PUSH0 PUSH0 ADD PUSH1 0x14 SWAP1 SLOAD SWAP1 PUSH2 0x100 EXP SWAP1 DIV PUSH1 0xFF AND ISZERO ISZERO EQ PUSH2 0x9EA JUMPI PUSH1 0x40 MLOAD PUSH32 0x8C379A000000000000000000000000000000000000000000000000000000000 DUP2 MSTORE PUSH1 0x4 ADD PUSH2 0x9E1 SWAP1 PUSH2 0x3B58 JUMP JUMPDEST PUSH1 0x40 MLOAD DUP1 SWAP2 SUB SWAP1 REVERT JUMPDEST PUSH1 0x5 PUSH0 DUP9 PUSH20 0xFFFFFFFFFFFFFFFFFFFFFFFFFFFFFFFFFFFFFFFF AND PUSH20 0xFFFFFFFFFFFFFFFFFFFFFFFFFFFFFFFFFFFFFFFF AND DUP2 MSTORE PUSH1 0x20 ADD SWAP1 DUP2 MSTORE PUSH1 0x20 ADD PUSH0 KECCAK256 PUSH0 ADD PUSH1 0x14 SWAP1 SLOAD SWAP1 PUSH2 0x100 EXP SWAP1 DIV PUSH1 0xFF AND ISZERO PUSH2 0xA77 JUMPI PUSH1 0x40 MLOAD PUSH32 0x8C379A000000000000000000000000000000000000000000000000000000000 DUP2 MSTORE PUSH1 0x4 ADD PUSH2 0xA6E SWAP1 PUSH2 0x3BE6 JUMP JUMPDEST PUSH1 0x40 MLOAD DUP1 SWAP2 SUB SWAP1 REVERT JUMPDEST DUP7 PUSH1 0x5 PUSH0 DUP10 PUSH20 0xFFFFFFFFFFFFFFFFFFFFFFFFFFFFFFFFFFFFFFFF AND PUSH20 0xFFFFFFFFFFFFFFFFFFFFFFFFFFFFFFFFFFFFFFFF AND DUP2 MSTORE PUSH1 0x20 ADD SWAP1 DUP2 MSTORE PUSH1 0x20 ADD PUSH0 KECCAK256 PUSH0 ADD PUSH0 PUSH2 0x100 EXP DUP2 SLOAD DUP2 PUSH20 0xFFFFFFFFFFFFFFFFFFFFFFFFFFFFFFFFFFFFFFFF MUL NOT AND SWAP1 DUP4 PUSH20 0xFFFFFFFFFFFFFFFFFFFFFFFFFFFFFFFFFFFFFFFF AND MUL OR SWAP1 SSTORE POP DUP6 PUSH1 0x4 PUSH0 DUP10 PUSH20 0xFFFFFFFFFFFFFFFFFFFFFFFFFFFFFFFFFFFFFFFF AND PUSH20 0xFFFFFFFFFFFFFFFFFFFFFFFFFFFFFFFFFFFFFFFF AND DUP2 MSTORE PUSH1 0x20 ADD SWAP1 DUP2 MSTORE PUSH1 0x20 ADD PUSH0 KECCAK256 PUSH0 PUSH2 0x100 EXP DUP2 SLOAD DUP2 PUSH1 0xFF MUL NOT AND SWAP1 DUP4 PUSH1 0x3 DUP2 GT ISZERO PUSH2 0xB53 JUMPI PUSH2 0xB52 PUSH2 0x322F JUMP JUMPDEST JUMPDEST MUL OR SWAP1 SSTORE POP PUSH1 0x1 PUSH1 0x2 PUSH0 DUP10 PUSH20 0xFFFFFFFFFFFFFFFFFFFFFFFFFFFFFFFFFFFFFFFF AND PUSH20 0xFFFFFFFFFFFFFFFFFFFFFFFFFFFFFFFFFFFFFFFF AND DUP2 MSTORE PUSH1 0x20 ADD SWAP1 DUP2 MSTORE PUSH1 0x20 ADD PUSH0 KECCAK256 PUSH0 PUSH2 0x100 EXP DUP2 SLOAD DUP2 PUSH1 0xFF MUL NOT AND SWAP1 DUP4 ISZERO ISZERO MUL OR SWAP1 SSTORE POP PUSH1 0x1 PUSH1 0x3 PUSH0 DUP11 PUSH20 0xFFFFFFFFFFFFFFFFFFFFFFFFFFFFFFFFFFFFFFFF AND PUSH20 0xFFFFFFFFFFFFFFFFFFFFFFFFFFFFFFFFFFFFFFFF AND DUP2 MSTORE PUSH1 0x20 ADD SWAP1 DUP2 MSTORE PUSH1 0x20 ADD PUSH0 KECCAK256 PUSH0 PUSH1 0x4 PUSH0 DUP12 PUSH20 0xFFFFFFFFFFFFFFFFFFFFFFFFFFFFFFFFFFFFFFFF AND PUSH20 0xFFFFFFFFFFFFFFFFFFFFFFFFFFFFFFFFFFFFFFFF AND DUP2 MSTORE PUSH1 0x20 ADD SWAP1 DUP2 MSTORE PUSH1 0x20 ADD PUSH0 KECCAK256 PUSH0 SWAP1 SLOAD SWAP1 PUSH2 0x100 EXP SWAP1 DIV PUSH1 0xFF AND PUSH1 0x3 DUP2 GT ISZERO PUSH2 0xC49 JUMPI PUSH2 0xC48 PUSH2 0x322F JUMP JUMPDEST JUMPDEST PUSH1 0x3 DUP2 GT ISZERO PUSH2 0xC5B JUMPI PUSH2 0xC5A PUSH2 0x322F JUMP JUMPDEST JUMPDEST DUP2 MSTORE PUSH1 0x20 ADD SWAP1 DUP2 MSTORE PUSH1 0x20 ADD PUSH0 KECCAK256 PUSH0 PUSH2 0x100 EXP DUP2 SLOAD DUP2 PUSH1 0xFF MUL NOT AND SWAP1 DUP4 ISZERO ISZERO MUL OR SWAP1 SSTORE POP PUSH1 0x1 PUSH1 0x5 PUSH0 DUP10 PUSH20 0xFFFFFFFFFFFFFFFFFFFFFFFFFFFFFFFFFFFFFFFF AND PUSH20 0xFFFFFFFFFFFFFFFFFFFFFFFFFFFFFFFFFFFFFFFF AND DUP2 MSTORE PUSH1 0x20 ADD SWAP1 DUP2 MSTORE PUSH1 0x20 ADD PUSH0 KECCAK256 PUSH0 ADD PUSH1 0x14 PUSH2 0x100 EXP DUP2 SLOAD DUP2 PUSH1 0xFF MUL NOT AND SWAP1 DUP4 ISZERO ISZERO MUL OR SWAP1 SSTORE POP PUSH1 0x40 MLOAD DUP1 PUSH1 0x40 ADD PUSH1 0x40 MSTORE DUP1 PUSH1 0x6 DUP2 MSTORE PUSH1 0x20 ADD PUSH32 0x5061757365720000000000000000000000000000000000000000000000000000 DUP2 MSTORE POP PUSH1 0x5 PUSH0 DUP10 PUSH20 0xFFFFFFFFFFFFFFFFFFFFFFFFFFFFFFFFFFFFFFFF AND PUSH20 0xFFFFFFFFFFFFFFFFFFFFFFFFFFFFFFFFFFFFFFFF AND DUP2 MSTORE PUSH1 0x20 ADD SWAP1 DUP2 MSTORE PUSH1 0x20 ADD PUSH0 KECCAK256 PUSH1 0x1 ADD SWAP1 DUP2 PUSH2 0xD58 SWAP2 SWAP1 PUSH2 0x3853 JUMP JUMPDEST POP DUP6 PUSH1 0x5 PUSH0 DUP10 PUSH20 0xFFFFFFFFFFFFFFFFFFFFFFFFFFFFFFFFFFFFFFFF AND PUSH20 0xFFFFFFFFFFFFFFFFFFFFFFFFFFFFFFFFFFFFFFFF AND DUP2 MSTORE PUSH1 0x20 ADD SWAP1 DUP2 MSTORE PUSH1 0x20 ADD PUSH0 KECCAK256 PUSH0 ADD PUSH1 0x16 PUSH2 0x100 EXP DUP2 SLOAD DUP2 PUSH1 0xFF MUL NOT AND SWAP1 DUP4 PUSH1 0x3 DUP2 GT ISZERO PUSH2 0xDBB JUMPI PUSH2 0xDBA PUSH2 0x322F JUMP JUMPDEST JUMPDEST MUL OR SWAP1 SSTORE POP PUSH1 0x5 PUSH0 DUP9 PUSH20 0xFFFFFFFFFFFFFFFFFFFFFFFFFFFFFFFFFFFFFFFF AND PUSH20 0xFFFFFFFFFFFFFFFFFFFFFFFFFFFFFFFFFFFFFFFF AND DUP2 MSTORE PUSH1 0x20 ADD SWAP1 DUP2 MSTORE PUSH1 0x20 ADD PUSH0 KECCAK256 PUSH0 ADD PUSH0 SWAP1 SLOAD SWAP1 PUSH2 0x100 EXP SWAP1 DIV PUSH20 0xFFFFFFFFFFFFFFFFFFFFFFFFFFFFFFFFFFFFFFFF AND PUSH1 0x5 PUSH0 DUP10 PUSH20 0xFFFFFFFFFFFFFFFFFFFFFFFFFFFFFFFFFFFFFFFF AND PUSH20 0xFFFFFFFFFFFFFFFFFFFFFFFFFFFFFFFFFFFFFFFF AND DUP2 MSTORE PUSH1 0x20 ADD SWAP1 DUP2 MSTORE PUSH1 0x20 ADD PUSH0 KECCAK256 PUSH0 ADD PUSH1 0x16 SWAP1 SLOAD SWAP1 PUSH2 0x100 EXP SWAP1 DIV PUSH1 0xFF AND PUSH1 0x3 PUSH0 DUP12 PUSH20 0xFFFFFFFFFFFFFFFFFFFFFFFFFFFFFFFFFFFFFFFF AND PUSH20 0xFFFFFFFFFFFFFFFFFFFFFFFFFFFFFFFFFFFFFFFF AND DUP2 MSTORE PUSH1 0x20 ADD SWAP1 DUP2 MSTORE PUSH1 0x20 ADD PUSH0 KECCAK256 PUSH0 PUSH1 0x4 PUSH0 DUP13 PUSH20 0xFFFFFFFFFFFFFFFFFFFFFFFFFFFFFFFFFFFFFFFF AND PUSH20 0xFFFFFFFFFFFFFFFFFFFFFFFFFFFFFFFFFFFFFFFF AND DUP2 MSTORE PUSH1 0x20 ADD SWAP1 DUP2 MSTORE PUSH1 0x20 ADD PUSH0 KECCAK256 PUSH0 SWAP1 SLOAD SWAP1 PUSH2 0x100 EXP SWAP1 DIV PUSH1 0xFF AND PUSH1 0x3 DUP2 GT ISZERO PUSH2 0xF06 JUMPI PUSH2 0xF05 PUSH2 0x322F JUMP JUMPDEST JUMPDEST PUSH1 0x3 DUP2 GT ISZERO PUSH2 0xF18 JUMPI PUSH2 0xF17 PUSH2 0x322F JUMP JUMPDEST JUMPDEST DUP2 MSTORE PUSH1 0x20 ADD SWAP1 DUP2 MSTORE PUSH1 0x20 ADD PUSH0 KECCAK256 PUSH0 SWAP1 SLOAD SWAP1 PUSH2 0x100 EXP SWAP1 DIV PUSH1 0xFF AND SWAP5 POP SWAP5 POP SWAP5 POP POP POP SWAP4 POP SWAP4 POP SWAP4 SWAP1 POP JUMP JUMPDEST PUSH1 0x1 PUSH1 0xA PUSH1 0x1 ADD PUSH0 PUSH2 0x100 EXP DUP2 SLOAD DUP2 PUSH1 0xFF MUL NOT AND SWAP1 DUP4 PUSH1 0x2 DUP2 GT ISZERO PUSH2 0xF6B JUMPI PUSH2 0xF6A PUSH2 0x322F JUMP JUMPDEST JUMPDEST MUL OR SWAP1 SSTORE POP JUMP JUMPDEST PUSH0 PUSH0 PUSH0 PUSH1 0x60 PUSH1 0x4 PUSH0 DUP7 PUSH20 0xFFFFFFFFFFFFFFFFFFFFFFFFFFFFFFFFFFFFFFFF AND PUSH20 0xFFFFFFFFFFFFFFFFFFFFFFFFFFFFFFFFFFFFFFFF AND DUP2 MSTORE PUSH1 0x20 ADD SWAP1 DUP2 MSTORE PUSH1 0x20 ADD PUSH0 KECCAK256 PUSH0 SWAP1 SLOAD SWAP1 PUSH2 0x100 EXP SWAP1 DIV PUSH1 0xFF AND DUP6 PUSH1 0x3 PUSH0 DUP9 PUSH20 0xFFFFFFFFFFFFFFFFFFFFFFFFFFFFFFFFFFFFFFFF AND PUSH20 0xFFFFFFFFFFFFFFFFFFFFFFFFFFFFFFFFFFFFFFFF AND DUP2 MSTORE PUSH1 0x20 ADD SWAP1 DUP2 MSTORE PUSH1 0x20 ADD PUSH0 KECCAK256 PUSH0 PUSH1 0x4 PUSH0 DUP11 PUSH20 0xFFFFFFFFFFFFFFFFFFFFFFFFFFFFFFFFFFFFFFFF AND PUSH20 0xFFFFFFFFFFFFFFFFFFFFFFFFFFFFFFFFFFFFFFFF AND DUP2 MSTORE PUSH1 0x20 ADD SWAP1 DUP2 MSTORE PUSH1 0x20 ADD PUSH0 KECCAK256 PUSH0 SWAP1 SLOAD SWAP1 PUSH2 0x100 EXP SWAP1 DIV PUSH1 0xFF AND PUSH1 0x3 DUP2 GT ISZERO PUSH2 0x105C JUMPI PUSH2 0x105B PUSH2 0x322F JUMP JUMPDEST JUMPDEST PUSH1 0x3 DUP2 GT ISZERO PUSH2 0x106E JUMPI PUSH2 0x106D PUSH2 0x322F JUMP JUMPDEST JUMPDEST DUP2 MSTORE PUSH1 0x20 ADD SWAP1 DUP2 MSTORE PUSH1 0x20 ADD PUSH0 KECCAK256 PUSH0 SWAP1 SLOAD SWAP1 PUSH2 0x100 EXP SWAP1 DIV PUSH1 0xFF AND PUSH0 PUSH1 0x1 ADD DUP1 DUP1 SLOAD PUSH2 0x1098 SWAP1 PUSH2 0x3683 JUMP JUMPDEST DUP1 PUSH1 0x1F ADD PUSH1 0x20 DUP1 SWAP2 DIV MUL PUSH1 0x20 ADD PUSH1 0x40 MLOAD SWAP1 DUP2 ADD PUSH1 0x40 MSTORE DUP1 SWAP3 SWAP2 SWAP1 DUP2 DUP2 MSTORE PUSH1 0x20 ADD DUP3 DUP1 SLOAD PUSH2 0x10C4 SWAP1 PUSH2 0x3683 JUMP JUMPDEST DUP1 ISZERO PUSH2 0x110F JUMPI DUP1 PUSH1 0x1F LT PUSH2 0x10E6 JUMPI PUSH2 0x100 DUP1 DUP4 SLOAD DIV MUL DUP4 MSTORE SWAP2 PUSH1 0x20 ADD SWAP2 PUSH2 0x110F JUMP JUMPDEST DUP3 ADD SWAP2 SWAP1 PUSH0 MSTORE PUSH1 0x20 PUSH0 KECCAK256 SWAP1 JUMPDEST DUP2 SLOAD DUP2 MSTORE SWAP1 PUSH1 0x1 ADD SWAP1 PUSH1 0x20 ADD DUP1 DUP4 GT PUSH2 0x10F2 JUMPI DUP3 SWAP1 SUB PUSH1 0x1F AND DUP3 ADD SWAP2 JUMPDEST POP POP POP POP POP SWAP1 POP SWAP4 POP SWAP4 POP SWAP4 POP SWAP4 POP SWAP2 SWAP4 POP SWAP2 SWAP4 JUMP JUMPDEST PUSH0 PUSH1 0xA PUSH1 0x1 ADD PUSH0 SWAP1 SLOAD SWAP1 PUSH2 0x100 EXP SWAP1 DIV PUSH1 0xFF AND SWAP1 POP SWAP1 JUMP JUMPDEST PUSH0 PUSH1 0x1 PUSH1 0x2 DUP2 GT ISZERO PUSH2 0x1152 JUMPI PUSH2 0x1151 PUSH2 0x322F JUMP JUMPDEST JUMPDEST SWAP1 POP SWAP1 JUMP JUMPDEST PUSH1 0x2 PUSH1 0x20 MSTORE DUP1 PUSH0 MSTORE PUSH1 0x40 PUSH0 KECCAK256 PUSH0 SWAP2 POP SLOAD SWAP1 PUSH2 0x100 EXP SWAP1 DIV PUSH1 0xFF AND DUP2 JUMP JUMPDEST PUSH1 0x8 PUSH1 0x20 MSTORE DUP1 PUSH0 MSTORE PUSH1 0x40 PUSH0 KECCAK256 PUSH0 SWAP2 POP SWAP1 POP DUP1 PUSH0 ADD DUP1 SLOAD PUSH2 0x1193 SWAP1 PUSH2 0x3683 JUMP JUMPDEST DUP1 PUSH1 0x1F ADD PUSH1 0x20 DUP1 SWAP2 DIV MUL PUSH1 0x20 ADD PUSH1 0x40 MLOAD SWAP1 DUP2 ADD PUSH1 0x40 MSTORE DUP1 SWAP3 SWAP2 SWAP1 DUP2 DUP2 MSTORE PUSH1 0x20 ADD DUP3 DUP1 SLOAD PUSH2 0x11BF SWAP1 PUSH2 0x3683 JUMP JUMPDEST DUP1 ISZERO PUSH2 0x120A JUMPI DUP1 PUSH1 0x1F LT PUSH2 0x11E1 JUMPI PUSH2 0x100 DUP1 DUP4 SLOAD DIV MUL DUP4 MSTORE SWAP2 PUSH1 0x20 ADD SWAP2 PUSH2 0x120A JUMP JUMPDEST DUP3 ADD SWAP2 SWAP1 PUSH0 MSTORE PUSH1 0x20 PUSH0 KECCAK256 SWAP1 JUMPDEST DUP2 SLOAD DUP2 MSTORE SWAP1 PUSH1 0x1 ADD SWAP1 PUSH1 0x20 ADD DUP1 DUP4 GT PUSH2 0x11ED JUMPI DUP3 SWAP1 SUB PUSH1 0x1F AND DUP3 ADD SWAP2 JUMPDEST POP POP POP POP POP SWAP1 POP DUP2 JUMP JUMPDEST PUSH0 PUSH0 PUSH0 PUSH0 PUSH1 0x60 PUSH1 0x2 PUSH0 DUP8 PUSH20 0xFFFFFFFFFFFFFFFFFFFFFFFFFFFFFFFFFFFFFFFF AND PUSH20 0xFFFFFFFFFFFFFFFFFFFFFFFFFFFFFFFFFFFFFFFF AND DUP2 MSTORE PUSH1 0x20 ADD SWAP1 DUP2 MSTORE PUSH1 0x20 ADD PUSH0 KECCAK256 PUSH0 SWAP1 SLOAD SWAP1 PUSH2 0x100 EXP SWAP1 DIV PUSH1 0xFF AND ISZERO PUSH2 0x1501 JUMPI PUSH1 0x5 PUSH0 DUP8 PUSH20 0xFFFFFFFFFFFFFFFFFFFFFFFFFFFFFFFFFFFFFFFF AND PUSH20 0xFFFFFFFFFFFFFFFFFFFFFFFFFFFFFFFFFFFFFFFF AND DUP2 MSTORE PUSH1 0x20 ADD SWAP1 DUP2 MSTORE PUSH1 0x20 ADD PUSH0 KECCAK256 PUSH0 ADD PUSH0 SWAP1 SLOAD SWAP1 PUSH2 0x100 EXP SWAP1 DIV PUSH20 0xFFFFFFFFFFFFFFFFFFFFFFFFFFFFFFFFFFFFFFFF AND PUSH1 0x5 PUSH0 DUP9 PUSH20 0xFFFFFFFFFFFFFFFFFFFFFFFFFFFFFFFFFFFFFFFF AND PUSH20 0xFFFFFFFFFFFFFFFFFFFFFFFFFFFFFFFFFFFFFFFF AND DUP2 MSTORE PUSH1 0x20 ADD SWAP1 DUP2 MSTORE PUSH1 0x20 ADD PUSH0 KECCAK256 PUSH0 ADD PUSH1 0x14 SWAP1 SLOAD SWAP1 PUSH2 0x100 EXP SWAP1 DIV PUSH1 0xFF AND PUSH1 0x3 PUSH0 DUP10 PUSH20 0xFFFFFFFFFFFFFFFFFFFFFFFFFFFFFFFFFFFFFFFF AND PUSH20 0xFFFFFFFFFFFFFFFFFFFFFFFFFFFFFFFFFFFFFFFF AND DUP2 MSTORE PUSH1 0x20 ADD SWAP1 DUP2 MSTORE PUSH1 0x20 ADD PUSH0 KECCAK256 PUSH0 PUSH1 0x4 PUSH0 DUP12 PUSH20 0xFFFFFFFFFFFFFFFFFFFFFFFFFFFFFFFFFFFFFFFF AND PUSH20 0xFFFFFFFFFFFFFFFFFFFFFFFFFFFFFFFFFFFFFFFF AND DUP2 MSTORE PUSH1 0x20 ADD SWAP1 DUP2 MSTORE PUSH1 0x20 ADD PUSH0 KECCAK256 PUSH0 SWAP1 SLOAD SWAP1 PUSH2 0x100 EXP SWAP1 DIV PUSH1 0xFF AND PUSH1 0x3 DUP2 GT ISZERO PUSH2 0x13AF JUMPI PUSH2 0x13AE PUSH2 0x322F JUMP JUMPDEST JUMPDEST PUSH1 0x3 DUP2 GT ISZERO PUSH2 0x13C1 JUMPI PUSH2 0x13C0 PUSH2 0x322F JUMP JUMPDEST JUMPDEST DUP2 MSTORE PUSH1 0x20 ADD SWAP1 DUP2 MSTORE PUSH1 0x20 ADD PUSH0 KECCAK256 PUSH0 SWAP1 SLOAD SWAP1 PUSH2 0x100 EXP SWAP1 DIV PUSH1 0xFF AND PUSH1 0x5 PUSH0 DUP11 PUSH20 0xFFFFFFFFFFFFFFFFFFFFFFFFFFFFFFFFFFFFFFFF AND PUSH20 0xFFFFFFFFFFFFFFFFFFFFFFFFFFFFFFFFFFFFFFFF AND DUP2 MSTORE PUSH1 0x20 ADD SWAP1 DUP2 MSTORE PUSH1 0x20 ADD PUSH0 KECCAK256 PUSH0 ADD PUSH1 0x16 SWAP1 SLOAD SWAP1 PUSH2 0x100 EXP SWAP1 DIV PUSH1 0xFF AND PUSH1 0x5 PUSH0 DUP12 PUSH20 0xFFFFFFFFFFFFFFFFFFFFFFFFFFFFFFFFFFFFFFFF AND PUSH20 0xFFFFFFFFFFFFFFFFFFFFFFFFFFFFFFFFFFFFFFFF AND DUP2 MSTORE PUSH1 0x20 ADD SWAP1 DUP2 MSTORE PUSH1 0x20 ADD PUSH0 KECCAK256 PUSH1 0x1 ADD DUP1 DUP1 SLOAD PUSH2 0x1474 SWAP1 PUSH2 0x3683 JUMP JUMPDEST DUP1 PUSH1 0x1F ADD PUSH1 0x20 DUP1 SWAP2 DIV MUL PUSH1 0x20 ADD PUSH1 0x40 MLOAD SWAP1 DUP2 ADD PUSH1 0x40 MSTORE DUP1 SWAP3 SWAP2 SWAP1 DUP2 DUP2 MSTORE PUSH1 0x20 ADD DUP3 DUP1 SLOAD PUSH2 0x14A0 SWAP1 PUSH2 0x3683 JUMP JUMPDEST DUP1 ISZERO PUSH2 0x14EB JUMPI DUP1 PUSH1 0x1F LT PUSH2 0x14C2 JUMPI PUSH2 0x100 DUP1 DUP4 SLOAD DIV MUL DUP4 MSTORE SWAP2 PUSH1 0x20 ADD SWAP2 PUSH2 0x14EB JUMP JUMPDEST DUP3 ADD SWAP2 SWAP1 PUSH0 MSTORE PUSH1 0x20 PUSH0 KECCAK256 SWAP1 JUMPDEST DUP2 SLOAD DUP2 MSTORE SWAP1 PUSH1 0x1 ADD SWAP1 PUSH1 0x20 ADD DUP1 DUP4 GT PUSH2 0x14CE JUMPI DUP3 SWAP1 SUB PUSH1 0x1F AND DUP3 ADD SWAP2 JUMPDEST POP POP POP POP POP SWAP1 POP SWAP5 POP SWAP5 POP SWAP5 POP SWAP5 POP SWAP5 POP PUSH2 0x1795 JUMP JUMPDEST PUSH1 0x5 PUSH0 DUP8 PUSH20 0xFFFFFFFFFFFFFFFFFFFFFFFFFFFFFFFFFFFFFFFF AND PUSH20 0xFFFFFFFFFFFFFFFFFFFFFFFFFFFFFFFFFFFFFFFF AND DUP2 MSTORE PUSH1 0x20 ADD SWAP1 DUP2 MSTORE PUSH1 0x20 ADD PUSH0 KECCAK256 PUSH0 ADD PUSH0 SWAP1 SLOAD SWAP1 PUSH2 0x100 EXP SWAP1 DIV PUSH20 0xFFFFFFFFFFFFFFFFFFFFFFFFFFFFFFFFFFFFFFFF AND PUSH1 0x5 PUSH0 DUP9 PUSH20 0xFFFFFFFFFFFFFFFFFFFFFFFFFFFFFFFFFFFFFFFF AND PUSH20 0xFFFFFFFFFFFFFFFFFFFFFFFFFFFFFFFFFFFFFFFF AND DUP2 MSTORE PUSH1 0x20 ADD SWAP1 DUP2 MSTORE PUSH1 0x20 ADD PUSH0 KECCAK256 PUSH0 ADD PUSH1 0x14 SWAP1 SLOAD SWAP1 PUSH2 0x100 EXP SWAP1 DIV PUSH1 0xFF AND PUSH1 0x3 PUSH0 DUP10 PUSH20 0xFFFFFFFFFFFFFFFFFFFFFFFFFFFFFFFFFFFFFFFF AND PUSH20 0xFFFFFFFFFFFFFFFFFFFFFFFFFFFFFFFFFFFFFFFF AND DUP2 MSTORE PUSH1 0x20 ADD SWAP1 DUP2 MSTORE PUSH1 0x20 ADD PUSH0 KECCAK256 PUSH0 PUSH1 0x4 PUSH0 DUP12 PUSH20 0xFFFFFFFFFFFFFFFFFFFFFFFFFFFFFFFFFFFFFFFF AND PUSH20 0xFFFFFFFFFFFFFFFFFFFFFFFFFFFFFFFFFFFFFFFF AND DUP2 MSTORE PUSH1 0x20 ADD SWAP1 DUP2 MSTORE PUSH1 0x20 ADD PUSH0 KECCAK256 PUSH0 SWAP1 SLOAD SWAP1 PUSH2 0x100 EXP SWAP1 DIV PUSH1 0xFF AND PUSH1 0x3 DUP2 GT ISZERO PUSH2 0x1647 JUMPI PUSH2 0x1646 PUSH2 0x322F JUMP JUMPDEST JUMPDEST PUSH1 0x3 DUP2 GT ISZERO PUSH2 0x1659 JUMPI PUSH2 0x1658 PUSH2 0x322F JUMP JUMPDEST JUMPDEST DUP2 MSTORE PUSH1 0x20 ADD SWAP1 DUP2 MSTORE PUSH1 0x20 ADD PUSH0 KECCAK256 PUSH0 SWAP1 SLOAD SWAP1 PUSH2 0x100 EXP SWAP1 DIV PUSH1 0xFF AND PUSH1 0x5 PUSH0 DUP11 PUSH20 0xFFFFFFFFFFFFFFFFFFFFFFFFFFFFFFFFFFFFFFFF AND PUSH20 0xFFFFFFFFFFFFFFFFFFFFFFFFFFFFFFFFFFFFFFFF AND DUP2 MSTORE PUSH1 0x20 ADD SWAP1 DUP2 MSTORE PUSH1 0x20 ADD PUSH0 KECCAK256 PUSH0 ADD PUSH1 0x16 SWAP1 SLOAD SWAP1 PUSH2 0x100 EXP SWAP1 DIV PUSH1 0xFF AND PUSH1 0x5 PUSH0 DUP12 PUSH20 0xFFFFFFFFFFFFFFFFFFFFFFFFFFFFFFFFFFFFFFFF AND PUSH20 0xFFFFFFFFFFFFFFFFFFFFFFFFFFFFFFFFFFFFFFFF AND DUP2 MSTORE PUSH1 0x20 ADD SWAP1 DUP2 MSTORE PUSH1 0x20 ADD PUSH0 KECCAK256 PUSH1 0x1 ADD DUP1 DUP1 SLOAD PUSH2 0x170C SWAP1 PUSH2 0x3683 JUMP JUMPDEST DUP1 PUSH1 0x1F ADD PUSH1 0x20 DUP1 SWAP2 DIV MUL PUSH1 0x20 ADD PUSH1 0x40 MLOAD SWAP1 DUP2 ADD PUSH1 0x40 MSTORE DUP1 SWAP3 SWAP2 SWAP1 DUP2 DUP2 MSTORE PUSH1 0x20 ADD DUP3 DUP1 SLOAD PUSH2 0x1738 SWAP1 PUSH2 0x3683 JUMP JUMPDEST DUP1 ISZERO PUSH2 0x1783 JUMPI DUP1 PUSH1 0x1F LT PUSH2 0x175A JUMPI PUSH2 0x100 DUP1 DUP4 SLOAD DIV MUL DUP4 MSTORE SWAP2 PUSH1 0x20 ADD SWAP2 PUSH2 0x1783 JUMP JUMPDEST DUP3 ADD SWAP2 SWAP1 PUSH0 MSTORE PUSH1 0x20 PUSH0 KECCAK256 SWAP1 JUMPDEST DUP2 SLOAD DUP2 MSTORE SWAP1 PUSH1 0x1 ADD SWAP1 PUSH1 0x20 ADD DUP1 DUP4 GT PUSH2 0x1766 JUMPI DUP3 SWAP1 SUB PUSH1 0x1F AND DUP3 ADD SWAP2 JUMPDEST POP POP POP POP POP SWAP1 POP SWAP5 POP SWAP5 POP SWAP5 POP SWAP5 POP SWAP5 POP JUMPDEST SWAP2 SWAP4 SWAP6 SWAP1 SWAP3 SWAP5 POP JUMP JUMPDEST PUSH0 PUSH0 PUSH0 DUP5 DUP5 PUSH1 0x5 PUSH0 DUP4 PUSH20 0xFFFFFFFFFFFFFFFFFFFFFFFFFFFFFFFFFFFFFFFF AND PUSH20 0xFFFFFFFFFFFFFFFFFFFFFFFFFFFFFFFFFFFFFFFF AND DUP2 MSTORE PUSH1 0x20 ADD SWAP1 DUP2 MSTORE PUSH1 0x20 ADD PUSH0 KECCAK256 PUSH0 ADD PUSH1 0x16 SWAP1 SLOAD SWAP1 PUSH2 0x100 EXP SWAP1 DIV PUSH1 0xFF AND PUSH1 0x3 DUP2 GT ISZERO PUSH2 0x1802 JUMPI PUSH2 0x1801 PUSH2 0x322F JUMP JUMPDEST JUMPDEST PUSH1 0x4 PUSH0 DUP5 PUSH20 0xFFFFFFFFFFFFFFFFFFFFFFFFFFFFFFFFFFFFFFFF AND PUSH20 0xFFFFFFFFFFFFFFFFFFFFFFFFFFFFFFFFFFFFFFFF AND DUP2 MSTORE PUSH1 0x20 ADD SWAP1 DUP2 MSTORE PUSH1 0x20 ADD PUSH0 KECCAK256 PUSH0 SWAP1 SLOAD SWAP1 PUSH2 0x100 EXP SWAP1 DIV PUSH1 0xFF AND PUSH1 0x3 DUP2 GT ISZERO PUSH2 0x185E JUMPI PUSH2 0x185D PUSH2 0x322F JUMP JUMPDEST JUMPDEST EQ PUSH2 0x189E JUMPI PUSH1 0x40 MLOAD PUSH32 0x8C379A000000000000000000000000000000000000000000000000000000000 DUP2 MSTORE PUSH1 0x4 ADD PUSH2 0x1895 SWAP1 PUSH2 0x3C4E JUMP JUMPDEST PUSH1 0x40 MLOAD DUP1 SWAP2 SUB SWAP1 REVERT JUMPDEST PUSH1 0x2 PUSH0 DUP4 PUSH20 0xFFFFFFFFFFFFFFFFFFFFFFFFFFFFFFFFFFFFFFFF AND PUSH20 0xFFFFFFFFFFFFFFFFFFFFFFFFFFFFFFFFFFFFFFFF AND DUP2 MSTORE PUSH1 0x20 ADD SWAP1 DUP2 MSTORE PUSH1 0x20 ADD PUSH0 KECCAK256 PUSH0 SWAP1 SLOAD SWAP1 PUSH2 0x100 EXP SWAP1 DIV PUSH1 0xFF AND PUSH2 0x1927 JUMPI PUSH1 0x40 MLOAD PUSH32 0x8C379A000000000000000000000000000000000000000000000000000000000 DUP2 MSTORE PUSH1 0x4 ADD PUSH2 0x191E SWAP1 PUSH2 0x3CDC JUMP JUMPDEST PUSH1 0x40 MLOAD DUP1 SWAP2 SUB SWAP1 REVERT JUMPDEST PUSH1 0x1 ISZERO ISZERO PUSH1 0x5 PUSH0 DUP10 PUSH20 0xFFFFFFFFFFFFFFFFFFFFFFFFFFFFFFFFFFFFFFFF AND PUSH20 0xFFFFFFFFFFFFFFFFFFFFFFFFFFFFFFFFFFFFFFFF AND DUP2 MSTORE PUSH1 0x20 ADD SWAP1 DUP2 MSTORE PUSH1 0x20 ADD PUSH0 KECCAK256 PUSH0 ADD PUSH1 0x14 SWAP1 SLOAD SWAP1 PUSH2 0x100 EXP SWAP1 DIV PUSH1 0xFF AND ISZERO ISZERO EQ PUSH2 0x19BA JUMPI PUSH1 0x40 MLOAD PUSH32 0x8C379A000000000000000000000000000000000000000000000000000000000 DUP2 MSTORE PUSH1 0x4 ADD PUSH2 0x19B1 SWAP1 PUSH2 0x3D6A JUMP JUMPDEST PUSH1 0x40 MLOAD DUP1 SWAP2 SUB SWAP1 REVERT JUMPDEST PUSH0 ISZERO ISZERO PUSH1 0x5 PUSH0 DUP10 PUSH20 0xFFFFFFFFFFFFFFFFFFFFFFFFFFFFFFFFFFFFFFFF AND PUSH20 0xFFFFFFFFFFFFFFFFFFFFFFFFFFFFFFFFFFFFFFFF AND DUP2 MSTORE PUSH1 0x20 ADD SWAP1 DUP2 MSTORE PUSH1 0x20 ADD PUSH0 KECCAK256 PUSH0 ADD PUSH1 0x15 SWAP1 SLOAD SWAP1 PUSH2 0x100 EXP SWAP1 DIV PUSH1 0xFF AND ISZERO ISZERO EQ PUSH2 0x1A4C JUMPI PUSH1 0x40 MLOAD PUSH32 0x8C379A000000000000000000000000000000000000000000000000000000000 DUP2 MSTORE PUSH1 0x4 ADD PUSH2 0x1A43 SWAP1 PUSH2 0x3DF8 JUMP JUMPDEST PUSH1 0x40 MLOAD DUP1 SWAP2 SUB SWAP1 REVERT JUMPDEST DUP7 PUSH1 0x5 PUSH0 DUP10 PUSH20 0xFFFFFFFFFFFFFFFFFFFFFFFFFFFFFFFFFFFFFFFF AND PUSH20 0xFFFFFFFFFFFFFFFFFFFFFFFFFFFFFFFFFFFFFFFF AND DUP2 MSTORE PUSH1 0x20 ADD SWAP1 DUP2 MSTORE PUSH1 0x20 ADD PUSH0 KECCAK256 PUSH0 ADD PUSH0 PUSH2 0x100 EXP DUP2 SLOAD DUP2 PUSH20 0xFFFFFFFFFFFFFFFFFFFFFFFFFFFFFFFFFFFFFFFF MUL NOT AND SWAP1 DUP4 PUSH20 0xFFFFFFFFFFFFFFFFFFFFFFFFFFFFFFFFFFFFFFFF AND MUL OR SWAP1 SSTORE POP PUSH1 0x4 PUSH0 DUP9 PUSH20 0xFFFFFFFFFFFFFFFFFFFFFFFFFFFFFFFFFFFFFFFF AND PUSH20 0xFFFFFFFFFFFFFFFFFFFFFFFFFFFFFFFFFFFFFFFF AND DUP2 MSTORE PUSH1 0x20 ADD SWAP1 DUP2 MSTORE PUSH1 0x20 ADD PUSH0 KECCAK256 PUSH0 PUSH2 0x100 EXP DUP2 SLOAD SWAP1 PUSH1 0xFF MUL NOT AND SWAP1 SSTORE PUSH0 PUSH1 0x3 PUSH0 DUP10 PUSH20 0xFFFFFFFFFFFFFFFFFFFFFFFFFFFFFFFFFFFFFFFF AND PUSH20 0xFFFFFFFFFFFFFFFFFFFFFFFFFFFFFFFFFFFFFFFF AND DUP2 MSTORE PUSH1 0x20 ADD SWAP1 DUP2 MSTORE PUSH1 0x20 ADD PUSH0 KECCAK256 PUSH0 PUSH1 0x4 PUSH0 DUP12 PUSH20 0xFFFFFFFFFFFFFFFFFFFFFFFFFFFFFFFFFFFFFFFF AND PUSH20 0xFFFFFFFFFFFFFFFFFFFFFFFFFFFFFFFFFFFFFFFF AND DUP2 MSTORE PUSH1 0x20 ADD SWAP1 DUP2 MSTORE PUSH1 0x20 ADD PUSH0 KECCAK256 PUSH0 SWAP1 SLOAD SWAP1 PUSH2 0x100 EXP SWAP1 DIV PUSH1 0xFF AND PUSH1 0x3 DUP2 GT ISZERO PUSH2 0x1BB0 JUMPI PUSH2 0x1BAF PUSH2 0x322F JUMP JUMPDEST JUMPDEST PUSH1 0x3 DUP2 GT ISZERO PUSH2 0x1BC2 JUMPI PUSH2 0x1BC1 PUSH2 0x322F JUMP JUMPDEST JUMPDEST DUP2 MSTORE PUSH1 0x20 ADD SWAP1 DUP2 MSTORE PUSH1 0x20 ADD PUSH0 KECCAK256 PUSH0 PUSH2 0x100 EXP DUP2 SLOAD DUP2 PUSH1 0xFF MUL NOT AND SWAP1 DUP4 ISZERO ISZERO MUL OR SWAP1 SSTORE POP PUSH0 PUSH1 0x5 PUSH0 DUP10 PUSH20 0xFFFFFFFFFFFFFFFFFFFFFFFFFFFFFFFFFFFFFFFF AND PUSH20 0xFFFFFFFFFFFFFFFFFFFFFFFFFFFFFFFFFFFFFFFF AND DUP2 MSTORE PUSH1 0x20 ADD SWAP1 DUP2 MSTORE PUSH1 0x20 ADD PUSH0 KECCAK256 PUSH0 ADD PUSH1 0x14 PUSH2 0x100 EXP DUP2 SLOAD DUP2 PUSH1 0xFF MUL NOT AND SWAP1 DUP4 ISZERO ISZERO MUL OR SWAP1 SSTORE POP PUSH1 0x1 PUSH1 0x5 PUSH0 DUP10 PUSH20 0xFFFFFFFFFFFFFFFFFFFFFFFFFFFFFFFFFFFFFFFF AND PUSH20 0xFFFFFFFFFFFFFFFFFFFFFFFFFFFFFFFFFFFFFFFF AND DUP2 MSTORE PUSH1 0x20 ADD SWAP1 DUP2 MSTORE PUSH1 0x20 ADD PUSH0 KECCAK256 PUSH0 ADD PUSH1 0x15 PUSH2 0x100 EXP DUP2 SLOAD DUP2 PUSH1 0xFF MUL NOT AND SWAP1 DUP4 ISZERO ISZERO MUL OR SWAP1 SSTORE POP PUSH1 0x40 MLOAD DUP1 PUSH1 0x40 ADD PUSH1 0x40 MSTORE DUP1 PUSH1 0x4 DUP2 MSTORE PUSH1 0x20 ADD PUSH32 0x4E6F6E6500000000000000000000000000000000000000000000000000000000 DUP2 MSTORE POP PUSH1 0x5 PUSH0 DUP10 PUSH20 0xFFFFFFFFFFFFFFFFFFFFFFFFFFFFFFFFFFFFFFFF AND PUSH20 0xFFFFFFFFFFFFFFFFFFFFFFFFFFFFFFFFFFFFFFFF AND DUP2 MSTORE PUSH1 0x20 ADD SWAP1 DUP2 MSTORE PUSH1 0x20 ADD PUSH0 KECCAK256 PUSH1 0x1 ADD SWAP1 DUP2 PUSH2 0x1D16 SWAP2 SWAP1 PUSH2 0x3853 JUMP JUMPDEST POP PUSH0 PUSH1 0x2 PUSH0 DUP10 PUSH20 0xFFFFFFFFFFFFFFFFFFFFFFFFFFFFFFFFFFFFFFFF AND PUSH20 0xFFFFFFFFFFFFFFFFFFFFFFFFFFFFFFFFFFFFFFFF AND DUP2 MSTORE PUSH1 0x20 ADD SWAP1 DUP2 MSTORE PUSH1 0x20 ADD PUSH0 KECCAK256 PUSH0 PUSH2 0x100 EXP DUP2 SLOAD DUP2 PUSH1 0xFF MUL NOT AND SWAP1 DUP4 ISZERO ISZERO MUL OR SWAP1 SSTORE POP PUSH1 0x5 PUSH0 DUP9 PUSH20 0xFFFFFFFFFFFFFFFFFFFFFFFFFFFFFFFFFFFFFFFF AND PUSH20 0xFFFFFFFFFFFFFFFFFFFFFFFFFFFFFFFFFFFFFFFF AND DUP2 MSTORE PUSH1 0x20 ADD SWAP1 DUP2 MSTORE PUSH1 0x20 ADD PUSH0 KECCAK256 PUSH0 ADD PUSH1 0x16 PUSH2 0x100 EXP DUP2 SLOAD SWAP1 PUSH1 0xFF MUL NOT AND SWAP1 SSTORE POP POP SWAP3 POP SWAP3 POP SWAP3 JUMP JUMPDEST PUSH1 0xA DUP1 PUSH0 ADD SLOAD SWAP1 DUP1 PUSH1 0x1 ADD PUSH0 SWAP1 SLOAD SWAP1 PUSH2 0x100 EXP SWAP1 DIV PUSH1 0xFF AND SWAP1 POP DUP3 JUMP JUMPDEST PUSH0 PUSH0 PUSH0 PUSH1 0x1 PUSH1 0x3 DUP2 GT ISZERO PUSH2 0x1DF7 JUMPI PUSH2 0x1DF6 PUSH2 0x322F JUMP JUMPDEST JUMPDEST DUP5 PUSH1 0x3 DUP2 GT ISZERO PUSH2 0x1E0A JUMPI PUSH2 0x1E09 PUSH2 0x322F JUMP JUMPDEST JUMPDEST EQ PUSH2 0x1E4A JUMPI PUSH1 0x40 MLOAD PUSH32 0x8C379A000000000000000000000000000000000000000000000000000000000 DUP2 MSTORE PUSH1 0x4 ADD PUSH2 0x1E41 SWAP1 PUSH2 0x3E60 JUMP JUMPDEST PUSH1 0x40 MLOAD DUP1 SWAP2 SUB SWAP1 REVERT JUMPDEST PUSH1 0x2 PUSH1 0x3 DUP2 GT ISZERO PUSH2 0x1E5E JUMPI PUSH2 0x1E5D PUSH2 0x322F JUMP JUMPDEST JUMPDEST DUP5 PUSH1 0x3 DUP2 GT ISZERO PUSH2 0x1E71 JUMPI PUSH2 0x1E70 PUSH2 0x322F JUMP JUMPDEST JUMPDEST SUB PUSH2 0x1EB1 JUMPI PUSH1 0x40 MLOAD PUSH32 0x8C379A000000000000000000000000000000000000000000000000000000000 DUP2 MSTORE PUSH1 0x4 ADD PUSH2 0x1EA8 SWAP1 PUSH2 0x3EEE JUMP JUMPDEST PUSH1 0x40 MLOAD DUP1 SWAP2 SUB SWAP1 REVERT JUMPDEST PUSH1 0x3 DUP1 DUP2 GT ISZERO PUSH2 0x1EC4 JUMPI PUSH2 0x1EC3 PUSH2 0x322F JUMP JUMPDEST JUMPDEST DUP5 PUSH1 0x3 DUP2 GT ISZERO PUSH2 0x1ED7 JUMPI PUSH2 0x1ED6 PUSH2 0x322F JUMP JUMPDEST JUMPDEST SUB PUSH2 0x1F17 JUMPI PUSH1 0x40 MLOAD PUSH32 0x8C379A000000000000000000000000000000000000000000000000000000000 DUP2 MSTORE PUSH1 0x4 ADD PUSH2 0x1F0E SWAP1 PUSH2 0x3F7C JUMP JUMPDEST PUSH1 0x40 MLOAD DUP1 SWAP2 SUB SWAP1 REVERT JUMPDEST DUP4 PUSH1 0x3 DUP2 GT ISZERO PUSH2 0x1F2A JUMPI PUSH2 0x1F29 PUSH2 0x322F JUMP JUMPDEST JUMPDEST PUSH1 0x5 PUSH0 DUP8 PUSH20 0xFFFFFFFFFFFFFFFFFFFFFFFFFFFFFFFFFFFFFFFF AND PUSH20 0xFFFFFFFFFFFFFFFFFFFFFFFFFFFFFFFFFFFFFFFF AND DUP2 MSTORE PUSH1 0x20 ADD SWAP1 DUP2 MSTORE PUSH1 0x20 ADD PUSH0 KECCAK256 PUSH0 ADD PUSH1 0x16 SWAP1 SLOAD SWAP1 PUSH2 0x100 EXP SWAP1 DIV PUSH1 0xFF AND PUSH1 0x3 DUP2 GT ISZERO PUSH2 0x1F89 JUMPI PUSH2 0x1F88 PUSH2 0x322F JUMP JUMPDEST JUMPDEST SUB PUSH2 0x1FC9 JUMPI PUSH1 0x40 MLOAD PUSH32 0x8C379A000000000000000000000000000000000000000000000000000000000 DUP2 MSTORE PUSH1 0x4 ADD PUSH2 0x1FC0 SWAP1 PUSH2 0x400A JUMP JUMPDEST PUSH1 0x40 MLOAD DUP1 SWAP2 SUB SWAP1 REVERT JUMPDEST PUSH0 PUSH1 0x3 DUP2 GT ISZERO PUSH2 0x1FDC JUMPI PUSH2 0x1FDB PUSH2 0x322F JUMP JUMPDEST JUMPDEST DUP5 PUSH1 0x3 DUP2 GT ISZERO PUSH2 0x1FEF JUMPI PUSH2 0x1FEE PUSH2 0x322F JUMP JUMPDEST JUMPDEST LT ISZERO DUP1 ISZERO PUSH2 0x2021 JUMPI POP PUSH1 0x3 DUP1 DUP2 GT ISZERO PUSH2 0x200B JUMPI PUSH2 0x200A PUSH2 0x322F JUMP JUMPDEST JUMPDEST DUP5 PUSH1 0x3 DUP2 GT ISZERO PUSH2 0x201E JUMPI PUSH2 0x201D PUSH2 0x322F JUMP JUMPDEST JUMPDEST GT ISZERO JUMPDEST PUSH2 0x2060 JUMPI PUSH1 0x40 MLOAD PUSH32 0x8C379A000000000000000000000000000000000000000000000000000000000 DUP2 MSTORE PUSH1 0x4 ADD PUSH2 0x2057 SWAP1 PUSH2 0x4098 JUMP JUMPDEST PUSH1 0x40 MLOAD DUP1 SWAP2 SUB SWAP1 REVERT JUMPDEST PUSH1 0x1 PUSH1 0x3 DUP2 GT ISZERO PUSH2 0x2074 JUMPI PUSH2 0x2073 PUSH2 0x322F JUMP JUMPDEST JUMPDEST DUP5 PUSH1 0x3 DUP2 GT ISZERO PUSH2 0x2087 JUMPI PUSH2 0x2086 PUSH2 0x322F JUMP JUMPDEST JUMPDEST SUB PUSH2 0x23DA JUMPI DUP4 PUSH1 0x4 PUSH0 DUP8 PUSH20 0xFFFFFFFFFFFFFFFFFFFFFFFFFFFFFFFFFFFFFFFF AND PUSH20 0xFFFFFFFFFFFFFFFFFFFFFFFFFFFFFFFFFFFFFFFF AND DUP2 MSTORE PUSH1 0x20 ADD SWAP1 DUP2 MSTORE PUSH1 0x20 ADD PUSH0 KECCAK256 PUSH0 PUSH2 0x100 EXP DUP2 SLOAD DUP2 PUSH1 0xFF MUL NOT AND SWAP1 DUP4 PUSH1 0x3 DUP2 GT ISZERO PUSH2 0x20EB JUMPI PUSH2 0x20EA PUSH2 0x322F JUMP JUMPDEST JUMPDEST MUL OR SWAP1 SSTORE POP PUSH1 0x1 PUSH1 0x2 PUSH0 DUP8 PUSH20 0xFFFFFFFFFFFFFFFFFFFFFFFFFFFFFFFFFFFFFFFF AND PUSH20 0xFFFFFFFFFFFFFFFFFFFFFFFFFFFFFFFFFFFFFFFF AND DUP2 MSTORE PUSH1 0x20 ADD SWAP1 DUP2 MSTORE PUSH1 0x20 ADD PUSH0 KECCAK256 PUSH0 PUSH2 0x100 EXP DUP2 SLOAD DUP2 PUSH1 0xFF MUL NOT AND SWAP1 DUP4 ISZERO ISZERO MUL OR SWAP1 SSTORE POP PUSH1 0x1 PUSH1 0x3 PUSH0 DUP8 PUSH20 0xFFFFFFFFFFFFFFFFFFFFFFFFFFFFFFFFFFFFFFFF AND PUSH20 0xFFFFFFFFFFFFFFFFFFFFFFFFFFFFFFFFFFFFFFFF AND DUP2 MSTORE PUSH1 0x20 ADD SWAP1 DUP2 MSTORE PUSH1 0x20 ADD PUSH0 KECCAK256 PUSH0 PUSH1 0x4 PUSH0 DUP10 PUSH20 0xFFFFFFFFFFFFFFFFFFFFFFFFFFFFFFFFFFFFFFFF AND PUSH20 0xFFFFFFFFFFFFFFFFFFFFFFFFFFFFFFFFFFFFFFFF AND DUP2 MSTORE PUSH1 0x20 ADD SWAP1 DUP2 MSTORE PUSH1 0x20 ADD PUSH0 KECCAK256 PUSH0 SWAP1 SLOAD SWAP1 PUSH2 0x100 EXP SWAP1 DIV PUSH1 0xFF AND PUSH1 0x3 DUP2 GT ISZERO PUSH2 0x21E1 JUMPI PUSH2 0x21E0 PUSH2 0x322F JUMP JUMPDEST JUMPDEST PUSH1 0x3 DUP2 GT ISZERO PUSH2 0x21F3 JUMPI PUSH2 0x21F2 PUSH2 0x322F JUMP JUMPDEST JUMPDEST DUP2 MSTORE PUSH1 0x20 ADD SWAP1 DUP2 MSTORE PUSH1 0x20 ADD PUSH0 KECCAK256 PUSH0 PUSH2 0x100 EXP DUP2 SLOAD DUP2 PUSH1 0xFF MUL NOT AND SWAP1 DUP4 ISZERO ISZERO MUL OR SWAP1 SSTORE POP PUSH1 0x1 PUSH1 0x5 PUSH0 DUP8 PUSH20 0xFFFFFFFFFFFFFFFFFFFFFFFFFFFFFFFFFFFFFFFF AND PUSH20 0xFFFFFFFFFFFFFFFFFFFFFFFFFFFFFFFFFFFFFFFF AND DUP2 MSTORE PUSH1 0x20 ADD SWAP1 DUP2 MSTORE PUSH1 0x20 ADD PUSH0 KECCAK256 PUSH0 ADD PUSH1 0x14 PUSH2 0x100 EXP DUP2 SLOAD DUP2 PUSH1 0xFF MUL NOT AND SWAP1 DUP4 ISZERO ISZERO MUL OR SWAP1 SSTORE POP PUSH1 0x40 MLOAD DUP1 PUSH1 0x40 ADD PUSH1 0x40 MSTORE DUP1 PUSH1 0x5 DUP2 MSTORE PUSH1 0x20 ADD PUSH32 0x41646D696E000000000000000000000000000000000000000000000000000000 DUP2 MSTORE POP PUSH1 0x5 PUSH0 DUP8 PUSH20 0xFFFFFFFFFFFFFFFFFFFFFFFFFFFFFFFFFFFFFFFF AND PUSH20 0xFFFFFFFFFFFFFFFFFFFFFFFFFFFFFFFFFFFFFFFF AND DUP2 MSTORE PUSH1 0x20 ADD SWAP1 DUP2 MSTORE PUSH1 0x20 ADD PUSH0 KECCAK256 PUSH1 0x1 ADD SWAP1 DUP2 PUSH2 0x22F0 SWAP2 SWAP1 PUSH2 0x3853 JUMP JUMPDEST POP DUP4 PUSH1 0x5 PUSH0 DUP8 PUSH20 0xFFFFFFFFFFFFFFFFFFFFFFFFFFFFFFFFFFFFFFFF AND PUSH20 0xFFFFFFFFFFFFFFFFFFFFFFFFFFFFFFFFFFFFFFFF AND DUP2 MSTORE PUSH1 0x20 ADD SWAP1 DUP2 MSTORE PUSH1 0x20 ADD PUSH0 KECCAK256 PUSH0 ADD PUSH1 0x16 PUSH2 0x100 EXP DUP2 SLOAD DUP2 PUSH1 0xFF MUL NOT AND SWAP1 DUP4 PUSH1 0x3 DUP2 GT ISZERO PUSH2 0x2353 JUMPI PUSH2 0x2352 PUSH2 0x322F JUMP JUMPDEST JUMPDEST MUL OR SWAP1 SSTORE POP DUP5 PUSH1 0x5 PUSH0 DUP8 PUSH20 0xFFFFFFFFFFFFFFFFFFFFFFFFFFFFFFFFFFFFFFFF AND PUSH20 0xFFFFFFFFFFFFFFFFFFFFFFFFFFFFFFFFFFFFFFFF AND DUP2 MSTORE PUSH1 0x20 ADD SWAP1 DUP2 MSTORE PUSH1 0x20 ADD PUSH0 KECCAK256 PUSH0 ADD PUSH0 PUSH2 0x100 EXP DUP2 SLOAD DUP2 PUSH20 0xFFFFFFFFFFFFFFFFFFFFFFFFFFFFFFFFFFFFFFFF MUL NOT AND SWAP1 DUP4 PUSH20 0xFFFFFFFFFFFFFFFFFFFFFFFFFFFFFFFFFFFFFFFF AND MUL OR SWAP1 SSTORE POP PUSH2 0x2557 JUMP JUMPDEST PUSH1 0x5 PUSH0 DUP7 PUSH20 0xFFFFFFFFFFFFFFFFFFFFFFFFFFFFFFFFFFFFFFFF AND PUSH20 0xFFFFFFFFFFFFFFFFFFFFFFFFFFFFFFFFFFFFFFFF AND DUP2 MSTORE PUSH1 0x20 ADD SWAP1 DUP2 MSTORE PUSH1 0x20 ADD PUSH0 KECCAK256 PUSH0 ADD PUSH0 SWAP1 SLOAD SWAP1 PUSH2 0x100 EXP SWAP1 DIV PUSH20 0xFFFFFFFFFFFFFFFFFFFFFFFFFFFFFFFFFFFFFFFF AND PUSH1 0x5 PUSH0 DUP8 PUSH20 0xFFFFFFFFFFFFFFFFFFFFFFFFFFFFFFFFFFFFFFFF AND PUSH20 0xFFFFFFFFFFFFFFFFFFFFFFFFFFFFFFFFFFFFFFFF AND DUP2 MSTORE PUSH1 0x20 ADD SWAP1 DUP2 MSTORE PUSH1 0x20 ADD PUSH0 KECCAK256 PUSH0 ADD PUSH1 0x16 SWAP1 SLOAD SWAP1 PUSH2 0x100 EXP SWAP1 DIV PUSH1 0xFF AND PUSH1 0x3 PUSH0 DUP9 PUSH20 0xFFFFFFFFFFFFFFFFFFFFFFFFFFFFFFFFFFFFFFFF AND PUSH20 0xFFFFFFFFFFFFFFFFFFFFFFFFFFFFFFFFFFFFFFFF AND DUP2 MSTORE PUSH1 0x20 ADD SWAP1 DUP2 MSTORE PUSH1 0x20 ADD PUSH0 KECCAK256 PUSH0 PUSH1 0x4 PUSH0 DUP11 PUSH20 0xFFFFFFFFFFFFFFFFFFFFFFFFFFFFFFFFFFFFFFFF AND PUSH20 0xFFFFFFFFFFFFFFFFFFFFFFFFFFFFFFFFFFFFFFFF AND DUP2 MSTORE PUSH1 0x20 ADD SWAP1 DUP2 MSTORE PUSH1 0x20 ADD PUSH0 KECCAK256 PUSH0 SWAP1 SLOAD SWAP1 PUSH2 0x100 EXP SWAP1 DIV PUSH1 0xFF AND PUSH1 0x3 DUP2 GT ISZERO PUSH2 0x2520 JUMPI PUSH2 0x251F PUSH2 0x322F JUMP JUMPDEST JUMPDEST PUSH1 0x3 DUP2 GT ISZERO PUSH2 0x2532 JUMPI PUSH2 0x2531 PUSH2 0x322F JUMP JUMPDEST JUMPDEST DUP2 MSTORE PUSH1 0x20 ADD SWAP1 DUP2 MSTORE PUSH1 0x20 ADD PUSH0 KECCAK256 PUSH0 SWAP1 SLOAD SWAP1 PUSH2 0x100 EXP SWAP1 DIV PUSH1 0xFF AND SWAP3 POP SWAP3 POP SWAP3 POP PUSH2 0x2558 JUMP JUMPDEST JUMPDEST SWAP3 POP SWAP3 POP SWAP3 JUMP JUMPDEST PUSH1 0x5 PUSH1 0x20 MSTORE DUP1 PUSH0 MSTORE PUSH1 0x40 PUSH0 KECCAK256 PUSH0 SWAP2 POP SWAP1 POP DUP1 PUSH0 ADD PUSH0 SWAP1 SLOAD SWAP1 PUSH2 0x100 EXP SWAP1 DIV PUSH20 0xFFFFFFFFFFFFFFFFFFFFFFFFFFFFFFFFFFFFFFFF AND SWAP1 DUP1 PUSH0 ADD PUSH1 0x14 SWAP1 SLOAD SWAP1 PUSH2 0x100 EXP SWAP1 DIV PUSH1 0xFF AND SWAP1 DUP1 PUSH0 ADD PUSH1 0x15 SWAP1 SLOAD SWAP1 PUSH2 0x100 EXP SWAP1 DIV PUSH1 0xFF AND SWAP1 DUP1 PUSH0 ADD PUSH1 0x16 SWAP1 SLOAD SWAP1 PUSH2 0x100 EXP SWAP1 DIV PUSH1 0xFF AND SWAP1 DUP1 PUSH1 0x1 ADD DUP1 SLOAD PUSH2 0x25D9 SWAP1 PUSH2 0x3683 JUMP JUMPDEST DUP1 PUSH1 0x1F ADD PUSH1 0x20 DUP1 SWAP2 DIV MUL PUSH1 0x20 ADD PUSH1 0x40 MLOAD SWAP1 DUP2 ADD PUSH1 0x40 MSTORE DUP1 SWAP3 SWAP2 SWAP1 DUP2 DUP2 MSTORE PUSH1 0x20 ADD DUP3 DUP1 SLOAD PUSH2 0x2605 SWAP1 PUSH2 0x3683 JUMP JUMPDEST DUP1 ISZERO PUSH2 0x2650 JUMPI DUP1 PUSH1 0x1F LT PUSH2 0x2627 JUMPI PUSH2 0x100 DUP1 DUP4 SLOAD DIV MUL DUP4 MSTORE SWAP2 PUSH1 0x20 ADD SWAP2 PUSH2 0x2650 JUMP JUMPDEST DUP3 ADD SWAP2 SWAP1 PUSH0 MSTORE PUSH1 0x20 PUSH0 KECCAK256 SWAP1 JUMPDEST DUP2 SLOAD DUP2 MSTORE SWAP1 PUSH1 0x1 ADD SWAP1 PUSH1 0x20 ADD DUP1 DUP4 GT PUSH2 0x2633 JUMPI DUP3 SWAP1 SUB PUSH1 0x1F AND DUP3 ADD SWAP2 JUMPDEST POP POP POP POP POP SWAP1 POP DUP6 JUMP JUMPDEST PUSH0 PUSH1 0x9 DUP1 SLOAD SWAP1 POP SWAP1 POP SWAP1 JUMP JUMPDEST PUSH1 0x6 DUP2 DUP2 SLOAD DUP2 LT PUSH2 0x2675 JUMPI PUSH0 DUP1 REVERT JUMPDEST SWAP1 PUSH0 MSTORE PUSH1 0x20 PUSH0 KECCAK256 ADD PUSH0 SWAP2 POP SLOAD SWAP1 PUSH2 0x100 EXP SWAP1 DIV PUSH20 0xFFFFFFFFFFFFFFFFFFFFFFFFFFFFFFFFFFFFFFFF AND DUP2 JUMP JUMPDEST PUSH1 0x60 DUP3 DUP3 PUSH1 0x40 MLOAD PUSH1 0x20 ADD PUSH2 0x26B6 SWAP3 SWAP2 SWAP1 PUSH2 0x40E4 JUMP JUMPDEST PUSH1 0x40 MLOAD PUSH1 0x20 DUP2 DUP4 SUB SUB DUP2 MSTORE SWAP1 PUSH1 0x40 MSTORE SWAP1 POP SWAP3 SWAP2 POP POP JUMP JUMPDEST PUSH0 PUSH0 PUSH0 DUP6 DUP5 PUSH1 0x1 PUSH1 0x3 DUP2 GT ISZERO PUSH2 0x26E6 JUMPI PUSH2 0x26E5 PUSH2 0x322F JUMP JUMPDEST JUMPDEST PUSH1 0x4 PUSH0 DUP5 PUSH20 0xFFFFFFFFFFFFFFFFFFFFFFFFFFFFFFFFFFFFFFFF AND PUSH20 0xFFFFFFFFFFFFFFFFFFFFFFFFFFFFFFFFFFFFFFFF AND DUP2 MSTORE PUSH1 0x20 ADD SWAP1 DUP2 MSTORE PUSH1 0x20 ADD PUSH0 KECCAK256 PUSH0 SWAP1 SLOAD SWAP1 PUSH2 0x100 EXP SWAP1 DIV PUSH1 0xFF AND PUSH1 0x3 DUP2 GT ISZERO PUSH2 0x2742 JUMPI PUSH2 0x2741 PUSH2 0x322F JUMP JUMPDEST JUMPDEST EQ PUSH2 0x2782 JUMPI PUSH1 0x40 MLOAD PUSH32 0x8C379A000000000000000000000000000000000000000000000000000000000 DUP2 MSTORE PUSH1 0x4 ADD PUSH2 0x2779 SWAP1 PUSH2 0x396C JUMP JUMPDEST PUSH1 0x40 MLOAD DUP1 SWAP2 SUB SWAP1 REVERT JUMPDEST PUSH1 0x2 PUSH0 DUP4 PUSH20 0xFFFFFFFFFFFFFFFFFFFFFFFFFFFFFFFFFFFFFFFF AND PUSH20 0xFFFFFFFFFFFFFFFFFFFFFFFFFFFFFFFFFFFFFFFF AND DUP2 MSTORE PUSH1 0x20 ADD SWAP1 DUP2 MSTORE PUSH1 0x20 ADD PUSH0 KECCAK256 PUSH0 SWAP1 SLOAD SWAP1 PUSH2 0x100 EXP SWAP1 DIV PUSH1 0xFF AND PUSH2 0x280B JUMPI PUSH1 0x40 MLOAD PUSH32 0x8C379A000000000000000000000000000000000000000000000000000000000 DUP2 MSTORE PUSH1 0x4 ADD PUSH2 0x2802 SWAP1 PUSH2 0x39FA JUMP JUMPDEST PUSH1 0x40 MLOAD DUP1 SWAP2 SUB SWAP1 REVERT JUMPDEST PUSH1 0x1 PUSH1 0x3 DUP2 GT ISZERO PUSH2 0x281F JUMPI PUSH2 0x281E PUSH2 0x322F JUMP JUMPDEST JUMPDEST PUSH1 0x4 PUSH0 DUP11 PUSH20 0xFFFFFFFFFFFFFFFFFFFFFFFFFFFFFFFFFFFFFFFF AND PUSH20 0xFFFFFFFFFFFFFFFFFFFFFFFFFFFFFFFFFFFFFFFF AND DUP2 MSTORE PUSH1 0x20 ADD SWAP1 DUP2 MSTORE PUSH1 0x20 ADD PUSH0 KECCAK256 PUSH0 SWAP1 SLOAD SWAP1 PUSH2 0x100 EXP SWAP1 DIV PUSH1 0xFF AND PUSH1 0x3 DUP2 GT ISZERO PUSH2 0x287B JUMPI PUSH2 0x287A PUSH2 0x322F JUMP JUMPDEST JUMPDEST EQ PUSH2 0x28BB JUMPI PUSH1 0x40 MLOAD PUSH32 0x8C379A000000000000000000000000000000000000000000000000000000000 DUP2 MSTORE PUSH1 0x4 ADD PUSH2 0x28B2 SWAP1 PUSH2 0x3A62 JUMP JUMPDEST PUSH1 0x40 MLOAD DUP1 SWAP2 SUB SWAP1 REVERT JUMPDEST PUSH1 0x1 ISZERO ISZERO PUSH1 0x3 PUSH0 DUP11 PUSH20 0xFFFFFFFFFFFFFFFFFFFFFFFFFFFFFFFFFFFFFFFF AND PUSH20 0xFFFFFFFFFFFFFFFFFFFFFFFFFFFFFFFFFFFFFFFF AND DUP2 MSTORE PUSH1 0x20 ADD SWAP1 DUP2 MSTORE PUSH1 0x20 ADD PUSH0 KECCAK256 PUSH0 PUSH1 0x4 PUSH0 DUP12 PUSH20 0xFFFFFFFFFFFFFFFFFFFFFFFFFFFFFFFFFFFFFFFF AND PUSH20 0xFFFFFFFFFFFFFFFFFFFFFFFFFFFFFFFFFFFFFFFF AND DUP2 MSTORE PUSH1 0x20 ADD SWAP1 DUP2 MSTORE PUSH1 0x20 ADD PUSH0 KECCAK256 PUSH0 SWAP1 SLOAD SWAP1 PUSH2 0x100 EXP SWAP1 DIV PUSH1 0xFF AND PUSH1 0x3 DUP2 GT ISZERO PUSH2 0x2959 JUMPI PUSH2 0x2958 PUSH2 0x322F JUMP JUMPDEST JUMPDEST PUSH1 0x3 DUP2 GT ISZERO PUSH2 0x296B JUMPI PUSH2 0x296A PUSH2 0x322F JUMP JUMPDEST JUMPDEST DUP2 MSTORE PUSH1 0x20 ADD SWAP1 DUP2 MSTORE PUSH1 0x20 ADD PUSH0 KECCAK256 PUSH0 SWAP1 SLOAD SWAP1 PUSH2 0x100 EXP SWAP1 DIV PUSH1 0xFF AND ISZERO ISZERO EQ PUSH2 0x29C7 JUMPI PUSH1 0x40 MLOAD PUSH32 0x8C379A000000000000000000000000000000000000000000000000000000000 DUP2 MSTORE PUSH1 0x4 ADD PUSH2 0x29BE SWAP1 PUSH2 0x416C JUMP JUMPDEST PUSH1 0x40 MLOAD DUP1 SWAP2 SUB SWAP1 REVERT JUMPDEST PUSH1 0x1 ISZERO ISZERO PUSH1 0x5 PUSH0 DUP10 PUSH20 0xFFFFFFFFFFFFFFFFFFFFFFFFFFFFFFFFFFFFFFFF AND PUSH20 0xFFFFFFFFFFFFFFFFFFFFFFFFFFFFFFFFFFFFFFFF AND DUP2 MSTORE PUSH1 0x20 ADD SWAP1 DUP2 MSTORE PUSH1 0x20 ADD PUSH0 KECCAK256 PUSH0 ADD PUSH1 0x14 SWAP1 SLOAD SWAP1 PUSH2 0x100 EXP SWAP1 DIV PUSH1 0xFF AND ISZERO ISZERO EQ PUSH2 0x2A5A JUMPI PUSH1 0x40 MLOAD PUSH32 0x8C379A000000000000000000000000000000000000000000000000000000000 DUP2 MSTORE PUSH1 0x4 ADD PUSH2 0x2A51 SWAP1 PUSH2 0x41FA JUMP JUMPDEST PUSH1 0x40 MLOAD DUP1 SWAP2 SUB SWAP1 REVERT JUMPDEST PUSH0 ISZERO ISZERO PUSH1 0x5 PUSH0 DUP10 PUSH20 0xFFFFFFFFFFFFFFFFFFFFFFFFFFFFFFFFFFFFFFFF AND PUSH20 0xFFFFFFFFFFFFFFFFFFFFFFFFFFFFFFFFFFFFFFFF AND DUP2 MSTORE PUSH1 0x20 ADD SWAP1 DUP2 MSTORE PUSH1 0x20 ADD PUSH0 KECCAK256 PUSH0 ADD PUSH1 0x15 SWAP1 SLOAD SWAP1 PUSH2 0x100 EXP SWAP1 DIV PUSH1 0xFF AND ISZERO ISZERO EQ PUSH2 0x2AEC JUMPI PUSH1 0x40 MLOAD PUSH32 0x8C379A000000000000000000000000000000000000000000000000000000000 DUP2 MSTORE PUSH1 0x4 ADD PUSH2 0x2AE3 SWAP1 PUSH2 0x3DF8 JUMP JUMPDEST PUSH1 0x40 MLOAD DUP1 SWAP2 SUB SWAP1 REVERT JUMPDEST DUP7 PUSH1 0x5 PUSH0 DUP10 PUSH20 0xFFFFFFFFFFFFFFFFFFFFFFFFFFFFFFFFFFFFFFFF AND PUSH20 0xFFFFFFFFFFFFFFFFFFFFFFFFFFFFFFFFFFFFFFFF AND DUP2 MSTORE PUSH1 0x20 ADD SWAP1 DUP2 MSTORE PUSH1 0x20 ADD PUSH0 KECCAK256 PUSH0 ADD PUSH0 PUSH2 0x100 EXP DUP2 SLOAD DUP2 PUSH20 0xFFFFFFFFFFFFFFFFFFFFFFFFFFFFFFFFFFFFFFFF MUL NOT AND SWAP1 DUP4 PUSH20 0xFFFFFFFFFFFFFFFFFFFFFFFFFFFFFFFFFFFFFFFF AND MUL OR SWAP1 SSTORE POP PUSH1 0x4 PUSH0 DUP9 PUSH20 0xFFFFFFFFFFFFFFFFFFFFFFFFFFFFFFFFFFFFFFFF AND PUSH20 0xFFFFFFFFFFFFFFFFFFFFFFFFFFFFFFFFFFFFFFFF AND DUP2 MSTORE PUSH1 0x20 ADD SWAP1 DUP2 MSTORE PUSH1 0x20 ADD PUSH0 KECCAK256 PUSH0 PUSH2 0x100 EXP DUP2 SLOAD SWAP1 PUSH1 0xFF MUL NOT AND SWAP1 SSTORE PUSH0 PUSH1 0x3 PUSH0 DUP11 PUSH20 0xFFFFFFFFFFFFFFFFFFFFFFFFFFFFFFFFFFFFFFFF AND PUSH20 0xFFFFFFFFFFFFFFFFFFFFFFFFFFFFFFFFFFFFFFFF AND DUP2 MSTORE PUSH1 0x20 ADD SWAP1 DUP2 MSTORE PUSH1 0x20 ADD PUSH0 KECCAK256 PUSH0 PUSH1 0x4 PUSH0 DUP12 PUSH20 0xFFFFFFFFFFFFFFFFFFFFFFFFFFFFFFFFFFFFFFFF AND PUSH20 0xFFFFFFFFFFFFFFFFFFFFFFFFFFFFFFFFFFFFFFFF AND DUP2 MSTORE PUSH1 0x20 ADD SWAP1 DUP2 MSTORE PUSH1 0x20 ADD PUSH0 KECCAK256 PUSH0 SWAP1 SLOAD SWAP1 PUSH2 0x100 EXP SWAP1 DIV PUSH1 0xFF AND PUSH1 0x3 DUP2 GT ISZERO PUSH2 0x2C50 JUMPI PUSH2 0x2C4F PUSH2 0x322F JUMP JUMPDEST JUMPDEST PUSH1 0x3 DUP2 GT ISZERO PUSH2 0x2C62 JUMPI PUSH2 0x2C61 PUSH2 0x322F JUMP JUMPDEST JUMPDEST DUP2 MSTORE PUSH1 0x20 ADD SWAP1 DUP2 MSTORE PUSH1 0x20 ADD PUSH0 KECCAK256 PUSH0 PUSH2 0x100 EXP DUP2 SLOAD DUP2 PUSH1 0xFF MUL NOT AND SWAP1 DUP4 ISZERO ISZERO MUL OR SWAP1 SSTORE POP PUSH0 PUSH1 0x5 PUSH0 DUP10 PUSH20 0xFFFFFFFFFFFFFFFFFFFFFFFFFFFFFFFFFFFFFFFF AND PUSH20 0xFFFFFFFFFFFFFFFFFFFFFFFFFFFFFFFFFFFFFFFF AND DUP2 MSTORE PUSH1 0x20 ADD SWAP1 DUP2 MSTORE PUSH1 0x20 ADD PUSH0 KECCAK256 PUSH0 ADD PUSH1 0x14 PUSH2 0x100 EXP DUP2 SLOAD DUP2 PUSH1 0xFF MUL NOT AND SWAP1 DUP4 ISZERO ISZERO MUL OR SWAP1 SSTORE POP PUSH1 0x1 PUSH1 0x5 PUSH0 DUP10 PUSH20 0xFFFFFFFFFFFFFFFFFFFFFFFFFFFFFFFFFFFFFFFF AND PUSH20 0xFFFFFFFFFFFFFFFFFFFFFFFFFFFFFFFFFFFFFFFF AND DUP2 MSTORE PUSH1 0x20 ADD SWAP1 DUP2 MSTORE PUSH1 0x20 ADD PUSH0 KECCAK256 PUSH0 ADD PUSH1 0x15 PUSH2 0x100 EXP DUP2 SLOAD DUP2 PUSH1 0xFF MUL NOT AND SWAP1 DUP4 ISZERO ISZERO MUL OR SWAP1 SSTORE POP PUSH1 0x40 MLOAD DUP1 PUSH1 0x40 ADD PUSH1 0x40 MSTORE DUP1 PUSH1 0x4 DUP2 MSTORE PUSH1 0x20 ADD PUSH32 0x4E6F6E6500000000000000000000000000000000000000000000000000000000 DUP2 MSTORE POP PUSH1 0x5 PUSH0 DUP10 PUSH20 0xFFFFFFFFFFFFFFFFFFFFFFFFFFFFFFFFFFFFFFFF AND PUSH20 0xFFFFFFFFFFFFFFFFFFFFFFFFFFFFFFFFFFFFFFFF AND DUP2 MSTORE PUSH1 0x20 ADD SWAP1 DUP2 MSTORE PUSH1 0x20 ADD PUSH0 KECCAK256 PUSH1 0x1 ADD SWAP1 DUP2 PUSH2 0x2DB6 SWAP2 SWAP1 PUSH2 0x3853 JUMP JUMPDEST POP PUSH0 PUSH1 0x2 PUSH0 DUP10 PUSH20 0xFFFFFFFFFFFFFFFFFFFFFFFFFFFFFFFFFFFFFFFF AND PUSH20 0xFFFFFFFFFFFFFFFFFFFFFFFFFFFFFFFFFFFFFFFF AND DUP2 MSTORE PUSH1 0x20 ADD SWAP1 DUP2 MSTORE PUSH1 0x20 ADD PUSH0 KECCAK256 PUSH0 PUSH2 0x100 EXP DUP2 SLOAD DUP2 PUSH1 0xFF MUL NOT AND SWAP1 DUP4 ISZERO ISZERO MUL OR SWAP1 SSTORE POP PUSH1 0x5 PUSH0 DUP9 PUSH20 0xFFFFFFFFFFFFFFFFFFFFFFFFFFFFFFFFFFFFFFFF AND PUSH20 0xFFFFFFFFFFFFFFFFFFFFFFFFFFFFFFFFFFFFFFFF AND DUP2 MSTORE PUSH1 0x20 ADD SWAP1 DUP2 MSTORE PUSH1 0x20 ADD PUSH0 KECCAK256 PUSH0 ADD PUSH1 0x16 PUSH2 0x100 EXP DUP2 SLOAD SWAP1 PUSH1 0xFF MUL NOT AND SWAP1 SSTORE POP POP SWAP4 POP SWAP4 POP SWAP4 SWAP1 POP JUMP JUMPDEST PUSH1 0x40 MLOAD DUP1 PUSH1 0x20 ADD PUSH1 0x40 MSTORE DUP1 PUSH1 0x60 DUP2 MSTORE POP SWAP1 JUMP JUMPDEST PUSH0 PUSH1 0x40 MLOAD SWAP1 POP SWAP1 JUMP JUMPDEST PUSH0 PUSH0 REVERT JUMPDEST PUSH0 PUSH0 REVERT JUMPDEST PUSH0 DUP2 SWAP1 POP SWAP2 SWAP1 POP JUMP JUMPDEST PUSH2 0x2E9B DUP2 PUSH2 0x2E89 JUMP JUMPDEST DUP2 EQ PUSH2 0x2EA5 JUMPI PUSH0 PUSH0 REVERT JUMPDEST POP JUMP JUMPDEST PUSH0 DUP2 CALLDATALOAD SWAP1 POP PUSH2 0x2EB6 DUP2 PUSH2 0x2E92 JUMP JUMPDEST SWAP3 SWAP2 POP POP JUMP JUMPDEST PUSH0 PUSH0 REVERT JUMPDEST PUSH0 PUSH0 REVERT JUMPDEST PUSH0 PUSH1 0x1F NOT PUSH1 0x1F DUP4 ADD AND SWAP1 POP SWAP2 SWAP1 POP JUMP JUMPDEST PUSH32 0x4E487B7100000000000000000000000000000000000000000000000000000000 PUSH0 MSTORE PUSH1 0x41 PUSH1 0x4 MSTORE PUSH1 0x24 PUSH0 REVERT JUMPDEST PUSH2 0x2F0A DUP3 PUSH2 0x2EC4 JUMP JUMPDEST DUP2 ADD DUP2 DUP2 LT PUSH8 0xFFFFFFFFFFFFFFFF DUP3 GT OR ISZERO PUSH2 0x2F29 JUMPI PUSH2 0x2F28 PUSH2 0x2ED4 JUMP JUMPDEST JUMPDEST DUP1 PUSH1 0x40 MSTORE POP POP POP JUMP JUMPDEST PUSH0 PUSH2 0x2F3B PUSH2 0x2E78 JUMP JUMPDEST SWAP1 POP PUSH2 0x2F47 DUP3 DUP3 PUSH2 0x2F01 JUMP JUMPDEST SWAP2 SWAP1 POP JUMP JUMPDEST PUSH0 PUSH8 0xFFFFFFFFFFFFFFFF DUP3 GT ISZERO PUSH2 0x2F66 JUMPI PUSH2 0x2F65 PUSH2 0x2ED4 JUMP JUMPDEST JUMPDEST PUSH2 0x2F6F DUP3 PUSH2 0x2EC4 JUMP JUMPDEST SWAP1 POP PUSH1 0x20 DUP2 ADD SWAP1 POP SWAP2 SWAP1 POP JUMP JUMPDEST DUP3 DUP2 DUP4 CALLDATACOPY PUSH0 DUP4 DUP4 ADD MSTORE POP POP POP JUMP JUMPDEST PUSH0 PUSH2 0x2F9C PUSH2 0x2F97 DUP5 PUSH2 0x2F4C JUMP JUMPDEST PUSH2 0x2F32 JUMP JUMPDEST SWAP1 POP DUP3 DUP2 MSTORE PUSH1 0x20 DUP2 ADD DUP5 DUP5 DUP5 ADD GT ISZERO PUSH2 0x2FB8 JUMPI PUSH2 0x2FB7 PUSH2 0x2EC0 JUMP JUMPDEST JUMPDEST PUSH2 0x2FC3 DUP5 DUP3 DUP6 PUSH2 0x2F7C JUMP JUMPDEST POP SWAP4 SWAP3 POP POP POP JUMP JUMPDEST PUSH0 DUP3 PUSH1 0x1F DUP4 ADD SLT PUSH2 0x2FDF JUMPI PUSH2 0x2FDE PUSH2 0x2EBC JUMP JUMPDEST JUMPDEST DUP2 CALLDATALOAD PUSH2 0x2FEF DUP5 DUP3 PUSH1 0x20 DUP7 ADD PUSH2 0x2F8A JUMP JUMPDEST SWAP2 POP POP SWAP3 SWAP2 POP POP JUMP JUMPDEST PUSH0 PUSH0 PUSH1 0x40 DUP4 DUP6 SUB SLT ISZERO PUSH2 0x300E JUMPI PUSH2 0x300D PUSH2 0x2E81 JUMP JUMPDEST JUMPDEST PUSH0 PUSH2 0x301B DUP6 DUP3 DUP7 ADD PUSH2 0x2EA8 JUMP JUMPDEST SWAP3 POP POP PUSH1 0x20 DUP4 ADD CALLDATALOAD PUSH8 0xFFFFFFFFFFFFFFFF DUP2 GT ISZERO PUSH2 0x303C JUMPI PUSH2 0x303B PUSH2 0x2E85 JUMP JUMPDEST JUMPDEST PUSH2 0x3048 DUP6 DUP3 DUP7 ADD PUSH2 0x2FCB JUMP JUMPDEST SWAP2 POP POP SWAP3 POP SWAP3 SWAP1 POP JUMP JUMPDEST PUSH0 DUP2 MLOAD SWAP1 POP SWAP2 SWAP1 POP JUMP JUMPDEST PUSH0 DUP3 DUP3 MSTORE PUSH1 0x20 DUP3 ADD SWAP1 POP SWAP3 SWAP2 POP POP JUMP JUMPDEST DUP3 DUP2 DUP4 MCOPY PUSH0 DUP4 DUP4 ADD MSTORE POP POP POP JUMP JUMPDEST PUSH0 PUSH2 0x3084 DUP3 PUSH2 0x3052 JUMP JUMPDEST PUSH2 0x308E DUP2 DUP6 PUSH2 0x305C JUMP JUMPDEST SWAP4 POP PUSH2 0x309E DUP2 DUP6 PUSH1 0x20 DUP7 ADD PUSH2 0x306C JUMP JUMPDEST PUSH2 0x30A7 DUP2 PUSH2 0x2EC4 JUMP JUMPDEST DUP5 ADD SWAP2 POP POP SWAP3 SWAP2 POP POP JUMP JUMPDEST PUSH0 PUSH1 0x20 DUP4 ADD PUSH0 DUP4 ADD MLOAD DUP5 DUP3 SUB PUSH0 DUP7 ADD MSTORE PUSH2 0x30CC DUP3 DUP3 PUSH2 0x307A JUMP JUMPDEST SWAP2 POP POP DUP1 SWAP2 POP POP SWAP3 SWAP2 POP POP JUMP JUMPDEST PUSH2 0x30E2 DUP2 PUSH2 0x2E89 JUMP JUMPDEST DUP3 MSTORE POP POP JUMP JUMPDEST PUSH0 PUSH1 0x40 DUP3 ADD SWAP1 POP DUP2 DUP2 SUB PUSH0 DUP4 ADD MSTORE PUSH2 0x3100 DUP2 DUP6 PUSH2 0x30B2 JUMP JUMPDEST SWAP1 POP PUSH2 0x310F PUSH1 0x20 DUP4 ADD DUP5 PUSH2 0x30D9 JUMP JUMPDEST SWAP4 SWAP3 POP POP POP JUMP JUMPDEST PUSH0 PUSH20 0xFFFFFFFFFFFFFFFFFFFFFFFFFFFFFFFFFFFFFFFF DUP3 AND SWAP1 POP SWAP2 SWAP1 POP JUMP JUMPDEST PUSH0 PUSH2 0x313F DUP3 PUSH2 0x3116 JUMP JUMPDEST SWAP1 POP SWAP2 SWAP1 POP JUMP JUMPDEST PUSH2 0x314F DUP2 PUSH2 0x3135 JUMP JUMPDEST DUP2 EQ PUSH2 0x3159 JUMPI PUSH0 PUSH0 REVERT JUMPDEST POP JUMP JUMPDEST PUSH0 DUP2 CALLDATALOAD SWAP1 POP PUSH2 0x316A DUP2 PUSH2 0x3146 JUMP JUMPDEST SWAP3 SWAP2 POP POP JUMP JUMPDEST PUSH1 0x4 DUP2 LT PUSH2 0x317C JUMPI PUSH0 PUSH0 REVERT JUMPDEST POP JUMP JUMPDEST PUSH0 DUP2 CALLDATALOAD SWAP1 POP PUSH2 0x318D DUP2 PUSH2 0x3170 JUMP JUMPDEST SWAP3 SWAP2 POP POP JUMP JUMPDEST PUSH0 PUSH0 PUSH1 0x40 DUP4 DUP6 SUB SLT ISZERO PUSH2 0x31A9 JUMPI PUSH2 0x31A8 PUSH2 0x2E81 JUMP JUMPDEST JUMPDEST PUSH0 PUSH2 0x31B6 DUP6 DUP3 DUP7 ADD PUSH2 0x315C JUMP JUMPDEST SWAP3 POP POP PUSH1 0x20 PUSH2 0x31C7 DUP6 DUP3 DUP7 ADD PUSH2 0x317F JUMP JUMPDEST SWAP2 POP POP SWAP3 POP SWAP3 SWAP1 POP JUMP JUMPDEST PUSH0 DUP2 ISZERO ISZERO SWAP1 POP SWAP2 SWAP1 POP JUMP JUMPDEST PUSH2 0x31E5 DUP2 PUSH2 0x31D1 JUMP JUMPDEST DUP3 MSTORE POP POP JUMP JUMPDEST PUSH0 PUSH1 0x20 DUP3 ADD SWAP1 POP PUSH2 0x31FE PUSH0 DUP4 ADD DUP5 PUSH2 0x31DC JUMP JUMPDEST SWAP3 SWAP2 POP POP JUMP JUMPDEST PUSH0 PUSH1 0x20 DUP3 DUP5 SUB SLT ISZERO PUSH2 0x3219 JUMPI PUSH2 0x3218 PUSH2 0x2E81 JUMP JUMPDEST JUMPDEST PUSH0 PUSH2 0x3226 DUP5 DUP3 DUP6 ADD PUSH2 0x315C JUMP JUMPDEST SWAP2 POP POP SWAP3 SWAP2 POP POP JUMP JUMPDEST PUSH32 0x4E487B7100000000000000000000000000000000000000000000000000000000 PUSH0 MSTORE PUSH1 0x21 PUSH1 0x4 MSTORE PUSH1 0x24 PUSH0 REVERT JUMPDEST PUSH1 0x4 DUP2 LT PUSH2 0x326D JUMPI PUSH2 0x326C PUSH2 0x322F JUMP JUMPDEST JUMPDEST POP JUMP JUMPDEST PUSH0 DUP2 SWAP1 POP PUSH2 0x327D DUP3 PUSH2 0x325C JUMP JUMPDEST SWAP2 SWAP1 POP JUMP JUMPDEST PUSH0 PUSH2 0x328C DUP3 PUSH2 0x3270 JUMP JUMPDEST SWAP1 POP SWAP2 SWAP1 POP JUMP JUMPDEST PUSH2 0x329C DUP2 PUSH2 0x3282 JUMP JUMPDEST DUP3 MSTORE POP POP JUMP JUMPDEST PUSH0 PUSH1 0x20 DUP3 ADD SWAP1 POP PUSH2 0x32B5 PUSH0 DUP4 ADD DUP5 PUSH2 0x3293 JUMP JUMPDEST SWAP3 SWAP2 POP POP JUMP JUMPDEST PUSH0 PUSH1 0x20 DUP3 DUP5 SUB SLT ISZERO PUSH2 0x32D0 JUMPI PUSH2 0x32CF PUSH2 0x2E81 JUMP JUMPDEST JUMPDEST PUSH0 PUSH2 0x32DD DUP5 DUP3 DUP6 ADD PUSH2 0x2EA8 JUMP JUMPDEST SWAP2 POP POP SWAP3 SWAP2 POP POP JUMP JUMPDEST PUSH0 PUSH1 0x20 DUP3 ADD SWAP1 POP PUSH2 0x32F9 PUSH0 DUP4 ADD DUP5 PUSH2 0x30D9 JUMP JUMPDEST SWAP3 SWAP2 POP POP JUMP JUMPDEST PUSH0 DUP3 DUP3 MSTORE PUSH1 0x20 DUP3 ADD SWAP1 POP SWAP3 SWAP2 POP POP JUMP JUMPDEST PUSH0 PUSH2 0x3319 DUP3 PUSH2 0x3052 JUMP JUMPDEST PUSH2 0x3323 DUP2 DUP6 PUSH2 0x32FF JUMP JUMPDEST SWAP4 POP PUSH2 0x3333 DUP2 DUP6 PUSH1 0x20 DUP7 ADD PUSH2 0x306C JUMP JUMPDEST PUSH2 0x333C DUP2 PUSH2 0x2EC4 JUMP JUMPDEST DUP5 ADD SWAP2 POP POP SWAP3 SWAP2 POP POP JUMP JUMPDEST PUSH0 PUSH1 0x20 DUP3 ADD SWAP1 POP DUP2 DUP2 SUB PUSH0 DUP4 ADD MSTORE PUSH2 0x335F DUP2 DUP5 PUSH2 0x330F JUMP JUMPDEST SWAP1 POP SWAP3 SWAP2 POP POP JUMP JUMPDEST PUSH0 PUSH0 PUSH0 PUSH1 0x60 DUP5 DUP7 SUB SLT ISZERO PUSH2 0x337E JUMPI PUSH2 0x337D PUSH2 0x2E81 JUMP JUMPDEST JUMPDEST PUSH0 PUSH2 0x338B DUP7 DUP3 DUP8 ADD PUSH2 0x315C JUMP JUMPDEST SWAP4 POP POP PUSH1 0x20 PUSH2 0x339C DUP7 DUP3 DUP8 ADD PUSH2 0x315C JUMP JUMPDEST SWAP3 POP POP PUSH1 0x40 PUSH2 0x33AD DUP7 DUP3 DUP8 ADD PUSH2 0x317F JUMP JUMPDEST SWAP2 POP POP SWAP3 POP SWAP3 POP SWAP3 JUMP JUMPDEST PUSH2 0x33C0 DUP2 PUSH2 0x3135 JUMP JUMPDEST DUP3 MSTORE POP POP JUMP JUMPDEST PUSH0 PUSH1 0x60 DUP3 ADD SWAP1 POP PUSH2 0x33D9 PUSH0 DUP4 ADD DUP7 PUSH2 0x33B7 JUMP JUMPDEST PUSH2 0x33E6 PUSH1 0x20 DUP4 ADD DUP6 PUSH2 0x3293 JUMP JUMPDEST PUSH2 0x33F3 PUSH1 0x40 DUP4 ADD DUP5 PUSH2 0x31DC JUMP JUMPDEST SWAP5 SWAP4 POP POP POP POP JUMP JUMPDEST PUSH0 PUSH1 0x80 DUP3 ADD SWAP1 POP PUSH2 0x340E PUSH0 DUP4 ADD DUP8 PUSH2 0x3293 JUMP JUMPDEST PUSH2 0x341B PUSH1 0x20 DUP4 ADD DUP7 PUSH2 0x33B7 JUMP JUMPDEST PUSH2 0x3428 PUSH1 0x40 DUP4 ADD DUP6 PUSH2 0x31DC JUMP JUMPDEST DUP2 DUP2 SUB PUSH1 0x60 DUP4 ADD MSTORE PUSH2 0x343A DUP2 DUP5 PUSH2 0x330F JUMP JUMPDEST SWAP1 POP SWAP6 SWAP5 POP POP POP POP POP JUMP JUMPDEST PUSH1 0x3 DUP2 LT PUSH2 0x3456 JUMPI PUSH2 0x3455 PUSH2 0x322F JUMP JUMPDEST JUMPDEST POP JUMP JUMPDEST PUSH0 DUP2 SWAP1 POP PUSH2 0x3466 DUP3 PUSH2 0x3445 JUMP JUMPDEST SWAP2 SWAP1 POP JUMP JUMPDEST PUSH0 PUSH2 0x3475 DUP3 PUSH2 0x3459 JUMP JUMPDEST SWAP1 POP SWAP2 SWAP1 POP JUMP JUMPDEST PUSH2 0x3485 DUP2 PUSH2 0x346B JUMP JUMPDEST DUP3 MSTORE POP POP JUMP JUMPDEST PUSH0 PUSH1 0x20 DUP3 ADD SWAP1 POP PUSH2 0x349E PUSH0 DUP4 ADD DUP5 PUSH2 0x347C JUMP JUMPDEST SWAP3 SWAP2 POP POP JUMP JUMPDEST PUSH0 PUSH1 0xA0 DUP3 ADD SWAP1 POP PUSH2 0x34B7 PUSH0 DUP4 ADD DUP9 PUSH2 0x33B7 JUMP JUMPDEST PUSH2 0x34C4 PUSH1 0x20 DUP4 ADD DUP8 PUSH2 0x31DC JUMP JUMPDEST PUSH2 0x34D1 PUSH1 0x40 DUP4 ADD DUP7 PUSH2 0x31DC JUMP JUMPDEST PUSH2 0x34DE PUSH1 0x60 DUP4 ADD DUP6 PUSH2 0x3293 JUMP JUMPDEST DUP2 DUP2 SUB PUSH1 0x80 DUP4 ADD MSTORE PUSH2 0x34F0 DUP2 DUP5 PUSH2 0x330F JUMP JUMPDEST SWAP1 POP SWAP7 SWAP6 POP POP POP POP POP POP JUMP JUMPDEST PUSH0 PUSH1 0x40 DUP3 ADD SWAP1 POP PUSH2 0x350F PUSH0 DUP4 ADD DUP6 PUSH2 0x30D9 JUMP JUMPDEST PUSH2 0x351C PUSH1 0x20 DUP4 ADD DUP5 PUSH2 0x347C JUMP JUMPDEST SWAP4 SWAP3 POP POP POP JUMP JUMPDEST PUSH0 PUSH1 0x20 DUP3 ADD SWAP1 POP PUSH2 0x3536 PUSH0 DUP4 ADD DUP5 PUSH2 0x33B7 JUMP JUMPDEST SWAP3 SWAP2 POP POP JUMP JUMPDEST PUSH0 PUSH0 REVERT JUMPDEST PUSH0 PUSH0 REVERT JUMPDEST PUSH0 PUSH0 DUP4 PUSH1 0x1F DUP5 ADD SLT PUSH2 0x3559 JUMPI PUSH2 0x3558 PUSH2 0x2EBC JUMP JUMPDEST JUMPDEST DUP3 CALLDATALOAD SWAP1 POP PUSH8 0xFFFFFFFFFFFFFFFF DUP2 GT ISZERO PUSH2 0x3576 JUMPI PUSH2 0x3575 PUSH2 0x353C JUMP JUMPDEST JUMPDEST PUSH1 0x20 DUP4 ADD SWAP2 POP DUP4 PUSH1 0x1 DUP3 MUL DUP4 ADD GT ISZERO PUSH2 0x3592 JUMPI PUSH2 0x3591 PUSH2 0x3540 JUMP JUMPDEST JUMPDEST SWAP3 POP SWAP3 SWAP1 POP JUMP JUMPDEST PUSH0 PUSH0 PUSH1 0x20 DUP4 DUP6 SUB SLT ISZERO PUSH2 0x35AF JUMPI PUSH2 0x35AE PUSH2 0x2E81 JUMP JUMPDEST JUMPDEST PUSH0 DUP4 ADD CALLDATALOAD PUSH8 0xFFFFFFFFFFFFFFFF DUP2 GT ISZERO PUSH2 0x35CC JUMPI PUSH2 0x35CB PUSH2 0x2E85 JUMP JUMPDEST JUMPDEST PUSH2 0x35D8 DUP6 DUP3 DUP7 ADD PUSH2 0x3544 JUMP JUMPDEST SWAP3 POP SWAP3 POP POP SWAP3 POP SWAP3 SWAP1 POP JUMP JUMPDEST PUSH0 DUP2 MLOAD SWAP1 POP SWAP2 SWAP1 POP JUMP JUMPDEST PUSH0 DUP3 DUP3 MSTORE PUSH1 0x20 DUP3 ADD SWAP1 POP SWAP3 SWAP2 POP POP JUMP JUMPDEST PUSH0 PUSH2 0x3608 DUP3 PUSH2 0x35E4 JUMP JUMPDEST PUSH2 0x3612 DUP2 DUP6 PUSH2 0x35EE JUMP JUMPDEST SWAP4 POP PUSH2 0x3622 DUP2 DUP6 PUSH1 0x20 DUP7 ADD PUSH2 0x306C JUMP JUMPDEST PUSH2 0x362B DUP2 PUSH2 0x2EC4 JUMP JUMPDEST DUP5 ADD SWAP2 POP POP SWAP3 SWAP2 POP POP JUMP JUMPDEST PUSH0 PUSH1 0x20 DUP3 ADD SWAP1 POP DUP2 DUP2 SUB PUSH0 DUP4 ADD MSTORE PUSH2 0x364E DUP2 DUP5 PUSH2 0x35FE JUMP JUMPDEST SWAP1 POP SWAP3 SWAP2 POP POP JUMP JUMPDEST PUSH32 0x4E487B7100000000000000000000000000000000000000000000000000000000 PUSH0 MSTORE PUSH1 0x22 PUSH1 0x4 MSTORE PUSH1 0x24 PUSH0 REVERT JUMPDEST PUSH0 PUSH1 0x2 DUP3 DIV SWAP1 POP PUSH1 0x1 DUP3 AND DUP1 PUSH2 0x369A JUMPI PUSH1 0x7F DUP3 AND SWAP2 POP JUMPDEST PUSH1 0x20 DUP3 LT DUP2 SUB PUSH2 0x36AD JUMPI PUSH2 0x36AC PUSH2 0x3656 JUMP JUMPDEST JUMPDEST POP SWAP2 SWAP1 POP JUMP JUMPDEST PUSH0 DUP2 SWAP1 POP DUP2 PUSH0 MSTORE PUSH1 0x20 PUSH0 KECCAK256 SWAP1 POP SWAP2 SWAP1 POP JUMP JUMPDEST PUSH0 PUSH1 0x20 PUSH1 0x1F DUP4 ADD DIV SWAP1 POP SWAP2 SWAP1 POP JUMP JUMPDEST PUSH0 DUP3 DUP3 SHL SWAP1 POP SWAP3 SWAP2 POP POP JUMP JUMPDEST PUSH0 PUSH1 0x8 DUP4 MUL PUSH2 0x370F PUSH32 0xFFFFFFFFFFFFFFFFFFFFFFFFFFFFFFFFFFFFFFFFFFFFFFFFFFFFFFFFFFFFFFFF DUP3 PUSH2 0x36D4 JUMP JUMPDEST PUSH2 0x3719 DUP7 DUP4 PUSH2 0x36D4 JUMP JUMPDEST SWAP6 POP DUP1 NOT DUP5 AND SWAP4 POP DUP1 DUP7 AND DUP5 OR SWAP3 POP POP POP SWAP4 SWAP3 POP POP POP JUMP JUMPDEST PUSH0 DUP2 SWAP1 POP SWAP2 SWAP1 POP JUMP JUMPDEST PUSH0 PUSH2 0x3754 PUSH2 0x374F PUSH2 0x374A DUP5 PUSH2 0x2E89 JUMP JUMPDEST PUSH2 0x3731 JUMP JUMPDEST PUSH2 0x2E89 JUMP JUMPDEST SWAP1 POP SWAP2 SWAP1 POP JUMP JUMPDEST PUSH0 DUP2 SWAP1 POP SWAP2 SWAP1 POP JUMP JUMPDEST PUSH2 0x376D DUP4 PUSH2 0x373A JUMP JUMPDEST PUSH2 0x3781 PUSH2 0x3779 DUP3 PUSH2 0x375B JUMP JUMPDEST DUP5 DUP5 SLOAD PUSH2 0x36E0 JUMP JUMPDEST DUP3 SSTORE POP POP POP POP JUMP JUMPDEST PUSH0 PUSH0 SWAP1 POP SWAP1 JUMP JUMPDEST PUSH2 0x3798 PUSH2 0x3789 JUMP JUMPDEST PUSH2 0x37A3 DUP2 DUP5 DUP5 PUSH2 0x3764 JUMP JUMPDEST POP POP POP JUMP JUMPDEST JUMPDEST DUP2 DUP2 LT ISZERO PUSH2 0x37C6 JUMPI PUSH2 0x37BB PUSH0 DUP3 PUSH2 0x3790 JUMP JUMPDEST PUSH1 0x1 DUP2 ADD SWAP1 POP PUSH2 0x37A9 JUMP JUMPDEST POP POP JUMP JUMPDEST PUSH1 0x1F DUP3 GT ISZERO PUSH2 0x380B JUMPI PUSH2 0x37DC DUP2 PUSH2 0x36B3 JUMP JUMPDEST PUSH2 0x37E5 DUP5 PUSH2 0x36C5 JUMP JUMPDEST DUP2 ADD PUSH1 0x20 DUP6 LT ISZERO PUSH2 0x37F4 JUMPI DUP2 SWAP1 POP JUMPDEST PUSH2 0x3808 PUSH2 0x3800 DUP6 PUSH2 0x36C5 JUMP JUMPDEST DUP4 ADD DUP3 PUSH2 0x37A8 JUMP JUMPDEST POP POP JUMPDEST POP POP POP JUMP JUMPDEST PUSH0 DUP3 DUP3 SHR SWAP1 POP SWAP3 SWAP2 POP POP JUMP JUMPDEST PUSH0 PUSH2 0x382B PUSH0 NOT DUP5 PUSH1 0x8 MUL PUSH2 0x3810 JUMP JUMPDEST NOT DUP1 DUP4 AND SWAP2 POP POP SWAP3 SWAP2 POP POP JUMP JUMPDEST PUSH0 PUSH2 0x3843 DUP4 DUP4 PUSH2 0x381C JUMP JUMPDEST SWAP2 POP DUP3 PUSH1 0x2 MUL DUP3 OR SWAP1 POP SWAP3 SWAP2 POP POP JUMP JUMPDEST PUSH2 0x385C DUP3 PUSH2 0x3052 JUMP JUMPDEST PUSH8 0xFFFFFFFFFFFFFFFF DUP2 GT ISZERO PUSH2 0x3875 JUMPI PUSH2 0x3874 PUSH2 0x2ED4 JUMP JUMPDEST JUMPDEST PUSH2 0x387F DUP3 SLOAD PUSH2 0x3683 JUMP JUMPDEST PUSH2 0x388A DUP3 DUP3 DUP6 PUSH2 0x37CA JUMP JUMPDEST PUSH0 PUSH1 0x20 SWAP1 POP PUSH1 0x1F DUP4 GT PUSH1 0x1 DUP2 EQ PUSH2 0x38BB JUMPI PUSH0 DUP5 ISZERO PUSH2 0x38A9 JUMPI DUP3 DUP8 ADD MLOAD SWAP1 POP JUMPDEST PUSH2 0x38B3 DUP6 DUP3 PUSH2 0x3838 JUMP JUMPDEST DUP7 SSTORE POP PUSH2 0x391A JUMP JUMPDEST PUSH1 0x1F NOT DUP5 AND PUSH2 0x38C9 DUP7 PUSH2 0x36B3 JUMP JUMPDEST PUSH0 JUMPDEST DUP3 DUP2 LT ISZERO PUSH2 0x38F0 JUMPI DUP5 DUP10 ADD MLOAD DUP3 SSTORE PUSH1 0x1 DUP3 ADD SWAP2 POP PUSH1 0x20 DUP6 ADD SWAP5 POP PUSH1 0x20 DUP2 ADD SWAP1 POP PUSH2 0x38CB JUMP JUMPDEST DUP7 DUP4 LT ISZERO PUSH2 0x390D JUMPI DUP5 DUP10 ADD MLOAD PUSH2 0x3909 PUSH1 0x1F DUP10 AND DUP3 PUSH2 0x381C JUMP JUMPDEST DUP4 SSTORE POP JUMPDEST PUSH1 0x1 PUSH1 0x2 DUP9 MUL ADD DUP9 SSTORE POP POP POP JUMPDEST POP POP POP POP POP POP JUMP JUMPDEST PUSH32 0x4F6E792061646D696E6973747261746F722063616E2063616C6C000000000000 PUSH0 DUP3 ADD MSTORE POP JUMP JUMPDEST PUSH0 PUSH2 0x3956 PUSH1 0x1A DUP4 PUSH2 0x32FF JUMP JUMPDEST SWAP2 POP PUSH2 0x3961 DUP3 PUSH2 0x3922 JUMP JUMPDEST PUSH1 0x20 DUP3 ADD SWAP1 POP SWAP2 SWAP1 POP JUMP JUMPDEST PUSH0 PUSH1 0x20 DUP3 ADD SWAP1 POP DUP2 DUP2 SUB PUSH0 DUP4 ADD MSTORE PUSH2 0x3983 DUP2 PUSH2 0x394A JUMP JUMPDEST SWAP1 POP SWAP2 SWAP1 POP JUMP JUMPDEST PUSH32 0x4F6E6C792041646D696E732043616E2043616C6C20546869732046756E637469 PUSH0 DUP3 ADD MSTORE PUSH32 0x6F6E000000000000000000000000000000000000000000000000000000000000 PUSH1 0x20 DUP3 ADD MSTORE POP JUMP JUMPDEST PUSH0 PUSH2 0x39E4 PUSH1 0x22 DUP4 PUSH2 0x32FF JUMP JUMPDEST SWAP2 POP PUSH2 0x39EF DUP3 PUSH2 0x398A JUMP JUMPDEST PUSH1 0x40 DUP3 ADD SWAP1 POP SWAP2 SWAP1 POP JUMP JUMPDEST PUSH0 PUSH1 0x20 DUP3 ADD SWAP1 POP DUP2 DUP2 SUB PUSH0 DUP4 ADD MSTORE PUSH2 0x3A11 DUP2 PUSH2 0x39D8 JUMP JUMPDEST SWAP1 POP SWAP2 SWAP1 POP JUMP JUMPDEST PUSH32 0x4F6E6C792061646D696E6973747261746F722063616E2063616C6C0000000000 PUSH0 DUP3 ADD MSTORE POP JUMP JUMPDEST PUSH0 PUSH2 0x3A4C PUSH1 0x1B DUP4 PUSH2 0x32FF JUMP JUMPDEST SWAP2 POP PUSH2 0x3A57 DUP3 PUSH2 0x3A18 JUMP JUMPDEST PUSH1 0x20 DUP3 ADD SWAP1 POP SWAP2 SWAP1 POP JUMP JUMPDEST PUSH0 PUSH1 0x20 DUP3 ADD SWAP1 POP DUP2 DUP2 SUB PUSH0 DUP4 ADD MSTORE PUSH2 0x3A79 DUP2 PUSH2 0x3A40 JUMP JUMPDEST SWAP1 POP SWAP2 SWAP1 POP JUMP JUMPDEST PUSH32 0x5061757365722043616E204E6F74204772616E742048696D73656C6620526F6C PUSH0 DUP3 ADD MSTORE PUSH32 0x6500000000000000000000000000000000000000000000000000000000000000 PUSH1 0x20 DUP3 ADD MSTORE POP JUMP JUMPDEST PUSH0 PUSH2 0x3ADA PUSH1 0x21 DUP4 PUSH2 0x32FF JUMP JUMPDEST SWAP2 POP PUSH2 0x3AE5 DUP3 PUSH2 0x3A80 JUMP JUMPDEST PUSH1 0x40 DUP3 ADD SWAP1 POP SWAP2 SWAP1 POP JUMP JUMPDEST PUSH0 PUSH1 0x20 DUP3 ADD SWAP1 POP DUP2 DUP2 SUB PUSH0 DUP4 ADD MSTORE PUSH2 0x3B07 DUP2 PUSH2 0x3ACE JUMP JUMPDEST SWAP1 POP SWAP2 SWAP1 POP JUMP JUMPDEST PUSH32 0x416C7265616479204772616E746564205468697320526F6C6500000000000000 PUSH0 DUP3 ADD MSTORE POP JUMP JUMPDEST PUSH0 PUSH2 0x3B42 PUSH1 0x19 DUP4 PUSH2 0x32FF JUMP JUMPDEST SWAP2 POP PUSH2 0x3B4D DUP3 PUSH2 0x3B0E JUMP JUMPDEST PUSH1 0x20 DUP3 ADD SWAP1 POP SWAP2 SWAP1 POP JUMP JUMPDEST PUSH0 PUSH1 0x20 DUP3 ADD SWAP1 POP DUP2 DUP2 SUB PUSH0 DUP4 ADD MSTORE PUSH2 0x3B6F DUP2 PUSH2 0x3B36 JUMP JUMPDEST SWAP1 POP SWAP2 SWAP1 POP JUMP JUMPDEST PUSH32 0x4772616E742068617320616C7265616479206265656E20676976656E3B206974 PUSH0 DUP3 ADD MSTORE PUSH32 0x2063616E206F6E6C79206265206772616E746564206F6E636500000000000000 PUSH1 0x20 DUP3 ADD MSTORE POP JUMP JUMPDEST PUSH0 PUSH2 0x3BD0 PUSH1 0x39 DUP4 PUSH2 0x32FF JUMP JUMPDEST SWAP2 POP PUSH2 0x3BDB DUP3 PUSH2 0x3B76 JUMP JUMPDEST PUSH1 0x40 DUP3 ADD SWAP1 POP SWAP2 SWAP1 POP JUMP JUMPDEST PUSH0 PUSH1 0x20 DUP3 ADD SWAP1 POP DUP2 DUP2 SUB PUSH0 DUP4 ADD MSTORE PUSH2 0x3BFD DUP2 PUSH2 0x3BC4 JUMP JUMPDEST SWAP1 POP SWAP2 SWAP1 POP JUMP JUMPDEST PUSH32 0x43616C6C6572206973206E6F7420612070617573657200000000000000000000 PUSH0 DUP3 ADD MSTORE POP JUMP JUMPDEST PUSH0 PUSH2 0x3C38 PUSH1 0x16 DUP4 PUSH2 0x32FF JUMP JUMPDEST SWAP2 POP PUSH2 0x3C43 DUP3 PUSH2 0x3C04 JUMP JUMPDEST PUSH1 0x20 DUP3 ADD SWAP1 POP SWAP2 SWAP1 POP JUMP JUMPDEST PUSH0 PUSH1 0x20 DUP3 ADD SWAP1 POP DUP2 DUP2 SUB PUSH0 DUP4 ADD MSTORE PUSH2 0x3C65 DUP2 PUSH2 0x3C2C JUMP JUMPDEST SWAP1 POP SWAP2 SWAP1 POP JUMP JUMPDEST PUSH32 0x43616C6C657220646F6573206E6F7420686176652070617573657220726F6C65 PUSH0 DUP3 ADD MSTORE PUSH32 0x206772616E7465642062792061646D696E000000000000000000000000000000 PUSH1 0x20 DUP3 ADD MSTORE POP JUMP JUMPDEST PUSH0 PUSH2 0x3CC6 PUSH1 0x31 DUP4 PUSH2 0x32FF JUMP JUMPDEST SWAP2 POP PUSH2 0x3CD1 DUP3 PUSH2 0x3C6C JUMP JUMPDEST PUSH1 0x40 DUP3 ADD SWAP1 POP SWAP2 SWAP1 POP JUMP JUMPDEST PUSH0 PUSH1 0x20 DUP3 ADD SWAP1 POP DUP2 DUP2 SUB PUSH0 DUP4 ADD MSTORE PUSH2 0x3CF3 DUP2 PUSH2 0x3CBA JUMP JUMPDEST SWAP1 POP SWAP2 SWAP1 POP JUMP JUMPDEST PUSH32 0x5468652070617573657220726F6C6520686173206E65766572206265656E2067 PUSH0 DUP3 ADD MSTORE PUSH32 0x72616E7465640000000000000000000000000000000000000000000000000000 PUSH1 0x20 DUP3 ADD MSTORE POP JUMP JUMPDEST PUSH0 PUSH2 0x3D54 PUSH1 0x26 DUP4 PUSH2 0x32FF JUMP JUMPDEST SWAP2 POP PUSH2 0x3D5F DUP3 PUSH2 0x3CFA JUMP JUMPDEST PUSH1 0x40 DUP3 ADD SWAP1 POP SWAP2 SWAP1 POP JUMP JUMPDEST PUSH0 PUSH1 0x20 DUP3 ADD SWAP1 POP DUP2 DUP2 SUB PUSH0 DUP4 ADD MSTORE PUSH2 0x3D81 DUP2 PUSH2 0x3D48 JUMP JUMPDEST SWAP1 POP SWAP2 SWAP1 POP JUMP JUMPDEST PUSH32 0x5468652070617573657220726F6C652068617320616C7265616479206265656E PUSH0 DUP3 ADD MSTORE PUSH32 0x207265766F6B6564000000000000000000000000000000000000000000000000 PUSH1 0x20 DUP3 ADD MSTORE POP JUMP JUMPDEST PUSH0 PUSH2 0x3DE2 PUSH1 0x28 DUP4 PUSH2 0x32FF JUMP JUMPDEST SWAP2 POP PUSH2 0x3DED DUP3 PUSH2 0x3D88 JUMP JUMPDEST PUSH1 0x40 DUP3 ADD SWAP1 POP SWAP2 SWAP1 POP JUMP JUMPDEST PUSH0 PUSH1 0x20 DUP3 ADD SWAP1 POP DUP2 DUP2 SUB PUSH0 DUP4 ADD MSTORE PUSH2 0x3E0F DUP2 PUSH2 0x3DD6 JUMP JUMPDEST SWAP1 POP SWAP2 SWAP1 POP JUMP JUMPDEST PUSH32 0x526F6C65206D7573742062652061646D696E206F6E6C79000000000000000000 PUSH0 DUP3 ADD MSTORE POP JUMP JUMPDEST PUSH0 PUSH2 0x3E4A PUSH1 0x17 DUP4 PUSH2 0x32FF JUMP JUMPDEST SWAP2 POP PUSH2 0x3E55 DUP3 PUSH2 0x3E16 JUMP JUMPDEST PUSH1 0x20 DUP3 ADD SWAP1 POP SWAP2 SWAP1 POP JUMP JUMPDEST PUSH0 PUSH1 0x20 DUP3 ADD SWAP1 POP DUP2 DUP2 SUB PUSH0 DUP4 ADD MSTORE PUSH2 0x3E77 DUP2 PUSH2 0x3E3E JUMP JUMPDEST SWAP1 POP SWAP2 SWAP1 POP JUMP JUMPDEST PUSH32 0x54686520726F6C652063616E6E6F742062652061737369676E6564206173204D PUSH0 DUP3 ADD MSTORE PUSH32 0x696E746572000000000000000000000000000000000000000000000000000000 PUSH1 0x20 DUP3 ADD MSTORE POP JUMP JUMPDEST PUSH0 PUSH2 0x3ED8 PUSH1 0x25 DUP4 PUSH2 0x32FF JUMP JUMPDEST SWAP2 POP PUSH2 0x3EE3 DUP3 PUSH2 0x3E7E JUMP JUMPDEST PUSH1 0x40 DUP3 ADD SWAP1 POP SWAP2 SWAP1 POP JUMP JUMPDEST PUSH0 PUSH1 0x20 DUP3 ADD SWAP1 POP DUP2 DUP2 SUB PUSH0 DUP4 ADD MSTORE PUSH2 0x3F05 DUP2 PUSH2 0x3ECC JUMP JUMPDEST SWAP1 POP SWAP2 SWAP1 POP JUMP JUMPDEST PUSH32 0x54686520726F6C652063616E6E6F742062652061737369676E65642061732050 PUSH0 DUP3 ADD MSTORE PUSH32 0x6175736572000000000000000000000000000000000000000000000000000000 PUSH1 0x20 DUP3 ADD MSTORE POP JUMP JUMPDEST PUSH0 PUSH2 0x3F66 PUSH1 0x25 DUP4 PUSH2 0x32FF JUMP JUMPDEST SWAP2 POP PUSH2 0x3F71 DUP3 PUSH2 0x3F0C JUMP JUMPDEST PUSH1 0x40 DUP3 ADD SWAP1 POP SWAP2 SWAP1 POP JUMP JUMPDEST PUSH0 PUSH1 0x20 DUP3 ADD SWAP1 POP DUP2 DUP2 SUB PUSH0 DUP4 ADD MSTORE PUSH2 0x3F93 DUP2 PUSH2 0x3F5A JUMP JUMPDEST SWAP1 POP SWAP2 SWAP1 POP JUMP JUMPDEST PUSH32 0x61646D696E206861766520616E20616C72656164792061737369676E65642072 PUSH0 DUP3 ADD MSTORE PUSH32 0x6F6C650000000000000000000000000000000000000000000000000000000000 PUSH1 0x20 DUP3 ADD MSTORE POP JUMP JUMPDEST PUSH0 PUSH2 0x3FF4 PUSH1 0x23 DUP4 PUSH2 0x32FF JUMP JUMPDEST SWAP2 POP PUSH2 0x3FFF DUP3 PUSH2 0x3F9A JUMP JUMPDEST PUSH1 0x40 DUP3 ADD SWAP1 POP SWAP2 SWAP1 POP JUMP JUMPDEST PUSH0 PUSH1 0x20 DUP3 ADD SWAP1 POP DUP2 DUP2 SUB PUSH0 DUP4 ADD MSTORE PUSH2 0x4021 DUP2 PUSH2 0x3FE8 JUMP JUMPDEST SWAP1 POP SWAP2 SWAP1 POP JUMP JUMPDEST PUSH32 0x5468657265206973204E6F20526F6C65205479706520666F7220746869732054 PUSH0 DUP3 ADD MSTORE PUSH32 0x797065206F6620726F6C65206E756D6265720000000000000000000000000000 PUSH1 0x20 DUP3 ADD MSTORE POP JUMP JUMPDEST PUSH0 PUSH2 0x4082 PUSH1 0x32 DUP4 PUSH2 0x32FF JUMP JUMPDEST SWAP2 POP PUSH2 0x408D DUP3 PUSH2 0x4028 JUMP JUMPDEST PUSH1 0x40 DUP3 ADD SWAP1 POP SWAP2 SWAP1 POP JUMP JUMPDEST PUSH0 PUSH1 0x20 DUP3 ADD SWAP1 POP DUP2 DUP2 SUB PUSH0 DUP4 ADD MSTORE PUSH2 0x40AF DUP2 PUSH2 0x4076 JUMP JUMPDEST SWAP1 POP SWAP2 SWAP1 POP JUMP JUMPDEST PUSH0 DUP2 SWAP1 POP SWAP3 SWAP2 POP POP JUMP JUMPDEST PUSH0 PUSH2 0x40CB DUP4 DUP6 PUSH2 0x40B6 JUMP JUMPDEST SWAP4 POP PUSH2 0x40D8 DUP4 DUP6 DUP5 PUSH2 0x2F7C JUMP JUMPDEST DUP3 DUP5 ADD SWAP1 POP SWAP4 SWAP3 POP POP POP JUMP JUMPDEST PUSH0 PUSH2 0x40F0 DUP3 DUP5 DUP7 PUSH2 0x40C0 JUMP JUMPDEST SWAP2 POP DUP2 SWAP1 POP SWAP4 SWAP3 POP POP POP JUMP JUMPDEST PUSH32 0x4E6F20526F6C6520497320476976656E20546F2050617573657220546F205265 PUSH0 DUP3 ADD MSTORE PUSH32 0x766F6B6520697400000000000000000000000000000000000000000000000000 PUSH1 0x20 DUP3 ADD MSTORE POP JUMP JUMPDEST PUSH0 PUSH2 0x4156 PUSH1 0x27 DUP4 PUSH2 0x32FF JUMP JUMPDEST SWAP2 POP PUSH2 0x4161 DUP3 PUSH2 0x40FC JUMP JUMPDEST PUSH1 0x40 DUP3 ADD SWAP1 POP SWAP2 SWAP1 POP JUMP JUMPDEST PUSH0 PUSH1 0x20 DUP3 ADD SWAP1 POP DUP2 DUP2 SUB PUSH0 DUP4 ADD MSTORE PUSH2 0x4183 DUP2 PUSH2 0x414A JUMP JUMPDEST SWAP1 POP SWAP2 SWAP1 POP JUMP JUMPDEST PUSH32 0x546865206D696E74657220726F6C6520686173206E65766572206265656E2067 PUSH0 DUP3 ADD MSTORE PUSH32 0x72616E7465640000000000000000000000000000000000000000000000000000 PUSH1 0x20 DUP3 ADD MSTORE POP JUMP JUMPDEST PUSH0 PUSH2 0x41E4 PUSH1 0x26 DUP4 PUSH2 0x32FF JUMP JUMPDEST SWAP2 POP PUSH2 0x41EF DUP3 PUSH2 0x418A JUMP JUMPDEST PUSH1 0x40 DUP3 ADD SWAP1 POP SWAP2 SWAP1 POP JUMP JUMPDEST PUSH0 PUSH1 0x20 DUP3 ADD SWAP1 POP DUP2 DUP2 SUB PUSH0 DUP4 ADD MSTORE PUSH2 0x4211 DUP2 PUSH2 0x41D8 JUMP JUMPDEST SWAP1 POP SWAP2 SWAP1 POP JUMP INVALID LOG2 PUSH5 0x6970667358 0x22 SLT KECCAK256 GAS BLOBHASH SIGNEXTEND DUP6 0x21 0xF EXTCODEHASH BALANCE 0xDF SWAP5 MSIZE 0x23 0xB5 0xCF 0xCC CALL SAR SUB SIGNEXTEND 0xE8 0x27 CALLER 0xFC 0xB7 0xAD 0xB6 EXTCODECOPY 0xDD 0x25 DUP11 RETURNDATASIZE RJUMP 0x6473 PUSH16 0x6C634300081E00330000000000000000 "
				},
				"gasEstimates": {
					"creation": {
						"codeDepositCost": "3394800",
						"executionCost": "50207",
						"totalCost": "3445007"
					},
					"external": {
						"_checkole(address)": "2856",
						"_hasRoleGivenByAdmin(address,uint8)": "3074",
						"_roles(address)": "2989",
						"_userRoleData(address)": "infinite",
						"approveOrder()": "24480",
						"checkRole(address)": "infinite",
						"createTask(uint256,string)": "infinite",
						"getAdmin99(address)": "infinite",
						"getStatus()": "2656",
						"getStatusInt()": "469",
						"getTotalTask()": "2506",
						"grantRole(address,address,uint8)": "infinite",
						"order()": "4889",
						"renouncePauserRole(address,uint8)": "infinite",
						"revokeRole(address,address,uint8)": "infinite",
						"setAdmin99(address,uint8)": "infinite",
						"statusDescription(uint256)": "infinite",
						"stringToBytes(string)": "infinite",
						"taskIDs(uint256)": "infinite",
						"tasks(uint256)": "infinite",
						"userroles(uint256)": "5032"
					}
				},
				"methodIdentifiers": {
					"_checkole(address)": "80245a21",
					"_hasRoleGivenByAdmin(address,uint8)": "1e47d8ac",
					"_roles(address)": "20853239",
					"_userRoleData(address)": "ceca9ffb",
					"approveOrder()": "38e174ed",
					"checkRole(address)": "a0d7823e",
					"createTask(uint256,string)": "16d41b94",
					"getAdmin99(address)": "476b49bc",
					"getStatus()": "4e69d560",
					"getStatusInt()": "74b2f66a",
					"getTotalTask()": "d12c987c",
					"grantRole(address,address,uint8)": "3868e7e5",
					"order()": "bf15071d",
					"renouncePauserRole(address,uint8)": "a8813de8",
					"revokeRole(address,address,uint8)": "f13e5d09",
					"setAdmin99(address,uint8)": "c9feb159",
					"statusDescription(uint256)": "32d02f6d",
					"stringToBytes(string)": "e106fb4b",
					"taskIDs(uint256)": "299958bf",
					"tasks(uint256)": "8d977672",
					"userroles(uint256)": "e0639f5c"
				}
			},
			"storageLayout": {
				"storage": [
					{
						"astId": 21,
						"contract": "Learning.sol:Learning",
						"label": "roledata",
						"offset": 0,
						"slot": "0",
						"type": "t_struct(RoleData)18_storage"
					},
					{
						"astId": 25,
						"contract": "Learning.sol:Learning",
						"label": "_checkole",
						"offset": 0,
						"slot": "2",
						"type": "t_mapping(t_address,t_bool)"
					},
					{
						"astId": 32,
						"contract": "Learning.sol:Learning",
						"label": "_hasRoleGivenByAdmin",
						"offset": 0,
						"slot": "3",
						"type": "t_mapping(t_address,t_mapping(t_enum(Role)6,t_bool))"
					},
					{
						"astId": 37,
						"contract": "Learning.sol:Learning",
						"label": "_roles",
						"offset": 0,
						"slot": "4",
						"type": "t_mapping(t_address,t_enum(Role)6)"
					},
					{
						"astId": 42,
						"contract": "Learning.sol:Learning",
						"label": "_userRoleData",
						"offset": 0,
						"slot": "5",
						"type": "t_mapping(t_address,t_struct(RoleData)18_storage)"
					},
					{
						"astId": 45,
						"contract": "Learning.sol:Learning",
						"label": "userroles",
						"offset": 0,
						"slot": "6",
						"type": "t_array(t_address)dyn_storage"
					},
					{
						"astId": 735,
						"contract": "Learning.sol:Learning",
						"label": "statusDescription",
						"offset": 0,
						"slot": "7",
						"type": "t_mapping(t_uint256,t_string_storage)"
					},
					{
						"astId": 743,
						"contract": "Learning.sol:Learning",
						"label": "tasks",
						"offset": 0,
						"slot": "8",
						"type": "t_mapping(t_uint256,t_struct(Task)738_storage)"
					},
					{
						"astId": 746,
						"contract": "Learning.sol:Learning",
						"label": "taskIDs",
						"offset": 0,
						"slot": "9",
						"type": "t_array(t_uint256)dyn_storage"
					},
					{
						"astId": 802,
						"contract": "Learning.sol:Learning",
						"label": "order",
						"offset": 0,
						"slot": "10",
						"type": "t_struct(Order)799_storage"
					}
				],
				"types": {
					"t_address": {
						"encoding": "inplace",
						"label": "address",
						"numberOfBytes": "20"
					},
					"t_array(t_address)dyn_storage": {
						"base": "t_address",
						"encoding": "dynamic_array",
						"label": "address[]",
						"numberOfBytes": "32"
					},
					"t_array(t_uint256)dyn_storage": {
						"base": "t_uint256",
						"encoding": "dynamic_array",
						"label": "uint256[]",
						"numberOfBytes": "32"
					},
					"t_bool": {
						"encoding": "inplace",
						"label": "bool",
						"numberOfBytes": "1"
					},
					"t_enum(Role)6": {
						"encoding": "inplace",
						"label": "enum Learning.Role",
						"numberOfBytes": "1"
					},
					"t_enum(Status)793": {
						"encoding": "inplace",
						"label": "enum Learning.Status",
						"numberOfBytes": "1"
					},
					"t_mapping(t_address,t_bool)": {
						"encoding": "mapping",
						"key": "t_address",
						"label": "mapping(address => bool)",
						"numberOfBytes": "32",
						"value": "t_bool"
					},
					"t_mapping(t_address,t_enum(Role)6)": {
						"encoding": "mapping",
						"key": "t_address",
						"label": "mapping(address => enum Learning.Role)",
						"numberOfBytes": "32",
						"value": "t_enum(Role)6"
					},
					"t_mapping(t_address,t_mapping(t_enum(Role)6,t_bool))": {
						"encoding": "mapping",
						"key": "t_address",
						"label": "mapping(address => mapping(enum Learning.Role => bool))",
						"numberOfBytes": "32",
						"value": "t_mapping(t_enum(Role)6,t_bool)"
					},
					"t_mapping(t_address,t_struct(RoleData)18_storage)": {
						"encoding": "mapping",
						"key": "t_address",
						"label": "mapping(address => struct Learning.RoleData)",
						"numberOfBytes": "32",
						"value": "t_struct(RoleData)18_storage"
					},
					"t_mapping(t_enum(Role)6,t_bool)": {
						"encoding": "mapping",
						"key": "t_enum(Role)6",
						"label": "mapping(enum Learning.Role => bool)",
						"numberOfBytes": "32",
						"value": "t_bool"
					},
					"t_mapping(t_uint256,t_string_storage)": {
						"encoding": "mapping",
						"key": "t_uint256",
						"label": "mapping(uint256 => string)",
						"numberOfBytes": "32",
						"value": "t_string_storage"
					},
					"t_mapping(t_uint256,t_struct(Task)738_storage)": {
						"encoding": "mapping",
						"key": "t_uint256",
						"label": "mapping(uint256 => struct Learning.Task)",
						"numberOfBytes": "32",
						"value": "t_struct(Task)738_storage"
					},
					"t_string_storage": {
						"encoding": "bytes",
						"label": "string",
						"numberOfBytes": "32"
					},
					"t_struct(Order)799_storage": {
						"encoding": "inplace",
						"label": "struct Learning.Order",
						"members": [
							{
								"astId": 795,
								"contract": "Learning.sol:Learning",
								"label": "id",
								"offset": 0,
								"slot": "0",
								"type": "t_uint256"
							},
							{
								"astId": 798,
								"contract": "Learning.sol:Learning",
								"label": "status",
								"offset": 0,
								"slot": "1",
								"type": "t_enum(Status)793"
							}
						],
						"numberOfBytes": "64"
					},
					"t_struct(RoleData)18_storage": {
						"encoding": "inplace",
						"label": "struct Learning.RoleData",
						"members": [
							{
								"astId": 8,
								"contract": "Learning.sol:Learning",
								"label": "user",
								"offset": 0,
								"slot": "0",
								"type": "t_address"
							},
							{
								"astId": 10,
								"contract": "Learning.sol:Learning",
								"label": "isGranted",
								"offset": 20,
								"slot": "0",
								"type": "t_bool"
							},
							{
								"astId": 12,
								"contract": "Learning.sol:Learning",
								"label": "isRevoked",
								"offset": 21,
								"slot": "0",
								"type": "t_bool"
							},
							{
								"astId": 15,
								"contract": "Learning.sol:Learning",
								"label": "roleType",
								"offset": 22,
								"slot": "0",
								"type": "t_enum(Role)6"
							},
							{
								"astId": 17,
								"contract": "Learning.sol:Learning",
								"label": "roleName",
								"offset": 0,
								"slot": "1",
								"type": "t_string_storage"
							}
						],
						"numberOfBytes": "64"
					},
					"t_struct(Task)738_storage": {
						"encoding": "inplace",
						"label": "struct Learning.Task",
						"members": [
							{
								"astId": 737,
								"contract": "Learning.sol:Learning",
								"label": "state",
								"offset": 0,
								"slot": "0",
								"type": "t_string_storage"
							}
						],
						"numberOfBytes": "32"
					},
					"t_uint256": {
						"encoding": "inplace",
						"label": "uint256",
						"numberOfBytes": "32"
					}
				}
			},
			"userdoc": {
				"kind": "user",
				"methods": {},
				"version": 1
			}
		}
	}
}