{
	"Vote.sol": {
		"Vote": {
			"abi": [
				{
					"inputs": [],
					"stateMutability": "nonpayable",
					"type": "constructor"
				},
				{
					"inputs": [],
					"name": "closeProposals",
					"outputs": [
						{
							"internalType": "bool",
							"name": "",
							"type": "bool"
						}
					],
					"stateMutability": "nonpayable",
					"type": "function"
				},
				{
					"inputs": [
						{
							"internalType": "uint256",
							"name": "_id",
							"type": "uint256"
						},
						{
							"internalType": "string",
							"name": "_name",
							"type": "string"
						},
						{
							"internalType": "string",
							"name": "_desc",
							"type": "string"
						},
						{
							"internalType": "uint256",
							"name": "_deadline",
							"type": "uint256"
						}
					],
					"name": "createProposals",
					"outputs": [
						{
							"components": [
								{
									"internalType": "uint256",
									"name": "id",
									"type": "uint256"
								},
								{
									"internalType": "string",
									"name": "name",
									"type": "string"
								},
								{
									"internalType": "string",
									"name": "desc",
									"type": "string"
								},
								{
									"internalType": "uint256",
									"name": "deadline",
									"type": "uint256"
								},
								{
									"internalType": "uint256",
									"name": "voteCount",
									"type": "uint256"
								},
								{
									"internalType": "bool",
									"name": "yes",
									"type": "bool"
								},
								{
									"internalType": "bool",
									"name": "no",
									"type": "bool"
								},
								{
									"internalType": "enum Vote.Status",
									"name": "status",
									"type": "uint8"
								}
							],
							"internalType": "struct Vote.Proposal",
							"name": "",
							"type": "tuple"
						}
					],
					"stateMutability": "nonpayable",
					"type": "function"
				},
				{
					"inputs": [
						{
							"internalType": "uint256",
							"name": "_newDeadLineTime",
							"type": "uint256"
						}
					],
					"name": "extendProposals",
					"outputs": [
						{
							"internalType": "uint256",
							"name": "",
							"type": "uint256"
						}
					],
					"stateMutability": "nonpayable",
					"type": "function"
				},
				{
					"inputs": [
						{
							"internalType": "uint256",
							"name": "_id",
							"type": "uint256"
						}
					],
					"name": "getProposalDataById",
					"outputs": [
						{
							"components": [
								{
									"internalType": "uint256",
									"name": "id",
									"type": "uint256"
								},
								{
									"internalType": "string",
									"name": "name",
									"type": "string"
								},
								{
									"internalType": "string",
									"name": "desc",
									"type": "string"
								},
								{
									"internalType": "uint256",
									"name": "deadline",
									"type": "uint256"
								},
								{
									"internalType": "uint256",
									"name": "voteCount",
									"type": "uint256"
								},
								{
									"internalType": "bool",
									"name": "yes",
									"type": "bool"
								},
								{
									"internalType": "bool",
									"name": "no",
									"type": "bool"
								},
								{
									"internalType": "enum Vote.Status",
									"name": "status",
									"type": "uint8"
								}
							],
							"internalType": "struct Vote.Proposal",
							"name": "",
							"type": "tuple"
						}
					],
					"stateMutability": "view",
					"type": "function"
				},
				{
					"inputs": [],
					"name": "getTotalNumberOfProposal",
					"outputs": [
						{
							"internalType": "uint256",
							"name": "",
							"type": "uint256"
						}
					],
					"stateMutability": "view",
					"type": "function"
				},
				{
					"inputs": [
						{
							"internalType": "uint256",
							"name": "_id",
							"type": "uint256"
						}
					],
					"name": "getVoteStatus",
					"outputs": [
						{
							"internalType": "bool",
							"name": "",
							"type": "bool"
						},
						{
							"internalType": "uint256",
							"name": "",
							"type": "uint256"
						}
					],
					"stateMutability": "view",
					"type": "function"
				},
				{
					"inputs": [
						{
							"internalType": "uint256",
							"name": "",
							"type": "uint256"
						}
					],
					"name": "op",
					"outputs": [
						{
							"internalType": "uint256",
							"name": "",
							"type": "uint256"
						}
					],
					"stateMutability": "view",
					"type": "function"
				},
				{
					"inputs": [],
					"name": "proposal",
					"outputs": [
						{
							"internalType": "uint256",
							"name": "id",
							"type": "uint256"
						},
						{
							"internalType": "string",
							"name": "name",
							"type": "string"
						},
						{
							"internalType": "string",
							"name": "desc",
							"type": "string"
						},
						{
							"internalType": "uint256",
							"name": "deadline",
							"type": "uint256"
						},
						{
							"internalType": "uint256",
							"name": "voteCount",
							"type": "uint256"
						},
						{
							"internalType": "bool",
							"name": "yes",
							"type": "bool"
						},
						{
							"internalType": "bool",
							"name": "no",
							"type": "bool"
						},
						{
							"internalType": "enum Vote.Status",
							"name": "status",
							"type": "uint8"
						}
					],
					"stateMutability": "view",
					"type": "function"
				},
				{
					"inputs": [
						{
							"internalType": "uint256",
							"name": "",
							"type": "uint256"
						}
					],
					"name": "proposals",
					"outputs": [
						{
							"internalType": "uint256",
							"name": "id",
							"type": "uint256"
						},
						{
							"internalType": "string",
							"name": "name",
							"type": "string"
						},
						{
							"internalType": "string",
							"name": "desc",
							"type": "string"
						},
						{
							"internalType": "uint256",
							"name": "deadline",
							"type": "uint256"
						},
						{
							"internalType": "uint256",
							"name": "voteCount",
							"type": "uint256"
						},
						{
							"internalType": "bool",
							"name": "yes",
							"type": "bool"
						},
						{
							"internalType": "bool",
							"name": "no",
							"type": "bool"
						},
						{
							"internalType": "enum Vote.Status",
							"name": "status",
							"type": "uint8"
						}
					],
					"stateMutability": "view",
					"type": "function"
				},
				{
					"inputs": [],
					"name": "status",
					"outputs": [
						{
							"internalType": "enum Vote.Status",
							"name": "",
							"type": "uint8"
						}
					],
					"stateMutability": "view",
					"type": "function"
				},
				{
					"inputs": [
						{
							"internalType": "address",
							"name": "user",
							"type": "address"
						},
						{
							"internalType": "uint256",
							"name": "proposalID",
							"type": "uint256"
						},
						{
							"internalType": "bool",
							"name": "choice",
							"type": "bool"
						}
					],
					"name": "voteByAddress",
					"outputs": [],
					"stateMutability": "nonpayable",
					"type": "function"
				}
			],
			"devdoc": {
				"kind": "dev",
				"methods": {},
				"version": 1
			},
			"evm": {
				"assembly": "    /* \"Vote.sol\":58:5915  contract Vote {... */\n  mstore(0x40, 0x80)\n    /* \"Vote.sol\":98:146  constructor() {... */\n  callvalue\n  dup1\n  iszero\n  tag_1\n  jumpi\n  revert(0x00, 0x00)\ntag_1:\n  pop\n    /* \"Vote.sol\":128:138  msg.sender */\n  caller\n    /* \"Vote.sol\":120:125  owner */\n  0x00\n  0x00\n    /* \"Vote.sol\":120:138  owner = msg.sender */\n  0x0100\n  exp\n  dup2\n  sload\n  dup2\n  0xffffffffffffffffffffffffffffffffffffffff\n  mul\n  not\n  and\n  swap1\n  dup4\n  0xffffffffffffffffffffffffffffffffffffffff\n  and\n  mul\n  or\n  swap1\n  sstore\n  pop\n    /* \"Vote.sol\":58:5915  contract Vote {... */\n  dataSize(sub_0)\n  dup1\n  dataOffset(sub_0)\n  0x00\n  codecopy\n  0x00\n  return\nstop\n\nsub_0: assembly {\n        /* \"Vote.sol\":58:5915  contract Vote {... */\n      mstore(0x40, 0x80)\n      callvalue\n      dup1\n      iszero\n      tag_1\n      jumpi\n      revert(0x00, 0x00)\n    tag_1:\n      pop\n      jumpi(tag_2, lt(calldatasize, 0x04))\n      shr(0xe0, calldataload(0x00))\n      dup1\n      0x387eadae\n      gt\n      tag_14\n      jumpi\n      dup1\n      0x387eadae\n      eq\n      tag_8\n      jumpi\n      dup1\n      0x753ec103\n      eq\n      tag_9\n      jumpi\n      dup1\n      0x8f73f9a0\n      eq\n      tag_10\n      jumpi\n      dup1\n      0xc0bc64f3\n      eq\n      tag_11\n      jumpi\n      dup1\n      0xcf255148\n      eq\n      tag_12\n      jumpi\n      dup1\n      0xe89050e9\n      eq\n      tag_13\n      jumpi\n      jump(tag_2)\n    tag_14:\n      dup1\n      0x013cf08b\n      eq\n      tag_3\n      jumpi\n      dup1\n      0x0519bb83\n      eq\n      tag_4\n      jumpi\n      dup1\n      0x0f09147c\n      eq\n      tag_5\n      jumpi\n      dup1\n      0x1524f3a7\n      eq\n      tag_6\n      jumpi\n      dup1\n      0x200d2ed2\n      eq\n      tag_7\n      jumpi\n    tag_2:\n      revert(0x00, 0x00)\n        /* \"Vote.sol\":591:618  Proposal[] public proposals */\n    tag_3:\n      tag_15\n      0x04\n      dup1\n      calldatasize\n      sub\n      dup2\n      add\n      swap1\n      tag_16\n      swap2\n      swap1\n      tag_17\n      jump\t// in\n    tag_16:\n      tag_18\n      jump\t// in\n    tag_15:\n      mload(0x40)\n      tag_19\n      swap9\n      swap8\n      swap7\n      swap6\n      swap5\n      swap4\n      swap3\n      swap2\n      swap1\n      tag_20\n      jump\t// in\n    tag_19:\n      mload(0x40)\n      dup1\n      swap2\n      sub\n      swap1\n      return\n        /* \"Vote.sol\":5566:5860  function getVoteStatus(uint _id) external view returns(bool,uint){... */\n    tag_4:\n      tag_21\n      0x04\n      dup1\n      calldatasize\n      sub\n      dup2\n      add\n      swap1\n      tag_22\n      swap2\n      swap1\n      tag_17\n      jump\t// in\n    tag_22:\n      tag_23\n      jump\t// in\n    tag_21:\n      mload(0x40)\n      tag_24\n      swap3\n      swap2\n      swap1\n      tag_25\n      jump\t// in\n    tag_24:\n      mload(0x40)\n      dup1\n      swap2\n      sub\n      swap1\n      return\n        /* \"Vote.sol\":4115:4224  function getTotalNumberOfProposal() external view returns(uint){... */\n    tag_5:\n      tag_26\n      tag_27\n      jump\t// in\n    tag_26:\n      mload(0x40)\n      tag_28\n      swap2\n      swap1\n      tag_29\n      jump\t// in\n    tag_28:\n      mload(0x40)\n      dup1\n      swap2\n      sub\n      swap1\n      return\n        /* \"Vote.sol\":4417:5479  function voteByAddress(address user, uint proposalID, bool choice) external {... */\n    tag_6:\n      tag_30\n      0x04\n      dup1\n      calldatasize\n      sub\n      dup2\n      add\n      swap1\n      tag_31\n      swap2\n      swap1\n      tag_32\n      jump\t// in\n    tag_31:\n      tag_33\n      jump\t// in\n    tag_30:\n      stop\n        /* \"Vote.sol\":385:405  Status public status */\n    tag_7:\n      tag_34\n      tag_35\n      jump\t// in\n    tag_34:\n      mload(0x40)\n      tag_36\n      swap2\n      swap1\n      tag_37\n      jump\t// in\n    tag_36:\n      mload(0x40)\n      dup1\n      swap2\n      sub\n      swap1\n      return\n        /* \"Vote.sol\":1638:1654  uint[] public op */\n    tag_8:\n      tag_38\n      0x04\n      dup1\n      calldatasize\n      sub\n      dup2\n      add\n      swap1\n      tag_39\n      swap2\n      swap1\n      tag_17\n      jump\t// in\n    tag_39:\n      tag_40\n      jump\t// in\n    tag_38:\n      mload(0x40)\n      tag_41\n      swap2\n      swap1\n      tag_29\n      jump\t// in\n    tag_41:\n      mload(0x40)\n      dup1\n      swap2\n      sub\n      swap1\n      return\n        /* \"Vote.sol\":412:436  Proposal public proposal */\n    tag_9:\n      tag_42\n      tag_43\n      jump\t// in\n    tag_42:\n      mload(0x40)\n      tag_44\n      swap9\n      swap8\n      swap7\n      swap6\n      swap5\n      swap4\n      swap3\n      swap2\n      swap1\n      tag_20\n      jump\t// in\n    tag_44:\n      mload(0x40)\n      dup1\n      swap2\n      sub\n      swap1\n      return\n        /* \"Vote.sol\":3945:4066  function closeProposals() external returns(bool){... */\n    tag_10:\n      tag_45\n      tag_46\n      jump\t// in\n    tag_45:\n      mload(0x40)\n      tag_47\n      swap2\n      swap1\n      tag_48\n      jump\t// in\n    tag_47:\n      mload(0x40)\n      dup1\n      swap2\n      sub\n      swap1\n      return\n        /* \"Vote.sol\":4284:4408  function getProposalDataById(uint _id) external view returns(Proposal memory) {... */\n    tag_11:\n      tag_49\n      0x04\n      dup1\n      calldatasize\n      sub\n      dup2\n      add\n      swap1\n      tag_50\n      swap2\n      swap1\n      tag_17\n      jump\t// in\n    tag_50:\n      tag_51\n      jump\t// in\n    tag_49:\n      mload(0x40)\n      tag_52\n      swap2\n      swap1\n      tag_53\n      jump\t// in\n    tag_52:\n      mload(0x40)\n      dup1\n      swap2\n      sub\n      swap1\n      return\n        /* \"Vote.sol\":3660:3936  function extendProposals(uint _newDeadLineTime) external onlyOwner(owner) returns(uint) {... */\n    tag_12:\n      tag_54\n      0x04\n      dup1\n      calldatasize\n      sub\n      dup2\n      add\n      swap1\n      tag_55\n      swap2\n      swap1\n      tag_17\n      jump\t// in\n    tag_55:\n      tag_56\n      jump\t// in\n    tag_54:\n      mload(0x40)\n      tag_57\n      swap2\n      swap1\n      tag_29\n      jump\t// in\n    tag_57:\n      mload(0x40)\n      dup1\n      swap2\n      sub\n      swap1\n      return\n        /* \"Vote.sol\":2051:3468  function createProposals( uint _id,string memory _name,string memory _desc, uint _deadline) ... */\n    tag_13:\n      tag_58\n      0x04\n      dup1\n      calldatasize\n      sub\n      dup2\n      add\n      swap1\n      tag_59\n      swap2\n      swap1\n      tag_60\n      jump\t// in\n    tag_59:\n      tag_61\n      jump\t// in\n    tag_58:\n      mload(0x40)\n      tag_62\n      swap2\n      swap1\n      tag_53\n      jump\t// in\n    tag_62:\n      mload(0x40)\n      dup1\n      swap2\n      sub\n      swap1\n      return\n        /* \"Vote.sol\":591:618  Proposal[] public proposals */\n    tag_18:\n      0x07\n      dup2\n      dup2\n      sload\n      dup2\n      lt\n      tag_63\n      jumpi\n      0x00\n      dup1\n      revert\n    tag_63:\n      swap1\n      0x00\n      mstore\n      keccak256(0x00, 0x20)\n      swap1\n      0x06\n      mul\n      add\n      0x00\n      swap2\n      pop\n      swap1\n      pop\n      dup1\n      0x00\n      add\n      sload\n      swap1\n      dup1\n      0x01\n      add\n      dup1\n      sload\n      tag_65\n      swap1\n      tag_66\n      jump\t// in\n    tag_65:\n      dup1\n      0x1f\n      add\n      0x20\n      dup1\n      swap2\n      div\n      mul\n      0x20\n      add\n      mload(0x40)\n      swap1\n      dup2\n      add\n      0x40\n      mstore\n      dup1\n      swap3\n      swap2\n      swap1\n      dup2\n      dup2\n      mstore\n      0x20\n      add\n      dup3\n      dup1\n      sload\n      tag_67\n      swap1\n      tag_66\n      jump\t// in\n    tag_67:\n      dup1\n      iszero\n      tag_68\n      jumpi\n      dup1\n      0x1f\n      lt\n      tag_69\n      jumpi\n      0x0100\n      dup1\n      dup4\n      sload\n      div\n      mul\n      dup4\n      mstore\n      swap2\n      0x20\n      add\n      swap2\n      jump(tag_68)\n    tag_69:\n      dup3\n      add\n      swap2\n      swap1\n      0x00\n      mstore\n      keccak256(0x00, 0x20)\n      swap1\n    tag_70:\n      dup2\n      sload\n      dup2\n      mstore\n      swap1\n      0x01\n      add\n      swap1\n      0x20\n      add\n      dup1\n      dup4\n      gt\n      tag_70\n      jumpi\n      dup3\n      swap1\n      sub\n      0x1f\n      and\n      dup3\n      add\n      swap2\n    tag_68:\n      pop\n      pop\n      pop\n      pop\n      pop\n      swap1\n      dup1\n      0x02\n      add\n      dup1\n      sload\n      tag_71\n      swap1\n      tag_66\n      jump\t// in\n    tag_71:\n      dup1\n      0x1f\n      add\n      0x20\n      dup1\n      swap2\n      div\n      mul\n      0x20\n      add\n      mload(0x40)\n      swap1\n      dup2\n      add\n      0x40\n      mstore\n      dup1\n      swap3\n      swap2\n      swap1\n      dup2\n      dup2\n      mstore\n      0x20\n      add\n      dup3\n      dup1\n      sload\n      tag_72\n      swap1\n      tag_66\n      jump\t// in\n    tag_72:\n      dup1\n      iszero\n      tag_73\n      jumpi\n      dup1\n      0x1f\n      lt\n      tag_74\n      jumpi\n      0x0100\n      dup1\n      dup4\n      sload\n      div\n      mul\n      dup4\n      mstore\n      swap2\n      0x20\n      add\n      swap2\n      jump(tag_73)\n    tag_74:\n      dup3\n      add\n      swap2\n      swap1\n      0x00\n      mstore\n      keccak256(0x00, 0x20)\n      swap1\n    tag_75:\n      dup2\n      sload\n      dup2\n      mstore\n      swap1\n      0x01\n      add\n      swap1\n      0x20\n      add\n      dup1\n      dup4\n      gt\n      tag_75\n      jumpi\n      dup3\n      swap1\n      sub\n      0x1f\n      and\n      dup3\n      add\n      swap2\n    tag_73:\n      pop\n      pop\n      pop\n      pop\n      pop\n      swap1\n      dup1\n      0x03\n      add\n      sload\n      swap1\n      dup1\n      0x04\n      add\n      sload\n      swap1\n      dup1\n      0x05\n      add\n      0x00\n      swap1\n      sload\n      swap1\n      0x0100\n      exp\n      swap1\n      div\n      0xff\n      and\n      swap1\n      dup1\n      0x05\n      add\n      0x01\n      swap1\n      sload\n      swap1\n      0x0100\n      exp\n      swap1\n      div\n      0xff\n      and\n      swap1\n      dup1\n      0x05\n      add\n      0x02\n      swap1\n      sload\n      swap1\n      0x0100\n      exp\n      swap1\n      div\n      0xff\n      and\n      swap1\n      pop\n      dup9\n      jump\t// out\n        /* \"Vote.sol\":5566:5860  function getVoteStatus(uint _id) external view returns(bool,uint){... */\n    tag_23:\n        /* \"Vote.sol\":5621:5625  bool */\n      0x00\n        /* \"Vote.sol\":5626:5630  uint */\n      0x00\n        /* \"Vote.sol\":5642:5650  hasVoted */\n      0x0a\n        /* \"Vote.sol\":5642:5662  hasVoted[msg.sender] */\n      0x00\n        /* \"Vote.sol\":5651:5661  msg.sender */\n      caller\n        /* \"Vote.sol\":5642:5662  hasVoted[msg.sender] */\n      0xffffffffffffffffffffffffffffffffffffffff\n      and\n      0xffffffffffffffffffffffffffffffffffffffff\n      and\n      dup2\n      mstore\n      0x20\n      add\n      swap1\n      dup2\n      mstore\n      0x20\n      add\n      0x00\n      keccak256\n        /* \"Vote.sol\":5642:5667  hasVoted[msg.sender][_id] */\n      0x00\n        /* \"Vote.sol\":5663:5666  _id */\n      dup5\n        /* \"Vote.sol\":5642:5667  hasVoted[msg.sender][_id] */\n      dup2\n      mstore\n      0x20\n      add\n      swap1\n      dup2\n      mstore\n      0x20\n      add\n      0x00\n      keccak256\n      0x00\n      swap1\n      sload\n      swap1\n      0x0100\n      exp\n      swap1\n      pop\n      pop\n        /* \"Vote.sol\":5678:5690  votesPerUser */\n      0x0b\n        /* \"Vote.sol\":5678:5702  votesPerUser[msg.sender] */\n      0x00\n        /* \"Vote.sol\":5691:5701  msg.sender */\n      caller\n        /* \"Vote.sol\":5678:5702  votesPerUser[msg.sender] */\n      0xffffffffffffffffffffffffffffffffffffffff\n      and\n      0xffffffffffffffffffffffffffffffffffffffff\n      and\n      dup2\n      mstore\n      0x20\n      add\n      swap1\n      dup2\n      mstore\n      0x20\n      add\n      0x00\n      keccak256\n        /* \"Vote.sol\":5678:5716  votesPerUser[msg.sender][proposal.yes] */\n      0x00\n        /* \"Vote.sol\":5703:5711  proposal */\n      0x01\n        /* \"Vote.sol\":5703:5715  proposal.yes */\n      0x05\n      add\n      0x00\n      swap1\n      sload\n      swap1\n      0x0100\n      exp\n      swap1\n      div\n      0xff\n      and\n        /* \"Vote.sol\":5678:5716  votesPerUser[msg.sender][proposal.yes] */\n      iszero\n      iszero\n      iszero\n      iszero\n      dup2\n      mstore\n      0x20\n      add\n      swap1\n      dup2\n      mstore\n      0x20\n      add\n      0x00\n      keccak256\n      pop\n        /* \"Vote.sol\":5727:5739  votesPerUser */\n      0x0b\n        /* \"Vote.sol\":5727:5751  votesPerUser[msg.sender] */\n      0x00\n        /* \"Vote.sol\":5740:5750  msg.sender */\n      caller\n        /* \"Vote.sol\":5727:5751  votesPerUser[msg.sender] */\n      0xffffffffffffffffffffffffffffffffffffffff\n      and\n      0xffffffffffffffffffffffffffffffffffffffff\n      and\n      dup2\n      mstore\n      0x20\n      add\n      swap1\n      dup2\n      mstore\n      0x20\n      add\n      0x00\n      keccak256\n        /* \"Vote.sol\":5727:5764  votesPerUser[msg.sender][proposal.no] */\n      0x00\n        /* \"Vote.sol\":5752:5760  proposal */\n      0x01\n        /* \"Vote.sol\":5752:5763  proposal.no */\n      0x05\n      add\n      0x01\n      swap1\n      sload\n      swap1\n      0x0100\n      exp\n      swap1\n      div\n      0xff\n      and\n        /* \"Vote.sol\":5727:5764  votesPerUser[msg.sender][proposal.no] */\n      iszero\n      iszero\n      iszero\n      iszero\n      dup2\n      mstore\n      0x20\n      add\n      swap1\n      dup2\n      mstore\n      0x20\n      add\n      0x00\n      keccak256\n      pop\n        /* \"Vote.sol\":5775:5790  proposalPerUser */\n      0x08\n        /* \"Vote.sol\":5775:5802  proposalPerUser[msg.sender] */\n      0x00\n        /* \"Vote.sol\":5791:5801  msg.sender */\n      caller\n        /* \"Vote.sol\":5775:5802  proposalPerUser[msg.sender] */\n      0xffffffffffffffffffffffffffffffffffffffff\n      and\n      0xffffffffffffffffffffffffffffffffffffffff\n      and\n      dup2\n      mstore\n      0x20\n      add\n      swap1\n      dup2\n      mstore\n      0x20\n      add\n      0x00\n      keccak256\n      pop\n        /* \"Vote.sol\":5813:5821  userVote */\n      0x0c\n        /* \"Vote.sol\":5813:5833  userVote[msg.sender] */\n      0x00\n        /* \"Vote.sol\":5822:5832  msg.sender */\n      caller\n        /* \"Vote.sol\":5813:5833  userVote[msg.sender] */\n      0xffffffffffffffffffffffffffffffffffffffff\n      and\n      0xffffffffffffffffffffffffffffffffffffffff\n      and\n      dup2\n      mstore\n      0x20\n      add\n      swap1\n      dup2\n      mstore\n      0x20\n      add\n      0x00\n      keccak256\n        /* \"Vote.sol\":5813:5838  userVote[msg.sender][_id] */\n      0x00\n        /* \"Vote.sol\":5834:5837  _id */\n      dup5\n        /* \"Vote.sol\":5813:5838  userVote[msg.sender][_id] */\n      dup2\n      mstore\n      0x20\n      add\n      swap1\n      dup2\n      mstore\n      0x20\n      add\n      0x00\n      keccak256\n      pop\n        /* \"Vote.sol\":5566:5860  function getVoteStatus(uint _id) external view returns(bool,uint){... */\n      swap2\n      pop\n      swap2\n      jump\t// out\n        /* \"Vote.sol\":4115:4224  function getTotalNumberOfProposal() external view returns(uint){... */\n    tag_27:\n        /* \"Vote.sol\":4173:4177  uint */\n      0x00\n        /* \"Vote.sol\":4195:4204  proposals */\n      0x07\n        /* \"Vote.sol\":4195:4211  proposals.length */\n      dup1\n      sload\n      swap1\n      pop\n        /* \"Vote.sol\":4188:4211  return proposals.length */\n      swap1\n      pop\n        /* \"Vote.sol\":4115:4224  function getTotalNumberOfProposal() external view returns(uint){... */\n      swap1\n      jump\t// out\n        /* \"Vote.sol\":4417:5479  function voteByAddress(address user, uint proposalID, bool choice) external {... */\n    tag_33:\n        /* \"Vote.sol\":4569:4570  0 */\n      0x00\n        /* \"Vote.sol\":4553:4571  user != address(0) */\n      0xffffffffffffffffffffffffffffffffffffffff\n      and\n        /* \"Vote.sol\":4553:4557  user */\n      dup4\n        /* \"Vote.sol\":4553:4571  user != address(0) */\n      0xffffffffffffffffffffffffffffffffffffffff\n      and\n      sub\n        /* \"Vote.sol\":4545:4611  require(user != address(0),\"zero address can not be able to vote\") */\n      tag_79\n      jumpi\n      mload(0x40)\n      0x08c379a000000000000000000000000000000000000000000000000000000000\n      dup2\n      mstore\n      0x04\n      add\n      tag_80\n      swap1\n      tag_81\n      jump\t// in\n    tag_80:\n      mload(0x40)\n      dup1\n      swap2\n      sub\n      swap1\n      revert\n    tag_79:\n        /* \"Vote.sol\":4707:4708  2 */\n      0x02\n        /* \"Vote.sol\":4678:4690  votesPerUser */\n      0x0b\n        /* \"Vote.sol\":4678:4696  votesPerUser[user] */\n      0x00\n        /* \"Vote.sol\":4691:4695  user */\n      dup6\n        /* \"Vote.sol\":4678:4696  votesPerUser[user] */\n      0xffffffffffffffffffffffffffffffffffffffff\n      and\n      0xffffffffffffffffffffffffffffffffffffffff\n      and\n      dup2\n      mstore\n      0x20\n      add\n      swap1\n      dup2\n      mstore\n      0x20\n      add\n      0x00\n      keccak256\n        /* \"Vote.sol\":4678:4704  votesPerUser[user][choice] */\n      0x00\n        /* \"Vote.sol\":4697:4703  choice */\n      dup4\n        /* \"Vote.sol\":4678:4704  votesPerUser[user][choice] */\n      iszero\n      iszero\n      iszero\n      iszero\n      dup2\n      mstore\n      0x20\n      add\n      swap1\n      dup2\n      mstore\n      0x20\n      add\n      0x00\n      keccak256\n      sload\n        /* \"Vote.sol\":4678:4708  votesPerUser[user][choice] < 2 */\n      lt\n        /* \"Vote.sol\":4670:4740  require(votesPerUser[user][choice] < 2,\"double voting is not allowed\") */\n      tag_82\n      jumpi\n      mload(0x40)\n      0x08c379a000000000000000000000000000000000000000000000000000000000\n      dup2\n      mstore\n      0x04\n      add\n      tag_83\n      swap1\n      tag_84\n      jump\t// in\n    tag_83:\n      mload(0x40)\n      dup1\n      swap2\n      sub\n      swap1\n      revert\n    tag_82:\n        /* \"Vote.sol\":4797:4798  2 */\n      0x02\n        /* \"Vote.sol\":4758:4766  userVote */\n      0x0c\n        /* \"Vote.sol\":4758:4772  userVote[user] */\n      0x00\n        /* \"Vote.sol\":4767:4771  user */\n      dup6\n        /* \"Vote.sol\":4758:4772  userVote[user] */\n      0xffffffffffffffffffffffffffffffffffffffff\n      and\n      0xffffffffffffffffffffffffffffffffffffffff\n      and\n      dup2\n      mstore\n      0x20\n      add\n      swap1\n      dup2\n      mstore\n      0x20\n      add\n      0x00\n      keccak256\n        /* \"Vote.sol\":4758:4784  userVote[user][proposalID] */\n      0x00\n        /* \"Vote.sol\":4773:4783  proposalID */\n      dup5\n        /* \"Vote.sol\":4758:4784  userVote[user][proposalID] */\n      dup2\n      mstore\n      0x20\n      add\n      swap1\n      dup2\n      mstore\n      0x20\n      add\n      0x00\n      keccak256\n        /* \"Vote.sol\":4758:4794  userVote[user][proposalID].voteCount */\n      0x04\n      add\n      sload\n        /* \"Vote.sol\":4758:4798  userVote[user][proposalID].voteCount < 2 */\n      lt\n        /* \"Vote.sol\":4750:4830  require(userVote[user][proposalID].voteCount < 2,\"double voting is not allowed\") */\n      tag_85\n      jumpi\n      mload(0x40)\n      0x08c379a000000000000000000000000000000000000000000000000000000000\n      dup2\n      mstore\n      0x04\n      add\n      tag_86\n      swap1\n      tag_84\n      jump\t// in\n    tag_86:\n      mload(0x40)\n      dup1\n      swap2\n      sub\n      swap1\n      revert\n    tag_85:\n        /* \"Vote.sol\":4984:4985  0 */\n      0x00\n        /* \"Vote.sol\":4965:4974  proposals */\n      0x07\n        /* \"Vote.sol\":4965:4981  proposals.length */\n      dup1\n      sload\n      swap1\n      pop\n        /* \"Vote.sol\":4965:4985  proposals.length > 0 */\n      gt\n        /* \"Vote.sol\":4957:5013  require(proposals.length > 0 ,\"proposal does not exist\") */\n      tag_87\n      jumpi\n      mload(0x40)\n      0x08c379a000000000000000000000000000000000000000000000000000000000\n      dup2\n      mstore\n      0x04\n      add\n      tag_88\n      swap1\n      tag_89\n      jump\t// in\n    tag_88:\n      mload(0x40)\n      dup1\n      swap2\n      sub\n      swap1\n      revert\n    tag_87:\n        /* \"Vote.sol\":5097:5105  hasVoted */\n      0x0a\n        /* \"Vote.sol\":5097:5111  hasVoted[user] */\n      0x00\n        /* \"Vote.sol\":5106:5110  user */\n      dup5\n        /* \"Vote.sol\":5097:5111  hasVoted[user] */\n      0xffffffffffffffffffffffffffffffffffffffff\n      and\n      0xffffffffffffffffffffffffffffffffffffffff\n      and\n      dup2\n      mstore\n      0x20\n      add\n      swap1\n      dup2\n      mstore\n      0x20\n      add\n      0x00\n      keccak256\n        /* \"Vote.sol\":5097:5123  hasVoted[user][proposalID] */\n      0x00\n        /* \"Vote.sol\":5112:5122  proposalID */\n      dup4\n        /* \"Vote.sol\":5097:5123  hasVoted[user][proposalID] */\n      dup2\n      mstore\n      0x20\n      add\n      swap1\n      dup2\n      mstore\n      0x20\n      add\n      0x00\n      keccak256\n      0x00\n      swap1\n      sload\n      swap1\n      0x0100\n      exp\n      swap1\n      div\n      0xff\n      and\n        /* \"Vote.sol\":5096:5123  !hasVoted[user][proposalID] */\n      iszero\n        /* \"Vote.sol\":5088:5139  require(!hasVoted[user][proposalID],\"uer rey vote\") */\n      tag_90\n      jumpi\n      mload(0x40)\n      0x08c379a000000000000000000000000000000000000000000000000000000000\n      dup2\n      mstore\n      0x04\n      add\n      tag_91\n      swap1\n      tag_92\n      jump\t// in\n    tag_91:\n      mload(0x40)\n      dup1\n      swap2\n      sub\n      swap1\n      revert\n    tag_90:\n        /* \"Vote.sol\":5189:5443  Proposal({... */\n      mload(0x40)\n      dup1\n      0x0100\n      add\n      0x40\n      mstore\n      dup1\n        /* \"Vote.sol\":5214:5222  proposal */\n      0x01\n        /* \"Vote.sol\":5214:5225  proposal.id */\n      0x00\n      add\n      sload\n        /* \"Vote.sol\":5189:5443  Proposal({... */\n      dup2\n      mstore\n      0x20\n      add\n        /* \"Vote.sol\":5243:5251  proposal */\n      0x01\n        /* \"Vote.sol\":5243:5256  proposal.name */\n      dup1\n      add\n        /* \"Vote.sol\":5189:5443  Proposal({... */\n      dup1\n      sload\n      tag_93\n      swap1\n      tag_66\n      jump\t// in\n    tag_93:\n      dup1\n      0x1f\n      add\n      0x20\n      dup1\n      swap2\n      div\n      mul\n      0x20\n      add\n      mload(0x40)\n      swap1\n      dup2\n      add\n      0x40\n      mstore\n      dup1\n      swap3\n      swap2\n      swap1\n      dup2\n      dup2\n      mstore\n      0x20\n      add\n      dup3\n      dup1\n      sload\n      tag_94\n      swap1\n      tag_66\n      jump\t// in\n    tag_94:\n      dup1\n      iszero\n      tag_95\n      jumpi\n      dup1\n      0x1f\n      lt\n      tag_96\n      jumpi\n      0x0100\n      dup1\n      dup4\n      sload\n      div\n      mul\n      dup4\n      mstore\n      swap2\n      0x20\n      add\n      swap2\n      jump(tag_95)\n    tag_96:\n      dup3\n      add\n      swap2\n      swap1\n      0x00\n      mstore\n      keccak256(0x00, 0x20)\n      swap1\n    tag_97:\n      dup2\n      sload\n      dup2\n      mstore\n      swap1\n      0x01\n      add\n      swap1\n      0x20\n      add\n      dup1\n      dup4\n      gt\n      tag_97\n      jumpi\n      dup3\n      swap1\n      sub\n      0x1f\n      and\n      dup3\n      add\n      swap2\n    tag_95:\n      pop\n      pop\n      pop\n      pop\n      pop\n      dup2\n      mstore\n      0x20\n      add\n        /* \"Vote.sol\":5274:5282  proposal */\n      0x01\n        /* \"Vote.sol\":5274:5288  proposal. desc */\n      0x02\n      add\n        /* \"Vote.sol\":5189:5443  Proposal({... */\n      dup1\n      sload\n      tag_98\n      swap1\n      tag_66\n      jump\t// in\n    tag_98:\n      dup1\n      0x1f\n      add\n      0x20\n      dup1\n      swap2\n      div\n      mul\n      0x20\n      add\n      mload(0x40)\n      swap1\n      dup2\n      add\n      0x40\n      mstore\n      dup1\n      swap3\n      swap2\n      swap1\n      dup2\n      dup2\n      mstore\n      0x20\n      add\n      dup3\n      dup1\n      sload\n      tag_99\n      swap1\n      tag_66\n      jump\t// in\n    tag_99:\n      dup1\n      iszero\n      tag_100\n      jumpi\n      dup1\n      0x1f\n      lt\n      tag_101\n      jumpi\n      0x0100\n      dup1\n      dup4\n      sload\n      div\n      mul\n      dup4\n      mstore\n      swap2\n      0x20\n      add\n      swap2\n      jump(tag_100)\n    tag_101:\n      dup3\n      add\n      swap2\n      swap1\n      0x00\n      mstore\n      keccak256(0x00, 0x20)\n      swap1\n    tag_102:\n      dup2\n      sload\n      dup2\n      mstore\n      swap1\n      0x01\n      add\n      swap1\n      0x20\n      add\n      dup1\n      dup4\n      gt\n      tag_102\n      jumpi\n      dup3\n      swap1\n      sub\n      0x1f\n      and\n      dup3\n      add\n      swap2\n    tag_100:\n      pop\n      pop\n      pop\n      pop\n      pop\n      dup2\n      mstore\n      0x20\n      add\n        /* \"Vote.sol\":5310:5318  proposal */\n      0x01\n        /* \"Vote.sol\":5310:5328  proposal. deadline */\n      0x03\n      add\n      sload\n        /* \"Vote.sol\":5189:5443  Proposal({... */\n      dup2\n      mstore\n      0x20\n      add\n        /* \"Vote.sol\":5353:5354  1 */\n      0x01\n        /* \"Vote.sol\":5189:5443  Proposal({... */\n      dup2\n      mstore\n      0x20\n      add\n        /* \"Vote.sol\":5371:5377  choice */\n      dup3\n        /* \"Vote.sol\":5189:5443  Proposal({... */\n      iszero\n      iszero\n      dup2\n      mstore\n      0x20\n      add\n        /* \"Vote.sol\":5393:5399  choice */\n      dup3\n        /* \"Vote.sol\":5189:5443  Proposal({... */\n      iszero\n      iszero\n      dup2\n      mstore\n      0x20\n      add\n        /* \"Vote.sol\":5418:5431  Status.Closed */\n      0x02\n        /* \"Vote.sol\":5189:5443  Proposal({... */\n      dup1\n      dup2\n      gt\n      iszero\n      tag_103\n      jumpi\n      tag_104\n      tag_105\n      jump\t// in\n    tag_104:\n    tag_103:\n      dup2\n      mstore\n      pop\n        /* \"Vote.sol\":5160:5168  userVote */\n      0x0c\n        /* \"Vote.sol\":5160:5174  userVote[user] */\n      0x00\n        /* \"Vote.sol\":5169:5173  user */\n      dup6\n        /* \"Vote.sol\":5160:5174  userVote[user] */\n      0xffffffffffffffffffffffffffffffffffffffff\n      and\n      0xffffffffffffffffffffffffffffffffffffffff\n      and\n      dup2\n      mstore\n      0x20\n      add\n      swap1\n      dup2\n      mstore\n      0x20\n      add\n      0x00\n      keccak256\n        /* \"Vote.sol\":5160:5186  userVote[user][proposalID] */\n      0x00\n        /* \"Vote.sol\":5175:5185  proposalID */\n      dup5\n        /* \"Vote.sol\":5160:5186  userVote[user][proposalID] */\n      dup2\n      mstore\n      0x20\n      add\n      swap1\n      dup2\n      mstore\n      0x20\n      add\n      0x00\n      keccak256\n        /* \"Vote.sol\":5160:5443  userVote[user][proposalID] = Proposal({... */\n      0x00\n      dup3\n      add\n      mload\n      dup2\n      0x00\n      add\n      sstore\n      0x20\n      dup3\n      add\n      mload\n      dup2\n      0x01\n      add\n      swap1\n      dup2\n      tag_106\n      swap2\n      swap1\n      tag_107\n      jump\t// in\n    tag_106:\n      pop\n      0x40\n      dup3\n      add\n      mload\n      dup2\n      0x02\n      add\n      swap1\n      dup2\n      tag_108\n      swap2\n      swap1\n      tag_107\n      jump\t// in\n    tag_108:\n      pop\n      0x60\n      dup3\n      add\n      mload\n      dup2\n      0x03\n      add\n      sstore\n      0x80\n      dup3\n      add\n      mload\n      dup2\n      0x04\n      add\n      sstore\n      0xa0\n      dup3\n      add\n      mload\n      dup2\n      0x05\n      add\n      exp(0x0100, 0x00)\n      dup2\n      sload\n      dup2\n      0xff\n      mul\n      not\n      and\n      swap1\n      dup4\n      iszero\n      iszero\n      mul\n      or\n      swap1\n      sstore\n      pop\n      0xc0\n      dup3\n      add\n      mload\n      dup2\n      0x05\n      add\n      exp(0x0100, 0x01)\n      dup2\n      sload\n      dup2\n      0xff\n      mul\n      not\n      and\n      swap1\n      dup4\n      iszero\n      iszero\n      mul\n      or\n      swap1\n      sstore\n      pop\n      0xe0\n      dup3\n      add\n      mload\n      dup2\n      0x05\n      add\n      exp(0x0100, 0x02)\n      dup2\n      sload\n      dup2\n      0xff\n      mul\n      not\n      and\n      swap1\n      dup4\n      0x02\n      dup2\n      gt\n      iszero\n      tag_109\n      jumpi\n      tag_110\n      tag_105\n      jump\t// in\n    tag_110:\n    tag_109:\n      mul\n      or\n      swap1\n      sstore\n      pop\n      swap1\n      pop\n      pop\n        /* \"Vote.sol\":4417:5479  function voteByAddress(address user, uint proposalID, bool choice) external {... */\n      pop\n      pop\n      pop\n      jump\t// out\n        /* \"Vote.sol\":385:405  Status public status */\n    tag_35:\n      0x00\n      0x14\n      swap1\n      sload\n      swap1\n      0x0100\n      exp\n      swap1\n      div\n      0xff\n      and\n      dup2\n      jump\t// out\n        /* \"Vote.sol\":1638:1654  uint[] public op */\n    tag_40:\n      0x0d\n      dup2\n      dup2\n      sload\n      dup2\n      lt\n      tag_111\n      jumpi\n      0x00\n      dup1\n      revert\n    tag_111:\n      swap1\n      0x00\n      mstore\n      keccak256(0x00, 0x20)\n      add\n      0x00\n      swap2\n      pop\n      swap1\n      pop\n      sload\n      dup2\n      jump\t// out\n        /* \"Vote.sol\":412:436  Proposal public proposal */\n    tag_43:\n      0x01\n      dup1\n      0x00\n      add\n      sload\n      swap1\n      dup1\n      0x01\n      add\n      dup1\n      sload\n      tag_113\n      swap1\n      tag_66\n      jump\t// in\n    tag_113:\n      dup1\n      0x1f\n      add\n      0x20\n      dup1\n      swap2\n      div\n      mul\n      0x20\n      add\n      mload(0x40)\n      swap1\n      dup2\n      add\n      0x40\n      mstore\n      dup1\n      swap3\n      swap2\n      swap1\n      dup2\n      dup2\n      mstore\n      0x20\n      add\n      dup3\n      dup1\n      sload\n      tag_114\n      swap1\n      tag_66\n      jump\t// in\n    tag_114:\n      dup1\n      iszero\n      tag_115\n      jumpi\n      dup1\n      0x1f\n      lt\n      tag_116\n      jumpi\n      0x0100\n      dup1\n      dup4\n      sload\n      div\n      mul\n      dup4\n      mstore\n      swap2\n      0x20\n      add\n      swap2\n      jump(tag_115)\n    tag_116:\n      dup3\n      add\n      swap2\n      swap1\n      0x00\n      mstore\n      keccak256(0x00, 0x20)\n      swap1\n    tag_117:\n      dup2\n      sload\n      dup2\n      mstore\n      swap1\n      0x01\n      add\n      swap1\n      0x20\n      add\n      dup1\n      dup4\n      gt\n      tag_117\n      jumpi\n      dup3\n      swap1\n      sub\n      0x1f\n      and\n      dup3\n      add\n      swap2\n    tag_115:\n      pop\n      pop\n      pop\n      pop\n      pop\n      swap1\n      dup1\n      0x02\n      add\n      dup1\n      sload\n      tag_118\n      swap1\n      tag_66\n      jump\t// in\n    tag_118:\n      dup1\n      0x1f\n      add\n      0x20\n      dup1\n      swap2\n      div\n      mul\n      0x20\n      add\n      mload(0x40)\n      swap1\n      dup2\n      add\n      0x40\n      mstore\n      dup1\n      swap3\n      swap2\n      swap1\n      dup2\n      dup2\n      mstore\n      0x20\n      add\n      dup3\n      dup1\n      sload\n      tag_119\n      swap1\n      tag_66\n      jump\t// in\n    tag_119:\n      dup1\n      iszero\n      tag_120\n      jumpi\n      dup1\n      0x1f\n      lt\n      tag_121\n      jumpi\n      0x0100\n      dup1\n      dup4\n      sload\n      div\n      mul\n      dup4\n      mstore\n      swap2\n      0x20\n      add\n      swap2\n      jump(tag_120)\n    tag_121:\n      dup3\n      add\n      swap2\n      swap1\n      0x00\n      mstore\n      keccak256(0x00, 0x20)\n      swap1\n    tag_122:\n      dup2\n      sload\n      dup2\n      mstore\n      swap1\n      0x01\n      add\n      swap1\n      0x20\n      add\n      dup1\n      dup4\n      gt\n      tag_122\n      jumpi\n      dup3\n      swap1\n      sub\n      0x1f\n      and\n      dup3\n      add\n      swap2\n    tag_120:\n      pop\n      pop\n      pop\n      pop\n      pop\n      swap1\n      dup1\n      0x03\n      add\n      sload\n      swap1\n      dup1\n      0x04\n      add\n      sload\n      swap1\n      dup1\n      0x05\n      add\n      0x00\n      swap1\n      sload\n      swap1\n      0x0100\n      exp\n      swap1\n      div\n      0xff\n      and\n      swap1\n      dup1\n      0x05\n      add\n      0x01\n      swap1\n      sload\n      swap1\n      0x0100\n      exp\n      swap1\n      div\n      0xff\n      and\n      swap1\n      dup1\n      0x05\n      add\n      0x02\n      swap1\n      sload\n      swap1\n      0x0100\n      exp\n      swap1\n      div\n      0xff\n      and\n      swap1\n      pop\n      dup9\n      jump\t// out\n        /* \"Vote.sol\":3945:4066  function closeProposals() external returns(bool){... */\n    tag_46:\n        /* \"Vote.sol\":3988:3992  bool */\n      0x00\n        /* \"Vote.sol\":4022:4035  Status.Closed */\n      0x02\n        /* \"Vote.sol\":4004:4012  proposal */\n      0x01\n        /* \"Vote.sol\":4004:4019  proposal.status */\n      0x05\n      add\n      0x02\n        /* \"Vote.sol\":4004:4035  proposal.status = Status.Closed */\n      0x0100\n      exp\n      dup2\n      sload\n      dup2\n      0xff\n      mul\n      not\n      and\n      swap1\n      dup4\n      0x02\n      dup2\n      gt\n      iszero\n      tag_124\n      jumpi\n      tag_125\n      tag_105\n      jump\t// in\n    tag_125:\n    tag_124:\n      mul\n      or\n      swap1\n      sstore\n      pop\n        /* \"Vote.sol\":4052:4056  true */\n      0x01\n        /* \"Vote.sol\":4045:4056  return true */\n      swap1\n      pop\n        /* \"Vote.sol\":3945:4066  function closeProposals() external returns(bool){... */\n      swap1\n      jump\t// out\n        /* \"Vote.sol\":4284:4408  function getProposalDataById(uint _id) external view returns(Proposal memory) {... */\n    tag_51:\n        /* \"Vote.sol\":4345:4360  Proposal memory */\n      tag_126\n      tag_127\n      jump\t// in\n    tag_126:\n        /* \"Vote.sol\":4380:4393  proposalPerId */\n      0x09\n        /* \"Vote.sol\":4380:4398  proposalPerId[_id] */\n      0x00\n        /* \"Vote.sol\":4394:4397  _id */\n      dup4\n        /* \"Vote.sol\":4380:4398  proposalPerId[_id] */\n      dup2\n      mstore\n      0x20\n      add\n      swap1\n      dup2\n      mstore\n      0x20\n      add\n      0x00\n      keccak256\n        /* \"Vote.sol\":4373:4398  return proposalPerId[_id] */\n      mload(0x40)\n      dup1\n      0x0100\n      add\n      0x40\n      mstore\n      swap1\n      dup2\n      0x00\n      dup3\n      add\n      sload\n      dup2\n      mstore\n      0x20\n      add\n      0x01\n      dup3\n      add\n      dup1\n      sload\n      tag_129\n      swap1\n      tag_66\n      jump\t// in\n    tag_129:\n      dup1\n      0x1f\n      add\n      0x20\n      dup1\n      swap2\n      div\n      mul\n      0x20\n      add\n      mload(0x40)\n      swap1\n      dup2\n      add\n      0x40\n      mstore\n      dup1\n      swap3\n      swap2\n      swap1\n      dup2\n      dup2\n      mstore\n      0x20\n      add\n      dup3\n      dup1\n      sload\n      tag_130\n      swap1\n      tag_66\n      jump\t// in\n    tag_130:\n      dup1\n      iszero\n      tag_131\n      jumpi\n      dup1\n      0x1f\n      lt\n      tag_132\n      jumpi\n      0x0100\n      dup1\n      dup4\n      sload\n      div\n      mul\n      dup4\n      mstore\n      swap2\n      0x20\n      add\n      swap2\n      jump(tag_131)\n    tag_132:\n      dup3\n      add\n      swap2\n      swap1\n      0x00\n      mstore\n      keccak256(0x00, 0x20)\n      swap1\n    tag_133:\n      dup2\n      sload\n      dup2\n      mstore\n      swap1\n      0x01\n      add\n      swap1\n      0x20\n      add\n      dup1\n      dup4\n      gt\n      tag_133\n      jumpi\n      dup3\n      swap1\n      sub\n      0x1f\n      and\n      dup3\n      add\n      swap2\n    tag_131:\n      pop\n      pop\n      pop\n      pop\n      pop\n      dup2\n      mstore\n      0x20\n      add\n      0x02\n      dup3\n      add\n      dup1\n      sload\n      tag_134\n      swap1\n      tag_66\n      jump\t// in\n    tag_134:\n      dup1\n      0x1f\n      add\n      0x20\n      dup1\n      swap2\n      div\n      mul\n      0x20\n      add\n      mload(0x40)\n      swap1\n      dup2\n      add\n      0x40\n      mstore\n      dup1\n      swap3\n      swap2\n      swap1\n      dup2\n      dup2\n      mstore\n      0x20\n      add\n      dup3\n      dup1\n      sload\n      tag_135\n      swap1\n      tag_66\n      jump\t// in\n    tag_135:\n      dup1\n      iszero\n      tag_136\n      jumpi\n      dup1\n      0x1f\n      lt\n      tag_137\n      jumpi\n      0x0100\n      dup1\n      dup4\n      sload\n      div\n      mul\n      dup4\n      mstore\n      swap2\n      0x20\n      add\n      swap2\n      jump(tag_136)\n    tag_137:\n      dup3\n      add\n      swap2\n      swap1\n      0x00\n      mstore\n      keccak256(0x00, 0x20)\n      swap1\n    tag_138:\n      dup2\n      sload\n      dup2\n      mstore\n      swap1\n      0x01\n      add\n      swap1\n      0x20\n      add\n      dup1\n      dup4\n      gt\n      tag_138\n      jumpi\n      dup3\n      swap1\n      sub\n      0x1f\n      and\n      dup3\n      add\n      swap2\n    tag_136:\n      pop\n      pop\n      pop\n      pop\n      pop\n      dup2\n      mstore\n      0x20\n      add\n      0x03\n      dup3\n      add\n      sload\n      dup2\n      mstore\n      0x20\n      add\n      0x04\n      dup3\n      add\n      sload\n      dup2\n      mstore\n      0x20\n      add\n      0x05\n      dup3\n      add\n      0x00\n      swap1\n      sload\n      swap1\n      0x0100\n      exp\n      swap1\n      div\n      0xff\n      and\n      iszero\n      iszero\n      iszero\n      iszero\n      dup2\n      mstore\n      0x20\n      add\n      0x05\n      dup3\n      add\n      0x01\n      swap1\n      sload\n      swap1\n      0x0100\n      exp\n      swap1\n      div\n      0xff\n      and\n      iszero\n      iszero\n      iszero\n      iszero\n      dup2\n      mstore\n      0x20\n      add\n      0x05\n      dup3\n      add\n      0x02\n      swap1\n      sload\n      swap1\n      0x0100\n      exp\n      swap1\n      div\n      0xff\n      and\n      0x02\n      dup2\n      gt\n      iszero\n      tag_139\n      jumpi\n      tag_140\n      tag_105\n      jump\t// in\n    tag_140:\n    tag_139:\n      0x02\n      dup2\n      gt\n      iszero\n      tag_141\n      jumpi\n      tag_142\n      tag_105\n      jump\t// in\n    tag_142:\n    tag_141:\n      dup2\n      mstore\n      pop\n      pop\n      swap1\n      pop\n        /* \"Vote.sol\":4284:4408  function getProposalDataById(uint _id) external view returns(Proposal memory) {... */\n      swap2\n      swap1\n      pop\n      jump\t// out\n        /* \"Vote.sol\":3660:3936  function extendProposals(uint _newDeadLineTime) external onlyOwner(owner) returns(uint) {... */\n    tag_56:\n        /* \"Vote.sol\":3742:3746  uint */\n      0x00\n        /* \"Vote.sol\":3727:3732  owner */\n      0x00\n      0x00\n      swap1\n      sload\n      swap1\n      0x0100\n      exp\n      swap1\n      div\n      0xffffffffffffffffffffffffffffffffffffffff\n      and\n        /* \"Vote.sol\":1570:1580  msg.sender */\n      caller\n        /* \"Vote.sol\":1561:1580  _user == msg.sender */\n      0xffffffffffffffffffffffffffffffffffffffff\n      and\n        /* \"Vote.sol\":1561:1566  _user */\n      dup2\n        /* \"Vote.sol\":1561:1580  _user == msg.sender */\n      0xffffffffffffffffffffffffffffffffffffffff\n      and\n      eq\n        /* \"Vote.sol\":1553:1617  require(_user == msg.sender,\"only owner can perform the tasks\" ) */\n      tag_144\n      jumpi\n      mload(0x40)\n      0x08c379a000000000000000000000000000000000000000000000000000000000\n      dup2\n      mstore\n      0x04\n      add\n      tag_145\n      swap1\n      tag_146\n      jump\t// in\n    tag_145:\n      mload(0x40)\n      dup1\n      swap2\n      sub\n      swap1\n      revert\n    tag_144:\n        /* \"Vote.sol\":3787:3802  block.timestamp */\n      timestamp\n        /* \"Vote.sol\":3768:3784  _newDeadLineTime */\n      dup4\n        /* \"Vote.sol\":3768:3802  _newDeadLineTime > block.timestamp */\n      gt\n        /* \"Vote.sol\":3760:3842  require(_newDeadLineTime > block.timestamp,\"the deadline can not be in past time\") */\n      tag_148\n      jumpi\n      mload(0x40)\n      0x08c379a000000000000000000000000000000000000000000000000000000000\n      dup2\n      mstore\n      0x04\n      add\n      tag_149\n      swap1\n      tag_150\n      jump\t// in\n    tag_149:\n      mload(0x40)\n      dup1\n      swap2\n      sub\n      swap1\n      revert\n    tag_148:\n        /* \"Vote.sol\":3874:3890  _newDeadLineTime */\n      dup3\n        /* \"Vote.sol\":3854:3862  proposal */\n      0x01\n        /* \"Vote.sol\":3854:3871  proposal.deadline */\n      0x03\n      add\n        /* \"Vote.sol\":3854:3890  proposal.deadline = _newDeadLineTime */\n      dup2\n      swap1\n      sstore\n      pop\n        /* \"Vote.sol\":3909:3917  proposal */\n      0x01\n        /* \"Vote.sol\":3909:3926  proposal.deadline */\n      0x03\n      add\n      sload\n        /* \"Vote.sol\":3902:3926  return proposal.deadline */\n      swap2\n      pop\n        /* \"Vote.sol\":3660:3936  function extendProposals(uint _newDeadLineTime) external onlyOwner(owner) returns(uint) {... */\n      pop\n      swap2\n      swap1\n      pop\n      jump\t// out\n        /* \"Vote.sol\":2051:3468  function createProposals( uint _id,string memory _name,string memory _desc, uint _deadline) ... */\n    tag_61:\n        /* \"Vote.sol\":2187:2202  Proposal memory */\n      tag_151\n      tag_127\n      jump\t// in\n    tag_151:\n        /* \"Vote.sol\":2171:2176  owner */\n      0x00\n      0x00\n      swap1\n      sload\n      swap1\n      0x0100\n      exp\n      swap1\n      div\n      0xffffffffffffffffffffffffffffffffffffffff\n      and\n        /* \"Vote.sol\":1570:1580  msg.sender */\n      caller\n        /* \"Vote.sol\":1561:1580  _user == msg.sender */\n      0xffffffffffffffffffffffffffffffffffffffff\n      and\n        /* \"Vote.sol\":1561:1566  _user */\n      dup2\n        /* \"Vote.sol\":1561:1580  _user == msg.sender */\n      0xffffffffffffffffffffffffffffffffffffffff\n      and\n      eq\n        /* \"Vote.sol\":1553:1617  require(_user == msg.sender,\"only owner can perform the tasks\" ) */\n      tag_153\n      jumpi\n      mload(0x40)\n      0x08c379a000000000000000000000000000000000000000000000000000000000\n      dup2\n      mstore\n      0x04\n      add\n      tag_154\n      swap1\n      tag_146\n      jump\t// in\n    tag_154:\n      mload(0x40)\n      dup1\n      swap2\n      sub\n      swap1\n      revert\n    tag_153:\n        /* \"Vote.sol\":2336:2337  0 */\n      0x00\n        /* \"Vote.sol\":2329:2332  _id */\n      dup7\n        /* \"Vote.sol\":2329:2337  _id != 0 */\n      sub\n        /* \"Vote.sol\":2321:2372  require(_id != 0,\"proposal id is zero and invalid\") */\n      tag_156\n      jumpi\n      mload(0x40)\n      0x08c379a000000000000000000000000000000000000000000000000000000000\n      dup2\n      mstore\n      0x04\n      add\n      tag_157\n      swap1\n      tag_158\n      jump\t// in\n    tag_157:\n      mload(0x40)\n      dup1\n      swap2\n      sub\n      swap1\n      revert\n    tag_156:\n        /* \"Vote.sol\":2401:2409  proposal */\n      0x01\n        /* \"Vote.sol\":2401:2412  proposal.id */\n      0x00\n      add\n      sload\n        /* \"Vote.sol\":2394:2397  _id */\n      dup7\n        /* \"Vote.sol\":2394:2412  _id != proposal.id */\n      sub\n        /* \"Vote.sol\":2386:2442  require(_id != proposal.id,\"Proposal ID Already Exists\") */\n      tag_159\n      jumpi\n      mload(0x40)\n      0x08c379a000000000000000000000000000000000000000000000000000000000\n      dup2\n      mstore\n      0x04\n      add\n      tag_160\n      swap1\n      tag_161\n      jump\t// in\n    tag_160:\n      mload(0x40)\n      dup1\n      swap2\n      sub\n      swap1\n      revert\n    tag_159:\n        /* \"Vote.sol\":2565:2580  block.timestamp */\n      timestamp\n        /* \"Vote.sol\":2553:2562  _deadline */\n      dup4\n        /* \"Vote.sol\":2553:2580  _deadline > block.timestamp */\n      gt\n        /* \"Vote.sol\":2545:2622  require(_deadline > block.timestamp,\"deadline cannot be in past time passed\") */\n      tag_162\n      jumpi\n      mload(0x40)\n      0x08c379a000000000000000000000000000000000000000000000000000000000\n      dup2\n      mstore\n      0x04\n      add\n      tag_163\n      swap1\n      tag_164\n      jump\t// in\n    tag_163:\n      mload(0x40)\n      dup1\n      swap2\n      sub\n      swap1\n      revert\n    tag_162:\n        /* \"Vote.sol\":2723:2724  0 */\n      0x00\n        /* \"Vote.sol\":2701:2709  proposal */\n      0x01\n        /* \"Vote.sol\":2701:2719  proposal.voteCount */\n      0x04\n      add\n      sload\n        /* \"Vote.sol\":2701:2724  proposal.voteCount == 0 */\n      eq\n        /* \"Vote.sol\":2693:2742  require(proposal.voteCount == 0, \"already voted\") */\n      tag_165\n      jumpi\n      mload(0x40)\n      0x08c379a000000000000000000000000000000000000000000000000000000000\n      dup2\n      mstore\n      0x04\n      add\n      tag_166\n      swap1\n      tag_167\n      jump\t// in\n    tag_166:\n      mload(0x40)\n      dup1\n      swap2\n      sub\n      swap1\n      revert\n    tag_165:\n        /* \"Vote.sol\":2885:2896  Status.None */\n      0x00\n        /* \"Vote.sol\":2866:2896  proposal.status == Status.None */\n      0x02\n      dup2\n      gt\n      iszero\n      tag_168\n      jumpi\n      tag_169\n      tag_105\n      jump\t// in\n    tag_169:\n    tag_168:\n        /* \"Vote.sol\":2866:2874  proposal */\n      0x01\n        /* \"Vote.sol\":2866:2881  proposal.status */\n      0x05\n      add\n      0x02\n      swap1\n      sload\n      swap1\n      0x0100\n      exp\n      swap1\n      div\n      0xff\n      and\n        /* \"Vote.sol\":2866:2896  proposal.status == Status.None */\n      0x02\n      dup2\n      gt\n      iszero\n      tag_170\n      jumpi\n      tag_171\n      tag_105\n      jump\t// in\n    tag_171:\n    tag_170:\n      eq\n        /* \"Vote.sol\":2858:2923  require(proposal.status == Status.None,\"proposal already exists\") */\n      tag_172\n      jumpi\n      mload(0x40)\n      0x08c379a000000000000000000000000000000000000000000000000000000000\n      dup2\n      mstore\n      0x04\n      add\n      tag_173\n      swap1\n      tag_174\n      jump\t// in\n    tag_173:\n      mload(0x40)\n      dup1\n      swap2\n      sub\n      swap1\n      revert\n    tag_172:\n        /* \"Vote.sol\":3088:3115  Proposal memory newProposal */\n      0x00\n        /* \"Vote.sol\":3118:3386  Proposal({... */\n      mload(0x40)\n      dup1\n      0x0100\n      add\n      0x40\n      mstore\n      dup1\n        /* \"Vote.sol\":3150:3153  _id */\n      dup9\n        /* \"Vote.sol\":3118:3386  Proposal({... */\n      dup2\n      mstore\n      0x20\n      add\n        /* \"Vote.sol\":3178:3183  _name */\n      dup8\n        /* \"Vote.sol\":3118:3386  Proposal({... */\n      dup2\n      mstore\n      0x20\n      add\n        /* \"Vote.sol\":3207:3212  _desc */\n      dup7\n        /* \"Vote.sol\":3118:3386  Proposal({... */\n      dup2\n      mstore\n      0x20\n      add\n        /* \"Vote.sol\":3241:3250  _deadline */\n      dup6\n        /* \"Vote.sol\":3118:3386  Proposal({... */\n      dup2\n      mstore\n      0x20\n      add\n        /* \"Vote.sol\":3278:3279  0 */\n      0x00\n        /* \"Vote.sol\":3118:3386  Proposal({... */\n      dup2\n      mstore\n      0x20\n      add\n        /* \"Vote.sol\":3303:3308  false */\n      0x00\n        /* \"Vote.sol\":3118:3386  Proposal({... */\n      iszero\n      iszero\n      dup2\n      mstore\n      0x20\n      add\n        /* \"Vote.sol\":3330:3335  false */\n      0x00\n        /* \"Vote.sol\":3118:3386  Proposal({... */\n      iszero\n      iszero\n      dup2\n      mstore\n      0x20\n      add\n        /* \"Vote.sol\":3360:3371  Status.Open */\n      0x01\n        /* \"Vote.sol\":3118:3386  Proposal({... */\n      0x02\n      dup2\n      gt\n      iszero\n      tag_175\n      jumpi\n      tag_176\n      tag_105\n      jump\t// in\n    tag_176:\n    tag_175:\n      dup2\n      mstore\n      pop\n        /* \"Vote.sol\":3088:3386  Proposal memory newProposal = Proposal({... */\n      swap1\n      pop\n        /* \"Vote.sol\":3399:3408  proposals */\n      0x07\n        /* \"Vote.sol\":3414:3425  newProposal */\n      dup2\n        /* \"Vote.sol\":3399:3426  proposals.push(newProposal) */\n      swap1\n      dup1\n      0x01\n      dup2\n      sload\n      add\n      dup1\n      dup3\n      sstore\n      dup1\n      swap2\n      pop\n      pop\n      0x01\n      swap1\n      sub\n      swap1\n      0x00\n      mstore\n      keccak256(0x00, 0x20)\n      swap1\n      0x06\n      mul\n      add\n      0x00\n      swap1\n      swap2\n      swap1\n      swap2\n      swap1\n      swap2\n      pop\n      0x00\n      dup3\n      add\n      mload\n      dup2\n      0x00\n      add\n      sstore\n      0x20\n      dup3\n      add\n      mload\n      dup2\n      0x01\n      add\n      swap1\n      dup2\n      tag_178\n      swap2\n      swap1\n      tag_107\n      jump\t// in\n    tag_178:\n      pop\n      0x40\n      dup3\n      add\n      mload\n      dup2\n      0x02\n      add\n      swap1\n      dup2\n      tag_179\n      swap2\n      swap1\n      tag_107\n      jump\t// in\n    tag_179:\n      pop\n      0x60\n      dup3\n      add\n      mload\n      dup2\n      0x03\n      add\n      sstore\n      0x80\n      dup3\n      add\n      mload\n      dup2\n      0x04\n      add\n      sstore\n      0xa0\n      dup3\n      add\n      mload\n      dup2\n      0x05\n      add\n      exp(0x0100, 0x00)\n      dup2\n      sload\n      dup2\n      0xff\n      mul\n      not\n      and\n      swap1\n      dup4\n      iszero\n      iszero\n      mul\n      or\n      swap1\n      sstore\n      pop\n      0xc0\n      dup3\n      add\n      mload\n      dup2\n      0x05\n      add\n      exp(0x0100, 0x01)\n      dup2\n      sload\n      dup2\n      0xff\n      mul\n      not\n      and\n      swap1\n      dup4\n      iszero\n      iszero\n      mul\n      or\n      swap1\n      sstore\n      pop\n      0xe0\n      dup3\n      add\n      mload\n      dup2\n      0x05\n      add\n      exp(0x0100, 0x02)\n      dup2\n      sload\n      dup2\n      0xff\n      mul\n      not\n      and\n      swap1\n      dup4\n      0x02\n      dup2\n      gt\n      iszero\n      tag_180\n      jumpi\n      tag_181\n      tag_105\n      jump\t// in\n    tag_181:\n    tag_180:\n      mul\n      or\n      swap1\n      sstore\n      pop\n      pop\n      pop\n        /* \"Vote.sol\":3447:3458  newProposal */\n      dup1\n        /* \"Vote.sol\":3440:3458  return newProposal */\n      swap3\n      pop\n      pop\n        /* \"Vote.sol\":2051:3468  function createProposals( uint _id,string memory _name,string memory _desc, uint _deadline) ... */\n      pop\n      swap5\n      swap4\n      pop\n      pop\n      pop\n      pop\n      jump\t// out\n    tag_127:\n      mload(0x40)\n      dup1\n      0x0100\n      add\n      0x40\n      mstore\n      dup1\n      0x00\n      dup2\n      mstore\n      0x20\n      add\n      0x60\n      dup2\n      mstore\n      0x20\n      add\n      0x60\n      dup2\n      mstore\n      0x20\n      add\n      0x00\n      dup2\n      mstore\n      0x20\n      add\n      0x00\n      dup2\n      mstore\n      0x20\n      add\n      iszero(iszero(0x00))\n      dup2\n      mstore\n      0x20\n      add\n      iszero(iszero(0x00))\n      dup2\n      mstore\n      0x20\n      add\n      0x00\n      0x02\n      dup2\n      gt\n      iszero\n      tag_182\n      jumpi\n      tag_183\n      tag_105\n      jump\t// in\n    tag_183:\n    tag_182:\n      dup2\n      mstore\n      pop\n      swap1\n      jump\t// out\n        /* \"#utility.yul\":7:82   */\n    tag_184:\n        /* \"#utility.yul\":40:46   */\n      0x00\n        /* \"#utility.yul\":73:75   */\n      0x40\n        /* \"#utility.yul\":67:76   */\n      mload\n        /* \"#utility.yul\":57:76   */\n      swap1\n      pop\n        /* \"#utility.yul\":7:82   */\n      swap1\n      jump\t// out\n        /* \"#utility.yul\":88:205   */\n    tag_185:\n        /* \"#utility.yul\":197:198   */\n      0x00\n        /* \"#utility.yul\":194:195   */\n      0x00\n        /* \"#utility.yul\":187:199   */\n      revert\n        /* \"#utility.yul\":211:328   */\n    tag_186:\n        /* \"#utility.yul\":320:321   */\n      0x00\n        /* \"#utility.yul\":317:318   */\n      0x00\n        /* \"#utility.yul\":310:322   */\n      revert\n        /* \"#utility.yul\":334:411   */\n    tag_187:\n        /* \"#utility.yul\":371:378   */\n      0x00\n        /* \"#utility.yul\":400:405   */\n      dup2\n        /* \"#utility.yul\":389:405   */\n      swap1\n      pop\n        /* \"#utility.yul\":334:411   */\n      swap2\n      swap1\n      pop\n      jump\t// out\n        /* \"#utility.yul\":417:539   */\n    tag_188:\n        /* \"#utility.yul\":490:514   */\n      tag_267\n        /* \"#utility.yul\":508:513   */\n      dup2\n        /* \"#utility.yul\":490:514   */\n      tag_187\n      jump\t// in\n    tag_267:\n        /* \"#utility.yul\":483:488   */\n      dup2\n        /* \"#utility.yul\":480:515   */\n      eq\n        /* \"#utility.yul\":470:533   */\n      tag_268\n      jumpi\n        /* \"#utility.yul\":529:530   */\n      0x00\n        /* \"#utility.yul\":526:527   */\n      0x00\n        /* \"#utility.yul\":519:531   */\n      revert\n        /* \"#utility.yul\":470:533   */\n    tag_268:\n        /* \"#utility.yul\":417:539   */\n      pop\n      jump\t// out\n        /* \"#utility.yul\":545:684   */\n    tag_189:\n        /* \"#utility.yul\":591:596   */\n      0x00\n        /* \"#utility.yul\":629:635   */\n      dup2\n        /* \"#utility.yul\":616:636   */\n      calldataload\n        /* \"#utility.yul\":607:636   */\n      swap1\n      pop\n        /* \"#utility.yul\":645:678   */\n      tag_270\n        /* \"#utility.yul\":672:677   */\n      dup2\n        /* \"#utility.yul\":645:678   */\n      tag_188\n      jump\t// in\n    tag_270:\n        /* \"#utility.yul\":545:684   */\n      swap3\n      swap2\n      pop\n      pop\n      jump\t// out\n        /* \"#utility.yul\":690:1019   */\n    tag_17:\n        /* \"#utility.yul\":749:755   */\n      0x00\n        /* \"#utility.yul\":798:800   */\n      0x20\n        /* \"#utility.yul\":786:795   */\n      dup3\n        /* \"#utility.yul\":777:784   */\n      dup5\n        /* \"#utility.yul\":773:796   */\n      sub\n        /* \"#utility.yul\":769:801   */\n      slt\n        /* \"#utility.yul\":766:885   */\n      iszero\n      tag_272\n      jumpi\n        /* \"#utility.yul\":804:883   */\n      tag_273\n      tag_185\n      jump\t// in\n    tag_273:\n        /* \"#utility.yul\":766:885   */\n    tag_272:\n        /* \"#utility.yul\":924:925   */\n      0x00\n        /* \"#utility.yul\":949:1002   */\n      tag_274\n        /* \"#utility.yul\":994:1001   */\n      dup5\n        /* \"#utility.yul\":985:991   */\n      dup3\n        /* \"#utility.yul\":974:983   */\n      dup6\n        /* \"#utility.yul\":970:992   */\n      add\n        /* \"#utility.yul\":949:1002   */\n      tag_189\n      jump\t// in\n    tag_274:\n        /* \"#utility.yul\":939:1002   */\n      swap2\n      pop\n        /* \"#utility.yul\":895:1012   */\n      pop\n        /* \"#utility.yul\":690:1019   */\n      swap3\n      swap2\n      pop\n      pop\n      jump\t// out\n        /* \"#utility.yul\":1025:1143   */\n    tag_190:\n        /* \"#utility.yul\":1112:1136   */\n      tag_276\n        /* \"#utility.yul\":1130:1135   */\n      dup2\n        /* \"#utility.yul\":1112:1136   */\n      tag_187\n      jump\t// in\n    tag_276:\n        /* \"#utility.yul\":1107:1110   */\n      dup3\n        /* \"#utility.yul\":1100:1137   */\n      mstore\n        /* \"#utility.yul\":1025:1143   */\n      pop\n      pop\n      jump\t// out\n        /* \"#utility.yul\":1149:1248   */\n    tag_191:\n        /* \"#utility.yul\":1201:1207   */\n      0x00\n        /* \"#utility.yul\":1235:1240   */\n      dup2\n        /* \"#utility.yul\":1229:1241   */\n      mload\n        /* \"#utility.yul\":1219:1241   */\n      swap1\n      pop\n        /* \"#utility.yul\":1149:1248   */\n      swap2\n      swap1\n      pop\n      jump\t// out\n        /* \"#utility.yul\":1254:1423   */\n    tag_192:\n        /* \"#utility.yul\":1338:1349   */\n      0x00\n        /* \"#utility.yul\":1372:1378   */\n      dup3\n        /* \"#utility.yul\":1367:1370   */\n      dup3\n        /* \"#utility.yul\":1360:1379   */\n      mstore\n        /* \"#utility.yul\":1412:1416   */\n      0x20\n        /* \"#utility.yul\":1407:1410   */\n      dup3\n        /* \"#utility.yul\":1403:1417   */\n      add\n        /* \"#utility.yul\":1388:1417   */\n      swap1\n      pop\n        /* \"#utility.yul\":1254:1423   */\n      swap3\n      swap2\n      pop\n      pop\n      jump\t// out\n        /* \"#utility.yul\":1429:1568   */\n    tag_193:\n        /* \"#utility.yul\":1518:1524   */\n      dup3\n        /* \"#utility.yul\":1513:1516   */\n      dup2\n        /* \"#utility.yul\":1508:1511   */\n      dup4\n        /* \"#utility.yul\":1502:1525   */\n      mcopy\n        /* \"#utility.yul\":1559:1560   */\n      0x00\n        /* \"#utility.yul\":1550:1556   */\n      dup4\n        /* \"#utility.yul\":1545:1548   */\n      dup4\n        /* \"#utility.yul\":1541:1557   */\n      add\n        /* \"#utility.yul\":1534:1561   */\n      mstore\n        /* \"#utility.yul\":1429:1568   */\n      pop\n      pop\n      pop\n      jump\t// out\n        /* \"#utility.yul\":1574:1676   */\n    tag_194:\n        /* \"#utility.yul\":1615:1621   */\n      0x00\n        /* \"#utility.yul\":1666:1668   */\n      0x1f\n        /* \"#utility.yul\":1662:1669   */\n      not\n        /* \"#utility.yul\":1657:1659   */\n      0x1f\n        /* \"#utility.yul\":1650:1655   */\n      dup4\n        /* \"#utility.yul\":1646:1660   */\n      add\n        /* \"#utility.yul\":1642:1670   */\n      and\n        /* \"#utility.yul\":1632:1670   */\n      swap1\n      pop\n        /* \"#utility.yul\":1574:1676   */\n      swap2\n      swap1\n      pop\n      jump\t// out\n        /* \"#utility.yul\":1682:2059   */\n    tag_195:\n        /* \"#utility.yul\":1770:1773   */\n      0x00\n        /* \"#utility.yul\":1798:1837   */\n      tag_282\n        /* \"#utility.yul\":1831:1836   */\n      dup3\n        /* \"#utility.yul\":1798:1837   */\n      tag_191\n      jump\t// in\n    tag_282:\n        /* \"#utility.yul\":1853:1924   */\n      tag_283\n        /* \"#utility.yul\":1917:1923   */\n      dup2\n        /* \"#utility.yul\":1912:1915   */\n      dup6\n        /* \"#utility.yul\":1853:1924   */\n      tag_192\n      jump\t// in\n    tag_283:\n        /* \"#utility.yul\":1846:1924   */\n      swap4\n      pop\n        /* \"#utility.yul\":1933:1998   */\n      tag_284\n        /* \"#utility.yul\":1991:1997   */\n      dup2\n        /* \"#utility.yul\":1986:1989   */\n      dup6\n        /* \"#utility.yul\":1979:1983   */\n      0x20\n        /* \"#utility.yul\":1972:1977   */\n      dup7\n        /* \"#utility.yul\":1968:1984   */\n      add\n        /* \"#utility.yul\":1933:1998   */\n      tag_193\n      jump\t// in\n    tag_284:\n        /* \"#utility.yul\":2023:2052   */\n      tag_285\n        /* \"#utility.yul\":2045:2051   */\n      dup2\n        /* \"#utility.yul\":2023:2052   */\n      tag_194\n      jump\t// in\n    tag_285:\n        /* \"#utility.yul\":2018:2021   */\n      dup5\n        /* \"#utility.yul\":2014:2053   */\n      add\n        /* \"#utility.yul\":2007:2053   */\n      swap2\n      pop\n        /* \"#utility.yul\":1774:2059   */\n      pop\n        /* \"#utility.yul\":1682:2059   */\n      swap3\n      swap2\n      pop\n      pop\n      jump\t// out\n        /* \"#utility.yul\":2065:2155   */\n    tag_196:\n        /* \"#utility.yul\":2099:2106   */\n      0x00\n        /* \"#utility.yul\":2142:2147   */\n      dup2\n        /* \"#utility.yul\":2135:2148   */\n      iszero\n        /* \"#utility.yul\":2128:2149   */\n      iszero\n        /* \"#utility.yul\":2117:2149   */\n      swap1\n      pop\n        /* \"#utility.yul\":2065:2155   */\n      swap2\n      swap1\n      pop\n      jump\t// out\n        /* \"#utility.yul\":2161:2270   */\n    tag_197:\n        /* \"#utility.yul\":2242:2263   */\n      tag_288\n        /* \"#utility.yul\":2257:2262   */\n      dup2\n        /* \"#utility.yul\":2242:2263   */\n      tag_196\n      jump\t// in\n    tag_288:\n        /* \"#utility.yul\":2237:2240   */\n      dup3\n        /* \"#utility.yul\":2230:2264   */\n      mstore\n        /* \"#utility.yul\":2161:2270   */\n      pop\n      pop\n      jump\t// out\n        /* \"#utility.yul\":2276:2456   */\n    tag_105:\n        /* \"#utility.yul\":2324:2401   */\n      0x4e487b7100000000000000000000000000000000000000000000000000000000\n        /* \"#utility.yul\":2321:2322   */\n      0x00\n        /* \"#utility.yul\":2314:2402   */\n      mstore\n        /* \"#utility.yul\":2421:2425   */\n      0x21\n        /* \"#utility.yul\":2418:2419   */\n      0x04\n        /* \"#utility.yul\":2411:2426   */\n      mstore\n        /* \"#utility.yul\":2445:2449   */\n      0x24\n        /* \"#utility.yul\":2442:2443   */\n      0x00\n        /* \"#utility.yul\":2435:2450   */\n      revert\n        /* \"#utility.yul\":2462:2576   */\n    tag_198:\n        /* \"#utility.yul\":2544:2545   */\n      0x03\n        /* \"#utility.yul\":2537:2542   */\n      dup2\n        /* \"#utility.yul\":2534:2546   */\n      lt\n        /* \"#utility.yul\":2524:2570   */\n      tag_291\n      jumpi\n        /* \"#utility.yul\":2550:2568   */\n      tag_292\n      tag_105\n      jump\t// in\n    tag_292:\n        /* \"#utility.yul\":2524:2570   */\n    tag_291:\n        /* \"#utility.yul\":2462:2576   */\n      pop\n      jump\t// out\n        /* \"#utility.yul\":2582:2711   */\n    tag_199:\n        /* \"#utility.yul\":2628:2635   */\n      0x00\n        /* \"#utility.yul\":2657:2662   */\n      dup2\n        /* \"#utility.yul\":2646:2662   */\n      swap1\n      pop\n        /* \"#utility.yul\":2663:2705   */\n      tag_294\n        /* \"#utility.yul\":2699:2704   */\n      dup3\n        /* \"#utility.yul\":2663:2705   */\n      tag_198\n      jump\t// in\n    tag_294:\n        /* \"#utility.yul\":2582:2711   */\n      swap2\n      swap1\n      pop\n      jump\t// out\n        /* \"#utility.yul\":2717:2846   */\n    tag_200:\n        /* \"#utility.yul\":2774:2783   */\n      0x00\n        /* \"#utility.yul\":2807:2840   */\n      tag_296\n        /* \"#utility.yul\":2834:2839   */\n      dup3\n        /* \"#utility.yul\":2807:2840   */\n      tag_199\n      jump\t// in\n    tag_296:\n        /* \"#utility.yul\":2794:2840   */\n      swap1\n      pop\n        /* \"#utility.yul\":2717:2846   */\n      swap2\n      swap1\n      pop\n      jump\t// out\n        /* \"#utility.yul\":2852:2997   */\n    tag_201:\n        /* \"#utility.yul\":2946:2990   */\n      tag_298\n        /* \"#utility.yul\":2984:2989   */\n      dup2\n        /* \"#utility.yul\":2946:2990   */\n      tag_200\n      jump\t// in\n    tag_298:\n        /* \"#utility.yul\":2941:2944   */\n      dup3\n        /* \"#utility.yul\":2934:2991   */\n      mstore\n        /* \"#utility.yul\":2852:2997   */\n      pop\n      pop\n      jump\t// out\n        /* \"#utility.yul\":3003:4172   */\n    tag_20:\n        /* \"#utility.yul\":3327:3331   */\n      0x00\n        /* \"#utility.yul\":3365:3368   */\n      0x0100\n        /* \"#utility.yul\":3354:3363   */\n      dup3\n        /* \"#utility.yul\":3350:3369   */\n      add\n        /* \"#utility.yul\":3342:3369   */\n      swap1\n      pop\n        /* \"#utility.yul\":3379:3450   */\n      tag_300\n        /* \"#utility.yul\":3447:3448   */\n      0x00\n        /* \"#utility.yul\":3436:3445   */\n      dup4\n        /* \"#utility.yul\":3432:3449   */\n      add\n        /* \"#utility.yul\":3423:3429   */\n      dup12\n        /* \"#utility.yul\":3379:3450   */\n      tag_190\n      jump\t// in\n    tag_300:\n        /* \"#utility.yul\":3497:3506   */\n      dup2\n        /* \"#utility.yul\":3491:3495   */\n      dup2\n        /* \"#utility.yul\":3487:3507   */\n      sub\n        /* \"#utility.yul\":3482:3484   */\n      0x20\n        /* \"#utility.yul\":3471:3480   */\n      dup4\n        /* \"#utility.yul\":3467:3485   */\n      add\n        /* \"#utility.yul\":3460:3508   */\n      mstore\n        /* \"#utility.yul\":3525:3603   */\n      tag_301\n        /* \"#utility.yul\":3598:3602   */\n      dup2\n        /* \"#utility.yul\":3589:3595   */\n      dup11\n        /* \"#utility.yul\":3525:3603   */\n      tag_195\n      jump\t// in\n    tag_301:\n        /* \"#utility.yul\":3517:3603   */\n      swap1\n      pop\n        /* \"#utility.yul\":3650:3659   */\n      dup2\n        /* \"#utility.yul\":3644:3648   */\n      dup2\n        /* \"#utility.yul\":3640:3660   */\n      sub\n        /* \"#utility.yul\":3635:3637   */\n      0x40\n        /* \"#utility.yul\":3624:3633   */\n      dup4\n        /* \"#utility.yul\":3620:3638   */\n      add\n        /* \"#utility.yul\":3613:3661   */\n      mstore\n        /* \"#utility.yul\":3678:3756   */\n      tag_302\n        /* \"#utility.yul\":3751:3755   */\n      dup2\n        /* \"#utility.yul\":3742:3748   */\n      dup10\n        /* \"#utility.yul\":3678:3756   */\n      tag_195\n      jump\t// in\n    tag_302:\n        /* \"#utility.yul\":3670:3756   */\n      swap1\n      pop\n        /* \"#utility.yul\":3766:3838   */\n      tag_303\n        /* \"#utility.yul\":3834:3836   */\n      0x60\n        /* \"#utility.yul\":3823:3832   */\n      dup4\n        /* \"#utility.yul\":3819:3837   */\n      add\n        /* \"#utility.yul\":3810:3816   */\n      dup9\n        /* \"#utility.yul\":3766:3838   */\n      tag_190\n      jump\t// in\n    tag_303:\n        /* \"#utility.yul\":3848:3921   */\n      tag_304\n        /* \"#utility.yul\":3916:3919   */\n      0x80\n        /* \"#utility.yul\":3905:3914   */\n      dup4\n        /* \"#utility.yul\":3901:3920   */\n      add\n        /* \"#utility.yul\":3892:3898   */\n      dup8\n        /* \"#utility.yul\":3848:3921   */\n      tag_190\n      jump\t// in\n    tag_304:\n        /* \"#utility.yul\":3931:3998   */\n      tag_305\n        /* \"#utility.yul\":3993:3996   */\n      0xa0\n        /* \"#utility.yul\":3982:3991   */\n      dup4\n        /* \"#utility.yul\":3978:3997   */\n      add\n        /* \"#utility.yul\":3969:3975   */\n      dup7\n        /* \"#utility.yul\":3931:3998   */\n      tag_197\n      jump\t// in\n    tag_305:\n        /* \"#utility.yul\":4008:4075   */\n      tag_306\n        /* \"#utility.yul\":4070:4073   */\n      0xc0\n        /* \"#utility.yul\":4059:4068   */\n      dup4\n        /* \"#utility.yul\":4055:4074   */\n      add\n        /* \"#utility.yul\":4046:4052   */\n      dup6\n        /* \"#utility.yul\":4008:4075   */\n      tag_197\n      jump\t// in\n    tag_306:\n        /* \"#utility.yul\":4085:4165   */\n      tag_307\n        /* \"#utility.yul\":4160:4163   */\n      0xe0\n        /* \"#utility.yul\":4149:4158   */\n      dup4\n        /* \"#utility.yul\":4145:4164   */\n      add\n        /* \"#utility.yul\":4136:4142   */\n      dup5\n        /* \"#utility.yul\":4085:4165   */\n      tag_201\n      jump\t// in\n    tag_307:\n        /* \"#utility.yul\":3003:4172   */\n      swap10\n      swap9\n      pop\n      pop\n      pop\n      pop\n      pop\n      pop\n      pop\n      pop\n      pop\n      jump\t// out\n        /* \"#utility.yul\":4178:4498   */\n    tag_25:\n        /* \"#utility.yul\":4293:4297   */\n      0x00\n        /* \"#utility.yul\":4331:4333   */\n      0x40\n        /* \"#utility.yul\":4320:4329   */\n      dup3\n        /* \"#utility.yul\":4316:4334   */\n      add\n        /* \"#utility.yul\":4308:4334   */\n      swap1\n      pop\n        /* \"#utility.yul\":4344:4409   */\n      tag_309\n        /* \"#utility.yul\":4406:4407   */\n      0x00\n        /* \"#utility.yul\":4395:4404   */\n      dup4\n        /* \"#utility.yul\":4391:4408   */\n      add\n        /* \"#utility.yul\":4382:4388   */\n      dup6\n        /* \"#utility.yul\":4344:4409   */\n      tag_197\n      jump\t// in\n    tag_309:\n        /* \"#utility.yul\":4419:4491   */\n      tag_310\n        /* \"#utility.yul\":4487:4489   */\n      0x20\n        /* \"#utility.yul\":4476:4485   */\n      dup4\n        /* \"#utility.yul\":4472:4490   */\n      add\n        /* \"#utility.yul\":4463:4469   */\n      dup5\n        /* \"#utility.yul\":4419:4491   */\n      tag_190\n      jump\t// in\n    tag_310:\n        /* \"#utility.yul\":4178:4498   */\n      swap4\n      swap3\n      pop\n      pop\n      pop\n      jump\t// out\n        /* \"#utility.yul\":4504:4726   */\n    tag_29:\n        /* \"#utility.yul\":4597:4601   */\n      0x00\n        /* \"#utility.yul\":4635:4637   */\n      0x20\n        /* \"#utility.yul\":4624:4633   */\n      dup3\n        /* \"#utility.yul\":4620:4638   */\n      add\n        /* \"#utility.yul\":4612:4638   */\n      swap1\n      pop\n        /* \"#utility.yul\":4648:4719   */\n      tag_312\n        /* \"#utility.yul\":4716:4717   */\n      0x00\n        /* \"#utility.yul\":4705:4714   */\n      dup4\n        /* \"#utility.yul\":4701:4718   */\n      add\n        /* \"#utility.yul\":4692:4698   */\n      dup5\n        /* \"#utility.yul\":4648:4719   */\n      tag_190\n      jump\t// in\n    tag_312:\n        /* \"#utility.yul\":4504:4726   */\n      swap3\n      swap2\n      pop\n      pop\n      jump\t// out\n        /* \"#utility.yul\":4732:4858   */\n    tag_202:\n        /* \"#utility.yul\":4769:4776   */\n      0x00\n        /* \"#utility.yul\":4809:4851   */\n      0xffffffffffffffffffffffffffffffffffffffff\n        /* \"#utility.yul\":4802:4807   */\n      dup3\n        /* \"#utility.yul\":4798:4852   */\n      and\n        /* \"#utility.yul\":4787:4852   */\n      swap1\n      pop\n        /* \"#utility.yul\":4732:4858   */\n      swap2\n      swap1\n      pop\n      jump\t// out\n        /* \"#utility.yul\":4864:4960   */\n    tag_203:\n        /* \"#utility.yul\":4901:4908   */\n      0x00\n        /* \"#utility.yul\":4930:4954   */\n      tag_315\n        /* \"#utility.yul\":4948:4953   */\n      dup3\n        /* \"#utility.yul\":4930:4954   */\n      tag_202\n      jump\t// in\n    tag_315:\n        /* \"#utility.yul\":4919:4954   */\n      swap1\n      pop\n        /* \"#utility.yul\":4864:4960   */\n      swap2\n      swap1\n      pop\n      jump\t// out\n        /* \"#utility.yul\":4966:5088   */\n    tag_204:\n        /* \"#utility.yul\":5039:5063   */\n      tag_317\n        /* \"#utility.yul\":5057:5062   */\n      dup2\n        /* \"#utility.yul\":5039:5063   */\n      tag_203\n      jump\t// in\n    tag_317:\n        /* \"#utility.yul\":5032:5037   */\n      dup2\n        /* \"#utility.yul\":5029:5064   */\n      eq\n        /* \"#utility.yul\":5019:5082   */\n      tag_318\n      jumpi\n        /* \"#utility.yul\":5078:5079   */\n      0x00\n        /* \"#utility.yul\":5075:5076   */\n      0x00\n        /* \"#utility.yul\":5068:5080   */\n      revert\n        /* \"#utility.yul\":5019:5082   */\n    tag_318:\n        /* \"#utility.yul\":4966:5088   */\n      pop\n      jump\t// out\n        /* \"#utility.yul\":5094:5233   */\n    tag_205:\n        /* \"#utility.yul\":5140:5145   */\n      0x00\n        /* \"#utility.yul\":5178:5184   */\n      dup2\n        /* \"#utility.yul\":5165:5185   */\n      calldataload\n        /* \"#utility.yul\":5156:5185   */\n      swap1\n      pop\n        /* \"#utility.yul\":5194:5227   */\n      tag_320\n        /* \"#utility.yul\":5221:5226   */\n      dup2\n        /* \"#utility.yul\":5194:5227   */\n      tag_204\n      jump\t// in\n    tag_320:\n        /* \"#utility.yul\":5094:5233   */\n      swap3\n      swap2\n      pop\n      pop\n      jump\t// out\n        /* \"#utility.yul\":5239:5355   */\n    tag_206:\n        /* \"#utility.yul\":5309:5330   */\n      tag_322\n        /* \"#utility.yul\":5324:5329   */\n      dup2\n        /* \"#utility.yul\":5309:5330   */\n      tag_196\n      jump\t// in\n    tag_322:\n        /* \"#utility.yul\":5302:5307   */\n      dup2\n        /* \"#utility.yul\":5299:5331   */\n      eq\n        /* \"#utility.yul\":5289:5349   */\n      tag_323\n      jumpi\n        /* \"#utility.yul\":5345:5346   */\n      0x00\n        /* \"#utility.yul\":5342:5343   */\n      0x00\n        /* \"#utility.yul\":5335:5347   */\n      revert\n        /* \"#utility.yul\":5289:5349   */\n    tag_323:\n        /* \"#utility.yul\":5239:5355   */\n      pop\n      jump\t// out\n        /* \"#utility.yul\":5361:5494   */\n    tag_207:\n        /* \"#utility.yul\":5404:5409   */\n      0x00\n        /* \"#utility.yul\":5442:5448   */\n      dup2\n        /* \"#utility.yul\":5429:5449   */\n      calldataload\n        /* \"#utility.yul\":5420:5449   */\n      swap1\n      pop\n        /* \"#utility.yul\":5458:5488   */\n      tag_325\n        /* \"#utility.yul\":5482:5487   */\n      dup2\n        /* \"#utility.yul\":5458:5488   */\n      tag_206\n      jump\t// in\n    tag_325:\n        /* \"#utility.yul\":5361:5494   */\n      swap3\n      swap2\n      pop\n      pop\n      jump\t// out\n        /* \"#utility.yul\":5500:6113   */\n    tag_32:\n        /* \"#utility.yul\":5574:5580   */\n      0x00\n        /* \"#utility.yul\":5582:5588   */\n      0x00\n        /* \"#utility.yul\":5590:5596   */\n      0x00\n        /* \"#utility.yul\":5639:5641   */\n      0x60\n        /* \"#utility.yul\":5627:5636   */\n      dup5\n        /* \"#utility.yul\":5618:5625   */\n      dup7\n        /* \"#utility.yul\":5614:5637   */\n      sub\n        /* \"#utility.yul\":5610:5642   */\n      slt\n        /* \"#utility.yul\":5607:5726   */\n      iszero\n      tag_327\n      jumpi\n        /* \"#utility.yul\":5645:5724   */\n      tag_328\n      tag_185\n      jump\t// in\n    tag_328:\n        /* \"#utility.yul\":5607:5726   */\n    tag_327:\n        /* \"#utility.yul\":5765:5766   */\n      0x00\n        /* \"#utility.yul\":5790:5843   */\n      tag_329\n        /* \"#utility.yul\":5835:5842   */\n      dup7\n        /* \"#utility.yul\":5826:5832   */\n      dup3\n        /* \"#utility.yul\":5815:5824   */\n      dup8\n        /* \"#utility.yul\":5811:5833   */\n      add\n        /* \"#utility.yul\":5790:5843   */\n      tag_205\n      jump\t// in\n    tag_329:\n        /* \"#utility.yul\":5780:5843   */\n      swap4\n      pop\n        /* \"#utility.yul\":5736:5853   */\n      pop\n        /* \"#utility.yul\":5892:5894   */\n      0x20\n        /* \"#utility.yul\":5918:5971   */\n      tag_330\n        /* \"#utility.yul\":5963:5970   */\n      dup7\n        /* \"#utility.yul\":5954:5960   */\n      dup3\n        /* \"#utility.yul\":5943:5952   */\n      dup8\n        /* \"#utility.yul\":5939:5961   */\n      add\n        /* \"#utility.yul\":5918:5971   */\n      tag_189\n      jump\t// in\n    tag_330:\n        /* \"#utility.yul\":5908:5971   */\n      swap3\n      pop\n        /* \"#utility.yul\":5863:5981   */\n      pop\n        /* \"#utility.yul\":6020:6022   */\n      0x40\n        /* \"#utility.yul\":6046:6096   */\n      tag_331\n        /* \"#utility.yul\":6088:6095   */\n      dup7\n        /* \"#utility.yul\":6079:6085   */\n      dup3\n        /* \"#utility.yul\":6068:6077   */\n      dup8\n        /* \"#utility.yul\":6064:6086   */\n      add\n        /* \"#utility.yul\":6046:6096   */\n      tag_207\n      jump\t// in\n    tag_331:\n        /* \"#utility.yul\":6036:6096   */\n      swap2\n      pop\n        /* \"#utility.yul\":5991:6106   */\n      pop\n        /* \"#utility.yul\":5500:6113   */\n      swap3\n      pop\n      swap3\n      pop\n      swap3\n      jump\t// out\n        /* \"#utility.yul\":6119:6355   */\n    tag_37:\n        /* \"#utility.yul\":6219:6223   */\n      0x00\n        /* \"#utility.yul\":6257:6259   */\n      0x20\n        /* \"#utility.yul\":6246:6255   */\n      dup3\n        /* \"#utility.yul\":6242:6260   */\n      add\n        /* \"#utility.yul\":6234:6260   */\n      swap1\n      pop\n        /* \"#utility.yul\":6270:6348   */\n      tag_333\n        /* \"#utility.yul\":6345:6346   */\n      0x00\n        /* \"#utility.yul\":6334:6343   */\n      dup4\n        /* \"#utility.yul\":6330:6347   */\n      add\n        /* \"#utility.yul\":6321:6327   */\n      dup5\n        /* \"#utility.yul\":6270:6348   */\n      tag_201\n      jump\t// in\n    tag_333:\n        /* \"#utility.yul\":6119:6355   */\n      swap3\n      swap2\n      pop\n      pop\n      jump\t// out\n        /* \"#utility.yul\":6361:6571   */\n    tag_48:\n        /* \"#utility.yul\":6448:6452   */\n      0x00\n        /* \"#utility.yul\":6486:6488   */\n      0x20\n        /* \"#utility.yul\":6475:6484   */\n      dup3\n        /* \"#utility.yul\":6471:6489   */\n      add\n        /* \"#utility.yul\":6463:6489   */\n      swap1\n      pop\n        /* \"#utility.yul\":6499:6564   */\n      tag_335\n        /* \"#utility.yul\":6561:6562   */\n      0x00\n        /* \"#utility.yul\":6550:6559   */\n      dup4\n        /* \"#utility.yul\":6546:6563   */\n      add\n        /* \"#utility.yul\":6537:6543   */\n      dup5\n        /* \"#utility.yul\":6499:6564   */\n      tag_197\n      jump\t// in\n    tag_335:\n        /* \"#utility.yul\":6361:6571   */\n      swap3\n      swap2\n      pop\n      pop\n      jump\t// out\n        /* \"#utility.yul\":6577:6685   */\n    tag_208:\n        /* \"#utility.yul\":6654:6678   */\n      tag_337\n        /* \"#utility.yul\":6672:6677   */\n      dup2\n        /* \"#utility.yul\":6654:6678   */\n      tag_187\n      jump\t// in\n    tag_337:\n        /* \"#utility.yul\":6649:6652   */\n      dup3\n        /* \"#utility.yul\":6642:6679   */\n      mstore\n        /* \"#utility.yul\":6577:6685   */\n      pop\n      pop\n      jump\t// out\n        /* \"#utility.yul\":6691:6850   */\n    tag_209:\n        /* \"#utility.yul\":6765:6776   */\n      0x00\n        /* \"#utility.yul\":6799:6805   */\n      dup3\n        /* \"#utility.yul\":6794:6797   */\n      dup3\n        /* \"#utility.yul\":6787:6806   */\n      mstore\n        /* \"#utility.yul\":6839:6843   */\n      0x20\n        /* \"#utility.yul\":6834:6837   */\n      dup3\n        /* \"#utility.yul\":6830:6844   */\n      add\n        /* \"#utility.yul\":6815:6844   */\n      swap1\n      pop\n        /* \"#utility.yul\":6691:6850   */\n      swap3\n      swap2\n      pop\n      pop\n      jump\t// out\n        /* \"#utility.yul\":6856:7213   */\n    tag_210:\n        /* \"#utility.yul\":6934:6937   */\n      0x00\n        /* \"#utility.yul\":6962:7001   */\n      tag_340\n        /* \"#utility.yul\":6995:7000   */\n      dup3\n        /* \"#utility.yul\":6962:7001   */\n      tag_191\n      jump\t// in\n    tag_340:\n        /* \"#utility.yul\":7017:7078   */\n      tag_341\n        /* \"#utility.yul\":7071:7077   */\n      dup2\n        /* \"#utility.yul\":7066:7069   */\n      dup6\n        /* \"#utility.yul\":7017:7078   */\n      tag_209\n      jump\t// in\n    tag_341:\n        /* \"#utility.yul\":7010:7078   */\n      swap4\n      pop\n        /* \"#utility.yul\":7087:7152   */\n      tag_342\n        /* \"#utility.yul\":7145:7151   */\n      dup2\n        /* \"#utility.yul\":7140:7143   */\n      dup6\n        /* \"#utility.yul\":7133:7137   */\n      0x20\n        /* \"#utility.yul\":7126:7131   */\n      dup7\n        /* \"#utility.yul\":7122:7138   */\n      add\n        /* \"#utility.yul\":7087:7152   */\n      tag_193\n      jump\t// in\n    tag_342:\n        /* \"#utility.yul\":7177:7206   */\n      tag_343\n        /* \"#utility.yul\":7199:7205   */\n      dup2\n        /* \"#utility.yul\":7177:7206   */\n      tag_194\n      jump\t// in\n    tag_343:\n        /* \"#utility.yul\":7172:7175   */\n      dup5\n        /* \"#utility.yul\":7168:7207   */\n      add\n        /* \"#utility.yul\":7161:7207   */\n      swap2\n      pop\n        /* \"#utility.yul\":6938:7213   */\n      pop\n        /* \"#utility.yul\":6856:7213   */\n      swap3\n      swap2\n      pop\n      pop\n      jump\t// out\n        /* \"#utility.yul\":7219:7318   */\n    tag_211:\n        /* \"#utility.yul\":7290:7311   */\n      tag_345\n        /* \"#utility.yul\":7305:7310   */\n      dup2\n        /* \"#utility.yul\":7290:7311   */\n      tag_196\n      jump\t// in\n    tag_345:\n        /* \"#utility.yul\":7285:7288   */\n      dup3\n        /* \"#utility.yul\":7278:7312   */\n      mstore\n        /* \"#utility.yul\":7219:7318   */\n      pop\n      pop\n      jump\t// out\n        /* \"#utility.yul\":7324:7459   */\n    tag_212:\n        /* \"#utility.yul\":7408:7452   */\n      tag_347\n        /* \"#utility.yul\":7446:7451   */\n      dup2\n        /* \"#utility.yul\":7408:7452   */\n      tag_200\n      jump\t// in\n    tag_347:\n        /* \"#utility.yul\":7403:7406   */\n      dup3\n        /* \"#utility.yul\":7396:7453   */\n      mstore\n        /* \"#utility.yul\":7324:7459   */\n      pop\n      pop\n      jump\t// out\n        /* \"#utility.yul\":7517:9239   */\n    tag_213:\n        /* \"#utility.yul\":7634:7637   */\n      0x00\n        /* \"#utility.yul\":7670:7676   */\n      0x0100\n        /* \"#utility.yul\":7665:7668   */\n      dup4\n        /* \"#utility.yul\":7661:7677   */\n      add\n        /* \"#utility.yul\":7757:7761   */\n      0x00\n        /* \"#utility.yul\":7750:7755   */\n      dup4\n        /* \"#utility.yul\":7746:7762   */\n      add\n        /* \"#utility.yul\":7740:7763   */\n      mload\n        /* \"#utility.yul\":7776:7839   */\n      tag_349\n        /* \"#utility.yul\":7833:7837   */\n      0x00\n        /* \"#utility.yul\":7828:7831   */\n      dup7\n        /* \"#utility.yul\":7824:7838   */\n      add\n        /* \"#utility.yul\":7810:7822   */\n      dup3\n        /* \"#utility.yul\":7776:7839   */\n      tag_208\n      jump\t// in\n    tag_349:\n        /* \"#utility.yul\":7687:7849   */\n      pop\n        /* \"#utility.yul\":7931:7935   */\n      0x20\n        /* \"#utility.yul\":7924:7929   */\n      dup4\n        /* \"#utility.yul\":7920:7936   */\n      add\n        /* \"#utility.yul\":7914:7937   */\n      mload\n        /* \"#utility.yul\":7984:7987   */\n      dup5\n        /* \"#utility.yul\":7978:7982   */\n      dup3\n        /* \"#utility.yul\":7974:7988   */\n      sub\n        /* \"#utility.yul\":7967:7971   */\n      0x20\n        /* \"#utility.yul\":7962:7965   */\n      dup7\n        /* \"#utility.yul\":7958:7972   */\n      add\n        /* \"#utility.yul\":7951:7989   */\n      mstore\n        /* \"#utility.yul\":8010:8083   */\n      tag_350\n        /* \"#utility.yul\":8078:8082   */\n      dup3\n        /* \"#utility.yul\":8064:8076   */\n      dup3\n        /* \"#utility.yul\":8010:8083   */\n      tag_210\n      jump\t// in\n    tag_350:\n        /* \"#utility.yul\":8002:8083   */\n      swap2\n      pop\n        /* \"#utility.yul\":7859:8094   */\n      pop\n        /* \"#utility.yul\":8176:8180   */\n      0x40\n        /* \"#utility.yul\":8169:8174   */\n      dup4\n        /* \"#utility.yul\":8165:8181   */\n      add\n        /* \"#utility.yul\":8159:8182   */\n      mload\n        /* \"#utility.yul\":8229:8232   */\n      dup5\n        /* \"#utility.yul\":8223:8227   */\n      dup3\n        /* \"#utility.yul\":8219:8233   */\n      sub\n        /* \"#utility.yul\":8212:8216   */\n      0x40\n        /* \"#utility.yul\":8207:8210   */\n      dup7\n        /* \"#utility.yul\":8203:8217   */\n      add\n        /* \"#utility.yul\":8196:8234   */\n      mstore\n        /* \"#utility.yul\":8255:8328   */\n      tag_351\n        /* \"#utility.yul\":8323:8327   */\n      dup3\n        /* \"#utility.yul\":8309:8321   */\n      dup3\n        /* \"#utility.yul\":8255:8328   */\n      tag_210\n      jump\t// in\n    tag_351:\n        /* \"#utility.yul\":8247:8328   */\n      swap2\n      pop\n        /* \"#utility.yul\":8104:8339   */\n      pop\n        /* \"#utility.yul\":8425:8429   */\n      0x60\n        /* \"#utility.yul\":8418:8423   */\n      dup4\n        /* \"#utility.yul\":8414:8430   */\n      add\n        /* \"#utility.yul\":8408:8431   */\n      mload\n        /* \"#utility.yul\":8444:8507   */\n      tag_352\n        /* \"#utility.yul\":8501:8505   */\n      0x60\n        /* \"#utility.yul\":8496:8499   */\n      dup7\n        /* \"#utility.yul\":8492:8506   */\n      add\n        /* \"#utility.yul\":8478:8490   */\n      dup3\n        /* \"#utility.yul\":8444:8507   */\n      tag_208\n      jump\t// in\n    tag_352:\n        /* \"#utility.yul\":8349:8517   */\n      pop\n        /* \"#utility.yul\":8604:8608   */\n      0x80\n        /* \"#utility.yul\":8597:8602   */\n      dup4\n        /* \"#utility.yul\":8593:8609   */\n      add\n        /* \"#utility.yul\":8587:8610   */\n      mload\n        /* \"#utility.yul\":8623:8686   */\n      tag_353\n        /* \"#utility.yul\":8680:8684   */\n      0x80\n        /* \"#utility.yul\":8675:8678   */\n      dup7\n        /* \"#utility.yul\":8671:8685   */\n      add\n        /* \"#utility.yul\":8657:8669   */\n      dup3\n        /* \"#utility.yul\":8623:8686   */\n      tag_208\n      jump\t// in\n    tag_353:\n        /* \"#utility.yul\":8527:8696   */\n      pop\n        /* \"#utility.yul\":8777:8781   */\n      0xa0\n        /* \"#utility.yul\":8770:8775   */\n      dup4\n        /* \"#utility.yul\":8766:8782   */\n      add\n        /* \"#utility.yul\":8760:8783   */\n      mload\n        /* \"#utility.yul\":8796:8853   */\n      tag_354\n        /* \"#utility.yul\":8847:8851   */\n      0xa0\n        /* \"#utility.yul\":8842:8845   */\n      dup7\n        /* \"#utility.yul\":8838:8852   */\n      add\n        /* \"#utility.yul\":8824:8836   */\n      dup3\n        /* \"#utility.yul\":8796:8853   */\n      tag_211\n      jump\t// in\n    tag_354:\n        /* \"#utility.yul\":8706:8863   */\n      pop\n        /* \"#utility.yul\":8943:8947   */\n      0xc0\n        /* \"#utility.yul\":8936:8941   */\n      dup4\n        /* \"#utility.yul\":8932:8948   */\n      add\n        /* \"#utility.yul\":8926:8949   */\n      mload\n        /* \"#utility.yul\":8962:9019   */\n      tag_355\n        /* \"#utility.yul\":9013:9017   */\n      0xc0\n        /* \"#utility.yul\":9008:9011   */\n      dup7\n        /* \"#utility.yul\":9004:9018   */\n      add\n        /* \"#utility.yul\":8990:9002   */\n      dup3\n        /* \"#utility.yul\":8962:9019   */\n      tag_211\n      jump\t// in\n    tag_355:\n        /* \"#utility.yul\":8873:9029   */\n      pop\n        /* \"#utility.yul\":9113:9117   */\n      0xe0\n        /* \"#utility.yul\":9106:9111   */\n      dup4\n        /* \"#utility.yul\":9102:9118   */\n      add\n        /* \"#utility.yul\":9096:9119   */\n      mload\n        /* \"#utility.yul\":9132:9202   */\n      tag_356\n        /* \"#utility.yul\":9196:9200   */\n      0xe0\n        /* \"#utility.yul\":9191:9194   */\n      dup7\n        /* \"#utility.yul\":9187:9201   */\n      add\n        /* \"#utility.yul\":9173:9185   */\n      dup3\n        /* \"#utility.yul\":9132:9202   */\n      tag_212\n      jump\t// in\n    tag_356:\n        /* \"#utility.yul\":9039:9212   */\n      pop\n        /* \"#utility.yul\":9229:9233   */\n      dup1\n        /* \"#utility.yul\":9222:9233   */\n      swap2\n      pop\n        /* \"#utility.yul\":7639:9239   */\n      pop\n        /* \"#utility.yul\":7517:9239   */\n      swap3\n      swap2\n      pop\n      pop\n      jump\t// out\n        /* \"#utility.yul\":9245:9614   */\n    tag_53:\n        /* \"#utility.yul\":9386:9390   */\n      0x00\n        /* \"#utility.yul\":9424:9426   */\n      0x20\n        /* \"#utility.yul\":9413:9422   */\n      dup3\n        /* \"#utility.yul\":9409:9427   */\n      add\n        /* \"#utility.yul\":9401:9427   */\n      swap1\n      pop\n        /* \"#utility.yul\":9473:9482   */\n      dup2\n        /* \"#utility.yul\":9467:9471   */\n      dup2\n        /* \"#utility.yul\":9463:9483   */\n      sub\n        /* \"#utility.yul\":9459:9460   */\n      0x00\n        /* \"#utility.yul\":9448:9457   */\n      dup4\n        /* \"#utility.yul\":9444:9461   */\n      add\n        /* \"#utility.yul\":9437:9484   */\n      mstore\n        /* \"#utility.yul\":9501:9607   */\n      tag_358\n        /* \"#utility.yul\":9602:9606   */\n      dup2\n        /* \"#utility.yul\":9593:9599   */\n      dup5\n        /* \"#utility.yul\":9501:9607   */\n      tag_213\n      jump\t// in\n    tag_358:\n        /* \"#utility.yul\":9493:9607   */\n      swap1\n      pop\n        /* \"#utility.yul\":9245:9614   */\n      swap3\n      swap2\n      pop\n      pop\n      jump\t// out\n        /* \"#utility.yul\":9620:9737   */\n    tag_214:\n        /* \"#utility.yul\":9729:9730   */\n      0x00\n        /* \"#utility.yul\":9726:9727   */\n      0x00\n        /* \"#utility.yul\":9719:9731   */\n      revert\n        /* \"#utility.yul\":9743:9860   */\n    tag_215:\n        /* \"#utility.yul\":9852:9853   */\n      0x00\n        /* \"#utility.yul\":9849:9850   */\n      0x00\n        /* \"#utility.yul\":9842:9854   */\n      revert\n        /* \"#utility.yul\":9866:10046   */\n    tag_216:\n        /* \"#utility.yul\":9914:9991   */\n      0x4e487b7100000000000000000000000000000000000000000000000000000000\n        /* \"#utility.yul\":9911:9912   */\n      0x00\n        /* \"#utility.yul\":9904:9992   */\n      mstore\n        /* \"#utility.yul\":10011:10015   */\n      0x41\n        /* \"#utility.yul\":10008:10009   */\n      0x04\n        /* \"#utility.yul\":10001:10016   */\n      mstore\n        /* \"#utility.yul\":10035:10039   */\n      0x24\n        /* \"#utility.yul\":10032:10033   */\n      0x00\n        /* \"#utility.yul\":10025:10040   */\n      revert\n        /* \"#utility.yul\":10052:10333   */\n    tag_217:\n        /* \"#utility.yul\":10135:10162   */\n      tag_363\n        /* \"#utility.yul\":10157:10161   */\n      dup3\n        /* \"#utility.yul\":10135:10162   */\n      tag_194\n      jump\t// in\n    tag_363:\n        /* \"#utility.yul\":10127:10133   */\n      dup2\n        /* \"#utility.yul\":10123:10163   */\n      add\n        /* \"#utility.yul\":10265:10271   */\n      dup2\n        /* \"#utility.yul\":10253:10263   */\n      dup2\n        /* \"#utility.yul\":10250:10272   */\n      lt\n        /* \"#utility.yul\":10229:10247   */\n      0xffffffffffffffff\n        /* \"#utility.yul\":10217:10227   */\n      dup3\n        /* \"#utility.yul\":10214:10248   */\n      gt\n        /* \"#utility.yul\":10211:10273   */\n      or\n        /* \"#utility.yul\":10208:10296   */\n      iszero\n      tag_364\n      jumpi\n        /* \"#utility.yul\":10276:10294   */\n      tag_365\n      tag_216\n      jump\t// in\n    tag_365:\n        /* \"#utility.yul\":10208:10296   */\n    tag_364:\n        /* \"#utility.yul\":10316:10326   */\n      dup1\n        /* \"#utility.yul\":10312:10314   */\n      0x40\n        /* \"#utility.yul\":10305:10327   */\n      mstore\n        /* \"#utility.yul\":10095:10333   */\n      pop\n        /* \"#utility.yul\":10052:10333   */\n      pop\n      pop\n      jump\t// out\n        /* \"#utility.yul\":10339:10468   */\n    tag_218:\n        /* \"#utility.yul\":10373:10379   */\n      0x00\n        /* \"#utility.yul\":10400:10420   */\n      tag_367\n      tag_184\n      jump\t// in\n    tag_367:\n        /* \"#utility.yul\":10390:10420   */\n      swap1\n      pop\n        /* \"#utility.yul\":10429:10462   */\n      tag_368\n        /* \"#utility.yul\":10457:10461   */\n      dup3\n        /* \"#utility.yul\":10449:10455   */\n      dup3\n        /* \"#utility.yul\":10429:10462   */\n      tag_217\n      jump\t// in\n    tag_368:\n        /* \"#utility.yul\":10339:10468   */\n      swap2\n      swap1\n      pop\n      jump\t// out\n        /* \"#utility.yul\":10474:10782   */\n    tag_219:\n        /* \"#utility.yul\":10536:10540   */\n      0x00\n        /* \"#utility.yul\":10626:10644   */\n      0xffffffffffffffff\n        /* \"#utility.yul\":10618:10624   */\n      dup3\n        /* \"#utility.yul\":10615:10645   */\n      gt\n        /* \"#utility.yul\":10612:10668   */\n      iszero\n      tag_370\n      jumpi\n        /* \"#utility.yul\":10648:10666   */\n      tag_371\n      tag_216\n      jump\t// in\n    tag_371:\n        /* \"#utility.yul\":10612:10668   */\n    tag_370:\n        /* \"#utility.yul\":10686:10715   */\n      tag_372\n        /* \"#utility.yul\":10708:10714   */\n      dup3\n        /* \"#utility.yul\":10686:10715   */\n      tag_194\n      jump\t// in\n    tag_372:\n        /* \"#utility.yul\":10678:10715   */\n      swap1\n      pop\n        /* \"#utility.yul\":10770:10774   */\n      0x20\n        /* \"#utility.yul\":10764:10768   */\n      dup2\n        /* \"#utility.yul\":10760:10775   */\n      add\n        /* \"#utility.yul\":10752:10775   */\n      swap1\n      pop\n        /* \"#utility.yul\":10474:10782   */\n      swap2\n      swap1\n      pop\n      jump\t// out\n        /* \"#utility.yul\":10788:10936   */\n    tag_220:\n        /* \"#utility.yul\":10886:10892   */\n      dup3\n        /* \"#utility.yul\":10881:10884   */\n      dup2\n        /* \"#utility.yul\":10876:10879   */\n      dup4\n        /* \"#utility.yul\":10863:10893   */\n      calldatacopy\n        /* \"#utility.yul\":10927:10928   */\n      0x00\n        /* \"#utility.yul\":10918:10924   */\n      dup4\n        /* \"#utility.yul\":10913:10916   */\n      dup4\n        /* \"#utility.yul\":10909:10925   */\n      add\n        /* \"#utility.yul\":10902:10929   */\n      mstore\n        /* \"#utility.yul\":10788:10936   */\n      pop\n      pop\n      pop\n      jump\t// out\n        /* \"#utility.yul\":10942:11367   */\n    tag_221:\n        /* \"#utility.yul\":11020:11025   */\n      0x00\n        /* \"#utility.yul\":11045:11111   */\n      tag_375\n        /* \"#utility.yul\":11061:11110   */\n      tag_376\n        /* \"#utility.yul\":11103:11109   */\n      dup5\n        /* \"#utility.yul\":11061:11110   */\n      tag_219\n      jump\t// in\n    tag_376:\n        /* \"#utility.yul\":11045:11111   */\n      tag_218\n      jump\t// in\n    tag_375:\n        /* \"#utility.yul\":11036:11111   */\n      swap1\n      pop\n        /* \"#utility.yul\":11134:11140   */\n      dup3\n        /* \"#utility.yul\":11127:11132   */\n      dup2\n        /* \"#utility.yul\":11120:11141   */\n      mstore\n        /* \"#utility.yul\":11172:11176   */\n      0x20\n        /* \"#utility.yul\":11165:11170   */\n      dup2\n        /* \"#utility.yul\":11161:11177   */\n      add\n        /* \"#utility.yul\":11210:11213   */\n      dup5\n        /* \"#utility.yul\":11201:11207   */\n      dup5\n        /* \"#utility.yul\":11196:11199   */\n      dup5\n        /* \"#utility.yul\":11192:11208   */\n      add\n        /* \"#utility.yul\":11189:11214   */\n      gt\n        /* \"#utility.yul\":11186:11298   */\n      iszero\n      tag_377\n      jumpi\n        /* \"#utility.yul\":11217:11296   */\n      tag_378\n      tag_215\n      jump\t// in\n    tag_378:\n        /* \"#utility.yul\":11186:11298   */\n    tag_377:\n        /* \"#utility.yul\":11307:11361   */\n      tag_379\n        /* \"#utility.yul\":11354:11360   */\n      dup5\n        /* \"#utility.yul\":11349:11352   */\n      dup3\n        /* \"#utility.yul\":11344:11347   */\n      dup6\n        /* \"#utility.yul\":11307:11361   */\n      tag_220\n      jump\t// in\n    tag_379:\n        /* \"#utility.yul\":11026:11367   */\n      pop\n        /* \"#utility.yul\":10942:11367   */\n      swap4\n      swap3\n      pop\n      pop\n      pop\n      jump\t// out\n        /* \"#utility.yul\":11387:11727   */\n    tag_222:\n        /* \"#utility.yul\":11443:11448   */\n      0x00\n        /* \"#utility.yul\":11492:11495   */\n      dup3\n        /* \"#utility.yul\":11485:11489   */\n      0x1f\n        /* \"#utility.yul\":11477:11483   */\n      dup4\n        /* \"#utility.yul\":11473:11490   */\n      add\n        /* \"#utility.yul\":11469:11496   */\n      slt\n        /* \"#utility.yul\":11459:11581   */\n      tag_381\n      jumpi\n        /* \"#utility.yul\":11500:11579   */\n      tag_382\n      tag_214\n      jump\t// in\n    tag_382:\n        /* \"#utility.yul\":11459:11581   */\n    tag_381:\n        /* \"#utility.yul\":11617:11623   */\n      dup2\n        /* \"#utility.yul\":11604:11624   */\n      calldataload\n        /* \"#utility.yul\":11642:11721   */\n      tag_383\n        /* \"#utility.yul\":11717:11720   */\n      dup5\n        /* \"#utility.yul\":11709:11715   */\n      dup3\n        /* \"#utility.yul\":11702:11706   */\n      0x20\n        /* \"#utility.yul\":11694:11700   */\n      dup7\n        /* \"#utility.yul\":11690:11707   */\n      add\n        /* \"#utility.yul\":11642:11721   */\n      tag_221\n      jump\t// in\n    tag_383:\n        /* \"#utility.yul\":11633:11721   */\n      swap2\n      pop\n        /* \"#utility.yul\":11449:11727   */\n      pop\n        /* \"#utility.yul\":11387:11727   */\n      swap3\n      swap2\n      pop\n      pop\n      jump\t// out\n        /* \"#utility.yul\":11733:12858   */\n    tag_60:\n        /* \"#utility.yul\":11839:11845   */\n      0x00\n        /* \"#utility.yul\":11847:11853   */\n      0x00\n        /* \"#utility.yul\":11855:11861   */\n      0x00\n        /* \"#utility.yul\":11863:11869   */\n      0x00\n        /* \"#utility.yul\":11912:11915   */\n      0x80\n        /* \"#utility.yul\":11900:11909   */\n      dup6\n        /* \"#utility.yul\":11891:11898   */\n      dup8\n        /* \"#utility.yul\":11887:11910   */\n      sub\n        /* \"#utility.yul\":11883:11916   */\n      slt\n        /* \"#utility.yul\":11880:12000   */\n      iszero\n      tag_385\n      jumpi\n        /* \"#utility.yul\":11919:11998   */\n      tag_386\n      tag_185\n      jump\t// in\n    tag_386:\n        /* \"#utility.yul\":11880:12000   */\n    tag_385:\n        /* \"#utility.yul\":12039:12040   */\n      0x00\n        /* \"#utility.yul\":12064:12117   */\n      tag_387\n        /* \"#utility.yul\":12109:12116   */\n      dup8\n        /* \"#utility.yul\":12100:12106   */\n      dup3\n        /* \"#utility.yul\":12089:12098   */\n      dup9\n        /* \"#utility.yul\":12085:12107   */\n      add\n        /* \"#utility.yul\":12064:12117   */\n      tag_189\n      jump\t// in\n    tag_387:\n        /* \"#utility.yul\":12054:12117   */\n      swap5\n      pop\n        /* \"#utility.yul\":12010:12127   */\n      pop\n        /* \"#utility.yul\":12194:12196   */\n      0x20\n        /* \"#utility.yul\":12183:12192   */\n      dup6\n        /* \"#utility.yul\":12179:12197   */\n      add\n        /* \"#utility.yul\":12166:12198   */\n      calldataload\n        /* \"#utility.yul\":12225:12243   */\n      0xffffffffffffffff\n        /* \"#utility.yul\":12217:12223   */\n      dup2\n        /* \"#utility.yul\":12214:12244   */\n      gt\n        /* \"#utility.yul\":12211:12328   */\n      iszero\n      tag_388\n      jumpi\n        /* \"#utility.yul\":12247:12326   */\n      tag_389\n      tag_186\n      jump\t// in\n    tag_389:\n        /* \"#utility.yul\":12211:12328   */\n    tag_388:\n        /* \"#utility.yul\":12352:12415   */\n      tag_390\n        /* \"#utility.yul\":12407:12414   */\n      dup8\n        /* \"#utility.yul\":12398:12404   */\n      dup3\n        /* \"#utility.yul\":12387:12396   */\n      dup9\n        /* \"#utility.yul\":12383:12405   */\n      add\n        /* \"#utility.yul\":12352:12415   */\n      tag_222\n      jump\t// in\n    tag_390:\n        /* \"#utility.yul\":12342:12415   */\n      swap4\n      pop\n        /* \"#utility.yul\":12137:12425   */\n      pop\n        /* \"#utility.yul\":12492:12494   */\n      0x40\n        /* \"#utility.yul\":12481:12490   */\n      dup6\n        /* \"#utility.yul\":12477:12495   */\n      add\n        /* \"#utility.yul\":12464:12496   */\n      calldataload\n        /* \"#utility.yul\":12523:12541   */\n      0xffffffffffffffff\n        /* \"#utility.yul\":12515:12521   */\n      dup2\n        /* \"#utility.yul\":12512:12542   */\n      gt\n        /* \"#utility.yul\":12509:12626   */\n      iszero\n      tag_391\n      jumpi\n        /* \"#utility.yul\":12545:12624   */\n      tag_392\n      tag_186\n      jump\t// in\n    tag_392:\n        /* \"#utility.yul\":12509:12626   */\n    tag_391:\n        /* \"#utility.yul\":12650:12713   */\n      tag_393\n        /* \"#utility.yul\":12705:12712   */\n      dup8\n        /* \"#utility.yul\":12696:12702   */\n      dup3\n        /* \"#utility.yul\":12685:12694   */\n      dup9\n        /* \"#utility.yul\":12681:12703   */\n      add\n        /* \"#utility.yul\":12650:12713   */\n      tag_222\n      jump\t// in\n    tag_393:\n        /* \"#utility.yul\":12640:12713   */\n      swap3\n      pop\n        /* \"#utility.yul\":12435:12723   */\n      pop\n        /* \"#utility.yul\":12762:12764   */\n      0x60\n        /* \"#utility.yul\":12788:12841   */\n      tag_394\n        /* \"#utility.yul\":12833:12840   */\n      dup8\n        /* \"#utility.yul\":12824:12830   */\n      dup3\n        /* \"#utility.yul\":12813:12822   */\n      dup9\n        /* \"#utility.yul\":12809:12831   */\n      add\n        /* \"#utility.yul\":12788:12841   */\n      tag_189\n      jump\t// in\n    tag_394:\n        /* \"#utility.yul\":12778:12841   */\n      swap2\n      pop\n        /* \"#utility.yul\":12733:12851   */\n      pop\n        /* \"#utility.yul\":11733:12858   */\n      swap3\n      swap6\n      swap2\n      swap5\n      pop\n      swap3\n      pop\n      jump\t// out\n        /* \"#utility.yul\":12864:13044   */\n    tag_223:\n        /* \"#utility.yul\":12912:12989   */\n      0x4e487b7100000000000000000000000000000000000000000000000000000000\n        /* \"#utility.yul\":12909:12910   */\n      0x00\n        /* \"#utility.yul\":12902:12990   */\n      mstore\n        /* \"#utility.yul\":13009:13013   */\n      0x22\n        /* \"#utility.yul\":13006:13007   */\n      0x04\n        /* \"#utility.yul\":12999:13014   */\n      mstore\n        /* \"#utility.yul\":13033:13037   */\n      0x24\n        /* \"#utility.yul\":13030:13031   */\n      0x00\n        /* \"#utility.yul\":13023:13038   */\n      revert\n        /* \"#utility.yul\":13050:13370   */\n    tag_66:\n        /* \"#utility.yul\":13094:13100   */\n      0x00\n        /* \"#utility.yul\":13131:13132   */\n      0x02\n        /* \"#utility.yul\":13125:13129   */\n      dup3\n        /* \"#utility.yul\":13121:13133   */\n      div\n        /* \"#utility.yul\":13111:13133   */\n      swap1\n      pop\n        /* \"#utility.yul\":13178:13179   */\n      0x01\n        /* \"#utility.yul\":13172:13176   */\n      dup3\n        /* \"#utility.yul\":13168:13180   */\n      and\n        /* \"#utility.yul\":13199:13217   */\n      dup1\n        /* \"#utility.yul\":13189:13270   */\n      tag_397\n      jumpi\n        /* \"#utility.yul\":13255:13259   */\n      0x7f\n        /* \"#utility.yul\":13247:13253   */\n      dup3\n        /* \"#utility.yul\":13243:13260   */\n      and\n        /* \"#utility.yul\":13233:13260   */\n      swap2\n      pop\n        /* \"#utility.yul\":13189:13270   */\n    tag_397:\n        /* \"#utility.yul\":13317:13319   */\n      0x20\n        /* \"#utility.yul\":13309:13315   */\n      dup3\n        /* \"#utility.yul\":13306:13320   */\n      lt\n        /* \"#utility.yul\":13286:13304   */\n      dup2\n        /* \"#utility.yul\":13283:13321   */\n      sub\n        /* \"#utility.yul\":13280:13364   */\n      tag_398\n      jumpi\n        /* \"#utility.yul\":13336:13354   */\n      tag_399\n      tag_223\n      jump\t// in\n    tag_399:\n        /* \"#utility.yul\":13280:13364   */\n    tag_398:\n        /* \"#utility.yul\":13101:13370   */\n      pop\n        /* \"#utility.yul\":13050:13370   */\n      swap2\n      swap1\n      pop\n      jump\t// out\n        /* \"#utility.yul\":13376:13599   */\n    tag_224:\n        /* \"#utility.yul\":13516:13550   */\n      0x7a65726f20616464726573732063616e206e6f742062652061626c6520746f20\n        /* \"#utility.yul\":13512:13513   */\n      0x00\n        /* \"#utility.yul\":13504:13510   */\n      dup3\n        /* \"#utility.yul\":13500:13514   */\n      add\n        /* \"#utility.yul\":13493:13551   */\n      mstore\n        /* \"#utility.yul\":13585:13591   */\n      0x766f746500000000000000000000000000000000000000000000000000000000\n        /* \"#utility.yul\":13580:13582   */\n      0x20\n        /* \"#utility.yul\":13572:13578   */\n      dup3\n        /* \"#utility.yul\":13568:13583   */\n      add\n        /* \"#utility.yul\":13561:13592   */\n      mstore\n        /* \"#utility.yul\":13376:13599   */\n      pop\n      jump\t// out\n        /* \"#utility.yul\":13605:13971   */\n    tag_225:\n        /* \"#utility.yul\":13747:13750   */\n      0x00\n        /* \"#utility.yul\":13768:13835   */\n      tag_402\n        /* \"#utility.yul\":13832:13834   */\n      0x24\n        /* \"#utility.yul\":13827:13830   */\n      dup4\n        /* \"#utility.yul\":13768:13835   */\n      tag_192\n      jump\t// in\n    tag_402:\n        /* \"#utility.yul\":13761:13835   */\n      swap2\n      pop\n        /* \"#utility.yul\":13844:13937   */\n      tag_403\n        /* \"#utility.yul\":13933:13936   */\n      dup3\n        /* \"#utility.yul\":13844:13937   */\n      tag_224\n      jump\t// in\n    tag_403:\n        /* \"#utility.yul\":13962:13964   */\n      0x40\n        /* \"#utility.yul\":13957:13960   */\n      dup3\n        /* \"#utility.yul\":13953:13965   */\n      add\n        /* \"#utility.yul\":13946:13965   */\n      swap1\n      pop\n        /* \"#utility.yul\":13605:13971   */\n      swap2\n      swap1\n      pop\n      jump\t// out\n        /* \"#utility.yul\":13977:14396   */\n    tag_81:\n        /* \"#utility.yul\":14143:14147   */\n      0x00\n        /* \"#utility.yul\":14181:14183   */\n      0x20\n        /* \"#utility.yul\":14170:14179   */\n      dup3\n        /* \"#utility.yul\":14166:14184   */\n      add\n        /* \"#utility.yul\":14158:14184   */\n      swap1\n      pop\n        /* \"#utility.yul\":14230:14239   */\n      dup2\n        /* \"#utility.yul\":14224:14228   */\n      dup2\n        /* \"#utility.yul\":14220:14240   */\n      sub\n        /* \"#utility.yul\":14216:14217   */\n      0x00\n        /* \"#utility.yul\":14205:14214   */\n      dup4\n        /* \"#utility.yul\":14201:14218   */\n      add\n        /* \"#utility.yul\":14194:14241   */\n      mstore\n        /* \"#utility.yul\":14258:14389   */\n      tag_405\n        /* \"#utility.yul\":14384:14388   */\n      dup2\n        /* \"#utility.yul\":14258:14389   */\n      tag_225\n      jump\t// in\n    tag_405:\n        /* \"#utility.yul\":14250:14389   */\n      swap1\n      pop\n        /* \"#utility.yul\":13977:14396   */\n      swap2\n      swap1\n      pop\n      jump\t// out\n        /* \"#utility.yul\":14402:14580   */\n    tag_226:\n        /* \"#utility.yul\":14542:14572   */\n      0x646f75626c6520766f74696e67206973206e6f7420616c6c6f77656400000000\n        /* \"#utility.yul\":14538:14539   */\n      0x00\n        /* \"#utility.yul\":14530:14536   */\n      dup3\n        /* \"#utility.yul\":14526:14540   */\n      add\n        /* \"#utility.yul\":14519:14573   */\n      mstore\n        /* \"#utility.yul\":14402:14580   */\n      pop\n      jump\t// out\n        /* \"#utility.yul\":14586:14952   */\n    tag_227:\n        /* \"#utility.yul\":14728:14731   */\n      0x00\n        /* \"#utility.yul\":14749:14816   */\n      tag_408\n        /* \"#utility.yul\":14813:14815   */\n      0x1c\n        /* \"#utility.yul\":14808:14811   */\n      dup4\n        /* \"#utility.yul\":14749:14816   */\n      tag_192\n      jump\t// in\n    tag_408:\n        /* \"#utility.yul\":14742:14816   */\n      swap2\n      pop\n        /* \"#utility.yul\":14825:14918   */\n      tag_409\n        /* \"#utility.yul\":14914:14917   */\n      dup3\n        /* \"#utility.yul\":14825:14918   */\n      tag_226\n      jump\t// in\n    tag_409:\n        /* \"#utility.yul\":14943:14945   */\n      0x20\n        /* \"#utility.yul\":14938:14941   */\n      dup3\n        /* \"#utility.yul\":14934:14946   */\n      add\n        /* \"#utility.yul\":14927:14946   */\n      swap1\n      pop\n        /* \"#utility.yul\":14586:14952   */\n      swap2\n      swap1\n      pop\n      jump\t// out\n        /* \"#utility.yul\":14958:15377   */\n    tag_84:\n        /* \"#utility.yul\":15124:15128   */\n      0x00\n        /* \"#utility.yul\":15162:15164   */\n      0x20\n        /* \"#utility.yul\":15151:15160   */\n      dup3\n        /* \"#utility.yul\":15147:15165   */\n      add\n        /* \"#utility.yul\":15139:15165   */\n      swap1\n      pop\n        /* \"#utility.yul\":15211:15220   */\n      dup2\n        /* \"#utility.yul\":15205:15209   */\n      dup2\n        /* \"#utility.yul\":15201:15221   */\n      sub\n        /* \"#utility.yul\":15197:15198   */\n      0x00\n        /* \"#utility.yul\":15186:15195   */\n      dup4\n        /* \"#utility.yul\":15182:15199   */\n      add\n        /* \"#utility.yul\":15175:15222   */\n      mstore\n        /* \"#utility.yul\":15239:15370   */\n      tag_411\n        /* \"#utility.yul\":15365:15369   */\n      dup2\n        /* \"#utility.yul\":15239:15370   */\n      tag_227\n      jump\t// in\n    tag_411:\n        /* \"#utility.yul\":15231:15370   */\n      swap1\n      pop\n        /* \"#utility.yul\":14958:15377   */\n      swap2\n      swap1\n      pop\n      jump\t// out\n        /* \"#utility.yul\":15383:15556   */\n    tag_228:\n        /* \"#utility.yul\":15523:15548   */\n      0x70726f706f73616c20646f6573206e6f74206578697374000000000000000000\n        /* \"#utility.yul\":15519:15520   */\n      0x00\n        /* \"#utility.yul\":15511:15517   */\n      dup3\n        /* \"#utility.yul\":15507:15521   */\n      add\n        /* \"#utility.yul\":15500:15549   */\n      mstore\n        /* \"#utility.yul\":15383:15556   */\n      pop\n      jump\t// out\n        /* \"#utility.yul\":15562:15928   */\n    tag_229:\n        /* \"#utility.yul\":15704:15707   */\n      0x00\n        /* \"#utility.yul\":15725:15792   */\n      tag_414\n        /* \"#utility.yul\":15789:15791   */\n      0x17\n        /* \"#utility.yul\":15784:15787   */\n      dup4\n        /* \"#utility.yul\":15725:15792   */\n      tag_192\n      jump\t// in\n    tag_414:\n        /* \"#utility.yul\":15718:15792   */\n      swap2\n      pop\n        /* \"#utility.yul\":15801:15894   */\n      tag_415\n        /* \"#utility.yul\":15890:15893   */\n      dup3\n        /* \"#utility.yul\":15801:15894   */\n      tag_228\n      jump\t// in\n    tag_415:\n        /* \"#utility.yul\":15919:15921   */\n      0x20\n        /* \"#utility.yul\":15914:15917   */\n      dup3\n        /* \"#utility.yul\":15910:15922   */\n      add\n        /* \"#utility.yul\":15903:15922   */\n      swap1\n      pop\n        /* \"#utility.yul\":15562:15928   */\n      swap2\n      swap1\n      pop\n      jump\t// out\n        /* \"#utility.yul\":15934:16353   */\n    tag_89:\n        /* \"#utility.yul\":16100:16104   */\n      0x00\n        /* \"#utility.yul\":16138:16140   */\n      0x20\n        /* \"#utility.yul\":16127:16136   */\n      dup3\n        /* \"#utility.yul\":16123:16141   */\n      add\n        /* \"#utility.yul\":16115:16141   */\n      swap1\n      pop\n        /* \"#utility.yul\":16187:16196   */\n      dup2\n        /* \"#utility.yul\":16181:16185   */\n      dup2\n        /* \"#utility.yul\":16177:16197   */\n      sub\n        /* \"#utility.yul\":16173:16174   */\n      0x00\n        /* \"#utility.yul\":16162:16171   */\n      dup4\n        /* \"#utility.yul\":16158:16175   */\n      add\n        /* \"#utility.yul\":16151:16198   */\n      mstore\n        /* \"#utility.yul\":16215:16346   */\n      tag_417\n        /* \"#utility.yul\":16341:16345   */\n      dup2\n        /* \"#utility.yul\":16215:16346   */\n      tag_229\n      jump\t// in\n    tag_417:\n        /* \"#utility.yul\":16207:16346   */\n      swap1\n      pop\n        /* \"#utility.yul\":15934:16353   */\n      swap2\n      swap1\n      pop\n      jump\t// out\n        /* \"#utility.yul\":16359:16521   */\n    tag_230:\n        /* \"#utility.yul\":16499:16513   */\n      0x7565722072657920766f74650000000000000000000000000000000000000000\n        /* \"#utility.yul\":16495:16496   */\n      0x00\n        /* \"#utility.yul\":16487:16493   */\n      dup3\n        /* \"#utility.yul\":16483:16497   */\n      add\n        /* \"#utility.yul\":16476:16514   */\n      mstore\n        /* \"#utility.yul\":16359:16521   */\n      pop\n      jump\t// out\n        /* \"#utility.yul\":16527:16893   */\n    tag_231:\n        /* \"#utility.yul\":16669:16672   */\n      0x00\n        /* \"#utility.yul\":16690:16757   */\n      tag_420\n        /* \"#utility.yul\":16754:16756   */\n      0x0c\n        /* \"#utility.yul\":16749:16752   */\n      dup4\n        /* \"#utility.yul\":16690:16757   */\n      tag_192\n      jump\t// in\n    tag_420:\n        /* \"#utility.yul\":16683:16757   */\n      swap2\n      pop\n        /* \"#utility.yul\":16766:16859   */\n      tag_421\n        /* \"#utility.yul\":16855:16858   */\n      dup3\n        /* \"#utility.yul\":16766:16859   */\n      tag_230\n      jump\t// in\n    tag_421:\n        /* \"#utility.yul\":16884:16886   */\n      0x20\n        /* \"#utility.yul\":16879:16882   */\n      dup3\n        /* \"#utility.yul\":16875:16887   */\n      add\n        /* \"#utility.yul\":16868:16887   */\n      swap1\n      pop\n        /* \"#utility.yul\":16527:16893   */\n      swap2\n      swap1\n      pop\n      jump\t// out\n        /* \"#utility.yul\":16899:17318   */\n    tag_92:\n        /* \"#utility.yul\":17065:17069   */\n      0x00\n        /* \"#utility.yul\":17103:17105   */\n      0x20\n        /* \"#utility.yul\":17092:17101   */\n      dup3\n        /* \"#utility.yul\":17088:17106   */\n      add\n        /* \"#utility.yul\":17080:17106   */\n      swap1\n      pop\n        /* \"#utility.yul\":17152:17161   */\n      dup2\n        /* \"#utility.yul\":17146:17150   */\n      dup2\n        /* \"#utility.yul\":17142:17162   */\n      sub\n        /* \"#utility.yul\":17138:17139   */\n      0x00\n        /* \"#utility.yul\":17127:17136   */\n      dup4\n        /* \"#utility.yul\":17123:17140   */\n      add\n        /* \"#utility.yul\":17116:17163   */\n      mstore\n        /* \"#utility.yul\":17180:17311   */\n      tag_423\n        /* \"#utility.yul\":17306:17310   */\n      dup2\n        /* \"#utility.yul\":17180:17311   */\n      tag_231\n      jump\t// in\n    tag_423:\n        /* \"#utility.yul\":17172:17311   */\n      swap1\n      pop\n        /* \"#utility.yul\":16899:17318   */\n      swap2\n      swap1\n      pop\n      jump\t// out\n        /* \"#utility.yul\":17324:17465   */\n    tag_232:\n        /* \"#utility.yul\":17373:17377   */\n      0x00\n        /* \"#utility.yul\":17396:17399   */\n      dup2\n        /* \"#utility.yul\":17388:17399   */\n      swap1\n      pop\n        /* \"#utility.yul\":17419:17422   */\n      dup2\n        /* \"#utility.yul\":17416:17417   */\n      0x00\n        /* \"#utility.yul\":17409:17423   */\n      mstore\n        /* \"#utility.yul\":17453:17457   */\n      0x20\n        /* \"#utility.yul\":17450:17451   */\n      0x00\n        /* \"#utility.yul\":17440:17458   */\n      keccak256\n        /* \"#utility.yul\":17432:17458   */\n      swap1\n      pop\n        /* \"#utility.yul\":17324:17465   */\n      swap2\n      swap1\n      pop\n      jump\t// out\n        /* \"#utility.yul\":17471:17564   */\n    tag_233:\n        /* \"#utility.yul\":17508:17514   */\n      0x00\n        /* \"#utility.yul\":17555:17557   */\n      0x20\n        /* \"#utility.yul\":17550:17552   */\n      0x1f\n        /* \"#utility.yul\":17543:17548   */\n      dup4\n        /* \"#utility.yul\":17539:17553   */\n      add\n        /* \"#utility.yul\":17535:17558   */\n      div\n        /* \"#utility.yul\":17525:17558   */\n      swap1\n      pop\n        /* \"#utility.yul\":17471:17564   */\n      swap2\n      swap1\n      pop\n      jump\t// out\n        /* \"#utility.yul\":17570:17677   */\n    tag_234:\n        /* \"#utility.yul\":17614:17622   */\n      0x00\n        /* \"#utility.yul\":17664:17669   */\n      dup3\n        /* \"#utility.yul\":17658:17662   */\n      dup3\n        /* \"#utility.yul\":17654:17670   */\n      shl\n        /* \"#utility.yul\":17633:17670   */\n      swap1\n      pop\n        /* \"#utility.yul\":17570:17677   */\n      swap3\n      swap2\n      pop\n      pop\n      jump\t// out\n        /* \"#utility.yul\":17683:18076   */\n    tag_235:\n        /* \"#utility.yul\":17752:17758   */\n      0x00\n        /* \"#utility.yul\":17802:17803   */\n      0x08\n        /* \"#utility.yul\":17790:17800   */\n      dup4\n        /* \"#utility.yul\":17786:17804   */\n      mul\n        /* \"#utility.yul\":17825:17922   */\n      tag_428\n        /* \"#utility.yul\":17855:17921   */\n      0xffffffffffffffffffffffffffffffffffffffffffffffffffffffffffffffff\n        /* \"#utility.yul\":17844:17853   */\n      dup3\n        /* \"#utility.yul\":17825:17922   */\n      tag_234\n      jump\t// in\n    tag_428:\n        /* \"#utility.yul\":17943:17982   */\n      tag_429\n        /* \"#utility.yul\":17973:17981   */\n      dup7\n        /* \"#utility.yul\":17962:17971   */\n      dup4\n        /* \"#utility.yul\":17943:17982   */\n      tag_234\n      jump\t// in\n    tag_429:\n        /* \"#utility.yul\":17931:17982   */\n      swap6\n      pop\n        /* \"#utility.yul\":18015:18019   */\n      dup1\n        /* \"#utility.yul\":18011:18020   */\n      not\n        /* \"#utility.yul\":18004:18009   */\n      dup5\n        /* \"#utility.yul\":18000:18021   */\n      and\n        /* \"#utility.yul\":17991:18021   */\n      swap4\n      pop\n        /* \"#utility.yul\":18064:18068   */\n      dup1\n        /* \"#utility.yul\":18054:18062   */\n      dup7\n        /* \"#utility.yul\":18050:18069   */\n      and\n        /* \"#utility.yul\":18043:18048   */\n      dup5\n        /* \"#utility.yul\":18040:18070   */\n      or\n        /* \"#utility.yul\":18030:18070   */\n      swap3\n      pop\n        /* \"#utility.yul\":17759:18076   */\n      pop\n      pop\n        /* \"#utility.yul\":17683:18076   */\n      swap4\n      swap3\n      pop\n      pop\n      pop\n      jump\t// out\n        /* \"#utility.yul\":18082:18142   */\n    tag_236:\n        /* \"#utility.yul\":18110:18113   */\n      0x00\n        /* \"#utility.yul\":18131:18136   */\n      dup2\n        /* \"#utility.yul\":18124:18136   */\n      swap1\n      pop\n        /* \"#utility.yul\":18082:18142   */\n      swap2\n      swap1\n      pop\n      jump\t// out\n        /* \"#utility.yul\":18148:18290   */\n    tag_237:\n        /* \"#utility.yul\":18198:18207   */\n      0x00\n        /* \"#utility.yul\":18231:18284   */\n      tag_432\n        /* \"#utility.yul\":18249:18283   */\n      tag_433\n        /* \"#utility.yul\":18258:18282   */\n      tag_434\n        /* \"#utility.yul\":18276:18281   */\n      dup5\n        /* \"#utility.yul\":18258:18282   */\n      tag_187\n      jump\t// in\n    tag_434:\n        /* \"#utility.yul\":18249:18283   */\n      tag_236\n      jump\t// in\n    tag_433:\n        /* \"#utility.yul\":18231:18284   */\n      tag_187\n      jump\t// in\n    tag_432:\n        /* \"#utility.yul\":18218:18284   */\n      swap1\n      pop\n        /* \"#utility.yul\":18148:18290   */\n      swap2\n      swap1\n      pop\n      jump\t// out\n        /* \"#utility.yul\":18296:18371   */\n    tag_238:\n        /* \"#utility.yul\":18339:18342   */\n      0x00\n        /* \"#utility.yul\":18360:18365   */\n      dup2\n        /* \"#utility.yul\":18353:18365   */\n      swap1\n      pop\n        /* \"#utility.yul\":18296:18371   */\n      swap2\n      swap1\n      pop\n      jump\t// out\n        /* \"#utility.yul\":18377:18646   */\n    tag_239:\n        /* \"#utility.yul\":18487:18526   */\n      tag_437\n        /* \"#utility.yul\":18518:18525   */\n      dup4\n        /* \"#utility.yul\":18487:18526   */\n      tag_237\n      jump\t// in\n    tag_437:\n        /* \"#utility.yul\":18548:18639   */\n      tag_438\n        /* \"#utility.yul\":18597:18638   */\n      tag_439\n        /* \"#utility.yul\":18621:18637   */\n      dup3\n        /* \"#utility.yul\":18597:18638   */\n      tag_238\n      jump\t// in\n    tag_439:\n        /* \"#utility.yul\":18589:18595   */\n      dup5\n        /* \"#utility.yul\":18582:18586   */\n      dup5\n        /* \"#utility.yul\":18576:18587   */\n      sload\n        /* \"#utility.yul\":18548:18639   */\n      tag_235\n      jump\t// in\n    tag_438:\n        /* \"#utility.yul\":18542:18546   */\n      dup3\n        /* \"#utility.yul\":18535:18640   */\n      sstore\n        /* \"#utility.yul\":18453:18646   */\n      pop\n        /* \"#utility.yul\":18377:18646   */\n      pop\n      pop\n      pop\n      jump\t// out\n        /* \"#utility.yul\":18652:18725   */\n    tag_240:\n        /* \"#utility.yul\":18697:18700   */\n      0x00\n        /* \"#utility.yul\":18718:18719   */\n      0x00\n        /* \"#utility.yul\":18711:18719   */\n      swap1\n      pop\n        /* \"#utility.yul\":18652:18725   */\n      swap1\n      jump\t// out\n        /* \"#utility.yul\":18731:18920   */\n    tag_241:\n        /* \"#utility.yul\":18808:18840   */\n      tag_442\n      tag_240\n      jump\t// in\n    tag_442:\n        /* \"#utility.yul\":18849:18914   */\n      tag_443\n        /* \"#utility.yul\":18907:18913   */\n      dup2\n        /* \"#utility.yul\":18899:18905   */\n      dup5\n        /* \"#utility.yul\":18893:18897   */\n      dup5\n        /* \"#utility.yul\":18849:18914   */\n      tag_239\n      jump\t// in\n    tag_443:\n        /* \"#utility.yul\":18784:18920   */\n      pop\n        /* \"#utility.yul\":18731:18920   */\n      pop\n      pop\n      jump\t// out\n        /* \"#utility.yul\":18926:19112   */\n    tag_242:\n        /* \"#utility.yul\":18986:19106   */\n    tag_445:\n        /* \"#utility.yul\":19003:19006   */\n      dup2\n        /* \"#utility.yul\":18996:19001   */\n      dup2\n        /* \"#utility.yul\":18993:19007   */\n      lt\n        /* \"#utility.yul\":18986:19106   */\n      iszero\n      tag_447\n      jumpi\n        /* \"#utility.yul\":19057:19096   */\n      tag_448\n        /* \"#utility.yul\":19094:19095   */\n      0x00\n        /* \"#utility.yul\":19087:19092   */\n      dup3\n        /* \"#utility.yul\":19057:19096   */\n      tag_241\n      jump\t// in\n    tag_448:\n        /* \"#utility.yul\":19030:19031   */\n      0x01\n        /* \"#utility.yul\":19023:19028   */\n      dup2\n        /* \"#utility.yul\":19019:19032   */\n      add\n        /* \"#utility.yul\":19010:19032   */\n      swap1\n      pop\n        /* \"#utility.yul\":18986:19106   */\n      jump(tag_445)\n    tag_447:\n        /* \"#utility.yul\":18926:19112   */\n      pop\n      pop\n      jump\t// out\n        /* \"#utility.yul\":19118:19661   */\n    tag_243:\n        /* \"#utility.yul\":19219:19221   */\n      0x1f\n        /* \"#utility.yul\":19214:19217   */\n      dup3\n        /* \"#utility.yul\":19211:19222   */\n      gt\n        /* \"#utility.yul\":19208:19654   */\n      iszero\n      tag_450\n      jumpi\n        /* \"#utility.yul\":19253:19291   */\n      tag_451\n        /* \"#utility.yul\":19285:19290   */\n      dup2\n        /* \"#utility.yul\":19253:19291   */\n      tag_232\n      jump\t// in\n    tag_451:\n        /* \"#utility.yul\":19337:19366   */\n      tag_452\n        /* \"#utility.yul\":19355:19365   */\n      dup5\n        /* \"#utility.yul\":19337:19366   */\n      tag_233\n      jump\t// in\n    tag_452:\n        /* \"#utility.yul\":19327:19335   */\n      dup2\n        /* \"#utility.yul\":19323:19367   */\n      add\n        /* \"#utility.yul\":19520:19522   */\n      0x20\n        /* \"#utility.yul\":19508:19518   */\n      dup6\n        /* \"#utility.yul\":19505:19523   */\n      lt\n        /* \"#utility.yul\":19502:19551   */\n      iszero\n      tag_453\n      jumpi\n        /* \"#utility.yul\":19541:19549   */\n      dup2\n        /* \"#utility.yul\":19526:19549   */\n      swap1\n      pop\n        /* \"#utility.yul\":19502:19551   */\n    tag_453:\n        /* \"#utility.yul\":19564:19644   */\n      tag_454\n        /* \"#utility.yul\":19620:19642   */\n      tag_455\n        /* \"#utility.yul\":19638:19641   */\n      dup6\n        /* \"#utility.yul\":19620:19642   */\n      tag_233\n      jump\t// in\n    tag_455:\n        /* \"#utility.yul\":19610:19618   */\n      dup4\n        /* \"#utility.yul\":19606:19643   */\n      add\n        /* \"#utility.yul\":19593:19604   */\n      dup3\n        /* \"#utility.yul\":19564:19644   */\n      tag_242\n      jump\t// in\n    tag_454:\n        /* \"#utility.yul\":19223:19654   */\n      pop\n      pop\n        /* \"#utility.yul\":19208:19654   */\n    tag_450:\n        /* \"#utility.yul\":19118:19661   */\n      pop\n      pop\n      pop\n      jump\t// out\n        /* \"#utility.yul\":19667:19784   */\n    tag_244:\n        /* \"#utility.yul\":19721:19729   */\n      0x00\n        /* \"#utility.yul\":19771:19776   */\n      dup3\n        /* \"#utility.yul\":19765:19769   */\n      dup3\n        /* \"#utility.yul\":19761:19777   */\n      shr\n        /* \"#utility.yul\":19740:19777   */\n      swap1\n      pop\n        /* \"#utility.yul\":19667:19784   */\n      swap3\n      swap2\n      pop\n      pop\n      jump\t// out\n        /* \"#utility.yul\":19790:19959   */\n    tag_245:\n        /* \"#utility.yul\":19834:19840   */\n      0x00\n        /* \"#utility.yul\":19867:19918   */\n      tag_458\n        /* \"#utility.yul\":19915:19916   */\n      0x00\n        /* \"#utility.yul\":19911:19917   */\n      not\n        /* \"#utility.yul\":19903:19908   */\n      dup5\n        /* \"#utility.yul\":19900:19901   */\n      0x08\n        /* \"#utility.yul\":19896:19909   */\n      mul\n        /* \"#utility.yul\":19867:19918   */\n      tag_244\n      jump\t// in\n    tag_458:\n        /* \"#utility.yul\":19863:19919   */\n      not\n        /* \"#utility.yul\":19948:19952   */\n      dup1\n        /* \"#utility.yul\":19942:19946   */\n      dup4\n        /* \"#utility.yul\":19938:19953   */\n      and\n        /* \"#utility.yul\":19928:19953   */\n      swap2\n      pop\n        /* \"#utility.yul\":19841:19959   */\n      pop\n        /* \"#utility.yul\":19790:19959   */\n      swap3\n      swap2\n      pop\n      pop\n      jump\t// out\n        /* \"#utility.yul\":19964:20259   */\n    tag_246:\n        /* \"#utility.yul\":20040:20044   */\n      0x00\n        /* \"#utility.yul\":20186:20215   */\n      tag_460\n        /* \"#utility.yul\":20211:20214   */\n      dup4\n        /* \"#utility.yul\":20205:20209   */\n      dup4\n        /* \"#utility.yul\":20186:20215   */\n      tag_245\n      jump\t// in\n    tag_460:\n        /* \"#utility.yul\":20178:20215   */\n      swap2\n      pop\n        /* \"#utility.yul\":20248:20251   */\n      dup3\n        /* \"#utility.yul\":20245:20246   */\n      0x02\n        /* \"#utility.yul\":20241:20252   */\n      mul\n        /* \"#utility.yul\":20235:20239   */\n      dup3\n        /* \"#utility.yul\":20232:20253   */\n      or\n        /* \"#utility.yul\":20224:20253   */\n      swap1\n      pop\n        /* \"#utility.yul\":19964:20259   */\n      swap3\n      swap2\n      pop\n      pop\n      jump\t// out\n        /* \"#utility.yul\":20264:21659   */\n    tag_107:\n        /* \"#utility.yul\":20381:20418   */\n      tag_462\n        /* \"#utility.yul\":20414:20417   */\n      dup3\n        /* \"#utility.yul\":20381:20418   */\n      tag_191\n      jump\t// in\n    tag_462:\n        /* \"#utility.yul\":20483:20501   */\n      0xffffffffffffffff\n        /* \"#utility.yul\":20475:20481   */\n      dup2\n        /* \"#utility.yul\":20472:20502   */\n      gt\n        /* \"#utility.yul\":20469:20525   */\n      iszero\n      tag_463\n      jumpi\n        /* \"#utility.yul\":20505:20523   */\n      tag_464\n      tag_216\n      jump\t// in\n    tag_464:\n        /* \"#utility.yul\":20469:20525   */\n    tag_463:\n        /* \"#utility.yul\":20549:20587   */\n      tag_465\n        /* \"#utility.yul\":20581:20585   */\n      dup3\n        /* \"#utility.yul\":20575:20586   */\n      sload\n        /* \"#utility.yul\":20549:20587   */\n      tag_66\n      jump\t// in\n    tag_465:\n        /* \"#utility.yul\":20634:20701   */\n      tag_466\n        /* \"#utility.yul\":20694:20700   */\n      dup3\n        /* \"#utility.yul\":20686:20692   */\n      dup3\n        /* \"#utility.yul\":20680:20684   */\n      dup6\n        /* \"#utility.yul\":20634:20701   */\n      tag_243\n      jump\t// in\n    tag_466:\n        /* \"#utility.yul\":20728:20729   */\n      0x00\n        /* \"#utility.yul\":20752:20756   */\n      0x20\n        /* \"#utility.yul\":20739:20756   */\n      swap1\n      pop\n        /* \"#utility.yul\":20784:20786   */\n      0x1f\n        /* \"#utility.yul\":20776:20782   */\n      dup4\n        /* \"#utility.yul\":20773:20787   */\n      gt\n        /* \"#utility.yul\":20801:20802   */\n      0x01\n        /* \"#utility.yul\":20796:21414   */\n      dup2\n      eq\n      tag_468\n      jumpi\n        /* \"#utility.yul\":21458:21459   */\n      0x00\n        /* \"#utility.yul\":21475:21481   */\n      dup5\n        /* \"#utility.yul\":21472:21549   */\n      iszero\n      tag_469\n      jumpi\n        /* \"#utility.yul\":21524:21533   */\n      dup3\n        /* \"#utility.yul\":21519:21522   */\n      dup8\n        /* \"#utility.yul\":21515:21534   */\n      add\n        /* \"#utility.yul\":21509:21535   */\n      mload\n        /* \"#utility.yul\":21500:21535   */\n      swap1\n      pop\n        /* \"#utility.yul\":21472:21549   */\n    tag_469:\n        /* \"#utility.yul\":21575:21642   */\n      tag_470\n        /* \"#utility.yul\":21635:21641   */\n      dup6\n        /* \"#utility.yul\":21628:21633   */\n      dup3\n        /* \"#utility.yul\":21575:21642   */\n      tag_246\n      jump\t// in\n    tag_470:\n        /* \"#utility.yul\":21569:21573   */\n      dup7\n        /* \"#utility.yul\":21562:21643   */\n      sstore\n        /* \"#utility.yul\":21431:21653   */\n      pop\n        /* \"#utility.yul\":20766:21653   */\n      jump(tag_467)\n        /* \"#utility.yul\":20796:21414   */\n    tag_468:\n        /* \"#utility.yul\":20848:20852   */\n      0x1f\n        /* \"#utility.yul\":20844:20853   */\n      not\n        /* \"#utility.yul\":20836:20842   */\n      dup5\n        /* \"#utility.yul\":20832:20854   */\n      and\n        /* \"#utility.yul\":20882:20919   */\n      tag_471\n        /* \"#utility.yul\":20914:20918   */\n      dup7\n        /* \"#utility.yul\":20882:20919   */\n      tag_232\n      jump\t// in\n    tag_471:\n        /* \"#utility.yul\":20941:20942   */\n      0x00\n        /* \"#utility.yul\":20955:21163   */\n    tag_472:\n        /* \"#utility.yul\":20969:20976   */\n      dup3\n        /* \"#utility.yul\":20966:20967   */\n      dup2\n        /* \"#utility.yul\":20963:20977   */\n      lt\n        /* \"#utility.yul\":20955:21163   */\n      iszero\n      tag_474\n      jumpi\n        /* \"#utility.yul\":21048:21057   */\n      dup5\n        /* \"#utility.yul\":21043:21046   */\n      dup10\n        /* \"#utility.yul\":21039:21058   */\n      add\n        /* \"#utility.yul\":21033:21059   */\n      mload\n        /* \"#utility.yul\":21025:21031   */\n      dup3\n        /* \"#utility.yul\":21018:21060   */\n      sstore\n        /* \"#utility.yul\":21099:21100   */\n      0x01\n        /* \"#utility.yul\":21091:21097   */\n      dup3\n        /* \"#utility.yul\":21087:21101   */\n      add\n        /* \"#utility.yul\":21077:21101   */\n      swap2\n      pop\n        /* \"#utility.yul\":21146:21148   */\n      0x20\n        /* \"#utility.yul\":21135:21144   */\n      dup6\n        /* \"#utility.yul\":21131:21149   */\n      add\n        /* \"#utility.yul\":21118:21149   */\n      swap5\n      pop\n        /* \"#utility.yul\":20992:20996   */\n      0x20\n        /* \"#utility.yul\":20989:20990   */\n      dup2\n        /* \"#utility.yul\":20985:20997   */\n      add\n        /* \"#utility.yul\":20980:20997   */\n      swap1\n      pop\n        /* \"#utility.yul\":20955:21163   */\n      jump(tag_472)\n    tag_474:\n        /* \"#utility.yul\":21191:21197   */\n      dup7\n        /* \"#utility.yul\":21182:21189   */\n      dup4\n        /* \"#utility.yul\":21179:21198   */\n      lt\n        /* \"#utility.yul\":21176:21355   */\n      iszero\n      tag_475\n      jumpi\n        /* \"#utility.yul\":21249:21258   */\n      dup5\n        /* \"#utility.yul\":21244:21247   */\n      dup10\n        /* \"#utility.yul\":21240:21259   */\n      add\n        /* \"#utility.yul\":21234:21260   */\n      mload\n        /* \"#utility.yul\":21292:21340   */\n      tag_476\n        /* \"#utility.yul\":21334:21338   */\n      0x1f\n        /* \"#utility.yul\":21326:21332   */\n      dup10\n        /* \"#utility.yul\":21322:21339   */\n      and\n        /* \"#utility.yul\":21311:21320   */\n      dup3\n        /* \"#utility.yul\":21292:21340   */\n      tag_245\n      jump\t// in\n    tag_476:\n        /* \"#utility.yul\":21284:21290   */\n      dup4\n        /* \"#utility.yul\":21277:21341   */\n      sstore\n        /* \"#utility.yul\":21199:21355   */\n      pop\n        /* \"#utility.yul\":21176:21355   */\n    tag_475:\n        /* \"#utility.yul\":21401:21402   */\n      0x01\n        /* \"#utility.yul\":21397:21398   */\n      0x02\n        /* \"#utility.yul\":21389:21395   */\n      dup9\n        /* \"#utility.yul\":21385:21399   */\n      mul\n        /* \"#utility.yul\":21381:21403   */\n      add\n        /* \"#utility.yul\":21375:21379   */\n      dup9\n        /* \"#utility.yul\":21368:21404   */\n      sstore\n        /* \"#utility.yul\":20803:21414   */\n      pop\n      pop\n      pop\n        /* \"#utility.yul\":20766:21653   */\n    tag_467:\n      pop\n        /* \"#utility.yul\":20356:21659   */\n      pop\n      pop\n      pop\n        /* \"#utility.yul\":20264:21659   */\n      pop\n      pop\n      jump\t// out\n        /* \"#utility.yul\":21665:21847   */\n    tag_247:\n        /* \"#utility.yul\":21805:21839   */\n      0x6f6e6c79206f776e65722063616e20706572666f726d20746865207461736b73\n        /* \"#utility.yul\":21801:21802   */\n      0x00\n        /* \"#utility.yul\":21793:21799   */\n      dup3\n        /* \"#utility.yul\":21789:21803   */\n      add\n        /* \"#utility.yul\":21782:21840   */\n      mstore\n        /* \"#utility.yul\":21665:21847   */\n      pop\n      jump\t// out\n        /* \"#utility.yul\":21853:22219   */\n    tag_248:\n        /* \"#utility.yul\":21995:21998   */\n      0x00\n        /* \"#utility.yul\":22016:22083   */\n      tag_479\n        /* \"#utility.yul\":22080:22082   */\n      0x20\n        /* \"#utility.yul\":22075:22078   */\n      dup4\n        /* \"#utility.yul\":22016:22083   */\n      tag_192\n      jump\t// in\n    tag_479:\n        /* \"#utility.yul\":22009:22083   */\n      swap2\n      pop\n        /* \"#utility.yul\":22092:22185   */\n      tag_480\n        /* \"#utility.yul\":22181:22184   */\n      dup3\n        /* \"#utility.yul\":22092:22185   */\n      tag_247\n      jump\t// in\n    tag_480:\n        /* \"#utility.yul\":22210:22212   */\n      0x20\n        /* \"#utility.yul\":22205:22208   */\n      dup3\n        /* \"#utility.yul\":22201:22213   */\n      add\n        /* \"#utility.yul\":22194:22213   */\n      swap1\n      pop\n        /* \"#utility.yul\":21853:22219   */\n      swap2\n      swap1\n      pop\n      jump\t// out\n        /* \"#utility.yul\":22225:22644   */\n    tag_146:\n        /* \"#utility.yul\":22391:22395   */\n      0x00\n        /* \"#utility.yul\":22429:22431   */\n      0x20\n        /* \"#utility.yul\":22418:22427   */\n      dup3\n        /* \"#utility.yul\":22414:22432   */\n      add\n        /* \"#utility.yul\":22406:22432   */\n      swap1\n      pop\n        /* \"#utility.yul\":22478:22487   */\n      dup2\n        /* \"#utility.yul\":22472:22476   */\n      dup2\n        /* \"#utility.yul\":22468:22488   */\n      sub\n        /* \"#utility.yul\":22464:22465   */\n      0x00\n        /* \"#utility.yul\":22453:22462   */\n      dup4\n        /* \"#utility.yul\":22449:22466   */\n      add\n        /* \"#utility.yul\":22442:22489   */\n      mstore\n        /* \"#utility.yul\":22506:22637   */\n      tag_482\n        /* \"#utility.yul\":22632:22636   */\n      dup2\n        /* \"#utility.yul\":22506:22637   */\n      tag_248\n      jump\t// in\n    tag_482:\n        /* \"#utility.yul\":22498:22637   */\n      swap1\n      pop\n        /* \"#utility.yul\":22225:22644   */\n      swap2\n      swap1\n      pop\n      jump\t// out\n        /* \"#utility.yul\":22650:22873   */\n    tag_249:\n        /* \"#utility.yul\":22790:22824   */\n      0x74686520646561646c696e652063616e206e6f7420626520696e207061737420\n        /* \"#utility.yul\":22786:22787   */\n      0x00\n        /* \"#utility.yul\":22778:22784   */\n      dup3\n        /* \"#utility.yul\":22774:22788   */\n      add\n        /* \"#utility.yul\":22767:22825   */\n      mstore\n        /* \"#utility.yul\":22859:22865   */\n      0x74696d6500000000000000000000000000000000000000000000000000000000\n        /* \"#utility.yul\":22854:22856   */\n      0x20\n        /* \"#utility.yul\":22846:22852   */\n      dup3\n        /* \"#utility.yul\":22842:22857   */\n      add\n        /* \"#utility.yul\":22835:22866   */\n      mstore\n        /* \"#utility.yul\":22650:22873   */\n      pop\n      jump\t// out\n        /* \"#utility.yul\":22879:23245   */\n    tag_250:\n        /* \"#utility.yul\":23021:23024   */\n      0x00\n        /* \"#utility.yul\":23042:23109   */\n      tag_485\n        /* \"#utility.yul\":23106:23108   */\n      0x24\n        /* \"#utility.yul\":23101:23104   */\n      dup4\n        /* \"#utility.yul\":23042:23109   */\n      tag_192\n      jump\t// in\n    tag_485:\n        /* \"#utility.yul\":23035:23109   */\n      swap2\n      pop\n        /* \"#utility.yul\":23118:23211   */\n      tag_486\n        /* \"#utility.yul\":23207:23210   */\n      dup3\n        /* \"#utility.yul\":23118:23211   */\n      tag_249\n      jump\t// in\n    tag_486:\n        /* \"#utility.yul\":23236:23238   */\n      0x40\n        /* \"#utility.yul\":23231:23234   */\n      dup3\n        /* \"#utility.yul\":23227:23239   */\n      add\n        /* \"#utility.yul\":23220:23239   */\n      swap1\n      pop\n        /* \"#utility.yul\":22879:23245   */\n      swap2\n      swap1\n      pop\n      jump\t// out\n        /* \"#utility.yul\":23251:23670   */\n    tag_150:\n        /* \"#utility.yul\":23417:23421   */\n      0x00\n        /* \"#utility.yul\":23455:23457   */\n      0x20\n        /* \"#utility.yul\":23444:23453   */\n      dup3\n        /* \"#utility.yul\":23440:23458   */\n      add\n        /* \"#utility.yul\":23432:23458   */\n      swap1\n      pop\n        /* \"#utility.yul\":23504:23513   */\n      dup2\n        /* \"#utility.yul\":23498:23502   */\n      dup2\n        /* \"#utility.yul\":23494:23514   */\n      sub\n        /* \"#utility.yul\":23490:23491   */\n      0x00\n        /* \"#utility.yul\":23479:23488   */\n      dup4\n        /* \"#utility.yul\":23475:23492   */\n      add\n        /* \"#utility.yul\":23468:23515   */\n      mstore\n        /* \"#utility.yul\":23532:23663   */\n      tag_488\n        /* \"#utility.yul\":23658:23662   */\n      dup2\n        /* \"#utility.yul\":23532:23663   */\n      tag_250\n      jump\t// in\n    tag_488:\n        /* \"#utility.yul\":23524:23663   */\n      swap1\n      pop\n        /* \"#utility.yul\":23251:23670   */\n      swap2\n      swap1\n      pop\n      jump\t// out\n        /* \"#utility.yul\":23676:23857   */\n    tag_251:\n        /* \"#utility.yul\":23816:23849   */\n      0x70726f706f73616c206964206973207a65726f20616e6420696e76616c696400\n        /* \"#utility.yul\":23812:23813   */\n      0x00\n        /* \"#utility.yul\":23804:23810   */\n      dup3\n        /* \"#utility.yul\":23800:23814   */\n      add\n        /* \"#utility.yul\":23793:23850   */\n      mstore\n        /* \"#utility.yul\":23676:23857   */\n      pop\n      jump\t// out\n        /* \"#utility.yul\":23863:24229   */\n    tag_252:\n        /* \"#utility.yul\":24005:24008   */\n      0x00\n        /* \"#utility.yul\":24026:24093   */\n      tag_491\n        /* \"#utility.yul\":24090:24092   */\n      0x1f\n        /* \"#utility.yul\":24085:24088   */\n      dup4\n        /* \"#utility.yul\":24026:24093   */\n      tag_192\n      jump\t// in\n    tag_491:\n        /* \"#utility.yul\":24019:24093   */\n      swap2\n      pop\n        /* \"#utility.yul\":24102:24195   */\n      tag_492\n        /* \"#utility.yul\":24191:24194   */\n      dup3\n        /* \"#utility.yul\":24102:24195   */\n      tag_251\n      jump\t// in\n    tag_492:\n        /* \"#utility.yul\":24220:24222   */\n      0x20\n        /* \"#utility.yul\":24215:24218   */\n      dup3\n        /* \"#utility.yul\":24211:24223   */\n      add\n        /* \"#utility.yul\":24204:24223   */\n      swap1\n      pop\n        /* \"#utility.yul\":23863:24229   */\n      swap2\n      swap1\n      pop\n      jump\t// out\n        /* \"#utility.yul\":24235:24654   */\n    tag_158:\n        /* \"#utility.yul\":24401:24405   */\n      0x00\n        /* \"#utility.yul\":24439:24441   */\n      0x20\n        /* \"#utility.yul\":24428:24437   */\n      dup3\n        /* \"#utility.yul\":24424:24442   */\n      add\n        /* \"#utility.yul\":24416:24442   */\n      swap1\n      pop\n        /* \"#utility.yul\":24488:24497   */\n      dup2\n        /* \"#utility.yul\":24482:24486   */\n      dup2\n        /* \"#utility.yul\":24478:24498   */\n      sub\n        /* \"#utility.yul\":24474:24475   */\n      0x00\n        /* \"#utility.yul\":24463:24472   */\n      dup4\n        /* \"#utility.yul\":24459:24476   */\n      add\n        /* \"#utility.yul\":24452:24499   */\n      mstore\n        /* \"#utility.yul\":24516:24647   */\n      tag_494\n        /* \"#utility.yul\":24642:24646   */\n      dup2\n        /* \"#utility.yul\":24516:24647   */\n      tag_252\n      jump\t// in\n    tag_494:\n        /* \"#utility.yul\":24508:24647   */\n      swap1\n      pop\n        /* \"#utility.yul\":24235:24654   */\n      swap2\n      swap1\n      pop\n      jump\t// out\n        /* \"#utility.yul\":24660:24836   */\n    tag_253:\n        /* \"#utility.yul\":24800:24828   */\n      0x50726f706f73616c20494420416c726561647920457869737473000000000000\n        /* \"#utility.yul\":24796:24797   */\n      0x00\n        /* \"#utility.yul\":24788:24794   */\n      dup3\n        /* \"#utility.yul\":24784:24798   */\n      add\n        /* \"#utility.yul\":24777:24829   */\n      mstore\n        /* \"#utility.yul\":24660:24836   */\n      pop\n      jump\t// out\n        /* \"#utility.yul\":24842:25208   */\n    tag_254:\n        /* \"#utility.yul\":24984:24987   */\n      0x00\n        /* \"#utility.yul\":25005:25072   */\n      tag_497\n        /* \"#utility.yul\":25069:25071   */\n      0x1a\n        /* \"#utility.yul\":25064:25067   */\n      dup4\n        /* \"#utility.yul\":25005:25072   */\n      tag_192\n      jump\t// in\n    tag_497:\n        /* \"#utility.yul\":24998:25072   */\n      swap2\n      pop\n        /* \"#utility.yul\":25081:25174   */\n      tag_498\n        /* \"#utility.yul\":25170:25173   */\n      dup3\n        /* \"#utility.yul\":25081:25174   */\n      tag_253\n      jump\t// in\n    tag_498:\n        /* \"#utility.yul\":25199:25201   */\n      0x20\n        /* \"#utility.yul\":25194:25197   */\n      dup3\n        /* \"#utility.yul\":25190:25202   */\n      add\n        /* \"#utility.yul\":25183:25202   */\n      swap1\n      pop\n        /* \"#utility.yul\":24842:25208   */\n      swap2\n      swap1\n      pop\n      jump\t// out\n        /* \"#utility.yul\":25214:25633   */\n    tag_161:\n        /* \"#utility.yul\":25380:25384   */\n      0x00\n        /* \"#utility.yul\":25418:25420   */\n      0x20\n        /* \"#utility.yul\":25407:25416   */\n      dup3\n        /* \"#utility.yul\":25403:25421   */\n      add\n        /* \"#utility.yul\":25395:25421   */\n      swap1\n      pop\n        /* \"#utility.yul\":25467:25476   */\n      dup2\n        /* \"#utility.yul\":25461:25465   */\n      dup2\n        /* \"#utility.yul\":25457:25477   */\n      sub\n        /* \"#utility.yul\":25453:25454   */\n      0x00\n        /* \"#utility.yul\":25442:25451   */\n      dup4\n        /* \"#utility.yul\":25438:25455   */\n      add\n        /* \"#utility.yul\":25431:25478   */\n      mstore\n        /* \"#utility.yul\":25495:25626   */\n      tag_500\n        /* \"#utility.yul\":25621:25625   */\n      dup2\n        /* \"#utility.yul\":25495:25626   */\n      tag_254\n      jump\t// in\n    tag_500:\n        /* \"#utility.yul\":25487:25626   */\n      swap1\n      pop\n        /* \"#utility.yul\":25214:25633   */\n      swap2\n      swap1\n      pop\n      jump\t// out\n        /* \"#utility.yul\":25639:25864   */\n    tag_255:\n        /* \"#utility.yul\":25779:25813   */\n      0x646561646c696e652063616e6e6f7420626520696e20706173742074696d6520\n        /* \"#utility.yul\":25775:25776   */\n      0x00\n        /* \"#utility.yul\":25767:25773   */\n      dup3\n        /* \"#utility.yul\":25763:25777   */\n      add\n        /* \"#utility.yul\":25756:25814   */\n      mstore\n        /* \"#utility.yul\":25848:25856   */\n      0x7061737365640000000000000000000000000000000000000000000000000000\n        /* \"#utility.yul\":25843:25845   */\n      0x20\n        /* \"#utility.yul\":25835:25841   */\n      dup3\n        /* \"#utility.yul\":25831:25846   */\n      add\n        /* \"#utility.yul\":25824:25857   */\n      mstore\n        /* \"#utility.yul\":25639:25864   */\n      pop\n      jump\t// out\n        /* \"#utility.yul\":25870:26236   */\n    tag_256:\n        /* \"#utility.yul\":26012:26015   */\n      0x00\n        /* \"#utility.yul\":26033:26100   */\n      tag_503\n        /* \"#utility.yul\":26097:26099   */\n      0x26\n        /* \"#utility.yul\":26092:26095   */\n      dup4\n        /* \"#utility.yul\":26033:26100   */\n      tag_192\n      jump\t// in\n    tag_503:\n        /* \"#utility.yul\":26026:26100   */\n      swap2\n      pop\n        /* \"#utility.yul\":26109:26202   */\n      tag_504\n        /* \"#utility.yul\":26198:26201   */\n      dup3\n        /* \"#utility.yul\":26109:26202   */\n      tag_255\n      jump\t// in\n    tag_504:\n        /* \"#utility.yul\":26227:26229   */\n      0x40\n        /* \"#utility.yul\":26222:26225   */\n      dup3\n        /* \"#utility.yul\":26218:26230   */\n      add\n        /* \"#utility.yul\":26211:26230   */\n      swap1\n      pop\n        /* \"#utility.yul\":25870:26236   */\n      swap2\n      swap1\n      pop\n      jump\t// out\n        /* \"#utility.yul\":26242:26661   */\n    tag_164:\n        /* \"#utility.yul\":26408:26412   */\n      0x00\n        /* \"#utility.yul\":26446:26448   */\n      0x20\n        /* \"#utility.yul\":26435:26444   */\n      dup3\n        /* \"#utility.yul\":26431:26449   */\n      add\n        /* \"#utility.yul\":26423:26449   */\n      swap1\n      pop\n        /* \"#utility.yul\":26495:26504   */\n      dup2\n        /* \"#utility.yul\":26489:26493   */\n      dup2\n        /* \"#utility.yul\":26485:26505   */\n      sub\n        /* \"#utility.yul\":26481:26482   */\n      0x00\n        /* \"#utility.yul\":26470:26479   */\n      dup4\n        /* \"#utility.yul\":26466:26483   */\n      add\n        /* \"#utility.yul\":26459:26506   */\n      mstore\n        /* \"#utility.yul\":26523:26654   */\n      tag_506\n        /* \"#utility.yul\":26649:26653   */\n      dup2\n        /* \"#utility.yul\":26523:26654   */\n      tag_256\n      jump\t// in\n    tag_506:\n        /* \"#utility.yul\":26515:26654   */\n      swap1\n      pop\n        /* \"#utility.yul\":26242:26661   */\n      swap2\n      swap1\n      pop\n      jump\t// out\n        /* \"#utility.yul\":26667:26830   */\n    tag_257:\n        /* \"#utility.yul\":26807:26822   */\n      0x616c726561647920766f74656400000000000000000000000000000000000000\n        /* \"#utility.yul\":26803:26804   */\n      0x00\n        /* \"#utility.yul\":26795:26801   */\n      dup3\n        /* \"#utility.yul\":26791:26805   */\n      add\n        /* \"#utility.yul\":26784:26823   */\n      mstore\n        /* \"#utility.yul\":26667:26830   */\n      pop\n      jump\t// out\n        /* \"#utility.yul\":26836:27202   */\n    tag_258:\n        /* \"#utility.yul\":26978:26981   */\n      0x00\n        /* \"#utility.yul\":26999:27066   */\n      tag_509\n        /* \"#utility.yul\":27063:27065   */\n      0x0d\n        /* \"#utility.yul\":27058:27061   */\n      dup4\n        /* \"#utility.yul\":26999:27066   */\n      tag_192\n      jump\t// in\n    tag_509:\n        /* \"#utility.yul\":26992:27066   */\n      swap2\n      pop\n        /* \"#utility.yul\":27075:27168   */\n      tag_510\n        /* \"#utility.yul\":27164:27167   */\n      dup3\n        /* \"#utility.yul\":27075:27168   */\n      tag_257\n      jump\t// in\n    tag_510:\n        /* \"#utility.yul\":27193:27195   */\n      0x20\n        /* \"#utility.yul\":27188:27191   */\n      dup3\n        /* \"#utility.yul\":27184:27196   */\n      add\n        /* \"#utility.yul\":27177:27196   */\n      swap1\n      pop\n        /* \"#utility.yul\":26836:27202   */\n      swap2\n      swap1\n      pop\n      jump\t// out\n        /* \"#utility.yul\":27208:27627   */\n    tag_167:\n        /* \"#utility.yul\":27374:27378   */\n      0x00\n        /* \"#utility.yul\":27412:27414   */\n      0x20\n        /* \"#utility.yul\":27401:27410   */\n      dup3\n        /* \"#utility.yul\":27397:27415   */\n      add\n        /* \"#utility.yul\":27389:27415   */\n      swap1\n      pop\n        /* \"#utility.yul\":27461:27470   */\n      dup2\n        /* \"#utility.yul\":27455:27459   */\n      dup2\n        /* \"#utility.yul\":27451:27471   */\n      sub\n        /* \"#utility.yul\":27447:27448   */\n      0x00\n        /* \"#utility.yul\":27436:27445   */\n      dup4\n        /* \"#utility.yul\":27432:27449   */\n      add\n        /* \"#utility.yul\":27425:27472   */\n      mstore\n        /* \"#utility.yul\":27489:27620   */\n      tag_512\n        /* \"#utility.yul\":27615:27619   */\n      dup2\n        /* \"#utility.yul\":27489:27620   */\n      tag_258\n      jump\t// in\n    tag_512:\n        /* \"#utility.yul\":27481:27620   */\n      swap1\n      pop\n        /* \"#utility.yul\":27208:27627   */\n      swap2\n      swap1\n      pop\n      jump\t// out\n        /* \"#utility.yul\":27633:27806   */\n    tag_259:\n        /* \"#utility.yul\":27773:27798   */\n      0x70726f706f73616c20616c726561647920657869737473000000000000000000\n        /* \"#utility.yul\":27769:27770   */\n      0x00\n        /* \"#utility.yul\":27761:27767   */\n      dup3\n        /* \"#utility.yul\":27757:27771   */\n      add\n        /* \"#utility.yul\":27750:27799   */\n      mstore\n        /* \"#utility.yul\":27633:27806   */\n      pop\n      jump\t// out\n        /* \"#utility.yul\":27812:28178   */\n    tag_260:\n        /* \"#utility.yul\":27954:27957   */\n      0x00\n        /* \"#utility.yul\":27975:28042   */\n      tag_515\n        /* \"#utility.yul\":28039:28041   */\n      0x17\n        /* \"#utility.yul\":28034:28037   */\n      dup4\n        /* \"#utility.yul\":27975:28042   */\n      tag_192\n      jump\t// in\n    tag_515:\n        /* \"#utility.yul\":27968:28042   */\n      swap2\n      pop\n        /* \"#utility.yul\":28051:28144   */\n      tag_516\n        /* \"#utility.yul\":28140:28143   */\n      dup3\n        /* \"#utility.yul\":28051:28144   */\n      tag_259\n      jump\t// in\n    tag_516:\n        /* \"#utility.yul\":28169:28171   */\n      0x20\n        /* \"#utility.yul\":28164:28167   */\n      dup3\n        /* \"#utility.yul\":28160:28172   */\n      add\n        /* \"#utility.yul\":28153:28172   */\n      swap1\n      pop\n        /* \"#utility.yul\":27812:28178   */\n      swap2\n      swap1\n      pop\n      jump\t// out\n        /* \"#utility.yul\":28184:28603   */\n    tag_174:\n        /* \"#utility.yul\":28350:28354   */\n      0x00\n        /* \"#utility.yul\":28388:28390   */\n      0x20\n        /* \"#utility.yul\":28377:28386   */\n      dup3\n        /* \"#utility.yul\":28373:28391   */\n      add\n        /* \"#utility.yul\":28365:28391   */\n      swap1\n      pop\n        /* \"#utility.yul\":28437:28446   */\n      dup2\n        /* \"#utility.yul\":28431:28435   */\n      dup2\n        /* \"#utility.yul\":28427:28447   */\n      sub\n        /* \"#utility.yul\":28423:28424   */\n      0x00\n        /* \"#utility.yul\":28412:28421   */\n      dup4\n        /* \"#utility.yul\":28408:28425   */\n      add\n        /* \"#utility.yul\":28401:28448   */\n      mstore\n        /* \"#utility.yul\":28465:28596   */\n      tag_518\n        /* \"#utility.yul\":28591:28595   */\n      dup2\n        /* \"#utility.yul\":28465:28596   */\n      tag_260\n      jump\t// in\n    tag_518:\n        /* \"#utility.yul\":28457:28596   */\n      swap1\n      pop\n        /* \"#utility.yul\":28184:28603   */\n      swap2\n      swap1\n      pop\n      jump\t// out\n\n    auxdata: 0xa26469706673582212205500d061efe0a4c0dc937302deeb104a2a364bcc8c31efccc0403ab5028ac2f764736f6c634300081e0033\n}\n",
				"bytecode": {
					"linkReferences": {},
					"object": "6080604052348015600e575f5ffd5b50335f5f6101000a81548173ffffffffffffffffffffffffffffffffffffffff021916908373ffffffffffffffffffffffffffffffffffffffff16021790555061212c8061005b5f395ff3fe608060405234801561000f575f5ffd5b50600436106100a7575f3560e01c8063387eadae1161006f578063387eadae1461016b578063753ec1031461019b5780638f73f9a0146101c0578063c0bc64f3146101de578063cf2551481461020e578063e89050e91461023e576100a7565b8063013cf08b146100ab5780630519bb83146100e25780630f09147c146101135780631524f3a714610131578063200d2ed21461014d575b5f5ffd5b6100c560048036038101906100c09190611328565b61026e565b6040516100d998979695949392919061145f565b60405180910390f35b6100fc60048036038101906100f79190611328565b6103f3565b60405161010a9291906114e9565b60405180910390f35b61011b6105a1565b6040516101289190611510565b60405180910390f35b61014b600480360381019061014691906115ad565b6105ad565b005b610155610a9a565b60405161016291906115fd565b60405180910390f35b61018560048036038101906101809190611328565b610aac565b6040516101929190611510565b60405180910390f35b6101a3610acc565b6040516101b798979695949392919061145f565b60405180910390f35b6101c8610c33565b6040516101d59190611616565b60405180910390f35b6101f860048036038101906101f39190611328565b610c69565b6040516102059190611758565b60405180910390f35b61022860048036038101906102239190611328565b610e42565b6040516102359190611510565b60405180910390f35b610258600480360381019061025391906118a4565b610f2c565b6040516102659190611758565b60405180910390f35b6007818154811061027d575f80fd5b905f5260205f2090600602015f91509050805f0154908060010180546102a29061196d565b80601f01602080910402602001604051908101604052809291908181526020018280546102ce9061196d565b80156103195780601f106102f057610100808354040283529160200191610319565b820191905f5260205f20905b8154815290600101906020018083116102fc57829003601f168201915b50505050509080600201805461032e9061196d565b80601f016020809104026020016040519081016040528092919081815260200182805461035a9061196d565b80156103a55780601f1061037c576101008083540402835291602001916103a5565b820191905f5260205f20905b81548152906001019060200180831161038857829003601f168201915b505050505090806003015490806004015490806005015f9054906101000a900460ff16908060050160019054906101000a900460ff16908060050160029054906101000a900460ff16905088565b5f5f600a5f3373ffffffffffffffffffffffffffffffffffffffff1673ffffffffffffffffffffffffffffffffffffffff1681526020019081526020015f205f8481526020019081526020015f205f9054906101000a905050600b5f3373ffffffffffffffffffffffffffffffffffffffff1673ffffffffffffffffffffffffffffffffffffffff1681526020019081526020015f205f60016005015f9054906101000a900460ff161515151581526020019081526020015f2050600b5f3373ffffffffffffffffffffffffffffffffffffffff1673ffffffffffffffffffffffffffffffffffffffff1681526020019081526020015f205f600160050160019054906101000a900460ff161515151581526020019081526020015f205060085f3373ffffffffffffffffffffffffffffffffffffffff1673ffffffffffffffffffffffffffffffffffffffff1681526020019081526020015f2050600c5f3373ffffffffffffffffffffffffffffffffffffffff1673ffffffffffffffffffffffffffffffffffffffff1681526020019081526020015f205f8481526020019081526020015f2050915091565b5f600780549050905090565b5f73ffffffffffffffffffffffffffffffffffffffff168373ffffffffffffffffffffffffffffffffffffffff160361061b576040517f08c379a000000000000000000000000000000000000000000000000000000000815260040161061290611a0d565b60405180910390fd5b6002600b5f8573ffffffffffffffffffffffffffffffffffffffff1673ffffffffffffffffffffffffffffffffffffffff1681526020019081526020015f205f831515151581526020019081526020015f2054106106ae576040517f08c379a00000000000000000000000000000000000000000000000000000000081526004016106a590611a75565b60405180910390fd5b6002600c5f8573ffffffffffffffffffffffffffffffffffffffff1673ffffffffffffffffffffffffffffffffffffffff1681526020019081526020015f205f8481526020019081526020015f206004015410610740576040517f08c379a000000000000000000000000000000000000000000000000000000000815260040161073790611a75565b60405180910390fd5b5f60078054905011610787576040517f08c379a000000000000000000000000000000000000000000000000000000000815260040161077e90611add565b60405180910390fd5b600a5f8473ffffffffffffffffffffffffffffffffffffffff1673ffffffffffffffffffffffffffffffffffffffff1681526020019081526020015f205f8381526020019081526020015f205f9054906101000a900460ff1615610820576040517f08c379a000000000000000000000000000000000000000000000000000000000815260040161081790611b45565b60405180910390fd5b60405180610100016040528060015f015481526020016001800180546108459061196d565b80601f01602080910402602001604051908101604052809291908181526020018280546108719061196d565b80156108bc5780601f10610893576101008083540402835291602001916108bc565b820191905f5260205f20905b81548152906001019060200180831161089f57829003601f168201915b50505050508152602001600160020180546108d69061196d565b80601f01602080910402602001604051908101604052809291908181526020018280546109029061196d565b801561094d5780601f106109245761010080835404028352916020019161094d565b820191905f5260205f20905b81548152906001019060200180831161093057829003601f168201915b505050505081526020016001600301548152602001600181526020018215158152602001821515815260200160028081111561098c5761098b6113ec565b5b815250600c5f8573ffffffffffffffffffffffffffffffffffffffff1673ffffffffffffffffffffffffffffffffffffffff1681526020019081526020015f205f8481526020019081526020015f205f820151815f015560208201518160010190816109f89190611d03565b506040820151816002019081610a0e9190611d03565b50606082015181600301556080820151816004015560a0820151816005015f6101000a81548160ff02191690831515021790555060c08201518160050160016101000a81548160ff02191690831515021790555060e08201518160050160026101000a81548160ff02191690836002811115610a8d57610a8c6113ec565b5b0217905550905050505050565b5f60149054906101000a900460ff1681565b600d8181548110610abb575f80fd5b905f5260205f20015f915090505481565b6001805f015490806001018054610ae29061196d565b80601f0160208091040260200160405190810160405280929190818152602001828054610b0e9061196d565b8015610b595780601f10610b3057610100808354040283529160200191610b59565b820191905f5260205f20905b815481529060010190602001808311610b3c57829003601f168201915b505050505090806002018054610b6e9061196d565b80601f0160208091040260200160405190810160405280929190818152602001828054610b9a9061196d565b8015610be55780601f10610bbc57610100808354040283529160200191610be5565b820191905f5260205f20905b815481529060010190602001808311610bc857829003601f168201915b505050505090806003015490806004015490806005015f9054906101000a900460ff16908060050160019054906101000a900460ff16908060050160029054906101000a900460ff16905088565b5f6002600160050160026101000a81548160ff02191690836002811115610c5d57610c5c6113ec565b5b02179055506001905090565b610c7161128f565b60095f8381526020019081526020015f20604051806101000160405290815f8201548152602001600182018054610ca79061196d565b80601f0160208091040260200160405190810160405280929190818152602001828054610cd39061196d565b8015610d1e5780601f10610cf557610100808354040283529160200191610d1e565b820191905f5260205f20905b815481529060010190602001808311610d0157829003601f168201915b50505050508152602001600282018054610d379061196d565b80601f0160208091040260200160405190810160405280929190818152602001828054610d639061196d565b8015610dae5780601f10610d8557610100808354040283529160200191610dae565b820191905f5260205f20905b815481529060010190602001808311610d9157829003601f168201915b505050505081526020016003820154815260200160048201548152602001600582015f9054906101000a900460ff161515151581526020016005820160019054906101000a900460ff161515151581526020016005820160029054906101000a900460ff166002811115610e2557610e246113ec565b5b6002811115610e3757610e366113ec565b5b815250509050919050565b5f5f5f9054906101000a900473ffffffffffffffffffffffffffffffffffffffff163373ffffffffffffffffffffffffffffffffffffffff168173ffffffffffffffffffffffffffffffffffffffff1614610ed2576040517f08c379a0000000000000000000000000000000000000000000000000000000008152600401610ec990611e1c565b60405180910390fd5b428311610f14576040517f08c379a0000000000000000000000000000000000000000000000000000000008152600401610f0b90611eaa565b60405180910390fd5b82600160030181905550600160030154915050919050565b610f3461128f565b5f5f9054906101000a900473ffffffffffffffffffffffffffffffffffffffff163373ffffffffffffffffffffffffffffffffffffffff168173ffffffffffffffffffffffffffffffffffffffff1614610fc3576040517f08c379a0000000000000000000000000000000000000000000000000000000008152600401610fba90611e1c565b60405180910390fd5b5f8603611005576040517f08c379a0000000000000000000000000000000000000000000000000000000008152600401610ffc90611f12565b60405180910390fd5b60015f0154860361104b576040517f08c379a000000000000000000000000000000000000000000000000000000000815260040161104290611f7a565b60405180910390fd5b42831161108d576040517f08c379a000000000000000000000000000000000000000000000000000000000815260040161108490612008565b60405180910390fd5b5f600160040154146110d4576040517f08c379a00000000000000000000000000000000000000000000000000000000081526004016110cb90612070565b60405180910390fd5b5f60028111156110e7576110e66113ec565b5b600160050160029054906101000a900460ff16600281111561110c5761110b6113ec565b5b1461114c576040517f08c379a0000000000000000000000000000000000000000000000000000000008152600401611143906120d8565b60405180910390fd5b5f6040518061010001604052808881526020018781526020018681526020018581526020015f81526020015f151581526020015f151581526020016001600281111561119b5761119a6113ec565b5b8152509050600781908060018154018082558091505060019003905f5260205f2090600602015f909190919091505f820151815f015560208201518160010190816111e69190611d03565b5060408201518160020190816111fc9190611d03565b50606082015181600301556080820151816004015560a0820151816005015f6101000a81548160ff02191690831515021790555060c08201518160050160016101000a81548160ff02191690831515021790555060e08201518160050160026101000a81548160ff0219169083600281111561127b5761127a6113ec565b5b021790555050508092505050949350505050565b6040518061010001604052805f815260200160608152602001606081526020015f81526020015f81526020015f151581526020015f151581526020015f60028111156112de576112dd6113ec565b5b81525090565b5f604051905090565b5f5ffd5b5f5ffd5b5f819050919050565b611307816112f5565b8114611311575f5ffd5b50565b5f81359050611322816112fe565b92915050565b5f6020828403121561133d5761133c6112ed565b5b5f61134a84828501611314565b91505092915050565b61135c816112f5565b82525050565b5f81519050919050565b5f82825260208201905092915050565b8281835e5f83830152505050565b5f601f19601f8301169050919050565b5f6113a482611362565b6113ae818561136c565b93506113be81856020860161137c565b6113c78161138a565b840191505092915050565b5f8115159050919050565b6113e6816113d2565b82525050565b7f4e487b71000000000000000000000000000000000000000000000000000000005f52602160045260245ffd5b6003811061142a576114296113ec565b5b50565b5f81905061143a82611419565b919050565b5f6114498261142d565b9050919050565b6114598161143f565b82525050565b5f610100820190506114735f83018b611353565b8181036020830152611485818a61139a565b90508181036040830152611499818961139a565b90506114a86060830188611353565b6114b56080830187611353565b6114c260a08301866113dd565b6114cf60c08301856113dd565b6114dc60e0830184611450565b9998505050505050505050565b5f6040820190506114fc5f8301856113dd565b6115096020830184611353565b9392505050565b5f6020820190506115235f830184611353565b92915050565b5f73ffffffffffffffffffffffffffffffffffffffff82169050919050565b5f61155282611529565b9050919050565b61156281611548565b811461156c575f5ffd5b50565b5f8135905061157d81611559565b92915050565b61158c816113d2565b8114611596575f5ffd5b50565b5f813590506115a781611583565b92915050565b5f5f5f606084860312156115c4576115c36112ed565b5b5f6115d18682870161156f565b93505060206115e286828701611314565b92505060406115f386828701611599565b9150509250925092565b5f6020820190506116105f830184611450565b92915050565b5f6020820190506116295f8301846113dd565b92915050565b611638816112f5565b82525050565b5f82825260208201905092915050565b5f61165882611362565b611662818561163e565b935061167281856020860161137c565b61167b8161138a565b840191505092915050565b61168f816113d2565b82525050565b61169e8161143f565b82525050565b5f61010083015f8301516116ba5f86018261162f565b50602083015184820360208601526116d2828261164e565b915050604083015184820360408601526116ec828261164e565b9150506060830151611701606086018261162f565b506080830151611714608086018261162f565b5060a083015161172760a0860182611686565b5060c083015161173a60c0860182611686565b5060e083015161174d60e0860182611695565b508091505092915050565b5f6020820190508181035f83015261177081846116a4565b905092915050565b5f5ffd5b5f5ffd5b7f4e487b71000000000000000000000000000000000000000000000000000000005f52604160045260245ffd5b6117b68261138a565b810181811067ffffffffffffffff821117156117d5576117d4611780565b5b80604052505050565b5f6117e76112e4565b90506117f382826117ad565b919050565b5f67ffffffffffffffff82111561181257611811611780565b5b61181b8261138a565b9050602081019050919050565b828183375f83830152505050565b5f611848611843846117f8565b6117de565b9050828152602081018484840111156118645761186361177c565b5b61186f848285611828565b509392505050565b5f82601f83011261188b5761188a611778565b5b813561189b848260208601611836565b91505092915050565b5f5f5f5f608085870312156118bc576118bb6112ed565b5b5f6118c987828801611314565b945050602085013567ffffffffffffffff8111156118ea576118e96112f1565b5b6118f687828801611877565b935050604085013567ffffffffffffffff811115611917576119166112f1565b5b61192387828801611877565b925050606061193487828801611314565b91505092959194509250565b7f4e487b71000000000000000000000000000000000000000000000000000000005f52602260045260245ffd5b5f600282049050600182168061198457607f821691505b60208210810361199757611996611940565b5b50919050565b7f7a65726f20616464726573732063616e206e6f742062652061626c6520746f205f8201527f766f746500000000000000000000000000000000000000000000000000000000602082015250565b5f6119f760248361136c565b9150611a028261199d565b604082019050919050565b5f6020820190508181035f830152611a24816119eb565b9050919050565b7f646f75626c6520766f74696e67206973206e6f7420616c6c6f776564000000005f82015250565b5f611a5f601c8361136c565b9150611a6a82611a2b565b602082019050919050565b5f6020820190508181035f830152611a8c81611a53565b9050919050565b7f70726f706f73616c20646f6573206e6f742065786973740000000000000000005f82015250565b5f611ac760178361136c565b9150611ad282611a93565b602082019050919050565b5f6020820190508181035f830152611af481611abb565b9050919050565b7f7565722072657920766f746500000000000000000000000000000000000000005f82015250565b5f611b2f600c8361136c565b9150611b3a82611afb565b602082019050919050565b5f6020820190508181035f830152611b5c81611b23565b9050919050565b5f819050815f5260205f209050919050565b5f6020601f8301049050919050565b5f82821b905092915050565b5f60088302611bbf7fffffffffffffffffffffffffffffffffffffffffffffffffffffffffffffffff82611b84565b611bc98683611b84565b95508019841693508086168417925050509392505050565b5f819050919050565b5f611c04611bff611bfa846112f5565b611be1565b6112f5565b9050919050565b5f819050919050565b611c1d83611bea565b611c31611c2982611c0b565b848454611b90565b825550505050565b5f5f905090565b611c48611c39565b611c53818484611c14565b505050565b5b81811015611c7657611c6b5f82611c40565b600181019050611c59565b5050565b601f821115611cbb57611c8c81611b63565b611c9584611b75565b81016020851015611ca4578190505b611cb8611cb085611b75565b830182611c58565b50505b505050565b5f82821c905092915050565b5f611cdb5f1984600802611cc0565b1980831691505092915050565b5f611cf38383611ccc565b9150826002028217905092915050565b611d0c82611362565b67ffffffffffffffff811115611d2557611d24611780565b5b611d2f825461196d565b611d3a828285611c7a565b5f60209050601f831160018114611d6b575f8415611d59578287015190505b611d638582611ce8565b865550611dca565b601f198416611d7986611b63565b5f5b82811015611da057848901518255600182019150602085019450602081019050611d7b565b86831015611dbd5784890151611db9601f891682611ccc565b8355505b6001600288020188555050505b505050505050565b7f6f6e6c79206f776e65722063616e20706572666f726d20746865207461736b735f82015250565b5f611e0660208361136c565b9150611e1182611dd2565b602082019050919050565b5f6020820190508181035f830152611e3381611dfa565b9050919050565b7f74686520646561646c696e652063616e206e6f7420626520696e2070617374205f8201527f74696d6500000000000000000000000000000000000000000000000000000000602082015250565b5f611e9460248361136c565b9150611e9f82611e3a565b604082019050919050565b5f6020820190508181035f830152611ec181611e88565b9050919050565b7f70726f706f73616c206964206973207a65726f20616e6420696e76616c6964005f82015250565b5f611efc601f8361136c565b9150611f0782611ec8565b602082019050919050565b5f6020820190508181035f830152611f2981611ef0565b9050919050565b7f50726f706f73616c20494420416c7265616479204578697374730000000000005f82015250565b5f611f64601a8361136c565b9150611f6f82611f30565b602082019050919050565b5f6020820190508181035f830152611f9181611f58565b9050919050565b7f646561646c696e652063616e6e6f7420626520696e20706173742074696d65205f8201527f7061737365640000000000000000000000000000000000000000000000000000602082015250565b5f611ff260268361136c565b9150611ffd82611f98565b604082019050919050565b5f6020820190508181035f83015261201f81611fe6565b9050919050565b7f616c726561647920766f746564000000000000000000000000000000000000005f82015250565b5f61205a600d8361136c565b915061206582612026565b602082019050919050565b5f6020820190508181035f8301526120878161204e565b9050919050565b7f70726f706f73616c20616c7265616479206578697374730000000000000000005f82015250565b5f6120c260178361136c565b91506120cd8261208e565b602082019050919050565b5f6020820190508181035f8301526120ef816120b6565b905091905056fea26469706673582212205500d061efe0a4c0dc937302deeb104a2a364bcc8c31efccc0403ab5028ac2f764736f6c634300081e0033",
					"opcodes": "PUSH1 0x80 PUSH1 0x40 MSTORE CALLVALUE DUP1 ISZERO PUSH1 0xE JUMPI PUSH0 PUSH0 REVERT JUMPDEST POP CALLER PUSH0 PUSH0 PUSH2 0x100 EXP DUP2 SLOAD DUP2 PUSH20 0xFFFFFFFFFFFFFFFFFFFFFFFFFFFFFFFFFFFFFFFF MUL NOT AND SWAP1 DUP4 PUSH20 0xFFFFFFFFFFFFFFFFFFFFFFFFFFFFFFFFFFFFFFFF AND MUL OR SWAP1 SSTORE POP PUSH2 0x212C DUP1 PUSH2 0x5B PUSH0 CODECOPY PUSH0 RETURN INVALID PUSH1 0x80 PUSH1 0x40 MSTORE CALLVALUE DUP1 ISZERO PUSH2 0xF JUMPI PUSH0 PUSH0 REVERT JUMPDEST POP PUSH1 0x4 CALLDATASIZE LT PUSH2 0xA7 JUMPI PUSH0 CALLDATALOAD PUSH1 0xE0 SHR DUP1 PUSH4 0x387EADAE GT PUSH2 0x6F JUMPI DUP1 PUSH4 0x387EADAE EQ PUSH2 0x16B JUMPI DUP1 PUSH4 0x753EC103 EQ PUSH2 0x19B JUMPI DUP1 PUSH4 0x8F73F9A0 EQ PUSH2 0x1C0 JUMPI DUP1 PUSH4 0xC0BC64F3 EQ PUSH2 0x1DE JUMPI DUP1 PUSH4 0xCF255148 EQ PUSH2 0x20E JUMPI DUP1 PUSH4 0xE89050E9 EQ PUSH2 0x23E JUMPI PUSH2 0xA7 JUMP JUMPDEST DUP1 PUSH4 0x13CF08B EQ PUSH2 0xAB JUMPI DUP1 PUSH4 0x519BB83 EQ PUSH2 0xE2 JUMPI DUP1 PUSH4 0xF09147C EQ PUSH2 0x113 JUMPI DUP1 PUSH4 0x1524F3A7 EQ PUSH2 0x131 JUMPI DUP1 PUSH4 0x200D2ED2 EQ PUSH2 0x14D JUMPI JUMPDEST PUSH0 PUSH0 REVERT JUMPDEST PUSH2 0xC5 PUSH1 0x4 DUP1 CALLDATASIZE SUB DUP2 ADD SWAP1 PUSH2 0xC0 SWAP2 SWAP1 PUSH2 0x1328 JUMP JUMPDEST PUSH2 0x26E JUMP JUMPDEST PUSH1 0x40 MLOAD PUSH2 0xD9 SWAP9 SWAP8 SWAP7 SWAP6 SWAP5 SWAP4 SWAP3 SWAP2 SWAP1 PUSH2 0x145F JUMP JUMPDEST PUSH1 0x40 MLOAD DUP1 SWAP2 SUB SWAP1 RETURN JUMPDEST PUSH2 0xFC PUSH1 0x4 DUP1 CALLDATASIZE SUB DUP2 ADD SWAP1 PUSH2 0xF7 SWAP2 SWAP1 PUSH2 0x1328 JUMP JUMPDEST PUSH2 0x3F3 JUMP JUMPDEST PUSH1 0x40 MLOAD PUSH2 0x10A SWAP3 SWAP2 SWAP1 PUSH2 0x14E9 JUMP JUMPDEST PUSH1 0x40 MLOAD DUP1 SWAP2 SUB SWAP1 RETURN JUMPDEST PUSH2 0x11B PUSH2 0x5A1 JUMP JUMPDEST PUSH1 0x40 MLOAD PUSH2 0x128 SWAP2 SWAP1 PUSH2 0x1510 JUMP JUMPDEST PUSH1 0x40 MLOAD DUP1 SWAP2 SUB SWAP1 RETURN JUMPDEST PUSH2 0x14B PUSH1 0x4 DUP1 CALLDATASIZE SUB DUP2 ADD SWAP1 PUSH2 0x146 SWAP2 SWAP1 PUSH2 0x15AD JUMP JUMPDEST PUSH2 0x5AD JUMP JUMPDEST STOP JUMPDEST PUSH2 0x155 PUSH2 0xA9A JUMP JUMPDEST PUSH1 0x40 MLOAD PUSH2 0x162 SWAP2 SWAP1 PUSH2 0x15FD JUMP JUMPDEST PUSH1 0x40 MLOAD DUP1 SWAP2 SUB SWAP1 RETURN JUMPDEST PUSH2 0x185 PUSH1 0x4 DUP1 CALLDATASIZE SUB DUP2 ADD SWAP1 PUSH2 0x180 SWAP2 SWAP1 PUSH2 0x1328 JUMP JUMPDEST PUSH2 0xAAC JUMP JUMPDEST PUSH1 0x40 MLOAD PUSH2 0x192 SWAP2 SWAP1 PUSH2 0x1510 JUMP JUMPDEST PUSH1 0x40 MLOAD DUP1 SWAP2 SUB SWAP1 RETURN JUMPDEST PUSH2 0x1A3 PUSH2 0xACC JUMP JUMPDEST PUSH1 0x40 MLOAD PUSH2 0x1B7 SWAP9 SWAP8 SWAP7 SWAP6 SWAP5 SWAP4 SWAP3 SWAP2 SWAP1 PUSH2 0x145F JUMP JUMPDEST PUSH1 0x40 MLOAD DUP1 SWAP2 SUB SWAP1 RETURN JUMPDEST PUSH2 0x1C8 PUSH2 0xC33 JUMP JUMPDEST PUSH1 0x40 MLOAD PUSH2 0x1D5 SWAP2 SWAP1 PUSH2 0x1616 JUMP JUMPDEST PUSH1 0x40 MLOAD DUP1 SWAP2 SUB SWAP1 RETURN JUMPDEST PUSH2 0x1F8 PUSH1 0x4 DUP1 CALLDATASIZE SUB DUP2 ADD SWAP1 PUSH2 0x1F3 SWAP2 SWAP1 PUSH2 0x1328 JUMP JUMPDEST PUSH2 0xC69 JUMP JUMPDEST PUSH1 0x40 MLOAD PUSH2 0x205 SWAP2 SWAP1 PUSH2 0x1758 JUMP JUMPDEST PUSH1 0x40 MLOAD DUP1 SWAP2 SUB SWAP1 RETURN JUMPDEST PUSH2 0x228 PUSH1 0x4 DUP1 CALLDATASIZE SUB DUP2 ADD SWAP1 PUSH2 0x223 SWAP2 SWAP1 PUSH2 0x1328 JUMP JUMPDEST PUSH2 0xE42 JUMP JUMPDEST PUSH1 0x40 MLOAD PUSH2 0x235 SWAP2 SWAP1 PUSH2 0x1510 JUMP JUMPDEST PUSH1 0x40 MLOAD DUP1 SWAP2 SUB SWAP1 RETURN JUMPDEST PUSH2 0x258 PUSH1 0x4 DUP1 CALLDATASIZE SUB DUP2 ADD SWAP1 PUSH2 0x253 SWAP2 SWAP1 PUSH2 0x18A4 JUMP JUMPDEST PUSH2 0xF2C JUMP JUMPDEST PUSH1 0x40 MLOAD PUSH2 0x265 SWAP2 SWAP1 PUSH2 0x1758 JUMP JUMPDEST PUSH1 0x40 MLOAD DUP1 SWAP2 SUB SWAP1 RETURN JUMPDEST PUSH1 0x7 DUP2 DUP2 SLOAD DUP2 LT PUSH2 0x27D JUMPI PUSH0 DUP1 REVERT JUMPDEST SWAP1 PUSH0 MSTORE PUSH1 0x20 PUSH0 KECCAK256 SWAP1 PUSH1 0x6 MUL ADD PUSH0 SWAP2 POP SWAP1 POP DUP1 PUSH0 ADD SLOAD SWAP1 DUP1 PUSH1 0x1 ADD DUP1 SLOAD PUSH2 0x2A2 SWAP1 PUSH2 0x196D JUMP JUMPDEST DUP1 PUSH1 0x1F ADD PUSH1 0x20 DUP1 SWAP2 DIV MUL PUSH1 0x20 ADD PUSH1 0x40 MLOAD SWAP1 DUP2 ADD PUSH1 0x40 MSTORE DUP1 SWAP3 SWAP2 SWAP1 DUP2 DUP2 MSTORE PUSH1 0x20 ADD DUP3 DUP1 SLOAD PUSH2 0x2CE SWAP1 PUSH2 0x196D JUMP JUMPDEST DUP1 ISZERO PUSH2 0x319 JUMPI DUP1 PUSH1 0x1F LT PUSH2 0x2F0 JUMPI PUSH2 0x100 DUP1 DUP4 SLOAD DIV MUL DUP4 MSTORE SWAP2 PUSH1 0x20 ADD SWAP2 PUSH2 0x319 JUMP JUMPDEST DUP3 ADD SWAP2 SWAP1 PUSH0 MSTORE PUSH1 0x20 PUSH0 KECCAK256 SWAP1 JUMPDEST DUP2 SLOAD DUP2 MSTORE SWAP1 PUSH1 0x1 ADD SWAP1 PUSH1 0x20 ADD DUP1 DUP4 GT PUSH2 0x2FC JUMPI DUP3 SWAP1 SUB PUSH1 0x1F AND DUP3 ADD SWAP2 JUMPDEST POP POP POP POP POP SWAP1 DUP1 PUSH1 0x2 ADD DUP1 SLOAD PUSH2 0x32E SWAP1 PUSH2 0x196D JUMP JUMPDEST DUP1 PUSH1 0x1F ADD PUSH1 0x20 DUP1 SWAP2 DIV MUL PUSH1 0x20 ADD PUSH1 0x40 MLOAD SWAP1 DUP2 ADD PUSH1 0x40 MSTORE DUP1 SWAP3 SWAP2 SWAP1 DUP2 DUP2 MSTORE PUSH1 0x20 ADD DUP3 DUP1 SLOAD PUSH2 0x35A SWAP1 PUSH2 0x196D JUMP JUMPDEST DUP1 ISZERO PUSH2 0x3A5 JUMPI DUP1 PUSH1 0x1F LT PUSH2 0x37C JUMPI PUSH2 0x100 DUP1 DUP4 SLOAD DIV MUL DUP4 MSTORE SWAP2 PUSH1 0x20 ADD SWAP2 PUSH2 0x3A5 JUMP JUMPDEST DUP3 ADD SWAP2 SWAP1 PUSH0 MSTORE PUSH1 0x20 PUSH0 KECCAK256 SWAP1 JUMPDEST DUP2 SLOAD DUP2 MSTORE SWAP1 PUSH1 0x1 ADD SWAP1 PUSH1 0x20 ADD DUP1 DUP4 GT PUSH2 0x388 JUMPI DUP3 SWAP1 SUB PUSH1 0x1F AND DUP3 ADD SWAP2 JUMPDEST POP POP POP POP POP SWAP1 DUP1 PUSH1 0x3 ADD SLOAD SWAP1 DUP1 PUSH1 0x4 ADD SLOAD SWAP1 DUP1 PUSH1 0x5 ADD PUSH0 SWAP1 SLOAD SWAP1 PUSH2 0x100 EXP SWAP1 DIV PUSH1 0xFF AND SWAP1 DUP1 PUSH1 0x5 ADD PUSH1 0x1 SWAP1 SLOAD SWAP1 PUSH2 0x100 EXP SWAP1 DIV PUSH1 0xFF AND SWAP1 DUP1 PUSH1 0x5 ADD PUSH1 0x2 SWAP1 SLOAD SWAP1 PUSH2 0x100 EXP SWAP1 DIV PUSH1 0xFF AND SWAP1 POP DUP9 JUMP JUMPDEST PUSH0 PUSH0 PUSH1 0xA PUSH0 CALLER PUSH20 0xFFFFFFFFFFFFFFFFFFFFFFFFFFFFFFFFFFFFFFFF AND PUSH20 0xFFFFFFFFFFFFFFFFFFFFFFFFFFFFFFFFFFFFFFFF AND DUP2 MSTORE PUSH1 0x20 ADD SWAP1 DUP2 MSTORE PUSH1 0x20 ADD PUSH0 KECCAK256 PUSH0 DUP5 DUP2 MSTORE PUSH1 0x20 ADD SWAP1 DUP2 MSTORE PUSH1 0x20 ADD PUSH0 KECCAK256 PUSH0 SWAP1 SLOAD SWAP1 PUSH2 0x100 EXP SWAP1 POP POP PUSH1 0xB PUSH0 CALLER PUSH20 0xFFFFFFFFFFFFFFFFFFFFFFFFFFFFFFFFFFFFFFFF AND PUSH20 0xFFFFFFFFFFFFFFFFFFFFFFFFFFFFFFFFFFFFFFFF AND DUP2 MSTORE PUSH1 0x20 ADD SWAP1 DUP2 MSTORE PUSH1 0x20 ADD PUSH0 KECCAK256 PUSH0 PUSH1 0x1 PUSH1 0x5 ADD PUSH0 SWAP1 SLOAD SWAP1 PUSH2 0x100 EXP SWAP1 DIV PUSH1 0xFF AND ISZERO ISZERO ISZERO ISZERO DUP2 MSTORE PUSH1 0x20 ADD SWAP1 DUP2 MSTORE PUSH1 0x20 ADD PUSH0 KECCAK256 POP PUSH1 0xB PUSH0 CALLER PUSH20 0xFFFFFFFFFFFFFFFFFFFFFFFFFFFFFFFFFFFFFFFF AND PUSH20 0xFFFFFFFFFFFFFFFFFFFFFFFFFFFFFFFFFFFFFFFF AND DUP2 MSTORE PUSH1 0x20 ADD SWAP1 DUP2 MSTORE PUSH1 0x20 ADD PUSH0 KECCAK256 PUSH0 PUSH1 0x1 PUSH1 0x5 ADD PUSH1 0x1 SWAP1 SLOAD SWAP1 PUSH2 0x100 EXP SWAP1 DIV PUSH1 0xFF AND ISZERO ISZERO ISZERO ISZERO DUP2 MSTORE PUSH1 0x20 ADD SWAP1 DUP2 MSTORE PUSH1 0x20 ADD PUSH0 KECCAK256 POP PUSH1 0x8 PUSH0 CALLER PUSH20 0xFFFFFFFFFFFFFFFFFFFFFFFFFFFFFFFFFFFFFFFF AND PUSH20 0xFFFFFFFFFFFFFFFFFFFFFFFFFFFFFFFFFFFFFFFF AND DUP2 MSTORE PUSH1 0x20 ADD SWAP1 DUP2 MSTORE PUSH1 0x20 ADD PUSH0 KECCAK256 POP PUSH1 0xC PUSH0 CALLER PUSH20 0xFFFFFFFFFFFFFFFFFFFFFFFFFFFFFFFFFFFFFFFF AND PUSH20 0xFFFFFFFFFFFFFFFFFFFFFFFFFFFFFFFFFFFFFFFF AND DUP2 MSTORE PUSH1 0x20 ADD SWAP1 DUP2 MSTORE PUSH1 0x20 ADD PUSH0 KECCAK256 PUSH0 DUP5 DUP2 MSTORE PUSH1 0x20 ADD SWAP1 DUP2 MSTORE PUSH1 0x20 ADD PUSH0 KECCAK256 POP SWAP2 POP SWAP2 JUMP JUMPDEST PUSH0 PUSH1 0x7 DUP1 SLOAD SWAP1 POP SWAP1 POP SWAP1 JUMP JUMPDEST PUSH0 PUSH20 0xFFFFFFFFFFFFFFFFFFFFFFFFFFFFFFFFFFFFFFFF AND DUP4 PUSH20 0xFFFFFFFFFFFFFFFFFFFFFFFFFFFFFFFFFFFFFFFF AND SUB PUSH2 0x61B JUMPI PUSH1 0x40 MLOAD PUSH32 0x8C379A000000000000000000000000000000000000000000000000000000000 DUP2 MSTORE PUSH1 0x4 ADD PUSH2 0x612 SWAP1 PUSH2 0x1A0D JUMP JUMPDEST PUSH1 0x40 MLOAD DUP1 SWAP2 SUB SWAP1 REVERT JUMPDEST PUSH1 0x2 PUSH1 0xB PUSH0 DUP6 PUSH20 0xFFFFFFFFFFFFFFFFFFFFFFFFFFFFFFFFFFFFFFFF AND PUSH20 0xFFFFFFFFFFFFFFFFFFFFFFFFFFFFFFFFFFFFFFFF AND DUP2 MSTORE PUSH1 0x20 ADD SWAP1 DUP2 MSTORE PUSH1 0x20 ADD PUSH0 KECCAK256 PUSH0 DUP4 ISZERO ISZERO ISZERO ISZERO DUP2 MSTORE PUSH1 0x20 ADD SWAP1 DUP2 MSTORE PUSH1 0x20 ADD PUSH0 KECCAK256 SLOAD LT PUSH2 0x6AE JUMPI PUSH1 0x40 MLOAD PUSH32 0x8C379A000000000000000000000000000000000000000000000000000000000 DUP2 MSTORE PUSH1 0x4 ADD PUSH2 0x6A5 SWAP1 PUSH2 0x1A75 JUMP JUMPDEST PUSH1 0x40 MLOAD DUP1 SWAP2 SUB SWAP1 REVERT JUMPDEST PUSH1 0x2 PUSH1 0xC PUSH0 DUP6 PUSH20 0xFFFFFFFFFFFFFFFFFFFFFFFFFFFFFFFFFFFFFFFF AND PUSH20 0xFFFFFFFFFFFFFFFFFFFFFFFFFFFFFFFFFFFFFFFF AND DUP2 MSTORE PUSH1 0x20 ADD SWAP1 DUP2 MSTORE PUSH1 0x20 ADD PUSH0 KECCAK256 PUSH0 DUP5 DUP2 MSTORE PUSH1 0x20 ADD SWAP1 DUP2 MSTORE PUSH1 0x20 ADD PUSH0 KECCAK256 PUSH1 0x4 ADD SLOAD LT PUSH2 0x740 JUMPI PUSH1 0x40 MLOAD PUSH32 0x8C379A000000000000000000000000000000000000000000000000000000000 DUP2 MSTORE PUSH1 0x4 ADD PUSH2 0x737 SWAP1 PUSH2 0x1A75 JUMP JUMPDEST PUSH1 0x40 MLOAD DUP1 SWAP2 SUB SWAP1 REVERT JUMPDEST PUSH0 PUSH1 0x7 DUP1 SLOAD SWAP1 POP GT PUSH2 0x787 JUMPI PUSH1 0x40 MLOAD PUSH32 0x8C379A000000000000000000000000000000000000000000000000000000000 DUP2 MSTORE PUSH1 0x4 ADD PUSH2 0x77E SWAP1 PUSH2 0x1ADD JUMP JUMPDEST PUSH1 0x40 MLOAD DUP1 SWAP2 SUB SWAP1 REVERT JUMPDEST PUSH1 0xA PUSH0 DUP5 PUSH20 0xFFFFFFFFFFFFFFFFFFFFFFFFFFFFFFFFFFFFFFFF AND PUSH20 0xFFFFFFFFFFFFFFFFFFFFFFFFFFFFFFFFFFFFFFFF AND DUP2 MSTORE PUSH1 0x20 ADD SWAP1 DUP2 MSTORE PUSH1 0x20 ADD PUSH0 KECCAK256 PUSH0 DUP4 DUP2 MSTORE PUSH1 0x20 ADD SWAP1 DUP2 MSTORE PUSH1 0x20 ADD PUSH0 KECCAK256 PUSH0 SWAP1 SLOAD SWAP1 PUSH2 0x100 EXP SWAP1 DIV PUSH1 0xFF AND ISZERO PUSH2 0x820 JUMPI PUSH1 0x40 MLOAD PUSH32 0x8C379A000000000000000000000000000000000000000000000000000000000 DUP2 MSTORE PUSH1 0x4 ADD PUSH2 0x817 SWAP1 PUSH2 0x1B45 JUMP JUMPDEST PUSH1 0x40 MLOAD DUP1 SWAP2 SUB SWAP1 REVERT JUMPDEST PUSH1 0x40 MLOAD DUP1 PUSH2 0x100 ADD PUSH1 0x40 MSTORE DUP1 PUSH1 0x1 PUSH0 ADD SLOAD DUP2 MSTORE PUSH1 0x20 ADD PUSH1 0x1 DUP1 ADD DUP1 SLOAD PUSH2 0x845 SWAP1 PUSH2 0x196D JUMP JUMPDEST DUP1 PUSH1 0x1F ADD PUSH1 0x20 DUP1 SWAP2 DIV MUL PUSH1 0x20 ADD PUSH1 0x40 MLOAD SWAP1 DUP2 ADD PUSH1 0x40 MSTORE DUP1 SWAP3 SWAP2 SWAP1 DUP2 DUP2 MSTORE PUSH1 0x20 ADD DUP3 DUP1 SLOAD PUSH2 0x871 SWAP1 PUSH2 0x196D JUMP JUMPDEST DUP1 ISZERO PUSH2 0x8BC JUMPI DUP1 PUSH1 0x1F LT PUSH2 0x893 JUMPI PUSH2 0x100 DUP1 DUP4 SLOAD DIV MUL DUP4 MSTORE SWAP2 PUSH1 0x20 ADD SWAP2 PUSH2 0x8BC JUMP JUMPDEST DUP3 ADD SWAP2 SWAP1 PUSH0 MSTORE PUSH1 0x20 PUSH0 KECCAK256 SWAP1 JUMPDEST DUP2 SLOAD DUP2 MSTORE SWAP1 PUSH1 0x1 ADD SWAP1 PUSH1 0x20 ADD DUP1 DUP4 GT PUSH2 0x89F JUMPI DUP3 SWAP1 SUB PUSH1 0x1F AND DUP3 ADD SWAP2 JUMPDEST POP POP POP POP POP DUP2 MSTORE PUSH1 0x20 ADD PUSH1 0x1 PUSH1 0x2 ADD DUP1 SLOAD PUSH2 0x8D6 SWAP1 PUSH2 0x196D JUMP JUMPDEST DUP1 PUSH1 0x1F ADD PUSH1 0x20 DUP1 SWAP2 DIV MUL PUSH1 0x20 ADD PUSH1 0x40 MLOAD SWAP1 DUP2 ADD PUSH1 0x40 MSTORE DUP1 SWAP3 SWAP2 SWAP1 DUP2 DUP2 MSTORE PUSH1 0x20 ADD DUP3 DUP1 SLOAD PUSH2 0x902 SWAP1 PUSH2 0x196D JUMP JUMPDEST DUP1 ISZERO PUSH2 0x94D JUMPI DUP1 PUSH1 0x1F LT PUSH2 0x924 JUMPI PUSH2 0x100 DUP1 DUP4 SLOAD DIV MUL DUP4 MSTORE SWAP2 PUSH1 0x20 ADD SWAP2 PUSH2 0x94D JUMP JUMPDEST DUP3 ADD SWAP2 SWAP1 PUSH0 MSTORE PUSH1 0x20 PUSH0 KECCAK256 SWAP1 JUMPDEST DUP2 SLOAD DUP2 MSTORE SWAP1 PUSH1 0x1 ADD SWAP1 PUSH1 0x20 ADD DUP1 DUP4 GT PUSH2 0x930 JUMPI DUP3 SWAP1 SUB PUSH1 0x1F AND DUP3 ADD SWAP2 JUMPDEST POP POP POP POP POP DUP2 MSTORE PUSH1 0x20 ADD PUSH1 0x1 PUSH1 0x3 ADD SLOAD DUP2 MSTORE PUSH1 0x20 ADD PUSH1 0x1 DUP2 MSTORE PUSH1 0x20 ADD DUP3 ISZERO ISZERO DUP2 MSTORE PUSH1 0x20 ADD DUP3 ISZERO ISZERO DUP2 MSTORE PUSH1 0x20 ADD PUSH1 0x2 DUP1 DUP2 GT ISZERO PUSH2 0x98C JUMPI PUSH2 0x98B PUSH2 0x13EC JUMP JUMPDEST JUMPDEST DUP2 MSTORE POP PUSH1 0xC PUSH0 DUP6 PUSH20 0xFFFFFFFFFFFFFFFFFFFFFFFFFFFFFFFFFFFFFFFF AND PUSH20 0xFFFFFFFFFFFFFFFFFFFFFFFFFFFFFFFFFFFFFFFF AND DUP2 MSTORE PUSH1 0x20 ADD SWAP1 DUP2 MSTORE PUSH1 0x20 ADD PUSH0 KECCAK256 PUSH0 DUP5 DUP2 MSTORE PUSH1 0x20 ADD SWAP1 DUP2 MSTORE PUSH1 0x20 ADD PUSH0 KECCAK256 PUSH0 DUP3 ADD MLOAD DUP2 PUSH0 ADD SSTORE PUSH1 0x20 DUP3 ADD MLOAD DUP2 PUSH1 0x1 ADD SWAP1 DUP2 PUSH2 0x9F8 SWAP2 SWAP1 PUSH2 0x1D03 JUMP JUMPDEST POP PUSH1 0x40 DUP3 ADD MLOAD DUP2 PUSH1 0x2 ADD SWAP1 DUP2 PUSH2 0xA0E SWAP2 SWAP1 PUSH2 0x1D03 JUMP JUMPDEST POP PUSH1 0x60 DUP3 ADD MLOAD DUP2 PUSH1 0x3 ADD SSTORE PUSH1 0x80 DUP3 ADD MLOAD DUP2 PUSH1 0x4 ADD SSTORE PUSH1 0xA0 DUP3 ADD MLOAD DUP2 PUSH1 0x5 ADD PUSH0 PUSH2 0x100 EXP DUP2 SLOAD DUP2 PUSH1 0xFF MUL NOT AND SWAP1 DUP4 ISZERO ISZERO MUL OR SWAP1 SSTORE POP PUSH1 0xC0 DUP3 ADD MLOAD DUP2 PUSH1 0x5 ADD PUSH1 0x1 PUSH2 0x100 EXP DUP2 SLOAD DUP2 PUSH1 0xFF MUL NOT AND SWAP1 DUP4 ISZERO ISZERO MUL OR SWAP1 SSTORE POP PUSH1 0xE0 DUP3 ADD MLOAD DUP2 PUSH1 0x5 ADD PUSH1 0x2 PUSH2 0x100 EXP DUP2 SLOAD DUP2 PUSH1 0xFF MUL NOT AND SWAP1 DUP4 PUSH1 0x2 DUP2 GT ISZERO PUSH2 0xA8D JUMPI PUSH2 0xA8C PUSH2 0x13EC JUMP JUMPDEST JUMPDEST MUL OR SWAP1 SSTORE POP SWAP1 POP POP POP POP POP JUMP JUMPDEST PUSH0 PUSH1 0x14 SWAP1 SLOAD SWAP1 PUSH2 0x100 EXP SWAP1 DIV PUSH1 0xFF AND DUP2 JUMP JUMPDEST PUSH1 0xD DUP2 DUP2 SLOAD DUP2 LT PUSH2 0xABB JUMPI PUSH0 DUP1 REVERT JUMPDEST SWAP1 PUSH0 MSTORE PUSH1 0x20 PUSH0 KECCAK256 ADD PUSH0 SWAP2 POP SWAP1 POP SLOAD DUP2 JUMP JUMPDEST PUSH1 0x1 DUP1 PUSH0 ADD SLOAD SWAP1 DUP1 PUSH1 0x1 ADD DUP1 SLOAD PUSH2 0xAE2 SWAP1 PUSH2 0x196D JUMP JUMPDEST DUP1 PUSH1 0x1F ADD PUSH1 0x20 DUP1 SWAP2 DIV MUL PUSH1 0x20 ADD PUSH1 0x40 MLOAD SWAP1 DUP2 ADD PUSH1 0x40 MSTORE DUP1 SWAP3 SWAP2 SWAP1 DUP2 DUP2 MSTORE PUSH1 0x20 ADD DUP3 DUP1 SLOAD PUSH2 0xB0E SWAP1 PUSH2 0x196D JUMP JUMPDEST DUP1 ISZERO PUSH2 0xB59 JUMPI DUP1 PUSH1 0x1F LT PUSH2 0xB30 JUMPI PUSH2 0x100 DUP1 DUP4 SLOAD DIV MUL DUP4 MSTORE SWAP2 PUSH1 0x20 ADD SWAP2 PUSH2 0xB59 JUMP JUMPDEST DUP3 ADD SWAP2 SWAP1 PUSH0 MSTORE PUSH1 0x20 PUSH0 KECCAK256 SWAP1 JUMPDEST DUP2 SLOAD DUP2 MSTORE SWAP1 PUSH1 0x1 ADD SWAP1 PUSH1 0x20 ADD DUP1 DUP4 GT PUSH2 0xB3C JUMPI DUP3 SWAP1 SUB PUSH1 0x1F AND DUP3 ADD SWAP2 JUMPDEST POP POP POP POP POP SWAP1 DUP1 PUSH1 0x2 ADD DUP1 SLOAD PUSH2 0xB6E SWAP1 PUSH2 0x196D JUMP JUMPDEST DUP1 PUSH1 0x1F ADD PUSH1 0x20 DUP1 SWAP2 DIV MUL PUSH1 0x20 ADD PUSH1 0x40 MLOAD SWAP1 DUP2 ADD PUSH1 0x40 MSTORE DUP1 SWAP3 SWAP2 SWAP1 DUP2 DUP2 MSTORE PUSH1 0x20 ADD DUP3 DUP1 SLOAD PUSH2 0xB9A SWAP1 PUSH2 0x196D JUMP JUMPDEST DUP1 ISZERO PUSH2 0xBE5 JUMPI DUP1 PUSH1 0x1F LT PUSH2 0xBBC JUMPI PUSH2 0x100 DUP1 DUP4 SLOAD DIV MUL DUP4 MSTORE SWAP2 PUSH1 0x20 ADD SWAP2 PUSH2 0xBE5 JUMP JUMPDEST DUP3 ADD SWAP2 SWAP1 PUSH0 MSTORE PUSH1 0x20 PUSH0 KECCAK256 SWAP1 JUMPDEST DUP2 SLOAD DUP2 MSTORE SWAP1 PUSH1 0x1 ADD SWAP1 PUSH1 0x20 ADD DUP1 DUP4 GT PUSH2 0xBC8 JUMPI DUP3 SWAP1 SUB PUSH1 0x1F AND DUP3 ADD SWAP2 JUMPDEST POP POP POP POP POP SWAP1 DUP1 PUSH1 0x3 ADD SLOAD SWAP1 DUP1 PUSH1 0x4 ADD SLOAD SWAP1 DUP1 PUSH1 0x5 ADD PUSH0 SWAP1 SLOAD SWAP1 PUSH2 0x100 EXP SWAP1 DIV PUSH1 0xFF AND SWAP1 DUP1 PUSH1 0x5 ADD PUSH1 0x1 SWAP1 SLOAD SWAP1 PUSH2 0x100 EXP SWAP1 DIV PUSH1 0xFF AND SWAP1 DUP1 PUSH1 0x5 ADD PUSH1 0x2 SWAP1 SLOAD SWAP1 PUSH2 0x100 EXP SWAP1 DIV PUSH1 0xFF AND SWAP1 POP DUP9 JUMP JUMPDEST PUSH0 PUSH1 0x2 PUSH1 0x1 PUSH1 0x5 ADD PUSH1 0x2 PUSH2 0x100 EXP DUP2 SLOAD DUP2 PUSH1 0xFF MUL NOT AND SWAP1 DUP4 PUSH1 0x2 DUP2 GT ISZERO PUSH2 0xC5D JUMPI PUSH2 0xC5C PUSH2 0x13EC JUMP JUMPDEST JUMPDEST MUL OR SWAP1 SSTORE POP PUSH1 0x1 SWAP1 POP SWAP1 JUMP JUMPDEST PUSH2 0xC71 PUSH2 0x128F JUMP JUMPDEST PUSH1 0x9 PUSH0 DUP4 DUP2 MSTORE PUSH1 0x20 ADD SWAP1 DUP2 MSTORE PUSH1 0x20 ADD PUSH0 KECCAK256 PUSH1 0x40 MLOAD DUP1 PUSH2 0x100 ADD PUSH1 0x40 MSTORE SWAP1 DUP2 PUSH0 DUP3 ADD SLOAD DUP2 MSTORE PUSH1 0x20 ADD PUSH1 0x1 DUP3 ADD DUP1 SLOAD PUSH2 0xCA7 SWAP1 PUSH2 0x196D JUMP JUMPDEST DUP1 PUSH1 0x1F ADD PUSH1 0x20 DUP1 SWAP2 DIV MUL PUSH1 0x20 ADD PUSH1 0x40 MLOAD SWAP1 DUP2 ADD PUSH1 0x40 MSTORE DUP1 SWAP3 SWAP2 SWAP1 DUP2 DUP2 MSTORE PUSH1 0x20 ADD DUP3 DUP1 SLOAD PUSH2 0xCD3 SWAP1 PUSH2 0x196D JUMP JUMPDEST DUP1 ISZERO PUSH2 0xD1E JUMPI DUP1 PUSH1 0x1F LT PUSH2 0xCF5 JUMPI PUSH2 0x100 DUP1 DUP4 SLOAD DIV MUL DUP4 MSTORE SWAP2 PUSH1 0x20 ADD SWAP2 PUSH2 0xD1E JUMP JUMPDEST DUP3 ADD SWAP2 SWAP1 PUSH0 MSTORE PUSH1 0x20 PUSH0 KECCAK256 SWAP1 JUMPDEST DUP2 SLOAD DUP2 MSTORE SWAP1 PUSH1 0x1 ADD SWAP1 PUSH1 0x20 ADD DUP1 DUP4 GT PUSH2 0xD01 JUMPI DUP3 SWAP1 SUB PUSH1 0x1F AND DUP3 ADD SWAP2 JUMPDEST POP POP POP POP POP DUP2 MSTORE PUSH1 0x20 ADD PUSH1 0x2 DUP3 ADD DUP1 SLOAD PUSH2 0xD37 SWAP1 PUSH2 0x196D JUMP JUMPDEST DUP1 PUSH1 0x1F ADD PUSH1 0x20 DUP1 SWAP2 DIV MUL PUSH1 0x20 ADD PUSH1 0x40 MLOAD SWAP1 DUP2 ADD PUSH1 0x40 MSTORE DUP1 SWAP3 SWAP2 SWAP1 DUP2 DUP2 MSTORE PUSH1 0x20 ADD DUP3 DUP1 SLOAD PUSH2 0xD63 SWAP1 PUSH2 0x196D JUMP JUMPDEST DUP1 ISZERO PUSH2 0xDAE JUMPI DUP1 PUSH1 0x1F LT PUSH2 0xD85 JUMPI PUSH2 0x100 DUP1 DUP4 SLOAD DIV MUL DUP4 MSTORE SWAP2 PUSH1 0x20 ADD SWAP2 PUSH2 0xDAE JUMP JUMPDEST DUP3 ADD SWAP2 SWAP1 PUSH0 MSTORE PUSH1 0x20 PUSH0 KECCAK256 SWAP1 JUMPDEST DUP2 SLOAD DUP2 MSTORE SWAP1 PUSH1 0x1 ADD SWAP1 PUSH1 0x20 ADD DUP1 DUP4 GT PUSH2 0xD91 JUMPI DUP3 SWAP1 SUB PUSH1 0x1F AND DUP3 ADD SWAP2 JUMPDEST POP POP POP POP POP DUP2 MSTORE PUSH1 0x20 ADD PUSH1 0x3 DUP3 ADD SLOAD DUP2 MSTORE PUSH1 0x20 ADD PUSH1 0x4 DUP3 ADD SLOAD DUP2 MSTORE PUSH1 0x20 ADD PUSH1 0x5 DUP3 ADD PUSH0 SWAP1 SLOAD SWAP1 PUSH2 0x100 EXP SWAP1 DIV PUSH1 0xFF AND ISZERO ISZERO ISZERO ISZERO DUP2 MSTORE PUSH1 0x20 ADD PUSH1 0x5 DUP3 ADD PUSH1 0x1 SWAP1 SLOAD SWAP1 PUSH2 0x100 EXP SWAP1 DIV PUSH1 0xFF AND ISZERO ISZERO ISZERO ISZERO DUP2 MSTORE PUSH1 0x20 ADD PUSH1 0x5 DUP3 ADD PUSH1 0x2 SWAP1 SLOAD SWAP1 PUSH2 0x100 EXP SWAP1 DIV PUSH1 0xFF AND PUSH1 0x2 DUP2 GT ISZERO PUSH2 0xE25 JUMPI PUSH2 0xE24 PUSH2 0x13EC JUMP JUMPDEST JUMPDEST PUSH1 0x2 DUP2 GT ISZERO PUSH2 0xE37 JUMPI PUSH2 0xE36 PUSH2 0x13EC JUMP JUMPDEST JUMPDEST DUP2 MSTORE POP POP SWAP1 POP SWAP2 SWAP1 POP JUMP JUMPDEST PUSH0 PUSH0 PUSH0 SWAP1 SLOAD SWAP1 PUSH2 0x100 EXP SWAP1 DIV PUSH20 0xFFFFFFFFFFFFFFFFFFFFFFFFFFFFFFFFFFFFFFFF AND CALLER PUSH20 0xFFFFFFFFFFFFFFFFFFFFFFFFFFFFFFFFFFFFFFFF AND DUP2 PUSH20 0xFFFFFFFFFFFFFFFFFFFFFFFFFFFFFFFFFFFFFFFF AND EQ PUSH2 0xED2 JUMPI PUSH1 0x40 MLOAD PUSH32 0x8C379A000000000000000000000000000000000000000000000000000000000 DUP2 MSTORE PUSH1 0x4 ADD PUSH2 0xEC9 SWAP1 PUSH2 0x1E1C JUMP JUMPDEST PUSH1 0x40 MLOAD DUP1 SWAP2 SUB SWAP1 REVERT JUMPDEST TIMESTAMP DUP4 GT PUSH2 0xF14 JUMPI PUSH1 0x40 MLOAD PUSH32 0x8C379A000000000000000000000000000000000000000000000000000000000 DUP2 MSTORE PUSH1 0x4 ADD PUSH2 0xF0B SWAP1 PUSH2 0x1EAA JUMP JUMPDEST PUSH1 0x40 MLOAD DUP1 SWAP2 SUB SWAP1 REVERT JUMPDEST DUP3 PUSH1 0x1 PUSH1 0x3 ADD DUP2 SWAP1 SSTORE POP PUSH1 0x1 PUSH1 0x3 ADD SLOAD SWAP2 POP POP SWAP2 SWAP1 POP JUMP JUMPDEST PUSH2 0xF34 PUSH2 0x128F JUMP JUMPDEST PUSH0 PUSH0 SWAP1 SLOAD SWAP1 PUSH2 0x100 EXP SWAP1 DIV PUSH20 0xFFFFFFFFFFFFFFFFFFFFFFFFFFFFFFFFFFFFFFFF AND CALLER PUSH20 0xFFFFFFFFFFFFFFFFFFFFFFFFFFFFFFFFFFFFFFFF AND DUP2 PUSH20 0xFFFFFFFFFFFFFFFFFFFFFFFFFFFFFFFFFFFFFFFF AND EQ PUSH2 0xFC3 JUMPI PUSH1 0x40 MLOAD PUSH32 0x8C379A000000000000000000000000000000000000000000000000000000000 DUP2 MSTORE PUSH1 0x4 ADD PUSH2 0xFBA SWAP1 PUSH2 0x1E1C JUMP JUMPDEST PUSH1 0x40 MLOAD DUP1 SWAP2 SUB SWAP1 REVERT JUMPDEST PUSH0 DUP7 SUB PUSH2 0x1005 JUMPI PUSH1 0x40 MLOAD PUSH32 0x8C379A000000000000000000000000000000000000000000000000000000000 DUP2 MSTORE PUSH1 0x4 ADD PUSH2 0xFFC SWAP1 PUSH2 0x1F12 JUMP JUMPDEST PUSH1 0x40 MLOAD DUP1 SWAP2 SUB SWAP1 REVERT JUMPDEST PUSH1 0x1 PUSH0 ADD SLOAD DUP7 SUB PUSH2 0x104B JUMPI PUSH1 0x40 MLOAD PUSH32 0x8C379A000000000000000000000000000000000000000000000000000000000 DUP2 MSTORE PUSH1 0x4 ADD PUSH2 0x1042 SWAP1 PUSH2 0x1F7A JUMP JUMPDEST PUSH1 0x40 MLOAD DUP1 SWAP2 SUB SWAP1 REVERT JUMPDEST TIMESTAMP DUP4 GT PUSH2 0x108D JUMPI PUSH1 0x40 MLOAD PUSH32 0x8C379A000000000000000000000000000000000000000000000000000000000 DUP2 MSTORE PUSH1 0x4 ADD PUSH2 0x1084 SWAP1 PUSH2 0x2008 JUMP JUMPDEST PUSH1 0x40 MLOAD DUP1 SWAP2 SUB SWAP1 REVERT JUMPDEST PUSH0 PUSH1 0x1 PUSH1 0x4 ADD SLOAD EQ PUSH2 0x10D4 JUMPI PUSH1 0x40 MLOAD PUSH32 0x8C379A000000000000000000000000000000000000000000000000000000000 DUP2 MSTORE PUSH1 0x4 ADD PUSH2 0x10CB SWAP1 PUSH2 0x2070 JUMP JUMPDEST PUSH1 0x40 MLOAD DUP1 SWAP2 SUB SWAP1 REVERT JUMPDEST PUSH0 PUSH1 0x2 DUP2 GT ISZERO PUSH2 0x10E7 JUMPI PUSH2 0x10E6 PUSH2 0x13EC JUMP JUMPDEST JUMPDEST PUSH1 0x1 PUSH1 0x5 ADD PUSH1 0x2 SWAP1 SLOAD SWAP1 PUSH2 0x100 EXP SWAP1 DIV PUSH1 0xFF AND PUSH1 0x2 DUP2 GT ISZERO PUSH2 0x110C JUMPI PUSH2 0x110B PUSH2 0x13EC JUMP JUMPDEST JUMPDEST EQ PUSH2 0x114C JUMPI PUSH1 0x40 MLOAD PUSH32 0x8C379A000000000000000000000000000000000000000000000000000000000 DUP2 MSTORE PUSH1 0x4 ADD PUSH2 0x1143 SWAP1 PUSH2 0x20D8 JUMP JUMPDEST PUSH1 0x40 MLOAD DUP1 SWAP2 SUB SWAP1 REVERT JUMPDEST PUSH0 PUSH1 0x40 MLOAD DUP1 PUSH2 0x100 ADD PUSH1 0x40 MSTORE DUP1 DUP9 DUP2 MSTORE PUSH1 0x20 ADD DUP8 DUP2 MSTORE PUSH1 0x20 ADD DUP7 DUP2 MSTORE PUSH1 0x20 ADD DUP6 DUP2 MSTORE PUSH1 0x20 ADD PUSH0 DUP2 MSTORE PUSH1 0x20 ADD PUSH0 ISZERO ISZERO DUP2 MSTORE PUSH1 0x20 ADD PUSH0 ISZERO ISZERO DUP2 MSTORE PUSH1 0x20 ADD PUSH1 0x1 PUSH1 0x2 DUP2 GT ISZERO PUSH2 0x119B JUMPI PUSH2 0x119A PUSH2 0x13EC JUMP JUMPDEST JUMPDEST DUP2 MSTORE POP SWAP1 POP PUSH1 0x7 DUP2 SWAP1 DUP1 PUSH1 0x1 DUP2 SLOAD ADD DUP1 DUP3 SSTORE DUP1 SWAP2 POP POP PUSH1 0x1 SWAP1 SUB SWAP1 PUSH0 MSTORE PUSH1 0x20 PUSH0 KECCAK256 SWAP1 PUSH1 0x6 MUL ADD PUSH0 SWAP1 SWAP2 SWAP1 SWAP2 SWAP1 SWAP2 POP PUSH0 DUP3 ADD MLOAD DUP2 PUSH0 ADD SSTORE PUSH1 0x20 DUP3 ADD MLOAD DUP2 PUSH1 0x1 ADD SWAP1 DUP2 PUSH2 0x11E6 SWAP2 SWAP1 PUSH2 0x1D03 JUMP JUMPDEST POP PUSH1 0x40 DUP3 ADD MLOAD DUP2 PUSH1 0x2 ADD SWAP1 DUP2 PUSH2 0x11FC SWAP2 SWAP1 PUSH2 0x1D03 JUMP JUMPDEST POP PUSH1 0x60 DUP3 ADD MLOAD DUP2 PUSH1 0x3 ADD SSTORE PUSH1 0x80 DUP3 ADD MLOAD DUP2 PUSH1 0x4 ADD SSTORE PUSH1 0xA0 DUP3 ADD MLOAD DUP2 PUSH1 0x5 ADD PUSH0 PUSH2 0x100 EXP DUP2 SLOAD DUP2 PUSH1 0xFF MUL NOT AND SWAP1 DUP4 ISZERO ISZERO MUL OR SWAP1 SSTORE POP PUSH1 0xC0 DUP3 ADD MLOAD DUP2 PUSH1 0x5 ADD PUSH1 0x1 PUSH2 0x100 EXP DUP2 SLOAD DUP2 PUSH1 0xFF MUL NOT AND SWAP1 DUP4 ISZERO ISZERO MUL OR SWAP1 SSTORE POP PUSH1 0xE0 DUP3 ADD MLOAD DUP2 PUSH1 0x5 ADD PUSH1 0x2 PUSH2 0x100 EXP DUP2 SLOAD DUP2 PUSH1 0xFF MUL NOT AND SWAP1 DUP4 PUSH1 0x2 DUP2 GT ISZERO PUSH2 0x127B JUMPI PUSH2 0x127A PUSH2 0x13EC JUMP JUMPDEST JUMPDEST MUL OR SWAP1 SSTORE POP POP POP DUP1 SWAP3 POP POP POP SWAP5 SWAP4 POP POP POP POP JUMP JUMPDEST PUSH1 0x40 MLOAD DUP1 PUSH2 0x100 ADD PUSH1 0x40 MSTORE DUP1 PUSH0 DUP2 MSTORE PUSH1 0x20 ADD PUSH1 0x60 DUP2 MSTORE PUSH1 0x20 ADD PUSH1 0x60 DUP2 MSTORE PUSH1 0x20 ADD PUSH0 DUP2 MSTORE PUSH1 0x20 ADD PUSH0 DUP2 MSTORE PUSH1 0x20 ADD PUSH0 ISZERO ISZERO DUP2 MSTORE PUSH1 0x20 ADD PUSH0 ISZERO ISZERO DUP2 MSTORE PUSH1 0x20 ADD PUSH0 PUSH1 0x2 DUP2 GT ISZERO PUSH2 0x12DE JUMPI PUSH2 0x12DD PUSH2 0x13EC JUMP JUMPDEST JUMPDEST DUP2 MSTORE POP SWAP1 JUMP JUMPDEST PUSH0 PUSH1 0x40 MLOAD SWAP1 POP SWAP1 JUMP JUMPDEST PUSH0 PUSH0 REVERT JUMPDEST PUSH0 PUSH0 REVERT JUMPDEST PUSH0 DUP2 SWAP1 POP SWAP2 SWAP1 POP JUMP JUMPDEST PUSH2 0x1307 DUP2 PUSH2 0x12F5 JUMP JUMPDEST DUP2 EQ PUSH2 0x1311 JUMPI PUSH0 PUSH0 REVERT JUMPDEST POP JUMP JUMPDEST PUSH0 DUP2 CALLDATALOAD SWAP1 POP PUSH2 0x1322 DUP2 PUSH2 0x12FE JUMP JUMPDEST SWAP3 SWAP2 POP POP JUMP JUMPDEST PUSH0 PUSH1 0x20 DUP3 DUP5 SUB SLT ISZERO PUSH2 0x133D JUMPI PUSH2 0x133C PUSH2 0x12ED JUMP JUMPDEST JUMPDEST PUSH0 PUSH2 0x134A DUP5 DUP3 DUP6 ADD PUSH2 0x1314 JUMP JUMPDEST SWAP2 POP POP SWAP3 SWAP2 POP POP JUMP JUMPDEST PUSH2 0x135C DUP2 PUSH2 0x12F5 JUMP JUMPDEST DUP3 MSTORE POP POP JUMP JUMPDEST PUSH0 DUP2 MLOAD SWAP1 POP SWAP2 SWAP1 POP JUMP JUMPDEST PUSH0 DUP3 DUP3 MSTORE PUSH1 0x20 DUP3 ADD SWAP1 POP SWAP3 SWAP2 POP POP JUMP JUMPDEST DUP3 DUP2 DUP4 MCOPY PUSH0 DUP4 DUP4 ADD MSTORE POP POP POP JUMP JUMPDEST PUSH0 PUSH1 0x1F NOT PUSH1 0x1F DUP4 ADD AND SWAP1 POP SWAP2 SWAP1 POP JUMP JUMPDEST PUSH0 PUSH2 0x13A4 DUP3 PUSH2 0x1362 JUMP JUMPDEST PUSH2 0x13AE DUP2 DUP6 PUSH2 0x136C JUMP JUMPDEST SWAP4 POP PUSH2 0x13BE DUP2 DUP6 PUSH1 0x20 DUP7 ADD PUSH2 0x137C JUMP JUMPDEST PUSH2 0x13C7 DUP2 PUSH2 0x138A JUMP JUMPDEST DUP5 ADD SWAP2 POP POP SWAP3 SWAP2 POP POP JUMP JUMPDEST PUSH0 DUP2 ISZERO ISZERO SWAP1 POP SWAP2 SWAP1 POP JUMP JUMPDEST PUSH2 0x13E6 DUP2 PUSH2 0x13D2 JUMP JUMPDEST DUP3 MSTORE POP POP JUMP JUMPDEST PUSH32 0x4E487B7100000000000000000000000000000000000000000000000000000000 PUSH0 MSTORE PUSH1 0x21 PUSH1 0x4 MSTORE PUSH1 0x24 PUSH0 REVERT JUMPDEST PUSH1 0x3 DUP2 LT PUSH2 0x142A JUMPI PUSH2 0x1429 PUSH2 0x13EC JUMP JUMPDEST JUMPDEST POP JUMP JUMPDEST PUSH0 DUP2 SWAP1 POP PUSH2 0x143A DUP3 PUSH2 0x1419 JUMP JUMPDEST SWAP2 SWAP1 POP JUMP JUMPDEST PUSH0 PUSH2 0x1449 DUP3 PUSH2 0x142D JUMP JUMPDEST SWAP1 POP SWAP2 SWAP1 POP JUMP JUMPDEST PUSH2 0x1459 DUP2 PUSH2 0x143F JUMP JUMPDEST DUP3 MSTORE POP POP JUMP JUMPDEST PUSH0 PUSH2 0x100 DUP3 ADD SWAP1 POP PUSH2 0x1473 PUSH0 DUP4 ADD DUP12 PUSH2 0x1353 JUMP JUMPDEST DUP2 DUP2 SUB PUSH1 0x20 DUP4 ADD MSTORE PUSH2 0x1485 DUP2 DUP11 PUSH2 0x139A JUMP JUMPDEST SWAP1 POP DUP2 DUP2 SUB PUSH1 0x40 DUP4 ADD MSTORE PUSH2 0x1499 DUP2 DUP10 PUSH2 0x139A JUMP JUMPDEST SWAP1 POP PUSH2 0x14A8 PUSH1 0x60 DUP4 ADD DUP9 PUSH2 0x1353 JUMP JUMPDEST PUSH2 0x14B5 PUSH1 0x80 DUP4 ADD DUP8 PUSH2 0x1353 JUMP JUMPDEST PUSH2 0x14C2 PUSH1 0xA0 DUP4 ADD DUP7 PUSH2 0x13DD JUMP JUMPDEST PUSH2 0x14CF PUSH1 0xC0 DUP4 ADD DUP6 PUSH2 0x13DD JUMP JUMPDEST PUSH2 0x14DC PUSH1 0xE0 DUP4 ADD DUP5 PUSH2 0x1450 JUMP JUMPDEST SWAP10 SWAP9 POP POP POP POP POP POP POP POP POP JUMP JUMPDEST PUSH0 PUSH1 0x40 DUP3 ADD SWAP1 POP PUSH2 0x14FC PUSH0 DUP4 ADD DUP6 PUSH2 0x13DD JUMP JUMPDEST PUSH2 0x1509 PUSH1 0x20 DUP4 ADD DUP5 PUSH2 0x1353 JUMP JUMPDEST SWAP4 SWAP3 POP POP POP JUMP JUMPDEST PUSH0 PUSH1 0x20 DUP3 ADD SWAP1 POP PUSH2 0x1523 PUSH0 DUP4 ADD DUP5 PUSH2 0x1353 JUMP JUMPDEST SWAP3 SWAP2 POP POP JUMP JUMPDEST PUSH0 PUSH20 0xFFFFFFFFFFFFFFFFFFFFFFFFFFFFFFFFFFFFFFFF DUP3 AND SWAP1 POP SWAP2 SWAP1 POP JUMP JUMPDEST PUSH0 PUSH2 0x1552 DUP3 PUSH2 0x1529 JUMP JUMPDEST SWAP1 POP SWAP2 SWAP1 POP JUMP JUMPDEST PUSH2 0x1562 DUP2 PUSH2 0x1548 JUMP JUMPDEST DUP2 EQ PUSH2 0x156C JUMPI PUSH0 PUSH0 REVERT JUMPDEST POP JUMP JUMPDEST PUSH0 DUP2 CALLDATALOAD SWAP1 POP PUSH2 0x157D DUP2 PUSH2 0x1559 JUMP JUMPDEST SWAP3 SWAP2 POP POP JUMP JUMPDEST PUSH2 0x158C DUP2 PUSH2 0x13D2 JUMP JUMPDEST DUP2 EQ PUSH2 0x1596 JUMPI PUSH0 PUSH0 REVERT JUMPDEST POP JUMP JUMPDEST PUSH0 DUP2 CALLDATALOAD SWAP1 POP PUSH2 0x15A7 DUP2 PUSH2 0x1583 JUMP JUMPDEST SWAP3 SWAP2 POP POP JUMP JUMPDEST PUSH0 PUSH0 PUSH0 PUSH1 0x60 DUP5 DUP7 SUB SLT ISZERO PUSH2 0x15C4 JUMPI PUSH2 0x15C3 PUSH2 0x12ED JUMP JUMPDEST JUMPDEST PUSH0 PUSH2 0x15D1 DUP7 DUP3 DUP8 ADD PUSH2 0x156F JUMP JUMPDEST SWAP4 POP POP PUSH1 0x20 PUSH2 0x15E2 DUP7 DUP3 DUP8 ADD PUSH2 0x1314 JUMP JUMPDEST SWAP3 POP POP PUSH1 0x40 PUSH2 0x15F3 DUP7 DUP3 DUP8 ADD PUSH2 0x1599 JUMP JUMPDEST SWAP2 POP POP SWAP3 POP SWAP3 POP SWAP3 JUMP JUMPDEST PUSH0 PUSH1 0x20 DUP3 ADD SWAP1 POP PUSH2 0x1610 PUSH0 DUP4 ADD DUP5 PUSH2 0x1450 JUMP JUMPDEST SWAP3 SWAP2 POP POP JUMP JUMPDEST PUSH0 PUSH1 0x20 DUP3 ADD SWAP1 POP PUSH2 0x1629 PUSH0 DUP4 ADD DUP5 PUSH2 0x13DD JUMP JUMPDEST SWAP3 SWAP2 POP POP JUMP JUMPDEST PUSH2 0x1638 DUP2 PUSH2 0x12F5 JUMP JUMPDEST DUP3 MSTORE POP POP JUMP JUMPDEST PUSH0 DUP3 DUP3 MSTORE PUSH1 0x20 DUP3 ADD SWAP1 POP SWAP3 SWAP2 POP POP JUMP JUMPDEST PUSH0 PUSH2 0x1658 DUP3 PUSH2 0x1362 JUMP JUMPDEST PUSH2 0x1662 DUP2 DUP6 PUSH2 0x163E JUMP JUMPDEST SWAP4 POP PUSH2 0x1672 DUP2 DUP6 PUSH1 0x20 DUP7 ADD PUSH2 0x137C JUMP JUMPDEST PUSH2 0x167B DUP2 PUSH2 0x138A JUMP JUMPDEST DUP5 ADD SWAP2 POP POP SWAP3 SWAP2 POP POP JUMP JUMPDEST PUSH2 0x168F DUP2 PUSH2 0x13D2 JUMP JUMPDEST DUP3 MSTORE POP POP JUMP JUMPDEST PUSH2 0x169E DUP2 PUSH2 0x143F JUMP JUMPDEST DUP3 MSTORE POP POP JUMP JUMPDEST PUSH0 PUSH2 0x100 DUP4 ADD PUSH0 DUP4 ADD MLOAD PUSH2 0x16BA PUSH0 DUP7 ADD DUP3 PUSH2 0x162F JUMP JUMPDEST POP PUSH1 0x20 DUP4 ADD MLOAD DUP5 DUP3 SUB PUSH1 0x20 DUP7 ADD MSTORE PUSH2 0x16D2 DUP3 DUP3 PUSH2 0x164E JUMP JUMPDEST SWAP2 POP POP PUSH1 0x40 DUP4 ADD MLOAD DUP5 DUP3 SUB PUSH1 0x40 DUP7 ADD MSTORE PUSH2 0x16EC DUP3 DUP3 PUSH2 0x164E JUMP JUMPDEST SWAP2 POP POP PUSH1 0x60 DUP4 ADD MLOAD PUSH2 0x1701 PUSH1 0x60 DUP7 ADD DUP3 PUSH2 0x162F JUMP JUMPDEST POP PUSH1 0x80 DUP4 ADD MLOAD PUSH2 0x1714 PUSH1 0x80 DUP7 ADD DUP3 PUSH2 0x162F JUMP JUMPDEST POP PUSH1 0xA0 DUP4 ADD MLOAD PUSH2 0x1727 PUSH1 0xA0 DUP7 ADD DUP3 PUSH2 0x1686 JUMP JUMPDEST POP PUSH1 0xC0 DUP4 ADD MLOAD PUSH2 0x173A PUSH1 0xC0 DUP7 ADD DUP3 PUSH2 0x1686 JUMP JUMPDEST POP PUSH1 0xE0 DUP4 ADD MLOAD PUSH2 0x174D PUSH1 0xE0 DUP7 ADD DUP3 PUSH2 0x1695 JUMP JUMPDEST POP DUP1 SWAP2 POP POP SWAP3 SWAP2 POP POP JUMP JUMPDEST PUSH0 PUSH1 0x20 DUP3 ADD SWAP1 POP DUP2 DUP2 SUB PUSH0 DUP4 ADD MSTORE PUSH2 0x1770 DUP2 DUP5 PUSH2 0x16A4 JUMP JUMPDEST SWAP1 POP SWAP3 SWAP2 POP POP JUMP JUMPDEST PUSH0 PUSH0 REVERT JUMPDEST PUSH0 PUSH0 REVERT JUMPDEST PUSH32 0x4E487B7100000000000000000000000000000000000000000000000000000000 PUSH0 MSTORE PUSH1 0x41 PUSH1 0x4 MSTORE PUSH1 0x24 PUSH0 REVERT JUMPDEST PUSH2 0x17B6 DUP3 PUSH2 0x138A JUMP JUMPDEST DUP2 ADD DUP2 DUP2 LT PUSH8 0xFFFFFFFFFFFFFFFF DUP3 GT OR ISZERO PUSH2 0x17D5 JUMPI PUSH2 0x17D4 PUSH2 0x1780 JUMP JUMPDEST JUMPDEST DUP1 PUSH1 0x40 MSTORE POP POP POP JUMP JUMPDEST PUSH0 PUSH2 0x17E7 PUSH2 0x12E4 JUMP JUMPDEST SWAP1 POP PUSH2 0x17F3 DUP3 DUP3 PUSH2 0x17AD JUMP JUMPDEST SWAP2 SWAP1 POP JUMP JUMPDEST PUSH0 PUSH8 0xFFFFFFFFFFFFFFFF DUP3 GT ISZERO PUSH2 0x1812 JUMPI PUSH2 0x1811 PUSH2 0x1780 JUMP JUMPDEST JUMPDEST PUSH2 0x181B DUP3 PUSH2 0x138A JUMP JUMPDEST SWAP1 POP PUSH1 0x20 DUP2 ADD SWAP1 POP SWAP2 SWAP1 POP JUMP JUMPDEST DUP3 DUP2 DUP4 CALLDATACOPY PUSH0 DUP4 DUP4 ADD MSTORE POP POP POP JUMP JUMPDEST PUSH0 PUSH2 0x1848 PUSH2 0x1843 DUP5 PUSH2 0x17F8 JUMP JUMPDEST PUSH2 0x17DE JUMP JUMPDEST SWAP1 POP DUP3 DUP2 MSTORE PUSH1 0x20 DUP2 ADD DUP5 DUP5 DUP5 ADD GT ISZERO PUSH2 0x1864 JUMPI PUSH2 0x1863 PUSH2 0x177C JUMP JUMPDEST JUMPDEST PUSH2 0x186F DUP5 DUP3 DUP6 PUSH2 0x1828 JUMP JUMPDEST POP SWAP4 SWAP3 POP POP POP JUMP JUMPDEST PUSH0 DUP3 PUSH1 0x1F DUP4 ADD SLT PUSH2 0x188B JUMPI PUSH2 0x188A PUSH2 0x1778 JUMP JUMPDEST JUMPDEST DUP2 CALLDATALOAD PUSH2 0x189B DUP5 DUP3 PUSH1 0x20 DUP7 ADD PUSH2 0x1836 JUMP JUMPDEST SWAP2 POP POP SWAP3 SWAP2 POP POP JUMP JUMPDEST PUSH0 PUSH0 PUSH0 PUSH0 PUSH1 0x80 DUP6 DUP8 SUB SLT ISZERO PUSH2 0x18BC JUMPI PUSH2 0x18BB PUSH2 0x12ED JUMP JUMPDEST JUMPDEST PUSH0 PUSH2 0x18C9 DUP8 DUP3 DUP9 ADD PUSH2 0x1314 JUMP JUMPDEST SWAP5 POP POP PUSH1 0x20 DUP6 ADD CALLDATALOAD PUSH8 0xFFFFFFFFFFFFFFFF DUP2 GT ISZERO PUSH2 0x18EA JUMPI PUSH2 0x18E9 PUSH2 0x12F1 JUMP JUMPDEST JUMPDEST PUSH2 0x18F6 DUP8 DUP3 DUP9 ADD PUSH2 0x1877 JUMP JUMPDEST SWAP4 POP POP PUSH1 0x40 DUP6 ADD CALLDATALOAD PUSH8 0xFFFFFFFFFFFFFFFF DUP2 GT ISZERO PUSH2 0x1917 JUMPI PUSH2 0x1916 PUSH2 0x12F1 JUMP JUMPDEST JUMPDEST PUSH2 0x1923 DUP8 DUP3 DUP9 ADD PUSH2 0x1877 JUMP JUMPDEST SWAP3 POP POP PUSH1 0x60 PUSH2 0x1934 DUP8 DUP3 DUP9 ADD PUSH2 0x1314 JUMP JUMPDEST SWAP2 POP POP SWAP3 SWAP6 SWAP2 SWAP5 POP SWAP3 POP JUMP JUMPDEST PUSH32 0x4E487B7100000000000000000000000000000000000000000000000000000000 PUSH0 MSTORE PUSH1 0x22 PUSH1 0x4 MSTORE PUSH1 0x24 PUSH0 REVERT JUMPDEST PUSH0 PUSH1 0x2 DUP3 DIV SWAP1 POP PUSH1 0x1 DUP3 AND DUP1 PUSH2 0x1984 JUMPI PUSH1 0x7F DUP3 AND SWAP2 POP JUMPDEST PUSH1 0x20 DUP3 LT DUP2 SUB PUSH2 0x1997 JUMPI PUSH2 0x1996 PUSH2 0x1940 JUMP JUMPDEST JUMPDEST POP SWAP2 SWAP1 POP JUMP JUMPDEST PUSH32 0x7A65726F20616464726573732063616E206E6F742062652061626C6520746F20 PUSH0 DUP3 ADD MSTORE PUSH32 0x766F746500000000000000000000000000000000000000000000000000000000 PUSH1 0x20 DUP3 ADD MSTORE POP JUMP JUMPDEST PUSH0 PUSH2 0x19F7 PUSH1 0x24 DUP4 PUSH2 0x136C JUMP JUMPDEST SWAP2 POP PUSH2 0x1A02 DUP3 PUSH2 0x199D JUMP JUMPDEST PUSH1 0x40 DUP3 ADD SWAP1 POP SWAP2 SWAP1 POP JUMP JUMPDEST PUSH0 PUSH1 0x20 DUP3 ADD SWAP1 POP DUP2 DUP2 SUB PUSH0 DUP4 ADD MSTORE PUSH2 0x1A24 DUP2 PUSH2 0x19EB JUMP JUMPDEST SWAP1 POP SWAP2 SWAP1 POP JUMP JUMPDEST PUSH32 0x646F75626C6520766F74696E67206973206E6F7420616C6C6F77656400000000 PUSH0 DUP3 ADD MSTORE POP JUMP JUMPDEST PUSH0 PUSH2 0x1A5F PUSH1 0x1C DUP4 PUSH2 0x136C JUMP JUMPDEST SWAP2 POP PUSH2 0x1A6A DUP3 PUSH2 0x1A2B JUMP JUMPDEST PUSH1 0x20 DUP3 ADD SWAP1 POP SWAP2 SWAP1 POP JUMP JUMPDEST PUSH0 PUSH1 0x20 DUP3 ADD SWAP1 POP DUP2 DUP2 SUB PUSH0 DUP4 ADD MSTORE PUSH2 0x1A8C DUP2 PUSH2 0x1A53 JUMP JUMPDEST SWAP1 POP SWAP2 SWAP1 POP JUMP JUMPDEST PUSH32 0x70726F706F73616C20646F6573206E6F74206578697374000000000000000000 PUSH0 DUP3 ADD MSTORE POP JUMP JUMPDEST PUSH0 PUSH2 0x1AC7 PUSH1 0x17 DUP4 PUSH2 0x136C JUMP JUMPDEST SWAP2 POP PUSH2 0x1AD2 DUP3 PUSH2 0x1A93 JUMP JUMPDEST PUSH1 0x20 DUP3 ADD SWAP1 POP SWAP2 SWAP1 POP JUMP JUMPDEST PUSH0 PUSH1 0x20 DUP3 ADD SWAP1 POP DUP2 DUP2 SUB PUSH0 DUP4 ADD MSTORE PUSH2 0x1AF4 DUP2 PUSH2 0x1ABB JUMP JUMPDEST SWAP1 POP SWAP2 SWAP1 POP JUMP JUMPDEST PUSH32 0x7565722072657920766F74650000000000000000000000000000000000000000 PUSH0 DUP3 ADD MSTORE POP JUMP JUMPDEST PUSH0 PUSH2 0x1B2F PUSH1 0xC DUP4 PUSH2 0x136C JUMP JUMPDEST SWAP2 POP PUSH2 0x1B3A DUP3 PUSH2 0x1AFB JUMP JUMPDEST PUSH1 0x20 DUP3 ADD SWAP1 POP SWAP2 SWAP1 POP JUMP JUMPDEST PUSH0 PUSH1 0x20 DUP3 ADD SWAP1 POP DUP2 DUP2 SUB PUSH0 DUP4 ADD MSTORE PUSH2 0x1B5C DUP2 PUSH2 0x1B23 JUMP JUMPDEST SWAP1 POP SWAP2 SWAP1 POP JUMP JUMPDEST PUSH0 DUP2 SWAP1 POP DUP2 PUSH0 MSTORE PUSH1 0x20 PUSH0 KECCAK256 SWAP1 POP SWAP2 SWAP1 POP JUMP JUMPDEST PUSH0 PUSH1 0x20 PUSH1 0x1F DUP4 ADD DIV SWAP1 POP SWAP2 SWAP1 POP JUMP JUMPDEST PUSH0 DUP3 DUP3 SHL SWAP1 POP SWAP3 SWAP2 POP POP JUMP JUMPDEST PUSH0 PUSH1 0x8 DUP4 MUL PUSH2 0x1BBF PUSH32 0xFFFFFFFFFFFFFFFFFFFFFFFFFFFFFFFFFFFFFFFFFFFFFFFFFFFFFFFFFFFFFFFF DUP3 PUSH2 0x1B84 JUMP JUMPDEST PUSH2 0x1BC9 DUP7 DUP4 PUSH2 0x1B84 JUMP JUMPDEST SWAP6 POP DUP1 NOT DUP5 AND SWAP4 POP DUP1 DUP7 AND DUP5 OR SWAP3 POP POP POP SWAP4 SWAP3 POP POP POP JUMP JUMPDEST PUSH0 DUP2 SWAP1 POP SWAP2 SWAP1 POP JUMP JUMPDEST PUSH0 PUSH2 0x1C04 PUSH2 0x1BFF PUSH2 0x1BFA DUP5 PUSH2 0x12F5 JUMP JUMPDEST PUSH2 0x1BE1 JUMP JUMPDEST PUSH2 0x12F5 JUMP JUMPDEST SWAP1 POP SWAP2 SWAP1 POP JUMP JUMPDEST PUSH0 DUP2 SWAP1 POP SWAP2 SWAP1 POP JUMP JUMPDEST PUSH2 0x1C1D DUP4 PUSH2 0x1BEA JUMP JUMPDEST PUSH2 0x1C31 PUSH2 0x1C29 DUP3 PUSH2 0x1C0B JUMP JUMPDEST DUP5 DUP5 SLOAD PUSH2 0x1B90 JUMP JUMPDEST DUP3 SSTORE POP POP POP POP JUMP JUMPDEST PUSH0 PUSH0 SWAP1 POP SWAP1 JUMP JUMPDEST PUSH2 0x1C48 PUSH2 0x1C39 JUMP JUMPDEST PUSH2 0x1C53 DUP2 DUP5 DUP5 PUSH2 0x1C14 JUMP JUMPDEST POP POP POP JUMP JUMPDEST JUMPDEST DUP2 DUP2 LT ISZERO PUSH2 0x1C76 JUMPI PUSH2 0x1C6B PUSH0 DUP3 PUSH2 0x1C40 JUMP JUMPDEST PUSH1 0x1 DUP2 ADD SWAP1 POP PUSH2 0x1C59 JUMP JUMPDEST POP POP JUMP JUMPDEST PUSH1 0x1F DUP3 GT ISZERO PUSH2 0x1CBB JUMPI PUSH2 0x1C8C DUP2 PUSH2 0x1B63 JUMP JUMPDEST PUSH2 0x1C95 DUP5 PUSH2 0x1B75 JUMP JUMPDEST DUP2 ADD PUSH1 0x20 DUP6 LT ISZERO PUSH2 0x1CA4 JUMPI DUP2 SWAP1 POP JUMPDEST PUSH2 0x1CB8 PUSH2 0x1CB0 DUP6 PUSH2 0x1B75 JUMP JUMPDEST DUP4 ADD DUP3 PUSH2 0x1C58 JUMP JUMPDEST POP POP JUMPDEST POP POP POP JUMP JUMPDEST PUSH0 DUP3 DUP3 SHR SWAP1 POP SWAP3 SWAP2 POP POP JUMP JUMPDEST PUSH0 PUSH2 0x1CDB PUSH0 NOT DUP5 PUSH1 0x8 MUL PUSH2 0x1CC0 JUMP JUMPDEST NOT DUP1 DUP4 AND SWAP2 POP POP SWAP3 SWAP2 POP POP JUMP JUMPDEST PUSH0 PUSH2 0x1CF3 DUP4 DUP4 PUSH2 0x1CCC JUMP JUMPDEST SWAP2 POP DUP3 PUSH1 0x2 MUL DUP3 OR SWAP1 POP SWAP3 SWAP2 POP POP JUMP JUMPDEST PUSH2 0x1D0C DUP3 PUSH2 0x1362 JUMP JUMPDEST PUSH8 0xFFFFFFFFFFFFFFFF DUP2 GT ISZERO PUSH2 0x1D25 JUMPI PUSH2 0x1D24 PUSH2 0x1780 JUMP JUMPDEST JUMPDEST PUSH2 0x1D2F DUP3 SLOAD PUSH2 0x196D JUMP JUMPDEST PUSH2 0x1D3A DUP3 DUP3 DUP6 PUSH2 0x1C7A JUMP JUMPDEST PUSH0 PUSH1 0x20 SWAP1 POP PUSH1 0x1F DUP4 GT PUSH1 0x1 DUP2 EQ PUSH2 0x1D6B JUMPI PUSH0 DUP5 ISZERO PUSH2 0x1D59 JUMPI DUP3 DUP8 ADD MLOAD SWAP1 POP JUMPDEST PUSH2 0x1D63 DUP6 DUP3 PUSH2 0x1CE8 JUMP JUMPDEST DUP7 SSTORE POP PUSH2 0x1DCA JUMP JUMPDEST PUSH1 0x1F NOT DUP5 AND PUSH2 0x1D79 DUP7 PUSH2 0x1B63 JUMP JUMPDEST PUSH0 JUMPDEST DUP3 DUP2 LT ISZERO PUSH2 0x1DA0 JUMPI DUP5 DUP10 ADD MLOAD DUP3 SSTORE PUSH1 0x1 DUP3 ADD SWAP2 POP PUSH1 0x20 DUP6 ADD SWAP5 POP PUSH1 0x20 DUP2 ADD SWAP1 POP PUSH2 0x1D7B JUMP JUMPDEST DUP7 DUP4 LT ISZERO PUSH2 0x1DBD JUMPI DUP5 DUP10 ADD MLOAD PUSH2 0x1DB9 PUSH1 0x1F DUP10 AND DUP3 PUSH2 0x1CCC JUMP JUMPDEST DUP4 SSTORE POP JUMPDEST PUSH1 0x1 PUSH1 0x2 DUP9 MUL ADD DUP9 SSTORE POP POP POP JUMPDEST POP POP POP POP POP POP JUMP JUMPDEST PUSH32 0x6F6E6C79206F776E65722063616E20706572666F726D20746865207461736B73 PUSH0 DUP3 ADD MSTORE POP JUMP JUMPDEST PUSH0 PUSH2 0x1E06 PUSH1 0x20 DUP4 PUSH2 0x136C JUMP JUMPDEST SWAP2 POP PUSH2 0x1E11 DUP3 PUSH2 0x1DD2 JUMP JUMPDEST PUSH1 0x20 DUP3 ADD SWAP1 POP SWAP2 SWAP1 POP JUMP JUMPDEST PUSH0 PUSH1 0x20 DUP3 ADD SWAP1 POP DUP2 DUP2 SUB PUSH0 DUP4 ADD MSTORE PUSH2 0x1E33 DUP2 PUSH2 0x1DFA JUMP JUMPDEST SWAP1 POP SWAP2 SWAP1 POP JUMP JUMPDEST PUSH32 0x74686520646561646C696E652063616E206E6F7420626520696E207061737420 PUSH0 DUP3 ADD MSTORE PUSH32 0x74696D6500000000000000000000000000000000000000000000000000000000 PUSH1 0x20 DUP3 ADD MSTORE POP JUMP JUMPDEST PUSH0 PUSH2 0x1E94 PUSH1 0x24 DUP4 PUSH2 0x136C JUMP JUMPDEST SWAP2 POP PUSH2 0x1E9F DUP3 PUSH2 0x1E3A JUMP JUMPDEST PUSH1 0x40 DUP3 ADD SWAP1 POP SWAP2 SWAP1 POP JUMP JUMPDEST PUSH0 PUSH1 0x20 DUP3 ADD SWAP1 POP DUP2 DUP2 SUB PUSH0 DUP4 ADD MSTORE PUSH2 0x1EC1 DUP2 PUSH2 0x1E88 JUMP JUMPDEST SWAP1 POP SWAP2 SWAP1 POP JUMP JUMPDEST PUSH32 0x70726F706F73616C206964206973207A65726F20616E6420696E76616C696400 PUSH0 DUP3 ADD MSTORE POP JUMP JUMPDEST PUSH0 PUSH2 0x1EFC PUSH1 0x1F DUP4 PUSH2 0x136C JUMP JUMPDEST SWAP2 POP PUSH2 0x1F07 DUP3 PUSH2 0x1EC8 JUMP JUMPDEST PUSH1 0x20 DUP3 ADD SWAP1 POP SWAP2 SWAP1 POP JUMP JUMPDEST PUSH0 PUSH1 0x20 DUP3 ADD SWAP1 POP DUP2 DUP2 SUB PUSH0 DUP4 ADD MSTORE PUSH2 0x1F29 DUP2 PUSH2 0x1EF0 JUMP JUMPDEST SWAP1 POP SWAP2 SWAP1 POP JUMP JUMPDEST PUSH32 0x50726F706F73616C20494420416C726561647920457869737473000000000000 PUSH0 DUP3 ADD MSTORE POP JUMP JUMPDEST PUSH0 PUSH2 0x1F64 PUSH1 0x1A DUP4 PUSH2 0x136C JUMP JUMPDEST SWAP2 POP PUSH2 0x1F6F DUP3 PUSH2 0x1F30 JUMP JUMPDEST PUSH1 0x20 DUP3 ADD SWAP1 POP SWAP2 SWAP1 POP JUMP JUMPDEST PUSH0 PUSH1 0x20 DUP3 ADD SWAP1 POP DUP2 DUP2 SUB PUSH0 DUP4 ADD MSTORE PUSH2 0x1F91 DUP2 PUSH2 0x1F58 JUMP JUMPDEST SWAP1 POP SWAP2 SWAP1 POP JUMP JUMPDEST PUSH32 0x646561646C696E652063616E6E6F7420626520696E20706173742074696D6520 PUSH0 DUP3 ADD MSTORE PUSH32 0x7061737365640000000000000000000000000000000000000000000000000000 PUSH1 0x20 DUP3 ADD MSTORE POP JUMP JUMPDEST PUSH0 PUSH2 0x1FF2 PUSH1 0x26 DUP4 PUSH2 0x136C JUMP JUMPDEST SWAP2 POP PUSH2 0x1FFD DUP3 PUSH2 0x1F98 JUMP JUMPDEST PUSH1 0x40 DUP3 ADD SWAP1 POP SWAP2 SWAP1 POP JUMP JUMPDEST PUSH0 PUSH1 0x20 DUP3 ADD SWAP1 POP DUP2 DUP2 SUB PUSH0 DUP4 ADD MSTORE PUSH2 0x201F DUP2 PUSH2 0x1FE6 JUMP JUMPDEST SWAP1 POP SWAP2 SWAP1 POP JUMP JUMPDEST PUSH32 0x616C726561647920766F74656400000000000000000000000000000000000000 PUSH0 DUP3 ADD MSTORE POP JUMP JUMPDEST PUSH0 PUSH2 0x205A PUSH1 0xD DUP4 PUSH2 0x136C JUMP JUMPDEST SWAP2 POP PUSH2 0x2065 DUP3 PUSH2 0x2026 JUMP JUMPDEST PUSH1 0x20 DUP3 ADD SWAP1 POP SWAP2 SWAP1 POP JUMP JUMPDEST PUSH0 PUSH1 0x20 DUP3 ADD SWAP1 POP DUP2 DUP2 SUB PUSH0 DUP4 ADD MSTORE PUSH2 0x2087 DUP2 PUSH2 0x204E JUMP JUMPDEST SWAP1 POP SWAP2 SWAP1 POP JUMP JUMPDEST PUSH32 0x70726F706F73616C20616C726561647920657869737473000000000000000000 PUSH0 DUP3 ADD MSTORE POP JUMP JUMPDEST PUSH0 PUSH2 0x20C2 PUSH1 0x17 DUP4 PUSH2 0x136C JUMP JUMPDEST SWAP2 POP PUSH2 0x20CD DUP3 PUSH2 0x208E JUMP JUMPDEST PUSH1 0x20 DUP3 ADD SWAP1 POP SWAP2 SWAP1 POP JUMP JUMPDEST PUSH0 PUSH1 0x20 DUP3 ADD SWAP1 POP DUP2 DUP2 SUB PUSH0 DUP4 ADD MSTORE PUSH2 0x20EF DUP2 PUSH2 0x20B6 JUMP JUMPDEST SWAP1 POP SWAP2 SWAP1 POP JUMP INVALID LOG2 PUSH5 0x6970667358 0x22 SLT KECCAK256 SSTORE STOP 0xD0 PUSH2 0xEFE0 LOG4 0xC0 0xDC SWAP4 PUSH20 0x2DEEB104A2A364BCC8C31EFCCC0403AB5028AC2 0xF7 PUSH5 0x736F6C6343 STOP ADDMOD 0x1E STOP CALLER "
				},
				"gasEstimates": {
					"creation": {
						"codeDepositCost": "1698400",
						"executionCost": "26047",
						"totalCost": "1724447"
					},
					"external": {
						"closeProposals()": "24725",
						"createProposals(uint256,string,string,uint256)": "infinite",
						"extendProposals(uint256)": "infinite",
						"getProposalDataById(uint256)": "infinite",
						"getTotalNumberOfProposal()": "2485",
						"getVoteStatus(uint256)": "infinite",
						"op(uint256)": "infinite",
						"proposal()": "infinite",
						"proposals(uint256)": "infinite",
						"status()": "2693",
						"voteByAddress(address,uint256,bool)": "infinite"
					},
					"internal": {
						"timeStampToDateTimeStamp(uint256)": "infinite"
					}
				},
				"methodIdentifiers": {
					"closeProposals()": "8f73f9a0",
					"createProposals(uint256,string,string,uint256)": "e89050e9",
					"extendProposals(uint256)": "cf255148",
					"getProposalDataById(uint256)": "c0bc64f3",
					"getTotalNumberOfProposal()": "0f09147c",
					"getVoteStatus(uint256)": "0519bb83",
					"op(uint256)": "387eadae",
					"proposal()": "753ec103",
					"proposals(uint256)": "013cf08b",
					"status()": "200d2ed2",
					"voteByAddress(address,uint256,bool)": "1524f3a7"
				}
			},
			"storageLayout": {
				"storage": [
					{
						"astId": 3,
						"contract": "Vote.sol:Vote",
						"label": "owner",
						"offset": 0,
						"slot": "0",
						"type": "t_address"
					},
					{
						"astId": 37,
						"contract": "Vote.sol:Vote",
						"label": "status",
						"offset": 20,
						"slot": "0",
						"type": "t_enum(Status)16"
					},
					{
						"astId": 40,
						"contract": "Vote.sol:Vote",
						"label": "proposal",
						"offset": 0,
						"slot": "1",
						"type": "t_struct(Proposal)34_storage"
					},
					{
						"astId": 44,
						"contract": "Vote.sol:Vote",
						"label": "proposals",
						"offset": 0,
						"slot": "7",
						"type": "t_array(t_struct(Proposal)34_storage)dyn_storage"
					},
					{
						"astId": 49,
						"contract": "Vote.sol:Vote",
						"label": "proposalPerUser",
						"offset": 0,
						"slot": "8",
						"type": "t_mapping(t_address,t_struct(Proposal)34_storage)"
					},
					{
						"astId": 54,
						"contract": "Vote.sol:Vote",
						"label": "proposalPerId",
						"offset": 0,
						"slot": "9",
						"type": "t_mapping(t_uint256,t_struct(Proposal)34_storage)"
					},
					{
						"astId": 60,
						"contract": "Vote.sol:Vote",
						"label": "hasVoted",
						"offset": 0,
						"slot": "10",
						"type": "t_mapping(t_address,t_mapping(t_uint256,t_bool))"
					},
					{
						"astId": 66,
						"contract": "Vote.sol:Vote",
						"label": "votesPerUser",
						"offset": 0,
						"slot": "11",
						"type": "t_mapping(t_address,t_mapping(t_bool,t_uint256))"
					},
					{
						"astId": 74,
						"contract": "Vote.sol:Vote",
						"label": "userVote",
						"offset": 0,
						"slot": "12",
						"type": "t_mapping(t_address,t_mapping(t_uint256,t_struct(Proposal)34_storage))"
					},
					{
						"astId": 104,
						"contract": "Vote.sol:Vote",
						"label": "op",
						"offset": 0,
						"slot": "13",
						"type": "t_array(t_uint256)dyn_storage"
					}
				],
				"types": {
					"t_address": {
						"encoding": "inplace",
						"label": "address",
						"numberOfBytes": "20"
					},
					"t_array(t_struct(Proposal)34_storage)dyn_storage": {
						"base": "t_struct(Proposal)34_storage",
						"encoding": "dynamic_array",
						"label": "struct Vote.Proposal[]",
						"numberOfBytes": "32"
					},
					"t_array(t_uint256)dyn_storage": {
						"base": "t_uint256",
						"encoding": "dynamic_array",
						"label": "uint256[]",
						"numberOfBytes": "32"
					},
					"t_bool": {
						"encoding": "inplace",
						"label": "bool",
						"numberOfBytes": "1"
					},
					"t_enum(Status)16": {
						"encoding": "inplace",
						"label": "enum Vote.Status",
						"numberOfBytes": "1"
					},
					"t_mapping(t_address,t_mapping(t_bool,t_uint256))": {
						"encoding": "mapping",
						"key": "t_address",
						"label": "mapping(address => mapping(bool => uint256))",
						"numberOfBytes": "32",
						"value": "t_mapping(t_bool,t_uint256)"
					},
					"t_mapping(t_address,t_mapping(t_uint256,t_bool))": {
						"encoding": "mapping",
						"key": "t_address",
						"label": "mapping(address => mapping(uint256 => bool))",
						"numberOfBytes": "32",
						"value": "t_mapping(t_uint256,t_bool)"
					},
					"t_mapping(t_address,t_mapping(t_uint256,t_struct(Proposal)34_storage))": {
						"encoding": "mapping",
						"key": "t_address",
						"label": "mapping(address => mapping(uint256 => struct Vote.Proposal))",
						"numberOfBytes": "32",
						"value": "t_mapping(t_uint256,t_struct(Proposal)34_storage)"
					},
					"t_mapping(t_address,t_struct(Proposal)34_storage)": {
						"encoding": "mapping",
						"key": "t_address",
						"label": "mapping(address => struct Vote.Proposal)",
						"numberOfBytes": "32",
						"value": "t_struct(Proposal)34_storage"
					},
					"t_mapping(t_bool,t_uint256)": {
						"encoding": "mapping",
						"key": "t_bool",
						"label": "mapping(bool => uint256)",
						"numberOfBytes": "32",
						"value": "t_uint256"
					},
					"t_mapping(t_uint256,t_bool)": {
						"encoding": "mapping",
						"key": "t_uint256",
						"label": "mapping(uint256 => bool)",
						"numberOfBytes": "32",
						"value": "t_bool"
					},
					"t_mapping(t_uint256,t_struct(Proposal)34_storage)": {
						"encoding": "mapping",
						"key": "t_uint256",
						"label": "mapping(uint256 => struct Vote.Proposal)",
						"numberOfBytes": "32",
						"value": "t_struct(Proposal)34_storage"
					},
					"t_string_storage": {
						"encoding": "bytes",
						"label": "string",
						"numberOfBytes": "32"
					},
					"t_struct(Proposal)34_storage": {
						"encoding": "inplace",
						"label": "struct Vote.Proposal",
						"members": [
							{
								"astId": 18,
								"contract": "Vote.sol:Vote",
								"label": "id",
								"offset": 0,
								"slot": "0",
								"type": "t_uint256"
							},
							{
								"astId": 20,
								"contract": "Vote.sol:Vote",
								"label": "name",
								"offset": 0,
								"slot": "1",
								"type": "t_string_storage"
							},
							{
								"astId": 22,
								"contract": "Vote.sol:Vote",
								"label": "desc",
								"offset": 0,
								"slot": "2",
								"type": "t_string_storage"
							},
							{
								"astId": 24,
								"contract": "Vote.sol:Vote",
								"label": "deadline",
								"offset": 0,
								"slot": "3",
								"type": "t_uint256"
							},
							{
								"astId": 26,
								"contract": "Vote.sol:Vote",
								"label": "voteCount",
								"offset": 0,
								"slot": "4",
								"type": "t_uint256"
							},
							{
								"astId": 28,
								"contract": "Vote.sol:Vote",
								"label": "yes",
								"offset": 0,
								"slot": "5",
								"type": "t_bool"
							},
							{
								"astId": 30,
								"contract": "Vote.sol:Vote",
								"label": "no",
								"offset": 1,
								"slot": "5",
								"type": "t_bool"
							},
							{
								"astId": 33,
								"contract": "Vote.sol:Vote",
								"label": "status",
								"offset": 2,
								"slot": "5",
								"type": "t_enum(Status)16"
							}
						],
						"numberOfBytes": "192"
					},
					"t_uint256": {
						"encoding": "inplace",
						"label": "uint256",
						"numberOfBytes": "32"
					}
				}
			},
			"userdoc": {
				"kind": "user",
				"methods": {},
				"version": 1
			}
		}
	}
}